:020000040801F1
:10000000000002205D7E01086D5301087153010854
:1000100075530108795301087D5301080000000061
:1000200000000000000000000000000081530108F3
:100030008553010800000000A57E0108417D0108EC
:10004000A57E0108A57E0108A57E0108A57E010800
:10005000A57E0108A57E0108A57E0108A57E0108F0
:10006000A57E0108A57E0108A57E0108A57E0108E0
:100070003566010861660108A57E0108FD5B01087F
:10008000A57E0108A57E0108A57E0108A57E0108C0
:10009000A57E0108A57E0108A57E0108A57E0108B0
:1000A000A57E0108A57E0108A57E0108A57E0108A0
:1000B000A57E0108A57E010849670108A57E010803
:1000C000A57E0108A57E0108A57E0108A57E010880
:1000D000A57E010891790108A57E010885660108C1
:1000E000A57E0108A57E0108A57E0108A57E010860
:1000F000A57E0108A57E0108A57E0108A57E010850
:10010000A57E0108A57E0108A57E0108A57E01083F
:10011000A57E0108A57E0108A57E0108A57E01082F
:10012000A57E0108A57E0108A57E0108A57E01081F
:10013000A57E0108A57E0108A57E0108A57E01080F
:10014000A57E0108A57E0108A57E0108A57E0108FF
:10015000A57E0108A57E0108A57E0108A57E0108EF
:10016000A57E0108A57E0108A57E0108A57E0108DF
:10017000A57E0108A57E0108A57E0108A57E0108CF
:08018000A57E0108A57E01081F
:1001900010B5054C237833B9044B13B10448AFF3C1
:1001A00000800123237010BD4C00002000000000DF
:1001B0003C8A010808B5034B1BB103490348AFF360
:1001C000008008BD00000000500000203C8A0108AB
:1001D00081F0004102E000BF83F0004330B54FEAF8
:1001E00041044FEA430594EA050F08BF90EA020F65
:1001F0001FBF54EA000C55EA020C7FEA645C7FEAF8
:10020000655C00F0E2804FEA5454D4EB5555B8BF1A
:100210006D420CDD2C4480EA020281EA030382EA8B
:10022000000083EA010180EA020281EA0303362D1D
:1002300088BF30BD11F0004F4FEA01314FF4801CF0
:100240004CEA113102D0404261EB410113F0004F02
:100250004FEA03334CEA133302D0524263EB4303B9
:1002600094EA050F00F0A780A4F10104D5F1200E57
:100270000DDB02FA0EFC22FA05F2801841F10001B2
:1002800003FA0EF2801843FA05F359410EE0A5F186
:1002900020050EF1200E012A03FA0EFC28BF4CF0B7
:1002A000020C43FA05F3C01851EBE37101F000456D
:1002B00007D54FF0000EDCF1000C7EEB00006EEB7A
:1002C0000101B1F5801F1BD3B1F5001F0CD3490804
:1002D0005FEA30004FEA3C0C04F101044FEA44525B
:1002E00012F5800F80F09A80BCF1004F08BF5FEAE2
:1002F000500C50F1000041EB045141EA050130BDC2
:100300005FEA4C0C404141EB0101013C28BFB1F5D3
:10031000801FE9D291F0000F04BF01460020B1FA1E
:1003200081F308BF2033A3F10B03B3F120020CDAF1
:100330000C3208DD02F1140CC2F10C0201FA0CF0CF
:1003400021FA02F10CE002F11402D8BFC2F1200C34
:1003500001FA02F120FA0CFCDCBF41EA0C019040EA
:10036000E41AA2BF01EB0451294330BD6FEA040433
:100370001F3C1CDA0C340EDC04F11404C4F120021E
:1003800020FA04F001FA02F340EA030021FA04F330
:1003900045EA030130BDC4F10C04C4F1200220FA87
:1003A00002F001FA04F340EA0300294630BD21FAC5
:1003B00004F0294630BD94F0000F83F4801306BF8B
:1003C00081F480110134013D4EE77FEA645C18BF7F
:1003D0007FEA655C29D094EA050F08BF90EA020F16
:1003E00005D054EA000C04BF1946104630BD91EA0E
:1003F000030F1EBF0021002030BD5FEA545C05D111
:100400004000494128BF41F0004130BD14F580044F
:100410003CBF01F5801130BD01F0004545F0FE41C3
:1004200041F470014FF0000030BD7FEA645C1ABFF8
:10043000194610467FEA655C1CBF0B46024650EA2F
:10044000013406BF52EA033591EA030F41F400215B
:1004500030BD00BF90F0000F04BF0021704730B5E1
:100460004FF4806404F132044FF000054FF00001B6
:1004700050E700BF90F0000F04BF0021704730B577
:100480004FF4806404F1320410F0004548BF40424C
:100490004FF000013EE700BF42004FEAE2014FEAA1
:1004A00031014FEA02701FBF12F07F4393F07F4F7C
:1004B00081F06051704732F07F4208BF704793F07F
:1004C0007F4F04BF41F40021704730B54FF4607492
:1004D00001F0004521F000411CE700BF50EA010295
:1004E00008BF704730B54FF000050AE050EA01023E
:1004F00008BF704730B511F0004502D5404261EBAE
:1005000041014FF4806404F132045FEA915C3FF4EE
:10051000D8AE4FF003025FEADC0C18BF03325FEA8B
:10052000DC0C18BF033202EBDC02C2F1200300FA3C
:1005300003FC20FA02F001FA03FE40EA0E0021FA61
:1005400002F11444BDE600BF70B54FF0FF0C4CF44F
:10055000E06C1CEA11541DBF1CEA135594EA0C0F01
:1005600095EA0C0F00F0DEF82C4481EA030621EA3C
:100570004C5123EA4C5350EA013518BF52EA033577
:1005800041F4801143F4801338D0A0FB02CE4FF029
:100590000005E1FB02E506F00042E0FB03E54FF059
:1005A0000006E1FB03569CF0000F18BF4EF0010E51
:1005B000A4F1FF04B6F5007F64F5407404D25FEA4D
:1005C0004E0E6D4146EB060642EAC62141EA555100
:1005D0004FEAC52040EA5E504FEACE2EB4F1FD0C42
:1005E00088BFBCF5E06F1ED8BEF1004F08BF5FEAC0
:1005F000500E50F1000041EB045170BD06F0004672
:1006000046EA010140EA020081EA0301B4EB5C041E
:10061000C2BFD4EB0C0541EA045170BD41F4801116
:100620004FF0000E013C00F3AB8014F1360FDEBF3B
:10063000002001F0004170BDC4F10004203C35DA17
:100640000C341BDC04F11404C4F1200500FA05F39A
:1006500020FA04F001FA05F240EA020001F000423B
:1006600021F0004110EBD37021FA04F642EB0601B1
:100670005EEA430E08BF20EAD37070BDC4F10C04DB
:10068000C4F1200500FA04F320FA05F001FA04F29F
:1006900040EA020001F0004110EBD37041F100018B
:1006A0005EEA430E08BF20EAD37070BDC4F1200596
:1006B00000FA05F24EEA020E20FA04F301FA05F2FE
:1006C00043EA020321FA04F001F0004121FA04F2A6
:1006D00020EA020000EBD3705EEA430E08BF20EA76
:1006E000D37070BD94F0000F0FD101F000464000B0
:1006F00041EB010111F4801F08BF013CF7D041EA32
:10070000060195F0000F18BF704703F00046520035
:1007100043EB030313F4801F08BF013DF7D043EA06
:100720000603704794EA0C0F0CEA135518BF95EABC
:100730000C0F0CD050EA410618BF52EA4306D1D143
:1007400081EA030101F000414FF0000070BD50EA62
:10075000410606BF1046194652EA430619D094EAEC
:100760000C0F02D150EA013613D195EA0C0F05D1D6
:1007700052EA03361CBF104619460AD181EA03012A
:1007800001F0004141F0FE4141F470014FF00000E2
:1007900070BD41F0FE4141F4780170BD70B54FF07D
:1007A000FF0C4CF4E06C1CEA11541DBF1CEA1355FD
:1007B00094EA0C0F95EA0C0F00F0A7F8A4EB0504DF
:1007C00081EA030E52EA03354FEA013100F08880D6
:1007D0004FEA03334FF0805545EA131343EA12639F
:1007E0004FEA022245EA111545EA10654FEA002654
:1007F0000EF000419D4208BF964244F1FD0404F50D
:10080000407402D25B084FEA3202B61A65EB030568
:100810005B084FEA32024FF480104FF4002CB6EB25
:10082000020E75EB030E22BFB61A754640EA0C00A5
:100830005B084FEA3202B6EB020E75EB030E22BFE5
:10084000B61A754640EA5C005B084FEA3202B6EB26
:10085000020E75EB030E22BFB61A754640EA9C00E5
:100860005B084FEA3202B6EB020E75EB030E22BFB5
:10087000B61A754640EADC0055EA060E18D04FEA73
:10088000051545EA16754FEA06164FEAC30343EA13
:1008900052734FEAC2025FEA1C1CC0D111F4801FE0
:1008A0000BD141EA00014FF000004FF0004CB6E7D9
:1008B00011F4801F04BF01430020B4F1FD0C88BF78
:1008C000BCF5E06F3FF6AFAEB5EB030C04BFB6EB83
:1008D000020C5FEA500C50F1000041EB045170BD76
:1008E0000EF0004E4EEA113114EB5C04C2BFD4EBA3
:1008F0000C0541EA045170BD41F480114FF0000E27
:10090000013C90E645EA060E8DE60CEA135594EAA2
:100910000C0F08BF95EA0C0F3FF43BAF94EA0C0FA5
:100920000AD150EA01347FF434AF95EA0C0F7FF41A
:1009300025AF104619462CE795EA0C0F06D152EA6E
:1009400003353FF4FDAE1046194622E750EA410652
:1009500018BF52EA43067FF4C5AE50EA41047FF463
:100960000DAF52EA43057FF4EBAE12E74FF0FF3CC8
:1009700006E000BF4FF0010C02E000BF4FF0010C99
:100980004DF804CD4FEA410C7FEA6C5C4FEA430C12
:1009900018BF7FEA6C5C1BD001B050EA410C0CBF61
:1009A00052EA430C91EA030F02BF90EA020F0020C3
:1009B000704710F1000F91EA030F58BF994208BF2A
:1009C00090422CBFD8176FEAE37040F001007047E7
:1009D0004FEA410C7FEA6C5C02D150EA013C07D13E
:1009E0004FEA430C7FEA6C5CD6D152EA033CD3D089
:1009F0005DF8040B704700BF8446104662468C4683
:100A00001946634600E000BF01B5FFF7B7FF0028B5
:100A100048BF10F1000F01BD4DF808EDFFF7F4FFDE
:100A20000CBF012000205DF808FB00BF4DF808ED69
:100A3000FFF7EAFF34BF012000205DF808FB00BF8C
:100A40004DF808EDFFF7E0FF94BF012000205DF8AE
:100A500008FB00BF4DF808EDFFF7CEFF94BF012063
:100A600000205DF808FB00BF4DF808EDFFF7C4FF5C
:100A700034BF012000205DF808FB00BF4FEA4102AF
:100A800012F5001215D211D56FF47873B3EB6252E0
:100A900012D94FEAC12343F0004343EA505311F007
:100AA000004F23FA02F018BF404270474FF0000099
:100AB000704750EA013005D111F0004008BF6FF0D7
:100AC000004070474FF00000704700BF53B94AB96B
:100AD000002908BF00281CBF4FF0FF314FF0FF3046
:100AE00000F074B9ADF1080C6DE904CE00F006F821
:100AF000DDF804E0DDE9022304B070472DE9F0479A
:100B0000089D04468E46002B4DD18A42944669D9F1
:100B1000B2FA82F252B101FA02F3C2F1200120FAD4
:100B200001F10CFA02FC41EA030E94404FEA1C4822
:100B3000210CBEFBF8F61FFA8CF708FB16E341EA1E
:100B4000034306FB07F199420AD91CEB030306F1A4
:100B5000FF3080F01F81994240F21C81023E6344C5
:100B60005B1AA4B2B3FBF8F008FB103344EA034469
:100B700000FB07F7A7420AD91CEB040400F1FF337E
:100B800080F00A81A74240F207816444023840EABB
:100B90000640E41B00261DB1D4400023C5E90043F4
:100BA0003146BDE8F0878B4209D9002D00F0EF8077
:100BB0000026C5E9000130463146BDE8F087B3FAAA
:100BC00083F6002E4AD18B4202D3824200F2F98092
:100BD000841A61EB030301209E46002DE0D0C5E995
:100BE000004EDDE702B9FFDEB2FA82F2002A40F0E1
:100BF0009280A1EB0C014FEA1C471FFA8CFE0126E4
:100C0000200CB1FBF7F307FB131140EA01410EFB87
:100C100003F0884208D91CEB010103F1FF3802D22E
:100C2000884200F2CB804346091AA4B2B1FBF7F028
:100C300007FB101144EA01440EFB00FEA64508D94B
:100C40001CEB040400F1FF3102D2A64500F2BB8088
:100C50000846A4EB0E0440EA03409CE7C6F12007D7
:100C6000B34022FA07FC4CEA030C20FA07F401FA1D
:100C700006F31C43F9404FEA1C4900FA06F3B1FBA6
:100C8000F9F8200C1FFA8CFE09FB181140EA01410B
:100C900008FB0EF0884202FA06F20BD91CEB0101A8
:100CA00008F1FF3A80F08880884240F28580A8F100
:100CB00002086144091AA4B2B1FBF9F009FB101152
:100CC00044EA014100FB0EFE8E4508D91CEB0101F0
:100CD00000F1FF346CD28E456AD90238614440EA93
:100CE0000840A0FB0294A1EB0E01A142C846A64613
:100CF00056D353D05DB1B3EB080261EB0E0101FA9C
:100D000007F722FA06F3F1401F43C5E900710026F8
:100D10003146BDE8F087C2F12003D8400CFA02FC4E
:100D200021FA03F3914001434FEA1C471FFA8CFE5E
:100D3000B3FBF7F007FB10360B0C43EA064300FB4E
:100D40000EF69E4204FA02F408D91CEB030300F1EC
:100D5000FF382FD29E422DD9023863449B1B89B2A3
:100D6000B3FBF7F607FB163341EA034106FB0EF32C
:100D70008B4208D91CEB010106F1FF3816D28B42D9
:100D800014D9023E6144C91A46EA004638E72E46A5
:100D9000284605E70646E3E61846F8E64B45A9D29D
:100DA000B9EB020864EB0C0E0138A3E74646EAE70C
:100DB000204694E74046D1E7D0467BE7023B6144BA
:100DC00032E7304609E76444023842E7704700BF23
:100DD00001F0FF01102A2BDB10F0070F08D010F8EC
:100DE000013B013A8B422DD010F0070F42B3F6D1F0
:100DF000F0B441EA012141EA014122F007047FF009
:100E000000070023F0E80256083C85EA010586EA5F
:100E1000010685FA47F5A3FA87F586FA47F6A5FA9B
:100E200087F68EB9EED1F0BC01F0FF0102F00702A7
:100E300032B110F8013B013A83EA010313B1F8D152
:100E40000020704701387047002D06BF3546033833
:100E5000073815F0010F07D1013015F4807F02BF6C
:100E6000013015F4C03F0130F0BC0138704700BFBD
:100E7000EC46A0E8F05F4FF000007047B0E8F05F8C
:100E8000E546080008BF0120704700BF10F8012B9D
:100E900011F8013B012A28BF9A42F7D0D01A7047B7
:100EA00030B583B004466D464168284605F098FE8B
:100EB00009492078094C2C2200F0ECF9034695E80A
:100EC000030003F120025C6082E80300012283F842
:100ED0002A2003B030BD00BFA10E0108E10E0108B9
:100EE00038B500F12005044695E8030005F0E2FE60
:100EF00020B1A3681844A060012038BD95E8030024
:100F000005F002FF94F82A3094F82B2093421CD26B
:100F1000218B0133DBB2084480B29A42208384F8EB
:100F20002A3018D8638B83421BD8A38B834218D3F3
:100F3000002384F82830134801F042FF6369E26817
:100F400013446361A360012038BD01239A422083CA
:100F500084F82A30E6D9A36822691344A3600120EB
:100F600038BD94F8283094F829200133DBB29A4236
:100F700084F82830DFD8044803F09AFD01F09CFF84
:100F8000D6E700BF6C000020608A010838B515491B
:100F90000546007800F05EF9044601F085FE04F194
:100FA000200393E8030005F005FF6B686361A3600D
:100FB000AB6823612B7B84F82B305A1C84F82A20E1
:100FC0002A69E260D5E90501EA6984F8292060838D
:100FD000A18303B938BD20461F21BDE8384001F088
:100FE00075BF00BFA10E01082DE9F041214884B072
:100FF00001F0EEFE30B3FF231F4D204F204E8DF841
:101000000F3029460DF10F0000F070F90446C8B109
:1010100094F82A2094F82B309A42F2D106F0ECFD95
:1010200094F82B3094F82A20934203F101010CD05C
:1010300006F0E4FD29460DF10F0000F057F90446D3
:101040000028E5D104B0BDE8F0816269B4F81880E9
:1010500084F82A10019206F0D1FD3046A7F80080EE
:1010600003F058FF019A9DF80F10434600F090FDE1
:10107000C7E700BF6C000020A10E01086800002037
:10108000748A010830B583B0FF23124D8DF8073004
:1010900006E093E8030005F08DFE94F82B305BB971
:1010A00029460DF1070000F021F9044600F1200364
:1010B0000028EED103B030BD6269E16801330A4413
:1010C00084F82A306261A2600021204601F0FEFE11
:1010D000E6E700BFA10E010808B5044B04482B2227
:1010E0001A6003F0E5FC01F0BBFE00BF54010020D4
:1010F000A48A010808B506F077FD034B033020F001
:101100000300186008BD00BF7000002070B50E4ECF
:10111000336804461D1806F06BFD85420CD835680F
:10112000E31C23F003032B442246002128463360AE
:1011300007F07CFC284670BD044B054828221A6045
:1011400003F0B6FC01F08CFE70000020540100207A
:10115000C08A0108024B1A6802601860704700BF1D
:101160008000002010B506F04BFD084B1C682CB128
:1011700022681A6006F048FD204610BD044B054861
:101180002A221A6003F094FC01F06AFE800000201D
:1011900054010020D48A01080068B0FA80F04009A8
:1011A000704700BF0068704703460A680020186057
:1011B0001AB14A6813604B607047C1E900330120DF
:1011C000704700BF03681A6802601846704700BF86
:1011D00000230360704700BF08B5FF294FF00003EC
:1011E000C0E9003308DC054B1B882BB9044B1A7887
:1011F0008A42B8BF197008BDFFF76EFF7C0000205F
:10120000840000200F4B188810B4A0B1013815D00D
:101210000D4A0E4B146893F800C00022234619466D
:101220000132634482420B60F9D102FB0C42084B4D
:10123000002111601C605DF8044B7047024B1C6874
:101240002246F4E77C000020880000208400002073
:101250008000002008B50B4B1B78834209D90A4B4C
:101260001B6853F830208A4203EBC00001D140686C
:1012700008BD064B06482D221A6003F019FC01F048
:10128000EFFD00BF8C0000209000002054010020E2
:10129000E88A010870B5104B1C7803469C42104642
:1012A00011D90E4D1AB2DC002B6853F8326056B9D2
:1012B0000B4E36883EB943F83210FFF727FF2B68F4
:1012C0002344586070BD074B07482E221A6003F074
:1012D000EFFB01F0C5FD00BF8C0000209000002056
:1012E0007C00002054010020FC8A010830B50E4A21
:1012F00003780E4C126894F800E003F1010C5FFAD9
:101300008CF302EBC30205E052F8084B8C4203F168
:10131000010C06D05FFA8CF39E451546F4D80020E8
:1013200030BD0370686830BD900000208C00002044
:1013300038B50A4C236843B90568E8B2C000FFF726
:10134000E5FE074B20601D7038BD064B06482F2276
:101350001A6003F0ADFB01F083FD00BF9000002098
:101360008C00002054010020108B010830B50D4D79
:101370000D4885B003F0CEFD29880C4B003918BF0D
:1013800001211A6803920446029101F029FD0346E7
:1013900028880090DDE90212204600F0F9FB05B034
:1013A00030BD00BF7C000020288B010874000020A5
:1013B0002DE9F0411E4F3B88064683BB1D4BDFF8ED
:1013C0008C801D78D8F80040032D9CBF04251D702B
:1013D00006F00EFC002322462C44A04213D3013316
:1013E000B3F5805FF7D11D46D8F80000201AFFF74B
:1013F0008DFE114B3D801860FFF704FF0F4B3268E4
:101400001A60BDE8F08113B19DB21446ECE70C4BB5
:101410000C4829221A6003F04BFB01F021FD084B18
:1014200009482C221A6003F043FB01F019FD00BFAC
:101430007C00002084000020880000207400002030
:1014400054010020788B0108648B01087000002093
:1014500010B5064803F05EFD044606F017FC014691
:101460002046BDE8104000F093BB00BF8C8B010804
:1014700010B582B006F00AFC094A0A4B11681B68D5
:101480000446A34288BF01310748019103F042FDA1
:101490000199224602B0BDE8104000F079BB00BFC0
:1014A000A8000020A40000209C8B01082DE9F04139
:1014B000264D274E2B68274F01332B603368081ABF
:1014C0000344B0F5803F0C46336019D23B6800FB03
:1014D00000F0FF3003EB1020984238BF4FF0FF3090
:1014E00038601D48DFF87C8006F0C8FBD8F8003073
:1014F00001461944204606F0C5FB70B1BDE8F081F5
:10150000B0F5801F06D200F1FF023B68120A00FB13
:101510000230E1E74FF0FF30E2E7104803F0FAFC59
:101520003B683268296800F033FBD8F80030A342EA
:1015300003D90B4A1368013313600023C8F8004035
:101540003B6033602B60BDE8F08100BF7800002075
:10155000AC000020B0000020404B4C00B48B0108D0
:10156000A8000020A400002008B5044B0448312244
:101570001A6003F09DFA01F073FC00BF54010020D3
:10158000D48B010801F080BC10B50E4B04681B68B9
:1015900042689C4282B012D2D2B21119994201D94A
:1015A0001A1BD2B20848019203F0B4FC074B019A0F
:1015B0002344214602B0BDE8104000F0E9BA002201
:1015C000F0E700BFF8A00108E48B0108C895010806
:1015D00008B5044803F09EFC034B1968BDE80840B9
:1015E00000F0D6BA0C8C0108A000002038B50368C2
:1015F0001F4C204A416823600B2B116015D01E48F8
:10160000002107F03FF81D48012107F085F91C482B
:10161000012107F037F81B48012107F033F8BDE836
:1016200038400121022004F09DBD17481749184B8E
:10163000002401254FF4FA5205700C6015481C80F7
:10164000214607F0F3F929460B4807F01BF821461D
:101650000A4807F061F92146094807F013F80948DC
:10166000214607F00FF8BDE83840022004F094BD91
:10167000980000209400002000080040580002401C
:1016800000340140002C01409C000020A0000020FC
:10169000482100200802002000B50849084A094BEB
:1016A0000968094812681A6083B0019103F032FC9E
:1016B000019903B05DF804EB00F06ABAD401002090
:1016C000880100206C010020208C010810B506481C
:1016D00003F020FCBDE8104040F2E93340F25A220A
:1016E00040F2EA7100F054BA348C010838B5084A67
:1016F000084B15681C68084803F00CFC621B002AA4
:101700002946B8BF5242BDE8384000F041BA00BF98
:101710006C010020880100205C8C010810B5064A8D
:10172000064C036806482360138003F0F3FB21682E
:10173000BDE8104000F02CBA42000020000000205C
:101740007C8C0108F8B5877F04469FB100252F46A1
:1017500001262B46043304EBC30393E8030005F092
:1017600057FC01357100EBB200B13743A27F9A42BA
:10177000CEB2EFD8227CBA4207D0637C7B40DB43F9
:1017800082EA0701DBB20B4210D194F91C30257FAD
:101790006774002B04DB013DEDB2FF2D1ED02577D1
:1017A000D4E9023213440120A360F8BD22EA030207
:1017B0003B401343A27C2374072AE6D8511C2244E1
:1017C000A1740848D37401F0FBFAFF232377D4E90E
:1017D0000232677413440120A360F8BD014801F090
:1017E000EFFADCE7B400002010B50479082C09D822
:1017F000221D08490078D200FFF74CFD064B847784
:10180000436010BD054B064825221A6003F050F9CD
:1018100001F026FBE91701084517010854010020D3
:101820009C8C010870B51149054682B00078FFF71D
:1018300011FD2B79827F9A4204460ED96E46D5E976
:10184000021230461D1D05F0BBFB96E8030004EBB9
:10185000C50484E8030002B070BD054B054826228C
:101860001A6003F025F901F0FBFA00BFE91701083F
:1018700054010020B08C010838B5144905460078A1
:10188000FFF7E8FC044601F00FFA6B68A360A96853
:10189000E16000232A7CA374E376FE236274227441
:1018A0002377EB6863771B0607D401B938BD204660
:1018B0003021BDE8384001F009BB054B054827221F
:1018C0001A6003F0F5F801F0CBFA00BFE917010840
:1018D00054010020D88C010838B515490446007819
:1018E000FFF7B8FC2479C37E05462344C37606F08F
:1018F00083F9AB7CA34207D8FE230022AA742B777E
:10190000BDE8384006F07AB91B1BD8B205F11302C6
:1019100004F112032B44141813F8011F02F8011BE1
:10192000A242F9D1A874BDE8384006F067B900BFFB
:10193000E9170108F0B51A4885B001F049FA48B333
:10194000FF23184D184F8DF80F3029460DF10F0069
:10195000FFF7CCFC0446E8B1237FFF2BF5D106F05E
:101960004BF9A67CC6B1637F237706F047F938466A
:1019700003F0D0FA1334227A9DF80F100094334606
:1019800000F006F929460DF10F00FFF7AFFC044601
:101990000028E1D105B0F0BD06F030F9D5E700BF71
:1019A000B4000020E9170108FC8C0108704700BF53
:1019B00070B514799668651EA4B3814233D316F8C6
:1019C000012B042A20D810F8012B02F0600CBCF186
:1019D000600F03F1040E02F07F0408D164F01F04CD
:1019E00005E010F8012B02F07F0C4CEAC41412063B
:1019F000F7D41C60B5B1814215D316F8012B042A27
:101A000005F1FF357346DED9072A0CD1024612F8DC
:101A1000014B1019884206D89E464EF8084B5A6072
:101A2000002DEAD170BD024803F042F801F018FA27
:101A3000288D01082DE9F8438B78052B064694463E
:101A40001C4666D9053B821CD4180B88CF784D689C
:101A50007F2B00F28C80114603F07F0301F8013BDD
:101A6000002F53D08C42C0F08A802F4430E05CF8C5
:101A7000043B03F120027F2A22D903F58052B2F5FC
:101A8000804F18D303F50022B2F5001F0ED303F1E7
:101A90008062B2F1805F04D31A0F62F07F0201F816
:101AA000012B5A0D62F07F0201F8012B9A0B62F0B4
:101AB0007F0201F8012BDA0962F07F0201F8012BA5
:101AC00003F07F0301F8013BBD421FD08C4256D387
:101AD00015F8013B052B30D0C9D9063B012B4ED858
:101AE000E0460B4658F8082B611A914228BF114670
:101AF00003F8011B89460A461846DCF8041006F074
:101B00006DFFBD4200EB0901C446DFD1891BCC1C2F
:101B1000E3B21D4A337012787270E51E29463046D2
:101B200006F07EF9030A735526447E2306F8020C5C
:101B300006F8013C2046BDE8F8835CF8040B037806
:101B40004A1C6BB1944202D817E094420BD002F8C1
:101B5000013B10F8013F002BF7D1531A013BDBB2D8
:101B60000B701146B0E7631A013BDBB2F8E7DA0904
:101B700062F07F028270C21C6DE70023F0E7034829
:101B800002F096FF01F06CF904000020408D01087E
:101B90000FB430B5084D2C7883B0E4B23CB90123C2
:101BA00007A906982B70019105F0D2FF2C7003B0A5
:101BB000BDE8304004B07047B5000020014B002262
:101BC0001A707047B50000202DE9F04B804615468D
:101BD0000C4619B900202860BDE8F08B2F4E3778ED
:101BE000FA0711D40429F5D907787B1F3B2B05D8B8
:101BF00090F8019029F00F03102B1ED07E2F36D0C5
:101C0000337843F00107377022467E214046FFF7C4
:101C1000DFF850B3A0EB080007F0FE070130377083
:101C20002860BB071DD447F0020333701C48FFF740
:101C3000AFFF4FF0FF30BDE8F08BB942CAD3C319F4
:101C400013F8012C7E2AD9D1F91E13F802BC435C8B
:101C50004BEA032B06F0E4F883450DD098F80070AA
:101C6000CCE74FF0FF30BDE8F08B2C60D9E70123C3
:101C70002B604FF0FF30AFE70A4932780B782F60C6
:101C800022F002024B453270D0D1013303F00F0332
:101C900043F010030B7001209EE700BFB600002048
:101CA000688D0108040000202DE9F04B033900F194
:101CB0000209451882B0A94500AF30D2DFF8948000
:101CC00099F9002099F80040002A6E462BDB09F1B3
:101CD0000100ACB31D4B1B889C4231D208EB0412AF
:101CE000294693787A609B00073303F4FF63ADEBDA
:101CF000030DEB465B46FFF75BFE2401814601F0D6
:101D00006FF818B17A68D278D30715D5444405F036
:101D100083FFE26858469047B546A945D0D30837B7
:101D2000BD46BDE8F08B99F80120E40104F47E542F
:101D300009F102001443CCE701F070F8B546ECE776
:101D4000034802F0B5FE01F08BF800BFECA50108D6
:101D5000588D0108FCA001080148FFF719BF00BF1A
:101D6000688D010830B5D0E9004083B0FFF71EFE52
:101D7000054605F045FFE3B2012B0FD0022B10D032
:101D80002978C9B2019105F03FFF074803F0C2F876
:101D9000019903B0BDE83040FFF7FABE298889B247
:101DA000F0E72968EEE700BF708D010870B50446C2
:101DB000D0E90050FFF7FAFDA668044605F020FFC1
:101DC000EBB2012B07D0022B0BD0F6B22670BDE888
:101DD000704005F019BFB6B22680BDE8704005F02E
:101DE00013BF2660BDE8704005F00EBF10B5D0E906
:101DF000004082B0FFF7DAFD0190054803F08AF851
:101E0000019AE1B202B0BDE81040FFF7C1BE00BFC9
:101E1000848D0108704700BF30B50B4983B004467C
:101E200028220078FFF736FA6D4603466168A268FB
:101E300028461C4605F0C4F895E8030004F10C039D
:101E400083E8030003B030BD191E010838B500F166
:101E50000C03044693E8030005F0DAF894F82450E4
:101E600088B1ED4305F001058DB994F82630013BAA
:101E700013F0FF0315D0A268A16984F826300A4444
:101E8000A260012038BD05F00105002DEDD0084904
:101E9000E26994F8253084F82630C4E90112012063
:101EA00038BD206A94F8271002F056FC284638BD49
:101EB000B51E010800F10C0310B5044693E80300B9
:101EC00005F0A6F8A36862691A4494F8243030B18A
:101ED000DB4303F0010333B1A260012010BD03F026
:101EE0000103002BF8D1044BE26163602046BDE89A
:101EF0001040FFF7ABBF00BF4D1E010870B51B4976
:101F000005460078FFF7A6F9044600F0CDFE6B68A1
:101F1000A360AB68A3612B7B84F825302BB9144AEE
:101F200084F824301370236270BD03F0FBFD2A692E
:101F300094F8253084F8263062616A690C4B002AD7
:101F400014BF0322022284F824200A4A287E6260F9
:101F500001261E7002F02CFCEB6984F82730206209
:101F600031462046BDE8704000F0B0BF191E0108A0
:101F7000B7000020B51E01082DE9F041134E1449A9
:101F800001233370077884B03846FFF763F90446BD
:101F900005F032FEE36994F82480039305F02EFEE9
:101FA0000C4802F0B7FF0C34054694E8030005F036
:101FB0002FF8039B0090C8F3400239462846FFF7EC
:101FC000E7FD0023337004B0BDE8F081B7000020C6
:101FD000191E0108948D010810B50A490078FFF711
:101FE00039F9044600F060FE074A94F8251084F899
:101FF0002610002384F8243013702362BDE81040BB
:1020000003F090BD191E0108B700002030B5D0E9DB
:10201000011283B0003A04466D4618BF01222846DB
:1020200004F042FF0F4920783422FFF733F90346CA
:1020300095E8030003F1180282E80300D4E90221C5
:10204000003A18BF012209B142F0100283F8302093
:1020500022691A620C2103F1280003B0BDE8304068
:10206000FFF7BAB80D2001082DE9F84300F1280860
:1020700004464046FFF790F8002840F0A080404614
:10208000FFF7A0F885682E1E18BF012604F118037B
:102090000746324693E8030004F052FF3846FFF744
:1020A00059F8C5B1636AAB4215D9276A002F68D1C8
:1020B000404646F00206FFF76FF8002800F08780E0
:1020C00094F83030676103F010033343A66884F856
:1020D00030302E4426E094F83030B5FA85F283F0A3
:1020E0001003C3F3001352099A4225D0276A1FB385
:1020F000A168404646F004060F44FFF74DF800285B
:1021000048D094F83030676103F01003334384F80B
:102110003030B30726D5A6682E443946304605F040
:10212000B1FDF8B1636A2B4A5B1BC4E90126C4E91F
:1021300003530120BDE8F8834046FFF72DF8A8B906
:1021400081464046FFF72EF8476894F830206761D3
:1021500046F0040602F01002164384F83060B9F12C
:10216000000FD8D1A7600120BDE8F88394F8303083
:1021700003F010033343002084F830306061BDE881
:10218000F883A168404646F006060F44FFF704F8BE
:102190000028B6D14046FFF705F8034638465F6889
:1021A000394605F06FFD06F002090028CDD00A4B34
:1021B0000A481E221A6002F07BFC00F051FE064B1A
:1021C00007481D221A6002F073FC00F049FE4FF030
:1021D0000209B6E7E521010854010020FC8D010841
:1021E000D08D010838B5044600F1180393E80300C8
:1021F00004F08AFE94F83030A56883F00103DA0712
:102200004CBFE268226984F830305B07154402D481
:10221000A560012038BD6169284605F033FD00281E
:10222000F6D1034B65696360A560012038BD00BF2E
:102230006920010838B50D4905460078FFF70AF80E
:10224000044605F0D9FC04F12800FEF7A5FF28B1EB
:102250006B686362BDE8384005F0D0BC044B0548AC
:102260001F221A6002F024FC00F0FAFD0D20010884
:1022700054010020348E0108F8B521490646007843
:10228000FEF7E8FF0446FEF76DFF77684760B36826
:102290008360054605F0B0FC04F128012846FEF7EE
:1022A00083FFA0B194F830506A071ED445F00403B0
:1022B00084F83030AB0767610DD4204600F0F4FCA1
:1022C000104B0F21C4E90137204600F0FFFDBDE8A7
:1022D000F84005F093BCA068394605F0D3FC00280F
:1022E000EBD0BDE8F84005F089BC6069394605F0DF
:1022F000C9FC0028DAD0044802F0DAFB00F0B0FD97
:102300000D20010869200108FC8D0108F0B585B099
:10231000D0E90075866805F0B9FC044641F28830C2
:1023200005F0ACFC04442146284605F0ABFC00282F
:1023300018BF254601A8CDE901750396FFF79CFF5C
:1023400005B0F0BDF8B5244905460078FEF782FFD8
:10235000044600F0A9FC04F12800FEF71DFF90B32D
:102360002E7994F83050371E18BF012704F1180356
:1023700093E803003A4604F0E3FD85F01001B6FA55
:1023800086F35B09C1F300118B4201D0236A2BB99C
:1023900005F010053D4384F83050F8BD05F076FC9B
:1023A00005F01005236A3D43184445F004050B4B26
:1023B00084F83050C4E9013060610E212046BDE848
:1023C000F84000F083BD064B064821221A6002F057
:1023D0006FFB00F045FD00BF0D20010869200108DA
:1023E000540100206C8E010830B583B0FF23124DDC
:1023F0008DF8073013E094F8302093E8030002F0E2
:10240000100204F09DFD94F8303013F0100318BF53
:10241000112304F1280084F83030FEF7D9FE294654
:102420000DF10700FEF762FF044600F118030028D3
:10243000E1D103B030BD00BF0D20010800B5034657
:1024400083B0D3E90012684604F02EFD03B05DF8B6
:1024500004FB00BF024900781022FEF71BBF00BF3B
:10246000552401080149FEF7F5BE00BF55240108B7
:1024700030B5C3680D4985B0044603F07F0300788A
:102480000193FEF7E7FE02ADD4E901120446019B79
:10249000284604F025FF95E80300237B43F0020360
:1024A00084E80300237305B030BD00BF5524010844
:1024B000037B816043F001030373704770B50E49DD
:1024C00004460078FEF7C6FE0546A0682479FFF7AB
:1024D0006DFA2A7BD207034606D5A86821461A461C
:1024E000BDE8704003F0E2B895E803002246BDE87D
:1024F000704004F075BF00BF552401082DE9F0437A
:1025000083B006781949044602AF3046FEF7A2FEB2
:102510000546A06894F80480FFF748FA247BE21D82
:1025200002F4FC72ADEB020D2A7BD20703460DF1DB
:10253000080913D5A868CDF800901A4641462346ED
:1025400003F0CAF80A4802F0E5FC4B462246314641
:10255000FFF71EFB0437BD46BDE8F083CDE9004917
:10256000424695E8030004F06BFFEBE755240108B1
:102570009C8E01082DE9F04B84B005463A4900785D
:1025800002AFFEF767FE8046A8682C79FFF70EFAC7
:10259000EE68F20762D4C6F34706386004EB060B18
:1025A0002869FFF703FA0BF1070298F80C307B60FB
:1025B00022F007023B68ADEB020D0DF10809194648
:1025C00005462246484606F009FA7B6813F00103E7
:1025D0007B603B682AD109EB04020192009698E8DF
:1025E0000300224604F02CFF6EB3013E2E44013C52
:1025F0004C44013D314615F8012F14F8013F23EA00
:102600000203237016F8012F8D4243EA0203237060
:10261000F1D17B68BBB1D8F808004A465FFA8BF16C
:1026200003F044F80837BD46BDE8F08B1A4609EBC5
:102630000403D8F8080000932146334603F04CF811
:10264000002ED2D1E7E798E803004B465FFA8BF201
:1026500004F0C6FE0837BD46BDE8F08B034802F023
:1026600027FA00F0FDFB00BF55240108C48E0108C5
:1026700070B50A4B1E68002E82B00CDD084D002498
:102680002A7955F8081B684602F00102013404F06B
:102690000BFCB442F4D102B070BD00BFD0A601085B
:1026A000D0A6010870B582B004466D46416800228C
:1026B000284604F0F9FBA3689EB21B0412D406F16D
:1026C00018020C49207892B2FEF7E4FD034695E823
:1026D000030083E80300D4E903129E8299601A6123
:1026E00002B070BD044B05481A221A6002F0E0F9EE
:1026F00000F0B6FBA526010854010020EC8E01086D
:1027000070B5114904460078FEF7A4FD0346D4E9EC
:10271000026065681C46FFF749F92B0401460AD49C
:10272000A28AAB19934206D8163532466019BDE825
:10273000704006F053B9054B05481B221A6002F0A1
:10274000B7F900F08DFB00BFA52601085401002059
:10275000088F01082DE9F04B2DED028B03786249BB
:1027600088B0184608EE103AFEF774FDD0E903541D
:10277000059005F08BFA401B844206D905F04CFA0F
:1027800005F084FA401B8442F8D8059D95E80300C3
:1027900005F11602AF8A039706AE86E8030004929D
:1027A000029205F073FAAB6801930446002F50D0F3
:1027B000DFF84891029B13F8017B02934FF0080861
:1027C0003B064A484BD505F059FAA9FB0035AD0C3C
:1027D00005F05CFA001B8542FAD805F00DFA05F009
:1027E00055FA054696E8030004F08EFB05F006FA5C
:1027F000019B2C1BA3425FD93D4805F03FFAA9FB82
:1028000000347F00A40C05F041FA401B8442FAD842
:1028100005F0F2F996E8030004F076FB05F0EEF916
:1028200005F034FA8346334805F028FAA9FB003452
:10283000A40C05F02BFAA0EB0B008442F9D82C462F
:10284000B8F10108BCD1DDE903231344029A9A428E
:10285000B0D105F01BFA059B0122D86036E005F0E7
:102860000DFAA9FB0035AD0C05F010FA001B8542EE
:10287000FAD805F0C1F905F009FA834696E8030095
:1028800004F042FB1B4805F0F9F9A9FB0035AD0C3B
:1028900005F0FCF9A0EB0B008542F9D896E803009F
:1028A00004F032FB05F0AAF9019BABEB0404A34250
:1028B00002D97F005C46C3E7002296E8030004F0DB
:1028C0003FFB05F0E3F9059B0022D8600A4801921E
:1028D00002F020FB019A18EE101A08B0BDEC028B32
:1028E000BDE8F04BFFF754B9A5260108D01213003C
:1028F00010EB0900400D0300288F010883DE1B4305
:1029000030B50C4983B004462C220078FEF7C2FC97
:102910006D4603466168A26828461C4604F050FBD9
:1029200095E80300044A04F1240383E8030062608D
:1029300003B030BD012901083D29010870B5836944
:10294000044600F1240292E8030003F00105A668A2
:1029500004F05EFB854203D0A369E6610133A36105
:102960006069314605F08EF928B9D4E90232134482
:102970000120A36070BD94F82020236907483344E8
:1029800042F0010284F82020636100F019FAD4E9D2
:10299000023213440120A36070BD00BFB8000020C4
:1029A00038B50A4905460078FEF754FC044600F0A5
:1029B0007BF96B68A360AA68E260EA682046C4E914
:1029C00004233821BDE8384000F080BA012901080D
:1029D00070B51C4886B000F0FBF980B3FF231A4D98
:1029E0001A4E8DF8173029460DF11700FEF77EFCC0
:1029F000044620B394F82030DB07F4D505F0FCF84A
:102A000094F82010A268A369039221F0010184F8D0
:102A100020100293E46905F0F1F8304602F07AFAEA
:102A2000DDE902329DF817100094FFF7B1F829464E
:102A30000DF11700FEF75AFC04460028DAD106B063
:102A400070BD00BFB8000020012901084C8F0108AB
:102A500038B5027B81680446007904F0F7FA094929
:102A6000054620222078FEF715FCD4E90412064B17
:102A7000C560818243600261BDE838400C21183096
:102A8000FEF7AABB512A01088D2A0108F8B500F10A
:102A9000180604463046FEF795FB07890546394679
:102AA000E06804F0B5FB2846FEF754FB3046FEF71D
:102AB00073FB60B1A38ABB4224D0206900B9F8BD82
:102AC000A368114A1844C4E901200120F8BD30462A
:102AD000FEF768FBA38A4568BB4201D0236913B99E
:102AE000A5600120F8BDA0682946184405F0CAF881
:102AF0000028F5D0054B064818221A6001F0D8FFCF
:102B000000F0AEF90020F8BD152B0108540100209B
:102B1000888F010808B5044B044817221A6001F099
:102B2000C7FF00F09DF900BF54010020B88F0108D5
:102B300070B51C4905460078FEF78CFB0646FEF78B
:102B400011FB6B684360AB680381044605F054F8E1
:102B500006F118012046FEF727FB054605F04EF862
:102B600005B970BD304600F09FF80F4B72689A426D
:102B700009D063680D4A3046C6E901232D21BDE81E
:102B8000704000F0A3B96168B06805F07BF80028D8
:102B9000EFD0074B074819221A6001F089FF00F0B7
:102BA0005FF900BF512A0108152B01088D2A010881
:102BB00054010020888F010870B582B0FF230C4DAE
:102BC0000C4E8DF8073008E0E068A18A04F020FB85
:102BD000666004F11800FEF7FBFA29460DF10700C4
:102BE000FEF784FB04460028EED102B070BD00BFA2
:102BF000512A01088D2A0108027A4168007804F000
:102C000025BA00BF00207047084B094810B50022C4
:102C10001A7205F033F8074A0749946803462344BB
:102C200003F10044012093608C6010BD0800002077
:102C3000A0860100200000202C00002010B50446D2
:102C400003F070F80C4B1B78012B09D04FF47A700D
:102C500005F014F8A368024613440120A36010BDD8
:102C6000064A11780029F1D1054906481370064B30
:102C7000096801601960E9E790010020D000002098
:102C800078010020840100206C01002010B504466A
:102C900003F0E0F9642004F0F1FFA3680246134456
:102CA0000120A36010BD00BF10B5044604F0A8FFCA
:102CB0000E490B68A34202D111E0A3420CD01A4680
:102CC0001B68002BF9D14B68A34204BF084B4B6033
:102CD000BDE8104004F098BF23681360F3E7054B8C
:102CE000A2689A6022681A600B60ECE70800002076
:102CF00020000020140000202DE9F8431C4F3E68FE
:102D0000736830463BBB01F0EFF8B568336838B301
:102D10009968284604F0B6FF10B12846BDE8F8834C
:102D20007C683368A168D3F808903B60284604F0BB
:102D3000A9FF00B13C68A04624682846A16804F0B9
:102D4000A1FF0028F7D04D4634607E60C8F80060CF
:102D50002846BDE8F8839847B56833680028D7D17E
:102D60007A689D683B60B242D7D17B60D5E700BFEF
:102D700008000020074B084A0849094810B49C681D
:102D800094605DF8044B0A604B601360186004F0B7
:102D900083BF00BF20000020140000200800002096
:102DA0002C000020014B00221A72704708000020FE
:102DB000024B187AC043C0F3C010704708000020CF
:102DC000024B00221A720123037070470800002092
:102DD00003780246D8B210B1002313700120704767
:102DE000024B587A003818BF0120704708000020B5
:102DF00010B5064802F08EF8054B064A06491B68D6
:102E000012680978BDE81040FEF7C2BEE48F0108E1
:102E1000C0000020BC0000203001002008B50A4896
:102E200002F078F8094B0A4A0A491B6809781268C7
:102E3000FEF7AEFE084802F06DF8084B997ABDE83F
:102E40000840FEF7A5BE00BFE48F0108C0000020C7
:102E5000BC0000203001002018900108080000206C
:102E600000B583B0019004F0C7FE01990148FEF758
:102E700005F800BFD400002008B5024801F018FE94
:102E8000FFF7EEFF3C90010808B5084A537A23B1DA
:102E9000022B1CBF0023537208BD054B05481622A8
:102EA0001A6001F005FEFFF7DBFF00BF08000020FD
:102EB000540100205490010808B5034B5B7A03B11C
:102EC00008BDFFF7CDFF00BF080000202DE9F04B43
:102ED000DFF8949085680E46074604F091FED9F815
:102EE00000408046A168284604F0CCFE70B9264612
:102EF00024682846A16804F0C5FE0028F7D03C608D
:102F000037604046BDE8F04B04F07EBE04F0BEFEE4
:102F100083460146284604F0B5FE58B90D4BC9F862
:102F200000309C4208BF24683C609D601F6004F034
:102F3000B3FEE6E7084B09481D60094BC3F800B033
:102F4000084B1E7001F0B4FD99F80930002BE5D153
:102F5000FFF786FF14000020C000002078900108D1
:102F6000BC000020300100200800002038B50A4DC8
:102F70000A4B6B6004F08AFE04464FF47A7004F04A
:102F80007DFE00230444AC6028462B606221BDE82E
:102F90003840FFF79BBF00BF340100203D2C0108E3
:102FA00038B5094D094B6B6004F070FE044664208F
:102FB00004F064FE00230444AC6028462B606021CA
:102FC000BDE83840FFF782BFC40000208D2C010807
:102FD00070B582B001F00EFD02F014F902F07AFE35
:102FE00002F030FEFFF7C2FFFFF7DAFF03F084FACA
:102FF000314801F08FFFFEF7CBFD04F0FDFD2F48B7
:10300000FDF736FF0446002836D104F0F7FD04F042
:103010003DFE2B4C2B4D20601CE0FF232B7204F057
:10302000F7FD95F90830002BF9D104F0E7FD04F025
:103030002DFE23681844206001232B7201F002FD4D
:1030400004F024FE064631462068FEF72FFA26607B
:1030500003F0AEFD04F0E0FD95F90830002BEBD055
:1030600004F014FE2368181A206004F0C5FD95F9D9
:103070000830002BD9D0D0E704F0BEFD04F006FEE6
:10308000104B5A7A014602B99C720E4C01910223F0
:103090006372FFF76FFE01F0BBFC0123637204F063
:1030A000ADFDFFF7A5FE084801F034FFA27A0199B3
:1030B000FEF76EFDA9E700BF88900108D40000204C
:1030C00040010020080000209490010838B507490D
:1030D000054650220078FEF7DDF80446044B2879B7
:1030E000636000F0ADFC206138BD00BFCD30010849
:1030F000F530010808B5034604481A7D42F0010284
:103100001A75FFF75DFE002008BD00BF44010020D6
:1031100070B5104905460078FEF79CF80446002675
:10312000FFF7C2FD26756B6803B970BDE36004F15B
:10313000160002F08DFC04F05FFD04F0A7FDE368CB
:103140001844A06031462046FFF7C0FEBDE870403D
:1031500004F054BDCD300108F0B5134985B00646E2
:103160000078FEF777F8B9230546ADF80C3004F087
:103170008DFD012103AB02220746286900F0B6FC51
:1031800004F084FD9DF80D1021F08001202909D85C
:1031900001EB8104C31B317800943A4605F1160017
:1031A00002F074FC05B0F0BDCD3001082DE9F0430C
:1031B000534885B0FFF70CFE88B1FF23514D524EA6
:1031C0004F4F8DF8033002E0237DDB070AD42946F8
:1031D0000DF10300FEF78AF804460028F4D105B08B
:1031E000BDE8F08396E807000DF1040C6346ACE8F7
:1031F00003008CF8002020699DF80380092201213A
:1032000000F074FCA27E9DF8061002F11B0311F081
:10321000F000234425D0F02823D0A118FF221A71F2
:10322000DA709A705A70CA76A37E0533DBB22E2B01
:10323000A37604D9414604F1160002F00FFC237D69
:1032400023F00103237504F0D7FC04F01FFDE368AD
:103250001844A06000212046FFF738FE04F0CEFCA1
:10326000B5E79DF808C01CF0F00001D0F028D4D1DB
:103270009DF80A0010F0F00E34D19DF80BE0BEF17D
:10328000900FCAD19DF80C9029F08009B9F1200F58
:10329000C3D801F01F0141EA40118000224400F030
:1032A00060000CF01F0C9DF805E082F81BE040EA7E
:1032B0000C0C9DF8070058709DF809209A70D97081
:1032C00083F804C0A37E0533DBB22E2BA3760DD882
:1032D000B9F11E0F10D9238B013323833846FFF732
:1032E0006FFD74E7BEF1F00F97D1C6E7414604F1D8
:1032F000160002F0B3FBEBE7B9F1010F9FD9EDE740
:1033000044010020CD300108548A010870B5067AC6
:10331000032E044610D8104900785022FDF7BAFF5A
:1033200005460E4B20796B6000F08AFB286100F0A7
:10333000D1FB48B16E7570BD094B0A4814221A6062
:1033400001F0B6FBFFF78CFD054B074815221A600C
:1033500001F0AEFBFFF784FD0D3301086D3301086A
:1033600054010020BC900108D890010810B5037DDD
:103370005A0704460BD5C37D0133C3750648FFF7D2
:103380001FFDD4E9023213440120A36010BD43F0B5
:1033900004030375F2E700BF4801002010B4847DE8
:1033A000521A34B104F1FF3C012101FA0CF10A4434
:1033B000E240FE2A0AD8017F4418033162771A0AD4
:1033C000A377E2775DF8044B01777047037FC2185B
:1033D00001219177FF2400215477D17703335DF8E1
:1033E000044B0377704700BF38B50E490446007898
:1033F000FDF730FF0546FFF757FC00232B75A36848
:1034000003B938BD6368AB60A368EB6005F11800D1
:1034100002F01EFBE368AB7528464A21BDE8384040
:10342000FFF754BD0D3301082DE9F04390F80080FB
:103430003249054685B04046FDF70CFF0446A868B2
:103440002F79FEF7B3FA94F81590B9F1020F0546FB
:1034500023D004F01BFC03463A46206901211C4698
:103460002B4600F043FB04F011FC0646322004F02A
:1034700005FC331B834288BF0027B9F1010F18BF39
:1034800026461F4801F046FD00953B463246414620
:10349000FEF77EFB05B0BDE8F0830DF10809216958
:1034A000484600F01BFB99E80300002203F048FDAA
:1034B00004F0ECFB0646012004F0E0FB064401E0CA
:1034C00004F0AAFB04F0E2FB0146304604F0DAFB0C
:1034D0000028F5D004F090FB99E80300012203F0E6
:1034E0002FFD04F0D3FB064604F088FB20692B4631
:1034F0003A46012100F0FAFAC3E700BF0D33010894
:10350000F89001082DE9F04BC44888B0FFF760FC43
:10351000002856D0FF23C24E8DF80B3000253146CF
:103520000DF10B00FDF7E2FE0446002849D0237D93
:103530005F07F4D504F060FB94F817B02575E575C6
:10354000D4F8088004F05AFBE768A8EB070301935E
:10355000BBF1000F19D04FF0FF0902E0BBF1010BE6
:1035600013D0237FE1180333DBB2302B81F81D9099
:103570008D77CD772377F1D99DF80B1004F11800E2
:1035800002F06CFABBF1010BEBD194F815B0BBF172
:10359000000F19D0BBF1010F57D0BBF1020F76D04D
:1035A000237F302BBBD904F118009DF80B1002F0DB
:1035B00055FA31460DF10B00FDF798FE0446002840
:1035C000B5D108B0BDE8F08B4FF03208ADF81480EB
:1035D00004F05CFB05AB022201210746206900F0E4
:1035E00085FA04F053FB03464046A3EB070804F0BA
:1035F00045FB80450BD9237FE218FF210333517728
:10360000DBB2022182F81FB091772377C9E79DF9D9
:1036100014209DF81430002A0BDA237FE218FF21D2
:1036200003335177DBB2032182F81FB09177237700
:10363000B7E79DF8150001995B0243EA40033A465B
:103640002046FFF7ABFE237FABE74FF67F63ADF875
:10365000143004F01BFB05AB0222002180462069D8
:1036600000F044FA04F012FBA0EB080807463220F1
:1036700004F004FB804573D9237FE218FF21033354
:103680005177DBB20221D5779177237789E70DF166
:103690000C0B2169584600F021FA9BE80300002238
:1036A00003F04EFC04F0F2FA8146012004F0E6FA41
:1036B000814401E004F0B0FA04F0E8FA014648461B
:1036C00004F0E0FA0028F5D004F096FA9BE8030035
:1036D000012203F035FC04F0D9FA814604F08EFA99
:1036E00042F284330593ADF81C50069520690A22F6
:1036F000012105AB00F0FAF90DF115010DF11B00E8
:10370000052211F8013F4FF0080B5A40530012F008
:10371000800F08BF520083F01D0314BFDAB2D2B28B
:10372000BBF1010BF2D18842EBD1D3439DF81D20B0
:10373000DBB29A427FF471AF9DF81C30DB0641D5B5
:103740009DF91630002B53DB237FE218FF21033352
:103750005177DBB2042182F81FB09177237720E7FD
:10376000C0228DF814208DF8155005AB5946022261
:10377000206900F0BBF99DF814309DF8151083EA1C
:10378000010282EA121282EA920282EA520212F0E4
:1037900001020CD1580621D5237FE1180333CA77E3
:1037A000FF20DBB2052248778A772377F9E6237F6B
:1037B000E218FF2103335177DBB20321D5779177EC
:1037C0002377EEE6237FE218FF2103335177DBB244
:1037D000052182F81FB091772377E2E6890041EA5C
:1037E00083233A4601992046FFF7D8FD237FD8E688
:1037F00040F2555004F042FAA7EB0807B94481455E
:1038000010D9237FE218FF2103335177DBB2012166
:1038100082F81FB091772377C3E600BF48010020EC
:103820000D3301089DF817209DF816309DF81A00F9
:10383000520042EA4322237FE11803338A77C0F320
:103840004500DBB2120A4877CA772377A9E600BFA2
:103850002DE9F04190F81080B8F1030F84B00546CF
:1038600031D8007800F0ECF807461C20FDF74EFC3C
:1038700002AE044669683046012203F0A1FB96E8D7
:10388000030084E803006E46A9683046002203F076
:103890000BFB96E8030004F1080383E80300002211
:1038A000E968304603F000FB96E8030004F11003DA
:1038B00083E803002146384684F8188004B0BDE848
:1038C000F04100F0F1B8044B044813221A6001F0F3
:1038D000EFF8FFF7C5FA00BF54010020349101084A
:1038E000027E00F1100393E8030002F0020203F0ED
:1038F00027BB00BF2DE9F04B82B0541E0746009154
:10390000E4B2002A4DD003F1FF392344019300F1C2
:10391000100600F1080819F8015F4FF0080B0024A9
:103920001AE096E8030003F0F9FA05F0800298E83F
:10393000030003F005FB96E8030003F0EFFA97E8B5
:10394000030003F065FB6400E4B26D000443BBF1C7
:10395000010BEDB2E4B21DD03B7EDB0705F0800227
:10396000DFD498E8030003F0EBFA96E8030003F0D5
:10397000D5FA97E8030003F04BFB6400E4B204437C
:1039800096E8030003F0CAFA6D00BBF1010BEDB23B
:10399000E4B2E1D1009B0BB189F80040019B4B459B
:1039A000B9D102B0BDE8F08B70B5044682B00F49C2
:1039B00000781422FDF76EFCA66861686D46B6FAC1
:1039C00086F252090446284603F06EFA95E8030091
:1039D00004F1080383E80300002E94F9103014BFAB
:1039E000092201221343237402B070BDA9390108D2
:1039F000F8B50D4904460079FDF72CFC267A0B49F1
:103A000006F1080207462078FDF744FC05460671DA
:103A1000E0682F60FDF7CAFF32460146681DBDE829
:103A2000F84004F0DBBF00BFA9390108F1390108F3
:103A3000024900781422FDF72DBC00BFA939010806
:103A40000149FDF707BC00BFA939010870B505465B
:103A50001249007882B0FDF7FDFB2A7A032A04465A
:103A600013D8037C13F0060F0FD16E46EB6869681C
:103A7000304603F047FD96E80300237C43F004033F
:103A800084E80300237402B070BD054B0548112281
:103A90001A6001F00DF8FFF7E3F900BFA93901083A
:103AA000540100203491010808B5037C13F0060F7F
:103AB00004D143F002030374016008BD034B0448C2
:103AC00012221A6000F0F4FFFFF7CAF95401002037
:103AD00034910108007C00F0010070470831034672
:103AE00003C983E803001846704700BF2DE9F0437F
:103AF000057C15F0060F83B004460E46174699461E
:103B00001DD0A9070DD50068FFF7EAFEEA0735D4F6
:103B100020684B463A46314603B0BDE8F043FFF714
:103B2000E9BED0E9000103F03FFDEB070AD494E8B9
:103B300003003B46CDF80090324603F047FD03B04A
:103B4000BDE8F08304F10808C5F3C00298E803005B
:103B500003F0F6F9CDF8009094E803003B463246B6
:103B6000ED0803F033FD98E8030085F0010202F050
:103B7000010203B0BDE8F04303F0E2B904F1080824
:103B800098E80300C5F3C00203F0DAF920684B4659
:103B90003A463146ED08FFF7ADFEE4E770B506782A
:103BA0000F4982B004463046FDF754FB0346D4E982
:103BB00001501C46FDF7FAFEEAB2034601212046F9
:103BC000CDE90023FFF792FF064801F0A3F9DDE9F4
:103BD0000023314602B0BDE87040FDF7D9BF00BFF9
:103BE000A93901084891010830B50A4983B0044653
:103BF0000078FDF72FFB227901920546A068FDF7BA
:103C0000D5FE019A03460021284603B0BDE83040A6
:103C1000FFF76CBFA939010810B582B0FF23154C1E
:103C20008DF8073002E0027CD3071AD421460DF14B
:103C30000700FDF75BFB0028F5D1FF230E4C8DF844
:103C4000073003E002790068FFF750FF21460DF1CD
:103C50000700FDF74BFB0021431D0028F2D102B005
:103C600010BD82F00802083003C8C2F3C00203F09E
:103C700067F9DBE7A9390108F139010838B500F126
:103C8000340504462846FDF787FA10B1002060612C
:103C900038BD2846FDF796FAB0F90830426823820D
:103CA0001344E36094F84430D90605460FD5A16863
:103CB000438963610A44A2602A7BD20711D4226B34
:103CC000134423632846FDF745FA012038BDA16956
:103CD00043890A44A261A2605A0062612A7BD2072A
:103CE000EDD5216B04F128025B1A236392E80300EF
:103CF00003F00AF9E6E700BF70B500F120030446BF
:103D000093E8030003F000F903F0C0FF6369E16981
:103D1000013BDA07636100EB010503D5A5600126CD
:103D2000304670BD83B1E268A069B4F91030104428
:103D30001344A061E360294603F0A4FF0028EDD1FD
:103D4000A369A3600126EBE72046FFF797FF06462D
:103D50000028E5D0A068294603F094FF0028DFD0B2
:103D6000A3684FF47A705E1B03F088FF4042B042B4
:103D7000D4DD044B04480E221A6000F099FEFFF7D0
:103D80006FF800BF54010020749101082DE9F04143
:103D900005463249007882B04822FDF77BFAEF6889
:103DA000002F044627DD04226E4680F8442069680F
:103DB000304603F079F896E8030004F1200383E825
:103DC00003000022A968304603F06EF896E803006D
:103DD00004F1280383E803004FF0404323632B6979
:103DE000E361102104F13400FDF7F6F91C4B636028
:103DF00002B0BDE8F0814FF000086E4680F84480C4
:103E000069684246304603F04FF896E8030004F133
:103E1000200383E803004246A968304603F044F8D3
:103E200096E8030004F1280383E803004FF04043C1
:103E300023632B69E361102104F13400FDF7CCF911
:103E4000E369002BD2D1002FD0D094F8443043F056
:103E5000100384F8443002B0BDE8F0818D3D0108C4
:103E6000F93C010838B50446A0F13C052846FEF7A8
:103E70001BFF237A54F80C1C002244F8342C44F81D
:103E8000242C54F8282CD8064CBF891AA1EB5201D7
:103E900003F01403002943F00803C8BF494200227D
:103EA000237205F1280344F80C1C44F8282C93E8ED
:103EB000030003F045F8227AD3060DD5083C03E051
:103EC000FDF780F9FDF746F92046FDF765F9034651
:103ED0002046002BF4D038BD203595E8030002F0D1
:103EE000040203F02DF8E9E700F1200310B50446C1
:103EF00093E8030003F008F86369013B0AD0D4E9B2
:103F00000210B4F91020636101440244C4E90212B2
:103F1000012010BD2046BDE81040FFF7AFBE00BF36
:103F200070B5294905460078FDF794F90646FDF776
:103F300019F96B6843602B8943810446002B3BD001
:103F4000EA6802810023037303F056FE96F84430BA
:103F500003F00101C3F34002914205D0227B42F0FD
:103F6000010283F0010322737269D2B91A0711D4D6
:103F700006F1340186F844302046FDF715F9304645
:103F8000FFF77CFE30461621FEF7A0FFBDE870402B
:103F900003F034BE2046FDF7DDF8BDE8704003F0C5
:103FA0002DBE86F8443006F134012046FDF7FCF8BA
:103FB000BDE8704003F022BE044B05480F221A6092
:103FC00000F076FDFEF74CFF8D3D01085401002006
:103FD0008C91010838B50C4904460078FDF73AF990
:103FE00063680446002B14BF0225002503F004FE7D
:103FF00094F8443023F002031D4384F84450BDE894
:10400000384003F0FBBD00BF8D3D010838B50F49B6
:1040100005460078FDF71EF904466D6803F0ECFDD7
:1040200063695BB994F84430A56023F00803A56187
:1040300084F84430BDE8384003F0E0BD044B054847
:1040400010221A6000F034FDFEF70AFF8D3D0108D2
:1040500054010020A491010870B506780F4930463C
:10406000FDF7F8F8054603F0C7FD95F844302C6BD2
:104070006A69DB064CBFA41AA4EB520403F0BEFD30
:10408000002CB8BF6442064800F044FF04F14042EF
:104090003146BDE87040FDF77BBD00BF8D3D010896
:1040A000CC91010838B5084904460078FDF7D2F8EC
:1040B0000546207900F07CFB05F13C01034ABDE890
:1040C000384000F07BBB00BF8D3D0108653E010814
:1040D00030B583B0FF230B4D8DF8073006E0FDF7B8
:1040E00077F8002104F13C00FFF7BCFE29460DF1F2
:1040F0000700FDF7FBF804463430002CEFD103B085
:1041000030BD00BF8D3D010810B504460648FEF7DE
:1041100057FED4E90231627F42F001020B4462771C
:10412000A360012010BD00BF4C01002010B5047A2F
:10413000032C08D8084900782022FDF7ABF8074B7C
:104140000477436010BD064B064803221A6000F056
:10415000AFFCFEF785FE00BF2D41010809410108B3
:1041600054010020EC91010838B50D49044600784F
:10417000FDF770F80B4B054600221A70FEF794FD10
:104180006368AB60A368EB6003B938BDE3682B617B
:1041900023696B6128464421BDE83840FEF796BE8E
:1041A0002D410108490100202DE9F04B3D4886B022
:1041B000FEF70EFE002849D0FF233B4D3B4FDFF8B2
:1041C000F0808DF81330002629460DF11300FDF71D
:1041D0008DF80446002839D0637FDA07F4D503F060
:1041E0000BFD637FD4F8089023F00103637703F09D
:1041F00005FD237F032BE7D8DFE803F046392B02C8
:10420000A0699DF813B0ADF8146005AB022201213E
:10421000FFF76CFCBDF8144064BAA4B2384600F055
:1042200079FE23464A4659460096FDF7B1FC6307DE
:10423000CAD5404600F03CFCFEF73EFE29460DF193
:104240001300FDF753F804460028C5D106B0BDE8B9
:10425000F08B9DF813100391384600F05BFE039934
:1042600000964A4644F22C03FDF792FCACE79DF819
:1042700013100391384600F04DFE039900964A460C
:104280000023FDF785FC9FE79DF813100391384646
:1042900000F040FE039900964A464FF0A073FDF7E8
:1042A00077FC91E74C0100202D4101080C92010898
:1042B000489201082DE9F043044685B01A49007878
:1042C0003422FCF7E7FF94F80890D4F80480E768FC
:1042D000B9F1000202AE054618BF01224146304640
:1042E00002F06EFE96E8030005F114036E4683E8C3
:1042F000030001223946304602F0D6FD96E803005D
:1043000005F10C0383E80300B9F1000F08BF012396
:1043100022692A6218BF1123B84508BF43F0200361
:104320002B7705B0BDE8F083B542010838B50446E7
:1043300000F10C0393E8030002F0E6FD637F94F8BC
:104340001CC094F81FE0656A0133DBB28CF0010CED
:10435000734584F81CC00CF0010C29D204EBD30285
:1043600003F0070192F828200A4102F00102944567
:10437000294607D016E092F82820024102F00102F7
:1043800094450FD10133DBB2734504EBD30203F044
:1043900007002944EFD3A368064A0B44C4E901236C
:1043A000012038BDA26863770A44A260012038BDAD
:1043B0002946F0E72144010800F10C0310B504463A
:1043C00093E8030002F0A0FD03F060FC637F227F0E
:1043D0000133DBB282F00102012B2277637719D01F
:1043E000042B05D8A268236A1344A360012010BDE2
:1043F000A368626A1A44801A811C226A48BF411D60
:1044000002EBA1011844054A61620844C4E9012095
:10441000012010BDA268801A6062E4E72D43010804
:1044200010B5837F0446B3B1027F93060AD4A36814
:10443000606A164A002103EB80036177C4E9012317
:10444000012010BD00F1140393E8030002F01002F4
:1044500002F082FDEBE7037F13F0200F00F10C0365
:1044600093E803004FF001020CD102F069FD237FB5
:10447000074803F0300343F009032377FEF7A0FC5D
:10448000002010BD02F0D8FCF1E700BF194501087B
:104490005001002000F1140310B5044693E8030016
:1044A00002F0B6FD637F04EBD30C012203F0070199
:1044B00002FA01F19CF8282078B10A43D2B28CF8B4
:1044C0002820A27F0133DBB29A4209D9A268616A2F
:1044D00063770A44A260012010BD22EA0102EEE7E0
:1044E000237F13F0200F04F10C0393E803004FF037
:1044F00001020CD102F024FD237F064803F03003B3
:1045000043F009032377FEF75BFC002010BD02F0A7
:1045100093FCF1E75001002000F1140310B50446AC
:1045200093E8030002F074FD237F68B143F00403B5
:104530002377637F5A1C3F2B62770FD8A368626A88
:1045400013440120A36010BD5B07F2D56077114BC7
:1045500063602046BDE81040FFF79CBF237F002228
:10456000A27713F0200F04F10C0393E803004FF03F
:1045700001020CD002F060FC237F074803F03003F7
:1045800043F009032377FEF71BFC002010BD02F067
:10459000D7FCF1E79544010850010020F8B5264901
:1045A00005460078FCF756FE037F13F0020604462A
:1045B00000D0F8BDA8682F79FDF7F8F90A2F2D7BF8
:1045C000014631D80A2D2FD83A4604F1280004F0CC
:1045D00005FA237F667703F0310343F00203ED0011
:1045E0002377FB00E377A5772FB194F8283003F009
:1045F0003F032A2B15D0226A104B6262636003F0DE
:10460000FBFA03F043FB0546C82003F037FB2844C0
:10461000A06033212046FEF759FCBDE8F84003F0C6
:10462000EDBA074B6360EAE7064B074802221A60BF
:1046300000F03EFAFEF714FCB54201082D430108D4
:10464000B9430108540100206492010870B518486C
:1046500082B0FEF7BDFB48B3FF23164D164E8DF812
:10466000073029460DF10700FCF740FE0446E8B18B
:10467000237F1B07F5D503F0BFFA237F23F0080340
:10468000237703F0BBFA304600F044FCA27F9DF88C
:10469000071004F12803D208FDF77AFA29460DF134
:1046A0000700FCF723FE04460028E1D102B070BDEC
:1046B00050010020B54201087C92010830B583B05A
:1046C000FF23114D8DF8073008E003C902F0B4FB59
:1046D000237F03F0300343F00103237729460DF1D4
:1046E0000700FCF703FE00F10C01012204460B4613
:1046F00040B1207F8006E8D493E80300012202F055
:104700001FFCE5E703B030BDB542010810B5044613
:10471000074894F8203043F0040384F82030FEF773
:104720004FFBA368A26913440120A36010BD00BF22
:104730005801002008B5242204490078FCF7AAFD9E
:10474000034A044B4260036108BD00BF35470108BE
:104750000D470108A147010870B590F82030DA072D
:1047600004460E4619D5C06984F8211023F00503CC
:1047700043F0040384F8203050B10025D0E9002331
:104780003146E261C0E900559847E0690028F5D15B
:10479000BDE870400148FEF713BB70BD5801002012
:1047A00008B503460C38997DFFF7D6FF002008BDF9
:1047B0000149FCF74FBD00BF3547010870B50C46F5
:1047C0000546164603F01CFA636843B93EB1EB692F
:1047D000C4E90036EC61BDE8704003F015BA044B43
:1047E000044801221A6000F063F9FEF739FB00BFAC
:1047F00054010020A092010838B51A4905460078F6
:10480000FCF728FD044603F0F7F92046FEF74CFAC2
:1048100004F10C00FEF748FAE36933B100211A46AF
:104820001B68C2E90011002BF9D100220123238467
:1048300084F822206B68A360AB68C4E9063233B900
:10484000EB6884F82230BDE8384003F0D7B9204641
:104850001D21FEF73BFBEB6884F82230BDE83840B1
:1048600003F0CCB93547010830B5114983B005468E
:104870000078FCF7EFFC044603F0BEF994F8203012
:10488000DB0704D403B0BDE8304003F0B7B904F14E
:104890000C000190FEF708FA6B68019863611C2117
:1048A000FEF714FB03B0BDE8304003F0A7B900BF2A
:1048B0003547010870B50678134984B0054630467F
:1048C000FCF7C8FC044603F097F929792046FFF766
:1048D00043FF2046FEF7E8F9002504F10C00FEF73F
:1048E000E3F994F8213084F82050039303F086F91B
:1048F000064800F00FFB039B00952A463146FDF762
:1049000047F904B070BD00BF35470108C8920108DF
:104910002DE9F0411E4886B0FEF75AFAA0B3FF23F6
:104920001C4E1D4F8DF8173031460DF11700FCF766
:10493000DDFC044640B394F820305B07F4D503F067
:10494000A5F9054603F058F994F8208094F8213031
:10495000039328F0040284F8202003F04FF99DF817
:1049600017100291384600F0D5FA039B0299009582
:1049700008F00102FDF70CF931460DF11700FCF7C4
:10498000B5FC04460028D6D106B0BDE8F08100BFD2
:104990005801002035470108C892010870B5144E2F
:1049A00082B0FF2331460DF107008DF80730FCF788
:1049B0009DFC00240546C8B1FEF776F905F10C0010
:1049C000FEF772F9EB692BB11A461B68C2E9004485
:1049D000002BF9D1EC612C8485F8224031460DF191
:1049E0000700FCF783FC05460028E5D102B070BD46
:1049F0003547010808B5FCF77DFBFDF739FE02F0ED
:104A00000FFE03F077F9BDE8084002F0EDBF00BFEC
:104A100008B5FDF7D3F8FCF7F5FBFDF7E5FCFFF76C
:104A200057FBFFF7BBFFFCF72DFBFFF7F5F8FEF791
:104A3000C3F8FFF743FE03F0F1F8BDE8084003F0C8
:104A400057B900BF08B503F0E7F8FFF761FF03F0BF
:104A5000E3F8FCF7C9FA03F0DFF8FCF76BFF03F0AB
:104A6000DBF8FFF7F3FD03F0D7F8FDF7B1FF03F034
:104A7000D3F8FFF799FB03F0CFF8FEF797FB03F0AD
:104A8000CBF8FEF73FFD03F0C7F800F05DFF03F041
:104A9000C3F802F0BDFD03F0BFF803F0ADF903F079
:104AA000BBF802F0F9FFBDE8084003F0B5B800BF5D
:104AB00010B5C9490446FCF7E9F9002800F0628105
:104AC000C6492046FCF7E2F9002800F05981C449A4
:104AD0002046FCF7DBF9002800F05881C149204648
:104AE000FCF7D4F9002800F04F81BF492046FCF7BD
:104AF000CDF9002800F04C81BC492046FCF7C6F9EE
:104B0000002800F04981BA492046FCF7BFF9002887
:104B100000F04481B7492046FCF7B8F9002800F0BE
:104B20003981B5492046FCF7B1F9002800F03881F9
:104B3000B2492046FCF7AAF9002800F03381B049B9
:104B40002046FCF7A3F9002800F02E81AD4920464D
:104B5000FCF79CF9002800F02981AB492046FCF7BE
:104B600095F9002800F02481A8492046FCF78EF929
:104B7000002800F01F81A6492046FCF787F900288D
:104B800000F01A81A3492046FCF780F9002800F0C4
:104B90001581A1492046FCF779F9002800F0108121
:104BA0009E492046FCF772F9002800F00B819C49D1
:104BB0002046FCF76BF9002800F006819949204651
:104BC000FCF764F9002800F0018197492046FCF7C2
:104BD0005DF9002800F0FE8094492046FCF756F964
:104BE000002800F0F58092492046FCF74FF9002894
:104BF00000F08E818F492046FCF748F9002800F02C
:104C000085818D492046FCF741F9002800F07C8120
:104C10008A492046FCF73AF9002800F07381884958
:104C20002046FCF733F9002800F06A8185492046C8
:104C3000FCF72CF9002800F0618183492046FCF73D
:104C400025F9002800F0588180492046FCF71EF91C
:104C5000002800F04F817E492046FCF717F9002814
:104C600000F046817B492046FCF710F9002800F04F
:104C70003D8179492046FCF709F9002800F034818C
:104C800076492046FCF702F9002800F02B81744990
:104C90002046FCF7FBF8002800F0228171492046ED
:104CA000FCF7F4F8002800F019816F492046FCF762
:104CB000EDF8002800F010816C492046FCF7E6F87A
:104CC000002800F007816A492046FCF7DFF8002839
:104CD00000F0FE8067492046FCF7D8F8002800F075
:104CE000F58065492046FCF7D1F8002800F0EC80FB
:104CF00062492046FCF7CAF8002800F0E3806049CA
:104D00002046FCF7C3F8002800F0DA805D49204611
:104D1000FCF7BCF8002800F0D1805B492046FCF786
:104D2000B5F8002800F0C88058492046FCF7AEF8D6
:104D3000002800F0BF8056492046FCF7A7F800285D
:104D400000F0B68053492046FCF7A0F8002800F098
:104D5000AD8051492046FCF799F8002800F0A48066
:104D60004E492046FCF792F8002800F09B804C4901
:104D70002046FCF78BF8002814BFFF20342010BD1C
:104D8000032010BD022010BD052010BD042010BD61
:104D9000062010BD092010BD072010BD082010BD41
:104DA0000A2010BD0B2010BD0C2010BD0D2010BD21
:104DB0000E2010BD0F2010BD102010BD112010BD01
:104DC000122010BD132010BD142010BD152010BDE1
:104DD000172010BD162010BD5490010878900108CE
:104DE0003C900108588D0108408D0108288D01086C
:104DF000D48B010808930108108B0108FC8A010874
:104E0000E88A0108648B0108A48A0108D48A010891
:104E1000788B0108C08A01086C8E0108FC8D01089E
:104E2000348E0108D08D0108A49101088C910108ED
:104E300074910108A0920108608A01083491010868
:104E4000C48E0108888F0108B88F0108D88C01082A
:104E5000B08C01089C8C010864920108088F01083D
:104E6000EC8E01083493010848920108EC91010886
:104E7000D8900108BC900108449301085C93010894
:104E80007093010884930108A4930108BC9301085E
:104E9000C8930108DC930108EC9301080094010811
:104EA0002C940108332010BD322010BD312010BDDC
:104EB000302010BD2F2010BD2E2010BD2D2010BD84
:104EC0002C2010BD2B2010BD2A2010BD292010BD84
:104ED000282010BD272010BD262010BD252010BD84
:104EE000242010BD232010BD222010BD212010BD84
:104EF000202010BD1F2010BD1E2010BD1D2010BD84
:104F00001C2010BD1B2010BD1A2010BD192010BD83
:104F1000182010BD10B57F490446FBF7B7FF0028E5
:104F200000F0C0807C492046FBF7B0FF002800F06D
:104F3000B7807A492046FBF7A9FF002800F0B68029
:104F400077492046FBF7A2FF002800F0AD807549A5
:104F50002046FBF79BFF002800F0AA8072492046FC
:104F6000FBF794FF002800F0A78070492046FBF76C
:104F70008DFF002800F0A2806D492046FBF786FFD8
:104F8000002800F097806B492046FBF77FFF002840
:104F900000F0968068492046FBF778FF002800F073
:104FA000918066492046FBF771FF002800F08C8055
:104FB00063492046FBF76AFF002800F087806149BB
:104FC0002046FBF763FF002800F082805E49204600
:104FD000FBF75CFF00287DD05C492046FBF756FFBD
:104FE000002879D05A492046FBF750FF002875D099
:104FF00058492046FBF74AFF002871D05649204601
:10500000FBF744FF00286DD054492046FBF73EFFD4
:10501000002869D052492046FBF738FF002865D0A8
:1050200050492046FBF732FF002863D04E49204606
:10503000FBF72CFF00285BD04C492046FBF726FFEE
:10504000002865D04A492046FBF720FF00285DD0A4
:1050500048492046FBF71AFF002855D0464920460C
:10506000FBF714FF00284DD044492046FBF70EFF04
:10507000002845D042492046FBF708FF00283DD0D4
:1050800040492046FBF702FF002835D03E49204624
:10509000FBF7FCFE3D4B00280CBF1846002010BD5E
:1050A0003B4810BD3B4810BD3B4810BD3B4810BDC0
:1050B0003B4810BD3B4810BD3B4810BD3B4810BDB0
:1050C0003B4810BD3B4810BD3B4810BD3B4810BDA0
:1050D0003B4810BD3B4810BD3B4810BD3B4810BD90
:1050E0003B4810BD3B4810BD3B4810BD3B4810BD80
:1050F0003B4810BD3B4810BD3B4810BD3B4810BD70
:105100003B4810BD3B4810BD3B4810BD3B4810BD5F
:105110003B4810BD88900108189001089490010840
:10512000E48F01087C8C0108348C01085C8C010838
:105130000C8C0108208C0108E48B0108B48B010859
:105140009C8B01088C8B0108288B0108848D010839
:10515000708D0108CC910108948D0108C892010856
:10516000748A0108489101089C8E0108FC8C010892
:105170007C920108288F01084C8F01080C920108CD
:10518000F890010840940108A894010818950108B6
:1051900028950108209501083895010830950108E7
:1051A0004095010858950108489501085095010857
:1051B00060950108D8940108689501087095010868
:1051C0007895010880950108889501089095010857
:1051D00098950108A0950108A8950108B0950108C7
:1051E000C0950108B89501081095010808950108B7
:1051F00000950108F8940108F0940108E89401086A
:10520000E094010830B50C4C83B00121082002F075
:10521000E5FF4FF4807541F2030301A92046ADF884
:105220000630ADF8045002F03FFE2946204602F059
:10523000A3FE03B030BD00BF000C01404348444A08
:10524000D0F88810434B41F4700110B4C0F88810B6
:10525000116841F0010111605468234053601368E4
:1052600023F0847323F480331360136823F48023C2
:105270001360536823F00F6300204FF41F0123F4E1
:1052800070235360D06210639160D3693249334810
:1052900043F08053D361CB6843F00103CB60D36903
:1052A00023F08053D361016841F0900101601168DF
:1052B00041F480314FF6FF73116001E0013B02D0F1
:1052C00011688803FAD5224B1A68910339D5234A0D
:1052D000116821F003011160116841F004011160AF
:1052E0005A685A605A6842F400525A605A6842F446
:1052F000A0625A605A6822F0036222F470225A6057
:105300005A6842F0016242F470225A601A6842F010
:1053100080721A601A689201FCD559680C4A21F013
:1053200003015960596841F002015960536803F064
:105330000C03082BFAD1054B094A5DF8044B9A601F
:105340007047084B084A1A60F5E700BF00ED00E01F
:105350000010024000C0FFF8007000400020024032
:10536000000001083800002000127A00704700BFDA
:10537000FEE700BFFEE700BFFEE700BFFEE700BF9D
:10538000704700BF704700BF70B500F108030646C4
:10539000002293E8030001F04FFD756A02F076FCED
:1053A00004464FF47A7005FB00F002F067FC2546D6
:1053B000154CA4FB003405EB944402F067FC8442D6
:1053C000FBD806F1100393E80300012201F0C4FDAD
:1053D000756A02F05BFC04464FF47A7005FB00F03E
:1053E00002F04CFC2546084CA4FB003405EB944429
:1053F00002F04CFC8442FBD8183696E803000122E8
:10540000BDE8704001F0A8BD83DE1B432DE9F04BE1
:1054100084B000F118030827029300F110030193F0
:10542000DFF824B1C31906460D4603934FF47A7989
:105430002B067DD4039B002293E8030001F0FCFCC3
:10544000D6F8248002F022FC044609FB08F002F0A2
:1054500015FC6D00ABFB0023EDB204EB934402F0AE
:1054600015FC8442FBD8019B012293E8030001F064
:1054700073FDD6F8248002F009FC044609FB08F00D
:1054800002F0FCFBABFB002304EB934402F0FEFBB9
:105490008442FBD896E80300002201F0CDFC013FD6
:1054A000C6D1029B012293E8030001F055FD756A05
:1054B00002F0ECFB04464FF47A7005FB00F002F0BA
:1054C000DDFB214BA3FB002304EB934402F0DEFB46
:1054D0008442FBD8019B012293E8030001F03CFDCC
:1054E000029B93E8030001F093FD776A054602F002
:1054F000CDFB04464FF47A7007FB00F002F0BEFBD0
:10550000114BA3FB002304EB934402F0BFFB844246
:10551000FBD896E80300002201F08EFC029B0122DA
:1055200093E8030001F018FD4DB904B0BDE8F08B1D
:10553000029B012293E8030001F00EFD80E703487F
:10554000FFF7B6FAFDF78CFC83DE1B4334930108AA
:10555000F8B5456A0F46064602F098FB04464FF43C
:105560007A7005FB00F002F089FB2546284CA4FB6D
:10557000003405EB944402F089FB8442FBD806F129
:10558000180393E80300012201F0E6FC06F1100382
:1055900093E80300012201F0DFFC756A02F076FB5C
:1055A00004464FF47A7005FB00F002F067FB2546D5
:1055B000174CA4FB003405EB944402F067FB8442D3
:1055C000FBD806F1080393E80300002201F034FC45
:1055D000756A02F05BFB04464FF47A7005FB00F03D
:1055E00002F04CFB25460A4CA4FB003405EB944426
:1055F00002F04CFB8442FBD896E80300002201F045
:105600001BFC39463046BDE8F840FFF7FFBE00BF3F
:1056100083DE1B432DE9F041054684B00078FCF79A
:1056200021FF80462C20FBF771FD2B695B0080F881
:10563000203041F288321C4B426202AF6A696968CD
:105640001A6004460122384601F0BAFC97E80300CC
:1056500004F1100383E803006E46696830460122B6
:1056600001F022FC96E8030084E803000122A96807
:10567000384601F0A5FC97E8030004F1180383E81D
:1056800003000122A968304601F00EFC96E80300F1
:1056900004F1080383E803002146404604B0BDE856
:1056A000F041FCF705BF00BF5C01002070B50D465E
:1056B00090F8201006461446FFF74AFF3DB12544F6
:1056C00014F8011B3046FFF7A1FEAC42F8D130467A
:1056D000BDE87040FFF758BE2DE9F04B84B00D4691
:1056E00090F820101F460C9B03930646144641F089
:1056F0000108002D40F0AA8041463046FFF728FF00
:105700007B1EDBB20293002F00F0928006F118039B
:105710000093DFF8509106F110030193009B0122E2
:1057200093E8030001F018FC082700254FF47A7B6A
:10573000D6F8248002F0AAFA04460BFB08F002F027
:105740009DFAA9FB002304EB934402F09FFA8442E4
:10575000FBD8019B012293E8030001F0FDFBD6F882
:10576000248002F093FA04460BFB08F002F086FA5C
:10577000A9FB002304EB934402F088FA8442FBD88F
:10578000009B93E8030001F043FC6D00EDB205437C
:10579000002296E8030001F04FFB013FEDB2C7D1B4
:1057A000009C012294E8030001F0D6FB029B002B31
:1057B00044D194E80300012201F0CEFB776A02F0A5
:1057C00065FA04464FF47A7007FB00F002F056FACF
:1057D000A9FB002304EB934702F058FA8742FBD859
:1057E000019B012293E8030001F0B6FB776A02F007
:1057F0004DFA04464FF47A7007FB00F002F03EFACF
:10580000A9FB002304EB934702F040FA8742FBD840
:10581000002296E8030001F00FFB029B039A013B74
:10582000DBB202F8015BFF2B029303927FF476AFA9
:10583000304604B0BDE8F04BFFF7A6BD06F1080303
:1058400093E803003A4601F0F7FAB7E7FFF780FE66
:10585000254414F8011B3046FFF7D8FDA542F8D1C6
:105860004AE700BF83DE1B4338B50749054650228F
:105870000078FBF70FFD0446044B28796360FEF7C0
:10588000DFF8206138BD00BF695801089158010850
:1058900008B5034604481A7D42F001021A75FDF767
:1058A0008FFA002008BD00BF6001002038B5104904
:1058B00005460078FBF7CEFC0446FDF7F5F900231A
:1058C00023756B6803B938BDE36004F1160000F07E
:1058D000BFF802F091F902F0D9F9E3681844A0602A
:1058E00003212046FDF7F2FABDE8384002F086B900
:1058F0006958010870B5134984B004460078FBF775
:10590000A9FCAF230546ADF80C3002F0BFF903AB9C
:105910000646022228690121FEF7E8F802F0B6F9EE
:105920009DF80DC021780CF01F0C0CEB4C0C4FEACD
:105930004C04831B0094324605F1160000F0A6F8D3
:1059400004B070BD695801082DE9F0433E4885B0A8
:10595000FDF73EFA80B1FF233C4D3B4F8DF80330FD
:1059600002E0237DDB070AD429460DF10300FBF793
:10597000BDFC04460028F4D105B0BDE8F083AF2299
:10598000002394F81A90ADF80420A822029320690D
:105990008DF80E30ADF80C308DF8082002AB0722E0
:1059A000012109F11B069DF80380A144FEF79EF832
:1059B00001AB022220690121FEF798F826449DF8E8
:1059C000093089F81B309DF80A309DF80520737066
:1059D0009DF80B30B3709DF80C30F3709DF80D30CE
:1059E00033719DF80E307371A37E0633DBB22D2B1D
:1059F000A37602F03F0902F040061CD8384616B1E3
:105A0000238B01332383B9F1000F02D0FDF7D8F9BE
:105A1000AAE7237D23F00103237502F0EDF802F0DD
:105A200035F9E36818440321A0602046FDF74EFADB
:105A300002F0E4F898E704F11600414600F00EF891
:105A40003846002EDFD0DBE76001002069580108EE
:105A50000023038043800371704700BF10B584B0FA
:105A6000044609480391FFF755FA2346039933F892
:105A7000052B00932379FCF78BF823880022013350
:105A80002271238004B010BDA894010870B50446AB
:105A900088B00A480593CDE90621FFF73BFA25793E
:105AA0000C9E0799354401956588029524880094D9
:105AB000DDE90532FCF76CF808B070BD40940108D0
:105AC00010B5174C0FCC8CB00DF1040CACE80F00E6
:105AD0000FCCACE80F0094E807000DF1040E8CE841
