:020000040801F1
:1000000000000220FD7D0108495201084D520108FF
:1000100051520108555201085952010800000000D0
:100020000000000000000000000000005D52010818
:100030006152010800000000457E0108E17C0108D2
:10004000457E0108457E0108457E0108457E010880
:10005000457E0108457E0108457E0108457E010870
:10006000457E0108457E0108457E0108457E010860
:10007000C1650108ED650108457E0108D95A0108EE
:10008000457E0108457E0108457E0108457E010840
:10009000457E0108457E0108457E0108457E010830
:1000A000457E0108457E0108457E0108457E010820
:1000B000457E0108457E0108D5660108457E010898
:1000C000457E0108457E0108457E0108457E010800
:1000D000457E010821790108457E01081166010865
:1000E000457E0108457E0108457E0108457E0108E0
:1000F000457E0108457E0108457E0108457E0108D0
:10010000457E0108457E0108457E0108457E0108BF
:10011000457E0108457E0108457E0108457E0108AF
:10012000457E0108457E0108457E0108457E01089F
:10013000457E0108457E0108457E0108457E01088F
:10014000457E0108457E0108457E0108457E01087F
:10015000457E0108457E0108457E0108457E01086F
:10016000457E0108457E0108457E0108457E01085F
:10017000457E0108457E0108457E0108457E01084F
:08018000457E0108457E0108DF
:1001900010B5054C237833B9044B13B10448AFF3C1
:1001A00000800123237010BD4800002000000000E3
:1001B000DC89010808B5034B1BB103490348AFF3C1
:1001C000008008BD000000004C000020DC89010810
:1001D00081F0004102E000BF83F0004330B54FEAF8
:1001E00041044FEA430594EA050F08BF90EA020F65
:1001F0001FBF54EA000C55EA020C7FEA645C7FEAF8
:10020000655C00F0E2804FEA5454D4EB5555B8BF1A
:100210006D420CDD2C4480EA020281EA030382EA8B
:10022000000083EA010180EA020281EA0303362D1D
:1002300088BF30BD11F0004F4FEA01314FF4801CF0
:100240004CEA113102D0404261EB410113F0004F02
:100250004FEA03334CEA133302D0524263EB4303B9
:1002600094EA050F00F0A780A4F10104D5F1200E57
:100270000DDB02FA0EFC22FA05F2801841F10001B2
:1002800003FA0EF2801843FA05F359410EE0A5F186
:1002900020050EF1200E012A03FA0EFC28BF4CF0B7
:1002A000020C43FA05F3C01851EBE37101F000456D
:1002B00007D54FF0000EDCF1000C7EEB00006EEB7A
:1002C0000101B1F5801F1BD3B1F5001F0CD3490804
:1002D0005FEA30004FEA3C0C04F101044FEA44525B
:1002E00012F5800F80F09A80BCF1004F08BF5FEAE2
:1002F000500C50F1000041EB045141EA050130BDC2
:100300005FEA4C0C404141EB0101013C28BFB1F5D3
:10031000801FE9D291F0000F04BF01460020B1FA1E
:1003200081F308BF2033A3F10B03B3F120020CDAF1
:100330000C3208DD02F1140CC2F10C0201FA0CF0CF
:1003400021FA02F10CE002F11402D8BFC2F1200C34
:1003500001FA02F120FA0CFCDCBF41EA0C019040EA
:10036000E41AA2BF01EB0451294330BD6FEA040433
:100370001F3C1CDA0C340EDC04F11404C4F120021E
:1003800020FA04F001FA02F340EA030021FA04F330
:1003900045EA030130BDC4F10C04C4F1200220FA87
:1003A00002F001FA04F340EA0300294630BD21FAC5
:1003B00004F0294630BD94F0000F83F4801306BF8B
:1003C00081F480110134013D4EE77FEA645C18BF7F
:1003D0007FEA655C29D094EA050F08BF90EA020F16
:1003E00005D054EA000C04BF1946104630BD91EA0E
:1003F000030F1EBF0021002030BD5FEA545C05D111
:100400004000494128BF41F0004130BD14F580044F
:100410003CBF01F5801130BD01F0004545F0FE41C3
:1004200041F470014FF0000030BD7FEA645C1ABFF8
:10043000194610467FEA655C1CBF0B46024650EA2F
:10044000013406BF52EA033591EA030F41F400215B
:1004500030BD00BF90F0000F04BF0021704730B5E1
:100460004FF4806404F132044FF000054FF00001B6
:1004700050E700BF90F0000F04BF0021704730B577
:100480004FF4806404F1320410F0004548BF40424C
:100490004FF000013EE700BF42004FEAE2014FEAA1
:1004A00031014FEA02701FBF12F07F4393F07F4F7C
:1004B00081F06051704732F07F4208BF704793F07F
:1004C0007F4F04BF41F40021704730B54FF4607492
:1004D00001F0004521F000411CE700BF50EA010295
:1004E00008BF704730B54FF000050AE050EA01023E
:1004F00008BF704730B511F0004502D5404261EBAE
:1005000041014FF4806404F132045FEA915C3FF4EE
:10051000D8AE4FF003025FEADC0C18BF03325FEA8B
:10052000DC0C18BF033202EBDC02C2F1200300FA3C
:1005300003FC20FA02F001FA03FE40EA0E0021FA61
:1005400002F11444BDE600BF70B54FF0FF0C4CF44F
:10055000E06C1CEA11541DBF1CEA135594EA0C0F01
:1005600095EA0C0F00F0DEF82C4481EA030621EA3C
:100570004C5123EA4C5350EA013518BF52EA033577
:1005800041F4801143F4801338D0A0FB02CE4FF029
:100590000005E1FB02E506F00042E0FB03E54FF059
:1005A0000006E1FB03569CF0000F18BF4EF0010E51
:1005B000A4F1FF04B6F5007F64F5407404D25FEA4D
:1005C0004E0E6D4146EB060642EAC62141EA555100
:1005D0004FEAC52040EA5E504FEACE2EB4F1FD0C42
:1005E00088BFBCF5E06F1ED8BEF1004F08BF5FEAC0
:1005F000500E50F1000041EB045170BD06F0004672
:1006000046EA010140EA020081EA0301B4EB5C041E
:10061000C2BFD4EB0C0541EA045170BD41F4801116
:100620004FF0000E013C00F3AB8014F1360FDEBF3B
:10063000002001F0004170BDC4F10004203C35DA17
:100640000C341BDC04F11404C4F1200500FA05F39A
:1006500020FA04F001FA05F240EA020001F000423B
:1006600021F0004110EBD37021FA04F642EB0601B1
:100670005EEA430E08BF20EAD37070BDC4F10C04DB
:10068000C4F1200500FA04F320FA05F001FA04F29F
:1006900040EA020001F0004110EBD37041F100018B
:1006A0005EEA430E08BF20EAD37070BDC4F1200596
:1006B00000FA05F24EEA020E20FA04F301FA05F2FE
:1006C00043EA020321FA04F001F0004121FA04F2A6
:1006D00020EA020000EBD3705EEA430E08BF20EA76
:1006E000D37070BD94F0000F0FD101F000464000B0
:1006F00041EB010111F4801F08BF013CF7D041EA32
:10070000060195F0000F18BF704703F00046520035
:1007100043EB030313F4801F08BF013DF7D043EA06
:100720000603704794EA0C0F0CEA135518BF95EABC
:100730000C0F0CD050EA410618BF52EA4306D1D143
:1007400081EA030101F000414FF0000070BD50EA62
:10075000410606BF1046194652EA430619D094EAEC
:100760000C0F02D150EA013613D195EA0C0F05D1D6
:1007700052EA03361CBF104619460AD181EA03012A
:1007800001F0004141F0FE4141F470014FF00000E2
:1007900070BD41F0FE4141F4780170BD70B54FF07D
:1007A000FF0C4CF4E06C1CEA11541DBF1CEA1355FD
:1007B00094EA0C0F95EA0C0F00F0A7F8A4EB0504DF
:1007C00081EA030E52EA03354FEA013100F08880D6
:1007D0004FEA03334FF0805545EA131343EA12639F
:1007E0004FEA022245EA111545EA10654FEA002654
:1007F0000EF000419D4208BF964244F1FD0404F50D
:10080000407402D25B084FEA3202B61A65EB030568
:100810005B084FEA32024FF480104FF4002CB6EB25
:10082000020E75EB030E22BFB61A754640EA0C00A5
:100830005B084FEA3202B6EB020E75EB030E22BFE5
:10084000B61A754640EA5C005B084FEA3202B6EB26
:10085000020E75EB030E22BFB61A754640EA9C00E5
:100860005B084FEA3202B6EB020E75EB030E22BFB5
:10087000B61A754640EADC0055EA060E18D04FEA73
:10088000051545EA16754FEA06164FEAC30343EA13
:1008900052734FEAC2025FEA1C1CC0D111F4801FE0
:1008A0000BD141EA00014FF000004FF0004CB6E7D9
:1008B00011F4801F04BF01430020B4F1FD0C88BF78
:1008C000BCF5E06F3FF6AFAEB5EB030C04BFB6EB83
:1008D000020C5FEA500C50F1000041EB045170BD76
:1008E0000EF0004E4EEA113114EB5C04C2BFD4EBA3
:1008F0000C0541EA045170BD41F480114FF0000E27
:10090000013C90E645EA060E8DE60CEA135594EAA2
:100910000C0F08BF95EA0C0F3FF43BAF94EA0C0FA5
:100920000AD150EA01347FF434AF95EA0C0F7FF41A
:1009300025AF104619462CE795EA0C0F06D152EA6E
:1009400003353FF4FDAE1046194622E750EA410652
:1009500018BF52EA43067FF4C5AE50EA41047FF463
:100960000DAF52EA43057FF4EBAE12E74FF0FF3CC8
:1009700006E000BF4FF0010C02E000BF4FF0010C99
:100980004DF804CD4FEA410C7FEA6C5C4FEA430C12
:1009900018BF7FEA6C5C1BD001B050EA410C0CBF61
:1009A00052EA430C91EA030F02BF90EA020F0020C3
:1009B000704710F1000F91EA030F58BF994208BF2A
:1009C00090422CBFD8176FEAE37040F001007047E7
:1009D0004FEA410C7FEA6C5C02D150EA013C07D13E
:1009E0004FEA430C7FEA6C5CD6D152EA033CD3D089
:1009F0005DF8040B704700BF8446104662468C4683
:100A00001946634600E000BF01B5FFF7B7FF0028B5
:100A100048BF10F1000F01BD4DF808EDFFF7F4FFDE
:100A20000CBF012000205DF808FB00BF4DF808ED69
:100A3000FFF7EAFF34BF012000205DF808FB00BF8C
:100A40004DF808EDFFF7E0FF94BF012000205DF8AE
:100A500008FB00BF4DF808EDFFF7CEFF94BF012063
:100A600000205DF808FB00BF4DF808EDFFF7C4FF5C
:100A700034BF012000205DF808FB00BF4FEA4102AF
:100A800012F5001215D211D56FF47873B3EB6252E0
:100A900012D94FEAC12343F0004343EA505311F007
:100AA000004F23FA02F018BF404270474FF0000099
:100AB000704750EA013005D111F0004008BF6FF0D7
:100AC000004070474FF00000704700BF53B94AB96B
:100AD000002908BF00281CBF4FF0FF314FF0FF3046
:100AE00000F074B9ADF1080C6DE904CE00F006F821
:100AF000DDF804E0DDE9022304B070472DE9F0479A
:100B0000089D04468E46002B4DD18A42944669D9F1
:100B1000B2FA82F252B101FA02F3C2F1200120FAD4
:100B200001F10CFA02FC41EA030E94404FEA1C4822
:100B3000210CBEFBF8F61FFA8CF708FB16E341EA1E
:100B4000034306FB07F199420AD91CEB030306F1A4
:100B5000FF3080F01F81994240F21C81023E6344C5
:100B60005B1AA4B2B3FBF8F008FB103344EA034469
:100B700000FB07F7A7420AD91CEB040400F1FF337E
:100B800080F00A81A74240F207816444023840EABB
:100B90000640E41B00261DB1D4400023C5E90043F4
:100BA0003146BDE8F0878B4209D9002D00F0EF8077
:100BB0000026C5E9000130463146BDE8F087B3FAAA
:100BC00083F6002E4AD18B4202D3824200F2F98092
:100BD000841A61EB030301209E46002DE0D0C5E995
:100BE000004EDDE702B9FFDEB2FA82F2002A40F0E1
:100BF0009280A1EB0C014FEA1C471FFA8CFE0126E4
:100C0000200CB1FBF7F307FB131140EA01410EFB87
:100C100003F0884208D91CEB010103F1FF3802D22E
:100C2000884200F2CB804346091AA4B2B1FBF7F028
:100C300007FB101144EA01440EFB00FEA64508D94B
:100C40001CEB040400F1FF3102D2A64500F2BB8088
:100C50000846A4EB0E0440EA03409CE7C6F12007D7
:100C6000B34022FA07FC4CEA030C20FA07F401FA1D
:100C700006F31C43F9404FEA1C4900FA06F3B1FBA6
:100C8000F9F8200C1FFA8CFE09FB181140EA01410B
:100C900008FB0EF0884202FA06F20BD91CEB0101A8
:100CA00008F1FF3A80F08880884240F28580A8F100
:100CB00002086144091AA4B2B1FBF9F009FB101152
:100CC00044EA014100FB0EFE8E4508D91CEB0101F0
:100CD00000F1FF346CD28E456AD90238614440EA93
:100CE0000840A0FB0294A1EB0E01A142C846A64613
:100CF00056D353D05DB1B3EB080261EB0E0101FA9C
:100D000007F722FA06F3F1401F43C5E900710026F8
:100D10003146BDE8F087C2F12003D8400CFA02FC4E
:100D200021FA03F3914001434FEA1C471FFA8CFE5E
:100D3000B3FBF7F007FB10360B0C43EA064300FB4E
:100D40000EF69E4204FA02F408D91CEB030300F1EC
:100D5000FF382FD29E422DD9023863449B1B89B2A3
:100D6000B3FBF7F607FB163341EA034106FB0EF32C
:100D70008B4208D91CEB010106F1FF3816D28B42D9
:100D800014D9023E6144C91A46EA004638E72E46A5
:100D9000284605E70646E3E61846F8E64B45A9D29D
:100DA000B9EB020864EB0C0E0138A3E74646EAE70C
:100DB000204694E74046D1E7D0467BE7023B6144BA
:100DC00032E7304609E76444023842E7704700BF23
:100DD00001F0FF01102A2BDB10F0070F08D010F8EC
:100DE000013B013A8B422DD010F0070F42B3F6D1F0
:100DF000F0B441EA012141EA014122F007047FF009
:100E000000070023F0E80256083C85EA010586EA5F
:100E1000010685FA47F5A3FA87F586FA47F6A5FA9B
:100E200087F68EB9EED1F0BC01F0FF0102F00702A7
:100E300032B110F8013B013A83EA010313B1F8D152
:100E40000020704701387047002D06BF3546033833
:100E5000073815F0010F07D1013015F4807F02BF6C
:100E6000013015F4C03F0130F0BC0138704700BFBD
:100E7000EC46A0E8F05F4FF000007047B0E8F05F8C
:100E8000E546080008BF0120704700BF10F8012B9D
:100E900011F8013B012A28BF9A42F7D0D01A7047B7
:100EA00030B583B004466D464168284605F060FEC3
:100EB00009492078094C2C2200F0E8F9034695E80E
:100EC000030003F120025C6082E80300012283F842
:100ED0002A2003B030BD00BFA10E0108E10E0108B9
:100EE00038B500F12005044695E8030005F0AAFE98
:100EF00020B1A3681844A060012038BD95E8030024
:100F000005F0CAFE94F82A3094F82B2093421CD2A4
:100F1000218B0133DBB2084480B29A42208384F8EB
:100F20002A3018D8638B83421BD8A38B834218D3F3
:100F3000002384F82830134801F01AFF6369E2683F
:100F400013446361A360012038BD01239A422083CA
:100F500084F82A30E6D9A36822691344A3600120EB
:100F600038BD94F8283094F829200133DBB29A4236
:100F700084F82830DFD8044803F022FD01F04AFF4E
:100F8000D6E700BF68000020008A010838B5144980
:100F90000546007800F05AF9044601F05DFE04F1C0
:100FA000200393E8030005F0CDFE6B686361A36046
:100FB000AB6823612B7B84F82B305A1C84F82A20E1
:100FC0002A69E260D5E90501EA6984F8292060838D
:100FD000A18303B938BD2046BDE8384001F024BFE5
:100FE000A10E01082DE9F041214884B001F0C8FEAE
:100FF00030B3FF231F4D204F204E8DF80F30294670
:101000000DF10F0000F06EF90446C8B194F82A20E3
:1010100094F82B309A42F2D106F0B8FD94F82B30B8
:1010200094F82A20934203F101010CD006F0B0FDA0
:1010300029460DF10F0000F055F904460028E5D1CE
:1010400004B0BDE8F0816269B4F8188084F82A1011
:10105000019206F09DFD3046A7F8008003F0E2FE05
:10106000019A9DF80F10434600F076FDC7E700BFD8
:1010700068000020A10E010864000020148A010805
:1010800030B583B0FF23114D8DF8073006E093E8AB
:10109000030005F057FE94F82B305BB929460DF19B
:1010A000070000F01FF9044600F120030028EED1EC
:1010B00003B030BD6269E16801330A4484F82A3024
:1010C0006261A260204601F0AFFEE7E7A10E0108D1
:1010D00008B5044B04482B221A6003F071FC01F0A0
:1010E0006DFE00BF38010020448A010808B506F0F3
:1010F00045FD034B033020F00300186008BD00BF1E
:101100006C00002070B50E4E336804461D1806F0C2
:1011100039FD85420CD83568E31C23F003032B44CA
:10112000224600212846336007F050FC284670BD57
:10113000044B054828221A6003F042FC01F03EFEF1
:101140006C00002038010020608A0108024B1A68F8
:1011500002601860704700BF7C00002010B506F0E8
:1011600019FD084B1C682CB122681A6006F016FDA8
:10117000204610BD044B05482A221A6003F020FCCB
:1011800001F01CFE7C00002038010020748A010858
:101190000068B0FA80F04009704700BF00687047EF
:1011A00003460A68002018601AB14A6813604B6051
:1011B0007047C1E900330120704700BF03681A6817
:1011C00002601846704700BF00230360704700BFED
:1011D00008B5FF294FF00003C0E9003308DC054BD8
:1011E0001B882BB9044B1A788A42B8BF197008BD06
:1011F000FFF76EFF78000020800000200F4B18885A
:1012000010B4A0B1013815D00D4A0E4B146893F8F4
:1012100000C00022234619460132634482420B601B
:10122000F9D102FB0C42084B002111601C605DF8F3
:10123000044B7047024B1C682246F4E778000020FC
:1012400084000020800000207C00002008B50B4BAB
:101250001B78834209D90A4B1B6853F830208A4215
:1012600003EBC00001D1406808BD064B06482D22A3
:101270001A6003F0A5FB01F0A1FD00BF880000206B
:101280008C00002038010020888A010870B5104BBE
:101290001C7803469C42104611D90E4D1AB2DC0050
:1012A0002B6853F8326056B90B4E36883EB943F876
:1012B0003210FFF727FF2B682344586070BD074B9F
:1012C00007482E221A6003F07BFB01F077FD00BF78
:1012D000880000208C0000207800002038010020C9
:1012E0009C8A010830B50E4A03780E4C126894F8B7
:1012F00000E003F1010C5FFA8CF302EBC30205E09E
:1013000052F8084B8C4203F1010C06D05FFA8CF3C3
:101310009E451546F4D8002030BD0370686830BD86
:101320008C0000208800002038B50A4C236843B99F
:101330000568E8B2C000FFF7E5FE074B20601D70AE
:1013400038BD064B06482F221A6003F039FB01F026
:1013500035FD00BF8C0000208800002038010020EF
:10136000B08A010830B50D4D0D4885B003F05AFD27
:1013700029880C4B003918BF01211A6803920446D2
:10138000029101F005FD034628880090DDE9021274
:10139000204600F0E1FB05B030BD00BF7800002022
:1013A000C88A0108700000202DE9F0411E4F3B88DB
:1013B000064683BB1D4BDFF88C801D78D8F80040B3
:1013C000032D9CBF04251D7006F0DCFB0023224684
:1013D0002C44A04213D30133B3F5806FF7D11D46DF
:1013E000D8F80000201AFFF78DFE114B3D801860E1
:1013F000FFF704FF0F4B32681A60BDE8F08113B1AC
:101400009DB21446ECE70C4B0C4829221A6003F0FD
:10141000D7FA01F0D3FC084B09482C221A6003F0DC
:10142000CFFA01F0CBFC00BF780000208000002044
:10143000840000207000002038010020188B010873
:10144000048B01086C00002010B5064803F0EAFC8C
:10145000044606F0E5FB01462046BDE8104000F0DA
:101460007BBB00BF2C8B010810B582B006F0D8FB07
:10147000094A0A4B11681B680446A34288BF013120
:101480000748019103F0CEFC0199224602B0BDE865
:10149000104000F061BB00BFA4000020A0000020AD
:1014A0003C8B01082DE9F041264D274E2B68274F34
:1014B00001332B603368081A0344B0F5803F0C46B3
:1014C000336019D23B6800FB00F0FF3003EB1020C3
:1014D000984238BF4FF0FF3038601D48DFF87C80FD
:1014E00006F096FBD8F8003001461944204606F075
:1014F00093FB70B1BDE8F081B0F5801F06D200F11A
:10150000FF023B68120A00FB0230E1E74FF0FF30B8
:10151000E2E7104803F086FC3B683268296800F077
:101520001BFBD8F80030A34203D90B4A13680133E0
:1015300013600023C8F800403B6033602B60BDE8B7
:10154000F08100BF74000020A8000020AC00002043
:10155000404B4C00548B0108A4000020A000002048
:1015600008B5044B044831221A6003F029FA01F04F
:1015700025FC00BF38010020748B010801F032BC4B
:1015800010B50E4B04681B6842689C4282B012D2B0
:10159000D2B21119994201D91A1BD2B2084801924C
:1015A00003F040FC074B019A2344214602B0BDE8FA
:1015B000104000F0D1BA0022F0E700BF24A00108DB
:1015C000848B01080495010808B5044803F02AFC3F
:1015D000034B1968BDE8084000F0BEBAAC8B0108A7
:1015E0009C00002038B503681F4C204A41682360E6
:1015F0000B2B116015D01E48002107F013F81D4871
:10160000012107F059F91C48012107F00BF81B488C
:10161000012107F007F8BDE838400121022004F05D
:1016200067BD17481749184B002401254FF4FA529B
:1016300005700C6015481C80214607F0C7F9294643
:101640000B4806F0EFFF21460A4807F035F921461E
:10165000094806F0E7FF0948214606F0E3FFBDE828
:101660003840022004F05EBD94000020900000206D
:10167000000800405800024000340140002C0140A6
:10168000980000209C00002028210020E801002074
:1016900000B5064B0648196883B0019103F0C2FB00
:1016A000019903B05DF804EB00F056BAB4010020D4
:1016B000C08B010810B5064803F0B4FBBDE810402C
:1016C00040F2E9334FF4A57240F2EA7100F044BAF7
:1016D000D48B010838B50B4A0B4B15681C68641B8A
:1016E000002CB8BF64420A2C08DC084803F09AFBBF
:1016F00022462946BDE8384000F02EBA04F01EFC10
:10170000F3E700BF5801002068010020FC8B0108AE
:10171000F8B5877F04469FB100252F4601262B464A
:10172000043304EBC30393E8030005F039FC0135EF
:101730007100EBB200B13743A27F9A42CEB2EFD82C
:10174000227CBA4207D0637C7B40DB4382EA0701FC
:10175000DBB20B4210D194F91C30257F6774002B4B
:1017600004DB013DEDB2FF2D1ED02577D4E9023216
:1017700013440120A360F8BD22EA03023B40134357
:10178000A27C2374072AE6D8511C2244A17408487D
:10179000D37401F0EDFAFF232377D4E902326774A2
:1017A00013440120A360F8BD014801F0E1FADCE731
:1017B000B000002010B50479082C09D8221D084972
:1017C0000078D200FFF762FD064B8477436010BDBE
:1017D000054B064825221A6003F0F2F801F0EEFAF4
:1017E000B517010811170108380100201C8C0108E9
:1017F00070B51149054682B00078FFF727FD2B79B7
:10180000827F9A4204460ED96E46D5E902123046CE
:101810001D1D05F09DFB96E8030004EBC50484E85C
:10182000030002B070BD054B054826221A6003F084
:10183000C7F801F0C3FA00BFB5170108380100204E
:10184000308C010838B5134905460078FFF7FEFCD7
:10185000044601F001FA6B68A360A968E160002307
:101860002A7CA374E376FE23627422742377EB68E8
:1018700063771B0606D401B938BD2046BDE8384061
:1018800001F0D2BA044B054827221A6003F098F8F9
:1018900001F094FAB517010838010020588C0108AE
:1018A00038B5154904460078FFF7D0FC2479C37E8B
:1018B00005462344C37606F069F9AB7CA34207D8FA
:1018C000FE230022AA742B77BDE8384006F060B9E9
:1018D0001B1BD8B205F1130204F112032B44141898
:1018E00013F8011F02F8011BA242F9D1A874BDE848
:1018F000384006F04DB900BFB5170108F0B51A48D9
:1019000085B001F03DFA48B3FF23184D184F8DF80C
:101910000F3029460DF10F00FFF7E4FC0446E8B153
:10192000237FFF2BF5D106F031F9A67CC6B1637F8A
:10193000237706F02DF9384603F074FA1334227A2F
:101940009DF80F100094334600F006F929460DF17A
:101950000F00FFF7C7FC04460028E1D105B0F0BD39
:1019600006F016F9D5E700BFB0000020B517010852
:101970007C8C0108704700BF70B514799668651EAD
:10198000A4B3814233D316F8012B042A20D810F8CF
:10199000012B02F0600CBCF1600F03F1040E02F0A9
:1019A0007F0408D164F01F0405E010F8012B02F059
:1019B0007F0C4CEAC4141206F7D41C60B5B1814206
:1019C00015D316F8012B042A05F1FF357346DED92D
:1019D000072A0CD1024612F8014B1019884206D88A
:1019E0009E464EF8084B5A60002DEAD170BD024861
:1019F00002F0E6FF01F0E2F9A88C01082DE9F843B6
:101A00008B78052B064694461C4666D9053B821CFE
:101A1000D4180B88CF784D687F2B00F28C8011464C
:101A200003F07F0301F8013B002F53D08C42C0F03C
:101A30008A802F4430E05CF8043B03F120027F2AC7
:101A400022D903F58052B2F5804F18D303F5002256
:101A5000B2F5001F0ED303F18062B2F1805F04D3B0
:101A60001A0F62F07F0201F8012B5A0D62F07F021B
:101A700001F8012B9A0B62F07F0201F8012BDA09C1
:101A800062F07F0201F8012B03F07F0301F8013BB4
:101A9000BD421FD08C4256D315F8013B052B30D0E8
:101AA000C9D9063B012B4ED8E0460B4658F8082B07
:101AB000611A914228BF114603F8011B89460A4664
:101AC0001846DCF8041006F059FFBD4200EB09018E
:101AD000C446DFD1891BCC1CE3B21D4A3370127897
:101AE0007270E51E2946304606F06AF9030A7355FE
:101AF00026447E2306F8020C06F8013C2046BDE889
:101B0000F8835CF8040B03784A1C6BB1944202D84A
:101B100017E094420BD002F8013B10F8013F002B74
:101B2000F7D1531A013BDBB20B701146B0E7631AD1
:101B3000013BDBB2F8E7DA0962F07F028270C21C77
:101B40006DE70023F0E7034802F03AFF01F036F9B1
:101B500000000020C08C01080FB430B5084D2C786F
:101B600083B0E4B23CB9012307A906982B70019118
:101B700005F0B8FF2C7003B0BDE8304004B07047EA
:101B8000B1000020014B00221A707047B100002004
:101B90002DE9F04B804615460C4619B90020286007
:101BA000BDE8F08B2F4E3778FA0711D40429F5D908
:101BB00007787B1F3B2B05D890F8019029F00F0385
:101BC000102B1ED07E2F36D0337843F001073770AC
:101BD00022467E214046FFF7FBF850B3A0EB0800F9
:101BE00007F0FE07013037702860BB071DD447F0AF
:101BF000020333701C48FFF7AFFF4FF0FF30BDE822
:101C0000F08BB942CAD3C31913F8012C7E2AD9D15B
:101C1000F91E13F802BC435C4BEA032B06F0D0F824
:101C200083450DD098F80070CCE74FF0FF30BDE849
:101C3000F08B2C60D9E701232B604FF0FF30AFE72A
:101C40000A4932780B782F6022F002024B4532703D
:101C5000D0D1013303F00F0343F010030B700120C8
:101C60009EE700BFB2000020E88C010800000020C1
:101C70002DE9F04B033900F10209451882B0A9455E
:101C800000AF30D2DFF8948099F9002099F8004035
:101C9000002A6E462BDB09F10100ACB31D4B1B88FB
:101CA0009C4231D208EB0412294693787A609B005B
:101CB000073303F4FF63ADEB030DEB465B46FFF721
:101CC0005BFE2401814601F063F818B17A68D2788E
:101CD000D30715D5444405F069FFE268584690479C
:101CE000B546A945D0D30837BD46BDE8F08B99F875
:101CF0000120E40104F47E5409F102001443CCE70E
:101D000001F04EF8B546ECE7034802F059FE01F049
:101D100055F800BF08A50108D88C010828A00108C3
:101D20000148FFF719BF00BFE88C010830B5D0E9C2
:101D3000004083B0FFF71EFE054605F02BFFE3B21F
:101D4000012B0FD0022B10D02978C9B2019105F0D8
:101D500025FF074803F066F8019903B0BDE830405D
:101D6000FFF7FABE298889B2F0E72968EEE700BFDD
:101D7000F08C010870B50446D0E90050FFF7FAFD79
:101D8000A668044605F006FFEBB2012B07D0022B34
:101D90000BD0F6B22670BDE8704005F0FFBEB6B2BB
:101DA0002680BDE8704005F0F9BE2660BDE87040B1
:101DB00005F0F4BE10B5D0E9004082B0FFF7DAFDBF
:101DC0000190054803F02EF8019AE1B202B0BDE897
:101DD0001040FFF7C1BE00BF048D0108704700BF6F
:101DE00030B50B4983B0044628220078FFF74EFA3D
:101DF0006D4603466168A26828461C4605F0A8F8AF
:101E000095E8030004F10C0383E8030003B030BD40
:101E1000E11D010838B500F10C03044693E8030006
:101E200005F0BEF894F8245088B1ED4305F00105A3
:101E30008DB994F82630013B13F0FF0315D0A2684A
:101E4000A16984F826300A44A260012038BD05F05B
:101E50000105002DEDD00849E26994F8253084F899
:101E60002630C4E90112012038BD206A94F82710F9
:101E700002F0FCFB284638BD7D1E010800F10C0372
:101E800010B5044693E8030005F08AF8A368626978
:101E90001A4494F8243030B1DB4303F0010333B12A
:101EA000A260012010BD03F00103002BF8D1044B08
:101EB000E26163602046BDE81040FFF7ABBF00BFA2
:101EC000151E010838B51B4905460078FFF7BEF915
:101ED000044600F0C1FE6B68A360AB68A3612B7B76
:101EE00084F825302BB9144A84F824301370236207
:101EF00038BD03F085FD2A6994F8253084F8263032
:101F000062616A690C4B002A14BF0322022284F822
:101F1000242001221A70094B287E636002F0D2FB54
:101F2000EB6984F8273020622046BDE8384000F095
:101F30007BBF00BFE11D0108B30000207D1E01082A
:101F40002DE9F041134E144901233370077884B012
:101F50003846FFF77BF9044605F018FEE36994F86C
:101F60002480039305F014FE0C4802F05BFF0C3450
:101F7000054694E8030005F013F8039B0090C8F3AE
:101F8000400239462846FFF7E7FD0023337004B0CE
:101F9000BDE8F081B3000020E11D0108148D0108A7
:101FA00010B50A490078FFF751F9044600F054FED5
:101FB000074A94F8251084F82610002384F824306A
:101FC00013702362BDE8104003F01ABDE11D010843
:101FD000B300002030B5D0E9011283B0003A0446C6
:101FE0006D4618BF0122284604F026FF0F492078CD
:101FF0003422FFF74BF9034695E8030003F118027A
:1020000082E80300D4E90221003A18BF012209B195
:1020100042F0100283F8302022691A620C2103F189
:10202000280003B0BDE83040FFF7D2B8D51F010843
:102030002DE9F84300F1280804464046FFF7A8F8C8
:10204000002840F0A0804046FFF7B8F885682E1EB3
:1020500018BF012604F118030746324693E803002F
:1020600004F036FF3846FFF771F8C5B1636AAB423A
:1020700015D9276A002F68D1404646F00206FFF7BF
:1020800087F8002800F0878094F83030676103F00B
:1020900010033343A66884F830302E4426E094F8C9
:1020A0003030B5FA85F283F01003C3F30013520900
:1020B0009A4225D0276A1FB3A168404646F004061D
:1020C0000F44FFF765F8002848D094F83030676176
:1020D00003F01003334384F83030B30726D5A668E5
:1020E0002E443946304605F097FDF8B1636A2B4A15
:1020F0005B1BC4E90126C4E903530120BDE8F88352
:102100004046FFF745F8A8B981464046FFF746F834
:10211000476894F83020676146F0040602F0100228
:10212000164384F83060B9F1000FD8D1A7600120C0
:10213000BDE8F88394F8303003F0100333430020F7
:1021400084F830306061BDE8F883A168404646F00D
:1021500006060F44FFF71CF80028B6D14046FFF7EB
:102160001DF8034638465F68394605F055FD06F010
:1021700002090028CDD00A4B0A481E221A6002F03C
:102180001FFC00F01BFE064B07481D221A6002F0E0
:1021900017FC00F013FE4FF00209B6E7AD2101086D
:1021A000380100207C8D0108508D010838B50446A7
:1021B00000F1180393E8030004F06EFE94F8303049
:1021C000A56883F00103DA074CBFE268226984F84E
:1021D00030305B07154402D4A560012038BD616929
:1021E000284605F019FD0028F6D1034B65696360A8
:1021F000A560012038BD00BF3120010838B50D4968
:1022000005460078FFF722F8044605F0BFFC04F10C
:102210002800FEF7BDFF28B16B686362BDE8384057
:1022200005F0B6BC044B05481F221A6002F0C8FB3B
:1022300000F0C4FDD51F010838010020B48D01084D
:10224000F8B5224906460078FFF700F80446FEF785
:1022500085FF77684760B3688360054605F096FCA4
:1022600004F128012846FEF79BFF98B194F83050FE
:102270006A071DD445F0040384F83030AB0767616A
:102280000CD4204600F0E8FC114B2046C4E901378D
:1022900000F0CAFDBDE8F84005F07ABCA0683946F8
:1022A00005F0BAFC0028ECD0BDE8F84005F070BCA1
:1022B0006069394605F0B0FC0028DBD0054B0648C4
:1022C00020221A6002F07CFB00F078FDD51F010887
:1022D00031200108380100207C8D0108F0B585B05F
:1022E000D0E90075866805F09BFC044641F2883011
:1022F00005F08EFC04442146284605F08DFC00289C
:1023000018BF254601A8CDE901750396FFF798FF90
:1023100005B0F0BDF8B5234905460078FEF796FFF5
:10232000044600F099FC04F12800FEF731FF88B361
:102330002E7994F83050371E18BF012704F1180386
:1023400093E803003A4604F0C3FD85F01001B6FAA5
:1023500086F35B09C1F300118B4201D0236A2BB9CC
:1023600005F010053D4384F83050F8BD05F058FCE9
:1023700005F01005236A3D43184445F004050A4B57
:1023800084F83050C4E9013060612046BDE8F8406F
:1023900000F04ABD054B064821221A6002F010FBEE
:1023A00000F00CFDD51F0108312001083801002084
:1023B000EC8D010830B583B0FF23124D8DF8073046
:1023C00013E094F8302093E8030002F0100204F0C8
:1023D0007FFD94F8303013F0100318BF112304F17F
:1023E000280084F83030FEF7EFFE29460DF1070093
:1023F000FEF778FF044600F118030028E1D103B08E
:1024000030BD00BFD51F010800B5034683B0D3E936
:102410000012684604F010FD03B05DF804FB00BF35
:10242000024900781022FEF731BF00BF21240108C5
:102430000149FEF70BBF00BF2124010830B5C36876
:102440000D4985B0044603F07F0300780193FEF741
:10245000FDFE02ADD4E901120446019B284604F0BA
:1024600007FF95E80300237B43F0020384E80300A1
:10247000237305B030BD00BF21240108037B8160B8
:1024800043F001030373704770B50E4904460078AA
:10249000FEF7DCFE0546A0682479FFF76BFA2A7B7D
:1024A000D207034606D5A86821461A46BDE8704003
:1024B00003F06AB895E803002246BDE8704004F0D6
:1024C00057BF00BF212401082DE9F04383B00678EF
:1024D0001949044602AF3046FEF7B8FE0546A0682B
:1024E00094F80480FFF746FA247BE21D02F4FC72A4
:1024F000ADEB020D2A7BD20703460DF1080913D577
:10250000A868CDF800901A464146234603F052F8D9
:102510000A4802F087FC4B4622463146FFF71CFB77
:102520000437BD46BDE8F083CDE90049424695E851
:10253000030004F04DFFEBE7212401081C8E010885
:102540002DE9F04B84B005463A49007802AFFEF71A
:102550007DFE8046A8682C79FFF70CFAEE68F2073A
:1025600062D4C6F34706386004EB060B2869FFF710
:1025700001FA0BF1070298F80C307B6022F0070299
:102580003B68ADEB020D0DF10809194605462246E0
:10259000484606F0F3F97B6813F001037B603B6863
:1025A0002AD109EB04020192009698E80300224622
:1025B00004F00EFF6EB3013E2E44013C4C44013D3D
:1025C000314615F8012F14F8013F23EA0203237066
:1025D00016F8012F8D4243EA02032370F1D17B6884
:1025E000BBB1D8F808004A465FFA8BF102F0CCFF85
:1025F0000837BD46BDE8F08B1A4609EB0403D8F84E
:10260000080000932146334602F0D4FF002ED2D1B9
:10261000E7E798E803004B465FFA8BF204F0A8FE68
:102620000837BD46BDE8F08B034802F0C9F900F059
:10263000C5FB00BF21240108448E010870B50A4B78
:102640001E68002E82B00CDD084D00242A7955F852
:10265000081B684602F00102013404F0EDFBB442AD
:10266000F4D102B070BD00BFE8A50108E8A50108DB
:1026700070B582B004466D4641680022284604F0D9
:10268000DBFBA3689EB21B0412D406F118020C49AE
:10269000207892B2FEF7FAFD034695E8030083E83E
:1026A0000300D4E903129E8299601A6102B070BDE2
:1026B000044B05481A221A6002F082F900F07EFBF2
:1026C00071260108380100206C8E010870B511498F
:1026D00004460078FEF7BAFD0346D4E90260656857
:1026E0001C46FFF747F92B0401460AD4A28AAB190E
:1026F000934206D8163532466019BDE8704006F0A0
:102700003DB9054B05481B221A6002F059F900F04B
:1027100055FB00BF7126010838010020888E010892
:102720002DE9F04B2DED028B0378624988B01846F5
:1027300008EE103AFEF78AFDD0E90354059005F043
:102740006FFA401B844206D905F030FA05F068FAAA
:10275000401B8442F8D8059D95E8030005F1160258
:10276000AF8A039706AE86E803000492029205F052
:1027700057FAAB6801930446002F50D0DFF8489118
:10278000029B13F8017B02934FF008083B064A486E
:102790004BD505F03DFAA9FB0035AD0C05F040FA2C
:1027A000001B8542FAD805F0F1F905F039FA054623
:1027B00096E8030004F070FB05F0EAF9019B2C1B7E
:1027C000A3425FD93D4805F023FAA9FB00347F00FE
:1027D000A40C05F025FA401B8442FAD805F0D6F97E
:1027E00096E8030004F058FB05F0D2F905F018FA5A
:1027F0008346334805F00CFAA9FB0034A40C05F01D
:102800000FFAA0EB0B008442F9D82C46B8F101086E
:10281000BCD1DDE903231344029A9A42B0D105F0FA
:10282000FFF9059B0122D86036E005F0F1F9A9FB1C
:102830000035AD0C05F0F4F9001B8542FAD805F01F
:10284000A5F905F0EDF9834696E8030004F024FBB2
:102850001B4805F0DDF9A9FB0035AD0C05F0E0F9EA
:10286000A0EB0B008542F9D896E8030004F014FBB6
:1028700005F08EF9019BABEB0404A34202D97F0063
:102880005C46C3E7002296E8030004F021FB05F054
:10289000C7F9059B0022D8600A48019202F0C2FAEB
:1028A000019A18EE101A08B0BDEC028BBDE8F04B8F
:1028B000FFF752B971260108D012130010EB09007E
:1028C000400D0300A88E010883DE1B4330B50C4980
:1028D00083B004462C220078FEF7D8FC6D460346F0
:1028E0006168A26828461C4604F032FB95E80300A4
:1028F000044A04F1240383E80300626003B030BD9E
:10290000CD2801080929010870B58369044600F142
:10291000240292E8030003F00105A66804F040FBDE
:10292000854203D0A369E6610133A3616069314642
:1029300005F072F928B9D4E9023213440120A360EA
:1029400070BD94F8202023690748334442F0010207
:1029500084F82020636100F00BFAD4E902321344BA
:102960000120A36070BD00BFB400002038B50A4943
:1029700005460078FEF76AFC044600F06DF96B68C6
:10298000A360AA68E260EA682046C4E90423BDE8BF
:10299000384000F049BA00BFCD28010870B51C4886
:1029A00086B000F0EDF980B3FF231A4D1A4E8DF872
:1029B000173029460DF11700FEF794FC044620B3AA
:1029C00094F82030DB07F4D505F0E0F894F82010F7
:1029D000A268A369039221F0010184F820100293F8
:1029E000E46905F0D5F8304602F01CFADDE9023260
:1029F0009DF817100094FFF7AFF829460DF1170066
:102A0000FEF770FC04460028DAD106B070BD00BFA6
:102A1000B4000020CD280108CC8E010838B5027B17
:102A200081680446007904F0D9FA09490546202254
:102A30002078FEF72BFCD4E90412064BC560818296
:102A400043600261BDE838400C211830FEF7C0BB7E
:102A50001D2A0108592A0108F8B500F11806044694
:102A60003046FEF7ABFB078905463946E06804F0BF
:102A700097FB2846FEF76AFB3046FEF789FB60B1FC
:102A8000A38ABB4224D0206900B9F8BDA368114ACB
:102A90001844C4E901200120F8BD3046FEF77EFB52
:102AA000A38A4568BB4201D0236913B9A560012000
:102AB000F8BDA0682946184405F0AEF80028F5D006
:102AC000054B064818221A6001F07AFF00F076F9EB
:102AD0000020F8BDE12A010838010020088F010814
:102AE00008B5044B044817221A6001F069FF00F092
:102AF00065F900BF38010020388F010870B51B4907
:102B000005460078FEF7A2FB0646FEF727FB6B683A
:102B10004360AB680381044605F038F806F11801FC
:102B20002046FEF73DFB054605F032F805B970BDBD
:102B3000304600F091F80E4B72689A4208D06368F4
:102B40000C4A3046C6E90123BDE8704000F06CB97C
:102B50006168B06805F060F80028F0D0064B0748BF
:102B600019221A6001F02CFF00F028F91D2A010833
:102B7000E12A0108592A010838010020088F0108BC
:102B800070B582B0FF230C4D0C4E8DF8073008E075
:102B9000E068A18A04F004FB666004F11800FEF707
:102BA00013FB29460DF10700FEF79CFB04460028A5
:102BB000EED102B070BD00BF1D2A0108592A0108DC
:102BC000027A4168007804F009BA00BF002070471B
:102BD000084B094810B500221A7205F019F8074A87
:102BE000074994680346234403F10044012093609D
:102BF0008C6010BD04000020A08601001C00002095
:102C0000280000200F4B10B500221A72044602F073
:102C1000FDFF0D4B1B78012B09D04FF4FA7004F027
:102C2000F7FFA368024613440120A36010BD074AC2
:102C300011780029F1D10648064900681370086030
:102C4000EBE700BF0400002070010020B900002065
:102C5000580100206401002010B5044604F09AFFDA
:102C60000E490B68A34202D111E0A3420CD01A46D0
:102C70001B68002BF9D14B68A34204BF084B4B6083
:102C8000BDE8104004F08ABF23681360F3E7054BEA
:102C9000A2689A6022681A600B60ECE704000020CA
:102CA0001C000020100000202DE9F8431C4F3E6856
:102CB000736830463BBB01F0A3F8B568336838B39E
:102CC0009968284604F0A8FF10B12846BDE8F883AB
:102CD0007C683368A168D3F808903B60284604F00C
:102CE0009BFF00B13C68A04624682846A16804F018
:102CF00093FF0028F7D04D4634607E60C8F800602E
:102D00002846BDE8F8839847B56833680028D7D1CE
:102D10007A689D683B60B242D7D17B60D5E700BF3F
:102D200004000020074B084A0849094810B49C6871
:102D300094605DF8044B0A604B601360186004F007
:102D400075BF00BF1C000020100000200400002000
:102D500028000020014B00221A7270470400002056
:102D6000024B187AC043C0F3C01070470400002023
:102D7000024B00221A7201230370704704000020E6
:102D800003780246D8B210B10023137001207047B7
:102D9000024B587A003818BF012070470400002009
:102DA00008B5044802F03EF8034B997ABDE80840A4
:102DB000FEF7D2BE648F01080400002000B583B086
:102DC000019004F0E3FE01990148FEF757F800BFB7
:102DD000BC00002008B5024801F0F2FDFFF7EEFF4D
:102DE000888F010808B5084A537A23B1022B1CBF0B
:102DF0000023537208BD054B054816221A6001F0E6
:102E0000DFFDFFF7DBFF00BF0400002038010020DA
:102E1000A08F010808B5034B5B7A03B108BDFFF72B
:102E2000CDFF00BF040000202DE9F0411A4E856857
:102E3000074604F0AFFE34688046A168284604F0D7
:102E4000EBFE70B9264624682846A16804F0E4FE2B
:102E50000028F7D03C6037604046BDE8F04104F000
:102E60009DBE04F0DDFE0146284604F0D5FE50B9B3
:102E70000A4B33609C4208BF24683C609D601F6021
:102E800004F0D4FEE8E7064801F09AFD737A002BBF
:102E9000EED1FFF793FF00BF0400002010000020D8
:102EA000C48F010838B5094D094B6B6004F0B8FEBA
:102EB00004464FF4FA7004F0ABFE00230444AC6007
:102EC00028462B60BDE83840FFF7AEBF1801002050
:102ED000052C01082DE9F04383B001F013FD02F049
:102EE000FFF802F06BFE02F021FEFFF7DBFF03F0BC
:102EF000C9FA364801F096FFFEF72EFE04F046FEB2
:102F00003348FDF7B5FF0446002841D104F040FEE8
:102F100004F086FE2F4C304E304D20604FF00008FC
:102F2000FF271CE02F7204F03DFE95F90830002BBE
:102F3000F9D104F02DFE04F073FE236818442060DC
:102F400001232B7201F006FD04F06AFE814649461A
:102F50002068FEF7A7FAC4F8009003F0F1FD04F032
:102F600025FE3378DBB21BB186F8008003F038F819
:102F700095F90830002BE3D004F052FE2368181AAC
:102F8000206004F003FE95F90830002BD1D0C9E78A
:102F900004F0FCFD04F044FE104B5A7A014602B9DD
:102FA0009C720E4C019102236372FFF7BBFE01F08D
:102FB000B7FC0123637204F0EBFD094801F032FF16
:102FC000A27A0199FEF7C8FDA0E700BFD48F0108DF
:102FD000BC00002024010020B800002004000020D4
:102FE000E08F010838B50749054650220078FEF702
:102FF0004DF90446044B2879636000F0ADFC206174
:1030000038BD00BFE52F01080D30010808B50346A3
:1030100004481A7D42F001021A75FFF7A9FE00204C
:1030200008BD00BF2801002038B5104905460078CA
:10303000FEF70CF90446FFF70FFE002323756B68BB
:1030400003B938BDE36004F1160002F06FFC04F030
:103050009DFD04F0E5FDE368024613442046A360AD
:10306000FFF7E2FEBDE8384004F092BDE52F01080D
:10307000F0B5134985B006460078FEF7E7F8B923A6
:103080000546ADF80C3004F0CBFD012103AB022264
:103090000746286900F0B6FC04F0C2FD9DF80D104B
:1030A00021F08001202909D801EB8104C31B31786C
:1030B00000943A4605F1160002F056FC05B0F0BD4A
:1030C000E52F01082DE9F043534885B0FFF758FE7E
:1030D00088B1FF23514D524E4F4F8DF8033002E01F
:1030E000237DDB070AD429460DF10300FEF7FAF829
:1030F00004460028F4D105B0BDE8F08396E8070047
:103100000DF1040C6346ACE803008CF80020206944
:103110009DF803800922012100F074FCA27E9DF835
:10312000061002F11B0311F0F000234424D0F02814
:1031300022D0A118FF221A71DA709A705A70CA76DA
:10314000A37E0533DBB22E2BA37604D9414604F1CE
:10315000160002F0F1FB237D23F00103237504F038
:1031600015FD04F05DFDE3681844A0602046FFF7FC
:103170005BFE04F00DFDB6E79DF808C01CF0F00002
:1031800001D0F028D5D19DF80A0010F0F00E34D10E
:103190009DF80BE0BEF1900FCBD19DF80C9029F07B
:1031A0008009B9F1200FC4D801F01F0141EA401194
:1031B0008000224400F060000CF01F0C9DF805E038
:1031C00082F81BE040EA0C0C9DF8070058709DF84F
:1031D00009209A70D97083F804C0A37E0533DBB24E
:1031E0002E2BA3760DD8B9F11E0F10D9238B0133E6
:1031F00023833846FFF7BCFD75E7BEF1F00F98D189
:10320000C6E7414604F1160002F096FBEBE7B9F180
:10321000010FA0D9EDE700BF28010020E52F01082C
:10322000F489010870B5067A032E044610D81049B7
:1032300000785022FEF72AF805460E4B20796B6085
:1032400000F08AFB286100F0D1FB48B16E7570BDBB
:10325000094B0A4814221A6001F0B2FBFFF7AEFDD9
:10326000054B074815221A6001F0AAFBFFF7A6FDDF
:103270002532010885320108380100200890010834
:103280002490010810B5037D5A0704460BD5C37D71
:103290000133C3750648FFF76BFDD4E902321344CE
:1032A0000120A36010BD43F004030375F2E700BFE3
:1032B0002C01002010B4847D521A34B104F1FF3C7B
:1032C000012101FA0CF10A44E240FE2A0AD8017FEA
:1032D0004418033162771A0AA377E2775DF8044B4A
:1032E00001777047037FC21801219177FF240021E5
:1032F0005477D17703335DF8044B0377704700BFF1
:1033000038B50E4904460078FDF7A0FF0546FFF7E3
:10331000A3FC00232B75A36803B938BD6368AB60B9
:10332000A368EB6005F1180002F000FBE368AB75E1
:103330002846BDE83840FFF777BD00BF25320108B9
:103340002DE9F04390F800803249054685B04046AB
:10335000FDF77CFF0446A8682F79FEF70BFB94F875
:103360001590B9F1020F054623D004F059FC03462D
:103370003A46206901211C462B4600F043FB04F02D
:103380004FFC0646322004F043FC331B834288BFC7
:103390000027B9F1010F18BF26461F4801F042FD72
:1033A00000953B4632464146FEF7D6FB05B0BDE8E8
:1033B000F0830DF108092169484600F01BFB99E8EC
:1033C0000300002203F084FD04F02AFC06460120DD
:1033D00004F01EFC064401E004F0E8FB04F020FCCD
:1033E0000146304604F018FC0028F5D004F0CEFB6E
:1033F00099E80300012203F06BFD04F011FC06467E
:1034000004F0C6FB20692B463A46012100F0FAFA87
:10341000C3E700BF25320108449001082DE9F04BB5
:10342000C44888B0FFF7ACFC002856D0FF23C24E3A
:103430008DF80B30002531460DF10B00FDF752FFE2
:103440000446002849D0237D5F07F4D504F09EFB95
:1034500094F817B02575E575D4F8088004F098FB4A
:10346000E768A8EB07030193BBF1000F19D04FF0F9
:10347000FF0902E0BBF1010B13D0237FE1180333F6
:10348000DBB2302B81F81D908D77CD772377F1D982
:103490009DF80B1004F1180002F04EFABBF1010B7D
:1034A000EBD194F815B0BBF1000F19D0BBF1010FAF
:1034B00057D0BBF1020F76D0237F302BBBD904F15C
:1034C00018009DF80B1002F037FA31460DF10B0091
:1034D000FDF708FF04460028B5D108B0BDE8F08B21
:1034E0004FF03208ADF8148004F09AFB05AB0222CD
:1034F00001210746206900F085FA04F091FB03469C
:103500004046A3EB070804F083FB80450BD9237FDB
:10351000E218FF2103335177DBB2022182F81FB09A
:1035200091772377C9E79DF914209DF81430002A7C
:103530000BDA237FE218FF2103335177DBB203213B
:1035400082F81FB091772377B7E79DF815000199AE
:103550005B0243EA40033A462046FFF7ABFE237F77
:10356000ABE74FF67F63ADF8143004F059FB05ABC1
:10357000022200218046206900F044FA04F050FB4A
:10358000A0EB08080746322004F042FB804573D9BF
:10359000237FE218FF2103335177DBB20221D57775
:1035A0009177237789E70DF10C0B2169584600F0DC
:1035B00021FA9BE80300002203F08AFC04F030FBB0
:1035C0008146012004F024FB814401E004F0EEFA7E
:1035D00004F026FB0146484604F01EFB0028F5D007
:1035E00004F0D4FA9BE80300012203F071FC04F01C
:1035F00017FB814604F0CCFA42F284330593ADF810
:103600001C50069520690A22012105AB00F0FAF949
:103610000DF115010DF11B00052211F8013F4FF0CE
:10362000080B5A40530012F0800F08BF520083F07D
:103630001D0314BFDAB2D2B2BBF1010BF2D1884242
:10364000EBD1D3439DF81D20DBB29A427FF471AFDA
:103650009DF81C30DB0641D59DF91630002B53DB5D
:10366000237FE218FF2103335177DBB2042182F874
:103670001FB09177237720E7C0228DF814208DF8B2
:10368000155005AB59460222206900F0BBF99DF8A0
:1036900014309DF8151083EA010282EA121282EAC0
:1036A000920282EA520212F001020CD1580621D590
:1036B000237FE1180333CA77FF20DBB20522487766
:1036C0008A772377F9E6237FE218FF2103335177C6
:1036D000DBB20321D57791772377EEE6237FE218DB
:1036E000FF2103335177DBB2052182F81FB09177B8
:1036F0002377E2E6890041EA83233A46019920468E
:10370000FFF7D8FD237FD8E640F2555004F080FA49
:10371000A7EB0807B944814510D9237FE218FF21A0
:1037200003335177DBB2012182F81FB09177237701
:10373000C3E600BF2C010020253201089DF81720A8
:103740009DF816309DF81A00520042EA4322237F6A
:10375000E11803338A77C0F34500DBB2120A4877D9
:10376000CA772377A9E600BF2DE9F04190F81080D1
:10377000B8F1030F84B0054631D8007800F0ECF8BA
:1037800007461C20FDF7BEFC02AE044669683046C1
:10379000012203F0DDFB96E8030084E803006E4697
:1037A000A9683046002203F047FB96E8030004F1C5
:1037B000080383E803000022E968304603F03CFB7D
:1037C00096E8030004F1100383E80300214638461D
:1037D00084F8188004B0BDE8F04100F0F1B8044B63
:1037E000044813221A6001F0EBF8FFF7E7FA00BF74
:1037F0003801002080900108027E00F1100393E858
:10380000030002F0020203F063BB00BF2DE9F04B9E
:1038100082B0541E07460091E4B2002A4DD003F155
:10382000FF392344019300F1100600F1080819F84C
:10383000015F4FF0080B00241AE096E8030003F044
:1038400035FB05F0800298E8030003F041FB96E8A1
:10385000030003F02BFB97E8030003F0A1FB6400D7
:10386000E4B26D000443BBF1010BEDB2E4B21DD034
:103870003B7EDB0705F08002DFD498E8030003F00D
:1038800027FB96E8030003F011FB97E8030003F021
:1038900087FB6400E4B2044396E8030003F006FBF0
:1038A0006D00BBF1010BEDB2E4B2E1D1009B0BB1B5
:1038B00089F80040019B4B45B9D102B0BDE8F08BBF
:1038C00070B5044682B00F4900781422FDF7DEFC83
:1038D000A66861686D46B6FA86F252090446284623
:1038E00003F0AAFA95E8030004F1080383E8030053
:1038F000002E94F9103014BF0922012213432374BF
:1039000002B070BDC1380108F8B50D490446007910
:10391000FDF79CFC267A0B4906F108020746207841
:10392000FDF7B4FC05460671E0682F60FEF722F84B
:1039300032460146681DBDE8F84005F01FB800BFDB
:10394000C138010809390108024900781422FDF73D
:103950009DBC00BFC13801080149FDF777BC00BF1D
:10396000C138010870B505461249007882B0FDF7EC
:103970006DFC2A7A032A044613D8037C13F0060F41
:103980000FD16E46EB686968304603F083FD96E818
:103990000300237C43F0040384E80300237402B093
:1039A00070BD054B054811221A6001F009F8FFF7B8
:1039B00005FA00BFC13801083801002080900108D5
:1039C00008B5037C13F0060F04D143F0020303741F
:1039D000016008BD034B044812221A6000F0F0FF9A
:1039E000FFF7ECF93801002080900108007C00F01E
:1039F000010070470831034603C983E803001846F5
:103A0000704700BF2DE9F043057C15F0060F83B029
:103A100004460E46174699461DD0A9070DD50068E5
:103A2000FFF7EAFEEA0735D420684B463A463146AE
:103A300003B0BDE8F043FFF7E9BED0E9000103F0B1
:103A40007BFDEB070AD494E803003B46CDF80090D9
:103A5000324603F083FD03B0BDE8F08304F10808AB
:103A6000C5F3C00298E8030003F032FACDF80090E5
:103A700094E803003B463246ED0803F06FFD98E8FA
:103A8000030085F0010202F0010203B0BDE8F0433B
:103A900003F01EBA04F1080898E80300C5F3C00259
:103AA00003F016FA20684B463A463146ED08FFF718
:103AB000ADFEE4E770B506780F4982B004463046A3
:103AC000FDF7C4FB0346D4E901501C46FDF752FF45
:103AD000EAB2034601212046CDE90023FFF792FF19
:103AE000064801F09FF9DDE90023314602B0BDE848
:103AF0007040FEF731B800BFC1380108949001084A
:103B000030B50A4983B004460078FDF79FFB22795F
:103B100001920546A068FDF72DFF019A034600219A
:103B2000284603B0BDE83040FFF76CBFC13801083C
:103B300010B582B0FF23154C8DF8073002E0027CEF
:103B4000D3071AD421460DF10700FDF7CBFB00285F
:103B5000F5D1FF230E4C8DF8073003E002790068A1
:103B6000FFF750FF21460DF10700FDF7BBFB0021D9
:103B7000431D0028F2D102B010BD82F008020830C7
:103B800003C8C2F3C00203F0A3F9DBE7C1380108A0
:103B90000939010838B500F1340504462846FDF717
:103BA000F7FA10B10020606138BD2846FDF706FB2A
:103BB000B0F90830426823821344E36094F844303B
:103BC000D90605460FD5A168438963610A44A260FE
:103BD0002A7BD20711D4226B134423632846FDF7B6
:103BE000B5FA012038BDA16943890A44A261A260E7
:103BF0005A0062612A7BD207EDD5216B04F12802BD
:103C00005B1A236392E8030003F046F9E6E700BF7E
:103C100070B500F12003044693E8030003F03CF97B
:103C200003F0FEFF6369E169013BDA07636100EBC2
:103C3000010503D5A5600126304670BD83B1E26859
:103C4000A069B4F9103010441344A061E360294620
:103C500003F0E2FF0028EDD1A369A3600126EBE7A2
:103C60002046FFF797FF06460028E5D0A0682946C2
:103C700003F0D2FF0028DFD0A3684FF47A705E1BF8
:103C800003F0C6FF4042B042D4DD044B04480E228C
:103C90001A6000F095FEFFF791F800BF3801002090
:103CA000C09001082DE9F04105463249007882B004
:103CB0004822FDF7EBFAEF68002F044627DD0422C7
:103CC0006E4680F844206968304603F0B5F896E8FF
:103CD000030004F1200383E803000022A9683046B2
:103CE00003F0AAF896E8030004F1280383E8030030
:103CF0004FF0404323632B69E361102104F134004A
:103D0000FDF766FA1C4B636002B0BDE8F0814FF02E
:103D100000086E4680F8448069684246304603F0E9
:103D20008BF896E8030004F1200383E80300424681
:103D3000A968304603F080F896E8030004F12803F0
:103D400083E803004FF0404323632B69E3611021B4
:103D500004F13400FDF73CFAE369002BD2D1002FC7
:103D6000D0D094F8443043F0100384F8443002B0CB
:103D7000BDE8F081A53C0108113C010838B50446B6
:103D8000A0F13C052846FEF767FF237A54F80C1C87
:103D9000002244F8342C44F8242C54F8282CD8065B
:103DA0004CBF891AA1EB520103F01403002943F020
:103DB0000803C8BF49420022237205F1280344F8D2
:103DC0000C1C44F8282C93E8030003F081F8227AB5
:103DD000D3060DD5083C03E0FDF7F0F9FDF7B6F981
:103DE0002046FDF7D5F903462046002BF4D038BD18
:103DF000203595E8030002F0040203F069F8E9E7D2
:103E000000F1200310B5044693E8030003F044F8E2
:103E10006369013B0AD0D4E90210B4F91020636150
:103E200001440244C4E90212012010BD2046BDE84D
:103E30001040FFF7AFBE00BF70B5284905460078B7
:103E4000FDF704FA0646FDF789F96B6843602B8994
:103E500043810446D3B3EA6802810023037303F06D
:103E600095FE96F8443003F00101C3F340029142FD
:103E700005D0227B42F0010283F0010322737269B4
:103E8000CAB91A0710D406F1340186F84430204626
:103E9000FDF786F93046FFF77DFE3046FEF7C4FF9A
:103EA000BDE8704003F074BE2046FDF74FF9BDE851
:103EB000704003F06DBE86F8443006F134012046B0
:103EC000FDF76EF9BDE8704003F062BE044B054893
:103ED0000F221A6000F074FDFEF770FFA53C010888
:103EE00038010020D890010838B50C490446007804
:103EF000FDF7ACF963680446002B14BF02250025CA
:103F000003F044FE94F8443023F002031D4384F888
:103F10004450BDE8384003F03BBE00BFA53C01085B
:103F200038B50F4905460078FDF790F904466D68ED
:103F300003F02CFE63695BB994F84430A56023F06C
:103F40000803A56184F84430BDE8384003F020BE82
:103F5000044B054810221A6000F032FDFEF72EFFD8
:103F6000A53C010838010020F090010870B50678E2
:103F70000F493046FDF76AF9054603F007FE95F84C
:103F800044302C6B6A69DB064CBFA41AA4EB5204C4
:103F900003F0FEFD002CB8BF6442064800F042FF6B
:103FA00004F140423146BDE87040FDF7D5BD00BF89
:103FB000A53C01081891010838B508490446007865
:103FC000FDF744F90546207900F07CFB05F13C0142
:103FD000034ABDE8384000F07BBB00BFA53C0108A8
:103FE0007D3D010830B583B0FF230B4D8DF80730C0
:103FF00006E0FDF7E9F8002104F13C00FFF7BEFE02
:1040000029460DF10700FDF76DF904463430002C08
:10401000EFD103B030BD00BFA53C010810B5044688
:104020000648FEF7A5FED4E90231627F42F00102A4
:104030000B446277A360012010BD00BF3001002057
:1040400010B5047A032C08D8084900782022FDF71F
:104050001DF9074B0477436010BD064B0648032249
:104060001A6000F0ADFCFEF7A9FE00BF4140010858
:104070001D400108380100203891010838B50D496C
:1040800004460078FDF7E2F80B4B054600221A7053
:10409000FEF7E2FD6368AB60A368EB6003B938BD6F
:1040A000E3682B6123696B612846BDE83840FEF761
:1040B000BBBE00BF414001082D0100202DE9F04B9F
:1040C0003D4886B0FEF75CFE002849D0FF233B4DFB
:1040D0003B4FDFF8F0808DF81330002629460DF1B4
:1040E0001300FDF7FFF80446002839D0637FDA0794
:1040F000F4D503F04BFD637FD4F8089023F001035F
:10410000637703F045FD237F032BE7D8DFE803F057
:1041100046392B02A0699DF813B0ADF8146005ABC9
:1041200002220121FFF76EFCBDF8144064BAA4B26C
:10413000384600F077FE23464A4659460096FDF77A
:104140000BFD6307CAD5404600F03AFCFEF762FE5D
:1041500029460DF11300FDF7C5F804460028C5D126
:1041600006B0BDE8F08B9DF813100391384600F0BF
:1041700059FE039900964A4644F22C03FDF7ECFCE5
:10418000ACE79DF813100391384600F04BFE0399FD
:1041900000964A460023FDF7DFFC9FE79DF81310C9
:1041A0000391384600F03EFE039900964A464FF0D0
:1041B000A073FDF7D1FC91E73001002041400108D8
:1041C00058910108949101082DE9F043044685B007
:1041D0001A4900783422FDF759F894F80890D4F879
:1041E0000480E768B9F1000202AE054618BF01225B
:1041F0004146304602F0ACFE96E8030005F1140398
:104200006E4683E8030001223946304602F014FE70
:1042100096E8030005F10C0383E80300B9F1000FF1
:1042200008BF012322692A6218BF1123B84508BFBD
:1042300043F020032B7705B0BDE8F083C9410108A6
:1042400038B5044600F10C0393E8030002F024FEA5
:10425000637F94F81CC094F81FE0656A0133DBB2F9
:104260008CF0010C734584F81CC00CF0010C29D2B1
:1042700004EBD30203F0070192F828200A4102F070
:1042800001029445294607D016E092F82820024101
:1042900002F0010294450FD10133DBB2734504EB08
:1042A000D30203F007002944EFD3A368064A0B4466
:1042B000C4E90123012038BDA26863770A44A260E3
:1042C000012038BD2946F0E73543010800F10C0311
:1042D00010B5044693E8030002F0DEFD03F0A0FCF5
:1042E000637F227F0133DBB282F00102012B227750
:1042F000637719D0042B05D8A268236A1344A360FE
:10430000012010BDA368626A1A44801A811C226AC7
:1043100048BF411D02EBA1011844054A61620844EF
:10432000C4E90120012010BDA268801A6062E4E7A0
:104330004142010810B5837F0446B3B1027F930662
:104340000AD4A368606A164A002103EB80036177F0
:10435000C4E90123012010BD00F1140393E8030018
:1043600002F0100202F0C0FDEBE7037F13F0200F14
:1043700000F10C0393E803004FF001020CD102F0AE
:10438000A7FD237F074803F0300343F00903237799
:10439000FEF7EEFC002010BD02F016FDF1E700BFB5
:1043A0002D4401083401002000F1140310B5044627
:1043B00093E8030002F0F4FD637F04EBD30C0122C9
:1043C00003F0070102FA01F19CF8282078B10A43B2
:1043D000D2B28CF82820A27F0133DBB29A4209D9ED
:1043E000A268616A63770A44A260012010BD22EAD4
:1043F0000102EEE7237F13F0200F04F10C0393E892
:1044000003004FF001020CD102F062FD237F064849
:1044100003F0300343F009032377FEF7A9FC0020E3
:1044200010BD02F0D1FCF1E73401002000F11403CB
:1044300010B5044693E8030002F0B2FD237F68B193
:1044400043F004032377637F5A1C3F2B62770FD816
:10445000A368626A13440120A36010BD5B07F2D514
:104460006077114B63602046BDE81040FFF79CBFAA
:10447000237F0022A27713F0200F04F10C0393E8AE
:1044800003004FF001020CD002F09EFC237F07488E
:1044900003F0300343F009032377FEF769FC0020A3
:1044A00010BD02F015FDF1E7A94301083401002019
:1044B000F8B5264905460078FCF7C8FE037F13F0DF
:1044C0000206044600D0F8BDA8682F79FDF752FA1D
:1044D0000A2F2D7B014630D80A2D2ED83A4604F1FA
:1044E000280004F04BFA237F667703F0310343F092
:1044F0000203ED002377FB00E377A5772FB194F853
:10450000283003F03F032A2B14D0226A104B62623A
:10451000636003F03BFB03F083FB0546C82003F018
:1045200077FB2844A0602046FEF77EFCBDE8F840FB
:1045300003F02EBB074B6360EBE7074B07480222F3
:104540001A6000F03DFAFEF739FC00BFC9410108CE
:1045500041420108CD42010838010020B091010814
:1045600070B5184882B0FEF70BFC48B3FF23164D18
:10457000164E8DF8073029460DF10700FCF7B2FE04
:104580000446E8B1237F1B07F5D503F0FFFA237F2C
:1045900023F00803237703F0FBFA304600F042FCD7
:1045A000A27F9DF8071004F12803D208FDF7D4FA82
:1045B00029460DF10700FCF795FE04460028E1D1DD
:1045C00002B070BD34010020C9410108C891010842
:1045D00030B583B0FF23114D8DF8073008E003C9D3
:1045E00002F0F2FB237F03F0300343F00103237753
:1045F00029460DF10700FCF775FE00F10C010122C0
:1046000004460B4640B1207F8006E8D493E80300BF
:10461000012202F05DFCE5E703B030BDC9410108AD
:1046200010B50446074894F8203043F0040384F89A
:104630002030FEF79DFBA368A26913440120A3600C
:1046400010BD00BF3C01002008B5242204490078B9
:10465000FCF71CFE034A044B4260036108BD00BF27
:104660004946010821460108B546010870B590F891
:104670002030DA0704460E4619D5C06984F82110A7
:1046800023F0050343F0040384F8203050B10025E3
:10469000D0E900233146E261C0E900559847E0695E
:1046A0000028F5D1BDE870400148FEF761BB70BD40
:1046B0003C01002008B503460C38997DFFF7D6FF72
:1046C000002008BD0149FCF7C1BD00BF49460108F3
:1046D00070B50C460546164603F05CFA636843B9AC
:1046E0003EB1EB69C4E90036EC61BDE8704003F00F
:1046F00055BA044B044801221A6000F061F9FEF734
:104700005DFB00BF38010020EC91010838B51A4963
:1047100005460078FCF79AFD044603F037FA204678
:10472000FEF79AFA04F10C00FEF796FAE36933B14A
:1047300000211A461B68C2E90011002BF9D10022A2
:104740000123238484F822206B68A360AB68C4E94A
:10475000063233B9EB6884F82230BDE8384003F004
:1047600017BA2046FEF760FBEB6884F82230BDE8FC
:10477000384003F00DBA00BF4946010830B5104972
:1047800083B005460078FCF761FD044603F0FEF9AE
:1047900094F82030DB0704D403B0BDE8304003F0C8
:1047A000F7B904F10C000190FEF756FA6B68019816
:1047B0006361FEF739FB03B0BDE8304003F0E8B9B0
:1047C0004946010870B50678134984B0054630465D
:1047D000FCF73CFD044603F0D9F929792046FFF7A0
:1047E00045FF2046FEF738FA002504F10C00FEF7DD
:1047F00033FA94F8213084F82050039303F0C8F979
:10480000064800F00FFB039B00952A463146FDF752
:10481000A3F904B070BD00BF494601081492010815
:104820002DE9F0411E4886B0FEF7AAFAA0B3FF2397
:104830001C4E1D4F8DF8173031460DF11700FCF757
:1048400051FD044640B394F820305B07F4D503F0E3
:10485000E7F9054603F09AF994F8208094F821309E
:10486000039328F0040284F8202003F091F99DF8C6
:1048700017100291384600F0D5FA039B0299009573
:1048800008F00102FDF768F931460DF11700FCF759
:1048900029FD04460028D6D106B0BDE8F08100BF4E
:1048A0003C010020494601081492010870B5144EDD
:1048B00082B0FF2331460DF107008DF80730FCF779
:1048C00011FD00240546C8B1FEF7C6F905F10C003C
:1048D000FEF7C2F9EB692BB11A461B68C2E9004426
:1048E000002BF9D1EC612C8485F8224031460DF182
:1048F0000700FCF7F7FC05460028E5D102B070BDC3
:104900004946010808B5FCF7F1FBFDF797FE02F0F8
:104910004FFE03F0B9F9BDE8084003F02DB800BF21
:1049200008B5FDF72FF9FCF769FCFDF743FDFFF72C
:1049300059FBFFF7BBFFFCF7A3FBFFF7F9F8FEF706
:104940001FF9FFF745FE03F033F9BDE8084003F017
:1049500099B900BF08B503F029F9FFF761FF03F02B
:1049600025F9FCF73FFB03F021F9FCF7C7FF03F043
:104970001DF9FFF7F5FD03F019F9FEF70FF803F045
:1049800015F9FFF79BFB03F011F9FEF79BFB03F012
:104990000DF9FEF743FD03F009F900F043FF03F0C2
:1049A00005F902F0FDFD03F001F903F0F5F903F05C
:1049B000FDF803F03BF8BDE8084003F0F7B800BF8E
:1049C00010B5C9490446FCF761FA002800F062817D
:1049D000C6492046FCF75AFA002800F05981C4491C
:1049E0002046FCF753FA002800F05881C1492046C0
:1049F000FCF74CFA002800F04F81BF492046FCF735
:104A000045FA002800F04C81BC492046FCF73EFAEC
:104A1000002800F04981BA492046FCF737FA0028FF
:104A200000F04481B7492046FCF730FA002800F036
:104A30003981B5492046FCF729FA002800F0388171
:104A4000B2492046FCF722FA002800F03381B04931
:104A50002046FCF71BFA002800F02E81AD492046C5
:104A6000FCF714FA002800F02981AB492046FCF736
:104A70000DFA002800F02481A8492046FCF706FA28
:104A8000002800F01F81A6492046FCF7FFF9002806
:104A900000F01A81A3492046FCF7F8F9002800F03D
:104AA0001581A1492046FCF7F1F9002800F010819A
:104AB0009E492046FCF7EAF9002800F00B819C494A
:104AC0002046FCF7E3F9002800F0068199492046CA
:104AD000FCF7DCF9002800F0018197492046FCF73B
:104AE000D5F9002800F0FE8094492046FCF7CEF965
:104AF000002800F0F58092492046FCF7C7F900280D
:104B000000F08E818F492046FCF7C0F9002800F0A4
:104B100085818D492046FCF7B9F9002800F07C8199
:104B20008A492046FCF7B2F9002800F073818849D1
:104B30002046FCF7ABF9002800F06A818549204641
:104B4000FCF7A4F9002800F0618183492046FCF7B6
:104B50009DF9002800F0588180492046FCF796F91D
:104B6000002800F04F817E492046FCF78FF900288D
:104B700000F046817B492046FCF788F9002800F0C8
:104B80003D8179492046FCF781F9002800F0348105
:104B900076492046FCF77AF9002800F02B81744909
:104BA0002046FCF773F9002800F022817149204665
:104BB000FCF76CF9002800F019816F492046FCF7DA
:104BC00065F9002800F010816C492046FCF75EF979
:104BD000002800F007816A492046FCF757F90028B1
:104BE00000F0FE8067492046FCF750F9002800F0ED
:104BF000F58065492046FCF749F9002800F0EC8073
:104C000062492046FCF742F9002800F0E380604941
:104C10002046FCF73BF9002800F0DA805D49204689
:104C2000FCF734F9002800F0D1805B492046FCF7FE
:104C30002DF9002800F0C88058492046FCF726F9D5
:104C4000002800F0BF8056492046FCF71FF90028D5
:104C500000F0B68053492046FCF718F9002800F010
:104C6000AD8051492046FCF711F9002800F0A480DE
:104C70004E492046FCF70AF9002800F09B804C4979
:104C80002046FCF703F9002814BFFF20342010BD94
:104C9000032010BD022010BD052010BD042010BD52
:104CA000062010BD092010BD072010BD082010BD32
:104CB0000A2010BD0B2010BD0C2010BD0D2010BD12
:104CC0000E2010BD0F2010BD102010BD112010BDF2
:104CD000122010BD132010BD142010BD152010BDD2
:104CE000172010BD162010BDA08F0108C48F010829
:104CF000888F0108D88C0108C08C0108A88C010895
:104D0000748B010854920108B08A01089C8A01083A
:104D1000888A0108048B0108448A0108748A010802
:104D2000188B0108608A0108EC8D01087C8D010850
:104D3000B48D0108508D0108F0900108D890010849
:104D4000C0900108EC910108008A010880900108D8
:104D5000448E0108088F0108388F0108588C01081B
:104D6000308C01081C8C0108B0910108888E010864
:104D70006C8E010880920108949101083891010815
:104D8000249001080890010890920108A892010857
:104D9000BC920108D0920108F09201080893010822
:104DA0001493010828930108389301084C930108D3
:104DB00078930108332010BD322010BD312010BD82
:104DC000302010BD2F2010BD2E2010BD2D2010BD75
:104DD0002C2010BD2B2010BD2A2010BD292010BD75
:104DE000282010BD272010BD262010BD252010BD75
:104DF000242010BD232010BD222010BD212010BD75
:104E0000202010BD1F2010BD1E2010BD1D2010BD74
:104E10001C2010BD1B2010BD1A2010BD192010BD74
:104E2000182010BD10B576490446FCF72FF800286D
:104E300000F0B18073492046FCF728F8002800F004
:104E4000A88071492046FCF721F8002800F0A780CF
:104E50006E492046FCF71AF8002800F09E806C4945
:104E60002046FCF713F8002800F09B806949204693
:104E7000FCF70CF8002800F0988067492046FCF702
:104E800005F8002800F0938064492046FBF7FEFFF8
:104E9000002800F0888062492046FBF7F7FF0028D1
:104EA00000F087805F492046FBF7F0FF002800F004
:104EB00082805D492046FBF7E9FF00287DD05B49F1
:104EC0002046FBF7E3FF002879D059492046FBF73D
:104ED000DDFF002875D057492046FBF7D7FF002893
:104EE00071D055492046FBF7D1FF00286DD05349BA
:104EF0002046FBF7CBFF002869D051492046FBF73D
:104F0000C5FF002865D04F492046FBF7BFFF0028AA
:104F100061D04D492046FBF7B9FF00285DD04B49D1
:104F20002046FBF7B3FF002859D049492046FBF73C
:104F3000ADFF002857D047492046FBF7A7FF0028C0
:104F40004FD045492046FBF7A1FF002855D04349E3
:104F50002046FBF79BFF00284DD041492046FBF738
:104F600095FF002845D03F492046FBF78FFF0028DA
:104F70003DD03D492046FBF789FF002835D03B490D
:104F80002046FBF783FF3A4B00280CBF1846002051
:104F900010BD384810BD384810BD384810BD3848DD
:104FA00010BD384810BD384810BD384810BD3848CD
:104FB00010BD384810BD384810BD384810BD3848BD
:104FC00010BD384810BD384810BD384810BD3848AD
:104FD00010BD384810BD384810BD384810BD38489D
:104FE00010BD384810BD384810BD384810BD38488D
:104FF00010BD384810BD384810BD384810BD00BF3E
:10500000D48F0108648F0108E08F0108D48B010858
:10501000FC8B0108AC8B0108C08B0108848B010854
:10502000548B01083C8B01082C8B0108C88A0108AD
:10503000048D0108F08C010818910108148D0108F5
:1050400014920108148A0108949001081C8E01082A
:105050007C8C0108C8910108A88E0108CC8E01083B
:1050600058910108449001088C930108F4930108B9
:105070004C9401085C940108549401086C94010854
:105080006494010874940108249401087C94010834
:10509000849401088C940108949401089C9401085C
:1050A000A4940108AC940108B4940108BC940108CC
:1050B000C4940108CC940108D4940108DC9401083C
:1050C000E4940108F4940108EC9401084494010864
:1050D0003C940108349401082C940108FC940108C4
:1050E00030B50C4C83B00121082003F047F84FF491
:1050F000807541F2030301A92046ADF80630ADF8F2
:10510000045002F0A1FE2946204602F005FF03B03C
:1051100030BD00BF000C01404348444AD0F888101D
:10512000434B41F4700110B4C0F88810116841F08D
:1051300001011160546823405360136823F08473A5
:1051400023F480331360136823F4802313605368BF
:1051500023F00F6300204FF41F0123F470235360EA
:10516000D06210639160D3693249334843F0805371
:10517000D361CB6843F00103CB60D36923F0805344
:10518000D361016841F090010160116841F4803100
:105190004FF6FF73116001E0013B02D011688803F4
:1051A000FAD5224B1A68910339D5234A116821F0A8
:1051B00003011160116841F0040111605A685A60DE
:1051C0005A6842F400525A605A6842F4A0625A6027
:1051D0005A6822F0036222F470225A605A6842F040
:1051E000016242F470225A601A6842F080721A60BA
:1051F0001A689201FCD559680C4A21F003015960E4
:10520000596841F002015960536803F00C03082B00
:10521000FAD1054B094A5DF8044B9A607047084B78
:10522000084A1A60F5E700BF00ED00E000100240F8
:1052300000C0FFF80070004000200240000001089C
:105240003400002000127A00704700BFFEE700BF64
:10525000FEE700BFFEE700BFFEE700BF704700BFEC
:10526000704700BF70B500F108030646002293E8BE
:10527000030001F0A9FD756A02F0D2FC04464FF468
:105280007A7005FB00F002F0C3FC2546154CA4FB28
:10529000003405EB944402F0C3FC8442FBD806F1D1
:1052A000100393E80300012201F01EFE756A02F06C
:1052B000B7FC04464FF47A7005FB00F002F0A8FC3E
:1052C0002546084CA4FB003405EB944402F0A8FCEE
:1052D0008442FBD8183696E803000122BDE87040EE
:1052E00001F002BE83DE1B432DE9F04B84B000F1D8
:1052F00018030827029300F110030193DFF824B18B
:10530000C31906460D4603934FF47A792B067DD4D4
:10531000039B002293E8030001F056FDD6F8248099
:1053200002F07EFC044609FB08F002F071FC6D00FF
:10533000ABFB0023EDB204EB934402F071FC84421A
:10534000FBD8019B012293E8030001F0CDFDD6F8C4
:10535000248002F065FC044609FB08F002F058FCCA
:10536000ABFB002304EB934402F05AFC8442FBD8CD
:1053700096E80300002201F027FD013FC6D1029B01
:10538000012293E8030001F0AFFD756A02F048FCCA
:1053900004464FF47A7005FB00F002F039FC214B13
:1053A000A3FB002304EB934402F03AFC8442FBD8B5
:1053B000019B012293E8030001F096FD029B93E814
:1053C000030001F0EDFD776A054602F029FC044672
:1053D0004FF47A7007FB00F002F01AFC114BA3FBAC
:1053E000002304EB934402F01BFC8442FBD896E8B4
:1053F0000300002201F0E8FC029B012293E8030075
:1054000001F072FD4DB904B0BDE8F08B029B0122A2
:1054100093E8030001F068FD80E70348FFF7D0FA46
:10542000FDF7CCFC83DE1B4380920108F8B5456A8A
:105430000F46064602F0F4FB04464FF47A7005FB73
:1054400000F002F0E5FB2546284CA4FB003405EBF8
:10545000944402F0E5FB8442FBD806F1180393E87C
:105460000300012201F040FD06F1100393E8030060
:10547000012201F039FD756A02F0D2FB04464FF4B7
:105480007A7005FB00F002F0C3FB2546174CA4FB25
:10549000003405EB944402F0C3FB8442FBD806F1D0
:1054A000080393E80300002201F08EFC756A02F005
:1054B000B7FB04464FF47A7005FB00F002F0A8FB3E
:1054C00025460A4CA4FB003405EB944402F0A8FBEB
:1054D0008442FBD896E80300002201F075FC3946AF
:1054E0003046BDE8F840FFF7FFBE00BF83DE1B4338
:1054F0002DE9F041054684B00078FCF799FF80461D
:105500002C20FBF7FFFD2B695B0080F8203041F277
:1055100088321C4B426202AF6A6969681A600446AD
:105520000122384601F014FD97E8030004F110034E
:1055300083E803006E4669683046012201F07CFC76
:1055400096E8030084E803000122A968384601F0C8
:10555000FFFC97E8030004F1180383E8030001222D
:10556000A968304601F068FC96E8030004F10803DE
:1055700083E803002146404604B0BDE8F041FCF753
:105580007DBF00BF4001002070B50D4690F820108F
:1055900006461446FFF74AFF3DB1254414F8011BA7
:1055A0003046FFF7A1FEAC42F8D13046BDE870406E
:1055B000FFF758BE2DE9F04B84B00D4690F820104F
:1055C0001F460C9B03930646144641F00108002D2C
:1055D00040F0AA8041463046FFF728FF7B1EDBB231
:1055E0000293002F00F0928006F118030093DFF879
:1055F000509106F110030193009B012293E80300F0
:1056000001F072FC082700254FF47A7BD6F824803D
:1056100002F006FB04460BFB08F002F0F9FAA9FBC6
:10562000002304EB934402F0FBFA8442FBD8019B75
:10563000012293E8030001F057FCD6F8248002F021
:10564000EFFA04460BFB08F002F0E2FAA9FB002394
:1056500004EB934402F0E4FA8442FBD8009B93E805
:10566000030001F09DFC6D00EDB20543002296E8B9
:10567000030001F0A9FB013FEDB2C7D1009C01225C
:1056800094E8030001F030FC029B002B44D194E825
:105690000300012201F028FC776A02F0C1FA0446F7
:1056A0004FF47A7007FB00F002F0B2FAA9FB002376
:1056B00004EB934702F0B4FA8742FBD8019B012226
:1056C00093E8030001F010FC776A02F0A9FA04469F
:1056D0004FF47A7007FB00F002F09AFAA9FB00235E
:1056E00004EB934702F09CFA8742FBD8002296E82D
:1056F000030001F069FB029B039A013BDBB202F855
:10570000015BFF2B029303927FF476AF304604B027
:10571000BDE8F04BFFF7A6BD06F1080393E80300D0
:105720003A4601F051FBB7E7FFF780FE254414F835
:10573000011B3046FFF7D8FDA542F8D14AE700BF6C
:1057400083DE1B4338B50749054650220078FBF736
:105750009DFD0446044B28796360FEF7FDF8206147
:1057600038BD00BF455701086D57010808B503460D
:1057700004481A7D42F001021A75FDF7F9FA00207B
:1057800008BD00BF4401002038B510490546007827
:10579000FBF75CFD0446FDF75FFA002323756B6899
:1057A00003B938BDE36004F1160000F0BFF802F061
:1057B000EDF902F035FAE368024613442046A3608F
:1057C000FDF732FBBDE8384002F0E2B94557010869
:1057D00070B5134984B004460078FBF737FDAF235A
:1057E0000546ADF80C3002F01BFA03AB0646022268
:1057F00028690121FEF706F902F012FA9DF80DC0A2
:1058000021780CF01F0C0CEB4C0C4FEA4C04831B62
:105810000094324605F1160000F0A6F804B070BD01
:10582000455701082DE9F0433E4885B0FDF7A8FA39
:1058300080B1FF233C4D3B4F8DF8033002E0237DC8
:10584000DB070AD429460DF10300FBF74BFD0446A4
:105850000028F4D105B0BDE8F083AF22002394F80E
:105860001A90ADF80420A822029320698DF80E301A
:10587000ADF80C308DF8082002AB0722012109F1A8
:105880001B069DF80380A144FEF7BCF801AB022281
:1058900020690121FEF7B6F826449DF8093089F801
:1058A0001B309DF80A309DF8052073709DF80B3071
:1058B000B3709DF80C30F3709DF80D3033719DF886
:1058C0000E307371A37E0633DBB22D2BA37602F06C
:1058D0003F0902F040061BD8384616B1238B01332E
:1058E0002383B9F1000F02D0FDF742FAAAE7237D26
:1058F00023F00103237502F049F902F091F9E368FE
:105900000344A3602046FDF78FFA02F041F999E7BE
:1059100004F11600414600F00FF83846002EE0D0A2
:10592000DCE700BF44010020455701080023038045
:1059300043800371704700BF10B584B00446094826
:105940000391FFF76FFA2346039933F8052B009371
:105950002379FCF701F92388002201332271238087
:1059600004B010BDF493010870B5044688B00A482D
:105970000593CDE90621FFF755FA25790C9E079985
:10598000354401956588029524880094DDE9053247
:10599000FCF7E2F808B070BD8C93010810B5174C05
:1059A0000FCC8CB00DF1040CACE80F000FCCACE8C0
:1059B0000F0094E807000DF1040E8CE807004FF08B
:1059C000000C5EF8040F6346724652F8041C8142D4
:1059D00012D9013B42F80419591CF6D100230CAA34
:1059E00002EB83030CF1010CBCF10A0F43F82C0C01
:1059F000E7D106980CB010BD0133F0E77401002028
:105A000010B4094A094C0A480A4900234FF0010C16
:105A100082F800C02360084A084C03700B702370A2
:105A20005DF8044B136070473C0000205C010020CF
:105A3000B2010020A8010020B40100205101002083
:105A400070B50121204D8CB0084602F08BFB284632
:105A500002F044FE01A802F021FF1C4B01931C4BF5
:105A600002934FF4807307934FF4006220230124C4
:105A70000026CDE9082301A94FF4005328460A93D4
:105A8000CDE90364CDE905660B9602F0E7FE2A46F0
:105A900010492346182002F033FF0F2368468DF883
:105AA00000308DF801408DF802608DF8034002F05F
:105AB0009FFB22462846022102F00AFF2146284683
:105AC00002F0FAFE0CB070BD5800024024340140D0
:105AD0004C0100200000024010B50E494FF4003088
