:020000040801F1
:10000000000002201D7F0108255301082953010823
:100010002D53010831530108355301080000000039
:10002000000000000000000000000000395301083B
:100030003D53010800000000657F0108017E0108B2
:10004000657F0108657F0108657F0108657F0108FC
:10005000657F0108657F0108657F0108657F0108EC
:10006000657F0108657F0108657F0108657F0108DC
:10007000E566010811670108657F0108255C010834
:10008000657F0108657F0108657F0108657F0108BC
:10009000657F0108657F0108657F0108657F0108AC
:1000A000657F0108657F0108657F0108657F01089C
:1000B000657F0108657F0108F9670108657F010810
:1000C000657F0108657F0108657F0108657F01087C
:1000D000657F01083D7A0108657F010835670108E1
:1000E000657F0108657F0108657F0108657F01085C
:1000F000657F0108657F0108657F0108657F01084C
:10010000657F0108657F0108657F0108657F01083B
:10011000657F0108657F0108657F0108657F01082B
:10012000657F0108657F0108657F0108657F01081B
:10013000657F0108657F0108657F0108657F01080B
:10014000657F0108657F0108657F0108657F0108FB
:10015000657F0108657F0108657F0108657F0108EB
:10016000657F0108657F0108657F0108657F0108DB
:10017000657F0108657F0108657F0108657F0108CB
:08018000657F0108657F01089D
:1001900010B5054C237833B9044B13B10448AFF3C1
:1001A00000800123237010BD4C00002000000000DF
:1001B000FC8A010808B5034B1BB103490348AFF3A0
:1001C000008008BD0000000050000020FC8A0108EB
:1001D00081F0004102E000BF83F0004330B54FEAF8
:1001E00041044FEA430594EA050F08BF90EA020F65
:1001F0001FBF54EA000C55EA020C7FEA645C7FEAF8
:10020000655C00F0E2804FEA5454D4EB5555B8BF1A
:100210006D420CDD2C4480EA020281EA030382EA8B
:10022000000083EA010180EA020281EA0303362D1D
:1002300088BF30BD11F0004F4FEA01314FF4801CF0
:100240004CEA113102D0404261EB410113F0004F02
:100250004FEA03334CEA133302D0524263EB4303B9
:1002600094EA050F00F0A780A4F10104D5F1200E57
:100270000DDB02FA0EFC22FA05F2801841F10001B2
:1002800003FA0EF2801843FA05F359410EE0A5F186
:1002900020050EF1200E012A03FA0EFC28BF4CF0B7
:1002A000020C43FA05F3C01851EBE37101F000456D
:1002B00007D54FF0000EDCF1000C7EEB00006EEB7A
:1002C0000101B1F5801F1BD3B1F5001F0CD3490804
:1002D0005FEA30004FEA3C0C04F101044FEA44525B
:1002E00012F5800F80F09A80BCF1004F08BF5FEAE2
:1002F000500C50F1000041EB045141EA050130BDC2
:100300005FEA4C0C404141EB0101013C28BFB1F5D3
:10031000801FE9D291F0000F04BF01460020B1FA1E
:1003200081F308BF2033A3F10B03B3F120020CDAF1
:100330000C3208DD02F1140CC2F10C0201FA0CF0CF
:1003400021FA02F10CE002F11402D8BFC2F1200C34
:1003500001FA02F120FA0CFCDCBF41EA0C019040EA
:10036000E41AA2BF01EB0451294330BD6FEA040433
:100370001F3C1CDA0C340EDC04F11404C4F120021E
:1003800020FA04F001FA02F340EA030021FA04F330
:1003900045EA030130BDC4F10C04C4F1200220FA87
:1003A00002F001FA04F340EA0300294630BD21FAC5
:1003B00004F0294630BD94F0000F83F4801306BF8B
:1003C00081F480110134013D4EE77FEA645C18BF7F
:1003D0007FEA655C29D094EA050F08BF90EA020F16
:1003E00005D054EA000C04BF1946104630BD91EA0E
:1003F000030F1EBF0021002030BD5FEA545C05D111
:100400004000494128BF41F0004130BD14F580044F
:100410003CBF01F5801130BD01F0004545F0FE41C3
:1004200041F470014FF0000030BD7FEA645C1ABFF8
:10043000194610467FEA655C1CBF0B46024650EA2F
:10044000013406BF52EA033591EA030F41F400215B
:1004500030BD00BF90F0000F04BF0021704730B5E1
:100460004FF4806404F132044FF000054FF00001B6
:1004700050E700BF90F0000F04BF0021704730B577
:100480004FF4806404F1320410F0004548BF40424C
:100490004FF000013EE700BF42004FEAE2014FEAA1
:1004A00031014FEA02701FBF12F07F4393F07F4F7C
:1004B00081F06051704732F07F4208BF704793F07F
:1004C0007F4F04BF41F40021704730B54FF4607492
:1004D00001F0004521F000411CE700BF50EA010295
:1004E00008BF704730B54FF000050AE050EA01023E
:1004F00008BF704730B511F0004502D5404261EBAE
:1005000041014FF4806404F132045FEA915C3FF4EE
:10051000D8AE4FF003025FEADC0C18BF03325FEA8B
:10052000DC0C18BF033202EBDC02C2F1200300FA3C
:1005300003FC20FA02F001FA03FE40EA0E0021FA61
:1005400002F11444BDE600BF70B54FF0FF0C4CF44F
:10055000E06C1CEA11541DBF1CEA135594EA0C0F01
:1005600095EA0C0F00F0DEF82C4481EA030621EA3C
:100570004C5123EA4C5350EA013518BF52EA033577
:1005800041F4801143F4801338D0A0FB02CE4FF029
:100590000005E1FB02E506F00042E0FB03E54FF059
:1005A0000006E1FB03569CF0000F18BF4EF0010E51
:1005B000A4F1FF04B6F5007F64F5407404D25FEA4D
:1005C0004E0E6D4146EB060642EAC62141EA555100
:1005D0004FEAC52040EA5E504FEACE2EB4F1FD0C42
:1005E00088BFBCF5E06F1ED8BEF1004F08BF5FEAC0
:1005F000500E50F1000041EB045170BD06F0004672
:1006000046EA010140EA020081EA0301B4EB5C041E
:10061000C2BFD4EB0C0541EA045170BD41F4801116
:100620004FF0000E013C00F3AB8014F1360FDEBF3B
:10063000002001F0004170BDC4F10004203C35DA17
:100640000C341BDC04F11404C4F1200500FA05F39A
:1006500020FA04F001FA05F240EA020001F000423B
:1006600021F0004110EBD37021FA04F642EB0601B1
:100670005EEA430E08BF20EAD37070BDC4F10C04DB
:10068000C4F1200500FA04F320FA05F001FA04F29F
:1006900040EA020001F0004110EBD37041F100018B
:1006A0005EEA430E08BF20EAD37070BDC4F1200596
:1006B00000FA05F24EEA020E20FA04F301FA05F2FE
:1006C00043EA020321FA04F001F0004121FA04F2A6
:1006D00020EA020000EBD3705EEA430E08BF20EA76
:1006E000D37070BD94F0000F0FD101F000464000B0
:1006F00041EB010111F4801F08BF013CF7D041EA32
:10070000060195F0000F18BF704703F00046520035
:1007100043EB030313F4801F08BF013DF7D043EA06
:100720000603704794EA0C0F0CEA135518BF95EABC
:100730000C0F0CD050EA410618BF52EA4306D1D143
:1007400081EA030101F000414FF0000070BD50EA62
:10075000410606BF1046194652EA430619D094EAEC
:100760000C0F02D150EA013613D195EA0C0F05D1D6
:1007700052EA03361CBF104619460AD181EA03012A
:1007800001F0004141F0FE4141F470014FF00000E2
:1007900070BD41F0FE4141F4780170BD70B54FF07D
:1007A000FF0C4CF4E06C1CEA11541DBF1CEA1355FD
:1007B00094EA0C0F95EA0C0F00F0A7F8A4EB0504DF
:1007C00081EA030E52EA03354FEA013100F08880D6
:1007D0004FEA03334FF0805545EA131343EA12639F
:1007E0004FEA022245EA111545EA10654FEA002654
:1007F0000EF000419D4208BF964244F1FD0404F50D
:10080000407402D25B084FEA3202B61A65EB030568
:100810005B084FEA32024FF480104FF4002CB6EB25
:10082000020E75EB030E22BFB61A754640EA0C00A5
:100830005B084FEA3202B6EB020E75EB030E22BFE5
:10084000B61A754640EA5C005B084FEA3202B6EB26
:10085000020E75EB030E22BFB61A754640EA9C00E5
:100860005B084FEA3202B6EB020E75EB030E22BFB5
:10087000B61A754640EADC0055EA060E18D04FEA73
:10088000051545EA16754FEA06164FEAC30343EA13
:1008900052734FEAC2025FEA1C1CC0D111F4801FE0
:1008A0000BD141EA00014FF000004FF0004CB6E7D9
:1008B00011F4801F04BF01430020B4F1FD0C88BF78
:1008C000BCF5E06F3FF6AFAEB5EB030C04BFB6EB83
:1008D000020C5FEA500C50F1000041EB045170BD76
:1008E0000EF0004E4EEA113114EB5C04C2BFD4EBA3
:1008F0000C0541EA045170BD41F480114FF0000E27
:10090000013C90E645EA060E8DE60CEA135594EAA2
:100910000C0F08BF95EA0C0F3FF43BAF94EA0C0FA5
:100920000AD150EA01347FF434AF95EA0C0F7FF41A
:1009300025AF104619462CE795EA0C0F06D152EA6E
:1009400003353FF4FDAE1046194622E750EA410652
:1009500018BF52EA43067FF4C5AE50EA41047FF463
:100960000DAF52EA43057FF4EBAE12E74FF0FF3CC8
:1009700006E000BF4FF0010C02E000BF4FF0010C99
:100980004DF804CD4FEA410C7FEA6C5C4FEA430C12
:1009900018BF7FEA6C5C1BD001B050EA410C0CBF61
:1009A00052EA430C91EA030F02BF90EA020F0020C3
:1009B000704710F1000F91EA030F58BF994208BF2A
:1009C00090422CBFD8176FEAE37040F001007047E7
:1009D0004FEA410C7FEA6C5C02D150EA013C07D13E
:1009E0004FEA430C7FEA6C5CD6D152EA033CD3D089
:1009F0005DF8040B704700BF8446104662468C4683
:100A00001946634600E000BF01B5FFF7B7FF0028B5
:100A100048BF10F1000F01BD4DF808EDFFF7F4FFDE
:100A20000CBF012000205DF808FB00BF4DF808ED69
:100A3000FFF7EAFF34BF012000205DF808FB00BF8C
:100A40004DF808EDFFF7E0FF94BF012000205DF8AE
:100A500008FB00BF4DF808EDFFF7CEFF94BF012063
:100A600000205DF808FB00BF4DF808EDFFF7C4FF5C
:100A700034BF012000205DF808FB00BF4FEA4102AF
:100A800012F5001215D211D56FF47873B3EB6252E0
:100A900012D94FEAC12343F0004343EA505311F007
:100AA000004F23FA02F018BF404270474FF0000099
:100AB000704750EA013005D111F0004008BF6FF0D7
:100AC000004070474FF00000704700BF53B94AB96B
:100AD000002908BF00281CBF4FF0FF314FF0FF3046
:100AE00000F074B9ADF1080C6DE904CE00F006F821
:100AF000DDF804E0DDE9022304B070472DE9F0479A
:100B0000089D04468E46002B4DD18A42944669D9F1
:100B1000B2FA82F252B101FA02F3C2F1200120FAD4
:100B200001F10CFA02FC41EA030E94404FEA1C4822
:100B3000210CBEFBF8F61FFA8CF708FB16E341EA1E
:100B4000034306FB07F199420AD91CEB030306F1A4
:100B5000FF3080F01F81994240F21C81023E6344C5
:100B60005B1AA4B2B3FBF8F008FB103344EA034469
:100B700000FB07F7A7420AD91CEB040400F1FF337E
:100B800080F00A81A74240F207816444023840EABB
:100B90000640E41B00261DB1D4400023C5E90043F4
:100BA0003146BDE8F0878B4209D9002D00F0EF8077
:100BB0000026C5E9000130463146BDE8F087B3FAAA
:100BC00083F6002E4AD18B4202D3824200F2F98092
:100BD000841A61EB030301209E46002DE0D0C5E995
:100BE000004EDDE702B9FFDEB2FA82F2002A40F0E1
:100BF0009280A1EB0C014FEA1C471FFA8CFE0126E4
:100C0000200CB1FBF7F307FB131140EA01410EFB87
:100C100003F0884208D91CEB010103F1FF3802D22E
:100C2000884200F2CB804346091AA4B2B1FBF7F028
:100C300007FB101144EA01440EFB00FEA64508D94B
:100C40001CEB040400F1FF3102D2A64500F2BB8088
:100C50000846A4EB0E0440EA03409CE7C6F12007D7
:100C6000B34022FA07FC4CEA030C20FA07F401FA1D
:100C700006F31C43F9404FEA1C4900FA06F3B1FBA6
:100C8000F9F8200C1FFA8CFE09FB181140EA01410B
:100C900008FB0EF0884202FA06F20BD91CEB0101A8
:100CA00008F1FF3A80F08880884240F28580A8F100
:100CB00002086144091AA4B2B1FBF9F009FB101152
:100CC00044EA014100FB0EFE8E4508D91CEB0101F0
:100CD00000F1FF346CD28E456AD90238614440EA93
:100CE0000840A0FB0294A1EB0E01A142C846A64613
:100CF00056D353D05DB1B3EB080261EB0E0101FA9C
:100D000007F722FA06F3F1401F43C5E900710026F8
:100D10003146BDE8F087C2F12003D8400CFA02FC4E
:100D200021FA03F3914001434FEA1C471FFA8CFE5E
:100D3000B3FBF7F007FB10360B0C43EA064300FB4E
:100D40000EF69E4204FA02F408D91CEB030300F1EC
:100D5000FF382FD29E422DD9023863449B1B89B2A3
:100D6000B3FBF7F607FB163341EA034106FB0EF32C
:100D70008B4208D91CEB010106F1FF3816D28B42D9
:100D800014D9023E6144C91A46EA004638E72E46A5
:100D9000284605E70646E3E61846F8E64B45A9D29D
:100DA000B9EB020864EB0C0E0138A3E74646EAE70C
:100DB000204694E74046D1E7D0467BE7023B6144BA
:100DC00032E7304609E76444023842E7704700BF23
:100DD00001F0FF01102A2BDB10F0070F08D010F8EC
:100DE000013B013A8B422DD010F0070F42B3F6D1F0
:100DF000F0B441EA012141EA014122F007047FF009
:100E000000070023F0E80256083C85EA010586EA5F
:100E1000010685FA47F5A3FA87F586FA47F6A5FA9B
:100E200087F68EB9EED1F0BC01F0FF0102F00702A7
:100E300032B110F8013B013A83EA010313B1F8D152
:100E40000020704701387047002D06BF3546033833
:100E5000073815F0010F07D1013015F4807F02BF6C
:100E6000013015F4C03F0130F0BC0138704700BFBD
:100E7000EC46A0E8F05F4FF000007047B0E8F05F8C
:100E8000E546080008BF0120704700BF10F8012B9D
:100E900011F8013B012A28BF9A42F7D0D01A7047B7
:100EA00030B583B004466D464168284605F0F0FE33
:100EB00009492078094C2C2200F0ECF9034695E80A
:100EC000030003F120025C6082E80300012283F842
:100ED0002A2003B030BD00BFA10E0108E10E0108B9
:100EE00038B500F12005044695E8030005F03AFF07
:100EF00020B1A3681844A060012038BD95E8030024
:100F000005F05AFF94F82A3094F82B2093421CD213
:100F1000218B0133DBB2084480B29A42208384F8EB
:100F20002A3018D8638B83421BD8A38B834218D3F3
:100F3000002384F82830134801F0DEFE6369E2687C
:100F400013446361A360012038BD01239A422083CA
:100F500084F82A30E6D9A36822691344A3600120EB
:100F600038BD94F8283094F829200133DBB29A4236
:100F700084F82830DFD8044803F02AFD01F038FF58
:100F8000D6E700BF6C000020208B010838B515495A
:100F90000546007800F05EF9044601F021FE04F1F8
:100FA000200393E8030005F05DFF6B686361A360B5
:100FB000AB6823612B7B84F82B305A1C84F82A20E1
:100FC0002A69E260D5E90501EA6984F8292060838D
:100FD000A18303B938BD20461F21BDE8384001F088
:100FE00011BF00BFA10E01082DE9F041214884B0D6
:100FF00001F08AFE30B3FF231F4D204F204E8DF8A5
:101000000F3029460DF10F0000F070F90446C8B109
:1010100094F82A2094F82B309A42F2D106F046FE3A
:1010200094F82B3094F82A20934203F101010CD05C
:1010300006F03EFE29460DF10F0000F057F9044678
:101040000028E5D104B0BDE8F0816269B4F81880E9
:1010500084F82A10019206F02BFE3046A7F8008093
:1010600003F034FF019A9DF80F10434600F092FD03
:10107000C7E700BF6C000020A10E01086800002037
:10108000348B010830B583B0FF23124D8DF8073043
:1010900006E093E8030005F0E5FE94F82B305BB919
:1010A00029460DF1070000F021F9044600F1200364
:1010B0000028EED103B030BD6269E16801330A4413
:1010C00084F82A306261A2600021204601F09AFE75
:1010D000E6E700BFA10E010808B5044B04482B2227
:1010E0001A6003F075FC01F057FE00BF48010020B4
:1010F000648B010808B506F0D1FD034B033020F0E6
:101100000300186008BD00BF7000002070B50E4ECF
:10111000336804461D1806F0C5FD85420CD83568B5
:10112000E31C23F003032B442246002128463360AE
:1011300007F0DCFC284670BD044B054828221A60E5
:1011400003F046FC01F028FE70000020480100205A
:10115000808B0108024B1A6802601860704700BF5C
:101160008000002010B506F0A5FD084B1C682CB1CE
:1011700022681A6006F0A2FD204610BD044B054807
:101180002A221A6003F024FC01F006FE80000020F1
:1011900048010020948B01080068B0FA80F04009F3
:1011A000704700BF0068704703460A680020186057
:1011B0001AB14A6813604B607047C1E900330120DF
:1011C000704700BF03681A6802601846704700BF86
:1011D00000230360704700BF08B5FF294FF00003EC
:1011E000C0E9003308DC054B1B882BB9044B1A7887
:1011F0008A42B8BF197008BDFFF76EFF7C0000205F
:10120000840000200F4B188810B4A0B1013815D00D
:101210000D4A0E4B146893F800C00022234619466D
:101220000132634482420B60F9D102FB0C42084B4D
:10123000002111601C605DF8044B7047024B1C6874
:101240002246F4E77C000020880000208400002073
:101250008000002008B50B4B1B78834209D90A4B4C
:101260001B6853F830208A4203EBC00001D140686C
:1012700008BD064B06482D221A6003F0A9FB01F0B9
:101280008BFD00BF8C000020900000204801002052
:10129000A88B010870B5104B1C7803469C42104681
:1012A00011D90E4D1AB2DC002B6853F8326056B9D2
:1012B0000B4E36883EB943F83210FFF727FF2B68F4
:1012C0002344586070BD074B07482E221A6003F074
:1012D0007FFB01F061FD00BF8C000020900000202A
:1012E0007C00002048010020BC8B010830B50E4A6C
:1012F00003780E4C126894F800E003F1010C5FFAD9
:101300008CF302EBC30205E052F8084B8C4203F168
:10131000010C06D05FFA8CF39E451546F4D80020E8
:1013200030BD0370686830BD900000208C00002044
:1013300038B50A4C236843B90568E8B2C000FFF726
:10134000E5FE074B20601D7038BD064B06482F2276
:101350001A6003F03DFB01F01FFD00BF900000206C
:101360008C00002048010020D08B010830B50D4DC5
:101370000D4885B003F0AAFD29880C4B003918BF31
:1013800001211A6803920446029101F0C5FC03464C
:1013900028880090DDE90212204600F0FBFB05B032
:1013A00030BD00BF7C000020E88B010874000020E5
:1013B0002DE9F0411E4F3B88064683BB1D4BDFF8ED
:1013C0008C801D78D8F80040032D9CBF04251D702B
:1013D00006F068FC002322462C44A04213D30133BC
:1013E000B3F5805FF7D11D46D8F80000201AFFF74B
:1013F0008DFE114B3D801860FFF704FF0F4B3268E4
:101400001A60BDE8F08113B19DB21446ECE70C4BB5
:101410000C4829221A6003F0DBFA01F0BDFC084BEE
:1014200009482C221A6003F0D3FA01F0B5FC00BF82
:101430007C00002084000020880000207400002030
:1014400048010020388C0108248C0108700000201D
:1014500010B5064803F03AFD044606F071FC01465B
:101460002046BDE8104000F095BB00BF4C8C010841
:1014700010B582B006F064FC094A0A4B11681B687B
:101480000446A34288BF01310748019103F01EFDC5
:101490000199224602B0BDE8104000F07BBB00BFBE
:1014A000A8000020A40000205C8C01082DE9F04178
:1014B000264D274E2B68274F01332B603368081ABF
:1014C0000344B0F5803F0C46336019D23B6800FB03
:1014D00000F0FF3003EB1020984238BF4FF0FF3090
:1014E00038601D48DFF87C8006F022FCD8F8003018
:1014F00001461944204606F01FFC70B1BDE8F0819A
:10150000B0F5801F06D200F1FF023B68120A00FB13
:101510000230E1E74FF0FF30E2E7104803F0D6FC7D
:101520003B683268296800F035FBD8F80030A342E8
:1015300003D90B4A1368013313600023C8F8004035
:101540003B6033602B60BDE8F08100BF7800002075
:10155000AC000020B0000020404B4C00748C01080F
:10156000A8000020A400002008B5044B0448312244
:101570001A6003F02DFA01F00FFC00BF48010020B3
:10158000948C010801F01CBC10B50E4B04681B685C
:1015900042689C4282B012D2D2B21119994201D94A
:1015A0001A1BD2B20848019203F090FC074B019A33
:1015B0002344214602B0BDE8104000F0EBBA0022FF
:1015C000F0E700BF84A20108A48C01080897010875
:1015D00008B5044803F07AFC034B1968BDE80840DD
:1015E00000F0D8BACC8C0108A000002038B5036800
:1015F0001F4C204A416823600B2B116015D01E48F8
:10160000002107F09FF81D48012107F0E5F91C486B
:10161000012107F097F81B48012107F093F8BDE876
:1016200038400121022004F0F5BD17481749184B36
:10163000002401254FF4FA5205700C6015481C80F7
:10164000214607F053FA29460B4807F07BF821465C
:101650000A4807F0C1F92146094807F073F809481C
:10166000214607F06FF8BDE83840022004F0ECBDD9
:10167000980000209400002000080040580002401C
:1016800000340140002C01409C000020A0000020FC
:101690003C210020FC01002000B50849084A094B04
:1016A0000968094812681A6083B0019103F00EFCC2
:1016B000019903B05DF804EB00F06CBAC80100209A
:1016C0007C0100205C010020E08C010810B5064878
:1016D00003F0FCFBBDE8104041F6DE6340F2C5229A
:1016E00040F2EA7100F056BAF48C010838B5094AA4
:1016F000094B15681C6804F0BDFC084803F0E6FBC4
:10170000621B002A2946B8BF5242BDE8384000F0AB
:1017100041BA00BF680100207C0100201C8D010837
:1017200010B5064A064C036806482360138003F090
:10173000CDFB2168BDE8104000F02CBA420000202B
:10174000000000203C8D0108F8B5877F04469FB15A
:1017500000252F4601262B46043304EBC30393E8F0
:10176000030005F0ADFC01357100EBB200B1374369
:10177000A27F9A42CEB2EFD8227CBA4207D0637CD5
:101780007B40DB4382EA0701DBB20B4210D194F9C4
:101790001C30257F6774002B04DB013DEDB2FF2D6B
:1017A0001ED02577D4E9023213440120A360F8BD8E
:1017B00022EA03023B401343A27C2374072AE6D8A3
:1017C000511C2244A1740848D37401F095FAFF23F8
:1017D0002377D4E90232677413440120A360F8BD73
:1017E000014801F089FADCE7B400002010B5047963
:1017F000082C09D8221D08490078D200FFF74AFDBD
:10180000064B8477436010BD054B064825221A60BD
:1018100003F0DEF801F0C0FAED17010849170108DE
:10182000480100205C8D010870B51149054682B061
:101830000078FFF70FFD2B79827F9A4204460ED97C
:101840006E46D5E9021230461D1D05F011FC96E8E2
:10185000030004EBC50484E8030002B070BD054B2F
:10186000054826221A6003F0B3F801F095FA00BF8C
:10187000ED17010848010020708D010838B51449A2
:1018800005460078FFF7E6FC044601F0A9F96B680D
:10189000A360A968E16000232A7CA374E376FE2399
:1018A000627422742377EB6863771B0607D401B94F
:1018B00038BD20463021BDE8384001F0A3BA054BC1
:1018C000054827221A6003F083F801F065FA00BF8B
:1018D000ED17010848010020988D010838B5154919
:1018E00004460078FFF7B6FC2479C37E05462344FE
:1018F000C37606F0DBF9AB7CA34207D8FE230022B7
:10190000AA742B77BDE8384006F0D2B91B1BD8B2B9
:1019100005F1130204F112032B44141813F8011FEC
:1019200002F8011BA242F9D1A874BDE8384006F0C4
:10193000BFB900BFED170108F0B51A4885B001F036
:10194000E3F948B3FF23184D184F8DF80F3029469F
:101950000DF10F00FFF7CAFC0446E8B1237FFF2B0F
:10196000F5D106F0A3F9A67CC6B1637F237706F014
:101970009FF9384603F0AAFA1334227A9DF80F1023
:101980000094334600F006F929460DF10F00FFF7E9
:10199000ADFC04460028E1D105B0F0BD06F088F9A1
:1019A000D5E700BFB4000020ED170108BC8D010889
:1019B000704700BF70B514799668651EA4B3814264
:1019C00033D316F8012B042A20D810F8012B02F08B
:1019D000600CBCF1600F03F1040E02F07F0408D12B
:1019E00064F01F0405E010F8012B02F07F0C4CEAB4
:1019F000C4141206F7D41C60B5B1814215D316F891
:101A0000012B042A05F1FF357346DED9072A0CD1D4
:101A1000024612F8014B1019884206D89E464EF82D
:101A2000084B5A60002DEAD170BD024802F0D0FF89
:101A300001F0B2F9E88D01082DE9F8438B78052B08
:101A4000064694461C4666D9053B821CD4180B8872
:101A5000CF784D687F2B00F28C80114603F07F0316
:101A600001F8013B002F53D08C42C0F08A802F44F4
:101A700030E05CF8043B03F120027F2A22D903F511
:101A80008052B2F5804F18D303F50022B2F5001F43
:101A90000ED303F18062B2F1805F04D31A0F62F0BB
:101AA0007F0201F8012B5A0D62F07F0201F8012B31
:101AB0009A0B62F07F0201F8012BDA0962F07F02D3
:101AC00001F8012B03F07F0301F8013BBD421FD059
:101AD0008C4256D315F8013B052B30D0C9D9063BB3
:101AE000012B4ED8E0460B4658F8082B611A91425C
:101AF00028BF114603F8011B89460A461846DCF840
:101B0000041006F0CBFFBD4200EB0901C446DFD153
:101B1000891BCC1CE3B21D4A337012787270E51E2B
:101B20002946304606F0DCF9030A735526447E2325
:101B300006F8020C06F8013C2046BDE8F8835CF884
:101B4000040B03784A1C6BB1944202D817E094420C
:101B50000BD002F8013B10F8013F002BF7D1531ACC
:101B6000013BDBB20B701146B0E7631A013BDBB2FD
:101B7000F8E7DA0962F07F028270C21C6DE7002389
:101B8000F0E7034802F024FF01F006F9040000200A
:101B9000008E01080FB430B5084D2C7883B0E4B244
:101BA0003CB9012307A906982B70019106F02AF889
:101BB0002C7003B0BDE8304004B07047B500002081
:101BC000014B00221A707047B50000202DE9F04B40
:101BD000804615460C4619B900202860BDE8F08BF8
:101BE0002F4E3778FA0711D40429F5D907787B1FCF
:101BF0003B2B05D890F8019029F00F03102B1ED035
:101C00007E2F36D0337843F00107377022467E218D
:101C10004046FFF7DDF850B3A0EB080007F0FE07E1
:101C2000013037702860BB071DD447F002033370C2
:101C30001C48FFF7AFFF4FF0FF30BDE8F08BB94213
:101C4000CAD3C31913F8012C7E2AD9D1F91E13F86F
:101C500002BC435C4BEA032B06F042F983450DD0EE
:101C600098F80070CCE74FF0FF30BDE8F08B2C60A7
:101C7000D9E701232B604FF0FF30AFE70A493278F4
:101C80000B782F6022F002024B453270D0D1013325
:101C900003F00F0343F010030B7001209EE700BF19
:101CA000B6000020288E0108040000202DE9F04B2A
:101CB000033900F10209451882B0A94500AF30D2BE
:101CC000DFF8948099F9002099F80040002A6E46C8
:101CD0002BDB09F10100ACB31D4B1B889C4231D2B8
:101CE00008EB0412294693787A609B00073303F4CB
:101CF000FF63ADEB030DEB465B46FFF75BFE240194
:101D0000814601F009F818B17A68D278D30715D561
:101D1000444405F0DBFFE26858469047B546A945C4
:101D2000D0D30837BD46BDE8F08B99F80120E40117
:101D300004F47E5409F102001443CCE701F00AF8E0
:101D4000B546ECE7034802F043FE01F025F800BF7A
:101D500068A70108188E010888A201080148FFF74A
:101D600019BF00BF288E010830B5D0E9004083B00C
:101D7000FFF71EFE054605F09DFFE3B2012B0FD0D5
:101D8000022B10D02978C9B2019105F097FF0748BE
:101D900003F09CF8019903B0BDE83040FFF7FABEAC
:101DA000298889B2F0E72968EEE700BF308E010884
:101DB00070B50446D0E90050FFF7FAFDA668044666
:101DC00005F078FFEBB2012B07D0022B0BD0F6B257
:101DD0002670BDE8704005F071BFB6B22680BDE840
:101DE000704005F06BBF2660BDE8704005F066BF2F
:101DF00010B5D0E9004082B0FFF7DAFD0190054848
:101E000003F064F8019AE1B202B0BDE81040FFF7B8
:101E1000C1BE00BF448E0108704700BF30B50B49FA
:101E200083B0044628220078FFF734FA6D46034653
:101E30006168A26828461C4605F01AF995E8030077
:101E400004F10C0383E8030003B030BD1D1E01083C
:101E500038B500F10C03044693E8030005F030F9AF
:101E600094F8245088B1ED4305F001058DB994F83C
:101E70002630013B13F0FF0315D0A268A16984F856
:101E800026300A44A260012038BD05F00105002D6E
:101E9000EDD00849E26994F8253084F82630C4E989
:101EA0000112012038BD206A94F8271002F0E4FBEB
:101EB000284638BDB91E010800F10C0310B50446D0
:101EC00093E8030005F0FCF8A36862691A4494F8EB
:101ED000243030B1DB4303F0010333B1A2600120B1
:101EE00010BD03F00103002BF8D1044BE2616360E5
:101EF0002046BDE81040FFF7ABBF00BF511E0108F0
:101F000070B51B4905460078FFF7A4F9044600F0B8
:101F100067FE6B68A360AB68A3612B7B84F82530F8
:101F20002BB9144A84F824301370236270BD03F077
:101F30000DFE2A6994F8253084F8263062616A69BA
:101F40000C4B002A14BF0322022284F824200A4AE0
:101F5000287E626001261E7002F0BAFBEB6984F8ED
:101F60002730206231462046BDE8704000F04ABF6D
:101F70001D1E0108B7000020B91E01082DE9F0411F
:101F8000134E144901233370077884B03846FFF7A5
:101F900061F9044605F08AFEE36994F8248003930E
:101FA00005F086FE0C4802F091FF0C34054694E8DB
:101FB000030005F085F8039B0090C8F34002394602
:101FC0002846FFF7E7FD0023337004B0BDE8F08139
:101FD000B70000201D1E0108548E010810B50A49E3
:101FE0000078FFF737F9044600F0FAFD074A94F845
:101FF000251084F82610002384F8243013702362FF
:10200000BDE8104003F0A2BD1D1E0108B70000206E
:1020100030B5D0E9011283B0003A04466D4618BFCE
:102020000122284604F098FF0F4920783422FFF758
:1020300031F9034695E8030003F1180282E8030032
:10204000D4E90221003A18BF012209B142F010027E
:1020500083F8302022691A620C2103F1280003B0B2
:10206000BDE83040FFF7B8B8112001082DE9F8436A
:1020700000F1280804464046FFF78EF8002840F09B
:10208000A0804046FFF79EF885682E1E18BF0126E7
:1020900004F118030746324693E8030004F0A8FF52
:1020A0003846FFF757F8C5B1636AAB4215D9276ABE
:1020B000002F68D1404646F00206FFF76DF8002871
:1020C00000F0878094F83030676103F010033343E9
:1020D000A66884F830302E4426E094F83030B5FA03
:1020E00085F283F01003C3F3001352099A4225D0FE
:1020F000276A1FB3A168404646F004060F44FFF765
:102100004BF8002848D094F83030676103F0100392
:10211000334384F83030B30726D5A6682E443946B9
:10212000304605F009FEF8B1636A2B4A5B1BC4E92F
:102130000126C4E903530120BDE8F8834046FFF7B8
:102140002BF8A8B981464046FFF72CF8476894F869
:102150003020676146F0040602F01002164384F84E
:102160003060B9F1000FD8D1A7600120BDE8F88335
:1021700094F8303003F010033343002084F83030FB
:102180006061BDE8F883A168404646F006060F444A
:10219000FFF702F80028B6D14046FFF703F80346E0
:1021A00038465F68394605F0C7FD06F00209002889
:1021B000CDD00A4B0A481E221A6002F009FC00F03A
:1021C000EBFD064B07481D221A6002F001FC00F0EF
:1021D000E3FD4FF00209B6E7E921010848010020BC
:1021E000BC8E0108908E010838B5044600F1180332
:1021F00093E8030004F0E0FE94F83030A56883F023
:102200000103DA074CBFE268226984F830305B07CB
:10221000154402D4A560012038BD6169284605F047
:102220008BFD0028F6D1034B65696360A560012032
:1022300038BD00BF6D20010838B50D49054600784E
:10224000FFF708F8044605F031FD04F12800FEF719
:10225000A3FF28B16B686362BDE8384005F028BD74
:10226000044B05481F221A6002F0B2FB00F094FDF7
:102270001120010848010020F48E0108F8B5214919
:1022800006460078FEF7E6FF0446FEF76BFF776828
:102290004760B3688360054605F008FD04F1280136
:1022A0002846FEF781FFA0B194F830506A071ED48B
:1022B00045F0040384F83030AB0767610DD4204645
:1022C00000F08EFC104B0F21C4E90137204600F0CE
:1022D00099FDBDE8F84005F0EBBCA068394605F073
:1022E0002BFD0028EBD0BDE8F84005F0E1BC6069AB
:1022F000394605F021FD0028DAD0044802F068FBD9
:1023000000F04AFD112001086D200108BC8E010873
:10231000F8B5244905460078FEF79CFF044600F016
:102320005FFC04F12800FEF737FF90B32E7994F894
:102330003050371E18BF012704F1180393E803003B
:102340003A4604F055FE85F01001B6FA86F35B09B3
:10235000C1F300118B4201D0236A2BB905F010059F
:102360003D4384F83050F8BD05F0EAFC05F0100557
:10237000236A3D43184445F004050B4B84F8305064
:10238000C4E9013060610E212046BDE8F84000F04C
:1023900039BD064B064821221A6002F019FB00F0F5
:1023A000FBFC00BF112001086D200108480100203E
:1023B0002C8F010830B583B0FF23124D8DF8073004
:1023C00013E094F8302093E8030002F0100204F0C8
:1023D0000FFE94F8303013F0100318BF112304F1EE
:1023E000280084F83030FEF7F3FE29460DF107008F
:1023F000FEF77CFF044600F118030028E1D103B08A
:1024000030BD00BF1120010800B5034683B0D3E9F9
:102410000012684604F0A0FD03B05DF804FB00BFA5
:10242000024900780C22FEF735BF00BF21240108C5
:102430000149FEF70FBF00BF2124010830B5C36872
:102440000D4985B0044603F07F0300780193FEF741
:1024500001FF02ADD4E901120446019B284604F0B5
:1024600097FF95E80300237A43F0020384E8030012
:10247000237205B030BD00BF21240108037A01603A
:1024800043F0010303727047013808B5032817D8D9
:10249000DFE800F0110C07020A4802F099FA00F098
:1024A0007BFC094802F094FA00F076FC074802F041
:1024B0008FFA00F071FC064802F08AFA00F06CFC1A
:1024C00008BD00BF788F0108688F01088C8F010854
:1024D0005C8F010838B5104904460078FEF7BAFE53
:1024E0000546A0682479FFF763FA2A7AD2070346E3
:1024F00008D528681A46214603F04CF8BDE8384054
:10250000FFF7C2BF95E80300224604F0C1FFBDE813
:102510003840FFF7B9BF00BF2124010870B5067A23
:1025200082B0F607069D8C4605D5006802B0BDE86E
:10253000704003F04FB8019503C8009313466246FC
:1025400004F0D6FF02B070BD2DE9F04383B00678E9
:102550001A49044602AF3046FEF77CFE0546A068E5
:1025600094F80490FFF724FA247BE21D02F4FC7235
:10257000ADEB020D2A7AD20703460DF1080815D5F6
:102580002868CDF800801A464946234603F022F811
:10259000FFF77AFF0A4802F099FC4346224631468B
:1025A000FFF7F8FA0437BD46BDE8F083CDE90048EF
:1025B0004A4695E8030004F09BFFE9E7212401085F
:1025C000988F010870B50A4B1E68002E82B00CDD92
:1025D000084D00242A7955F8081B684602F00102CC
:1025E000013404F0B9FCB442F4D102B070BD00BFB4
:1025F0004CA801084CA8010870B582B004466D468D
:1026000041680022284604F0A7FCA3689EB21B0480
:1026100012D406F118020C49207892B2FEF73AFE65
:10262000034695E8030083E80300D4E903129E8281
:1026300099601A6102B070BD044B05481A221A60F5
:1026400002F0C6F900F0A8FBF925010848010020B6
:10265000C08F010870B5114904460078FEF7FAFDF5
:102660000346D4E9026065681C46FFF7A1F92B0414
:1026700001460AD4A28AAB19934206D816353246CF
:102680006019BDE8704006F009BA054B05481B22E9
:102690001A6002F09DF900F07FFB00BFF9250108E8
:1026A00048010020DC8F01082DE9F04B2DED028B55
:1026B0000378624988B0184608EE103AFEF7CAFD62
:1026C000D0E90354059005F03BFB401B844206D93A
:1026D00005F0FCFA05F034FB401B8442F8D8059D58
:1026E00095E8030005F11602AF8A039706AE86E867
:1026F00003000492029205F023FBAB6801930446A9
:10270000002F50D0DFF84891029B13F8017B029311
:102710004FF008083B064A484BD505F009FBA9FBDA
:102720000035AD0C05F00CFB001B8542FAD805F016
:10273000BDFA05F005FB054696E8030004F03CFCF5
:1027400005F0B6FA019B2C1BA3425FD93D4805F06A
:10275000EFFAA9FB00347F00A40C05F0F1FA401B4E
:102760008442FAD805F0A2FA96E8030004F024FCAB
:1027700005F09EFA05F0E4FA8346334805F0D8FAEE
:10278000A9FB0034A40C05F0DBFAA0EB0B0084429B
:10279000F9D82C46B8F10108BCD1DDE90323134474
:1027A000029A9A42B0D105F0CBFA059B0122D8607B
:1027B00036E005F0BDFAA9FB0035AD0C05F0C0FA16
:1027C000001B8542FAD805F071FA05F0B9FA834684
:1027D00096E8030004F0F0FB1B4805F0A9FAA9FBFA
:1027E0000035AD0C05F0ACFAA0EB0B008542F9D832
:1027F00096E8030004F0E0FB05F05AFA019BABEB0E
:102800000404A34202D97F005C46C3E7002296E895
:10281000030004F0EDFB05F093FA059B0022D8605D
:102820000A48019202F052FB019A18EE101A08B001
:10283000BDEC028BBDE8F04BFFF7ACB9F925010800
:10284000D012130010EB0900400D0300FC8F0108AB
:1028500083DE1B4330B50C4983B004462C2200783C
:10286000FEF718FD6D4603466168A26828461C46BF
:1028700004F0FEFB95E80300044A04F1240383E816
:102880000300626003B030BD55280108912801089B
:1028900070B58369044600F1240292E8030003F056
:1028A0000105A66804F00CFC854203D0A369E6612B
:1028B0000133A3616069314605F03EFA28B9D4E9D5
:1028C000023213440120A36070BD94F820202369D4
:1028D0000748334442F0010284F82020636100F08D
:1028E0000BFAD4E9023213440120A36070BD00BF8B
:1028F000B800002038B50A4905460078FEF7AAFC62
:10290000044600F06DF96B68A360AA68E260EA68AB
:102910002046C4E904233821BDE8384000F072BAEB
:102920005528010870B51C4886B000F0EDF980B359
:10293000FF231A4D1A4E8DF8173029460DF1170056
:10294000FEF7D4FC044620B394F82030DB07F4D51E
:1029500005F0ACF994F82010A268A369039221F065
:10296000010184F820100293E46905F0A1F93046D2
:1029700002F0ACFADDE902329DF817100094FFF77F
:1029800009F929460DF11700FEF7B0FC04460028AE
:10299000DAD106B070BD00BFB8000020552801088C
:1029A0002090010838B5027B81680446007904F064
:1029B000A5FB0949054620222078FEF76BFCD4E9E7
:1029C0000412064BC560818243600261BDE8384055
:1029D0000C211830FEF700BCA5290108E1290108E7
:1029E000F8B500F1180604463046FEF7EBFB078900
:1029F00005463946E06804F063FC2846FEF7AAFB6A
:102A00003046FEF7C9FB60B1A38ABB4224D02069DF
:102A100000B9F8BDA368114A1844C4E90120012097
:102A2000F8BD3046FEF7BEFBA38A4568BB4201D025
:102A3000236913B9A5600120F8BDA0682946184490
:102A400005F07AF90028F5D0054B064818221A60DF
:102A500001F0BEFF00F0A0F90020F8BD692A0108CE
:102A6000480100205C90010808B5044B0448172277
:102A70001A6001F0ADFF00F08FF900BF480100209F
:102A80008C90010870B51C4905460078FEF7E2FB02
:102A90000646FEF767FB6B684360AB68038104463C
:102AA00005F004F906F118012046FEF77DFB054606
:102AB00005F0FEF805B970BD304600F091F80F4BF7
:102AC00072689A4209D063680D4A3046C6E901230C
:102AD0002D21BDE8704000F095B96168B06805F03F
:102AE0002BF90028EFD0074B074819221A6001F094
:102AF0006FFF00F051F900BFA5290108692A0108FC
:102B0000E1290108480100205C90010870B582B0FD
:102B1000FF230C4D0C4E8DF8073008E0E068A18AC9
:102B200004F0CEFB666004F11800FEF751FB294665
:102B30000DF10700FEF7DAFB04460028EED102B0E3
:102B400070BD00BFA5290108E1290108027A41688A
:102B5000007804F0D3BA00BF00207047084B094842
:102B600010B500221A7205F0E3F8074A0749946885
:102B70000346234403F10044012093608C6010BDA0
:102B800008000020A0860100200000202C0000206A
:102B900010B5044603F0E4F80C4B1B78012B09D068
:102BA0004FF4FA7005F0C4F8A368024613440120FC
:102BB000A36010BD064A11780029F1D105490648E5
:102BC0001370064B096801601960E9E78401002071
:102BD000C500002068010020740100205C01002075
:102BE00010B5044605F066F80E490B68A34202D101
:102BF00011E0A3420CD01A461B68002BF9D14B6898
:102C0000A34204BF084B4B60BDE8104005F056B826
:102C100023681360F3E7054BA2689A6022681A6084
:102C20000B60ECE7080000202000002014000020CA
:102C30002DE9F8431C4F3E68736830463BBB01F0FA
:102C4000E3F8B568336838B39968284605F074F836
:102C500010B12846BDE8F8837C683368A168D3F8D2
:102C600008903B60284605F067F800B13C68A04634
:102C700024682846A16805F05FF80028F7D04D4683
:102C800034607E60C8F800602846BDE8F883984745
:102C9000B56833680028D7D17A689D683B60B24236
:102CA000D7D17B60D5E700BF08000020074B084A5A
:102CB0000849094810B49C6894605DF8044B0A60A8
:102CC0004B601360186005F041B800BF2000002081
:102CD00014000020080000202C000020014B0022DE
:102CE0001A72704708000020024B187AC043C0F3E4
:102CF000C010704708000020024B00221A72012306
:102D0000037070470800002003780246D8B210B163
:102D10000023137001207047024B587A003818BF07
:102D2000012070470800002010B5064802F0CEF8D8
:102D3000054B064A06491B6812680978BDE8104031
:102D4000FEF728BFB8900108C0000020BC0000209A
:102D50002401002008B50A4802F0B8F8094B0A4AD5
:102D60000A491B6809781268FEF714FF084802F048
:102D7000ADF8084B997ABDE80840FEF70BBF00BFDD
:102D8000B8900108C0000020BC00002024010020F1
:102D9000EC9001080800002000B583B0019004F019
:102DA00085FF01990148FEF769F800BFC8000020BF
:102DB00008B5024801F00CFEFFF7EEFF1091010884
:102DC00008B5084A537A23B1022B1CBF0023537263
:102DD00008BD054B054816221A6001F0F9FDFFF702
:102DE000DBFF00BF080000204801002028910108F7
:102DF00008B5034B5B7A03B108BDFFF7CDFF00BFF9
:102E0000080000202DE9F04BDFF8949085680E460D
:102E1000074604F04FFFD9F800408046A1682846D5
:102E200004F08AFF70B9264624682846A16804F099
:102E300083FF0028F7D03C6037604046BDE8F04B88
:102E400004F03CBF04F07CFF83460146284604F0B2
:102E500073FF58B90D4BC9F800309C4208BF246875
:102E60003C609D601F6004F071FFE6E7084B094875
:102E70001D60094BC3F800B0084B1E7001F0A8FD9F
:102E800099F80930002BE5D1FFF786FF14000020E8
:102E9000C00000204C910108BC000020240100204B
:102EA0000800002038B50A4D0A4B6B6004F048FF5B
:102EB00004464FF4FA7004F03BFF00230444AC6076
:102EC00028462B606221BDE83840FFF79BBF00BF5A
:102ED00028010020912B01082DE9F04383B001F077
:102EE00019FD02F06BF902F013FF02F0C9FEFFF7C3
:102EF000D9FF03F059FB374801F0E8FFFEF74AFE1F
:102F000004F0D4FE3448FDF7B3FF0446002841D155
:102F100004F0CEFE04F014FF304C314D314E2060F1
:102F200025E004F00DFF2368181A206004F0BEFEAF
:102F300095F908302BBB04F0BBFE04F001FF2368B9
:102F4000184420602F7201F00DFD04F0F9FE814657
:102F500049462068FEF7AAFAC4F8009003F080FE04
:102F60003378DBB233B10023337003F0D3F84FF082
:102F7000FF08012704F0AAFE95F90830002BE1D0E4
:102F8000CFE785F8088004F09DFE95F90830002B06
:102F9000F9D1D0E704F08AFE04F0D2FE104B5A7A41
:102FA000014602B99C720E4C019102236372FFF735
:102FB0007DFE01F0BDFC0123637204F079FEFFF792
:102FC000B3FE094801F082FFA27A0199FEF7E2FD03
:102FD0009EE700BF5C910108C8000020340100207A
:102FE00008000020C40000206891010838B5074996
:102FF000054650220078FEF74DF90446044B287927
:10300000636000F0ADFC206138BD00BFED2F01080A
:103010001530010808B5034604481A7D42F0010244
:103020001A75FFF769FE002008BD00BF38010020B7
:1030300070B5104905460078FEF70CF904460026E5
:10304000FFF7CEFD26756B6803B970BDE36004F130
:10305000160002F011FD04F029FE04F071FEE36891
:103060001844A06031462046FFF7CCFEBDE8704012
:1030700004F01EBEED2F0108F0B5134985B00646D9
:103080000078FEF7E7F8B9230546ADF80C3004F0F8
:1030900057FE012103AB02220746286900F0B6FC67
:1030A00004F04EFE9DF80D1021F08001202909D872
:1030B00001EB8104C31B317800943A4605F11600F8
:1030C00002F0F8FC05B0F0BDED2F01082DE9F0434A
:1030D000534885B0FFF718FE88B1FF23514D524E7B
:1030E0004F4F8DF8033002E0237DDB070AD42946D9
:1030F0000DF10300FEF7FAF804460028F4D105B0FC
:10310000BDE8F08396E807000DF1040C6346ACE8D7
:1031100003008CF8002020699DF80380092201211A
:1031200000F074FCA27E9DF8061002F11B0311F062
:10313000F000234425D0F02823D0A118FF221A71D3
:10314000DA709A705A70CA76A37E0533DBB22E2BE2
:10315000A37604D9414604F1160002F093FC237DC6
:1031600023F00103237504F0A1FD04F0E9FDE368F9
:103170001844A06000212046FFF744FE04F098FDAB
:10318000B5E79DF808C01CF0F00001D0F028D4D1BC
:103190009DF80A0010F0F00E34D19DF80BE0BEF15E
:1031A000900FCAD19DF80C9029F08009B9F1200F39
:1031B000C3D801F01F0141EA40118000224400F011
:1031C00060000CF01F0C9DF805E082F81BE040EA5F
:1031D0000C0C9DF8070058709DF809209A70D97062
:1031E00083F804C0A37E0533DBB22E2BA3760DD863
:1031F000B9F11E0F10D9238B013323833846FFF713
:103200007BFD74E7BEF1F00F97D1C6E7414604F1AC
:10321000160002F037FCEBE7B9F1010F9FD9EDE79B
:1032200038010020ED2F0108148B010870B5067AD3
:10323000032E044610D8104900785022FEF72AF8D1
:1032400005460E4B20796B6000F08AFB286100F088
:10325000D1FB48B16E7570BD094B0A4814221A6043
:1032600001F0B6FBFFF798FD054B074815221A60E1
:1032700001F0AEFBFFF790FD2D3201088D32010801
:103280004801002090910108AC91010810B5037D20
:103290005A0704460BD5C37D0133C3750648FFF7B3
:1032A0002BFDD4E9023213440120A36010BD43F08A
:1032B00004030375F2E700BF3C01002010B4847DD5
:1032C000521A34B104F1FF3C012101FA0CF10A4415
:1032D000E240FE2A0AD8017F4418033162771A0AB5
:1032E000A377E2775DF8044B01777047037FC2183C
:1032F00001219177FF2400215477D17703335DF8C2
:10330000044B0377704700BF38B50E490446007878
:10331000FDF7A0FF0546FFF763FC00232B75A368AC
:1033200003B938BD6368AB60A368EB6005F11800B2
:1033300002F0A2FBE368AB7528464A21BDE838409D
:10334000FFF760BD2D3201082DE9F04390F80080B1
:103350003249054685B04046FDF77CFF0446A86823
:103360002F79FEF725FB94F81590B9F1020F054669
:1033700023D004F0E5FC03463A46206901211C46AF
:103380002B4600F043FB04F0DBFC0646322004F041
:10339000CFFC331B834288BF0027B9F1010F18BF50
:1033A00026461F4801F092FD00953B4632464146B5
:1033B000FEF7F0FB05B0BDE8F0830DF108092169C7
:1033C000484600F01BFB99E80300002203F010FEC2
:1033D00004F0B6FC0646012004F0AAFC064401E015
:1033E00004F074FC04F0ACFC0146304604F0A4FC8C
:1033F0000028F5D004F05AFC99E80300012203F0FC
:10340000F7FD04F09DFC064604F052FC20692B46B3
:103410003A46012100F0FAFAC3E700BF2D32010855
:10342000CC9101082DE9F04BC44888B0FFF76CFC43
:10343000002856D0FF23C24E8DF80B3000253146B0
:103440000DF10B00FDF752FF0446002849D0237D03
:103450005F07F4D504F02AFC94F817B02575E575DC
:10346000D4F8088004F024FCE768A8EB0703019374
:10347000BBF1000F19D04FF0FF0902E0BBF1010BC7
:1034800013D0237FE1180333DBB2302B81F81D907A
:103490008D77CD772377F1D99DF80B1004F11800C3
:1034A00002F0F0FABBF1010BEBD194F815B0BBF1CF
:1034B000000F19D0BBF1010F57D0BBF1020F76D02E
:1034C000237F302BBBD904F118009DF80B1002F0BC
:1034D000D9FA31460DF10B00FDF708FF044600282C
:1034E000B5D108B0BDE8F08B4FF03208ADF81480CC
:1034F00004F026FC05AB022201210746206900F0FA
:1035000085FA04F01DFC03464046A3EB070804F0CF
:103510000FFC80450BD9237FE218FF21033351773D
:10352000DBB2022182F81FB091772377C9E79DF9BA
:1035300014209DF81430002A0BDA237FE218FF21B3
:1035400003335177DBB2032182F81FB091772377E1
:10355000B7E79DF8150001995B0243EA40033A463C
:103560002046FFF7ABFE237FABE74FF67F63ADF856
:10357000143004F0E5FB05AB0222002180462069EF
:1035800000F044FA04F0DCFBA0EB08080746322008
:1035900004F0CEFB804573D9237FE218FF2103336B
:1035A0005177DBB20221D5779177237789E70DF147
:1035B0000C0B2169584600F021FA9BE80300002219
:1035C00003F016FD04F0BCFB8146012004F0B0FBC3
:1035D000814401E004F07AFB04F0B2FB0146484666
:1035E00004F0AAFB0028F5D004F060FB9BE8030080
:1035F000012203F0FDFC04F0A3FB814604F058FB1C
:1036000042F284330593ADF81C50069520690A22D6
:10361000012105AB00F0FAF90DF115010DF11B00C8
:10362000052211F8013F4FF0080B5A40530012F0E9
:10363000800F08BF520083F01D0314BFDAB2D2B26C
:10364000BBF1010BF2D18842EBD1D3439DF81D2091
:10365000DBB29A427FF471AF9DF81C30DB0641D596
:103660009DF91630002B53DB237FE218FF21033333
:103670005177DBB2042182F81FB09177237720E7DE
:10368000C0228DF814208DF8155005AB5946022242
:10369000206900F0BBF99DF814309DF8151083EAFD
:1036A000010282EA121282EA920282EA520212F0C5
:1036B00001020CD1580621D5237FE1180333CA77C4
:1036C000FF20DBB2052248778A772377F9E6237F4C
:1036D000E218FF2103335177DBB20321D5779177CD
:1036E0002377EEE6237FE218FF2103335177DBB225
:1036F000052182F81FB091772377E2E6890041EA3D
:1037000083233A4601992046FFF7D8FD237FD8E668
:1037100040F2555004F00CFBA7EB0807B944814573
:1037200010D9237FE218FF2103335177DBB2012147
:1037300082F81FB091772377C3E600BF3C010020D9
:103740002D3201089DF817209DF816309DF81A00BB
:10375000520042EA4322237FE11803338A77C0F301
:103760004500DBB2120A4877CA772377A9E600BF83
:103770002DE9F04190F81080B8F1030F84B00546B0
:1037800031D8007800F0ECF807461C20FDF7BEFCAD
:1037900002AE044669683046012203F069FC96E8EF
:1037A000030084E803006E46A9683046002203F057
:1037B000D3FB96E8030004F1080383E8030000222A
:1037C000E968304603F0C8FB96E8030004F11003F3
:1037D00083E803002146384684F8188004B0BDE829
:1037E000F04100F0F1B8044B044813221A6001F0D4
:1037F000EFF8FFF7D1FA00BF480100200892010856
:10380000027E00F1100393E8030002F0020203F0CD
:10381000EFBB00BF2DE9F04B82B0541E074600916C
:10382000E4B2002A4DD003F1FF392344019300F1A3
:10383000100600F1080819F8015F4FF0080B00248A
:103840001AE096E8030003F0C1FB05F0800298E857
:10385000030003F0CDFB96E8030003F0B7FB97E805
:10386000030003F02DFC6400E4B26D000443BBF1DF
:10387000010BEDB2E4B21DD03B7EDB0705F0800208
:10388000DFD498E8030003F0B3FB96E8030003F0ED
:103890009DFB97E8030003F013FC6400E4B20443CB
:1038A00096E8030003F092FB6D00BBF1010BEDB253
:1038B000E4B2E1D1009B0BB189F80040019B4B457C
:1038C000B9D102B0BDE8F08B70B5044682B00F49A3
:1038D00000781422FDF7DEFCA66861686D46B6FA32
:1038E00086F252090446284603F036FB95E80300A9
:1038F00004F1080383E80300002E94F9103014BF8C
:10390000092201221343237402B070BDC938010893
:10391000F8B50D4904460079FDF79CFC267A0B4961
:1039200006F1080207462078FDF7B4FC054606714B
:10393000E0682F60FEF73CF832460146681DBDE89E
:10394000F84005F0ABB800BFC938010811390108CB
:10395000024900781422FDF79DBC00BFC938010858
:103960000149FDF777BC00BFC938010870B50546AD
:103970001249007882B0FDF76DFC2A7A032A0446CA
:1039800013D8037C13F0060F0FD16E46EB686968FD
:10399000304603F00DFE96E80300237C43F0040359
:1039A00084E80300237402B070BD054B0548112262
:1039B0001A6001F00DF8FFF7EFF900BFC9380108F0
:1039C000480100200892010808B5037C13F0060F97
:1039D00004D143F002030374016008BD034B0448A3
:1039E00012221A6000F0F4FFFFF7D6F94801002018
:1039F00008920108007C00F001007047083103467E
:103A000003C983E803001846704700BF2DE9F0435F
:103A1000057C15F0060F83B004460E4617469946FE
:103A20001DD0A9070DD50068FFF7EAFEEA0735D4D7
:103A300020684B463A46314603B0BDE8F043FFF7F5
:103A4000E9BED0E9000103F005FEEB070AD494E8D3
:103A500003003B46CDF80090324603F00DFE03B064
:103A6000BDE8F08304F10808C5F3C00298E803003C
:103A700003F0BEFACDF8009094E803003B463246CE
:103A8000ED0803F0F9FD98E8030085F0010202F06B
:103A9000010203B0BDE8F04303F0AABA04F108083C
:103AA00098E80300C5F3C00203F0A2FA20684B4671
:103AB0003A463146ED08FFF7ADFEE4E770B506780B
:103AC0000F4982B004463046FDF7C4FB0346D4E9F3
:103AD00001501C46FDF76CFFEAB203460121204667
:103AE000CDE90023FFF792FF064801F0EFF9DDE989
:103AF0000023314602B0BDE87040FEF74BB800BF6E
:103B0000C93801081C92010830B50A4983B004463F
:103B10000078FDF79FFB227901920546A068FDF72A
:103B200047FF019A03460021284603B0BDE8304014
:103B3000FFF76CBFC938010810B582B0FF23154CE0
:103B40008DF8073002E0027CD3071AD421460DF12C
:103B50000700FDF7CBFB0028F5D1FF230E4C8DF8B5
:103B6000073003E002790068FFF750FF21460DF1AE
:103B70000700FDF7BBFB0021431D0028F2D102B076
:103B800010BD82F00802083003C8C2F3C00203F07F
:103B90002FFADBE7C93801081139010838B500F1FF
:103BA000340504462846FDF7F7FA10B1002060619D
:103BB00038BD2846FDF706FBB0F90830426823827D
:103BC0001344E36094F84430D90605460FD5A16844
:103BD000438963610A44A2602A7BD20711D4226B15
:103BE000134423632846FDF7B5FA012038BDA169C7
:103BF00043890A44A261A2605A0062612A7BD2070B
:103C0000EDD5216B04F128025B1A236392E80300CF
:103C100003F0D2F9E6E700BF70B500F120030446D7
:103C200093E8030003F0C8F904F08AF86369E169D6
:103C3000013BDA07636100EB010503D5A5600126AE
:103C4000304670BD83B1E268A069B4F91030104409
:103C50001344A061E360294604F06EF80028EDD11A
:103C6000A369A3600126EBE72046FFF797FF06460E
:103C70000028E5D0A068294604F05EF80028DFD0CF
:103C8000A3684FF47A705E1B04F052F84042B042D1
:103C9000D4DD044B04480E221A6000F099FEFFF7B1
:103CA0007BF800BF48010020489201082DE9F0414F
:103CB00005463249007882B04822FDF7EBFAEF68FA
:103CC000002F044627DD04226E4680F844206968F0
:103CD000304603F041F996E8030004F1200383E83D
:103CE00003000022A968304603F036F996E8030085
:103CF00004F1280383E803004FF0404323632B695A
:103D0000E361102104F13400FDF766FA1C4B636097
:103D100002B0BDE8F0814FF000086E4680F84480A4
:103D200069684246304603F017F996E8030004F14B
:103D3000200383E803004246A968304603F00CF9EB
:103D400096E8030004F1280383E803004FF04043A2
:103D500023632B69E361102104F13400FDF73CFA81
:103D6000E369002BD2D1002FD0D094F8443043F037
:103D7000100384F8443002B0BDE8F081AD3C010886
:103D8000193C010838B50446A0F13C052846FEF769
:103D900027FF237A54F80C1C002244F8342C44F8F2
:103DA000242C54F8282CD8064CBF891AA1EB5201B8
:103DB00003F01403002943F00803C8BF494200225E
:103DC000237205F1280344F80C1C44F8282C93E8CE
:103DD000030003F00DF9227AD3060DD5083C03E069
:103DE000FDF7F0F9FDF7B6F92046FDF7D5F90346E2
:103DF0002046002BF4D038BD203595E8030002F0B2
:103E0000040203F0F5F8E9E700F1200310B50446D9
:103E100093E8030003F0D0F86369013B0AD0D4E9CA
:103E20000210B4F91020636101440244C4E9021293
:103E3000012010BD2046BDE81040FFF7AFBE00BF17
:103E400070B5294905460078FDF704FA0646FDF7E6
:103E500089F96B6843602B8943810446002B3BD072
:103E6000EA6802810023037303F020FF96F84430D0
:103E700003F00101C3F34002914205D0227B42F0DE
:103E8000010283F0010322737269D2B91A0711D4B7
:103E900006F1340186F844302046FDF785F93046B6
:103EA000FFF77CFE30461621FEF7ACFFBDE8704000
:103EB00003F0FEBE2046FDF74DF9BDE8704003F06B
:103EC000F7BE86F8443006F134012046FDF76CF960
:103ED000BDE8704003F0ECBE044B05480F221A60A9
:103EE00000F076FDFEF758FFAD3C010848010020C8
:103EF0006092010838B50C4904460078FDF7AAF92C
:103F000063680446002B14BF0225002503F0CEFE93
:103F100094F8443023F002031D4384F84450BDE874
:103F2000384003F0C5BE00BFAD3C010838B50F49AD
:103F300005460078FDF78EF904466D6803F0B6FE7D
:103F400063695BB994F84430A56023F00803A56168
:103F500084F84430BDE8384003F0AABE044B05485D
:103F600010221A6000F034FDFEF716FFAD3C010888
:103F7000480100207892010870B506780F49304654
:103F8000FDF768F9054603F091FE95F844302C6B77
:103F90006A69DB064CBFA41AA4EB520403F088FE46
:103FA000002CB8BF6442064800F090FF04F1404284
:103FB0003146BDE87040FDF7EDBD00BFAD3C0108E6
:103FC000A092010838B5084904460078FDF742F987
:103FD0000546207900F07CFB05F13C01034ABDE871
:103FE000384000F07BBB00BFAD3C0108853D0108B7
:103FF00030B583B0FF230B4D8DF8073006E0FDF799
:10400000E7F8002104F13C00FFF7BCFE29460DF162
:104010000700FDF76BF904463430002CEFD103B0F4
:1040200030BD00BFAD3C010810B504460648FEF7A0
:1040300063FED4E90231627F42F001020B446277F1
:10404000A360012010BD00BF4001002010B5047A1C
:10405000032C08D8084900782022FDF71BF9074BEC
:104060000477436010BD064B064803221A6000F037
:10407000AFFCFEF791FE00BF4D400108294001084A
:1040800048010020C092010838B50D490446007867
:10409000FDF7E0F80B4B054600221A70FEF7A0FD75
:1040A0006368AB60A368EB6003B938BDE3682B615C
:1040B00023696B6128464421BDE83840FEF7A2BE63
:1040C0004D4001083D0100202DE9F04B3D4886B0F0
:1040D000FEF71AFE002849D0FF233B4D3B4FDFF887
:1040E000F0808DF81330002629460DF11300FDF7FE
:1040F000FDF80446002839D0637FDA07F4D503F0D1
:10410000D5FD637FD4F8089023F00103637703F0B3
:10411000CFFD237F032BE7D8DFE803F046392B02DE
:10412000A0699DF813B0ADF8146005AB022201211F
:10413000FFF76CFCBDF8144064BAA4B2384600F036
:10414000C5FE23464A4659460096FDF723FD630700
:10415000CAD5404600F03CFCFEF74AFE29460DF168
:104160001300FDF7C3F804460028C5D106B0BDE82A
:10417000F08B9DF813100391384600F0A7FE0399C9
:1041800000964A4644F22C03FDF704FDACE79DF887
:1041900013100391384600F099FE039900964A46A1
:1041A0000023FDF7F7FC9FE79DF8131003913846B5
:1041B00000F08CFE039900964A464FF0A073FDF77D
:1041C000E9FC91E7400100204D400108E092010820
:1041D0001C9301082DE9F043044685B01A49007884
:1041E0003422FDF757F894F80890D4F80480E76873
:1041F000B9F1000202AE054618BF01224146304621
:1042000002F036FF96E8030005F114036E4683E8DA
:10421000030001223946304602F09EFE96E8030074
:1042200005F10C0383E80300B9F1000F08BF012377
:1042300022692A6218BF1123B84508BF43F0200342
:104240002B7705B0BDE8F083D541010838B50446A9
:1042500000F10C0393E8030002F0AEFE637F94F8D4
:104260001CC094F81FE0656A0133DBB28CF0010CCE
:10427000734584F81CC00CF0010C29D204EBD30266
:1042800003F0070192F828200A4102F00102944548
:10429000294607D016E092F82820024102F00102D8
:1042A00094450FD10133DBB2734504EBD30203F025
:1042B00007002944EFD3A368064A0B44C4E901234D
:1042C000012038BDA26863770A44A260012038BD8E
:1042D0002946F0E74143010800F10C0310B50446FC
:1042E00093E8030002F068FE03F02AFD637F227F5B
:1042F0000133DBB282F00102012B2277637719D000
:10430000042B05D8A268236A1344A360012010BDC2
:10431000A368626A1A44801A811C226A48BF411D40
:1043200002EBA1011844054A61620844C4E9012076
:10433000012010BDA268801A6062E4E74D420108C6
:1043400010B5837F0446B3B1027F93060AD4A368F5
:10435000606A164A002103EB80036177C4E90123F8
:10436000012010BD00F1140393E8030002F01002D5
:1043700002F04AFEEBE7037F13F0200F00F10C037D
:1043800093E803004FF001020CD102F031FE237FCD
:10439000074803F0300343F009032377FEF7ACFC32
:1043A000002010BD02F0A0FDF1E700BF3944010874
:1043B0004401002000F1140310B5044693E8030003
:1043C00002F07EFE637F04EBD30C012203F00701B1
:1043D00002FA01F19CF8282078B10A43D2B28CF895
:1043E0002820A27F0133DBB29A4209D9A268616A10
:1043F00063770A44A260012010BD22EA0102EEE7C1
:10440000237F13F0200F04F10C0393E803004FF017
:1044100001020CD102F0ECFD237F064803F03003CB
:1044200043F009032377FEF767FC002010BD02F07C
:104430005BFDF1E74401002000F1140310B50446D0
:1044400093E8030002F03CFE237F68B143F00403CD
:104450002377637F5A1C3F2B62770FD8A368626A69
:1044600013440120A36010BD5B07F2D56077114BA8
:1044700063602046BDE81040FFF79CBF237F002209
:10448000A27713F0200F04F10C0393E803004FF020
:1044900001020CD002F028FD237F074803F030030F
:1044A00043F009032377FEF727FC002010BD02F03C
:1044B0009FFDF1E7B543010844010020F8B5264906
:1044C00005460078FCF7C6FE037F13F0020604469B
:1044D00000D0F8BDA8682F79FDF76AFA0A2F2D7B66
:1044E000014631D80A2D2FD83A4604F1280004F0AD
:1044F000D5FA237F667703F0310343F00203ED0022
:104500002377FB00E377A5772FB194F8283003F0E9
:104510003F032A2B15D0226A104B6262636003F0BE
:10452000C5FB03F00DFC0546C82003F001FC284440
:10453000A06033212046FEF765FCBDE8F84003F09B
:10454000B7BB074B6360EAE7064B074802221A60D5
:1045500000F03EFAFEF720FCD54101084D4201086B
:10456000D9420108480100203893010870B5184865
:1045700082B0FEF7C9FB48B3FF23164D164E8DF8E7
:10458000073029460DF10700FCF7B0FE0446E8B1FC
:10459000237F1B07F5D503F089FB237F23F0080356
:1045A000237703F085FB304600F090FCA27F9DF856
:1045B000071004F12803D208FDF7ECFA29460DF1A3
:1045C0000700FCF793FE04460028E1D102B070BD5D
:1045D00044010020D54101085093010830B583B053
:1045E000FF23114D8DF8073008E003C902F07CFC71
:1045F000237F03F0300343F00103237729460DF1B5
:104600000700FCF773FE00F10C01012204460B4683
:1046100040B1207F8006E8D493E80300012202F035
:10462000E7FCE5E703B030BDD541010810B504460D
:10463000074894F8203043F0040384F82030FEF754
:104640005BFBA368A26913440120A36010BD00BFF7
:104650004C01002008B5242204490078FCF71AFE1A
:10466000034A044B4260036108BD00BF5546010880
:104670002D460108C146010870B590F82030DA07D0
:1046800004460E4619D5C06984F8211023F00503AD
:1046900043F0040384F8203050B10025D0E9002312
:1046A0003146E261C0E900559847E0690028F5D13C
:1046B000BDE870400148FEF71FBB70BD4C010020F3
:1046C00008B503460C38997DFFF7D6FF002008BDDA
:1046D0000149FCF7BFBD00BF5546010870B50C4647
:1046E0000546164603F0E6FA636843B93EB1EB6946
:1046F000C4E90036EC61BDE8704003F0DFBA044B5A
:10470000044801221A6000F063F9FEF745FB00BF80
:10471000480100207493010838B51A49054600780D
:10472000FCF798FD044603F0C1FA2046FEF758FA5C
:1047300004F10C00FEF754FAE36933B100211A4684
:104740001B68C2E90011002BF9D100220123238448
:1047500084F822206B68A360AB68C4E9063233B9E1
:10476000EB6884F82230BDE8384003F0A1BA204657
:104770001D21FEF747FBEB6884F82230BDE8384086
:1047800003F096BA5546010830B5114983B0054685
:104790000078FCF75FFD044603F088FA94F82030B7
:1047A000DB0704D403B0BDE8304003F081BA04F164
:1047B0000C000190FEF714FA6B68019863611C21EC
:1047C000FEF720FB03B0BDE8304003F071BA00BF34
:1047D0005546010870B50678134984B00546304641
:1047E000FCF738FD044603F061FA29792046FFF70B
:1047F00043FF2046FEF7F4F9002504F10C00FEF714
:10480000EFF994F8213084F82050039303F050FA24
:10481000064800F05BFB039B00952A463146FDF7F6
:10482000B9F904B070BD00BF554601089C9301085A
:104830002DE9F0411E4886B0FEF766FAA0B3FF23CB
:104840001C4E1D4F8DF8173031460DF11700FCF747
:104850004DFD044640B394F820305B07F4D503F0D7
:104860006FFA054603F022FA94F8208094F821307C
:10487000039328F0040284F8202003F019FA9DF82D
:1048800017100291384600F021FB039B0299009516
:1048900008F00102FDF77EF931460DF11700FCF733
:1048A00025FD04460028D6D106B0BDE8F08100BF42
:1048B0004C010020554601089C93010870B5144E28
:1048C00082B0FF2331460DF107008DF80730FCF769
:1048D0000DFD00240546C8B1FEF782F905F10C0074
:1048E000FEF77EF9EB692BB11A461B68C2E900445A
:1048F000002BF9D1EC612C8485F8224031460DF172
:104900000700FCF7F3FC05460028E5D102B070BDB6
:104910005546010808B5FCF7EDFBFDF753FE02F024
:10492000D5FE03F041FABDE8084003F0B3B800BF7C
:1049300008B5FDF745F9FCF765FCFDF73BFDFFF712
:1049400057FBFFF7BBFFFCF79DFBFFF7F5F8FEF702
:10495000DDF8FFF743FE03F0BBF9BDE8084003F0C4
:1049600021BA00BF08B503F0B1F9FFF761FF03F00A
:10497000ADF9FCF739FB03F0A9F9FCF7DDFF03F013
:10498000A5F9FFF7F3FD03F0A1F9FDF7CBFF03F065
:104990009DF9FFF799FB03F099F9FEF797FB03F0F8
:1049A00095F9FEF73FFD03F091F900F093FF03F056
:1049B0008DF902F083FE03F089F903F07DFA03F02C
:1049C00085F903F0C3F8BDE8084003F07FB900BFE4
:1049D00010B5C5490446FCF759FA002800F00482D6
:1049E000C2492046FCF752FA002800F0FB81C0497A
:1049F0002046FCF74BFA002800F0FA81BD4920461A
:104A0000FCF744FA002800F0F181BB492046FCF78E
:104A10003DFA002800F0EE81B8492046FCF736FA4E
:104A2000002800F0EB81B6492046FCF72FFA002859
:104A300000F0E681B3492046FCF728FA002800F090
:104A4000DB81B1492046FCF721FA002800F0DA8129
:104A5000AE492046FCF71AFA002800F0D581AC498F
:104A60002046FCF713FA002800F0D081A94920461F
:104A7000FCF70CFA002800F0CB81A7492046FCF790
:104A800005FA002800F0C681A4492046FCF7FEF98B
:104A9000002800F0C181A2492046FCF7F7F9002860
:104AA00000F0BC819F492046FCF7F0F9002800F097
:104AB000B7819D492046FCF7E9F9002800F0B28152
:104AC0009A492046FCF7E2F9002800F0AD819849A8
:104AD0002046FCF7DBF9002800F0A8819549204624
:104AE000FCF7D4F9002800F0A38193492046FCF795
:104AF000CDF9002800F0A08190492046FCF7C6F9C6
:104B0000002800F097818E492046FCF7BFF9002865
:104B100000F0D8818B492046FCF7B8F9002800F056
:104B2000CF8189492046FCF7B1F9002800F0C68101
:104B300086492046FCF7AAF9002800F0BD81844987
:104B40002046FCF7A3F9002800F0B48181492046F3
:104B5000FCF79CF9002800F0AB817F492046FCF768
:104B600095F9002800F0A2817C492046FCF78EF9D7
:104B7000002800F099817A492046FCF787F900283F
:104B800000F0908177492046FCF780F9002800F07A
:104B9000878175492046FCF779F9002800F07E816D
:104BA00072492046FCF772F9002800F075817049BF
:104BB0002046FCF76BF9002800F06C816D49204617
:104BC000FCF764F9002800F063816B492046FCF78C
:104BD0005DF9002800F05A8168492046FCF756F933
:104BE000002800F0518166492046FCF74FF9002863
:104BF00000F0488163492046FCF748F9002800F09E
:104C00003F8161492046FCF741F9002800F03681D8
:104C10005E492046FCF73AF9002800F02D815C49F6
:104C20002046FCF733F9002800F02481594920463A
:104C3000FCF72CF9002800F01B8157492046FCF7AF
:104C400025F9002800F0128154492046FCF71EF98E
:104C5000002800F0098152492046FCF717F9002886
:104C600000F000814F492046FCF710F9002800F0C1
:104C7000F7804D492046FCF709F9002800F0EE8046
:104C80004A492046FCF702F9002800F0E58048492F
:104C90002046FCF7FBF8002800F0DC804549204660
:104CA000FCF7F4F8002800F0D38043492046FCF7D5
:104CB000EDF8002800F0CA8040492046FCF7E6F8ED
:104CC000002800F0C1803E492046FCF7DFF80028AC
:104CD00000F0B8803B492046FCF7D8F8002800F0E7
:104CE000AF803949204671E0289101084C910108B4
:104CF00010910108188E0108008E0108E88D010846
:104D0000948C0108DC930108D08B0108BC8B01084E
:104D1000A88B0108248C0108648B0108948B01087E
:104D2000388C0108808B01082C8F0108BC8E01088B
:104D3000F48E0108908E01087892010860920108B3
:104D40004892010874930108208B01080892010819
:104D50008C8F0108788F0108688F01085C8F01082B
:104D60005C9001088C900108988D0108708D0108F5
:104D70005C8D010838930108DC8F0108C08F0108A1
:104D80001C930108C0920108AC91010890910108A0
:104D9000089401081C940108309401084C940108FF
:104DA000689401088094010894940108A89401086B
:104DB000C8940108E0940108EC94010808950108E2
:104DC0001C9501082C95010840950108FCF75EF838
:104DD000A0B33D492046FCF759F8002814BFFF2036
:104DE0003B2010BD032010BD022010BD052010BDCA
:104DF000042010BD062010BD092010BD072010BDE5
:104E0000082010BD0A2010BD0B2010BD0C2010BDC5
:104E10000D2010BD0E2010BD0F2010BD102010BDA4
:104E2000112010BD122010BD132010BD142010BD84
:104E3000152010BD172010BD162010BD3A2010BD42
:104E4000392010BD382010BD372010BD362010BDD0
:104E5000352010BD342010BD332010BD322010BDD0
:104E6000312010BD302010BD2F2010BD2E2010BDD0
:104E70002D2010BD2C2010BD2B2010BD2A2010BDD0
:104E8000292010BD282010BD272010BD262010BDD0
:104E9000252010BD242010BD232010BD222010BDD0
:104EA000212010BD202010BD1F2010BD1E2010BDD0
:104EB0001D2010BD1C2010BD1B2010BD1A2010BDD0
:104EC000192010BD182010BD6C95010810B57F4940
:104ED0000446FBF7DBFF002800F0C0807C49204639
:104EE000FBF7D4FF002800F0B7807A492046FBF793
:104EF000CDFF002800F0B68077492046FBF7C6FFBB
:104F0000002800F0AD8075492046FBF7BFFF002860
:104F100000F0AA8072492046FBF7B8FF002800F095
:104F2000A78070492046FBF7B1FF002800F0A2805F
:104F30006D492046FBF7AAFF002800F097806B49D7
:104F40002046FBF7A3FF002800F096806849204622
:104F5000FBF79CFF002800F0918066492046FBF794
:104F600095FF002800F08C8063492046FBF78EFFF8
:104F7000002800F0878061492046FBF787FF002862
:104F800000F082805E492046FBF780FF00287DD03C
:104F90005C492046FBF77AFF002879D05A49204621
:104FA000FBF774FF002875D058492046FBF76EFFC9
:104FB000002871D056492046FBF768FF00286DD0C5
:104FC00054492046FBF762FF002869D05249204629
:104FD000FBF75CFF002865D050492046FBF756FFE1
:104FE000002863D04E492046FBF750FF00285BD0D5
:104FF0004C492046FBF74AFF002865D04A49204625
:10500000FBF744FF00285DD048492046FBF73EFFF0
:10501000002855D046492046FBF738FF00284DD0E0
:1050200044492046FBF732FF002845D0424920463C
:10503000FBF72CFF00283DD040492046FBF726FF18
:10504000002835D03E492046FBF720FF3D4B002885
:105050000CBF1846002010BD3B4810BD3B4810BD9A
:105060003B4810BD3B4810BD3B4810BD3B4810BD00
:105070003B4810BD3B4810BD3B4810BD3B4810BDF0
:105080003B4810BD3B4810BD3B4810BD3B4810BDE0
:105090003B4810BD3B4810BD3B4810BD3B4810BDD0
:1050A0003B4810BD3B4810BD3B4810BD3B4810BDC0
:1050B0003B4810BD3B4810BD3B4810BD3B4810BDB0
:1050C0003B4810BD3B4810BD3B4810BD5C910108FA
:1050D000EC90010868910108B89001083C8D010826
:1050E000F48C01081C8D0108CC8C0108E08C0108AF
:1050F000A48C0108748C01085C8C01084C8C01089C
:10510000E88B0108448E0108308E0108A092010846
:10511000548E01089C930108348B01081C920108ED
:10512000988F0108BC8D010850930108FC8F01087D
:1051300020900108E0920108CC91010880950108B7
:10514000E8950108509601086096010858960108F4
:1051500070960108689601087896010890960108F3
:10516000809601088896010898960108189601080B
:10517000A0960108A8960108B0960108B896010803
:10518000C0960108C8960108D0960108D896010873
:10519000E0960108E8960108F8960108F0960108E3
:1051A0004896010840960108389601083096010893
:1051B00028960108209601080097010830B50C4C8C
:1051C00083B00121082003F069F84FF4807541F2A3
:1051D000030301A92046ADF80630ADF8045002F0F3
:1051E000C3FE2946204602F027FF03B030BD00BFB2
:1051F000000C01404348444AD0F88810434B41F426
:10520000700110B4C0F88810116841F001011160FC
:10521000546823405360136823F0847323F480336D
:105220001360136823F480231360536823F00F6323
:1052300000204FF41F0123F470235360D0621063E9
:105240009160D3693249334843F08053D361CB68CE
:1052500043F00103CB60D36923F08053D36101682D
:1052600041F090010160116841F480314FF6FF7305
:10527000116001E0013B02D011688803FAD5224B8E
:105280001A68910339D5234A116821F0030111608E
:10529000116841F0040111605A685A605A6842F47A
:1052A00000525A605A6842F4A0625A605A6822F06A
:1052B000036222F470225A605A6842F0016242F49A
:1052C00070225A601A6842F080721A601A6892015D
:1052D000FCD559680C4A21F003015960596841F026
:1052E00002015960536803F00C03082BFAD1054BF7
:1052F000094A5DF8044B9A607047084B084A1A60E7
:10530000F5E700BF00ED00E00010024000C0FFF82C
:10531000007000400020024000000108380000201A
:1053200000127A00704700BFFEE700BFFEE700BF33
:10533000FEE700BFFEE700BF704700BF704700BF39
:1053400068B500F108030646002293E8030001F067
:10535000CBFD756A02F0F4FC054402F0F1FC29462D
:1053600002F0EAFC0028F8D106F1100393E80300EC
:10537000012201F049FE756A02F0E2FC054402F0E8
:10538000DFFC294602F0D8FC0028F8D1183696E850
:1053900003000122BDE8684001F036BE2DE9F84364
:1053A00005460E46082700F1180900F110083306DB
:1053B0005ED405F1080393E80300002201F094FD98
:1053C0006C6A02F0BDFC7600F6B2044402F0B8FC50
:1053D000214602F0B1FC0028F8D198E80300012230
:1053E00001F012FE6C6A02F0ABFC044402F0A8FC6F
:1053F000214602F0A1FC02460028F7D195E80300FF
:1054000001F072FD013FD2D199E80300012201F0C1
:10541000FBFD6E6A02F094FC064402F091FC3146FA
:1054200002F08AFC0028F8D1012298E8030001F07C
:10543000EBFD99E8030001F043FE6E6A074602F0B7
:105440007FFC064402F07CFC314602F075FC02460B
:105450000028F7D195E8030001F046FD99E8030024
:10546000012201F0D1FD381E18BF0120BDE8F883EC
:1054700099E80300012201F0C7FDA1E7B0B5476A32
:1054800004460D4602F05CFC074402F059FC394624
:1054900002F052FC0028F8D104F1180393E803004D
:1054A000012201F0B1FD04F1100393E80300012291
:1054B00001F0AAFD676A02F043FC074402F040FCD9
:1054C000394602F039FC02460028F7D104F10803FE
:1054D00093E8030001F008FD676A02F031FC07441D
:1054E00002F02EFC394602F027FC0028F8D10246D3
:1054F00094E8030001F0F8FC29462046FFF74EFF30
:10550000012808BF0320B0BD2DE9F041054684B055
:105510000078FCF78DFF80462820FBF7F7FD4FF45D
:10552000347343622B695B0002AF80F8203004467D
:1055300069683846012201F09BFD97E8030004F1F9
:10554000100383E803006E4669683046012201F0CB
:1055500003FD96E8030084E803000122A9683846A9
:1055600001F086FD97E8030004F1180383E80300C7
:105570000122A968304601F0EFFC96E8030004F12F
:10558000080383E803002146404604B0BDE8F0412B
:10559000FCF774BFF8B50E4690F820100546144687
:1055A000FFF76CFF074648B9264404E014F8011BD6
:1055B000FFF7F4FE38B9B4422846F7D12846FFF782
:1055C000BFFE3846F8BD07462846FFF7B9FE384605
:1055D000F8BD00BF2DE9F04B064682B014461F46C9
:1055E0000D4699B190F82010FFF748FF0190002870
:1055F00040F08D80254414F8011B3046FFF7CEFEA5
:105600000190002840F08380A542F4D196F8201044
:10561000304641F00101FFF731FF0190002840F0D2
:10562000858007F1FF3B5FFA8BF30093002F6ED06C
:1056300006F1180806F1100998E80300012201F0AC
:10564000E3FC08270025746A02F07AFB044402F0A8
:1056500077FB214602F070FB0028F8D199E803009F
:10566000012201F0D1FC746A02F06AFB044402F0EA
:1056700067FB214602F060FB83460028F7D198E8DB
:10568000030001F01DFD6D00EDB205435A4696E89A
:10569000030001F029FC013FEDB2D4D198E80300EA
:1056A000012201F0B1FC009B002B37D198E80300E8
:1056B000012201F0A9FC746A02F042FB044402F0EA
:1056C0003FFB214602F038FB0028F8D199E803009F
:1056D000012201F099FC746A02F032FB044402F0EA
:1056E0002FFB214602F028FB02460028F7D196E85E
:1056F000030001F0F9FB009B0A9A03F1FF3B5FFAFC
:105700008BF302F8015BFF2B00930A9294D1304691
:10571000FFF716FE019802B0BDE8F08B06F1080312
:1057200093E803003A4601F0DFFBC4E7042301934A
:10573000EDE700BF70B51349044650220078FBF72F
:10574000A9FDA668104B436005465EB1012E0FD13E
:105750002079FCF76DFE2E752861E368012B0CD8CB
:10576000AB7570BD2079FEF7FBF82E752861F4E764
:105770000648FFF72DF9FDF70FFB0548FFF728F95D
:10578000FDF70AFB35570108955701081C940108DD
:105790000894010808B5034604485A7D42F0010206
:1057A0005A75FDF7A9FA002008BD00BF500100207E
:1057B00038B5114905460078FBF74CFD0446FDF766
:1057C0000FFA002363756A6802B938BDE260E375B9
:1057D00004F1180000F050F902F068FA02F0B0FA93
:1057E000E3681844A06003212046FDF70BFBBDE8E9
:1057F000384002F05DBA00BF35570108F0B53449B2
:1058000085B005460078FBF725FD077D002304469B
:105810008DF80B30BFB1012F3ED0827D012A194691
:105820001E4632D001F03F0101EB41014900C9B2EF
:105830000A46E1752978009204F11800324600F01A
:1058400039F905B0F0BDAF23ADF80C3002F078FAAD
:10585000012103AB022206462069FEF7D7F802F0C9
:105860006FFA9DF80D108DF80B100746480642BFE1
:10587000628B01326283A27D012AA7EB0603D1D19C
:105880008A0602D500210A46D3E701F01F0101EB89
:10589000410149000A46CCE72F238DF80C3002F075
:1058A0004FFA2369064618460DF10B03394603AA41
:1058B00000933B46FCF732FE074602F041FA0346EE
:1058C00038461F46FCF7E0FD9DF80B10CEE700BF01
:1058D000355701082DE9F041654890B0FDF714FAFD
:1058E00080B1FF23634D624E8DF80A3002E0637D84
:1058F000D8070AD429460DF10A00FBF7F7FC044645
:105900000028F4D110B0BDE8F081E37D9DF80A7065
:105910002F2B15D9217D002951D001297BD030238F
:105920002377394604F1180000F0ACF8E37D303BF2
:10593000DBB22F2BE37516D93046FDF7DDF9D9E739
:10594000227D00238DF80B30FAB1012A7ED0A27D92
:10595000012A75D003F03F0303EB43035B00DBB286
:105960002F2BE375D6D8637D23F00103637502F016
:105970009DF902F0E5F9E3681844A0600321204690
:10598000FDF740FA02F094F9B4E7AF23ADF80C301C
:10599000206903AB02220121FEF738F89DF80D3093
:1059A0008DF80B30590602D5628B01326283A27DDD
:1059B000012ACFD19A0643D50023E375D3E72D22E0
:1059C00004A8039103F092F8A8238DF80C30A37D6E
:1059D000012B04BFE8238DF80C30312203AB206982
:1059E0000121FEF713F80DF13D080DF10D0304F14F
:1059F0001D02D3F800C058689968D3F80CE0C2F8CB
:105A00000CE010334345C2F800C05060916002F1D1
:105A10001002EED183E728238DF80C30A37D012BF3
:105A200004BFA8238DF80C3004F11D0320690093F6
:105A300003AA30230121FCF771FDFCF725FD6EE779
:105A400003F01F0303EB43035B0089E72F238DF86B
:105A50000C300DF10B03114620690093134603AA85
:105A6000FCF75CFDFCF710FD9DF80B309AE700BFDA
:105A70005001002035570108002303804380037143
:105A8000704700BF10B584B0044609480391FFF782
:105A90001DFA2346039933F8052B00932379FCF76D
:105AA00079F82388002201332271238004B010BDCD
:105AB000E895010870B5044688B00A480593CDE919
:105AC0000621FFF703FA25790C9E079935440195C5
:105AD0006588029524880094DDE90532FCF75AF8C0
