:020000040801F1
:1000000000000220BD7E0108455301084953010844
:100010004D530108515301085553010800000000D9
:10002000000000000000000000000000595301081B
:100030005D53010800000000057F0108A17D010853
:10004000057F0108057F0108057F0108057F01087C
:10005000057F0108057F0108057F0108057F01086C
:10006000057F0108057F0108057F0108057F01085C
:1000700095660108C1660108057F0108D55B010886
:10008000057F0108057F0108057F0108057F01083C
:10009000057F0108057F0108057F0108057F01082C
:1000A000057F0108057F0108057F0108057F01081C
:1000B000057F0108057F0108A9670108057F010880
:1000C000057F0108057F0108057F0108057F0108FC
:1000D000057F0108F1790108057F0108E56601083F
:1000E000057F0108057F0108057F0108057F0108DC
:1000F000057F0108057F0108057F0108057F0108CC
:10010000057F0108057F0108057F0108057F0108BB
:10011000057F0108057F0108057F0108057F0108AB
:10012000057F0108057F0108057F0108057F01089B
:10013000057F0108057F0108057F0108057F01088B
:10014000057F0108057F0108057F0108057F01087B
:10015000057F0108057F0108057F0108057F01086B
:10016000057F0108057F0108057F0108057F01085B
:10017000057F0108057F0108057F0108057F01084B
:08018000057F0108057F01085D
:1001900010B5054C237833B9044B13B10448AFF3C1
:1001A00000800123237010BD4C00002000000000DF
:1001B0009C8A010808B5034B1BB103490348AFF300
:1001C000008008BD00000000500000209C8A01084B
:1001D00081F0004102E000BF83F0004330B54FEAF8
:1001E00041044FEA430594EA050F08BF90EA020F65
:1001F0001FBF54EA000C55EA020C7FEA645C7FEAF8
:10020000655C00F0E2804FEA5454D4EB5555B8BF1A
:100210006D420CDD2C4480EA020281EA030382EA8B
:10022000000083EA010180EA020281EA0303362D1D
:1002300088BF30BD11F0004F4FEA01314FF4801CF0
:100240004CEA113102D0404261EB410113F0004F02
:100250004FEA03334CEA133302D0524263EB4303B9
:1002600094EA050F00F0A780A4F10104D5F1200E57
:100270000DDB02FA0EFC22FA05F2801841F10001B2
:1002800003FA0EF2801843FA05F359410EE0A5F186
:1002900020050EF1200E012A03FA0EFC28BF4CF0B7
:1002A000020C43FA05F3C01851EBE37101F000456D
:1002B00007D54FF0000EDCF1000C7EEB00006EEB7A
:1002C0000101B1F5801F1BD3B1F5001F0CD3490804
:1002D0005FEA30004FEA3C0C04F101044FEA44525B
:1002E00012F5800F80F09A80BCF1004F08BF5FEAE2
:1002F000500C50F1000041EB045141EA050130BDC2
:100300005FEA4C0C404141EB0101013C28BFB1F5D3
:10031000801FE9D291F0000F04BF01460020B1FA1E
:1003200081F308BF2033A3F10B03B3F120020CDAF1
:100330000C3208DD02F1140CC2F10C0201FA0CF0CF
:1003400021FA02F10CE002F11402D8BFC2F1200C34
:1003500001FA02F120FA0CFCDCBF41EA0C019040EA
:10036000E41AA2BF01EB0451294330BD6FEA040433
:100370001F3C1CDA0C340EDC04F11404C4F120021E
:1003800020FA04F001FA02F340EA030021FA04F330
:1003900045EA030130BDC4F10C04C4F1200220FA87
:1003A00002F001FA04F340EA0300294630BD21FAC5
:1003B00004F0294630BD94F0000F83F4801306BF8B
:1003C00081F480110134013D4EE77FEA645C18BF7F
:1003D0007FEA655C29D094EA050F08BF90EA020F16
:1003E00005D054EA000C04BF1946104630BD91EA0E
:1003F000030F1EBF0021002030BD5FEA545C05D111
:100400004000494128BF41F0004130BD14F580044F
:100410003CBF01F5801130BD01F0004545F0FE41C3
:1004200041F470014FF0000030BD7FEA645C1ABFF8
:10043000194610467FEA655C1CBF0B46024650EA2F
:10044000013406BF52EA033591EA030F41F400215B
:1004500030BD00BF90F0000F04BF0021704730B5E1
:100460004FF4806404F132044FF000054FF00001B6
:1004700050E700BF90F0000F04BF0021704730B577
:100480004FF4806404F1320410F0004548BF40424C
:100490004FF000013EE700BF42004FEAE2014FEAA1
:1004A00031014FEA02701FBF12F07F4393F07F4F7C
:1004B00081F06051704732F07F4208BF704793F07F
:1004C0007F4F04BF41F40021704730B54FF4607492
:1004D00001F0004521F000411CE700BF50EA010295
:1004E00008BF704730B54FF000050AE050EA01023E
:1004F00008BF704730B511F0004502D5404261EBAE
:1005000041014FF4806404F132045FEA915C3FF4EE
:10051000D8AE4FF003025FEADC0C18BF03325FEA8B
:10052000DC0C18BF033202EBDC02C2F1200300FA3C
:1005300003FC20FA02F001FA03FE40EA0E0021FA61
:1005400002F11444BDE600BF70B54FF0FF0C4CF44F
:10055000E06C1CEA11541DBF1CEA135594EA0C0F01
:1005600095EA0C0F00F0DEF82C4481EA030621EA3C
:100570004C5123EA4C5350EA013518BF52EA033577
:1005800041F4801143F4801338D0A0FB02CE4FF029
:100590000005E1FB02E506F00042E0FB03E54FF059
:1005A0000006E1FB03569CF0000F18BF4EF0010E51
:1005B000A4F1FF04B6F5007F64F5407404D25FEA4D
:1005C0004E0E6D4146EB060642EAC62141EA555100
:1005D0004FEAC52040EA5E504FEACE2EB4F1FD0C42
:1005E00088BFBCF5E06F1ED8BEF1004F08BF5FEAC0
:1005F000500E50F1000041EB045170BD06F0004672
:1006000046EA010140EA020081EA0301B4EB5C041E
:10061000C2BFD4EB0C0541EA045170BD41F4801116
:100620004FF0000E013C00F3AB8014F1360FDEBF3B
:10063000002001F0004170BDC4F10004203C35DA17
:100640000C341BDC04F11404C4F1200500FA05F39A
:1006500020FA04F001FA05F240EA020001F000423B
:1006600021F0004110EBD37021FA04F642EB0601B1
:100670005EEA430E08BF20EAD37070BDC4F10C04DB
:10068000C4F1200500FA04F320FA05F001FA04F29F
:1006900040EA020001F0004110EBD37041F100018B
:1006A0005EEA430E08BF20EAD37070BDC4F1200596
:1006B00000FA05F24EEA020E20FA04F301FA05F2FE
:1006C00043EA020321FA04F001F0004121FA04F2A6
:1006D00020EA020000EBD3705EEA430E08BF20EA76
:1006E000D37070BD94F0000F0FD101F000464000B0
:1006F00041EB010111F4801F08BF013CF7D041EA32
:10070000060195F0000F18BF704703F00046520035
:1007100043EB030313F4801F08BF013DF7D043EA06
:100720000603704794EA0C0F0CEA135518BF95EABC
:100730000C0F0CD050EA410618BF52EA4306D1D143
:1007400081EA030101F000414FF0000070BD50EA62
:10075000410606BF1046194652EA430619D094EAEC
:100760000C0F02D150EA013613D195EA0C0F05D1D6
:1007700052EA03361CBF104619460AD181EA03012A
:1007800001F0004141F0FE4141F470014FF00000E2
:1007900070BD41F0FE4141F4780170BD70B54FF07D
:1007A000FF0C4CF4E06C1CEA11541DBF1CEA1355FD
:1007B00094EA0C0F95EA0C0F00F0A7F8A4EB0504DF
:1007C00081EA030E52EA03354FEA013100F08880D6
:1007D0004FEA03334FF0805545EA131343EA12639F
:1007E0004FEA022245EA111545EA10654FEA002654
:1007F0000EF000419D4208BF964244F1FD0404F50D
:10080000407402D25B084FEA3202B61A65EB030568
:100810005B084FEA32024FF480104FF4002CB6EB25
:10082000020E75EB030E22BFB61A754640EA0C00A5
:100830005B084FEA3202B6EB020E75EB030E22BFE5
:10084000B61A754640EA5C005B084FEA3202B6EB26
:10085000020E75EB030E22BFB61A754640EA9C00E5
:100860005B084FEA3202B6EB020E75EB030E22BFB5
:10087000B61A754640EADC0055EA060E18D04FEA73
:10088000051545EA16754FEA06164FEAC30343EA13
:1008900052734FEAC2025FEA1C1CC0D111F4801FE0
:1008A0000BD141EA00014FF000004FF0004CB6E7D9
:1008B00011F4801F04BF01430020B4F1FD0C88BF78
:1008C000BCF5E06F3FF6AFAEB5EB030C04BFB6EB83
:1008D000020C5FEA500C50F1000041EB045170BD76
:1008E0000EF0004E4EEA113114EB5C04C2BFD4EBA3
:1008F0000C0541EA045170BD41F480114FF0000E27
:10090000013C90E645EA060E8DE60CEA135594EAA2
:100910000C0F08BF95EA0C0F3FF43BAF94EA0C0FA5
:100920000AD150EA01347FF434AF95EA0C0F7FF41A
:1009300025AF104619462CE795EA0C0F06D152EA6E
:1009400003353FF4FDAE1046194622E750EA410652
:1009500018BF52EA43067FF4C5AE50EA41047FF463
:100960000DAF52EA43057FF4EBAE12E74FF0FF3CC8
:1009700006E000BF4FF0010C02E000BF4FF0010C99
:100980004DF804CD4FEA410C7FEA6C5C4FEA430C12
:1009900018BF7FEA6C5C1BD001B050EA410C0CBF61
:1009A00052EA430C91EA030F02BF90EA020F0020C3
:1009B000704710F1000F91EA030F58BF994208BF2A
:1009C00090422CBFD8176FEAE37040F001007047E7
:1009D0004FEA410C7FEA6C5C02D150EA013C07D13E
:1009E0004FEA430C7FEA6C5CD6D152EA033CD3D089
:1009F0005DF8040B704700BF8446104662468C4683
:100A00001946634600E000BF01B5FFF7B7FF0028B5
:100A100048BF10F1000F01BD4DF808EDFFF7F4FFDE
:100A20000CBF012000205DF808FB00BF4DF808ED69
:100A3000FFF7EAFF34BF012000205DF808FB00BF8C
:100A40004DF808EDFFF7E0FF94BF012000205DF8AE
:100A500008FB00BF4DF808EDFFF7CEFF94BF012063
:100A600000205DF808FB00BF4DF808EDFFF7C4FF5C
:100A700034BF012000205DF808FB00BF4FEA4102AF
:100A800012F5001215D211D56FF47873B3EB6252E0
:100A900012D94FEAC12343F0004343EA505311F007
:100AA000004F23FA02F018BF404270474FF0000099
:100AB000704750EA013005D111F0004008BF6FF0D7
:100AC000004070474FF00000704700BF53B94AB96B
:100AD000002908BF00281CBF4FF0FF314FF0FF3046
:100AE00000F074B9ADF1080C6DE904CE00F006F821
:100AF000DDF804E0DDE9022304B070472DE9F0479A
:100B0000089D04468E46002B4DD18A42944669D9F1
:100B1000B2FA82F252B101FA02F3C2F1200120FAD4
:100B200001F10CFA02FC41EA030E94404FEA1C4822
:100B3000210CBEFBF8F61FFA8CF708FB16E341EA1E
:100B4000034306FB07F199420AD91CEB030306F1A4
:100B5000FF3080F01F81994240F21C81023E6344C5
:100B60005B1AA4B2B3FBF8F008FB103344EA034469
:100B700000FB07F7A7420AD91CEB040400F1FF337E
:100B800080F00A81A74240F207816444023840EABB
:100B90000640E41B00261DB1D4400023C5E90043F4
:100BA0003146BDE8F0878B4209D9002D00F0EF8077
:100BB0000026C5E9000130463146BDE8F087B3FAAA
:100BC00083F6002E4AD18B4202D3824200F2F98092
:100BD000841A61EB030301209E46002DE0D0C5E995
:100BE000004EDDE702B9FFDEB2FA82F2002A40F0E1
:100BF0009280A1EB0C014FEA1C471FFA8CFE0126E4
:100C0000200CB1FBF7F307FB131140EA01410EFB87
:100C100003F0884208D91CEB010103F1FF3802D22E
:100C2000884200F2CB804346091AA4B2B1FBF7F028
:100C300007FB101144EA01440EFB00FEA64508D94B
:100C40001CEB040400F1FF3102D2A64500F2BB8088
:100C50000846A4EB0E0440EA03409CE7C6F12007D7
:100C6000B34022FA07FC4CEA030C20FA07F401FA1D
:100C700006F31C43F9404FEA1C4900FA06F3B1FBA6
:100C8000F9F8200C1FFA8CFE09FB181140EA01410B
:100C900008FB0EF0884202FA06F20BD91CEB0101A8
:100CA00008F1FF3A80F08880884240F28580A8F100
:100CB00002086144091AA4B2B1FBF9F009FB101152
:100CC00044EA014100FB0EFE8E4508D91CEB0101F0
:100CD00000F1FF346CD28E456AD90238614440EA93
:100CE0000840A0FB0294A1EB0E01A142C846A64613
:100CF00056D353D05DB1B3EB080261EB0E0101FA9C
:100D000007F722FA06F3F1401F43C5E900710026F8
:100D10003146BDE8F087C2F12003D8400CFA02FC4E
:100D200021FA03F3914001434FEA1C471FFA8CFE5E
:100D3000B3FBF7F007FB10360B0C43EA064300FB4E
:100D40000EF69E4204FA02F408D91CEB030300F1EC
:100D5000FF382FD29E422DD9023863449B1B89B2A3
:100D6000B3FBF7F607FB163341EA034106FB0EF32C
:100D70008B4208D91CEB010106F1FF3816D28B42D9
:100D800014D9023E6144C91A46EA004638E72E46A5
:100D9000284605E70646E3E61846F8E64B45A9D29D
:100DA000B9EB020864EB0C0E0138A3E74646EAE70C
:100DB000204694E74046D1E7D0467BE7023B6144BA
:100DC00032E7304609E76444023842E7704700BF23
:100DD00001F0FF01102A2BDB10F0070F08D010F8EC
:100DE000013B013A8B422DD010F0070F42B3F6D1F0
:100DF000F0B441EA012141EA014122F007047FF009
:100E000000070023F0E80256083C85EA010586EA5F
:100E1000010685FA47F5A3FA87F586FA47F6A5FA9B
:100E200087F68EB9EED1F0BC01F0FF0102F00702A7
:100E300032B110F8013B013A83EA010313B1F8D152
:100E40000020704701387047002D06BF3546033833
:100E5000073815F0010F07D1013015F4807F02BF6C
:100E6000013015F4C03F0130F0BC0138704700BFBD
:100E7000EC46A0E8F05F4FF000007047B0E8F05F8C
:100E8000E546080008BF0120704700BF10F8012B9D
:100E900011F8013B012A28BF9A42F7D0D01A7047B7
:100EA00030B583B004466D464168284605F0C8FE5B
:100EB00009492078094C2C2200F0ECF9034695E80A
:100EC000030003F120025C6082E80300012283F842
:100ED0002A2003B030BD00BFA10E0108E10E0108B9
:100EE00038B500F12005044695E8030005F012FF2F
:100EF00020B1A3681844A060012038BD95E8030024
:100F000005F032FF94F82A3094F82B2093421CD23B
:100F1000218B0133DBB2084480B29A42208384F8EB
:100F20002A3018D8638B83421BD8A38B834218D3F3
:100F3000002384F82830134801F03AFF6369E2681F
:100F400013446361A360012038BD01239A422083CA
:100F500084F82A30E6D9A36822691344A3600120EB
:100F600038BD94F8283094F829200133DBB29A4236
:100F700084F82830DFD8044803F086FD01F094FFA0
:100F8000D6E700BF6C000020C08A010838B51549BB
:100F90000546007800F05EF9044601F07DFE04F19C
:100FA000200393E8030005F035FF6B686361A360DD
:100FB000AB6823612B7B84F82B305A1C84F82A20E1
:100FC0002A69E260D5E90501EA6984F8292060838D
:100FD000A18303B938BD20461F21BDE8384001F088
:100FE0006DBF00BFA10E01082DE9F041214884B07A
:100FF00001F0E6FE30B3FF231F4D204F204E8DF849
:101000000F3029460DF10F0000F070F90446C8B109
:1010100094F82A2094F82B309A42F2D106F01CFE64
:1010200094F82B3094F82A20934203F101010CD05C
:1010300006F014FE29460DF10F0000F057F90446A2
:101040000028E5D104B0BDE8F0816269B4F81880E9
:1010500084F82A10019206F001FE3046A7F80080BD
:1010600003F044FF019A9DF80F10434600F096FDEF
:10107000C7E700BF6C000020A10E01086800002037
:10108000D48A010830B583B0FF23124D8DF80730A4
:1010900006E093E8030005F0BDFE94F82B305BB941
:1010A00029460DF1070000F021F9044600F1200364
:1010B0000028EED103B030BD6269E16801330A4413
:1010C00084F82A306261A2600021204601F0F6FE19
:1010D000E6E700BFA10E010808B5044B04482B2227
:1010E0001A6003F0D1FC01F0B3FE00BF48010020FC
:1010F000048B010808B506F0A7FD034B033020F070
:101100000300186008BD00BF7000002070B50E4ECF
:10111000336804461D1806F09BFD85420CD83568DF
:10112000E31C23F003032B442246002128463360AE
:1011300007F0ACFC284670BD044B054828221A6015
:1011400003F0A2FC01F084FE7000002048010020A2
:10115000208B0108024B1A6802601860704700BFBC
:101160008000002010B506F07BFD084B1C682CB1F8
:1011700022681A6006F078FD204610BD044B054831
:101180002A221A6003F080FC01F062FE8000002039
:1011900048010020348B01080068B0FA80F0400953
:1011A000704700BF0068704703460A680020186057
:1011B0001AB14A6813604B607047C1E900330120DF
:1011C000704700BF03681A6802601846704700BF86
:1011D00000230360704700BF08B5FF294FF00003EC
:1011E000C0E9003308DC054B1B882BB9044B1A7887
:1011F0008A42B8BF197008BDFFF76EFF7C0000205F
:10120000840000200F4B188810B4A0B1013815D00D
:101210000D4A0E4B146893F800C00022234619466D
:101220000132634482420B60F9D102FB0C42084B4D
:10123000002111601C605DF8044B7047024B1C6874
:101240002246F4E77C000020880000208400002073
:101250008000002008B50B4B1B78834209D90A4B4C
:101260001B6853F830208A4203EBC00001D140686C
:1012700008BD064B06482D221A6003F005FC01F05C
:10128000E7FD00BF8C0000209000002048010020F6
:10129000488B010870B5104B1C7803469C421046E1
:1012A00011D90E4D1AB2DC002B6853F8326056B9D2
:1012B0000B4E36883EB943F83210FFF727FF2B68F4
:1012C0002344586070BD074B07482E221A6003F074
:1012D000DBFB01F0BDFD00BF8C0000209000002072
:1012E0007C000020480100205C8B010830B50E4ACC
:1012F00003780E4C126894F800E003F1010C5FFAD9
:101300008CF302EBC30205E052F8084B8C4203F168
:10131000010C06D05FFA8CF39E451546F4D80020E8
:1013200030BD0370686830BD900000208C00002044
:1013300038B50A4C236843B90568E8B2C000FFF726
:10134000E5FE074B20601D7038BD064B06482F2276
:101350001A6003F099FB01F07BFD00BF90000020B4
:101360008C00002048010020708B010830B50D4D25
:101370000D4885B003F0BAFD29880C4B003918BF21
:1013800001211A6803920446029101F021FD0346EF
:1013900028880090DDE90212204600F0FFFB05B02E
:1013A00030BD00BF7C000020888B01087400002045
:1013B0002DE9F0411E4F3B88064683BB1D4BDFF8ED
:1013C0008C801D78D8F80040032D9CBF04251D702B
:1013D00006F03EFC002322462C44A04213D30133E6
:1013E000B3F5805FF7D11D46D8F80000201AFFF74B
:1013F0008DFE114B3D801860FFF704FF0F4B3268E4
:101400001A60BDE8F08113B19DB21446ECE70C4BB5
:101410000C4829221A6003F037FB01F019FD084B34
:1014200009482C221A6003F02FFB01F011FD00BFC8
:101430007C00002084000020880000207400002030
:1014400048010020D88B0108C48B010870000020DF
:1014500010B5064803F04AFD044606F047FC014675
:101460002046BDE8104000F099BB00BFEC8B01089E
:1014700010B582B006F03AFC094A0A4B11681B68A5
:101480000446A34288BF01310748019103F02EFDB5
:101490000199224602B0BDE8104000F07FBB00BFBA
:1014A000A8000020A4000020FC8B01082DE9F041D9
:1014B000264D274E2B68274F01332B603368081ABF
:1014C0000344B0F5803F0C46336019D23B6800FB03
:1014D00000F0FF3003EB1020984238BF4FF0FF3090
:1014E00038601D48DFF87C8006F0F8FBD8F8003043
:1014F00001461944204606F0F5FB70B1BDE8F081C5
:10150000B0F5801F06D200F1FF023B68120A00FB13
:101510000230E1E74FF0FF30E2E7104803F0E6FC6D
:101520003B683268296800F039FBD8F80030A342E4
:1015300003D90B4A1368013313600023C8F8004035
:101540003B6033602B60BDE8F08100BF7800002075
:10155000AC000020B0000020404B4C00148C01086F
:10156000A8000020A400002008B5044B0448312244
:101570001A6003F089FA01F06BFC00BF48010020FB
:10158000348C010801F078BC10B50E4B04681B6860
:1015900042689C4282B012D2D2B21119994201D94A
:1015A0001A1BD2B20848019203F0A0FC074B019A23
:1015B0002344214602B0BDE8104000F0EFBA0022FB
:1015C000F0E700BF58A10108448C010828960108E3
:1015D00008B5044803F08AFC034B1968BDE80840CD
:1015E00000F0DCBA6C8C0108A000002038B503685C
:1015F0001F4C204A416823600B2B116015D01E48F8
:10160000002107F06FF81D48012107F0B5F91C48CB
:10161000012107F067F81B48012107F063F8BDE8D6
:1016200038400121022004F0CDBD17481749184B5E
:10163000002401254FF4FA5205700C6015481C80F7
:10164000214607F023FA29460B4807F04BF82146BC
:101650000A4807F091F92146094807F043F809487C
:10166000214607F03FF8BDE83840022004F0C4BD31
:10167000980000209400002000080040580002401C
:1016800000340140002C01409C000020A0000020FC
:10169000402100200002002000B50849084A094BFB
:1016A0000968094812681A6083B0019103F01EFCB2
:1016B000019903B05DF804EB00F070BACC01002092
:1016C0008001002060010020808C010810B50648D0
:1016D00003F00CFCBDE8104040F2E9334FF41972FE
:1016E00040F2EA7100F05ABA948C010838B50B4AFE
:1016F0000B4B15681C68641B002CB8BF6442192C86
:1017000008DC084803F0F2FB22462946BDE83840D1
:1017100000F044BA04F086FCF3E700BF600100204B
:1017200080010020BC8C010810B5064A064C0368F5
:1017300006482360138003F0D9FB2168BDE8104000
:1017400000F02CBA4200002000000020DC8C0108D0
:10175000F8B5877F04469FB100252F4601262B460A
:10176000043304EBC30393E8030005F081FC013567
:101770007100EBB200B13743A27F9A42CEB2EFD8EC
:10178000227CBA4207D0637C7B40DB4382EA0701BC
:10179000DBB20B4210D194F91C30257F6774002B0B
:1017A00004DB013DEDB2FF2D1ED02577D4E90232D6
:1017B00013440120A360F8BD22EA03023B40134317
:1017C000A27C2374072AE6D8511C2244A17408483D
:1017D000D37401F0EDFAFF232377D4E90232677462
:1017E00013440120A360F8BD014801F0E1FADCE7F1
:1017F000B400002010B50479082C09D8221D08492E
:101800000078D200FFF746FD064B8477436010BD99
:10181000054B064825221A6003F036F901F018FB43
:10182000F51701085117010848010020FC8C010838
:1018300070B51149054682B00078FFF70BFD2B7992
:10184000827F9A4204460ED96E46D5E9021230468E
:101850001D1D05F0E5FB96E8030004EBC50484E8D4
:10186000030002B070BD054B054826221A6003F044
:101870000BF901F0EDFA00BFF5170108480100204F
:10188000108D010838B5144905460078FFF7E2FCD1
:10189000044601F001FA6B68A360A968E1600023C7
:1018A0002A7CA374E376FE23627422742377EB68A8
:1018B00063771B0607D401B938BD20463021BDE847
:1018C000384001F0FBBA054B054827221A6003F0A7
:1018D000DBF801F0BDFA00BFF51701084801002050
:1018E000388D010838B5154904460078FFF7B2FC79
:1018F0002479C37E05462344C37606F0ADF9AB7C5C
:10190000A34207D8FE230022AA742B77BDE83840F3
:1019100006F0A4B91B1BD8B205F1130204F112039F
:101920002B44141813F8011F02F8011BA242F9D12D
:10193000A874BDE8384006F091B900BFF51701085A
:10194000F0B51A4885B001F03BFA48B3FF23184DB3
:10195000184F8DF80F3029460DF10F00FFF7C6FC28
:101960000446E8B1237FFF2BF5D106F075F9A67C7C
:10197000C6B1637F237706F071F9384603F0B6FAF3
:101980001334227A9DF80F100094334600F006F9C4
:1019900029460DF10F00FFF7A9FC04460028E1D10C
:1019A00005B0F0BD06F05AF9D5E700BFB40000203D
:1019B000F51701085C8D0108704700BF70B51479F8
:1019C0009668651EA4B3814233D316F8012B042A0E
:1019D00020D810F8012B02F0600CBCF1600F03F16D
:1019E000040E02F07F0408D164F01F0405E010F833
:1019F000012B02F07F0C4CEAC4141206F7D41C60D1
:101A0000B5B1814215D316F8012B042A05F1FF3533
:101A10007346DED9072A0CD1024612F8014B101981
:101A2000884206D89E464EF8084B5A60002DEAD1EF
:101A300070BD024803F028F801F00AFA888D010809
:101A40002DE9F8438B78052B064694461C4666D94B
:101A5000053B821CD4180B88CF784D687F2B00F291
:101A60008C80114603F07F0301F8013B002F53D017
:101A70008C42C0F08A802F4430E05CF8043B03F1D4
:101A800020027F2A22D903F58052B2F5804F18D365
:101A900003F50022B2F5001F0ED303F18062B2F10C
:101AA000805F04D31A0F62F07F0201F8012B5A0DF8
:101AB00062F07F0201F8012B9A0B62F07F0201F8BD
:101AC000012BDA0962F07F0201F8012B03F07F039A
:101AD00001F8013BBD421FD08C4256D315F8013BA3
:101AE000052B30D0C9D9063B012B4ED8E0460B461A
:101AF00058F8082B611A914228BF114603F8011BC0
:101B000089460A461846DCF8041006F097FFBD42E5
:101B100000EB0901C446DFD1891BCC1CE3B21D4A8E
:101B2000337012787270E51E2946304606F0A8F927
:101B3000030A735526447E2306F8020C06F8013C7E
:101B40002046BDE8F8835CF8040B03784A1C6BB1AF
:101B5000944202D817E094420BD002F8013B10F8EF
:101B6000013F002BF7D1531A013BDBB20B7011463A
:101B7000B0E7631A013BDBB2F8E7DA0962F07F02F3
:101B80008270C21C6DE70023F0E7034802F07CFF7F
:101B900001F05EF904000020A08D01080FB430B5FB
:101BA000084D2C7883B0E4B23CB9012307A906980C
:101BB0002B70019105F0FCFF2C7003B0BDE83040A4
:101BC00004B07047B5000020014B00221A70704726
:101BD000B50000202DE9F04B804615460C4619B99A
:101BE00000202860BDE8F08B2F4E3778FA0711D41B
:101BF0000429F5D907787B1F3B2B05D890F8019075
:101C000029F00F03102B1ED07E2F36D0337843F0EF
:101C10000107377022467E214046FFF7D9F850B3BE
:101C2000A0EB080007F0FE07013037702860BB0703
:101C30001DD447F0020333701C48FFF7AFFF4FF08D
:101C4000FF30BDE8F08BB942CAD3C31913F8012C99
:101C50007E2AD9D1F91E13F802BC435C4BEA032B50
:101C600006F00EF983450DD098F80070CCE74FF0E0
:101C7000FF30BDE8F08B2C60D9E701232B604FF0DB
:101C8000FF30AFE70A4932780B782F6022F002026A
:101C90004B453270D0D1013303F00F0343F01003F2
:101CA0000B7001209EE700BFB6000020C88D010820
:101CB000040000202DE9F04B033900F1020945181A
:101CC00082B0A94500AF30D2DFF8948099F90020A6
:101CD00099F80040002A6E462BDB09F10100ACB3F5
:101CE0001D4B1B889C4231D208EB04122946937885
:101CF0007A609B00073303F4FF63ADEB030DEB4603
:101D00005B46FFF75BFE2401814601F061F818B1E4
:101D10007A68D278D30715D5444405F0ADFFE26860
:101D200058469047B546A945D0D30837BD46BDE8CB
:101D3000F08B99F80120E40104F47E5409F10200CB
:101D40001443CCE701F062F8B546ECE7034802F033
:101D50009BFE01F07DF800BF4CA60108B88D01087C
:101D60005CA101080148FFF719BF00BFC88D010839
:101D700030B5D0E9004083B0FFF71EFE054605F000
:101D80006FFFE3B2012B0FD0022B10D02978C9B21C
:101D9000019105F069FF074803F0A8F8019903B025
:101DA000BDE83040FFF7FABE298889B2F0E729681C
:101DB000EEE700BFD08D010870B50446D0E90050B1
:101DC000FFF7FAFDA668044605F04AFFEBB2012BC7
:101DD00007D0022B0BD0F6B22670BDE8704005F09C
:101DE00043BFB6B22680BDE8704005F03DBF266017
:101DF000BDE8704005F038BF10B5D0E9004082B0B2
:101E0000FFF7DAFD0190054803F070F8019AE1B29E
:101E100002B0BDE81040FFF7C1BE00BFE48D01086D
:101E2000704700BF30B50B4983B0044628220078C4
:101E3000FFF730FA6D4603466168A26828461C46E3
:101E400005F0EEF895E8030004F10C0383E80300C5
:101E500003B030BD251E010838B500F10C0304465F
:101E600093E8030005F004F994F8245088B1ED4399
:101E700005F001058DB994F82630013B13F0FF03FE
:101E800015D0A268A16984F826300A44A260012016
:101E900038BD05F00105002DEDD00849E26994F840
:101EA000253084F82630C4E90112012038BD206AAB
:101EB00094F8271002F03CFC284638BDC11E0108EA
:101EC00000F10C0310B5044693E8030005F0D0F8C8
:101ED000A36862691A4494F8243030B1DB4303F0FC
:101EE000010333B1A260012010BD03F00103002BF8
:101EF000F8D1044BE26163602046BDE81040FFF773
:101F0000ABBF00BF591E010870B51B4905460078DC
:101F1000FFF7A0F9044600F0BFFE6B68A360AB6852
:101F2000A3612B7B84F825302BB9144A84F8243024
:101F30001370236270BD03F0E1FD2A6994F8253027
:101F400084F8263062616A690C4B002A14BF0322B0
:101F5000022284F824200A4A287E626001261E702C
:101F600002F012FCEB6984F82730206231462046EB
:101F7000BDE8704000F0A2BF251E0108B700002098
:101F8000C11E01082DE9F041134E1449012333709D
:101F9000077884B03846FFF75DF9044605F05CFE2B
:101FA000E36994F82480039305F058FE0C4802F08E
:101FB0009DFF0C34054694E8030005F059F8039B97
:101FC0000090C8F3400239462846FFF7E7FD00239A
:101FD000337004B0BDE8F081B7000020251E010871
:101FE000F48D010810B50A490078FFF733F904466B
:101FF00000F052FE074A94F8251084F826100023BA
:1020000084F8243013702362BDE8104003F076BDDD
:10201000251E0108B700002030B5D0E9011283B0B9
:10202000003A04466D4618BF0122284604F06CFFB2
:102030000F4920783422FFF72DF9034695E8030075
:1020400003F1180282E80300D4E90221003A18BF24
:10205000012209B142F0100283F8302022691A628D
:102060000C2103F1280003B0BDE83040FFF7B4B8FD
:10207000192001082DE9F84300F1280804464046DC
:10208000FFF78AF8002840F0A0804046FFF79AF852
:1020900085682E1E18BF012604F118030746324634
:1020A00093E8030004F07CFF3846FFF753F8C5B10E
:1020B000636AAB4215D9276A002F68D1404646F0C3
:1020C0000206FFF769F8002800F0878094F83030A6
:1020D000676103F010033343A66884F830302E4460
:1020E00026E094F83030B5FA85F283F01003C3F39C
:1020F000001352099A4225D0276A1FB3A1684046AF
:1021000046F004060F44FFF747F8002848D094F83B
:102110003030676103F01003334384F83030B30785
:1021200026D5A6682E443946304605F0DBFDF8B1C9
:10213000636A2B4A5B1BC4E90126C4E903530120EF
:10214000BDE8F8834046FFF727F8A8B98146404626
:10215000FFF728F8476894F83020676146F00406D6
:1021600002F01002164384F83060B9F1000FD8D1A4
:10217000A7600120BDE8F88394F8303003F0100325
:102180003343002084F830306061BDE8F883A168F3
:10219000404646F006060F44FEF7FEFF0028B6D183
:1021A0004046FEF7FFFF034638465F68394605F0B4
:1021B00099FD06F002090028CDD00A4B0A481E22DC
:1021C0001A6002F061FC00F043FE064B07481D2236
:1021D0001A6002F059FC00F03BFE4FF00209B6E72E
:1021E000F1210108480100205C8E0108308E0108B1
:1021F00038B5044600F1180393E8030004F0B4FE78
:1022000094F83030A56883F00103DA074CBFE26828
:10221000226984F830305B07154402D4A5600120A0
:1022200038BD6169284605F05DFD0028F6D1034BF5
:1022300065696360A560012038BD00BF7520010895
:1022400038B50D4905460078FFF704F8044605F057
:1022500003FD04F12800FEF79FFF28B16B6863625D
:10226000BDE8384005F0FABC044B05481F221A604F
:1022700002F00AFC00F0ECFD1920010848010020E2
:10228000948E0108F8B5214906460078FEF7E2FF72
:102290000446FEF767FF77684760B36883600546CA
:1022A00005F0DAFC04F128012846FEF77DFFA0B115
:1022B00094F830506A071ED445F0040384F8303097
:1022C000AB0767610DD4204600F0E6FC104B0F21F0
:1022D000C4E90137204600F0F1FDBDE8F84005F003
:1022E000BDBCA068394605F0FDFC0028EBD0BDE878
:1022F000F84005F0B3BC6069394605F0F3FC0028EE
:10230000DAD0044802F0C0FB00F0A2FD1920010859
:10231000752001085C8E0108F0B585B0D0E9007524
:10232000866805F0E3FC044641F2883005F0D6FCEF
:1023300004442146284605F0D5FC002818BF254650
:1023400001A8CDE901750396FFF79CFF05B0F0BD2C
:10235000F8B5244905460078FEF77CFF044600F0F6
:102360009BFC04F12800FEF717FF90B32E7994F838
:102370003050371E18BF012704F1180393E80300FB
:102380003A4604F00DFE85F01001B6FA86F35B09BB
:10239000C1F300118B4201D0236A2BB905F010055F
:1023A0003D4384F83050F8BD05F0A0FC05F0100561
:1023B000236A3D43184445F004050B4B84F8305024
:1023C000C4E9013060610E212046BDE8F84000F00C
:1023D00075BD064B064821221A6002F055FB00F03D
:1023E00037FD00BF192001087520010848010020B1
:1023F000CC8E010830B583B0FF23124D8DF8073025
:1024000013E094F8302093E8030002F0100204F087
:10241000C7FD94F8303013F0100318BF112304F1F6
:10242000280084F83030FEF7D3FE29460DF107006E
:10243000FEF75CFF044600F118030028E1D103B069
:1024400030BD00BF1920010800B5034683B0D3E9B1
:102450000012684604F058FD03B05DF804FB00BFAD
:10246000024900781022FEF715BF00BF6124010861
:102470000149FEF7EFBE00BF6124010830B5C36813
:102480000D4985B0044603F07F0300780193FEF701
:10249000E1FE02ADD4E901120446019B284604F096
:1024A0004FFF95E80300237B43F0020384E8030019
:1024B000237305B030BD00BF61240108037B816038
:1024C00043F001030373704770B50E49044600786A
:1024D000FEF7C0FE0546A0682479FFF76DFA2A7B57
:1024E000D207034606D5A86821461A46BDE87040C3
:1024F00003F0C8B895E803002246BDE8704004F038
:102500009FBF00BF612401082DE9F04383B0067826
:102510001949044602AF3046FEF79CFE0546A06806
:1025200094F80480FFF748FA247BE21D02F4FC7261
:10253000ADEB020D2A7BD20703460DF1080913D536
:10254000A868CDF800901A464146234603F0B0F83B
:102550000A4802F0CBFC4B4622463146FFF71EFBF1
:102560000437BD46BDE8F083CDE90049424695E811
:10257000030004F095FFEBE761240108FC8E0108DD
:102580002DE9F04B84B005463A49007802AFFEF7DA
:1025900061FE8046A8682C79FFF70EFAEE68F20714
:1025A00062D4C6F34706386004EB060B2869FFF7D0
:1025B00003FA0BF1070298F80C307B6022F0070257
:1025C0003B68ADEB020D0DF10809194605462246A0
:1025D000484606F033FA7B6813F001037B603B68E2
:1025E0002AD109EB04020192009698E803002246E2
:1025F00004F056FF6EB3013E2E44013C4C44013DB5
:10260000314615F8012F14F8013F23EA0203237025
:1026100016F8012F8D4243EA02032370F1D17B6843
:10262000BBB1D8F808004A465FFA8BF103F02AF8EC
:102630000837BD46BDE8F08B1A4609EB0403D8F80D
:10264000080000932146334603F032F8002ED2D121
:10265000E7E798E803004B465FFA8BF204F0F0FEE0
:102660000837BD46BDE8F08B034802F00DFA00F0D4
:10267000EFFB00BF61240108248F010870B50A4BED
:102680001E68002E82B00CDD084D00242A7955F812
:10269000081B684602F00102013404F035FCB44224
:1026A000F4D102B070BD00BF30A7010830A7010807
:1026B00070B582B004466D4641680022284604F099
:1026C00023FCA3689EB21B0412D406F118020C4925
:1026D000207892B2FEF7DEFD034695E8030083E81A
:1026E0000300D4E903129E8299601A6102B070BDA2
:1026F000044B05481A221A6002F0C6F900F0A8FB44
:10270000B1260108480100204C8F010870B511491D
:1027100004460078FEF79EFD0346D4E90260656832
:102720001C46FFF749F92B0401460AD4A28AAB19CB
:10273000934206D8163532466019BDE8704006F05F
:102740007DB9054B05481B221A6002F09DF900F087
:102750007FFB00BFB126010848010020688F0108F7
:102760002DE9F04B2DED028B0378624988B01846B5
:1027700008EE103AFEF76EFDD0E90354059005F01F
:10278000B5FA401B844206D905F076FA05F0AEFA98
:10279000401B8442F8D8059D95E8030005F1160218
:1027A000AF8A039706AE86E803000492029205F012
:1027B0009DFAAB6801930446002F50D0DFF8489192
:1027C000029B13F8017B02934FF008083B064A482E
:1027D0004BD505F083FAA9FB0035AD0C05F086FA60
:1027E000001B8542FAD805F037FA05F07FFA054656
:1027F00096E8030004F0B8FB05F030FA019B2C1BAF
:10280000A3425FD93D4805F069FAA9FB00347F0077
:10281000A40C05F06BFA401B8442FAD805F01CFAB0
:1028200096E8030004F0A0FB05F018FA05F05EFA44
:102830008346334805F052FAA9FB0034A40C05F096
:1028400055FAA0EB0B008442F9D82C46B8F10108E8
:10285000BCD1DDE903231344029A9A42B0D105F0BA
:1028600045FA059B0122D86036E005F037FAA9FB4E
:102870000035AD0C05F03AFA001B8542FAD805F098
:10288000EBF905F033FA834696E8030004F06CFB9D
:102890001B4805F023FAA9FB0035AD0C05F026FA1C
:1028A000A0EB0B008542F9D896E8030004F05CFB2E
:1028B00005F0D4F9019BABEB0404A34202D97F00DD
:1028C0005C46C3E7002296E8030004F069FB05F0CC
:1028D0000DFA059B0022D8600A48019202F006FB1F
:1028E000019A18EE101A08B0BDEC028BBDE8F04B4F
:1028F000FFF754B9B1260108D012130010EB0900FC
:10290000400D0300888F010883DE1B4330B50C495E
:1029100083B004462C220078FEF7BCFC6D460346CB
:102920006168A26828461C4604F07AFB95E803001B
:10293000044A04F1240383E80300626003B030BD5D
:102940000D2901084929010870B58369044600F181
:10295000240292E8030003F00105A66804F088FB56
:10296000854203D0A369E6610133A3616069314602
:1029700005F0B8F928B9D4E9023213440120A36064
:1029800070BD94F8202023690748334442F00102C7
:1029900084F82020636100F00BFAD4E9023213447A
:1029A0000120A36070BD00BFB800002038B50A49FF
:1029B00005460078FEF74EFC044600F06DF96B68A2
:1029C000A360AA68E260EA682046C4E904233821CB
:1029D000BDE8384000F072BA0D29010870B51C48F6
:1029E00086B000F0EDF980B3FF231A4D1A4E8DF832
:1029F000173029460DF11700FEF778FC044620B386
:102A000094F82030DB07F4D505F026F994F820106F
:102A1000A268A369039221F0010184F820100293B7
:102A2000E46905F01BF9304602F060FADDE9023294
:102A30009DF817100094FFF7B1F829460DF1170023
:102A4000FEF754FC04460028DAD106B070BD00BF82
:102A5000B80000200D290108AC8F010838B5027BB1
:102A600081680446007904F021FB094905462022CB
:102A70002078FEF70FFCD4E90412064BC560818272
:102A800043600261BDE838400C211830FEF7A4BB5A
:102A90005D2A0108992A0108F8B500F118060446D4
:102AA0003046FEF78FFB078905463946E06804F09B
:102AB000DFFB2846FEF74EFB3046FEF76DFB60B1AC
:102AC000A38ABB4224D0206900B9F8BDA368114A8B
:102AD0001844C4E901200120F8BD3046FEF762FB2E
:102AE000A38A4568BB4201D0236913B9A5600120C0
:102AF000F8BDA0682946184405F0F4F80028F5D080
:102B0000054B064818221A6001F0BEFF00F0A0F93C
:102B10000020F8BD212B010848010020E88F0108A2
:102B200008B5044B044817221A6001F0ADFF00F00D
:102B30008FF900BF480100201890010870B51C49AA
:102B400005460078FEF786FB0646FEF70BFB6B6832
:102B50004360AB680381044605F07EF806F1180176
:102B60002046FEF721FB054605F078F805B970BD53
:102B7000304600F091F80F4B72689A4209D06368B2
:102B80000D4A3046C6E901232D21BDE8704000F012
:102B900095B96168B06805F0A5F80028EFD0074B3B
:102BA000074819221A6001F06FFF00F051F900BFC9
:102BB0005D2A0108212B0108992A010848010020FB
:102BC000E88F010870B582B0FF230C4D0C4E8DF8D4
:102BD000073008E0E068A18A04F04AFB666004F16F
:102BE0001800FEF7F5FA29460DF10700FEF77EFB07
:102BF00004460028EED102B070BD00BF5D2A010876
:102C0000992A0108027A4168007804F04FBA00BF9F
:102C100000207047084B094810B500221A7205F0D1
:102C20005DF8074A074994680346234403F10044CA
:102C3000012093608C6010BD08000020A086010078
:102C4000200000202C00002010B5044603F060F89E
:102C50000C4B1B78012B09D04FF4FA7005F03EF8AD
:102C6000A368024613440120A36010BD064A1178F0
:102C70000029F1D1054906481370064B0968016027
:102C80001960E9E788010020C50000206C010020E0
:102C9000780100206001002010B5044604F0E0FF38
:102CA0000E490B68A34202D111E0A3420CD01A4690
:102CB0001B68002BF9D14B68A34204BF084B4B6043
:102CC000BDE8104004F0D0BF23681360F3E7054B64
:102CD000A2689A6022681A600B60ECE70800002086
:102CE00020000020140000202DE9F8431C4F3E680E
:102CF000736830463BBB01F0E3F8B568336838B31E
:102D00009968284604F0EEFF10B12846BDE8F88324
:102D10007C683368A168D3F808903B60284604F0CB
:102D2000E1FF00B13C68A04624682846A16804F091
:102D3000D9FF0028F7D04D4634607E60C8F80060A7
:102D40002846BDE8F8839847B56833680028D7D18E
:102D50007A689D683B60B242D7D17B60D5E700BFFF
:102D600008000020074B084A0849094810B49C682D
:102D700094605DF8044B0A604B601360186004F0C7
:102D8000BBBF00BF2000002014000020080000206E
:102D90002C000020014B00221A727047080000200E
:102DA000024B187AC043C0F3C010704708000020DF
:102DB000024B00221A7201230370704708000020A2
:102DC00003780246D8B210B1002313700120704777
:102DD000024B587A003818BF0120704708000020C5
:102DE00010B5064802F082F8054B064A06491B68F2
:102DF00012680978BDE81040FEF7D0BE4490010883
:102E0000C0000020BC0000202401002008B50A48B2
:102E100002F06CF8094B0A4A0A491B6809781268E3
:102E2000FEF7BCFE084802F061F8084B997ABDE84D
:102E30000840FEF7B3BE00BF44900108C000002068
:102E4000BC00002024010020789001080800002028
:102E500000B583B0019004F0FFFE01990148FEF730
:102E60000DF800BFC800002008B5024801F00CFEB4
:102E7000FFF7EEFF9C90010808B5084A537A23B18A
:102E8000022B1CBF0023537208BD054B05481622B8
:102E90001A6001F0F9FDFFF7DBFF00BF080000201A
:102EA00048010020B490010808B5034B5B7A03B1D8
:102EB00008BDFFF7CDFF00BF080000202DE9F04B53
:102EC000DFF8949085680E46074604F0C9FED9F8ED
:102ED00000408046A168284604F004FF70B92646E9
:102EE00024682846A16804F0FDFE0028F7D03C6065
:102EF00037604046BDE8F04B04F0B6BE04F0F6FE85
:102F000083460146284604F0EDFE58B90D4BC9F83A
:102F100000309C4208BF24683C609D601F6004F044
:102F2000EBFEE6E7084B09481D60094BC3F800B00B
:102F3000084B1E7001F0A8FD99F80930002BE5D16F
:102F4000FFF786FF14000020C0000020D890010881
:102F5000BC000020240100200800002038B50A4DE4
:102F60000A4B6B6004F0C2FE04464FF4FA7004F0A2
:102F7000B5FE00230444AC6028462B606221BDE806
:102F80003840FFF79BBF00BF28010020492C0108F3
:102F90002DE9F04383B001F019FD02F01FF902F0B2
:102FA0008FFE02F045FEFFF7D9FF03F0D5FA374850
:102FB00001F09CFFFEF7F2FD04F04EFE3448FDF7F1
:102FC00057FF0446002841D104F048FE04F08EFE6D
:102FD000304C314D314E206025E004F087FE2368EF
:102FE000181A206004F038FE95F908302BBB04F065
:102FF00035FE04F07BFE2368184420602F7201F038
:103000000DFD04F073FE814649462068FEF74EFA36
:10301000C4F8009003F0FCFD3378DBB233B1002339
:10302000337003F04FF84FF0FF08012704F024FE3F
:1030300095F90830002BE1D0CFE785F8088004F03F
:1030400017FE95F90830002BF9D1D0E704F004FE03
:1030500004F04CFE104B5A7A014602B99C720E4C99
:10306000019102236372FFF77DFE01F0BDFC012395
:10307000637204F0F3FDFFF7B3FE094801F036FF79
:10308000A27A0199FEF78AFD9EE700BFE890010849
:10309000C80000203401002008000020C4000020E7
:1030A000F490010838B50749054650220078FEF72C
:1030B000F1F80446044B2879636000F0ADFC206110
:1030C00038BD00BFA5300108CD30010808B5034662
:1030D00004481A7D42F001021A75FFF769FE0020CC
:1030E00008BD00BF3801002070B5104905460078C2
:1030F000FEF7B0F804460026FFF7CEFD26756B6894
:1031000003B970BDE36004F1160002F08DFC04F019
:10311000A3FD04F0EBFDE3681844A06031462046AF
:10312000FFF7CCFEBDE8704004F098BDA530010863
:10313000F0B5134985B006460078FEF78BF8B92341
:103140000546ADF80C3004F0D1FD012103AB02229D
:103150000746286900F0B6FC04F0C8FD9DF80D1084
:1031600021F08001202909D801EB8104C31B3178AB
:1031700000943A4605F1160002F074FC05B0F0BD6B
:10318000A53001082DE9F043534885B0FFF718FE3C
:1031900088B1FF23514D524E4F4F8DF8033002E05E
:1031A000237DDB070AD429460DF10300FEF79EF8C4
:1031B00004460028F4D105B0BDE8F08396E8070086
:1031C0000DF1040C6346ACE803008CF80020206984
:1031D0009DF803800922012100F074FCA27E9DF875
:1031E000061002F11B0311F0F000234425D0F02853
:1031F00023D0A118FF221A71DA709A705A70CA7619
:10320000A37E0533DBB22E2BA37604D9414604F10D
:10321000160002F00FFC237D23F00103237504F058
:103220001BFD04F063FDE3681844A0600021204604
:10323000FFF744FE04F012FDB5E79DF808C01CF04E
:10324000F00001D0F028D4D19DF80A0010F0F00E63
:1032500034D19DF80BE0BEF1900FCAD19DF80C90CF
:1032600029F08009B9F1200FC3D801F01F0141EA0C
:1032700040118000224400F060000CF01F0C9DF80B
:1032800005E082F81BE040EA0C0C9DF8070058703E
:103290009DF809209A70D97083F804C0A37E053385
:1032A000DBB22E2BA3760DD8B9F11E0F10D9238BCC
:1032B000013323833846FFF77BFD74E7BEF1F00F3F
:1032C00097D1C6E7414604F1160002F0B3FBEBE7E5
:1032D000B9F1010F9FD9EDE738010020A5300108B1
:1032E000B48A010870B5067A032E044610D8104936
:1032F00000785022FDF7CEFF05460E4B20796B601B
:1033000000F08AFB286100F0D1FB48B16E7570BDFA
:10331000094B0A4814221A6001F0B6FBFFF798FD2A
:10332000054B074815221A6001F0AEFBFFF790FD30
:10333000E532010845330108480100201C910108CD
:103340003891010810B5037D5A0704460BD5C37D9B
:103350000133C3750648FFF72BFDD4E9023213444D
:103360000120A36010BD43F004030375F2E700BF22
:103370003C01002010B4847D521A34B104F1FF3CAA
:10338000012101FA0CF10A44E240FE2A0AD8017F29
:103390004418033162771A0AA377E2775DF8044B89
:1033A00001777047037FC21801219177FF24002124
:1033B0005477D17703335DF8044B0377704700BF30
:1033C00038B50E4904460078FDF744FF0546FFF77F
:1033D00063FC00232B75A36803B938BD6368AB6039
:1033E000A368EB6005F1180002F01EFBE368AB7503
:1033F00028464A21BDE83840FFF760BDE5320108A4
:103400002DE9F04390F800803249054685B04046EA
:10341000FDF720FF0446A8682F79FEF7CDFA94F84F
:103420001590B9F1020F054623D004F05FFC034666
:103430003A46206901211C462B4600F043FB04F06C
:1034400055FC0646322004F049FC331B834288BFFA
:103450000027B9F1010F18BF26461F4801F046FDAD
:1034600000953B4632464146FEF798FB05B0BDE865
:10347000F0830DF108092169484600F01BFB99E82B
:103480000300002203F08CFD04F030FC064601200E
:1034900004F024FC064401E004F0EEFB04F026FCFA
:1034A0000146304604F01EFC0028F5D004F0D4FBA1
:1034B00099E80300012203F073FD04F017FC0646AF
:1034C00004F0CCFB20692B463A46012100F0FAFAC1
:1034D000C3E700BFE5320108589101082DE9F04B20
:1034E000C44888B0FFF76CFC002856D0FF23C24EBA
:1034F0008DF80B30002531460DF10B00FDF7F6FE7F
:103500000446002849D0237D5F07F4D504F0A4FBCE
:1035100094F817B02575E575D4F8088004F09EFB83
:10352000E768A8EB07030193BBF1000F19D04FF038
:10353000FF0902E0BBF1010B13D0237FE118033335
:10354000DBB2302B81F81D908D77CD772377F1D9C1
:103550009DF80B1004F1180002F06CFABBF1010B9E
:10356000EBD194F815B0BBF1000F19D0BBF1010FEE
:1035700057D0BBF1020F76D0237F302BBBD904F19B
:1035800018009DF80B1002F055FA31460DF10B00B2
:10359000FDF7ACFE04460028B5D108B0BDE8F08BBD
:1035A0004FF03208ADF8148004F0A0FB05AB022206
:1035B00001210746206900F085FA04F097FB0346D5
:1035C0004046A3EB070804F089FB80450BD9237F15
:1035D000E218FF2103335177DBB2022182F81FB0DA
:1035E00091772377C9E79DF914209DF81430002ABC
:1035F0000BDA237FE218FF2103335177DBB203217B
:1036000082F81FB091772377B7E79DF815000199ED
:103610005B0243EA40033A462046FFF7ABFE237FB6
:10362000ABE74FF67F63ADF8143004F05FFB05ABFA
:10363000022200218046206900F044FA04F056FB83
:10364000A0EB08080746322004F048FB804573D9F8
:10365000237FE218FF2103335177DBB20221D577B4
:103660009177237789E70DF10C0B2169584600F01B
:1036700021FA9BE80300002203F092FC04F036FBE1
:103680008146012004F02AFB814401E004F0F4FAB1
:1036900004F02CFB0146484604F024FB0028F5D03A
:1036A00004F0DAFA9BE80300012203F079FC04F04D
:1036B0001DFB814604F0D2FA42F284330593ADF843
:1036C0001C50069520690A22012105AB00F0FAF989
:1036D0000DF115010DF11B00052211F8013F4FF00E
:1036E000080B5A40530012F0800F08BF520083F0BD
:1036F0001D0314BFDAB2D2B2BBF1010BF2D1884282
:10370000EBD1D3439DF81D20DBB29A427FF471AF19
:103710009DF81C30DB0641D59DF91630002B53DB9C
:10372000237FE218FF2103335177DBB2042182F8B3
:103730001FB09177237720E7C0228DF814208DF8F1
:10374000155005AB59460222206900F0BBF99DF8DF
:1037500014309DF8151083EA010282EA121282EAFF
:10376000920282EA520212F001020CD1580621D5CF
:10377000237FE1180333CA77FF20DBB205224877A5
:103780008A772377F9E6237FE218FF210333517705
:10379000DBB20321D57791772377EEE6237FE2181A
:1037A000FF2103335177DBB2052182F81FB09177F7
:1037B0002377E2E6890041EA83233A4601992046CD
:1037C000FFF7D8FD237FD8E640F2555004F086FA83
:1037D000A7EB0807B944814510D9237FE218FF21E0
:1037E00003335177DBB2012182F81FB09177237741
:1037F000C3E600BF3C010020E53201089DF8172018
:103800009DF816309DF81A00520042EA4322237FA9
:10381000E11803338A77C0F34500DBB2120A487718
:10382000CA772377A9E600BF2DE9F04190F8108010
:10383000B8F1030F84B0054631D8007800F0ECF8F9
:1038400007461C20FDF762FC02AE0446696830465C
:10385000012203F0E5FB96E8030084E803006E46CE
:10386000A9683046002203F04FFB96E8030004F1FC
:10387000080383E803000022E968304603F044FBB4
:1038800096E8030004F1100383E80300214638465C
:1038900084F8188004B0BDE8F04100F0F1B8044BA2
:1038A000044813221A6001F0EFF8FFF7D1FA00BFC5
:1038B0004801002094910108027E00F1100393E872
:1038C000030002F0020203F06BBB00BF2DE9F04BD6
:1038D00082B0541E07460091E4B2002A4DD003F195
:1038E000FF392344019300F1100600F1080819F88C
:1038F000015F4FF0080B00241AE096E8030003F084
:103900003DFB05F0800298E8030003F049FB96E8D0
:10391000030003F033FB97E8030003F0A9FB640006
:10392000E4B26D000443BBF1010BEDB2E4B21DD073
:103930003B7EDB0705F08002DFD498E8030003F04C
:103940002FFB96E8030003F019FB97E8030003F050
:103950008FFB6400E4B2044396E8030003F00EFB1F
:103960006D00BBF1010BEDB2E4B2E1D1009B0BB1F4
:1039700089F80040019B4B45B9D102B0BDE8F08BFE
:1039800070B5044682B00F4900781422FDF782FC1E
:10399000A66861686D46B6FA86F252090446284662
:1039A00003F0B2FA95E8030004F1080383E803008A
:1039B000002E94F9103014BF0922012213432374FE
:1039C00002B070BD81390108F8B50D49044600798F
:1039D000FDF740FC267A0B4906F1080207462078DD
:1039E000FDF758FC05460671E0682F60FDF7E4FF1F
:1039F00032460146681DBDE8F84005F01FB800BF1B
:103A000081390108C9390108024900781422FDF7FB
:103A100041BC00BF813901080149FDF71BBC00BF53
:103A20008139010870B505461249007882B0FDF76A
:103A300011FC2A7A032A044613D8037C13F0060FDC
:103A40000FD16E46EB686968304603F08BFD96E84F
:103A50000300237C43F0040384E80300237402B0D2
:103A600070BD054B054811221A6001F00DF8FFF7F3
:103A7000EFF900BF81390108480100209491010845
:103A800008B5037C13F0060F04D143F0020303745E
:103A9000016008BD034B044812221A6000F0F4FFD5
:103AA000FFF7D6F94801002094910108007C00F04E
:103AB000010070470831034603C983E80300184634
:103AC000704700BF2DE9F043057C15F0060F83B069
:103AD00004460E46174699461DD0A9070DD5006825
:103AE000FFF7EAFEEA0735D420684B463A463146EE
:103AF00003B0BDE8F043FFF7E9BED0E9000103F0F1
:103B000083FDEB070AD494E803003B46CDF8009010
:103B1000324603F08BFD03B0BDE8F08304F10808E2
:103B2000C5F3C00298E8030003F03AFACDF800901C
:103B300094E803003B463246ED0803F077FD98E831
:103B4000030085F0010202F0010203B0BDE8F0437A
:103B500003F026BA04F1080898E80300C5F3C00290
:103B600003F01EFA20684B463A463146ED08FFF74F
:103B7000ADFEE4E770B506780F4982B004463046E2
:103B8000FDF768FB0346D4E901501C46FDF714FF1E
:103B9000EAB2034601212046CDE90023FFF792FF58
:103BA000064801F0A3F9DDE90023314602B0BDE883
:103BB0007040FDF7F3BF00BF81390108A8910108EB
:103BC00030B50A4983B004460078FDF743FB2279FB
:103BD00001920546A068FDF7EFFE019A0346002119
:103BE000284603B0BDE83040FFF76CBF81390108BB
:103BF00010B582B0FF23154C8DF8073002E0027C2F
:103C0000D3071AD421460DF10700FDF76FFB0028FA
:103C1000F5D1FF230E4C8DF8073003E002790068E0
:103C2000FFF750FF21460DF10700FDF75FFB002174
:103C3000431D0028F2D102B010BD82F00802083006
:103C400003C8C2F3C00203F0ABF9DBE78139010816
:103C5000C939010838B500F1340504462846FDF796
:103C60009BFA10B10020606138BD2846FDF7AAFA22
:103C7000B0F90830426823821344E36094F844307A
:103C8000D90605460FD5A168438963610A44A2603D
:103C90002A7BD20711D4226B134423632846FDF7F5
:103CA00059FA012038BDA16943890A44A261A26082
:103CB0005A0062612A7BD207EDD5216B04F12802FC
:103CC0005B1A236392E8030003F04EF9E6E700BFB6
:103CD00070B500F12003044693E8030003F044F9B3
:103CE00004F004F86369E169013BDA07636100EB02
:103CF000010503D5A5600126304670BD83B1E26899
:103D0000A069B4F9103010441344A061E36029465F
:103D100003F0E8FF0028EDD1A369A3600126EBE7DB
:103D20002046FFF797FF06460028E5D0A068294601
:103D300003F0D8FF0028DFD0A3684FF47A705E1B31
:103D400003F0CCFF4042B042D4DD044B04480E22C5
:103D50001A6000F099FEFFF77BF800BF48010020D1
:103D6000D49101082DE9F04105463249007882B02E
:103D70004822FDF78FFAEF68002F044627DD042262
:103D80006E4680F844206968304603F0BDF896E836
:103D9000030004F1200383E803000022A9683046F1
:103DA00003F0B2F896E8030004F1280383E8030067
:103DB0004FF0404323632B69E361102104F1340089
:103DC000FDF70AFA1C4B636002B0BDE8F0814FF0CA
:103DD00000086E4680F8448069684246304603F029
:103DE00093F896E8030004F1200383E803004246B9
:103DF000A968304603F088F896E8030004F1280328
:103E000083E803004FF0404323632B69E3611021F3
:103E100004F13400FDF7E0F9E369002BD2D1002F63
:103E2000D0D094F8443043F0100384F8443002B00A
:103E3000BDE8F081653D0108D13C010838B5044674
:103E4000A0F13C052846FEF727FF237A54F80C1C06
:103E5000002244F8342C44F8242C54F8282CD8069A
:103E60004CBF891AA1EB520103F01403002943F05F
:103E70000803C8BF49420022237205F1280344F811
:103E80000C1C44F8282C93E8030003F089F8227AEC
:103E9000D3060DD5083C03E0FDF794F9FDF75AF978
:103EA0002046FDF779F903462046002BF4D038BDB3
:103EB000203595E8030002F0040203F071F8E9E709
:103EC00000F1200310B5044693E8030003F04CF81A
:103ED0006369013B0AD0D4E90210B4F91020636190
:103EE00001440244C4E90212012010BD2046BDE88D
:103EF0001040FFF7AFBE00BF70B5294905460078F6
:103F0000FDF7A8F90646FDF72DF96B6843602B898C
:103F100043810446002B3BD0EA68028100230373EF
:103F200003F09AFE96F8443003F00101C3F3400217
:103F3000914205D0227B42F0010283F001032273FB
:103F40007269D2B91A0711D406F1340186F84430E7
:103F50002046FDF729F93046FFF77CFE3046162152
:103F6000FEF7ACFFBDE8704003F078BE2046FDF7D9
:103F7000F1F8BDE8704003F071BE86F8443006F1F8
:103F800034012046FDF710F9BDE8704003F066BE2D
:103F9000044B05480F221A6000F076FDFEF758FF2B
:103FA000653D010848010020EC91010838B50C4935
:103FB00004460078FDF74EF963680446002B14BFF1
:103FC0000225002503F048FE94F8443023F0020354
:103FD0001D4384F84450BDE8384003F03FBE00BFA5
:103FE000653D010838B50F4905460078FDF732F9FF
:103FF00004466D6803F030FE63695BB994F84430A1
:10400000A56023F00803A56184F84430BDE838407A
:1040100003F024BE044B054810221A6000F034FD62
:10402000FEF716FF653D01084801002004920108D3
:1040300070B506780F493046FDF70CF9054603F0D8
:104040000BFE95F844302C6B6A69DB064CBFA41A52
:10405000A4EB520403F002FE002CB8BF64420648F1
:1040600000F044FF04F140423146BDE87040FDF7E6
:1040700095BD00BF653D01082C92010838B508497F
:1040800004460078FDF7E6F80546207900F07CFB51
:1040900005F13C01034ABDE8384000F07BBB00BF9E
:1040A000653D01083D3E010830B583B0FF230B4D4F
:1040B0008DF8073006E0FDF78BF8002104F13C0095
:1040C000FFF7BCFE29460DF10700FDF70FF9044686
:1040D0003430002CEFD103B030BD00BF653D010886
:1040E00010B504460648FEF763FED4E90231627F4C
:1040F00042F001020B446277A360012010BD00BFB3
:104100004001002010B5047A032C08D80849007833
:104110002022FDF7BFF8074B0477436010BD064B24
:10412000064803221A6000F0AFFCFEF791FE00BFC4
:1041300005410108E1400108480100204C920108B6
:1041400038B50D4904460078FDF784F80B4B054659
:1041500000221A70FEF7A0FD6368AB60A368EB60F5
:1041600003B938BDE3682B6123696B61284644219C
:10417000BDE83840FEF7A2BE054101083D01002020
:104180002DE9F04B3D4886B0FEF71AFE002849D0D5
:10419000FF233B4D3B4FDFF8F0808DF813300026B6
:1041A00029460DF11300FDF7A1F80446002839D087
:1041B000637FDA07F4D503F04FFD637FD4F80890EE
:1041C00023F00103637703F049FD237F032BE7D836
:1041D000DFE803F046392B02A0699DF813B0ADF873
:1041E000146005AB02220121FFF76CFCBDF81440FE
:1041F00064BAA4B2384600F079FE23464A465946CE
:104200000096FDF7CBFC6307CAD5404600F03CFCA6
:10421000FEF74AFE29460DF11300FDF767F8044644
:104220000028C5D106B0BDE8F08B9DF813100391AE
:10423000384600F05BFE039900964A4644F22C0390
:10424000FDF7ACFCACE79DF813100391384600F085
:104250004DFE039900964A460023FDF79FFC9FE719
:104260009DF813100391384600F040FE0399009624
:104270004A464FF0A073FDF791FC91E74001002002
:10428000054101086C920108A89201082DE9F0434C
:10429000044685B01A4900783422FCF7FBFF94F8F5
:1042A0000890D4F80480E768B9F1000202AE054630
:1042B00018BF01224146304602F0B2FE96E80300E4
:1042C00005F114036E4683E80300012239463046A7
:1042D00002F01AFE96E8030005F10C0383E80300E0
:1042E000B9F1000F08BF012322692A6218BF112308
:1042F000B84508BF43F020032B7705B0BDE8F08335
:104300008D42010838B5044600F10C0393E8030020
:1043100002F02AFE637F94F81CC094F81FE0656ADF
:104320000133DBB28CF0010C734584F81CC00CF037
:10433000010C29D204EBD30203F0070192F82820E4
:104340000A4102F001029445294607D016E092F88E
:104350002820024102F0010294450FD10133DBB263
:10436000734504EBD30203F007002944EFD3A3689D
:10437000064A0B44C4E90123012038BDA2686377D3
:104380000A44A260012038BD2946F0E7F94301083C
:1043900000F10C0310B5044693E8030002F0E4FDBD
:1043A00003F0A4FC637F227F0133DBB282F00102C1
:1043B000012B2277637719D0042B05D8A268236AD2
:1043C0001344A360012010BDA368626A1A44801AD6
:1043D000811C226A48BF411D02EBA1011844054A15
:1043E00061620844C4E90120012010BDA268801A5E
:1043F0006062E4E70543010810B5837F0446B3B16A
:10440000027F93060AD4A368606A164A002103EB70
:1044100080036177C4E90123012010BD00F114037A
:1044200093E8030002F0100202F0C6FDEBE7037F01
:1044300013F0200F00F10C0393E803004FF001028A
:104440000CD102F0ADFD237F074803F0300343F0A9
:1044500009032377FEF7ACFC002010BD02F01CFD21
:10446000F1E700BFF14401084401002000F114030A
:1044700010B5044693E8030002F0FAFD637F04EBF5
:10448000D30C012203F0070102FA01F19CF8282065
:1044900078B10A43D2B28CF82820A27F0133DBB274
:1044A0009A4209D9A268616A63770A44A26001202E
:1044B00010BD22EA0102EEE7237F13F0200F04F182
:1044C0000C0393E803004FF001020CD102F068FDE9
:1044D000237F064803F0300343F009032377FEF7F8
:1044E00067FC002010BD02F0D7FCF1E7440100207A
:1044F00000F1140310B5044693E8030002F0B8FD80
:10450000237F68B143F004032377637F5A1C3F2B5A
:1045100062770FD8A368626A13440120A36010BDBC
:104520005B07F2D56077114B63602046BDE8104011
:10453000FFF79CBF237F0022A27713F0200F04F126
:104540000C0393E803004FF001020CD002F0A4FC2E
:10455000237F074803F0300343F009032377FEF776
:1045600027FC002010BD02F01BFDF1E76D4401089F
:1045700044010020F8B5264905460078FCF76AFE9C
:10458000037F13F00206044600D0F8BDA8682F7917
:10459000FDF712FA0A2F2D7B014631D80A2D2FD8AC
:1045A0003A4604F1280004F049FA237F667703F0C5
:1045B000310343F00203ED002377FB00E377A57797
:1045C0002FB194F8283003F03F032A2B15D0226A2C
:1045D000104B6262636003F03FFB03F087FB05460C
:1045E000C82003F07BFB2844A06033212046FEF75F
:1045F00065FCBDE8F84003F031BB074B6360EAE7B8
:10460000064B074802221A6000F03EFAFEF720FC33
:104610008D4201080543010891430108480100202B
:10462000C492010870B5184882B0FEF7C9FB48B3C0
:10463000FF23164D164E8DF8073029460DF1070061
:10464000FCF754FE0446E8B1237F1B07F5D503F0C1
:1046500003FB237F23F00803237703F0FFFA3046A0
:1046600000F044FCA27F9DF8071004F12803D20853
:10467000FDF794FA29460DF10700FCF737FE0446D2
:104680000028E1D102B070BD440100208D42010834
:10469000DC92010830B583B0FF23114D8DF807304F
:1046A00008E003C902F0F8FB237F03F0300343F076
:1046B0000103237729460DF10700FCF717FE00F1EF
:1046C0000C01012204460B4640B1207F8006E8D44D
:1046D00093E80300012202F063FCE5E703B030BD7C
:1046E0008D42010810B50446074894F8203043F085
:1046F000040384F82030FEF75BFBA368A26913442F
:104700000120A36010BD00BF4C01002008B5242289
:1047100004490078FCF7BEFD034A044B4260036184
:1047200008BD00BF0D470108E546010879470108AB
:1047300070B590F82030DA0704460E4619D5C069E6
:1047400084F8211023F0050343F0040384F820309B
:1047500050B10025D0E900233146E261C0E900559F
:104760009847E0690028F5D1BDE870400148FEF7A0
:104770001FBB70BD4C01002008B503460C38997D65
:10478000FFF7D6FF002008BD0149FCF763BD00BF5D
:104790000D47010870B50C460546164603F060FA51
:1047A000636843B93EB1EB69C4E90036EC61BDE82A
:1047B000704003F059BA044B044801221A6000F01B
:1047C00063F9FEF745FB00BF480100200093010894
:1047D00038B51A4905460078FCF73CFD044603F05D
:1047E0003BFA2046FEF758FA04F10C00FEF754FAA3
:1047F000E36933B100211A461B68C2E90011002B9E
:10480000F9D100220123238484F822206B68A3605D
:10481000AB68C4E9063233B9EB6884F82230BDE8EE
:10482000384003F01BBA20461D21FEF747FBEB681A
:1048300084F82230BDE8384003F010BA0D47010873
:1048400030B5114983B005460078FCF703FD0446F6
:1048500003F002FA94F82030DB0704D403B0BDE87B
:10486000304003F0FBB904F10C000190FEF714FA9C
:104870006B68019863611C21FEF720FB03B0BDE863
:10488000304003F0EBB900BF0D47010870B5067862
:10489000134984B005463046FCF7DCFC044603F0BF
:1048A000DBF929792046FFF743FF2046FEF7F4F9AC
:1048B000002504F10C00FEF7EFF994F8213084F89C
:1048C0002050039303F0CAF9064800F00FFB039B46
:1048D00000952A463146FDF761F904B070BD00BF6E
:1048E0000D470108289301082DE9F0411E4886B0C4
:1048F000FEF766FAA0B3FF231C4E1D4F8DF817304C
:1049000031460DF11700FCF7F1FC044640B394F872
:1049100020305B07F4D503F0E9F9054603F09CF974
:1049200094F8208094F82130039328F0040284F84E
:10493000202003F093F99DF817100291384600F0FB
:10494000D5FA039B0299009508F00102FDF726F9BC
:1049500031460DF11700FCF7C9FC04460028D6D1FA
:1049600006B0BDE8F08100BF4C0100200D470108F2
:104970002893010870B5144E82B0FF2331460DF123
:1049800007008DF80730FCF7B1FC00240546C8B1DC
:10499000FEF782F905F10C00FEF77EF9EB692BB109
:1049A0001A461B68C2E90044002BF9D1EC612C8443
:1049B00085F8224031460DF10700FCF797FC0546CB
:1049C0000028E5D102B070BD0D47010808B5FCF71D
:1049D00091FBFDF753FE02F053FE03F0BBF9BDE877
:1049E000084003F031B800BF08B5FDF7EDF8FCF75B
:1049F00009FCFDF7FFFCFFF757FBFFF7BBFFFCF7D8
:104A000041FBFFF7F5F8FEF7DDF8FFF743FE03F093
:104A100035F9BDE8084003F09BB900BF08B503F0C5
:104A20002BF9FFF761FF03F027F9FCF7DDFA03F03C
:104A300023F9FCF785FF03F01FF9FFF7F3FD03F0FF
:104A40001BF9FDF7CBFF03F017F9FFF799FB03F014
:104A500013F9FEF797FB03F00FF9FEF73FFD03F0A4
:104A60000BF900F05DFF03F007F902F001FE03F01F
:104A700003F903F0F1F903F0FFF803F03DF8BDE8A6
:104A8000084003F0F9B800BF10B5C9490446FCF767
:104A9000FDF9002800F06281C6492046FCF7F6F9CE
:104AA000002800F05981C4492046FCF7EFF900289E
:104AB00000F05881C1492046FCF7E8F9002800F0D1
:104AC0004F81BF492046FCF7E1F9002800F04C81F6
:104AD000BC492046FCF7DAF9002800F04981BA49C0
:104AE0002046FCF7D3F9002800F04481B74920465E
:104AF000FCF7CCF9002800F03981B5492046FCF7D5
:104B0000C5F9002800F03881B2492046FCF7BEF90B
:104B1000002800F03381B0492046FCF7B7F900289F
:104B200000F02E81AD492046FCF7B0F9002800F0D6
:104B30002981AB492046FCF7A9F9002800F024811F
:104B4000A8492046FCF7A2F9002800F01F81A649D9
:104B50002046FCF79BF9002800F01A81A349204663
:104B6000FCF794F9002800F01581A1492046FCF7D4
:104B70008DF9002800F010819E492046FCF786F947
:104B8000002800F00B819C492046FCF77FF90028A3
:104B900000F0068199492046FCF778F9002800F0DA
:104BA000018197492046FCF771F9002800F0FE804A
:104BB00094492046FCF76AF9002800F0F5809249F4
:104BC0002046FCF763F9002800F08E818F492046CB
:104BD000FCF75CF9002800F085818D492046FCF740
:104BE00055F9002800F07C818A492046FCF74EF9EF
:104BF000002800F0738188492046FCF747F9002817
:104C000000F06A8185492046FCF740F9002800F051
:104C1000618183492046FCF739F9002800F058816A
:104C200080492046FCF732F9002800F04F817E4988
:104C30002046FCF72BF9002800F046817B492046EE
:104C4000FCF724F9002800F03D8179492046FCF763
:104C50001DF9002800F0348176492046FCF716F94A
:104C6000002800F02B8174492046FCF70FF900283A
:104C700000F0228171492046FCF708F9002800F075
:104C800019816F492046FCF701F9002800F01081D6
:104C90006C492046FCF7FAF8002800F007816A49C1
:104CA0002046FCF7F3F8002800F0FE806749204614
:104CB000FCF7ECF8002800F0F58065492046FCF789
:104CC000E5F8002800F0EC8062492046FCF7DEF8A9
:104CD000002800F0E38060492046FCF7D7F8002860
:104CE00000F0DA805D492046FCF7D0F8002800F09B
:104CF000D1805B492046FCF7C9F8002800F0C88045
:104D000058492046FCF7C2F8002800F0BF805649F9
:104D10002046FCF7BBF8002800F0B6805349204637
:104D2000FCF7B4F8002800F0AD8051492046FCF7AC
:104D3000ADF8002800F0A4804E492046FCF7A6F804
:104D4000002800F09B804C492046FCF79FF8002883
:104D500014BFFF20342010BD032010BD022010BD61
:104D6000052010BD042010BD062010BD092010BD77
:104D7000072010BD082010BD0A2010BD0B2010BD5B
:104D80000C2010BD0D2010BD0E2010BD0F2010BD39
:104D9000102010BD112010BD122010BD132010BD19
:104DA000142010BD152010BD172010BD162010BDF9
:104DB000B4900108D89001089C900108B88D0108B2
:104DC000A08D0108888D0108348C010868930108C2
:104DD000708B01085C8B0108488B0108C48B0108AB
:104DE000048B0108348B0108D88B0108208B010843
:104DF000CC8E01085C8E0108948E0108308E01086B
:104E000004920108EC910108D49101080093010873
:104E1000C08A010894910108248F0108E88F0108D5
:104E200018900108388D0108108D0108FC8C0108CC
:104E3000C4920108688F01084C8F010894930108FF
:104E4000A89201084C920108389101081C910108B0
:104E5000A4930108BC930108D0930108E4930108CE
:104E6000049401081C940108289401083C9401084A
:104E70004C940108609401088C940108332010BD03
:104E8000322010BD312010BD302010BD2F2010BDAC
:104E90002E2010BD2D2010BD2C2010BD2B2010BDAC
:104EA0002A2010BD292010BD282010BD272010BDAC
:104EB000262010BD252010BD242010BD232010BDAC
:104EC000222010BD212010BD202010BD1F2010BDAC
:104ED0001E2010BD1D2010BD1C2010BD1B2010BDAC
:104EE0001A2010BD192010BD182010BD10B57F4923
:104EF0000446FBF7CBFF002800F0C0807C49204629
:104F0000FBF7C4FF002800F0B7807A492046FBF782
:104F1000BDFF002800F0B68077492046FBF7B6FFBA
:104F2000002800F0AD8075492046FBF7AFFF002850
:104F300000F0AA8072492046FBF7A8FF002800F085
:104F4000A78070492046FBF7A1FF002800F0A2804F
:104F50006D492046FBF79AFF002800F097806B49C7
:104F60002046FBF793FF002800F096806849204612
:104F7000FBF78CFF002800F0918066492046FBF784
:104F800085FF002800F08C8063492046FBF77EFFF8
:104F9000002800F0878061492046FBF777FF002852
:104FA00000F082805E492046FBF770FF00287DD02C
:104FB0005C492046FBF76AFF002879D05A49204611
:104FC000FBF764FF002875D058492046FBF75EFFC9
:104FD000002871D056492046FBF758FF00286DD0B5
:104FE00054492046FBF752FF002869D05249204619
:104FF000FBF74CFF002865D050492046FBF746FFE1
:10500000002863D04E492046FBF740FF00285BD0C4
:105010004C492046FBF73AFF002865D04A49204614
:10502000FBF734FF00285DD048492046FBF72EFFF0
:10503000002855D046492046FBF728FF00284DD0D0
:1050400044492046FBF722FF002845D0424920462C
:10505000FBF71CFF00283DD040492046FBF716FF18
:10506000002835D03E492046FBF710FF3D4B002875
:105070000CBF1846002010BD3B4810BD3B4810BD7A
:105080003B4810BD3B4810BD3B4810BD3B4810BDE0
:105090003B4810BD3B4810BD3B4810BD3B4810BDD0
:1050A0003B4810BD3B4810BD3B4810BD3B4810BDC0
:1050B0003B4810BD3B4810BD3B4810BD3B4810BDB0
:1050C0003B4810BD3B4810BD3B4810BD3B4810BDA0
:1050D0003B4810BD3B4810BD3B4810BD3B4810BD90
:1050E0003B4810BD3B4810BD3B4810BDE89001084F
:1050F00078900108F490010844900108DC8C0108C4
:10510000948C0108BC8C01086C8C0108808C01080F
:10511000448C0108148C0108FC8B0108EC8B0108FD
:10512000888B0108E48D0108D08D01082C920108BC
:10513000F48D010828930108D48A0108A891010878
:10514000FC8E01085C8D0108DC920108888F010843
:10515000AC8F01086C92010858910108A0940108D5
:10516000089501087895010888950108809501083F
:105170009895010890950108A0950108B895010837
:10518000A8950108B0950108C09501083895010857
:10519000C8950108D0950108D8950108E095010847
:1051A000E8950108F0950108F895010800960108B6
:1051B0000896010810960108209601081896010823
:1051C00070950108689501086095010858950108D7
:1051D00050950108489501084095010830B50C4CE0
:1051E00083B00121082003F029F84FF4807541F2C3
:1051F000030301A92046ADF80630ADF8045002F0D3
:1052000083FE2946204602F0E7FE03B030BD00BF12
:10521000000C01404348444AD0F88810434B41F405
:10522000700110B4C0F88810116841F001011160DC
:10523000546823405360136823F0847323F480334D
:105240001360136823F480231360536823F00F6303
:1052500000204FF41F0123F470235360D0621063C9
:105260009160D3693249334843F08053D361CB68AE
:1052700043F00103CB60D36923F08053D36101680D
:1052800041F090010160116841F480314FF6FF73E5
:10529000116001E0013B02D011688803FAD5224B6E
:1052A0001A68910339D5234A116821F0030111606E
:1052B000116841F0040111605A685A605A6842F45A
:1052C00000525A605A6842F4A0625A605A6822F04A
:1052D000036222F470225A605A6842F0016242F47A
:1052E00070225A601A6842F080721A601A6892013D
:1052F000FCD559680C4A21F003015960596841F006
:1053000002015960536803F00C03082BFAD1054BD6
:10531000094A5DF8044B9A607047084B084A1A60C6
:10532000F5E700BF00ED00E00010024000C0FFF80C
:1053300000700040002002400000010838000020FA
:1053400000127A00704700BFFEE700BFFEE700BF13
:10535000FEE700BFFEE700BF704700BF704700BF19
:1053600070B500F108030646002293E8030001F03F
:1053700093FD756A02F0BAFC04464FF47A7005FB9F
:1053800000F002F0ABFC2546154CA4FB003405EB05
:10539000944402F0ABFC8442FBD806F1100393E87E
:1053A0000300012201F008FE756A02F09FFC04462A
:1053B0004FF47A7005FB00F002F090FC2546084C93
:1053C000A4FB003405EB944402F090FC8442FBD82B
:1053D000183696E803000122BDE8704001F0ECBDEC
:1053E00083DE1B432DE9F04B84B000F1180308273E
:1053F000029300F110030193DFF824B1C3190646AC
:105400000D4603934FF47A792B067DD4039B00223B
:1054100093E8030001F040FDD6F8248002F066FC1A
:10542000044609FB08F002F059FC6D00ABFB0023B9
:10543000EDB204EB934402F059FC8442FBD8019B8B
:10544000012293E8030001F0B7FDD6F8248002F0B2
:105450004DFC044609FB08F002F040FCABFB0023C6
:1054600004EB934402F042FC8442FBD896E803002C
:10547000002201F011FD013FC6D1029B012293E8F9
:10548000030001F099FD756A02F030FC04464FF408
:105490007A7005FB00F002F021FC214BA3FB0023F6
:1054A00004EB934402F022FC8442FBD8019B0122CE
:1054B00093E8030001F080FD029B93E8030001F0F4
:1054C000D7FD776A054602F011FC04464FF47A7066
:1054D00007FB00F002F002FC114BA3FB002304EBDE
:1054E000934402F003FC8442FBD896E803000022B8
:1054F00001F0D2FC029B012293E8030001F05CFD65
:105500004DB904B0BDE8F08B029B012293E8030083
:1055100001F052FD80E70348FFF7B6FAFDF798FC6B
:1055200083DE1B4394930108F8B5456A0F4606468F
:1055300002F0DCFB04464FF47A7005FB00F002F049
:10554000CDFB2546284CA4FB003405EB944402F027
:10555000CDFB8442FBD806F1180393E80300012237
:1055600001F02AFD06F1100393E80300012201F087
:1055700023FD756A02F0BAFB04464FF47A7005FB0E
:1055800000F002F0ABFB2546174CA4FB003405EB02
:10559000944402F0ABFB8442FBD806F1080393E885
:1055A0000300002201F078FC756A02F09FFB0446BC
:1055B0004FF47A7005FB00F002F090FB25460A4C90
:1055C000A4FB003405EB944402F090FB8442FBD82A
:1055D00096E80300002201F05FFC39463046BDE842
:1055E000F840FFF7FFBE00BF83DE1B432DE9F0410B
:1055F000054684B00078FCF73BFF80462C20FBF783
:1056000085FD2B695B0080F8203041F288321C4B0D
:10561000426202AF6A6969681A600446012238462C
:1056200001F0FEFC97E8030004F1100383E8030097
:105630006E4669683046012201F066FC96E8030078
:1056400084E803000122A968384601F0E9FC97E8E4
:10565000030004F1180383E803000122A96830461F
:1056600001F052FC96E8030004F1080383E803000C
:105670002146404604B0BDE8F041FCF71FBF00BF23
:105680005001002070B50D4690F8201006461446D3
:10569000FFF74AFF3DB1254414F8011B3046FFF7E0
:1056A000A1FEAC42F8D13046BDE87040FFF758BECD
:1056B0002DE9F04B84B00D4690F820101F460C9B4E
:1056C00003930646144641F00108002D40F0AA80DD
:1056D00041463046FFF728FF7B1EDBB20293002FC6
:1056E00000F0928006F118030093DFF8509106F164
:1056F00010030193009B012293E8030001F05CFC7E
:10570000082700254FF47A7BD6F8248002F0EEFAC1
:1057100004460BFB08F002F0E1FAA9FB002304EBBE
:10572000934402F0E3FA8442FBD8019B012293E800
:10573000030001F041FCD6F8248002F0D7FA0446B9
:105740000BFB08F002F0CAFAA9FB002304EB934418
:1057500002F0CCFA8442FBD8009B93E8030001F0EE
:1057600087FC6D00EDB20543002296E8030001F0CE
:1057700093FB013FEDB2C7D1009C012294E80300E6
:1057800001F01AFC029B002B44D194E80300012293
:1057900001F012FC776A02F0A9FA04464FF47A701D
:1057A00007FB00F002F09AFAA9FB002304EB9347F1
:1057B00002F09CFA8742FBD8019B012293E8030088
:1057C00001F0FAFB776A02F091FA04464FF47A701E
:1057D00007FB00F002F082FAA9FB002304EB9347D9
:1057E00002F084FA8742FBD8002296E8030001F019
:1057F00053FB029B039A013BDBB202F8015BFF2BD8
:10580000029303927FF476AF304604B0BDE8F04BCC
:10581000FFF7A6BD06F1080393E803003A4601F03E
:105820003BFBB7E7FFF780FE254414F8011B304629
:10583000FFF7D8FDA542F8D14AE700BF83DE1B433E
:1058400038B50749054650220078FBF723FD04468A
:10585000044B28796360FEF7DFF8206138BD00BF94
:10586000415801086958010808B5034604481A7DE3
:1058700042F001021A75FDF79BFA002008BD00BF37
:105880005401002038B5104905460078FBF7E2FCCA
:105890000446FDF701FA002323756B6803B938BD90
:1058A000E36004F1160000F0BFF802F0D5F902F051
:1058B0001DFAE3681844A06003212046FDF7FEFAB4
:1058C000BDE8384002F0CAB94158010870B5134923
:1058D00084B004460078FBF7BDFCAF230546ADF865
:1058E0000C3002F003FA03AB0646022228690121BC
:1058F000FEF7E8F802F0FAF99DF80DC021780CF0F7
:105900001F0C0CEB4C0C4FEA4C04831B00943246EA
:1059100005F1160000F0A6F804B070BD415801086A
:105920002DE9F0433E4885B0FDF74AFA80B1FF23E8
:105930003C4D3B4F8DF8033002E0237DDB070AD45A
:1059400029460DF10300FBF7D1FC04460028F4D1F1
:1059500005B0BDE8F083AF22002394F81A90ADF8AB
:105960000420A822029320698DF80E30ADF80C3087
:105970008DF8082002AB0722012109F11B069DF8D2
:105980000380A144FEF79EF801AB022220690121A9
:10599000FEF798F826449DF8093089F81B309DF8E9
:1059A0000A309DF8052073709DF80B30B3709DF898
:1059B0000C30F3709DF80D3033719DF80E3073711B
:1059C000A37E0633DBB22D2BA37602F03F0902F053
:1059D00040061CD8384616B1238B01332383B9F116
:1059E000000F02D0FDF7E4F9AAE7237D23F00103BD
:1059F000237502F031F902F079F9E36818440321C4
:105A0000A0602046FDF75AFA02F028F998E704F161
:105A10001600414600F00EF83846002EDFD0DBE7D6
:105A20005401002041580108002303804380037182
:105A3000704700BF10B584B0044609480391FFF7D2
:105A400055FA2346039933F8052B00932379FCF785
:105A5000A5F82388002201332271238004B010BDF1
:105A60000895010870B5044688B00A480593CDE949
:105A70000621FFF73BFA25790C9E079935440195DD
:105A80006588029524880094DDE90532FCF786F8E4
:105A900008B070BDA094010810B5174C0FCC8CB0A5
:105AA0000DF1040CACE80F000FCCACE80F0094E84B
:105AB00007000DF1040E8CE807004FF0000C5EF8B3
:105AC000040F6346724652F8041C814212D9013B0E
:105AD00042F80419591CF6D100230CAA02EB8303E7
