:020000040801F1
:10000000000002200D620108494701084D47010820
:1000100051470108554701085947010800000000F1
:100020000000000000000000000000005D47010823
:10003000614701080000000055620108F1600108F5
:1000400055620108556201085562010855620108B0
:1000500055620108556201085562010855620108A0
:100060005562010855620108556201085562010890
:100070005562010855620108556201085562010880
:100080005562010855620108556201085562010870
:100090005562010855620108556201085562010860
:1000A0005562010855620108556201085562010850
:1000B0005562010855620108ED46010855620108C4
:1000C0005562010855620108556201085562010830
:1000D00055620108795D0108556201085562010801
:1000E00085460108556201085562010855620108FC
:1000F0005562010855620108556201085562010800
:1001000055620108556201085562010855620108EF
:1001100055620108556201085562010855620108DF
:1001200055620108556201085562010855620108CF
:1001300055620108556201085562010855620108BF
:1001400055620108556201085562010855620108AF
:10015000556201085562010855620108556201089F
:10016000556201085562010855620108556201088F
:10017000556201085562010855620108556201087F
:080180005562010855620108F7
:1001900010B5054C237833B9044B13B10448AFF3C1
:1001A00000800123237010BD3800002000000000F3
:1001B0004C69010808B5034B1BB103490348AFF371
:1001C000008008BD000000003C0000204C690108D0
:1001D00001F0FF01102A2BDB10F0070F08D010F8F8
:1001E000013B013A8B422DD010F0070F42B3F6D1FC
:1001F000F0B441EA012141EA014122F007047FF015
:1002000000070023F0E80256083C85EA010586EA6B
:10021000010685FA47F5A3FA87F586FA47F6A5FAA7
:1002200087F68EB9EED1F0BC01F0FF0102F00702B3
:1002300032B110F8013B013A83EA010313B1F8D15E
:100240000020704701387047002D06BF354603383F
:10025000073815F0010F07D1013015F4807F02BF78
:10026000013015F4C03F0130F0BC0138704700BFC9
:10027000EC46A0E8F05F4FF000007047B0E8F05F98
:10028000E546080008BF0120704700BF10F8012BA9
:1002900011F8013B012A28BF9A42F7D0D01A7047C3
:1002A00030B583B004466D464168284604F01EFF11
:1002B00009492078094C2C2200F008FA034695E8F9
:1002C000030003F120025C6082E80300012283F84E
:1002D0002A2003B030BD00BFA1020108E1020108DD
:1002E00038B500F12005044695E8030004F01EFF30
:1002F00000284CD1636A5A1E012A95E8030030D9C0
:1003000023F00203042B2CD004F018FF94F82A30B9
:1003100094F82B2093422ED2218B0133DBB2084478
:1003200080B29A42208384F82A302AD8636A5A1EFF
:10033000012A0CD923F00203042B08D0638B8342DB
:100340002AD8A38B834227D3002384F828301A4865
:1003500001F058FE6369E26813446361A360012001
:1003600038BD04F0EBFE154B94F82B20188094F860
:100370002A309342D0D301239A42208384F82A3032
:10038000D4D9A36822691344A360012038BDA368AF
:100390001844A060012038BD94F8283094F8292032
:1003A0000133DBB29A4284F82830D0D8044803F0F5
:1003B0000DFD01F0A3FEC7E7580000205A00002001
:1003C0007069010838B515490546007800F05EF9F6
:1003D000044601F08BFD04F1200393E8030004F0D0
:1003E000FFFE6B686361A360AB6823612B7B84F8BD
:1003F0002B305A1C84F82A202A69E260D5E90501CD
:10040000EA6984F829206083A18303B938BD2046B6
:100410001F21BDE8384001F07BBE00BFA1020108EA
:100420002DE9F041214884B001F0F4FD30B3FF2301
:100430001F4D204F204E8DF80F3029460DF10F0033
:1004400000F070F90446C8B194F82A2094F82B30D3
:100450009A42F2D105F0C8FD94F82B3094F82A2086
:10046000934203F101010CD005F0C0FD29460DF1C6
:100470000F0000F057F904460028E5D104B0BDE8AC
:10048000F0816269B4F8188084F82A10019205F0AE
:10049000ADFD3046A7F8008003F0CAFE019A9DF832
:1004A0000F10434600F0F0FCC7E700BF58000020E3
:1004B000A1020108540000208469010830B583B00E
:1004C000FF23124D8DF8073006E093E8030004F097
:1004D00087FE94F82B305BB929460DF1070000F038
:1004E00021F9044600F120030028EED103B030BD0D
:1004F0006269E16801330A4484F82A306261A260CB
:100500000021204601F004FEE6E700BFA102010839
:1005100008B5044B04482B221A6003F057FC01F085
:10052000C1FD00BF2C010020B469010808B505F029
:1005300053FD034B033020F00300186008BD00BFDB
:100540005C00002070B50E4E336804461D1805F09F
:1005500047FD85420CD83568E31C23F003032B4488
:10056000224600212846336006F0E8F9284670BD8F
:10057000044B054828221A6003F028FC01F092FD84
:100580005C0000202C010020D0690108024B1A6891
:1005900002601860704700BF6C00002010B505F0C5
:1005A00027FD084B1C682CB122681A6005F024FD59
:1005B000204610BD044B05482A221A6003F006FCB1
:1005C00001F070FD6C0000202C010020E46901089E
:1005D0000068B0FA80F04009704700BF00687047BB
:1005E00003460A68002018601AB14A6813604B601D
:1005F0007047C1E900330120704700BF03681A68E3
:1006000002601846704700BF00230360704700BFB8
:1006100008B5FF294FF00003C0E9003308DC054BA3
:100620001B882BB9044B1A788A42B8BF197008BDD1
:10063000FFF76EFF68000020700000200F4B188845
:1006400010B4A0B1013815D00D4A0E4B146893F8C0
:1006500000C00022234619460132634482420B60E7
:10066000F9D102FB0C42084B002111601C605DF8BF
:10067000044B7047024B1C682246F4E768000020D8
:1006800074000020700000206C00002008B50B4BA7
:100690001B78834209D90A4B1B6853F830208A42E1
:1006A00003EBC00001D1406808BD064B06482D226F
:1006B0001A6003F08BFB01F0F5FC00BF780000200E
:1006C0007C0000202C010020F869010870B5104B57
:1006D0001C7803469C42104611D90E4D1AB2DC001C
:1006E0002B6853F8326056B90B4E36883EB943F842
:1006F0003210FFF727FF2B682344586070BD074B6B
:1007000007482E221A6003F061FB01F0CBFC00BF0A
:10071000780000207C000020680000202C010020D0
:100720000C6A010830B50E4A03780E4C126894F832
:1007300000E003F1010C5FFA8CF302EBC30205E069
:1007400052F8084B8C4203F1010C06D05FFA8CF38F
:100750009E451546F4D8002030BD0370686830BD52
:100760007C0000207800002038B50A4C236843B98B
:100770000568E8B2C000FFF7E5FE074B20601D707A
:1007800038BD064B06482F221A6003F01FFB01F00C
:1007900089FC00BF7C000020780000202C01002094
:1007A000206A010830B50D4D0D4885B003F040FDBD
:1007B00029880C4B003918BF01211A68039204469E
:1007C000029101F02FFC034628880090DDE9021217
:1007D000204600F059FB05B030BD00BF6800002086
:1007E000386A0108600000202DE9F0411E4F3B8867
:1007F000064683BB1D4BDFF88C801D78D8F800407F
:10080000032D9CBF04251D7005F0EAFB0023224642
:100810002C44A04213D30133B3F5805FF7D11D46BA
:10082000D8F80000201AFFF78DFE114B3D801860AC
:10083000FFF704FF0F4B32681A60BDE8F08113B177
:100840009DB21446ECE70C4B0C4829221A6003F0C9
:10085000BDFA01F027FC084B09482C221A6003F06E
:10086000B5FA01F01FFC00BF6800002070000020F6
:1008700074000020600000202C010020886A01081C
:10088000746A01085C00002010B5064803F0D0FC33
:10089000044605F0F3FB01462046BDE8104000F099
:1008A000F3BA00BF9C6A010810B582B005F0E6FB00
:1008B000094A0A4B11681B680446A34288BF0131EC
:1008C0000748019103F0B4FC0199224602B0BDE84B
:1008D000104000F0D9BA00BF840000208000002042
:1008E000AC6A01082DE9F041264D274E2B68274FB1
:1008F00001332B603368081A0344B0F5803F0C467F
:10090000336019D23B6800FB00F0FF3003EB10208E
:10091000984238BF4FF0FF3038601D48DFF87C80C8
:1009200005F0A4FBD8F8003001461944204605F034
:10093000A1FB70B1BDE8F081B0F5801F06D200F1D7
:10094000FF023B68120A00FB0230E1E74FF0FF3084
:10095000E2E7104803F06CFC3B683268296800F05D
:1009600093FAD8F80030A34203D90B4A1368013335
:1009700013600023C8F800403B6033602B60BDE883
:10098000F08100BF64000020880000208C0000205F
:10099000404B4C00C46A0108840000208000002005
:1009A00008B5044B044831221A6003F00FFA01F035
:1009B00079FB00BF2C010020E46A010801F086BB2E
:1009C00010B50E4B04681B6842689C4282B012D27C
:1009D000D2B21119994201D91A1BD2B20848019218
:1009E00003F026FC074B019A2344214602B0BDE8E0
:1009F000104000F049BA0022F0E700BF1080010863
:100A0000F46A0108DC740108704700BF704700BF3A
:100A1000704700BF10B5064803F00AFCBDE810405F
:100A200040F2E93340F25A2240F2EA7100F02CBA67
:100A30001C6B0108704700BF704700BFF8B5877F87
:100A400004469FB100252F4601262B46043304EBB4
:100A5000C30393E8030004F0DBFC01357100EBB243
:100A600000B13743A27F9A42CEB2EFD8227CBA427D
:100A700007D0637C7B40DB4382EA0701DBB20B4299
:100A800010D194F91C30257F6774002B04DB013DE5
:100A9000EDB2FF2D1ED02577D4E902321344012098
:100AA000A360F8BD22EA03023B401343A27C2374F7
:100AB000072AE6D8511C2244A1740848D37401F0D7
:100AC000A1FAFF232377D4E902326774134401208B
:100AD000A360F8BD014801F095FADCE79000002022
:100AE00010B50479082C09D8221D08490078D200D5
:100AF000FFF7ECFD064B8477436010BD054B0648BD
:100B000025221A6003F062F901F0CCFAE10A01082B
:100B10003D0A01082C010020446B010870B5114901
:100B2000054682B00078FFF7B1FD2B79827F9A42AB
:100B300004460ED96E46D5E9021230461D1D04F05A
:100B40003FFC96E8030004EBC50484E8030002B010
:100B500070BD054B054826221A6003F037F901F0F5
:100B6000A1FA00BFE10A01082C010020586B01081E
:100B700038B5144905460078FFF788FD044601F0B2
:100B8000B5F96B68A360A968E16000232A7CA374AF
:100B9000E376FE23627422742377EB6863771B0687
:100BA00007D401B938BD20463021BDE8384001F0F6
:100BB000AFBA054B054827221A6003F007F901F088
:100BC00071FA00BFE10A01082C010020806B0108C6
:100BD00038B5154904460078FFF758FD2479C37EDF
:100BE00005462344C37605F0FFF9AB7CA34207D842
:100BF000FE230022AA742B77BDE8384005F0F6B931
:100C00001B1BD8B205F1130204F112032B44141874
:100C100013F8011F02F8011BA242F9D1A874BDE824
:100C2000384005F0E3B900BFE10A0108F0B51A4801
:100C300085B001F0EFF948B3FF23184D184F8DF838
:100C40000F3029460DF10F00FFF76CFD0446E8B1A7
:100C5000237FFF2BF5D105F0C7F9A67CC6B1637FD2
:100C6000237705F0C3F9384603F0E2FA1334227A09
:100C70009DF80F100094334600F006F929460DF157
:100C80000F00FFF74FFD04460028E1D105B0F0BD8D
:100C900005F0ACF9D5E700BF90000020E10A01089B
:100CA000A46B0108704700BF70B514799668651E83
:100CB000A4B3814233D316F8012B042A20D810F8AC
:100CC000012B02F0600CBCF1600F03F1040E02F086
:100CD0007F0408D164F01F0405E010F8012B02F036
:100CE0007F0C4CEAC4141206F7D41C60B5B18142E3
:100CF00015D316F8012B042A05F1FF357346DED90A
:100D0000072A0CD1024612F8014B1019884206D866
:100D10009E464EF8084B5A60002DEAD170BD02483D
:100D200003F054F801F0BEF9D06B01082DE9F84347
:100D30008B78052B064694461C4666D9053B821CDB
:100D4000D4180B88CF784D687F2B00F28C80114629
:100D500003F07F0301F8013B002F53D08C42C0F019
:100D60008A802F4430E05CF8043B03F120027F2AA4
:100D700022D903F58052B2F5804F18D303F5002233
:100D8000B2F5001F0ED303F18062B2F1805F04D38D
:100D90001A0F62F07F0201F8012B5A0D62F07F02F8
:100DA00001F8012B9A0B62F07F0201F8012BDA099E
:100DB00062F07F0201F8012B03F07F0301F8013B91
:100DC000BD421FD08C4256D315F8013B052B30D0C5
:100DD000C9D9063B012B4ED8E0460B4658F8082BE4
:100DE000611A914228BF114603F8011B89460A4641
:100DF0001846DCF8041005F079FDBD4200EB09014E
:100E0000C446DFD1891BCC1CE3B21D4A3370127873
:100E10007270E51E2946304605F0DAF9030A73556B
:100E200026447E2306F8020C06F8013C2046BDE865
:100E3000F8835CF8040B03784A1C6BB1944202D827
:100E400017E094420BD002F8013B10F8013F002B51
:100E5000F7D1531A013BDBB20B701146B0E7631AAE
:100E6000013BDBB2F8E7DA0962F07F028270C21C54
:100E70006DE70023F0E7034802F0A8FF01F012F944
:100E800000000020E86B01080FB430B5084D2C7845
:100E900083B0E4B23CB9012307A906982B700191F5
:100EA00005F04EF82C7003B0BDE8304004B0704738
:100EB00091000020014B00221A7070479100002021
:100EC0002DE9F04B804615460C4619B900202860E4
:100ED000BDE8F08B2F4E3778FA0711D40429F5D9E5
:100EE00007787B1F3B2B05D890F8019029F00F0362
:100EF000102B1ED07E2F36D0337843F00107377089
:100F000022467E214046FFF763F950B3A0EB08006C
:100F100007F0FE07013037702860BB071DD447F08B
:100F2000020333701C48FFF7AFFF4FF0FF30BDE8FE
:100F3000F08BB942CAD3C31913F8012C7E2AD9D138
:100F4000F91E13F802BC435C4BEA032B05F040F991
:100F500083450DD098F80070CCE74FF0FF30BDE826
:100F6000F08B2C60D9E701232B604FF0FF30AFE707
:100F70000A4932780B782F6022F002024B4532701A
:100F8000D0D1013303F00F0343F010030B700120A5
:100F90009EE700BF92000020106C010800000020B6
:100FA0002DE9F04B033900F10209451882B0A9453B
:100FB00000AF30D2DFF8948099F9002099F8004012
:100FC000002A6E462BDB09F10100ACB31D4B1B88D8
:100FD0009C4231D208EB0412294693787A609B0038
:100FE000073303F4FF63ADEB030DEB465B46FFF7FE
:100FF0005BFE2401814601F015F818B17A68D278B9
:10100000D30715D5444404F0FFFFE26858469047E3
:10101000B546A945D0D30837BD46BDE8F08B99F851
:101020000120E40104F47E5409F102001443CCE7EA
:1010300001F016F8B546ECE7034802F0C7FE01F0F0
:1010400031F800BF04850108006C01081480010814
:101050000148FFF719BF00BF106C010830B5D0E997
:10106000004083B0FFF71EFE054604F0C1FFE3B267
:10107000012B0FD0022B10D02978C9B2019104F0B6
:10108000BBFF074803F0D4F8019903B0BDE8304036
:10109000FFF7FABE298889B2F0E72968EEE700BFBA
:1010A000186C010870B50446D0E90050FFF7FAFD4E
:1010B000A668044604F09CFFEBB2012B07D0022B7C
:1010C0000BD0F6B22670BDE8704004F095BFB6B202
:1010D0002680BDE8704004F08FBF2660BDE87040F8
:1010E00004F08ABF10B5D0E9004082B0FFF7DAFD06
:1010F0000190054803F09CF8019AE1B202B0BDE806
:101100001040FFF7C1BE00BF2C6C0108704700BF44
:1011100030B50B4983B0044628220078FFF7D6FA91
:101120006D4603466168A26828461C4604F048F9EB
:1011300095E8030004F10C0383E8030003B030BD1D
:101140001111010838B500F10C03044693E80300BF
:1011500004F05EF994F8245088B1ED4305F00105E0
:101160008DB994F82630013B13F0FF0315D0A26827
:10117000A16984F826300A44A260012038BD05F038
:101180000105002DEDD00849E26994F8253084F876
:101190002630C4E90112012038BD206A94F82710D6
:1011A00002F068FC284638BDAD11010800F10C03BF
:1011B00010B5044693E8030004F02AF9A3686269B5
:1011C0001A4494F8243030B1DB4303F0010333B107
:1011D000A260012010BD03F00103002BF8D1044BE5
:1011E000E26163602046BDE81040FFF7ABBF00BF7F
:1011F0004511010838B5174905460078FFF746FA4A
:10120000044600F073FE6B68A360AB68A3612B7BA0
:1012100084F82530CBB12A69626184F826306A6986
:101220000D4B002A14BF0322022284F82420287EBA
:10123000636002F04BFCEB6984F8273020621921CF
:101240002046BDE8384000F063BF84F824302362B4
:1012500038BD00BF11110108AD110108F0B50678C5
:10126000104985B03046FFF711FA044604F0BCFE81
:10127000E36994F82470039304F0B8FE0A4802F07E
:10128000D7FF0C34054694E8030004F0C1F8039B33
:101290000090C7F3400231462846FFF7F5FD05B040
:1012A000F0BD00BF111101083C6C0108704700BF80
:1012B00030B5D0E9011283B0003A04466D4618BF3C
:1012C0000122284603F0F0FF0F4920783422FFF76F
:1012D000FDF9034695E8030003F1180282E80300D4
:1012E000D4E90221003A18BF012209B142F01002EC
:1012F00083F8302022691A620C2103F1280003B020
:10130000BDE83040FFF784B9B11201082DE9F84378
:1013100000F1280804464046FFF75AF9002840F03B
:10132000A0804046FFF76AF985682E1E18BF012687
:1013300004F118030746324693E8030004F000F86E
:101340003846FFF723F9C5B1636AAB4215D9276A5E
:10135000002F68D1404646F00206FFF739F9002811
:1013600000F0878094F83030676103F01003334356
:10137000A66884F830302E4426E094F83030B5FA70
:1013800085F283F01003C3F3001352099A4225D06B
:10139000276A1FB3A168404646F004060F44FFF7D2
:1013A00017F9002848D094F83030676103F0100333
:1013B000334384F83030B30726D5A6682E44394627
:1013C000304604F057FEF8B1636A2B4A5B1BC4E950
:1013D0000126C4E903530120BDE8F8834046FFF726
:1013E000F7F8A8B981464046FFF7F8F8476894F83F
:1013F0003020676146F0040602F01002164384F8BC
:101400003060B9F1000FD8D1A7600120BDE8F883A2
:1014100094F8303003F010033343002084F8303068
:101420006061BDE8F883A168404646F006060F44B7
:10143000FFF7CEF80028B6D14046FFF7CFF80346B5
:1014400038465F68394604F015FE06F002090028A8
:10145000CDD00A4B0A481E221A6002F0B7FC00F0F9
:1014600021FE064B07481D221A6002F0AFFC00F077
:1014700019FE4FF00209B6E7891401082C0100207B
:10148000A46C0108786C010838B5044600F1180313
:1014900093E8030003F038FF94F83030A56883F038
:1014A0000103DA074CBFE268226984F830305B0739
:1014B000154402D4A560012038BD6169284604F0B6
:1014C000D9FD0028F6D1034B65696360A560012052
:1014D00038BD00BF0D13010838B50D490546007829
:1014E000FFF7D4F8044604F07FFD04F12800FFF76D
:1014F0006FF828B16B686362BDE8384004F076BDD0
:10150000044B05481F221A6002F060FC00F0CAFD7F
:10151000B11201082C010020DC6C0108F8B5234948
:1015200006460078FFF7B2F80446FFF737F8776809
:101530004760B3688360054604F056FD04F1280156
:101540002846FFF74DF8A0B194F830506A071ED432
:1015500045F0040384F83030AB0767610DD42046B2
:1015600000F0C4FC124B0F21C4E90137204600F003
:10157000CFFDBDE8F84004F039BDA068394604F05D
:1015800079FD0028EBD0BDE8F84004F02FBD60697C
:10159000394604F06FFD0028DAD0064B06482022B9
:1015A0001A6002F013FC00F07DFD00BFB1120108CB
:1015B0000D1301082C010020A46C0108F0B585B0C2
:1015C000D0E90075866804F059FD044641F2883080
:1015D00004F04CFD04442146284604F04BFD00284D
:1015E00018BF254601A8CDE901750396FFF796FFC0
:1015F00005B0F0BDF8B5244905460078FFF746F878
:10160000044600F073FC04F12800FEF7E1FF90B3FC
:101610002E7994F83050371E18BF012704F11803B3
:1016200093E803003A4603F08BFE85F01001B6FA0A
:1016300086F35B09C1F300118B4201D0236A2BB9F9
:1016400005F010053D4384F83050F8BD04F016FD58
:1016500005F01005236A3D43184445F004050B4B83
:1016600084F83050C4E9013060610E212046BDE8A5
:10167000F84000F04DBD064B064821221A6002F0EA
:10168000A5FB00F00FFD00BFB11201080D1301080A
:101690002C010020146D010830B583B0FF23124DDA
:1016A0008DF8073013E094F8302093E8030002F03F
:1016B000100203F045FE94F8303013F0100318BF09
:1016C000112304F1280084F83030FEF79DFF2946ED
:1016D0000DF10700FFF726F8044600F11803002873
:1016E000E1D103B030BD00BFB112010800B503461F
:1016F00083B0D3E90012684603F0D6FD03B05DF86D
:1017000004FB00BF024900781022FEF7DFBF00BFD4
:10171000051701080149FEF7B9BF00BF0517010809
:1017200030B5C3680D4985B0044603F07F030078E7
:101730000193FEF7ABFF02ADD4E901120446019B11
:10174000284603F0BBFF95E80300237B43F0020328
:1017500084E80300237305B030BD00BF05170108FE
:10176000037B816043F001030373704770B50E493A
:1017700004460078FEF78AFF0546A0682479FFF743
:1017800091FA2A7BD207034606D5A86821461A4655
:10179000BDE8704003F092B995E803002246BDE829
:1017A000704004F00BB800BF051701082DE9F043A5
:1017B00083B006781949044602AF3046FEF766FF4B
:1017C0000546A06894F80480FFF76CFA247BE21DBC
:1017D00002F4FC72ADEB020D2A7BD20703460DF139
:1017E000080913D5A868CDF800901A46414623464B
:1017F00003F07AF90A4802F01BFD4B4622463146B7
:10180000FFF742FB0437BD46BDE8F083CDE9004950
:10181000424695E8030004F001F8EBE705170108DC
:10182000446D01082DE9F04B84B005463A49007833
:1018300002AFFEF72BFF8046A8682C79FFF732FA3B
:10184000EE68F20762D4C6F34706386004EB060B75
:101850002869FFF727FA0BF1070298F80C307B6034
:1018600022F007023B68ADEB020D0DF108091946A5
:1018700005462246484605F039F87B6813F0010317
:101880007B603B682AD109EB04020192009698E83C
:101890000300224603F0C2FF6EB3013E2E44013C1A
:1018A0004C44013D314615F8012F14F8013F23EA5D
:1018B0000203237016F8012F8D4243EA02032370BE
:1018C000F1D17B68BBB1D8F808004A465FFA8BF1CA
:1018D00003F0F4F80837BD46BDE8F08B1A4609EB73
:1018E0000403D8F8080000932146334603F0FCF8BF
:1018F000002ED2D1E7E798E803004B465FFA8BF25F
:1019000003F05CFF0837BD46BDE8F08B034802F0EA
:101910005DFA00F0C7FB00BF051701086C6D0108F8
:1019200070B50A4B1E68002E82B00CDD084D0024F5
:101930002A7955F8081B684602F00102013403F0C9
:10194000B3FCB442F4D102B070BD00BFE885010819
:10195000E885010870B582B004466D4641680022F2
:10196000284603F0A1FCA3689EB21B0412D406F122
:1019700018020C49207892B2FEF7A8FE034695E8BB
:10198000030083E80300D4E903129E8299601A6180
:1019900002B070BD044B05481A221A6002F016FA14
:1019A00000F080FB551901082C010020946D0108FE
:1019B00070B5114904460078FEF768FE0346D4E985
:1019C000026065681C46FFF76DF92B0401460AD4D6
:1019D000A28AAB19934206D8163532466019BDE883
:1019E000704004F083BF054B05481B221A6002F0CB
:1019F000EDF900F057FB00BF551901082C0100203C
:101A0000B06D01082DE9F04B2DED028B0378624992
:101A100088B0184608EE103AFEF738FED0E90354B5
:101A2000059004F02BFB401B844206D904F0ECFA2D
:101A300004F024FB401B8442F8D8059D95E8030080
:101A400005F11602AF8A039706AE86E803000492FA
:101A5000029204F013FBAB6801930446002F50D0B0
:101A6000DFF84891029B13F8017B02934FF00808BE
:101A70003B064A484BD504F0F9FAA9FB0035AD0CFA
:101A800004F0FCFA001B8542FAD804F0ADFA04F029
:101A9000F5FA054696E8030003F036FC04F0A6FAD2
:101AA000019B2C1BA3425FD93D4804F0DFFAA9FB40
:101AB00000347F00A40C04F0E1FA401B8442FAD801
:101AC00004F092FA96E8030003F01EFC04F08EFA8C
:101AD00004F0D4FA8346334804F0C8FAA9FB003472
:101AE000A40C04F0CBFAA0EB0B008442F9D82C46EE
:101AF000B8F10108BCD1DDE903231344029A9A42EC
:101B0000B0D104F0BBFA059B0122D86036E004F0A6
:101B1000ADFAA9FB0035AD0C04F0B0FA001B85420C
:101B2000FAD804F061FA04F0A9FA834696E80300B3
:101B300003F0EAFB1B4804F099FAA9FB0035AD0C51
:101B400004F09CFAA0EB0B008542F9D896E803005C
:101B500003F0DAFB04F04AFA019BABEB0404A34266
:101B600002D97F005C46C3E7002296E8030003F039
:101B7000E7FB04F083FA059B0022D8600A48019233
:101B800002F056FB019A18EE101A08B0BDEC028B59
:101B9000BDE8F04BFFF778B955190108D0121300D2
:101BA00010EB0900400D0300D06D010883DE1B43DC
:101BB00030B50C4983B004462C220078FEF786FD30
:101BC0006D4603466168A26828461C4603F0F8FB90
:101BD00095E80300044A04F1240383E803006260EB
:101BE00003B030BDB11B0108ED1B010870B583695E
:101BF000044600F1240292E8030003F00105A66800
:101C000003F006FC854203D0A369E6610133A361BA
:101C10006069314604F02EFA28B9D4E9023213443F
:101C20000120A36070BD94F8202023690748334445
:101C300042F0010284F82020636100F0E3F9D4E966
:101C4000023213440120A36070BD00BF9400002045
:101C500038B50A4905460078FEF718FD044600F03D
:101C600045F96B68A360AA68E260EA682046C4E9A7
:101C700004233821BDE8384000F04ABAB11B0108FE
:101C800070B51C4886B000F0C5F980B3FF231A4D2B
:101C90001A4E8DF8173029460DF11700FEF742FD58
:101CA000044620B394F82030DB07F4D504F09CF907
:101CB00094F82010A268A369039221F0010184F82E
:101CC00020100293E46904F091F9304602F0B0FA72
:101CD000DDE902329DF817100094FFF7D5F8294688
:101CE0000DF11700FEF71EFD04460028DAD106B0FC
:101CF00070BD00BF94000020B11B0108F46D010805
:101D000038B5027B81680446007903F08DFB0949F0
:101D1000054620222078FEF7D9FCD4E90412064BB0
:101D2000C560818243600261BDE838400C211830F3
:101D3000FEF76EBC011D01083D1D0108F8B500F15C
:101D4000180604463046FEF759FC07890546394611
:101D5000E06803F04BFC2846FEF718FC3046FEF71F
:101D600037FC60B1A38ABB4224D0206900B9F8BD1A
:101D7000A368114A1844C4E901200120F8BD304687
:101D8000FEF72CFCA38A4568BB4201D0236913B936
:101D9000A5600120F8BDA0682946184404F06AF93E
:101DA0000028F5D0054B064818221A6002F00EF8FC
:101DB00000F078F90020F8BDC51D01082C010020B5
:101DC000306E010808B5044B044817221A6001F070
:101DD000FDFF00F067F900BF2C010020606E0108D4
:101DE00070B51C4905460078FEF750FC0646FEF724
:101DF000D5FB6B684360AB680381044604F0F4F8DC
:101E000006F118012046FEF7EBFB054604F0EEF85C
:101E100005B970BD304600F069F80F4B72689A4200
:101E200009D063680D4A3046C6E901232D21BDE87B
:101E3000704000F06DB96168B06804F01BF90028CB
:101E4000EFD0074B074819221A6001F0BFFF00F0DE
:101E500029F900BF011D0108C51D01083D1D01082C
:101E60002C010020306E010870B582B0FF230C4DAC
:101E70000C4E8DF8073008E0E068A18A03F0B6FB4D
:101E8000666004F11800FEF7BFFB29460DF107005C
:101E9000FEF748FC04460028EED102B070BD00BF3A
:101EA000011D01083D1D0108027A4168007803F018
:101EB000BBBA00BF00207047084B094810B500228C
:101EC0001A7204F0D3F8074A07499468034623447A
:101ED00003F10044012093608C6010BD04000020D9
:101EE000A08601001C0000202800002010B5044638
:101EF00004F07EF80E490B68A34202D111E0A34220
:101F00000CD01A461B68002BF9D14B68A34204BFC2
:101F1000084B4B60BDE8104004F06EB823681360B6
:101F2000F3E7054BA2689A6022681A600B60ECE741
:101F3000040000201C000020100000202DE9F843C0
:101F40001C4F3E68736830463BBB01F05BF9B568D7
:101F5000336838B39968284604F08CF810B12846E5
:101F6000BDE8F8837C683368A168D3F808903B60CB
:101F7000284604F07FF800B13C68A0462468284653
:101F8000A16804F077F80028F7D04D4634607E60F1
:101F9000C8F800602846BDE8F8839847B5683368FC
:101FA0000028D7D17A689D683B60B242D7D17B6068
:101FB000D5E700BF04000020074B084A084909483C
:101FC00010B49C6894605DF8044B0A604B60136029
:101FD000186004F059B800BF1C0000201000002059
:101FE0000400002028000020014B00221A727047D4
:101FF00004000020024B187AC043C0F3C0107047A1
:1020000004000020024B00221A7201230370704763
:102010000400002003780246D8B210B100231370E8
:1020200001207047024B587A003818BF01207047D2
:102030000400002010B5064802F0FAF8054B064AE5
:1020400006491B6812680978BDE81040FEF71CBFFE
:102050008C6E01089C0000209800002008010020E0
:1020600008B50A4802F0E4F8094B0A4A0A491B6815
:1020700009781268FEF708FF084802F0D9F8084B03
:10208000997ABDE80840FEF7FFBE00BF8C6E0108DC
:102090009C0000209800002008010020C46E010868
:1020A0000400002000B583B0019003F09DFF01996A
:1020B0000148FEF7E3F800BFAC00002008B5024875
:1020C00001F084FEFFF7EEFFE86E010808B5084A4C
:1020D000537A23B1022B1CBF0023537208BD054B5A
:1020E000054816221A6001F071FEFFF7DBFF00BF02
:1020F000040000202C010020006F010808B5034BEC
:102100005B7A03B108BDFFF7CDFF00BF04000020DC
:102110002DE9F04BDFF8949085680E46074603F0F2
:1021200067FFD9F800408046A168284603F0A2FF67
:1021300070B9264624682846A16803F09BFF002852
:10214000F7D03C6037604046BDE8F04B03F054BF29
:1021500003F094FF83460146284603F08BFF58B9ED
:102160000D4BC9F800309C4208BF24683C609D605C
:102170001F6003F089FFE6E7084B09481D60094B23
:10218000C3F800B0084B1E7001F020FE99F809302A
:10219000002BE5D1FFF786FF100000209C000020F7
:1021A000246F01089800002008010020040000208E
:1021B00038B5094D094B6B6003F060FF04460848D1
:1021C00003F054FF00230444AC6028462B606221D6
:1021D000BDE83840FFF79CBF0C010020D122010868
:1021E000A086010010B5304C2378042B59D8DFE8C5
:1021F00003F0272E363E030002F064FF2B4A2C49E1
:102200002378128808800133DBB2042B88BF0023B7
:10221000322A237033D8274C20780130C0B20A28E4
:10222000207000D810BD244801F0D0FD234B5B7A0C
:10223000002B34D02248082104F0DEF8207810BDAD
:1022400002F0F0FE1949237882B20A80DBE702F03F
:10225000FDFE1C49154A237812880880D3E702F056
:1022600009FF1949114A237812880880CBE702F048
:1022700015FF16490D4A237812880880C3E7114BD1
:102280001B88322BC7D9104B1B88322BC3D90F4B5D
:102290001B88322BBFD9074B0020187010BDFFF7E9
:1022A00001FF024A1288AEE7AB000020A400002024
:1022B000A0000020AA00002070690108040000208E
:1022C00000080140A8000020A6000020A200002075
:1022D000074B10B5002204461A72FFF783FF05482A
:1022E00003F0C4FEA368024613440120A36010BD9E
:1022F00004000020A086010070B582B001F008FD46
:1023000002F03EFA02F0E4FDFFF752FF02F008F996
:10231000304801F08DFFFEF7B7FD03F065FE2E4853
:10232000FDF7A6FF0446002834D103F05FFE03F05A
:10233000A5FE2A4C2A4D20601AE0FF232B7203F0E1
:102340005FFE95F90830002BF9D103F04FFE03F042
:1023500095FE23681844206001232B7201F000FDD4
:1023600003F08CFE064631462068FEF7BBFA266075
:1023700003F04AFE95F90830002BEDD003F07EFE05
:102380002368181A206003F02FFE95F90830002BFF
:10239000DBD0D2E703F028FE03F070FE104B5A7A30
:1023A000014602B99C720E4C019102236372FFF741
:1023B00003FE01F0BBFC0123637203F017FEFFF77D
:1023C00039FE084801F034FFA27A0199FEF75CFD5E
:1023D000ABE700BF346F0108AC00002018010020FB
:1023E00004000020406F010838B507490546502217
:1023F0000078FEF76BF90446044B2879636000F01F
:10240000ADFC206138BD00BFE9230108112401089B
:1024100008B5034604481A7D42F001021A75FFF719
:10242000F1FD002008BD00BF1C01002070B510495F
:1024300005460078FEF72AF904460026FFF756FD08
:1024400026756B6803B970BDE36004F1160002F0F5
:1024500007FD03F0C9FD03F011FEE3681844A06016
:1024600031462046FFF754FEBDE8704003F0BEBD84
:10247000E9230108F0B5134985B006460078FEF758
:1024800005F9B9230546ADF80C3003F0F7FD01213D
:1024900003AB02220746286900F0B6FC03F0EEFD0C
:1024A0009DF80D1021F08001202909D801EB81044D
:1024B000C31B317800943A4605F1160002F0EEFC99
:1024C00005B0F0BDE92301082DE9F043534885B07C
:1024D000FFF7A0FD88B1FF23514D524E4F4F8DF8AD
:1024E000033002E0237DDB070AD429460DF1030007
:1024F000FEF718F904460028F4D105B0BDE8F083D2
:1025000096E807000DF1040C6346ACE803008CF874
:10251000002020699DF803800922012100F074FC4D
:10252000A27E9DF8061002F11B0311F0F000234477
:1025300025D0F02823D0A118FF221A71DA709A70E2
:102540005A70CA76A37E0533DBB22E2BA37604D94C
:10255000414604F1160002F089FC237D23F00103BB
:10256000237503F041FD03F089FDE3681844A06082
:1025700000212046FFF7CCFD03F038FDB5E79DF8BC
:1025800008C01CF0F00001D0F028D4D19DF80A005A
:1025900010F0F00E34D19DF80BE0BEF1900FCAD1CF
:1025A0009DF80C9029F08009B9F1200FC3D801F0F3
:1025B0001F0141EA40118000224400F060000CF04D
:1025C0001F0C9DF805E082F81BE040EA0C0C9DF81A
:1025D000070058709DF809209A70D97083F804C0DC
:1025E000A37E0533DBB22E2BA3760DD8B9F11E0FD7
:1025F00010D9238B013323833846FFF703FD74E79B
:10260000BEF1F00F97D1C6E7414604F1160002F083
:102610002DFCEBE7B9F1010F9FD9EDE71C0100207C
:10262000E92301086469010870B5067A032E04469F
:1026300010D8104900785022FEF748F805460E4B96
:1026400020796B6000F08AFB286100F0D1FB48B173
:102650006E7570BD094B0A4814221A6001F0B6FB72
:10266000FFF720FD054B074815221A6001F0AEFB6D
:10267000FFF718FD29260108892601082C010020F2
:10268000686F0108846F010810B5037D5A0704467E
:102690000BD5C37D0133C3750648FFF7B3FCD4E9FE
:1026A000023213440120A36010BD43F004030375FC
:1026B000F2E700BF2001002010B4847D521A34B12B
:1026C00004F1FF3C012101FA0CF10A44E240FE2A28
:1026D0000AD8017F4418033162771A0AA377E27798
:1026E0005DF8044B01777047037FC2180121917791
:1026F000FF2400215477D17703335DF8044B03772F
:10270000704700BF38B50E4904460078FDF7BEFF9C
:102710000546FFF7EBFB00232B75A36803B938BD13
:102720006368AB60A368EB6005F1180002F098FBEA
:10273000E368AB7528464A21BDE83840FFF7E8BC9E
:10274000292601082DE9F04390F80080324905461A
:1027500085B04046FDF79AFF0446A8682F79FEF73A
:10276000A1FA94F81590B9F1020F054623D003F0B1
:1027700085FC03463A46206901211C462B4600F0A1
:1027800043FB03F07BFC0646322003F06FFC331B57
:10279000834288BF0027B9F1010F18BF26461F48A2
:1027A00001F046FD00953B4632464146FEF76CFB84
:1027B00005B0BDE8F0830DF108092169484600F035
:1027C0001BFB99E80300002202F0BAFD03F056FC5F
:1027D0000646012003F04AFC064401E003F014FC25
:1027E00003F04CFC0146304603F044FC0028F5D0D1
:1027F00003F0FAFB99E80300012202F0A1FD03F0C7
:102800003DFC064603F0F2FB20692B463A460121C7
:1028100000F0FAFAC3E700BF29260108A46F0108F7
:102820002DE9F04BC44888B0FFF7F4FB002856D0E0
:10283000FF23C24E8DF80B30002531460DF10B0001
:10284000FDF770FF0446002849D0237D5F07F4D5CB
:1028500003F0CAFB94F817B02575E575D4F8088025
:1028600003F0C4FBE768A8EB07030193BBF1000F7B
:1028700019D04FF0FF0902E0BBF1010B13D0237F09
:10288000E1180333DBB2302B81F81D908D77CD77C3
:102890002377F1D99DF80B1004F1180002F0E6FA45
:1028A000BBF1010BEBD194F815B0BBF1000F19D0BF
:1028B000BBF1010F57D0BBF1020F76D0237F302B35
:1028C000BBD904F118009DF80B1002F0CFFA314685
:1028D0000DF10B00FDF726FF04460028B5D108B026
:1028E000BDE8F08B4FF03208ADF8148003F0C6FB62
:1028F00005AB022201210746206900F085FA03F0AA
:10290000BDFB03464046A3EB070803F0AFFB804541
:102910000BD9237FE218FF2103335177DBB2022169
:1029200082F81FB091772377C9E79DF914209DF8AD
:102930001430002A0BDA237FE218FF21033351778A
:10294000DBB2032182F81FB091772377B7E79DF8B8
:10295000150001995B0243EA40033A462046FFF71F
:10296000ABFE237FABE74FF67F63ADF8143003F087
:1029700085FB05AB022200218046206900F044FA65
:1029800003F07CFBA0EB08080746322003F06EFB47
:10299000804573D9237FE218FF2103335177DBB2DF
:1029A0000221D5779177237789E70DF10C0B216907
:1029B000584600F021FA9BE80300002202F0C0FC18
:1029C00003F05CFB8146012003F050FB814401E0F1
:1029D00003F01AFB03F052FB0146484603F04AFBA2
:1029E0000028F5D003F000FB9BE80300012202F071
:1029F000A7FC03F043FB814603F0F8FA42F284336C
:102A00000593ADF81C50069520690A22012105ABFB
:102A100000F0FAF90DF115010DF11B00052211F876
:102A2000013F4FF0080B5A40530012F0800F08BFCF
:102A3000520083F01D0314BFDAB2D2B2BBF1010B16
:102A4000F2D18842EBD1D3439DF81D20DBB29A42EC
:102A50007FF471AF9DF81C30DB0641D59DF916302F
:102A6000002B53DB237FE218FF2103335177DBB2C6
:102A7000042182F81FB09177237720E7C0228DF8D8
:102A800014208DF8155005AB59460222206900F03C
:102A9000BBF99DF814309DF8151083EA010282EA13
:102AA000121282EA920282EA520212F001020CD160
:102AB000580621D5237FE1180333CA77FF20DBB204
:102AC000052248778A772377F9E6237FE218FF21EA
:102AD00003335177DBB20321D57791772377EEE685
:102AE000237FE218FF2103335177DBB2052182F8FF
:102AF0001FB091772377E2E6890041EA83233A46C3
:102B000001992046FFF7D8FD237FD8E640F25550C3
:102B100003F0ACFAA7EB0807B944814510D9237F2D
:102B2000E218FF2103335177DBB2012182F81FB095
:102B300091772377C3E600BF2001002029260108F2
:102B40009DF817209DF816309DF81A00520042EAB1
:102B50004322237FE11803338A77C0F34500DBB2B9
:102B6000120A4877CA772377A9E600BF2DE9F0411A
:102B700090F81080B8F1030F84B0054631D8007882
:102B800000F0ECF807461C20FDF7DCFC02AE044622
:102B900069683046012202F013FC96E8030084E8DD
:102BA00003006E46A9683046002202F07DFB96E8DD
:102BB000030004F1080383E803000022E9683046BB
:102BC00002F072FB96E8030004F1100383E80300AF
:102BD0002146384684F8188004B0BDE8F04100F082
:102BE000F1B8044B044813221A6001F0EFF8FFF724
:102BF00059FA00BF2C010020E06F0108027E00F1AD
:102C0000100393E8030002F0020202F099BB00BF38
:102C10002DE9F04B82B0541E07460091E4B2002A21
:102C20004DD003F1FF392344019300F1100600F168
:102C3000080819F8015F4FF0080B00241AE096E825
:102C4000030002F06BFB05F0800298E8030002F03D
:102C500077FB96E8030002F061FB97E8030002F0BF
:102C6000D7FB6400E4B26D000443BBF1010BEDB28D
:102C7000E4B21DD03B7EDB0705F08002DFD498E88C
:102C8000030002F05DFB96E8030002F047FB97E8C3
:102C9000030002F0BDFB6400E4B2044396E80300C5
:102CA00002F03CFB6D00BBF1010BEDB2E4B2E1D1EF
:102CB000009B0BB189F80040019B4B45B9D102B094
:102CC000BDE8F08B70B5044682B00F49007814223D
:102CD000FDF7FCFCA66861686D46B6FA86F25209FB
:102CE0000446284602F0E0FA95E8030004F10803E0
:102CF00083E80300002E94F9103014BF092201224A
:102D00001343237402B070BDC52C0108F8B50D49FA
:102D100004460079FDF7BAFC267A0B4906F1080251
:102D200007462078FDF7D2FC05460671E0682F6063
:102D3000FDF7B8FF32460146681DBDE8F84003F0D4
:102D4000D5BD00BFC52C01080D2D01080249007832
:102D50001422FDF7BBBC00BFC52C01080149FDF7DB
:102D600095BC00BFC52C010870B505461249007816
:102D700082B0FDF78BFC2A7A032A044613D8037C21
:102D800013F0060F0FD16E46EB686968304602F00B
:102D9000A7FD96E80300237C43F0040384E80300C6
:102DA000237402B070BD054B054811221A6001F072
:102DB0000DF8FFF777F900BFC52C01082C010020A2
:102DC000E06F010808B5037C13F0060F04D143F04F
:102DD00002030374016008BD034B044812221A6009
:102DE00000F0F4FFFFF75EF92C010020E06F01080E
:102DF000007C00F0010070470831034603C983E8F6
:102E000003001846704700BF2DE9F043057C15F01C
:102E1000060F83B004460E46174699461DD0A907F3
:102E20000DD50068FFF7EAFEEA0735D420684B4667
:102E30003A46314603B0BDE8F043FFF7E9BED0E9BA
:102E4000000102F09FFDEB070AD494E803003B4623
:102E5000CDF80090324602F0A7FD03B0BDE8F08344
:102E600004F10808C5F3C00298E8030002F068FA0C
:102E7000CDF8009094E803003B463246ED0802F09E
:102E800093FD98E8030085F0010202F0010203B00F
:102E9000BDE8F04302F054BA04F1080898E80300D2
:102EA000C5F3C00202F04CFA20684B463A46314660
:102EB000ED08FFF7ADFEE4E770B506780F4982B084
:102EC00004463046FDF7E2FB0346D4E901501C46B8
:102ED000FDF7E8FEEAB2034601212046CDE90023D2
:102EE000FFF792FF064801F0A3F9DDE90023314620
:102EF00002B0BDE87040FDF7C7BF00BFC52C010898
:102F0000F46F010830B50A4983B004460078FDF734
:102F1000BDFB227901920546A068FDF7C3FE019A28
:102F200003460021284603B0BDE83040FFF76CBFE0
:102F3000C52C010810B582B0FF23154C8DF8073061
:102F400002E0027CD3071AD421460DF10700FDF7F9
:102F5000E9FB0028F5D1FF230E4C8DF8073003E084
:102F600002790068FFF750FF21460DF10700FDF7D9
:102F7000D9FB0021431D0028F2D102B010BD82F020
:102F80000802083003C8C2F3C00202F0D9F9DBE737
:102F9000C52C01080D2D010838B500F13405044693
:102FA0002846FDF715FB10B10020606138BD2846AA
:102FB000FDF724FBB0F90830426823821344E36034
:102FC00094F84430D90605460FD5A168438963615A
:102FD0000A44A2602A7BD20711D4226B13442363D4
:102FE0002846FDF7D3FA012038BDA16943890A4478
:102FF000A261A2605A0062612A7BD207EDD5216BE3
:1030000004F128025B1A236392E8030002F07CF9C2
:10301000E6E700BF70B500F12003044693E8030023
:1030200002F072F903F02AF86369E169013BDA07FB
:10303000636100EB010503D5A5600126304670BD34
:1030400083B1E268A069B4F9103010441344A06160
:10305000E360294603F00EF80028EDD1A369A360D0
:103060000126EBE72046FFF797FF06460028E5D04C
:10307000A068294602F0FEFF0028DFD0A3684FF4C5
:103080007A705E1B02F0F2FF4042B042D4DD044B86
:1030900004480E221A6000F099FEFFF703F800BF03
:1030A0002C010020207001082DE9F041054632492D
:1030B000007882B04822FDF709FBEF68002F044634
:1030C00027DD04226E4680F844206968304602F00D
:1030D000EBF896E8030004F1200383E803000022E4
:1030E000A968304602F0E0F896E8030004F12803EE
:1030F00083E803004FF0404323632B69E361102111
:1031000004F13400FDF784FA1C4B636002B0BDE8A3
:10311000F0814FF000086E4680F8448069684246AE
:10312000304602F0C1F896E8030004F1200383E87A
:1031300003004246A968304602F0B6F896E803005C
:1031400004F1280383E803004FF0404323632B6915
:10315000E361102104F13400FDF75AFAE369002B12
:10316000D2D1002FD0D094F8443043F0100384F82B
:10317000443002B0BDE8F081A930010815300108E3
:1031800038B50446A0F13C052846FEF7AFFE237A89
:1031900054F80C1C002244F8342C44F8242C54F825
:1031A000282CD8064CBF891AA1EB520103F0140356
:1031B000002943F00803C8BF49420022237205F1E9
:1031C000280344F80C1C44F8282C93E8030002F070
:1031D000B7F8227AD3060DD5083C03E0FDF70EFAC6
:1031E000FDF7D4F92046FDF7F3F903462046002BFE
:1031F000F4D038BD203595E8030002F0040202F057
:103200009FF8E9E700F1200310B5044693E80300B6
:1032100002F07AF86369013B0AD0D4E90210B4F9EC
:103220001020636101440244C4E90212012010BD70
:103230002046BDE81040FFF7AFBE00BF70B529497A
:1032400005460078FDF722FA0646FDF7A7F96B68F8
:1032500043602B8943810446002B3BD0EA680281FE
:103260000023037302F0C0FE96F8443003F001011E
:10327000C3F34002914205D0227B42F0010283F069
:10328000010322737269D2B91A0711D406F134010D
:1032900086F844302046FDF7A3F93046FFF77CFE60
:1032A00030461621FEF734FFBDE8704002F09EBEA6
:1032B0002046FDF76BF9BDE8704002F097BE86F836
:1032C000443006F134012046FDF78AF9BDE870402C
:1032D00002F08CBE044B05480F221A6000F076FD08
:1032E000FEF7E0FEA93001082C010020387001082B
:1032F00038B50C4904460078FDF7C8F96368044600
:10330000002B14BF0225002502F06EFE94F8443015
:1033100023F002031D4384F84450BDE8384002F016
:1033200065BE00BFA930010838B50F4905460078D1
:10333000FDF7ACF904466D6802F056FE63695BB9AF
:1033400094F84430A56023F00803A56184F8443064
:10335000BDE8384002F04ABE044B054810221A600E
:1033600000F034FDFEF79EFEA93001082C0100207C
:103370005070010870B506780F493046FDF786F9A0
:10338000054602F031FE95F844302C6B6A69DB0685
:103390004CBFA41AA4EB520402F028FE002CB8BFC4
:1033A0006442064800F044FF04F140423146BDE863
:1033B0007040FDF769BD00BFA930010878700108B1
:1033C00038B5084904460078FDF760F905462079CC
:1033D00000F07CFB05F13C01034ABDE8384000F0F9
:1033E0007BBB00BFA93001088131010830B583B033
:1033F000FF230B4D8DF8073006E0FDF705F900219E
:1034000004F13C00FFF7BCFE29460DF10700FDF773
:1034100089F904463430002CEFD103B030BD00BF31
:10342000A930010810B504460648FEF7EBFDD4E9C3
:103430000231627F42F001020B446277A3600120F7
:1034400010BD00BF2401002010B5047A032C08D859
:10345000084900782022FDF739F9074B04774360CB
:1034600010BD064B064803221A6000F0AFFCFEF7C1
:1034700019FE00BF49340108253401082C01002041
:103480009870010838B50D4904460078FDF7FEF83C
:103490000B4B054600221A70FEF728FD6368AB60EF
:1034A000A368EB6003B938BDE3682B6123696B61E6
:1034B00028464421BDE83840FEF72ABE49340108B9
:1034C000210100202DE9F04B3D4886B0FEF7A2FD1A
:1034D000002849D0FF233B4D3B4FDFF8F0808DF8AB
:1034E0001330002629460DF11300FDF71BF90446A1
:1034F000002839D0637FDA07F4D502F075FD637FC9
:10350000D4F8089023F00103637702F06FFD237F66
:10351000032BE7D8DFE803F046392B02A0699DF8BA
:1035200013B0ADF8146005AB02220121FFF76CFC6B
:10353000BDF8144064BAA4B2384600F079FE2346C0
:103540004A4659460096FDF79FFC6307CAD5404698
:1035500000F03CFCFEF7D2FD29460DF11300FDF70B
:10356000E1F804460028C5D106B0BDE8F08B9DF80F
:1035700013100391384600F05BFE039900964A460B
:1035800044F22C03FDF780FCACE79DF81310039187
:10359000384600F04DFE039900964A460023FDF799
:1035A00073FC9FE79DF813100391384600F040FE2E
:1035B000039900964A464FF0A073FDF765FC91E72A
:1035C0002401002049340108B8700108F470010892
:1035D0002DE9F043044685B01A4900783422FDF7FE
:1035E00075F894F80890D4F80480E768B9F10002FF
:1035F00002AE054618BF01224146304601F0E0FE0A
:1036000096E8030005F114036E4683E803000122E7
:103610003946304601F048FE96E8030005F10C03F8
:1036200083E80300B9F1000F08BF012322692A6271
:1036300018BF1123B84508BF43F020032B7705B00E
:10364000BDE8F083D135010838B5044600F10C031C
:1036500093E8030001F058FE637F94F81CC094F8CF
:103660001FE0656A0133DBB28CF0010C734584F80E
:103670001CC00CF0010C29D204EBD30203F00701AB
:1036800092F828200A4102F001029445294607D009
:1036900016E092F82820024102F0010294450FD171
:1036A0000133DBB2734504EBD30203F00700294476
:1036B000EFD3A368064A0B44C4E90123012038BDB7
:1036C000A26863770A44A260012038BD2946F0E76A
:1036D0003D37010800F10C0310B5044693E80300E0
:1036E00001F012FE02F0CAFC637F227F0133DBB2DD
:1036F00082F00102012B2277637719D0042B05D8C1
:10370000A268236A1344A360012010BDA368626A03
:103710001A44801A811C226A48BF411D02EBA10194
:103720001844054A61620844C4E90120012010BD23
:10373000A268801A6062E4E74936010810B5837F09
:103740000446B3B1027F93060AD4A368606A164A9E
:10375000002103EB80036177C4E90123012010BD40
:1037600000F1140393E8030002F0100201F0F4FDED
:10377000EBE7037F13F0200F00F10C0393E8030045
:103780004FF001020CD101F0DBFD237F074803F06D
:10379000300343F009032377FEF734FC002010BD0B
:1037A00001F04AFDF1E700BF35380108280100208B
:1037B00000F1140310B5044693E8030001F028FE5D
:1037C000637F04EBD30C012203F0070102FA01F13D
:1037D0009CF8282078B10A43D2B28CF82820A27F26
:1037E0000133DBB29A4209D9A268616A63770A445D
:1037F000A260012010BD22EA0102EEE7237F13F050
:10380000200F04F10C0393E803004FF001020CD1E8
:1038100001F096FD237F064803F0300343F00903CF
:103820002377FEF7EFFB002010BD01F005FDF1E767
:103830002801002000F1140310B5044693E80300AA
:1038400001F0E6FD237F68B143F004032377637F33
:103850005A1C3F2B62770FD8A368626A1344012079
:10386000A36010BD5B07F2D56077114B6360204603
:10387000BDE81040FFF79CBF237F0022A27713F022
:10388000200F04F10C0393E803004FF001020CD069
:1038900001F0D2FC237F074803F0300343F0090313
:1038A0002377FEF7AFFB002010BD01F049FDF1E7E3
:1038B000B137010828010020F8B5264905460078EF
:1038C000FCF7E4FE037F13F00206044600D0F8BDC7
:1038D000A8682F79FDF7E6F90A2F2D7B014631D82C
:1038E0000A2D2FD83A4604F1280002F0FFFF237F6B
:1038F000667703F0310343F00203ED002377FB000A
:10390000E377A5772FB194F8283003F03F032A2BF3
:1039100015D0226A104B6262636002F065FB02F010
:10392000ADFB0546C82002F0A1FB2844A06033216E
:103930002046FEF7EDFBBDE8F84002F057BB074B11
:103940006360EAE7064B074802221A6000F03EFA7D
:10395000FEF7A8FBD135010849360108D536010824
:103960002C0100201071010870B5184882B0FEF7D4
:1039700051FB48B3FF23164D164E8DF807302946EC
:103980000DF10700FCF7CEFE0446E8B1237F1B07CC
:10399000F5D502F029FB237F23F00803237702F0FB
:1039A00025FB304600F044FCA27F9DF8071004F18F
:1039B0002803D208FDF768FA29460DF10700FCF745
:1039C000B1FE04460028E1D102B070BD28010020FC
:1039D000D13501082871010830B583B0FF23114D9E
:1039E0008DF8073008E003C901F026FC237F03F0BF
:1039F000300343F00103237729460DF10700FCF75C
:103A000091FE00F10C01012204460B4640B1207FDB
:103A10008006E8D493E80300012201F091FCE5E779
:103A200003B030BDD135010810B50446074894F8FD
:103A3000203043F0040384F82030FEF7E3FAA36853
:103A4000A26913440120A36010BD00BF3001002013
:103A500008B5242204490078FCF738FE034A044BD9
:103A60004260036108BD00BF513A0108293A0108CC
:103A7000BD3A010870B590F82030DA0704460E46CA
:103A800019D5C06984F8211023F0050343F004031D
:103A900084F8203050B10025D0E900233146E2619E
:103AA000C0E900559847E0690028F5D1BDE87040AD
:103AB0000148FEF7A7BA70BD3001002008B50346E3
:103AC0000C38997DFFF7D6FF002008BD0149FCF7AF
:103AD000DDBD00BF513A010870B50C4605461646DB
:103AE00002F086FA636843B93EB1EB69C4E9003677
:103AF000EC61BDE8704002F07FBA044B044801223B
:103B00001A6000F063F9FEF7CDFA00BF2C01002027
:103B10004C71010838B51A4905460078FCF7B6FD26
:103B2000044602F061FA2046FEF7E0F904F10C00C9
:103B3000FEF7DCF9E36933B100211A461B68C2E9DC
:103B40000011002BF9D100220123238484F82220C4
:103B50006B68A360AB68C4E9063233B9EB6884F8DC
:103B60002230BDE8384002F041BA20461D21FEF760
:103B7000CFFAEB6884F82230BDE8384002F036BA5C
:103B8000513A010830B5114983B005460078FCF779
:103B90007DFD044602F028FA94F82030DB0704D4B7
:103BA00003B0BDE8304002F021BA04F10C000190EE
:103BB000FEF79CF96B68019863611C21FEF7A8FA77
:103BC00003B0BDE8304002F011BA00BF513A01081D
:103BD00070B50678134984B005463046FCF756FDAB
:103BE000044602F001FA29792046FFF743FF2046F8
:103BF000FEF77CF9002504F10C00FEF777F994F844
:103C0000213084F82050039302F0F0F9064800F0C8
:103C10000FFB039B00952A463146FDF735F904B0AA
:103C200070BD00BF513A0108747101082DE9F041DF
:103C30001E4886B0FEF7EEF9A0B3FF231C4E1D4FC1
:103C40008DF8173031460DF11700FCF76BFD044677
:103C500040B394F820305B07F4D502F00FFA054624
:103C600002F0C2F994F8208094F82130039328F0F0
:103C7000040284F8202002F0B9F99DF8171002918F
:103C8000384600F0D5FA039B0299009508F001022E
:103C9000FDF7FAF831460DF11700FCF743FD044635
:103CA0000028D6D106B0BDE8F08100BF3001002069
:103CB000513A01087471010870B5144E82B0FF23A7
:103CC00031460DF107008DF80730FCF72BFD00247D
:103CD0000546C8B1FEF70AF905F10C00FEF706F932
:103CE000EB692BB11A461B68C2E90044002BF9D1DD
:103CF000EC612C8485F8224031460DF10700FCF779
:103D000011FD05460028E5D102B070BD513A010809
:103D100008B5FCF70BFCFDF703FE01F06FFE02F0A7
:103D2000C1F9BDE8084002F053B800BF08B5FDF77F
:103D3000C1F8FCF783FCFDF7AFFCFFF757FBFFF77B
:103D4000BBFFFCF7BBFBFFF7F5F8FEF78DF8FFF7BD
:103D500043FE02F05BF9BDE8084002F0A1B900BFE4
:103D600008B502F051F9FFF761FF02F04DF9FCF7D9
:103D700057FB02F049F9FCF759FF02F045F9FFF74C
:103D8000F3FD02F041F9FDF77BFF02F03DF9FFF78B
:103D900099FB02F039F9FEF797FB02F035F9FEF7CF
:103DA0003FFD02F031F900F0D7FF02F02DF901F0EC
:103DB0001DFE02F029F902F0F7F902F025F902F0F0
:103DC00063F8BDE8084002F01FB900BF10B5C9494B
:103DD0000446FCF75BFA002800F06281C6492046E1
:103DE000FCF754FA002800F05981C4492046FCF73A
:103DF0004DFA002800F05881C1492046FCF746FAE8
:103E0000002800F04F81BF492046FCF73FFA002808
:103E100000F04C81BC492046FCF738FA002800F03D
:103E20004981BA492046FCF731FA002800F0448164
:103E3000B7492046FCF72AFA002800F03981B54935
:103E40002046FCF723FA002800F03881B2492046CA
:103E5000FCF71CFA002800F03381B0492046FCF73B
:103E600015FA002800F02E81AD492046FCF70EFA25
:103E7000002800F02981AB492046FCF707FA00280A
:103E800000F02481A8492046FCF700FA002800F041
:103E90001F81A6492046FCF7F9F9002800F01A8195
:103EA000A3492046FCF7F2F9002800F01581A1494A
:103EB0002046FCF7EBF9002800F010819E492046CF
:103EC000FCF7E4F9002800F00B819C492046FCF740
:103ED000DDF9002800F0068199492046FCF7D6F963
:103EE000002800F0018197492046FCF7CFF900280F
:103EF00000F0FE8094492046FCF7C8F9002800F045
:103F0000F58092492046FCF7C1F9002800F08E8127
:103F10008F492046FCF7BAF9002800F085818D49C9
:103F20002046FCF7B3F9002800F07C818A4920463E
:103F3000FCF7ACF9002800F0738188492046FCF7B3
:103F4000A5F9002800F06A8185492046FCF79EF912
:103F5000002800F0618183492046FCF797F900288A
:103F600000F0588180492046FCF790F9002800F0C5
:103F70004F817E492046FCF789F9002800F04681F0
:103F80007B492046FCF782F9002800F03D81794901
:103F90002046FCF77BF9002800F034817649204662
:103FA000FCF774F9002800F02B8174492046FCF7D7
:103FB0006DF9002800F0228171492046FCF766F96E
:103FC000002800F019816F492046FCF75FF90028AE
:103FD00000F010816C492046FCF758F9002800F0E9
:103FE00007816A492046FCF751F9002800F0FE805D
:103FF00067492046FCF74AF9002800F0F58065493A
:104000002046FCF743F9002800F0EC806249204686
:10401000FCF73CF9002800F0E38060492046FCF7FB
:1040200035F9002800F0DA805D492046FCF72EF9CA
:10403000002800F0D1805B492046FCF727F90028D2
:1040400000F0C88058492046FCF720F9002800F00D
:10405000BF8056492046FCF719F9002800F0B680C9
:1040600053492046FCF712F9002800F0AD80514971
:104070002046FCF70BF9002800F0A4804E492046AA
:10408000FCF704F9002800F09B804C492046FCF71F
:10409000FDF8002814BFFF20342010BD032010BD00
:1040A000022010BD052010BD042010BD062010BD4B
:1040B000092010BD072010BD082010BD0A2010BD2A
:1040C0000B2010BD0C2010BD0D2010BD0E2010BD0A
:1040D0000F2010BD102010BD112010BD122010BDEA
:1040E000132010BD142010BD152010BD172010BDC9
:1040F000162010BD006F0108246F0108E86E01084A
:10410000006C0108E86B0108D06B0108E46A010843
:10411000B4710108206A01080C6A0108F8690108F5
:10412000746A0108B4690108E4690108886A010831
:10413000D0690108146D0108A46C0108DC6C010849
:10414000786C01085070010838700108207001086F
:104150004C71010870690108E06F01086C6D01087D
:10416000306E0108606E0108806B0108586B010811
:10417000446B010810710108B06D0108946D0108CD
:10418000E0710108F470010898700108846F01085B
:10419000686F0108F0710108087201081C720108BB
:1041A00030720108507201086872010874720108C7
:1041B0008872010898720108AC720108D87201086F
:1041C000332010BD322010BD312010BD302010BD75
:1041D0002F2010BD2E2010BD2D2010BD2C2010BD75
:1041E0002B2010BD2A2010BD292010BD282010BD75
:1041F000272010BD262010BD252010BD242010BD75
:10420000232010BD222010BD212010BD202010BD74
:104210001F2010BD1E2010BD1D2010BD1C2010BD74
:104220001B2010BD1A2010BD192010BD182010BD74
:1042300010B57F490446FCF729F8002800F0C0803B
:104240007C492046FCF722F8002800F0B7807A4924
:104250002046FCF71BF8002800F0B680774920467E
:10426000FCF714F8002800F0AD8075492046FCF7F3
:104270000DF8002800F0AA8072492046FCF706F8E5
:10428000002800F0A78070492046FBF7FFFF0028B8
:1042900000F0A2806D492046FBF7F8FF002800F0EF
:1042A00097806B492046FBF7F1FF002800F09680CD
:1042B00068492046FBF7EAFF002800F09180664934
:1042C0002046FBF7E3FF002800F08C80634920467E
:1042D000FBF7DCFF002800F0878061492046FBF7F0
:1042E000D5FF002800F082805E492046FBF7CEFF14
:1042F00000287DD05C492046FBF7C8FF002879D014
:104300005A492046FBF7C2FF002875D0584920467D
:10431000FBF7BCFF002871D056492046FBF7B6FFDB
:1043200000286DD054492046FBF7B0FF002869D023
:1043300052492046FBF7AAFF002865D05049204685
:10434000FBF7A4FF002863D04E492046FBF79EFFF1
:1043500000285BD04C492046FBF798FF002865D029
:104360004A492046FBF792FF00285DD04849204685
:10437000FBF78CFF002855D046492046FBF786FF07
:1043800000284DD044492046FBF780FF002845D047
:1043900042492046FBF77AFF00283DD0404920469D
:1043A000FBF774FF002835D03E492046FBF76EFF2F
:1043B0003D4B00280CBF1846002010BD3B4810BDE7
:1043C0003B4810BD3B4810BD3B4810BD3B4810BDAD
:1043D0003B4810BD3B4810BD3B4810BD3B4810BD9D
:1043E0003B4810BD3B4810BD3B4810BD3B4810BD8D
:1043F0003B4810BD3B4810BD3B4810BD3B4810BD7D
:104400003B4810BD3B4810BD3B4810BD3B4810BD6C
:104410003B4810BD3B4810BD3B4810BD3B4810BD5C
:104420003B4810BD3B4810BD3B4810BD3B4810BD4C
:10443000346F0108C46E0108406F01088C6E0108DA
:10444000EC7201081C6B01080C7301082C73010845
:1044500040730108F46A0108C46A0108AC6A0108E3
:104460009C6A0108386A01082C6C0108186C010864
:10447000787001083C6C01087471010884690108B6
:10448000F46F0108446D0108A46B0108287101084C
:10449000D06D0108F46D0108B8700108A46F01081F
:1044A00054730108BC7301082C7401083C740108A2
:1044B000347401084C7401084474010854740108F0
:1044C0006C7401085C740108647401087474010858
:1044D000EC7301087C740108847401088C74010871
:1044E000947401089C740108A4740108AC74010858
:1044F000B4740108BC740108C4740108D4740108C0
:10450000CC740108247401081C7401081474010897
:104510000C74010804740108FC730108F4730108A9
:1045200030B50B4C83B00121042001F095FF082524
:1045300041F2030301A92046ADF80630ADF804505E
:1045400001F0F8FE2946204601F054FF03B030BDCB
:10455000000801404348444AD0F88810434B41F4D6
:10456000700110B4C0F88810116841F001011160A9
:10457000546823405360136823F0847323F480331A
:104580001360136823F480231360536823F00F63D0
:1045900000204FF41F0123F470235360D062106396
:1045A0009160D3693249334843F08053D361CB687B
:1045B00043F00103CB60D36923F08053D3610168DA
:1045C00041F090010160116841F480314FF6FF73B2
:1045D000116001E0013B02D011688803FAD5224B3B
:1045E0001A68910339D5234A116821F0030111603B
:1045F000116841F0040111605A685A605A6842F427
:1046000000525A605A6842F4A0625A605A6822F016
:10461000036222F470225A605A6842F0016242F446
:1046200070225A601A6842F080721A601A68920109
:10463000FCD559680C4A21F003015960596841F0D2
:1046400002015960536803F00C03082BFAD1054BA3
:10465000094A5DF8044B9A607047084B084A1A6093
:10466000F5E700BF00ED00E00010024000C0FFF8D9
:1046700000700040002002400000010834000020CB
:1046800000127A0008B54FF4006001F0D5FF00B9C0
:1046900008BD4FF4006001F0DDFF024B01221A70EB
:1046A00008BD00BF310100200A4B1B783BB10A4A0C
:1046B0000A49136801338B4288BF094B1360094BC9
:1046C00009491A6801321A601A688A4284BF0022B6
:1046D0001A60704744010020400100207F8D5B007C
:1046E000808D5B00340100203F420F0008B5124866
:1046F000012101F0B5FF00B908BD01210E4801F00C
:10470000BBFF0E4A0E49136801338B4204D8136075
:10471000BDE80840FFF7C8BF0A490B780133DBB298
:104720003B2B4FF0000094BF0B700870BDE80840B1
:104730001060FFF7B9BF00BF000800403C01002037
:104740009F86010038010020704700BFFEE700BFD0
:10475000FEE700BFFEE700BFFEE700BF704700BFF7
:10476000704700BF054A00234FF0010CA0F800C0BD
:104770008370C0E902134360136070473401002066
:10478000034B0448002242F210711A70FFF7EABF8F
:10479000210100204801002070B500F10803064601
:1047A000002293E8030000F047FD756A01F066FC03
:1047B00004464FF47A7005FB00F001F057FC2546E3
:1047C000154CA4FB003405EB944401F057FC8442E3
:1047D000FBD806F1100393E80300012200F0BCFDB2
:1047E000756A01F04BFC04464FF47A7005FB00F04B
:1047F00001F03CFC2546084CA4FB003405EB944436
:1048000001F03CFC8442FBD8183696E803000122F4
:10481000BDE8704000F0A0BD83DE1B432DE9F04BE6
:1048200084B000F118030827029300F110030193EC
:10483000DFF824B1C31906460D4603934FF47A7985
:104840002B067DD4039B002293E8030000F0F4FCC8
:10485000D6F8248001F012FC044609FB08F001F0B0
:1048600005FC6D00ABFB0023EDB204EB934401F0BB
:1048700005FC8442FBD8019B012293E8030000F071
:104880006BFDD6F8248001F0F9FB044609FB08F023
:1048900001F0ECFBABFB002304EB934401F0EEFBD7
:1048A0008442FBD896E80300002200F0C5FC013FDB
:1048B000C6D1029B012293E8030000F04DFD756A0A
:1048C00001F0DCFB04464FF47A7005FB00F001F0C8
:1048D000CDFB214BA3FB002304EB934401F0CEFB63
:1048E0008442FBD8019B012293E8030000F034FDD1
:1048F000029B93E8030000F08BFD776A054601F008
:10490000BDFB04464FF47A7007FB00F001F0AEFBEC
:10491000114BA3FB002304EB934401F0AFFB844253
:10492000FBD896E80300002200F086FC029B0122DF
:1049300093E8030000F010FD4DB904B0BDE8F08B22
:10494000029B012293E8030000F006FD80E7034884
:10495000FFF73CFAFDF7A6FB83DE1B43E07101087D
:10496000F8B5456A0F46064601F088FB04464FF449
:104970007A7005FB00F001F079FB2546284CA4FB7A
:10498000003405EB944401F079FB8442FBD806F136
:10499000180393E80300012200F0DEFC06F1100387
:1049A00093E80300012200F0D7FC756A01F066FB72
:1049B00004464FF47A7005FB00F001F057FB2546E2
:1049C000174CA4FB003405EB944401F057FB8442E0
:1049D000FBD806F1080393E80300002200F02CFC4A
:1049E000756A01F04BFB04464FF47A7005FB00F04A
:1049F00001F03CFB25460A4CA4FB003405EB944433
:104A000001F03CFB8442FBD896E80300002200F052
:104A100013FC39463046BDE8F840FFF7FFBE00BF43
:104A200083DE1B432DE9F041054684B00078FCF796
:104A300071FE80462C20FBF785FD2B695B0080F81A
:104A4000203041F288321C4B426202AF6A696968C9
:104A50001A6004460122384600F0B2FC97E80300D1
:104A600004F1100383E803006E46696830460122B2
:104A700000F01AFC96E8030084E803000122A9680C
:104A8000384600F09DFC97E8030004F1180383E822
:104A900003000122A968304600F006FC96E80300F6
:104AA00004F1080383E803002146404604B0BDE852
:104AB000F041FCF755BE00BF5801002070B50D460F
:104AC00090F8201006461446FFF74AFF3DB12544F2
:104AD00014F8011B3046FFF7A1FEAC42F8D1304676
:104AE000BDE87040FFF758BE2DE9F04B84B00D468D
:104AF00090F820101F460C9B03930646144641F085
:104B00000108002D40F0AA8041463046FFF728FFFB
:104B10007B1EDBB20293002F00F0928006F1180397
:104B20000093DFF8509106F110030193009B0122DE
:104B300093E8030000F010FC082700254FF47A7B6F
:104B4000D6F8248001F09AFA04460BFB08F001F035
:104B50008DFAA9FB002304EB934401F08FFA844201
:104B6000FBD8019B012293E8030000F0F5FBD6F887
:104B7000248001F083FA04460BFB08F001F076FA7A
:104B8000A9FB002304EB934401F078FA8442FBD89C
:104B9000009B93E8030000F03BFC6D00EDB2054381
:104BA000002296E8030000F047FB013FEDB2C7D1B9
:104BB000009C012294E8030000F0CEFB029B002B36
:104BC00044D194E80300012200F0C6FB776A01F0AB
:104BD00055FA04464FF47A7007FB00F001F046FAEC
:104BE000A9FB002304EB934701F048FA8742FBD866
:104BF000019B012293E8030000F0AEFB776A01F00D
:104C00003DFA04464FF47A7007FB00F001F02EFAEB
:104C1000A9FB002304EB934701F030FA8742FBD84D
:104C2000002296E8030000F007FB029B039A013B79
:104C3000DBB202F8015BFF2B029303927FF476AFA5
:104C4000304604B0BDE8F04BFFF7A6BD06F10803FF
:104C500093E803003A4600F0EFFAB7E7FFF780FE6B
:104C6000254414F8011B3046FFF7D8FDA542F8D1C2
:104C70004AE700BF83DE1B4338B50749054650228B
:104C80000078FBF723FD0446044B28796360FEF7A8
:104C900065F8206138BD00BF794C0108A14C0108BE
:104CA00008B5034604481A7D42F001021A75FDF763
:104CB000A9F9002008BD00BF5C01002070B51049B3
:104CC00005460078FBF7E2FC04460026FDF70EF9E6
:104CD00026756B6803B970BDE36004F1160000F03F
:104CE000BFF801F081F901F0C9F9E3681844A06048
:104CF00031462046FDF70CFABDE8704001F076B968
:104D0000794C010870B5134984B004460078FBF76C
:104D1000BDFCAF230546ADF80C3001F0AFF903AB95
:104D20000646022228690121FEF76EF801F0A6F975
:104D30009DF80DC021780CF01F0C0CEB4C0C4FEAC9
:104D40004C04831B0094324605F1160000F0A6F8CF
:104D500004B070BD794C01082DE9F0433E4885B0A0
:104D6000FDF758F980B1FF233C4D3B4F8DF80330E0
:104D700002E0237DDB070AD429460DF10300FBF78F
:104D8000D1FC04460028F4D105B0BDE8F083AF2281
:104D9000002394F81A90ADF80420A8220293206909
:104DA0008DF80E30ADF80C308DF8082002AB0722DC
:104DB000012109F11B069DF80380A144FEF724F8A8
:104DC00001AB022220690121FEF71EF826449DF85E
:104DD000093089F81B309DF80A309DF80520737062
:104DE0009DF80B30B3709DF80C30F3709DF80D30CA
:104DF00033719DF80E307371A37E0633DBB22D2B19
:104E0000A37602F03F0902F040061CD8384616B1DE
:104E1000238B01332383B9F1000F02D1FDF7F2F8A0
:104E2000AAE7237D23F00103237501F0DDF801F0EB
:104E300025F9E36818440021A0602046FDF768F9D1
:104E400001F0D4F898E704F11600414600F00EF89E
:104E50003846002EDFD0DBE75C010020794C0108EA
:104E60000023038043800371704700BF10B584B0F6
:104E7000044609480391FFF7DBF92346039933F809
:104E8000052B00932379FBF7FFFF238800220133D2
:104E90002271238004B010BDBC73010870B50446B4
:104EA00088B00A480593CDE90621FFF7C1F92579B5
:104EB0000C9E0799354401956588029524880094D5
:104EC000DDE90532FBF7E0FF08B070BD547301085F
:104ED00070B5012190B0042001F0BEFA012110202C
:104EE000002401F0B9FAB0234848ADF8143005A900
:104EF00003268DF8174001F01DFA4548ADF81460FF
:104F000005A98DF8174001F015FA0121084601F0B6
:104F100097FA01214FF4005001F092FA0721204640
:104F200001F074FB4FF460514FF4003001F066FA69
:104F3000384801F0BBFB384B0593384B06933223BE
:104F4000CDE9074380234FF48072CDE909434FF444
:104F50008063CDE90B232F480F944FF4005305A92C
:104F60002025CDE90D5301F061FC0121294801F014
:104F70007DFC684601F0BAFA40F201130525284885
:104F8000ADF8043069464FF4602302930094039413
:104F90008DF8105001F084FA0122114620482B466A
:104FA00001F0D4FA022211461D482B4601F0CEFA38
:104FB0001B482B463246042101F0C8FA18482B46FC
:104FC0000621042201F0C2FA154807212B462A4681
:104FD00001F0BCFA1248012101F090FA104820219A
:104FE00001F00EFB0028F9D00D4801F09BFA0C48A7
:104FF00001F09EFA0028FAD10948012101F088FA4F
:105000000748012101F098FA10B070BD0008014076
:1050100000100140940002404C0C0240600100204E
:10502000000C024000230749184631F813200533CD
:10503000322B10FA82F0F8D1034BA3FB0030C0F3FF
:10504000CF00704760010020CDCCCCCC07490123B4
:10505000002031F813200533332B10FA82F0F8D1F9
:10506000034BA3FB0030C0F3CF007047600100206A
:10507000CDCCCCCC07490223002031F813200533D6
:10508000342B10FA82F0F8D1034BA3FB0030C0F3AD
:10509000CF00704760010020CDCCCCCC0749032362
:1050A000002031F813200533352B10FA82F0F8D1A7
:1050B000034BA3FB0030C0F3CF007047600100201A
:1050C000CDCCCCCC07490423002031F81320053384
:1050D000362B10FA82F0F8D1034BA3FB0030C0F35B
:1050E000CF00704760010020CDCCCCCC002210B5A1
:1050F00013460A4C04E00133202B07D014F8012F8B
:105100008A42F8D1064AC0E9002310BD054B064883
:105110000D221A60FEF75AFEFCF7C4FFEC85010869
:10512000000C02402C0100201C72010882B002AB6E
:1051300003E90300002002B0704700BF82B002AB59
:1051400003E903004B1E062B16D8DFE803F01823F3
:10515000152E15390400204B0422002033F81210BC
:105160000532362A10FA81F0F8D11C4BA3FB00302F
:10517000C0F3CF0002B07047002002B07047002299
:10518000154B104633F812100532322A10FA81F00E
:10519000F8D1EAE7104B0122002033F81210053253
:1051A000332A10FA81F0F8D1DFE70B4B02220020FE
:1051B00033F812100532342A10FA81F0F8D1D4E70E
:1051C000054B0322002033F812100532352A10FA5D
:1051D00081F0F8D1C9E700BF60010020CDCCCCCC74
:1051E00082B002AB03E9030002B0704770B584B02F
:1051F000014601AC01A800F013FC70CC00F0F8FEF1
:10520000236833432360236815B100232E602B608D
:1052100004B0BDE8704000F0EFBE00BF00B585B03F
:10522000014601A800F0FCFB019A039B106818409E
:1052300005B05DF804FB00BF2DE9F04182B002AB80
:1052400003E9030005461649019E164B1746002048
:1052500001E051F8043B9D4214D001300728F8D1F9
:10526000002400F0C5FE804607B9360420462E61B2
:105270000022012100F02CFC404602B0BDE8F041C4
:1052800000F0BABE04010023012202E00133102B1A
:10529000E7D002FA03F13142F8D01C44E1E700BF45
:1052A0001086010800080140F0B56F2983B00C4654
:1052B0000546164619D8114B0A0953F82270A7B1B2
:1052C000384600F0F5FB04F00F04012101FA04F464
:1052D000CDE9007402AB13E903003246FFF7ACFFDF
:1052E0002846C5E9007403B0F0BD054B05480B2204
:1052F0001A60FEF76BFDFCF7D5FE00BF0C860108B7
:105300002C0100200872010882B002AB03E90300FF
:10531000C3684B40C36002B0704700BF00B583B0A4
:1053200002AB03E9030000F063FEDDE90021D3686E
:105330004B40D36003B05DF804EB00F05DBE00BFEE
:1053400082B002AB03E903000B46014602B91B041D
:105350000B6102B0704700BF30B585B004AB03E904
:10536000030004461449039D144B002001E051F84A
:10537000043B9C4212D001300728F8D1002401924E
:1053800000F036FE019A05460021204600F0A0FB01
:10539000284605B0BDE8304000F02EBE04010023D1
:1053A000012002E00133102BE9D000FA03F1294279
:1053B000F8D01C44E3E700BF108601080008014054
:1053C00070B56F2982B0044614D80E4B080953F803
:1053D00020607EB101F00F0101258D40CDE900650F
:1053E00002AB13E90300FFF7B7FF2046C4E90065ED
:1053F00002B070BD044B05480C221A60FEF7E6FCB3
:10540000FCF750FE0C8601082C010020F071010809
:10541000826882B00A4202AB03E9030014BF012094
:10542000002002B0704700BF70B56A4C0E461546AA
:10543000002304F1C00C03E00834644537D023791D
:105440009842F9D1206800F02FFB634BB3FBF0F0DA
:10545000012888BF4008C0EBC0104000B042B6FB36
:10546000F0F322D94FF6FF769E4228BF1E462079E0
:10547000A179002200F02CFB2068FFF7CFFE002866
:1054800000F0938023681A68D20718D51A8DB6B237
:1054900092B2B24240F08D806279013A032A00F262
:1054A0009080DFE802F0674C31165E1EDFE74B4B61
:1054B0004B4808221A60FEF789FCFCF7F3FDFE2238
:1054C000B6B21E859A859A8A92B242F001029A82F9
:1054D000E2E71A6A22F480521A629A8B22F4E642B8
:1054E0001204120C9A839A8B92B242F4D8429A8395
:1054F0001D641A6A42F480521A621A6842F001026C
:1055000003F140001A6070BD1A6A22F480721A62B8
:105510009A8B22F073021204120C9A839A8B92B225
:1055200042F06C029A83DD631A6A42F480721A6256
:105530001A6842F0010203F13C001A6070BD1A6A59
:1055400022F010021A621A8B22F4E6421204120CA4
:105550001A831A8B92B242F4D8421A839D631A6A54
:1055600042F010021A621A6842F0010203F1380098
:105570001A6070BD1A6A22F001021A621A8B22F0B8
:1055800073021204120C1A831A8B92B242F06C024C
:105590001A835D631A6A42F001021A621A6842F0C5
:1055A000010203F134001A6070BD2068FFF71EFE8F
:1055B00068E70A4B0B4809221A60FEF707FCFCF764
:1055C00071FD064B08480A221A60FEF7FFFBFCF744
:1055D00069FD00BF28860108004495082C010020C1
:1055E000D8720108AC720108987201080160704716
:1055F000F8B505460C4617461E4605E000F03EFD90
:10560000314600F037FD50B1B5F814C01FFA8CFCDC
:1056100034EA0C03F2D11CEA070FEFD1F8BD044BBA
:10562000044806221A60FEF7D1FBFCF73BFD00BFE1
:105630002C01002068720108F8B5164640F20112EC
:105640000D4604460280012100221F46FFF7D0FFCD
:10565000ABB215F00102238219D0218889B241F43E
:1056600080613B460022218020460221FFF7C0FFD7
:1056700000F0BEFC258B012E08BF40F20123ADB225
:1056800008BF238000F0B8FCEB070AD5F8BD3B4605
:1056900002212046FFF7ACFF00F0AAFC258BADB23B
:1056A000F0E7044B044807221A60FEF78FFBFCF773
:1056B000F9FC00BF2C0100205072010802292DE9DD
:1056C000F8430F4604461D4665D8DFF8EC9059F8BC
:1056D00031603046FFF7A2FD804628B16D0025718C
:1056E00026602046BDE8F88309EBC7073046FFF780
:1056F0007DFD97F804907F794846012240F2011120
:1057000000F0E6F93846012240F2011100F0E0F91C
:1057100038464FF0FF3240F2011100F0D9F9484607
:105720004FF0FF3240F2011100F0D2F94846012259
:1057300040F2011100F0CCF93846012240F201118B
:1057400000F0C6F9484601224FF4A17100F0C0F9FB
:10575000012238464FF4A17100F0BAF94FF400432A
:1057600033803046A6F8008000F09EF90E4B26608C
:10577000A3FB00230D4A80099B0CA2FB00206D00B7
:10578000B3808009013301222571B0833384204620
:105790003280BDE8F883064B064805221A60FEF702
:1057A00015FBFCF77FFC00BF83DE1B43632D3E052A
:1057B0002C01002074720108E8860108F0B583B05E
:1057C00002AC04E9030017461C46054600F056FCEF
:1057D000064641F2883000F049FC06449DF804106A
:1057E00033463A462846FFF727FF5FB1274414F8AF
:1057F000011B29823346002280212846FFF7F8FE4C
:10580000BC42F4D140F201232B8080223346002198
:10581000284603B0BDE8F040FFF7EABE2DE9F04BA3
:1058200084B004AC04E903000D999DF80C9001913B
:1058300015461C469DF83070064600F01FFC804659
:1058400041F2883000F012FC49F0010B8044A5BB06
:10585000594643463A4630467D1EFFF7EDFEEDB20F
:1058600017B3019B03F1010909E000F0C5FB6A1EB3
:1058700009F8014CD2B2BDB109F101091546002267
:10588000434640213046FFF7B3FE00F0B1FB328AB9
:10589000012DD4B2E9D140F20123338000F0ACFBFA
:1058A00009F8014C0022E7E7434640220021304638
:1058B00004B0BDE8F04BFFF79BBE2A46494643467D
:1058C00030466519FFF7B8FE14F8013B3382002219
:1058D000434680213046FFF78BFEAC42F4D1B7E758
:1058E0002DE9F04B042982B08846064615461C4631
:1058F0003AD8DFF88CB05BF831703846FFF78EFC91
:105900008146A8B1384600F0CFF800210B4601319E
:1059100020FA01FCA44525D90829F7D138232B43C7
:1059200043F451733046C6E9007302B0BDE8F08B12
:105930000BEBC8083846FFF759FC98F8071098F8A1
:1059400004000191012200F0C3F8019998F80500C4
:105950004A4600F0BDF8019998F806004A4600F062
:10596000B7F8CFE7DB00DAE7034B044804221A60FC
:10597000FEF72CFAFCF796FB2C0100208872010838
:105980000087010882B002AB03E9030003889BB2E1
:10599000994206D023F040039BB2038089B203886A
:1059A000018002B0704700BF10B483B002AC04E9BC
:1059B0000300581E049C00995FFA80FC6BB1601EC6
:1059C000A44410F8013F0B730B89DB07FCD50B7B5C
:1059D000DBB202B103706045F3D10B8903F082039F
:1059E000022BFAD103B05DF8044B7047024B4AF624
:1059F000AA221A60704700BF00300040074B10B465
:105A0000002045F2555440F6FF714CF6CC421C6024
:105A100058605DF8044B99601A6070470030004090
:105A20001A4B994210B420D2194B99420DD801F16A
:105A30004041184C184A890A012303FA01F1C0E9D0
:105A4000004281605DF8044B704701F13F4101F570
:105A50007F01124C124A890A012303FA01F1C0E9BD
:105A6000004281605DF8044B704701F14041A1F5AF
:105A7000C0310C4A890A0123002403FA01F1C0E96C
:105A8000002481605DF8044B704700BF0080014036
:105A9000FFFF00401C10024010100240181002408E
:105AA0000C100240141002400048704700A24A0443
:105AB000064A00F13F4000F57F0091690123800A0A
:105AC00003FA00F0084390619369704700100240A8
:105AD00070B58E4B8E4D0409AE6953F8244004F125
