:020000040801F1
:10000000000002202D6101086D46010871460108BB
:1000100075460108794601087D4601080000000088
:100020000000000000000000000000008146010800
:100030008546010800000000756101081160010893
:100040007561010875610108756101087561010834
:100050007561010875610108756101087561010824
:100060007561010875610108756101087561010814
:100070007561010875610108756101087561010804
:1000800075610108756101087561010875610108F4
:1000900075610108756101087561010875610108E4
:1000A00075610108756101087561010875610108D4
:1000B0007561010875610108114601087561010843
:1000C00075610108756101087561010875610108B4
:1000D000756101089D5C0108756101087561010881
:1000E000A94501087561010875610108756101087C
:1000F0007561010875610108756101087561010884
:100100007561010875610108756101087561010873
:100110007561010875610108756101087561010863
:100120007561010875610108756101087561010853
:100130007561010875610108756101087561010843
:100140007561010875610108756101087561010833
:100150007561010875610108756101087561010823
:100160007561010875610108756101087561010813
:100170007561010875610108756101087561010803
:080180007561010875610108B9
:1001900010B5054C237833B9044B13B10448AFF3C1
:1001A00000800123237010BD3800002000000000F3
:1001B0006C68010808B5034B1BB103490348AFF352
:1001C000008008BD000000003C0000206C680108B1
:1001D00001F0FF01102A2BDB10F0070F08D010F8F8
:1001E000013B013A8B422DD010F0070F42B3F6D1FC
:1001F000F0B441EA012141EA014122F007047FF015
:1002000000070023F0E80256083C85EA010586EA6B
:10021000010685FA47F5A3FA87F586FA47F6A5FAA7
:1002200087F68EB9EED1F0BC01F0FF0102F00702B3
:1002300032B110F8013B013A83EA010313B1F8D15E
:100240000020704701387047002D06BF354603383F
:10025000073815F0010F07D1013015F4807F02BF78
:10026000013015F4C03F0130F0BC0138704700BFC9
:10027000EC46A0E8F05F4FF000007047B0E8F05F98
:10028000E546080008BF0120704700BF10F8012BA9
:1002900011F8013B012A28BF9A42F7D0D01A7047C3
:1002A00030B583B004466D464168284604F0B0FE80
:1002B00009492078094C2C2200F004FA034695E8FD
:1002C000030003F120025C6082E80300012283F84E
:1002D0002A2003B030BD00BFA1020108E1020108DD
:1002E00038B500F12005044695E8030004F0B0FE9F
:1002F00000284CD1636A5A1E012A95E8030030D9C0
:1003000023F00203042B2CD004F0AAFE94F82A3028
:1003100094F82B2093422ED2218B0133DBB2084478
:1003200080B29A42208384F82A302AD8636A5A1EFF
:10033000012A0CD923F00203042B08D0638B8342DB
:100340002AD8A38B834227D3002384F828301A4865
:1003500001F046FE6369E26813446361A360012013
:1003600038BD04F07DFE154B94F82B20188094F8CE
:100370002A309342D0D301239A42208384F82A3032
:10038000D4D9A36822691344A360012038BDA368AF
:100390001844A060012038BD94F8283094F8292032
:1003A0000133DBB29A4284F82830D0D8044803F0F5
:1003B000B9FC01F067FEC7E7580000205A00002092
:1003C0009068010838B514490546007800F05AF9DC
:1003D000044601F079FD04F1200393E8030004F0E2
:1003E00091FE6B686361A360AB6823612B7B84F82B
:1003F0002B305A1C84F82A202A69E260D5E90501CD
:10040000EA6984F829206083A18303B938BD2046B6
:10041000BDE8384001F040BEA10201082DE9F041DD
:10042000214884B001F0E4FD30B3FF231F4D204F7D
:10043000204E8DF80F3029460DF10F0000F06EF9B7
:100440000446C8B194F82A2094F82B309A42F2D18D
:1004500005F05AFD94F82B3094F82A20934203F1CA
:1004600001010CD005F052FD29460DF10F0000F0FE
:1004700055F904460028E5D104B0BDE8F081626971
:10048000B4F8188084F82A10019205F03FFD304638
:10049000A7F8008003F078FE019A9DF80F104346FC
:1004A00000F0EAFCC7E700BF58000020A1020108E5
:1004B00054000020A468010830B583B0FF23114D1B
:1004C0008DF8073006E093E8030004F01BFE94F873
:1004D0002B305BB929460DF1070000F01FF90446E7
:1004E00000F120030028EED103B030BD6269E1685D
:1004F00001330A4484F82A306261A260204601F088
:10050000CBFDE7E7A102010808B5044B04482B2204
:100510001A6003F007FC01F089FD00BF20010020F4
:10052000D468010808B505F0E7FC034B033020F060
:100530000300186008BD00BF5C00002070B50E4EBF
:10054000336804461D1805F0DBFC85420CD835687D
:10055000E31C23F003032B4422460021284633608A
:1005600006F07CF9284670BD044B054828221A6025
:1005700003F0D8FB01F05AFD5C00002020010020B0
:10058000F0680108024B1A6802601860704700BFEB
:100590006C00002010B505F0BBFC084B1C682CB1AA
:1005A00022681A6005F0B8FC204610BD044B0548CF
:1005B0002A221A6003F0B6FB01F038FD6C0000201F
:1005C00020010020046901080068B0FA80F04009A9
:1005D000704700BF0068704703460A680020186033
:1005E0001AB14A6813604B607047C1E900330120BB
:1005F000704700BF03681A6802601846704700BF62
:1006000000230360704700BF08B5FF294FF00003C7
:10061000C0E9003308DC054B1B882BB9044B1A7862
:100620008A42B8BF197008BDFFF76EFF680000204E
:10063000700000200F4B188810B4A0B1013815D0FD
:100640000D4A0E4B146893F800C000222346194649
:100650000132634482420B60F9D102FB0C42084B29
:10066000002111601C605DF8044B7047024B1C6850
:100670002246F4E76800002074000020700000208B
:100680006C00002008B50B4B1B78834209D90A4B3C
:100690001B6853F830208A4203EBC00001D1406848
:1006A00008BD064B06482D221A6003F03BFB01F003
:1006B000BDFC00BF780000207C000020200100204D
:1006C0001869010870B5104B1C7803469C4210460F
:1006D00011D90E4D1AB2DC002B6853F8326056B9AE
:1006E0000B4E36883EB943F83210FFF727FF2B68D0
:1006F0002344586070BD074B07482E221A6003F050
:1007000011FB01F093FC00BF780000207C0000206A
:1007100068000020200100202C69010830B50E4A35
:1007200003780E4C126894F800E003F1010C5FFAB4
:100730008CF302EBC30205E052F8084B8C4203F144
:10074000010C06D05FFA8CF39E451546F4D80020C4
:1007500030BD0370686830BD7C0000207800002048
:1007600038B50A4C236843B90568E8B2C000FFF702
:10077000E5FE074B20601D7038BD064B06482F2252
:100780001A6003F0CFFA01F051FC00BF7C0000209A
:1007900078000020200100204069010830B50D4D8F
:1007A0000D4885B003F0F0FC29880C4B003918BFC8
:1007B00001211A6803920446029101F021FC0346CC
:1007C00028880090DDE90212204600F055FB05B0B4
:1007D00030BD00BF6800002058690108600000209B
:1007E0002DE9F0411E4F3B88064683BB1D4BDFF8C9
:1007F0008C801D78D8F80040032D9CBF04251D7007
:1008000005F07EFB002322462C44A04213D3013383
:10081000B3F5805FF7D11D46D8F80000201AFFF726
:100820008DFE114B3D801860FFF704FF0F4B3268BF
:100830001A60BDE8F08113B19DB21446ECE70C4B91
:100840000C4829221A6003F06DFA01F0EFFB084B07
:1008500009482C221A6003F065FA01F0E7FB00BF9B
:10086000680000207000002074000020600000205C
:1008700020010020A8690108946901085C0000209B
:1008800010B5064803F080FC044605F087FB0146DE
:100890002046BDE8104000F0EFBA00BFBC69010877
:1008A00010B582B005F07AFB094A0A4B11681B6843
:1008B0000446A34288BF01310748019103F064FC5C
:1008C0000199224602B0BDE8104000F0D5BA00BF41
:1008D0008400002080000020CC6901082DE9F0414F
:1008E000264D274E2B68274F01332B603368081A9B
:1008F0000344B0F5803F0C46336019D23B6800FBDF
:1009000000F0FF3003EB1020984238BF4FF0FF306B
:1009100038601D48DFF87C8005F038FBD8F80030DF
:1009200001461944204605F035FB70B1BDE8F08161
:10093000B0F5801F06D200F1FF023B68120A00FBEF
:100940000230E1E74FF0FF30E2E7104803F01CFC13
:100950003B683268296800F08FFAD8F80030A3426B
:1009600003D90B4A1368013313600023C8F8004011
:100970003B6033602B60BDE8F08100BF6400002065
:10098000880000208C000020404B4C00E4690108E6
:10099000840000208000002008B5044B0448312268
:1009A0001A6003F0BFF901F041FB00BF20010020F5
:1009B000046A010801F04EBB10B50E4B04681B68B9
:1009C00042689C4282B012D2D2B21119994201D926
:1009D0001A1BD2B20848019203F0D6FB074B019ACA
:1009E0002344214602B0BDE8104000F045BA002281
:1009F000F0E700BFAC7E0108146A01089473010897
:100A0000704700BF704700BF704700BF10B5064871
:100A100003F0BAFBBDE8104040F2E93340F29F1208
:100A200040F2EA7100F028BA3C6A0108704700BF42
:100A3000F8B5877F04469FB100252F4601262B4637
:100A4000043304EBC30393E8030004F073FC0135A3
:100A50007100EBB200B13743A27F9A42CEB2EFD819
:100A6000227CBA4207D0637C7B40DB4382EA0701E9
:100A7000DBB20B4210D194F91C30257F6774002B38
:100A800004DB013DEDB2FF2D1ED02577D4E9023203
:100A900013440120A360F8BD22EA03023B40134344
:100AA000A27C2374072AE6D8511C2244A17408486A
:100AB000D37401F095FAFF232377D4E902326774E7
:100AC00013440120A360F8BD014801F089FADCE776
:100AD0009000002010B50479082C09D8221D08497F
:100AE0000078D200FFF7EEFD064B8477436010BD1F
:100AF000054B064825221A6003F014F901F096FA16
:100B0000D50A0108310A010820010020646A0108A1
:100B100070B51149054682B00078FFF7B3FD2B7917
:100B2000827F9A4204460ED96E46D5E902123046BB
:100B30001D1D04F0D7FB96E8030004EBC50484E810
:100B4000030002B070BD054B054826221A6003F071
:100B5000E9F801F06BFA00BFD50A01082001002076
:100B6000786A010838B5134905460078FFF78AFD11
:100B7000044601F0A9F96B68A360A968E16000234D
:100B80002A7CA374E376FE23627422742377EB68D5
:100B900063771B0606D401B938BD2046BDE838404E
:100BA00001F07ABA044B054827221A6003F0BAF81C
:100BB00001F03CFAD50A010820010020A06A0108D2
:100BC00038B5154904460078FFF75CFD2479C37EEB
:100BD00005462344C37605F097F9AB7CA34207D8BA
:100BE000FE230022AA742B77BDE8384005F08EB9A9
:100BF0001B1BD8B205F1130204F112032B44141885
:100C000013F8011F02F8011BA242F9D1A874BDE834
:100C1000384005F07BB900BFD50A0108F0B51A4885
:100C200085B001F0E5F948B3FF23184D184F8DF852
:100C30000F3029460DF10F00FFF770FD0446E8B1B3
:100C4000237FFF2BF5D105F05FF9A67CC6B1637F4A
:100C5000237705F05BF9384603F096FA1334227ACD
:100C60009DF80F100094334600F006F929460DF167
:100C70000F00FFF753FD04460028E1D105B0F0BD99
:100C800005F044F9D5E700BF90000020D50A01081F
:100C9000C46A0108704700BF70B514799668651E74
:100CA000A4B3814233D316F8012B042A20D810F8BC
:100CB000012B02F0600CBCF1600F03F1040E02F096
:100CC0007F0408D164F01F0405E010F8012B02F046
:100CD0007F0C4CEAC4141206F7D41C60B5B18142F3
:100CE00015D316F8012B042A05F1FF357346DED91A
:100CF000072A0CD1024612F8014B1019884206D877
:100D00009E464EF8084B5A60002DEAD170BD02484D
:100D100003F008F801F08AF9F06A01082DE9F843B8
:100D20008B78052B064694461C4666D9053B821CEB
:100D3000D4180B88CF784D687F2B00F28C80114639
:100D400003F07F0301F8013B002F53D08C42C0F029
:100D50008A802F4430E05CF8043B03F120027F2AB4
:100D600022D903F58052B2F5804F18D303F5002243
:100D7000B2F5001F0ED303F18062B2F1805F04D39D
:100D80001A0F62F07F0201F8012B5A0D62F07F0208
:100D900001F8012B9A0B62F07F0201F8012BDA09AE
:100DA00062F07F0201F8012B03F07F0301F8013BA1
:100DB000BD421FD08C4256D315F8013B052B30D0D5
:100DC000C9D9063B012B4ED8E0460B4658F8082BF4
:100DD000611A914228BF114603F8011B89460A4651
:100DE0001846DCF8041005F011FDBD4200EB0901C6
:100DF000C446DFD1891BCC1CE3B21D4A3370127884
:100E00007270E51E2946304605F072F9030A7355E3
:100E100026447E2306F8020C06F8013C2046BDE875
:100E2000F8835CF8040B03784A1C6BB1944202D837
:100E300017E094420BD002F8013B10F8013F002B61
:100E4000F7D1531A013BDBB20B701146B0E7631ABE
:100E5000013BDBB2F8E7DA0962F07F028270C21C64
:100E60006DE70023F0E7034802F05CFF01F0DEF8D5
:100E700000000020086B01080FB430B5084D2C7835
:100E800083B0E4B23CB9012307A906982B70019105
:100E900004F0E6FF2C7003B0BDE8304004B07047AA
:100EA00091000020014B00221A7070479100002031
:100EB0002DE9F04B804615460C4619B900202860F4
:100EC000BDE8F08B2F4E3778FA0711D40429F5D9F5
:100ED00007787B1F3B2B05D890F8019029F00F0372
:100EE000102B1ED07E2F36D0337843F00107377099
:100EF00022467E214046FFF76BF950B3A0EB080075
:100F000007F0FE07013037702860BB071DD447F09B
:100F1000020333701C48FFF7AFFF4FF0FF30BDE80E
:100F2000F08BB942CAD3C31913F8012C7E2AD9D148
:100F3000F91E13F802BC435C4BEA032B05F0D8F80A
:100F400083450DD098F80070CCE74FF0FF30BDE836
:100F5000F08B2C60D9E701232B604FF0FF30AFE717
:100F60000A4932780B782F6022F002024B4532702A
:100F7000D0D1013303F00F0343F010030B700120B5
:100F80009EE700BF92000020306B010800000020A7
:100F90002DE9F04B033900F10209451882B0A9454B
:100FA00000AF30D2DFF8948099F9002099F8004022
:100FB000002A6E462BDB09F10100ACB31D4B1B88E8
:100FC0009C4231D208EB0412294693787A609B0048
:100FD000073303F4FF63ADEB030DEB465B46FFF70E
:100FE0005BFE2401814601F00BF818B17A68D278D3
:100FF000D30715D5444404F097FFE268584690475C
:10100000B546A945D0D30837BD46BDE8F08B99F861
:101010000120E40104F47E5409F102001443CCE7FA
:1010200000F0F6FFB546ECE7034802F07BFE00F067
:10103000FDFF00BF80830108206B0108B07E01081E
:101040000148FFF719BF00BF306B010830B5D0E988
:10105000004083B0FFF71EFE054604F059FFE3B2DF
:10106000012B0FD0022B10D02978C9B2019104F0C6
:1010700053FF074803F088F8019903B0BDE83040FA
:10108000FFF7FABE298889B2F0E72968EEE700BFCA
:10109000386B010870B50446D0E90050FFF7FAFD3F
:1010A000A668044604F034FFEBB2012B07D0022BF4
:1010B0000BD0F6B22670BDE8704004F02DBFB6B27A
:1010C0002680BDE8704004F027BF2660BDE8704070
:1010D00004F022BF10B5D0E9004082B0FFF7DAFD7E
:1010E0000190054803F050F8019AE1B202B0BDE862
:1010F0001040FFF7C1BE00BF4C6B0108704700BF36
:1011000030B50B4983B0044628220078FFF7DAFA9D
:101110006D4603466168A26828461C4604F0E2F862
:1011200095E8030004F10C0383E8030003B030BD2D
:101130000111010838B500F10C03044693E80300DF
:1011400004F0F8F894F8245088B1ED4305F0010557
:101150008DB994F82630013B13F0FF0315D0A26837
:10116000A16984F826300A44A260012038BD05F048
:101170000105002DEDD00849E26994F8253084F886
:101180002630C4E90112012038BD206A94F82710E6
:1011900002F01EFC284638BD9D11010800F10C0329
:1011A00010B5044693E8030004F0C4F8A36862692C
:1011B0001A4494F8243030B1DB4303F0010333B117
:1011C000A260012010BD03F00103002BF8D1044BF5
:1011D000E26163602046BDE81040FFF7ABBF00BF8F
:1011E0003511010838B5164905460078FFF74AFA67
:1011F000044600F069FE6B68A360AB68A3612B7BBB
:1012000084F82530C3B12A69626184F826306A699E
:101210000C4B002A14BF0322022284F82420287ECB
:10122000636002F001FCEB6984F8273020622046FD
:10123000BDE8384000F030BF84F82430236238BD68
:10124000011101089D110108F0B50678104985B01B
:101250003046FFF717FA044604F056FEE36994F8A7
:101260002470039304F052FE0A4802F08DFF0C3400
:10127000054694E8030004F05DF8039B0090C7F373
:10128000400231462846FFF7F7FD05B0F0BD00BF2C
:10129000011101085C6B010830B5D0E9011283B07F
:1012A000003A04466D4618BF0122284603F08EFF1F
:1012B0000F4920783422FFF705FA034695E803002A
:1012C00003F1180282E80300D4E90221003A18BFB2
:1012D000012209B142F0100283F8302022691A621B
:1012E0000C2103F1280003B0BDE83040FFF78CB9B2
:1012F000991201082DE9F84300F1280804464046F8
:10130000FFF762F9002840F0A0804046FFF772F92D
:1013100085682E1E18BF012604F1180307463246C1
:1013200093E8030003F09EFF3846FFF72BF9C5B1A1
:10133000636AAB4215D9276A002F68D1404646F050
:101340000206FFF741F9002800F0878094F830305A
:10135000676103F010033343A66884F830302E44ED
:1013600026E094F83030B5FA85F283F01003C3F329
:10137000001352099A4225D0276A1FB3A16840463C
:1013800046F004060F44FFF71FF9002848D094F8F0
:101390003030676103F01003334384F83030B30713
:1013A00026D5A6682E443946304604F0F3FDF8B140
:1013B000636A2B4A5B1BC4E90126C4E9035301207D
:1013C000BDE8F8834046FFF7FFF8A8B981464046DC
:1013D000FFF700F9476894F83020676146F004068B
:1013E00002F01002164384F83060B9F1000FD8D132
:1013F000A7600120BDE8F88394F8303003F01003B3
:101400003343002084F830306061BDE8F883A16880
:10141000404646F006060F44FFF7D6F80028B6D13E
:101420004046FFF7D7F8034638465F68394604F070
:10143000B1FD06F002090028CDD00A4B0A481E2251
:101440001A6002F06FFC00F0F1FD064B07481D2208
:101450001A6002F067FC00F0E9FD4FF00209B6E700
:101460007114010820010020C46B0108986B010869
:1014700038B5044600F1180393E8030003F0D6FEE4
:1014800094F83030A56883F00103DA074CBFE268B6
:10149000226984F830305B07154402D4A56001202E
:1014A00038BD6169284604F075FD0028F6D1034B6C
:1014B00065696360A560012038BD00BFF5120108B1
:1014C00038B50D4905460078FFF7DCF8044604F00E
:1014D0001BFD04F12800FFF777F828B16B68636201
:1014E000BDE8384004F012BD044B05481F221A60C5
:1014F00002F018FC00F09AFD99120108200100206A
:10150000FC6B0108F8B5224906460078FFF7BAF8E7
:101510000446FFF73FF877684760B3688360054685
:1015200004F0F2FC04F128012846FFF755F898B1C1
:1015300094F830506A071DD445F0040384F8303025
:10154000AB0767610CD4204600F0BEFC114B20466F
:10155000C4E9013700F0A0FDBDE8F84004F0D6BCB6
:10156000A068394604F016FD0028ECD0BDE8F8402C
:1015700004F0CCBC6069394604F00CFD0028DBD0D7
:10158000054B064820221A6002F0CCFB00F04EFD0D
:1015900099120108F512010820010020C46B01080E
:1015A000F0B585B0D0E90075866804F0F7FC044614
:1015B00041F2883004F0EAFC04442146284604F055
:1015C000E9FC002818BF254601A8CDE9017503965E
:1015D000FFF798FF05B0F0BDF8B523490546007840
:1015E000FFF750F8044600F06FFC04F12800FEF706
:1015F000EBFF88B32E7994F83050371E18BF0127BF
:1016000004F1180393E803003A4603F02BFE85F03B
:101610001001B6FA86F35B09C1F300118B4201D0C9
:10162000236A2BB905F010053D4384F83050F8BD0E
:1016300004F0B4FC05F01005236A3D43184445F05E
:1016400004050A4B84F83050C4E90130606120463B
:10165000BDE8F84000F020BD054B064821221A6085
:1016600002F060FB00F0E2FC99120108F51201089B
:1016700020010020346C010830B583B0FF23124DE7
:101680008DF8073013E094F8302093E8030002F05F
:10169000100203F0E7FD94F8303013F0100318BF88
:1016A000112304F1280084F83030FEF7A9FF294601
:1016B0000DF10700FFF732F8044600F11803002887
:1016C000E1D103B030BD00BF9912010800B5034657
:1016D00083B0D3E90012684603F078FD03B05DF8EB
:1016E00004FB00BF024900781022FEF7EBBF00BFE9
:1016F000E51601080149FEF7C5BF00BFE516010860
:1017000030B5C3680D4985B0044603F07F03007807
:101710000193FEF7B7FF02ADD4E901120446019B25
:10172000284603F05DFF95E80300237B43F00203A6
:1017300084E80300237305B030BD00BFE51601083F
:10174000037B816043F001030373704770B50E495A
:1017500004460078FEF796FF0546A0682479FFF757
:1017600099FA2A7BD207034606D5A86821461A466D
:10177000BDE8704003F034B995E803002246BDE8A7
:10178000704003F0ADBF00BFE51601082DE9F0433E
:1017900083B006781949044602AF3046FEF772FF5F
:1017A0000546A06894F80480FFF774FA247BE21DD4
:1017B00002F4FC72ADEB020D2A7BD20703460DF159
:1017C000080913D5A868CDF800901A46414623466B
:1017D00003F01CF90A4802F0D7FC4B46224631467A
:1017E000FFF74AFB0437BD46BDE8F083CDE9004969
:1017F000424695E8030003F0A3FFEBE7E516010876
:10180000646C01082DE9F04B84B005463A49007834
:1018100002AFFEF737FF8046A8682C79FFF73AFA47
:10182000EE68F20762D4C6F34706386004EB060B95
:101830002869FFF72FFA0BF1070298F80C307B604C
:1018400022F007023B68ADEB020D0DF108091946C5
:1018500005462246484604F0D9FF7B6813F0010391
:101860007B603B682AD109EB04020192009698E85C
:101870000300224603F064FF6EB3013E2E44013C98
:101880004C44013D314615F8012F14F8013F23EA7D
:101890000203237016F8012F8D4243EA02032370DE
:1018A000F1D17B68BBB1D8F808004A465FFA8BF1EA
:1018B00003F096F80837BD46BDE8F08B1A4609EBF1
:1018C0000403D8F8080000932146334603F09EF83D
:1018D000002ED2D1E7E798E803004B465FFA8BF27F
:1018E00003F0FEFE0837BD46BDE8F08B034802F06A
:1018F00019FA00F09BFB00BFE51601088C6C01088B
:1019000070B50A4B1E68002E82B00CDD084D002415
:101910002A7955F8081B684602F00102013403F0E9
:1019200055FCB442F4D102B070BD00BF6084010820
:101930006084010870B582B004466D46416800229B
:10194000284603F043FCA3689EB21B0412D406F1A0
:1019500018020C49207892B2FEF7B4FE034695E8CF
:10196000030083E80300D4E903129E8299601A61A0
:1019700002B070BD044B05481A221A6002F0D2F979
:1019800000F054FB3519010820010020B46C010857
:1019900070B5114904460078FEF774FE0346D4E999
:1019A000026065681C46FFF775F92B0401460AD4EE
:1019B000A28AAB19934206D8163532466019BDE8A3
:1019C000704004F023BF054B05481B221A6002F04B
:1019D000A9F900F02BFB00BF3519010820010020F8
:1019E000D06C01082DE9F04B2DED028B0378624994
:1019F00088B0184608EE103AFEF744FED0E90354CA
:101A0000059004F0CBFA401B844206D904F08CFA0E
:101A100004F0C4FA401B8442F8D8059D95E8030001
:101A200005F11602AF8A039706AE86E8030004921A
:101A3000029204F0B3FAAB6801930446002F50D031
:101A4000DFF84891029B13F8017B02934FF00808DE
:101A50003B064A484BD504F099FAA9FB0035AD0C7A
:101A600004F09CFA001B8542FAD804F04DFA04F009
:101A700095FA054696E8030003F0D8FB04F046FA11
:101A8000019B2C1BA3425FD93D4804F07FFAA9FBC0
:101A900000347F00A40C04F081FA401B8442FAD881
:101AA00004F032FA96E8030003F0C0FB04F02EFACB
:101AB00004F074FA8346334804F068FAA9FB003452
:101AC000A40C04F06BFAA0EB0B008442F9D82C466E
:101AD000B8F10108BCD1DDE903231344029A9A420C
:101AE000B0D104F05BFA059B0122D86036E004F027
:101AF0004DFAA9FB0035AD0C04F050FA001B8542ED
:101B0000FAD804F001FA04F049FA834696E8030093
:101B100003F08CFB1B4804F039FAA9FB0035AD0C2F
:101B200004F03CFAA0EB0B008542F9D896E80300DC
:101B300003F07CFB04F0EAF9019BABEB0404A34245
:101B400002D97F005C46C3E7002296E8030003F059
:101B500089FB04F023FA059B0022D8600A48019211
:101B600002F012FB019A18EE101A08B0BDEC028BBD
:101B7000BDE8F04BFFF780B935190108D01213000A
:101B800010EB0900400D0300F06C010883DE1B43DD
:101B900030B50C4983B004462C220078FEF792FD44
:101BA0006D4603466168A26828461C4603F09AFB0E
:101BB00095E80300044A04F1240383E8030062600B
:101BC00003B030BD911B0108CD1B010870B58369BE
:101BD000044600F1240292E8030003F00105A66820
:101BE00003F0A8FB854203D0A369E6610133A3613A
:101BF0006069314604F0CEF928B9D4E902321344C1
:101C00000120A36070BD94F8202023690748334465
:101C100042F0010284F82020636100F0E1F9D4E988
:101C2000023213440120A36070BD00BF9400002065
:101C300038B50A4905460078FEF724FD044600F051
:101C400043F96B68A360AA68E260EA682046C4E9C9
:101C50000423BDE8384000F01FBA00BF911B010803
:101C600070B51C4886B000F0C3F980B3FF231A4D4D
:101C70001A4E8DF8173029460DF11700FEF74EFD6C
:101C8000044620B394F82030DB07F4D504F03CF987
:101C900094F82010A268A369039221F0010184F84E
:101CA00020100293E46904F031F9304602F06CFA36
:101CB000DDE902329DF817100094FFF7DDF82946A0
:101CC0000DF11700FEF72AFD04460028DAD106B010
:101CD00070BD00BF94000020911B0108146D010825
:101CE00038B5027B81680446007903F02FFB09496F
:101CF000054620222078FEF7E5FCD4E90412064BC5
:101D0000C560818243600261BDE838400C21183013
:101D1000FEF77ABCE11C01081D1D0108F8B500F1B1
:101D2000180604463046FEF765FC07890546394625
:101D3000E06803F0EDFB2846FEF724FC3046FEF792
:101D400043FC60B1A38ABB4224D0206900B9F8BD2E
:101D5000A368114A1844C4E901200120F8BD3046A7
:101D6000FEF738FCA38A4568BB4201D0236913B94A
:101D7000A5600120F8BDA0682946184404F00AF9BE
:101D80000028F5D0054B064818221A6001F0CAFF5A
:101D900000F04CF90020F8BDA51D0108200100202D
:101DA000506D010808B5044B044817221A6001F071
:101DB000B9FF00F03BF900BF20010020806D010851
:101DC00070B51B4905460078FEF75CFC0646FEF739
:101DD000E1FB6B684360AB680381044604F094F850
:101DE00006F118012046FEF7F7FB054604F08EF8D1
:101DF00005B970BD304600F067F80E4B72689A4224
:101E000008D063680C4A3046C6E90123BDE870403B
:101E100000F042B96168B06804F0BCF80028F0D066
:101E2000064B074819221A6001F07CFF00F0FEF80B
:101E3000E11C0108A51D01081D1D0108200100204D
:101E4000506D010870B582B0FF230C4D0C4E8DF81B
:101E5000073008E0E068A18A03F05AFB666004F1ED
:101E60001800FEF7CDFB29460DF10700FEF756FCE2
:101E700004460028EED102B070BD00BFE11C01088D
:101E80001D1D0108027A4168007803F05FBA00BFA7
:101E900000207047084B094810B500221A7204F060
:101EA00075F8074A074994680346234403F1004440
:101EB000012093608C6010BD04000020A08601000A
:101EC0001C0000202800002010B5044604F020F873
:101ED0000E490B68A34202D111E0A3420CD01A466E
:101EE0001B68002BF9D14B68A34204BF084B4B6021
:101EF000BDE8104004F010B823681360F3E7054B09
:101F0000A2689A6022681A600B60ECE70400002067
:101F10001C000020100000202DE9F8431C4F3E68F3
:101F2000736830463BBB01F01DF9B568336838B3C0
:101F30009968284604F02EF810B12846BDE8F883C9
:101F40007C683368A168D3F808903B60284604F0A9
:101F500021F800B13C68A04624682846A16804F036
:101F600019F80028F7D04D4634607E60C8F800604C
:101F70002846BDE8F8839847B56833680028D7D16C
:101F80007A689D683B60B242D7D17B60D5E700BFDD
:101F900004000020074B084A0849094810B49C680F
:101FA00094605DF8044B0A604B601360186003F0A6
:101FB000FBBF00BF1C000020100000200400002018
:101FC00028000020014B00221A72704704000020F4
:101FD000024B187AC043C0F3C010704704000020C1
:101FE000024B00221A720123037070470400002084
:101FF00003780246D8B210B1002313700120704755
:10200000024B587A003818BF0120704704000020A6
:1020100008B5044802F0B8F8034B997ABDE80840C7
:10202000FEF72ABFAC6D01080400002000B583B0A4
:10203000019003F069FF01990148FEF71FF900BF05
:10204000A400002008B5024801F06CFEFFF7EEFF87
:10205000D06D010808B5084A537A23B1022B1CBF82
:102060000023537208BD054B054816221A6001F083
:1020700059FEFFF7DBFF00BF040000202001002015
:10208000E86D010808B5034B5B7A03B108BDFFF7A3
:10209000CDFF00BF040000202DE9F0411A4E8568F5
:1020A000074603F035FF34688046A168284603F0F0
:1020B00071FF70B9264624682846A16803F06AFFBC
:1020C0000028F7D03C6037604046BDE8F04103F09F
:1020D00023BF03F063FF0146284603F05BFF50B9BE
:1020E0000A4B33609C4208BF24683C609D601F60BF
:1020F00003F05AFFE8E7064801F014FE737A002B5C
:10210000EED1FFF793FF00BF040000201000002075
:102110000C6E010838B5094D094B6B6003F03EFFAA
:102120000446084803F032FF00230444AC6028460C
:102130002B60BDE83840FFF7AFBF00BF00010020B3
:1021400035220108A086010010B5304C2378042BFD
:1021500059D8DFE803F0272E363E030002F044FF93
:102160002B4A2C492378128808800133DBB2042BD8
:1021700088BF0023322A237033D8274C20780130BF
:10218000C0B20A28207000D810BD244801F0CAFD52
:10219000234B5B7A002B34D02248082104F0BCF892
:1021A000207810BD02F0D0FE1949237882B20A804F
:1021B000DBE702F0DDFE1C49154A2378128808800F
:1021C000D3E702F0E9FE1949114A23781288088002
:1021D000CBE702F0F5FE16490D4A237812880880F5
:1021E000C3E7114B1B88322BC7D9104B1B88322BEE
:1021F000C3D90F4B1B88322BBFD9074B0020187057
:1022000010BDFFF713FF024A1288AEE7A1000020BD
:102210009A00002096000020A0000020906801088D
:1022200004000020000801409E0000209C000020C7
:1022300098000020074B10B5002204461A72FFF7E1
:1022400083FF054803F0A2FEA36802461344012061
:10225000A36010BD04000020A086010070B582B00C
:1022600001F002FD02F01EFA02F0C4FDFFF752FF7A
:1022700002F0E8F82F4801F087FFFEF7FDFD03F0BC
:1022800043FE2D48FDF7F4FF0446002834D103F047
:102290003DFE03F083FE294C294D20601AE0FF2308
:1022A0002B7203F03DFE95F90830002BF9D103F0B5
:1022B0002DFE03F073FE23681844206001232B7267
:1022C00001F0FAFC03F06AFE064631462068FEF78C
:1022D00005FB266003F028FE95F90830002BEDD0B1
:1022E00003F05CFE2368181A206003F00DFE95F9D8
:1022F0000830002BDBD0D2E703F006FE03F04EFEE1
:102300000F4B5A7A014602B99C720D4C019102237F
:102310006372FFF73FFE01F0B5FC0123637203F027
:10232000F5FD084801F030FFA27A0199FEF7A4FDFF
:10233000ADE700BF1C6E0108A40000200C010020C6
:1023400004000020286E010838B5074905465022D0
:102350000078FEF7B7F90446044B2879636000F073
:10236000ADFC206138BD00BF49230108712301087D
:1023700008B5034604481A7D42F001021A75FFF7BA
:102380002FFE002008BD00BF1001002038B5104905
:1023900005460078FEF776F90446FFF795FD002321
:1023A00023756B6803B938BDE36004F1160002F0D1
:1023B000E9FC03F0A9FD03F0F1FDE36802461344D4
:1023C0002046A360FFF768FEBDE8384003F09EBDDD
:1023D00049230108F0B5134985B006460078FEF799
:1023E00051F9B9230546ADF80C3003F0D7FD0121B2
:1023F00003AB02220746286900F0B6FC03F0CEFDCD
:102400009DF80D1021F08001202909D801EB8104ED
:10241000C31B317800943A4605F1160002F0D0FC57
:1024200005B0F0BD492301082DE9F043534885B0BC
:10243000FFF7DEFD88B1FF23514D524E4F4F8DF80F
:10244000033002E0237DDB070AD429460DF10300A7
:10245000FEF764F904460028F4D105B0BDE8F08326
:1024600096E807000DF1040C6346ACE803008CF815
:10247000002020699DF803800922012100F074FCEE
:10248000A27E9DF8061002F11B0311F0F000234418
:1024900024D0F02822D0A118FF221A71DA709A7085
:1024A0005A70CA76A37E0533DBB22E2BA37604D9ED
:1024B000414604F1160002F06BFC237D23F001037A
:1024C000237503F021FD03F069FDE3681844A06063
:1024D0002046FFF7E1FD03F019FDB6E79DF808C0BF
:1024E0001CF0F00001D0F028D5D19DF80A0010F0C2
:1024F000F00E34D19DF80BE0BEF1900FCBD19DF8DA
:102500000C9029F08009B9F1200FC4D801F01F0107
:1025100041EA40118000224400F060000CF01F0CE2
:102520009DF805E082F81BE040EA0C0C9DF80700DE
:1025300058709DF809209A70D97083F804C0A37E62
:102540000533DBB22E2BA3760DD8B9F11E0F10D9AF
:10255000238B013323833846FFF742FD75E7BEF135
:10256000F00F98D1C6E7414604F1160002F010FCC6
:10257000EBE7B9F1010FA0D9EDE700BF1001002092
:10258000492301088468010870B5067A032E0446C1
:1025900010D8104900785022FEF794F805460E4BEB
:1025A00020796B6000F08AFB286100F0D1FB48B114
:1025B0006E7570BD094B0A4814221A6001F0B2FB17
:1025C000FFF734FD054B074815221A6001F0AAFBFE
:1025D000FFF72CFD89250108E925010820010020CD
:1025E000506E01086C6E010810B5037D5A07044651
:1025F0000BD5C37D0133C3750648FFF7F1FCD4E961
:10260000023213440120A36010BD43F0040303759C
:10261000F2E700BF1401002010B4847D521A34B1D7
:1026200004F1FF3C012101FA0CF10A44E240FE2AC8
:102630000AD8017F4418033162771A0AA377E27738
:102640005DF8044B01777047037FC2180121917731
:10265000FF2400215477D17703335DF8044B0377CF
:10266000704700BF38B50E4904460078FEF70AF8F7
:102670000546FFF729FC00232B75A36803B938BD75
:102680006368AB60A368EB6005F1180002F07AFBA9
:10269000E368AB752846BDE83840FFF7FDBC00BFD6
:1026A000892501082DE9F04390F80080324905465C
:1026B00085B04046FDF7E6FF0446A8682F79FEF78F
:1026C000E9FA94F81590B9F1020F054623D003F00A
:1026D00065FC03463A46206901211C462B4600F062
:1026E00043FB03F05BFC0646322003F04FFC331B38
:1026F000834288BF0027B9F1010F18BF26461F4843
:1027000001F042FD00953B4632464146FEF7B4FBE0
:1027100005B0BDE8F0830DF108092169484600F0D5
:102720001BFB99E80300002202F09CFD03F036FC3D
:102730000646012003F02AFC064401E003F0F4FB06
:1027400003F02CFC0146304603F024FC0028F5D0B1
:1027500003F0DAFB99E80300012202F083FD03F0A5
:102760001DFC064603F0D2FB20692B463A460121A8
:1027700000F0FAFAC3E700BF892501088C6E010852
:102780002DE9F04BC44888B0FFF732FC002856D042
:10279000FF23C24E8DF80B30002531460DF10B00A2
:1027A000FDF7BCFF0446002849D0237D5F07F4D520
:1027B00003F0AAFB94F817B02575E575D4F80880E6
:1027C00003F0A4FBE768A8EB07030193BBF1000F3C
:1027D00019D04FF0FF0902E0BBF1010B13D0237FAA
:1027E000E1180333DBB2302B81F81D908D77CD7764
:1027F0002377F1D99DF80B1004F1180002F0C8FA04
:10280000BBF1010BEBD194F815B0BBF1000F19D05F
:10281000BBF1010F57D0BBF1020F76D0237F302BD5
:10282000BBD904F118009DF80B1002F0B1FA314643
:102830000DF10B00FDF772FF04460028B5D108B07A
:10284000BDE8F08B4FF03208ADF8148003F0A6FB22
:1028500005AB022201210746206900F085FA03F04A
:102860009DFB03464046A3EB070803F08FFB804522
:102870000BD9237FE218FF2103335177DBB202210A
:1028800082F81FB091772377C9E79DF914209DF84E
:102890001430002A0BDA237FE218FF21033351772B
:1028A000DBB2032182F81FB091772377B7E79DF859
:1028B000150001995B0243EA40033A462046FFF7C0
:1028C000ABFE237FABE74FF67F63ADF8143003F028
:1028D00065FB05AB022200218046206900F044FA26
:1028E00003F05CFBA0EB08080746322003F04EFB28
:1028F000804573D9237FE218FF2103335177DBB280
:102900000221D5779177237789E70DF10C0B2169A7
:10291000584600F021FA9BE80300002202F0A2FCD6
:1029200003F03CFB8146012003F030FB814401E0D1
:1029300003F0FAFA03F032FB0146484603F02AFBA3
:102940000028F5D003F0E0FA9BE80300012202F032
:1029500089FC03F023FB814603F0D8FA42F284336A
:102960000593ADF81C50069520690A22012105AB9C
:1029700000F0FAF90DF115010DF11B00052211F817
:10298000013F4FF0080B5A40530012F0800F08BF70
:10299000520083F01D0314BFDAB2D2B2BBF1010BB7
:1029A000F2D18842EBD1D3439DF81D20DBB29A428D
:1029B0007FF471AF9DF81C30DB0641D59DF91630D0
:1029C000002B53DB237FE218FF2103335177DBB267
:1029D000042182F81FB09177237720E7C0228DF879
:1029E00014208DF8155005AB59460222206900F0DD
:1029F000BBF99DF814309DF8151083EA010282EAB4
:102A0000121282EA920282EA520212F001020CD100
:102A1000580621D5237FE1180333CA77FF20DBB2A4
:102A2000052248778A772377F9E6237FE218FF218A
:102A300003335177DBB20321D57791772377EEE625
:102A4000237FE218FF2103335177DBB2052182F89F
:102A50001FB091772377E2E6890041EA83233A4663
:102A600001992046FFF7D8FD237FD8E640F2555064
:102A700003F08CFAA7EB0807B944814510D9237FEE
:102A8000E218FF2103335177DBB2012182F81FB036
:102A900091772377C3E600BF140100208925010840
:102AA0009DF817209DF816309DF81A00520042EA52
:102AB0004322237FE11803338A77C0F34500DBB25A
:102AC000120A4877CA772377A9E600BF2DE9F041BB
:102AD00090F81080B8F1030F84B0054631D8007823
:102AE00000F0ECF807461C20FDF728FD02AE044676
:102AF00069683046012202F0F5FB96E8030084E89D
:102B000003006E46A9683046002202F05FFB96E89B
:102B1000030004F1080383E803000022E96830465B
:102B200002F054FB96E8030004F1100383E803006D
:102B30002146384684F8188004B0BDE8F04100F022
:102B4000F1B8044B044813221A6001F0EBF8FFF7C8
:102B50006DFA00BF20010020C86E0108027E00F15E
:102B6000100393E8030002F0020202F07BBB00BFF7
:102B70002DE9F04B82B0541E07460091E4B2002AC2
:102B80004DD003F1FF392344019300F1100600F109
:102B9000080819F8015F4FF0080B00241AE096E8C6
:102BA000030002F04DFB05F0800298E8030002F0FC
:102BB00059FB96E8030002F043FB97E8030002F09C
:102BC000B9FB6400E4B26D000443BBF1010BEDB24C
:102BD000E4B21DD03B7EDB0705F08002DFD498E82D
:102BE000030002F03FFB96E8030002F029FB97E8A0
:102BF000030002F09FFB6400E4B2044396E8030084
:102C000002F01EFB6D00BBF1010BEDB2E4B2E1D1AD
:102C1000009B0BB189F80040019B4B45B9D102B034
:102C2000BDE8F08B70B5044682B00F4900781422DD
:102C3000FDF748FDA66861686D46B6FA86F252094E
:102C40000446284602F0C2FA95E8030004F108039E
:102C500083E80300002E94F9103014BF09220122EA
:102C60001343237402B070BD252C0108F8B50D493B
:102C700004460079FDF706FD267A0B4906F10802A5
:102C800007462078FDF71EFD05460671E0682F60B7
:102C9000FEF700F832460146681DBDE8F84003F033
:102CA000B5BD00BF252C01086D2C01080249007834
:102CB0001422FDF707BD00BF252C01080149FDF7CF
:102CC000E1BC00BF252C010870B50546124900780B
:102CD00082B0FDF7D7FC2A7A032A044613D8037C76
:102CE00013F0060F0FD16E46EB686968304602F0AC
:102CF00089FD96E80300237C43F0040384E8030085
:102D0000237402B070BD054B054811221A6001F012
:102D100009F8FFF78BF900BF252C010820010020DE
:102D2000C86E010808B5037C13F0060F04D143F008
:102D300002030374016008BD034B044812221A60A9
:102D400000F0F0FFFFF772F920010020C86E0108C3
:102D5000007C00F0010070470831034603C983E896
:102D600003001846704700BF2DE9F043057C15F0BD
:102D7000060F83B004460E46174699461DD0A90794
:102D80000DD50068FFF7EAFEEA0735D420684B4608
:102D90003A46314603B0BDE8F043FFF7E9BED0E95B
:102DA000000102F081FDEB070AD494E803003B46E2
:102DB000CDF80090324602F089FD03B0BDE8F08303
:102DC00004F10808C5F3C00298E8030002F04AFACB
:102DD000CDF8009094E803003B463246ED0802F03F
:102DE00075FD98E8030085F0010202F0010203B0CE
:102DF000BDE8F04302F036BA04F1080898E8030091
:102E0000C5F3C00202F02EFA20684B463A4631461E
:102E1000ED08FFF7ADFEE4E770B506780F4982B024
:102E200004463046FDF72EFC0346D4E901501C460B
:102E3000FDF730FFEAB2034601212046CDE9002329
:102E4000FFF792FF064801F09FF9DDE900233146C4
:102E500002B0BDE87040FEF70FB800BF252C010896
:102E6000DC6E010830B50A4983B004460078FDF7EE
:102E700009FC227901920546A068FDF70BFF019A33
:102E800003460021284603B0BDE83040FFF76CBF81
:102E9000252C010810B582B0FF23154C8DF80730A2
:102EA00002E0027CD3071AD421460DF10700FDF79A
:102EB00035FC0028F5D1FF230E4C8DF8073003E0D8
:102EC00002790068FFF750FF21460DF10700FDF77A
:102ED00025FC0021431D0028F2D102B010BD82F074
:102EE0000802083003C8C2F3C00202F0BBF9DBE7F6
:102EF000252C01086D2C010838B500F13405044675
:102F00002846FDF761FB10B10020606138BD2846FE
:102F1000FDF770FBB0F90830426823821344E36088
:102F200094F84430D90605460FD5A16843896361FA
:102F30000A44A2602A7BD20711D4226B1344236374
:102F40002846FDF71FFB012038BDA16943890A44CB
:102F5000A261A2605A0062612A7BD207EDD5216B83
:102F600004F128025B1A236392E8030002F05EF981
:102F7000E6E700BF70B500F12003044693E80300C4
:102F800002F054F903F00AF86369E169013BDA07DA
:102F9000636100EB010503D5A5600126304670BDD5
:102FA00083B1E268A069B4F9103010441344A06101
:102FB000E360294602F0EEFF0028EDD1A369A3608B
:102FC0000126EBE72046FFF797FF06460028E5D0ED
:102FD000A068294602F0DEFF0028DFD0A3684FF486
:102FE0007A705E1B02F0D2FF4042B042D4DD044B47
:102FF00004480E221A6000F095FEFFF717F800BF94
:1030000020010020086F01082DE9F04105463249F2
:10301000007882B04822FDF755FBEF68002F044688
:1030200027DD04226E4680F844206968304602F0AD
:10303000CDF896E8030004F1200383E803000022A2
:10304000A968304602F0C2F896E8030004F12803AC
:1030500083E803004FF0404323632B69E3611021B1
:1030600004F13400FDF7D0FA1C4B636002B0BDE8F8
:10307000F0814FF000086E4680F84480696842464F
:10308000304602F0A3F896E8030004F1200383E839
:1030900003004246A968304602F098F896E803001B
:1030A00004F1280383E803004FF0404323632B69B6
:1030B000E361102104F13400FDF7A6FAE369002B67
:1030C000D2D1002FD0D094F8443043F0100384F8CC
:1030D000443002B0BDE8F08109300108752F0108C5
:1030E00038B50446A0F13C052846FEF7EDFE237AEC
:1030F00054F80C1C002244F8342C44F8242C54F8C6
:10310000282CD8064CBF891AA1EB520103F01403F6
:10311000002943F00803C8BF49420022237205F189
:10312000280344F80C1C44F8282C93E8030002F010
:1031300099F8227AD3060DD5083C03E0FDF75AFA38
:10314000FDF720FA2046FDF73FFA03462046002B04
:10315000F4D038BD203595E8030002F0040202F0F7
:1031600081F8E9E700F1200310B5044693E8030075
:1031700002F05CF86369013B0AD0D4E90210B4F9AB
:103180001020636101440244C4E90212012010BD11
:103190002046BDE81040FFF7AFBE00BF70B528491C
:1031A00005460078FDF76EFA0646FDF7F3F96B6801
:1031B00043602B8943810446D3B3EA68028100232C
:1031C000037302F0A1FE96F8443003F00101C3F34B
:1031D0004002914205D0227B42F0010283F00103BC
:1031E00022737269CAB91A0710D406F1340186F83D
:1031F00044302046FDF7F0F93046FFF77DFE3046BB
:10320000FEF74AFFBDE8704002F080BE2046FDF7A1
:10321000B9F9BDE8704002F079BE86F8443006F195
:1032200034012046FDF7D8F9BDE8704002F06EBECB
:10323000044B05480F221A6000F074FDFEF7F6FEFD
:103240000930010820010020206F010838B50C4921
:1032500004460078FDF716FA63680446002B14BF95
:103260000225002502F050FE94F8443023F00203BA
:103270001D4384F84450BDE8384002F047BE00BF0B
:103280000930010838B50F4905460078FDF7FAF90D
:1032900004466D6802F038FE63695BB994F8443007
:1032A000A56023F00803A56184F84430BDE83840E8
:1032B00002F02CBE044B054810221A6000F032FDCB
:1032C000FEF7B4FE0930010820010020386F010824
:1032D00070B506780F493046FDF7D4F9054602F07F
:1032E00013FE95F844302C6B6A69DB064CBFA41AB8
:1032F000A4EB520402F00AFE002CB8BF6442064858
:1033000000F042FF04F140423146BDE87040FDF755
:10331000B3BD00BF09300108606F010838B5084926
:1033200004460078FDF7AEF90546207900F07CFBF5
:1033300005F13C01034ABDE8384000F07BBB00BF0B
:1033400009300108E130010830B583B0FF230B4D8F
:103350008DF8073006E0FDF753F9002104F13C0039
:10336000FFF7BEFE29460DF10700FDF7D7F9044629
:103370003430002CEFD103B030BD00BF093001085C
:1033800010B504460648FEF72BFED4E90231627FF1
:1033900042F001020B446277A360012010BD00BF20
:1033A0001801002010B5047A032C08D808490078C9
:1033B0002022FDF787F9074B0477436010BD064BC9
:1033C000064803221A6000F0ADFCFEF72FFE00BF96
:1033D000A53301088133010820010020806F010816
:1033E00038B50D4904460078FDF74CF90B4B0546FE
:1033F00000221A70FEF768FD6368AB60A368EB609B
:1034000003B938BDE3682B6123696B612846BDE8C9
:103410003840FEF741BE00BFA5330108150100206A
:103420002DE9F04B3D4886B0FEF7E2FD002849D07B
:10343000FF233B4D3B4FDFF8F0808DF81330002623
:1034400029460DF11300FDF769F90446002839D02B
:10345000637FDA07F4D502F057FD637FD4F8089054
:1034600023F00103637702F051FD237F032BE7D89C
:10347000DFE803F046392B02A0699DF813B0ADF8E0
:10348000146005AB02220121FFF76EFCBDF8144069
:1034900064BAA4B2384600F077FE23464A4659463D
:1034A0000096FDF7E9FC6307CAD5404600F03AFCF8
:1034B000FEF7E8FD29460DF11300FDF72FF904464C
:1034C0000028C5D106B0BDE8F08B9DF8131003911C
:1034D000384600F059FE039900964A4644F22C0300
:1034E000FDF7CAFCACE79DF813100391384600F0D5
:1034F0004BFE039900964A460023FDF7BDFC9FE76B
:103500009DF813100391384600F03EFE0399009693
:103510004A464FF0A073FDF7AFFC91E71801002079
:10352000A5330108A06F0108DC6F01082DE9F04305
:10353000044685B01A4900783422FDF7C3F894F8A0
:103540000890D4F80480E768B9F1000202AE05469D
:1035500018BF01224146304601F0C4FE96E8030040
:1035600005F114036E4683E8030001223946304614
:1035700001F02CFE96E8030005F10C0383E803003C
:10358000B9F1000F08BF012322692A6218BF112375
:10359000B84508BF43F020032B7705B0BDE8F083A2
:1035A0002D35010838B5044600F10C0393E80300FB
:1035B00001F03CFE637F94F81CC094F81FE0656A3C
:1035C0000133DBB28CF0010C734584F81CC00CF0A5
:1035D000010C29D204EBD30203F0070192F8282052
:1035E0000A4102F001029445294607D016E092F8FC
:1035F0002820024102F0010294450FD10133DBB2D1
:10360000734504EBD30203F007002944EFD3A3680A
:10361000064A0B44C4E90123012038BDA268637740
:103620000A44A260012038BD2946F0E79936010816
:1036300000F10C0310B5044693E8030001F0F6FD19
:1036400002F0ACFC637F227F0133DBB282F0010227
:10365000012B2277637719D0042B05D8A268236A3F
:103660001344A360012010BDA368626A1A44801A43
:10367000811C226A48BF411D02EBA1011844054A82
:1036800061620844C4E90120012010BDA268801ACB
:103690006062E4E7A535010810B5837F0446B3B145
:1036A000027F93060AD4A368606A164A002103EBDE
:1036B00080036177C4E90123012010BD00F11403E8
:1036C00093E8030002F0100201F0D8FDEBE7037F5E
:1036D00013F0200F00F10C0393E803004FF00102F8
:1036E0000CD101F0BFFD237F074803F0300343F006
:1036F00009032377FEF774FC002010BD01F02EFDB6
:10370000F1E700BF913701081C01002000F114030C
:1037100010B5044693E8030001F00CFE637F04EB50
:10372000D30C012203F0070102FA01F19CF82820D2
:1037300078B10A43D2B28CF82820A27F0133DBB2E1
:103740009A4209D9A268616A63770A44A26001209B
:1037500010BD22EA0102EEE7237F13F0200F04F1EF
:103760000C0393E803004FF001020CD101F07AFD45
:10377000237F064803F0300343F009032377FEF765
:103780002FFC002010BD01F0E9FCF1E71C01002036
:1037900000F1140310B5044693E8030001F0CAFDDC
:1037A000237F68B143F004032377637F5A1C3F2BC8
:1037B00062770FD8A368626A13440120A36010BD2A
:1037C0005B07F2D56077114B63602046BDE810407F
:1037D000FFF79CBF237F0022A27713F0200F04F194
:1037E0000C0393E803004FF001020CD001F0B6FC8B
:1037F000237F074803F0300343F009032377FEF7E4
:10380000EFFB002010BD01F02DFDF1E70D370108A1
:103810001C010020F8B5264905460078FCF732FF68
:10382000037F13F00206044600D0F8BDA8682F7984
:10383000FDF730FA0A2F2D7B014630D80A2D2ED8FD
:103840003A4604F1280002F0E1FF237F667703F097
:10385000310343F00203ED002377FB00E377A57704
:103860002FB194F8283003F03F032A2B14D0226A9A
:10387000104B6262636002F047FB02F08FFB05466B
:10388000C82002F083FB2844A0602046FEF704FC19
:10389000BDE8F84002F03ABB074B6360EBE7074B2B
:1038A000074802221A6000F03DFAFEF7BFFB00BF96
:1038B0002D350108A5350108313601082001002009
:1038C000F86F010870B5184882B0FEF791FB48B355
:1038D000FF23164D164E8DF8073029460DF10700CF
:1038E000FCF71CFF0446E8B1237F1B07F5D502F067
:1038F0000BFB237F23F00803237702F007FB3046FE
:1039000000F042FCA27F9DF8071004F12803D208C2
:10391000FDF7B2FA29460DF10700FCF7FFFE044659
:103920000028E1D102B070BD1C0100202D35010836
:103930001070010830B583B0FF23114D8DF80730AA
:1039400008E003C901F00AFC237F03F0300343F0D1
:103950000103237729460DF10700FCF7DFFE00F194
:103960000C01012204460B4640B1207F8006E8D4BA
:1039700093E80300012201F075FCE5E703B030BDD8
:103980002D35010810B50446074894F8203043F05F
:10399000040384F82030FEF723FBA368A2691344D4
:1039A0000120A36010BD00BF2401002008B524221F
:1039B00004490078FCF786FE034A044B4260036129
:1039C00008BD00BFAD39010885390108193A010861
:1039D00070B590F82030DA0704460E4619D5C06954
:1039E00084F8211023F0050343F0040384F8203009
:1039F00050B10025D0E900233146E261C0E900550D
:103A00009847E0690028F5D1BDE870400148FEF70D
:103A1000E7BA70BD2401002008B503460C38997D33
:103A2000FFF7D6FF002008BD0149FCF72BBE00BF01
:103A3000AD39010870B50C460546164602F068FA25
:103A4000636843B93EB1EB69C4E90036EC61BDE897
:103A5000704002F061BA044B044801221A6000F081
:103A600061F9FEF7E3FA00BF20010020347001087D
:103A700038B51A4905460078FCF704FE044602F002
:103A800043FA2046FEF720FA04F10C00FEF71CFA78
:103A9000E36933B100211A461B68C2E90011002B0B
:103AA000F9D100220123238484F822206B68A360CB
:103AB000AB68C4E9063233B9EB6884F82230BDE85C
:103AC000384002F023BA2046FEF7E6FAEB6884F8A5
:103AD0002230BDE8384002F019BA00BFAD39010804
:103AE00030B5104983B005460078FCF7CBFD04469D
:103AF00002F00AFA94F82030DB0704D403B0BDE8E2
:103B0000304002F003BA04F10C000190FEF7DCF93A
:103B10006B6801986361FEF7BFFA03B0BDE83040FF
:103B200002F0F4B9AD39010870B50678134984B0D4
:103B300005463046FCF7A6FD044602F0E5F9297972
:103B40002046FFF745FF2046FEF7BEF9002504F1A9
:103B50000C00FEF7B9F994F8213084F82050039353
:103B600002F0D4F9064800F00FFB039B00952A46AB
:103B70003146FDF781F904B070BD00BFAD390108D1
:103B80005C7001082DE9F0411E4886B0FEF730FA5E
:103B9000A0B3FF231C4E1D4F8DF8173031460DF199
:103BA0001700FCF7BBFD044640B394F820305B07D8
:103BB000F4D502F0F3F9054602F0A6F994F8208056
:103BC00094F82130039328F0040284F8202002F0B6
:103BD0009DF99DF817100291384600F0D5FA039B25
:103BE0000299009508F00102FDF746F931460DF102
:103BF0001700FCF793FD04460028D6D106B0BDE8B7
:103C0000F08100BF24010020AD3901085C7001087B
:103C100070B5144E82B0FF2331460DF107008DF8C8
:103C20000730FCF77BFD00240546C8B1FEF74CF9D0
:103C300005F10C00FEF748F9EB692BB11A461B6839
:103C4000C2E90044002BF9D1EC612C8485F82240B4
:103C500031460DF10700FCF761FD05460028E5D16E
:103C600002B070BDAD39010808B5FCF75BFCFDF78B
:103C700047FE01F055FE02F0A5F9BDE8084002F04C
:103C800039B800BF08B5FDF70DF9FCF7D3FCFDF717
:103C9000F3FCFFF759FBFFF7BBFFFCF70DFCFFF749
:103CA000F9F8FEF7CFF8FFF745FE02F03FF9BDE85F
:103CB000084002F085B900BF08B502F035F9FFF7FA
:103CC00061FF02F031F9FCF7A9FB02F02DF9FCF7D6
:103CD000A5FF02F029F9FFF7F5FD02F025F9FDF740
:103CE000BFFF02F021F9FFF79BFB02F01DF9FEF781
:103CF0009BFB02F019F9FEF743FD02F015F900F005
:103D0000BDFF02F011F901F003FE02F00DF902F01F
:103D1000DBF902F009F902F047F8BDE8084002F0CB
:103D200003B900BF10B5C9490446FCF7AFFA002833
:103D300000F06281C6492046FCF7A8FA002800F08E
:103D40005981C4492046FCF7A1FA002800F05881A7
:103D5000C1492046FCF79AFA002800F04F81BF497C
:103D60002046FCF793FA002800F04C81BC4920461D
:103D7000FCF78CFA002800F04981BA492046FCF78C
:103D800085FA002800F04481B7492046FCF77EFA06
:103D9000002800F03981B5492046FCF777FA002861
:103DA00000F03881B2492046FCF770FA002800F094
:103DB0003381B0492046FCF769FA002800F02E81D3
:103DC000AD492046FCF762FA002800F02981AB4992
:103DD0002046FCF75BFA002800F02481A849204621
:103DE000FCF754FA002800F01F81A6492046FCF792
:103DF0004DFA002800F01A81A3492046FCF746FA44
:103E0000002800F01581A1492046FCF73FFA002860
:103E100000F010819E492046FCF738FA002800F097
:103E20000B819C492046FCF731FA002800F00681FE
:103E300099492046FCF72AFA002800F001819749A9
:103E40002046FCF723FA002800F0FE809449204623
:103E5000FCF71CFA002800F0F58092492046FCF798
:103E600015FA002800F08E818F492046FCF70EFAE3
:103E7000002800F085818D492046FCF707FA0028CC
:103E800000F07C818A492046FCF700FA002800F007
:103E9000738188492046FCF7F9F9002800F06A810F
:103EA00085492046FCF7F2F9002800F0618183493A
:103EB0002046FCF7EBF9002800F0588180492046A5
:103EC000FCF7E4F9002800F04F817E492046FCF71A
:103ED000DDF9002800F046817B492046FCF7D6F941
:103EE000002800F03D8179492046FCF7CFF90028F1
:103EF00000F0348176492046FCF7C8F9002800F02C
:103F00002B8174492046FCF7C1F9002800F022817A
:103F100071492046FCF7BAF9002800F019816F4971
:103F20002046FCF7B3F9002800F010816C492046C8
:103F3000FCF7ACF9002800F007816A492046FCF73D
:103F4000A5F9002800F0FE8067492046FCF79EF99D
:103F5000002800F0F58065492046FCF797F9002815
:103F600000F0EC8062492046FCF790F9002800F050
:103F7000E38060492046FCF789F9002800F0DA80E8
:103F80005D492046FCF782F9002800F0D1805B49AA
:103F90002046FCF77BF9002800F0C88058492046ED
:103FA000FCF774F9002800F0BF8056492046FCF762
:103FB0006DF9002800F0B68053492046FCF766F9F9
:103FC000002800F0AD8051492046FCF75FF9002839
:103FD00000F0A4804E492046FCF758F9002800F074
:103FE0009B804C492046FCF751F9002814BFFF2064
:103FF000342010BD032010BD022010BD052010BDCF
:10400000042010BD062010BD092010BD072010BDE2
:10401000082010BD0A2010BD0B2010BD0C2010BDC3
:104020000D2010BD0E2010BD0F2010BD102010BDA2
:10403000112010BD122010BD132010BD142010BD82
:10404000152010BD172010BD162010BDE86D010809
:104050000C6E0108D06D0108206B0108086B010887
:10406000F06A0108046A01089C70010840690108AF
:104070002C6901081869010894690108D4680108CD
:1040800004690108A8690108F0680108346C010896
:10409000C46B0108FC6B0108986B0108386F0108BC
:1040A000206F0108086F010834700108906801084A
:1040B000C86E01088C6C0108506D0108806D010804
:1040C000A06A0108786A0108646A0108F86F0108AB
:1040D000D06C0108B46C0108C8700108DC6F0108DD
:1040E000806F01086C6E0108506E0108D8700108DD
:1040F000F070010804710108187101083871010895
:10410000507101085C71010870710108807101082B
:1041100094710108C0710108332010BD322010BD18
:10412000312010BD302010BD2F2010BD2E2010BD1D
:104130002D2010BD2C2010BD2B2010BD2A2010BD1D
:10414000292010BD282010BD272010BD262010BD1D
:10415000252010BD242010BD232010BD222010BD1D
:10416000212010BD202010BD1F2010BD1E2010BD1D
:104170001D2010BD1C2010BD1B2010BD1A2010BD1D
:10418000192010BD182010BD10B576490446FCF763
:104190007DF8002800F0B18073492046FCF776F8DE
:1041A000002800F0A88071492046FCF76FF800282D
:1041B00000F0A7806E492046FCF768F8002800F060
:1041C0009E806C492046FCF761F8002800F09B8037
:1041D00069492046FCF75AF8002800F098806749A2
:1041E0002046FCF753F8002800F0938064492046ED
:1041F000FCF74CF8002800F0888062492046FCF764
:1042000045F8002800F087805F492046FCF73EF81B
:10421000002800F082805D492046FCF737F800282E
:104220007DD05B492046FCF731F8002879D0594908
:104230002046FCF72BF8002875D057492046FCF79C
:1042400025F8002871D055492046FCF71FF80028B2
:104250006DD053492046FCF719F8002869D0514920
:104260002046FCF713F8002865D04F492046FCF79C
:104270000DF8002861D04D492046FCF707F80028CA
:104280005DD04B492046FCF701F8002859D0494938
:104290002046FBF7FBFF002857D047492046FBF795
:1042A000F5FF00284FD045492046FBF7EFFF0028D7
:1042B00055D043492046FBF7E9FF00284DD041493E
:1042C0002046FBF7E3FF002845D03F492046FBF797
:1042D000DDFF00283DD03D492046FBF7D7FF0028F1
:1042E00035D03B492046FBF7D1FF3A4B00280CBFA5
:1042F0001846002010BD384810BD384810BD384859
:1043000010BD384810BD384810BD384810BD384879
:1043100010BD384810BD384810BD384810BD384869
:1043200010BD384810BD384810BD384810BD384859
:1043300010BD384810BD384810BD384810BD384849
:1043400010BD384810BD384810BD384810BD384839
:1043500010BD384810BD384810BD384810BD384829
:1043600010BD00BF1C6E0108AC6D0108286E01086D
:104370003C6A0108D4710108F4710108087201084F
:10438000146A0108E4690108CC690108BC690108E4
:10439000586901084C6B0108386B0108606F01080F
:1043A0005C6B01085C700108A4680108DC6E010800
:1043B000646C0108C46A010810700108F06C0108FF
:1043C000146D0108A06F01088C6E01081C720108B1
:1043D00084720108D4720108E4720108DC720108D9
:1043E000F4720108EC720108FC720108B472010851
:1043F000047301080C730108147301081C7301088D
:10440000247301082C730108347301083C730108FC
:10441000447301084C730108547301085C7301086C
:10442000647301086C7301087C73010874730108DC
:10443000CC720108C4720108BC7201088C730108B7
:104440008473010830B50B4C83B00121042001F0C6
:1044500093FF082541F2030301A92046ADF8063079
:10446000ADF8045001F0F6FE2946204601F052FF57
:1044700003B030BD000801404348444AD0F88810DA
:10448000434B41F4700110B4C0F88810116841F03A
:1044900001011160546823405360136823F0847352
:1044A00023F480331360136823F48023136053686C
:1044B00023F00F6300204FF41F0123F47023536097
:1044C000D06210639160D3693249334843F080531E
:1044D000D361CB6843F00103CB60D36923F08053F1
:1044E000D361016841F090010160116841F48031AD
:1044F0004FF6FF73116001E0013B02D011688803A1
:10450000FAD5224B1A68910339D5234A116821F054
:1045100003011160116841F0040111605A685A608A
:104520005A6842F400525A605A6842F4A0625A60D3
:104530005A6822F0036222F470225A605A6842F0EC
:10454000016242F470225A601A6842F080721A6066
:104550001A689201FCD559680C4A21F00301596090
:10456000596841F002015960536803F00C03082BAD
:10457000FAD1054B094A5DF8044B9A607047084B25
:10458000084A1A60F5E700BF00ED00E000100240A5
:1045900000C0FFF800700040002002400000010849
:1045A0003400002000127A0008B54FF4006001F0DA
:1045B000D3FF00B908BD4FF4006001F0DBFF024BF0
:1045C00001221A7008BD00BF250100200A4B1B788C
:1045D0003BB10A4A0A49136801338B4288BF094B31
:1045E0001360094B09491A6801321A601A688A4235
:1045F00084BF00221A607047380100203401002077
:104600007F8D5B00808D5B00280100203F420F0002
:1046100008B51248012101F0B3FF00B908BD01211E
:104620000E4801F0B9FF0E4A0E49136801338B4260
:1046300004D81360BDE80840FFF7C8BF0A490B78EB
:104640000133DBB23B2B4FF0000094BF0B700870BE
:10465000BDE808401060FFF7B9BF00BF0008004088
:10466000300100209F8601002C010020704700BF10
:10467000FEE700BFFEE700BFFEE700BFFEE700BFAA
:10468000704700BF704700BF054A00234FF0010C80
:10469000A0F800C08370C0E9021343601360704744
:1046A00028010020034B0448002242F210711A70C6
:1046B000FFF7EABF150100203C01002070B500F1B2
:1046C00008030646002293E8030000F047FD756AE0
:1046D00001F064FC04464FF47A7005FB00F001F031
:1046E00055FC2546154CA4FB003405EB944401F021
:1046F00055FC8442FBD806F1100393E80300012225
:1047000000F0BCFD756A01F049FC04464FF47A7074
:1047100005FB00F001F03AFC2546084CA4FB0034F0
:1047200005EB944401F03AFC8442FBD8183696E835
:1047300003000122BDE8704000F0A0BD83DE1B43F2
:104740002DE9F04B84B000F118030827029300F123
:1047500010030193DFF824B1C31906460D460393F5
:104760004FF47A792B067DD4039B002293E8030053
:1047700000F0F4FCD6F8248001F010FC044609FB9C
:1047800008F001F003FC6D00ABFB0023EDB204EB7D
:10479000934401F003FC8442FBD8019B012293E87F
:1047A000030000F06BFDD6F8248001F0F7FB04460F
:1047B00009FB08F001F0EAFBABFB002304EB934498
:1047C00001F0ECFB8442FBD896E80300002200F0E5
:1047D000C5FC013FC6D1029B012293E8030000F013
:1047E0004DFD756A01F0DAFB04464FF47A7005FB63
:1047F00000F001F0CBFB214BA3FB002304EB93441F
:1048000001F0CCFB8442FBD8019B012293E803001A
:1048100000F034FD029B93E8030000F08BFD776A03
:10482000054601F0BBFB04464FF47A7007FB00F02D
:1048300001F0ACFB114BA3FB002304EB934401F00C
:10484000ADFB8442FBD896E80300002200F086FC12
:10485000029B012293E8030000F010FD4DB904B063
:10486000BDE8F08B029B012293E8030000F006FDF7
:1048700080E70348FFF756FAFDF7D8FB83DE1B43BA
:10488000C8700108F8B5456A0F46064601F086FB78
:1048900004464FF47A7005FB00F001F077FB2546E3
:1048A000284CA4FB003405EB944401F077FB8442D0
:1048B000FBD806F1180393E80300012200F0DEFCA8
:1048C00006F1100393E80300012200F0D7FC756A9B
:1048D00001F064FB04464FF47A7005FB00F001F030
:1048E00055FB2546174CA4FB003405EB944401F01E
:1048F00055FB8442FBD806F1080393E8030000222D
:1049000000F02CFC756A01F049FB04464FF47A7004
:1049100005FB00F001F03AFB25460A4CA4FB0034ED
:1049200005EB944401F03AFB8442FBD896E803007F
:10493000002200F013FC39463046BDE8F840FFF78E
:10494000FFBE00BF83DE1B432DE9F041054684B066
:104950000078FCF7CFFE80462C20FBF7EFFD2B699B
:104960005B0080F8203041F288321C4B426202AF7B
:104970006A6969681A6004460122384600F0B2FC90
:1049800097E8030004F1100383E803006E466968AA
:104990003046012200F01AFC96E8030084E8030088
:1049A0000122A968384600F09DFC97E8030004F155
:1049B000180383E803000122A968304600F006FCD2
:1049C00096E8030004F1080383E80300214640460B
:1049D00004B0BDE8F041FCF7B3BE00BF4C010020BD
:1049E00070B50D4690F8201006461446FFF74AFFB2
:1049F0003DB1254414F8011B3046FFF7A1FEAC423F
:104A0000F8D13046BDE87040FFF758BE2DE9F04BB5
:104A100084B00D4690F820101F460C9B0393064669
:104A2000144641F00108002D40F0AA80414630466E
:104A3000FFF728FF7B1EDBB20293002F00F092806D
:104A400006F118030093DFF8509106F1100301936B
:104A5000009B012293E8030000F010FC08270025CA
:104A60004FF47A7BD6F8248001F098FA04460BFBC9
:104A700008F001F08BFAA9FB002304EB934401F04A
:104A80008DFA8442FBD8019B012293E8030000F0D9
:104A9000F5FBD6F8248001F081FA04460BFB08F000
:104AA00001F074FAA9FB002304EB934401F076FAB9
:104AB0008442FBD8009B93E8030000F03BFC6D00B0
:104AC000EDB20543002296E8030000F047FB013FEA
:104AD000EDB2C7D1009C012294E8030000F0CEFBA8
:104AE000029B002B44D194E80300012200F0C6FB96
:104AF000776A01F053FA04464FF47A7007FB00F02E
:104B000001F044FAA9FB002304EB934701F046FAB5
:104B10008742FBD8019B012293E8030000F0AEFB23
:104B2000776A01F03BFA04464FF47A7007FB00F015
:104B300001F02CFAA9FB002304EB934701F02EFAB5
:104B40008742FBD8002296E8030000F007FB029B97
:104B5000039A013BDBB202F8015BFF2B0293039245
:104B60007FF476AF304604B0BDE8F04BFFF7A6BD4A
:104B700006F1080393E803003A4600F0EFFAB7E7BE
:104B8000FFF780FE254414F8011B3046FFF7D8FDDF
:104B9000A542F8D14AE700BF83DE1B4338B5074979
:104BA000054650220078FBF78DFD0446044B28791A
:104BB0006360FEF783F8206138BD00BF9D4B01089C
:104BC000C54B010808B5034604481A7D42F00102AE
:104BD0001A75FDF705FA002008BD00BF500100203E
:104BE00038B5104905460078FBF74CFD0446FDF743
:104BF0006BF9002323756B6803B938BDE36004F1DA
:104C0000160000F0BFF801F07FF901F0C7F9E36882
:104C1000024613442046A360FDF73EFABDE8384043
:104C200001F074B99D4B010870B5134984B0044676
:104C30000078FBF727FDAF230546ADF80C3001F0F7
:104C4000ADF903AB0646022228690121FEF78CF874
:104C500001F0A4F99DF80DC021780CF01F0C0CEBAD
:104C60004C0C4FEA4C04831B0094324605F11600AD
:104C700000F0A6F804B070BD9D4B01082DE9F0438B
:104C80003E4885B0FDF7B4F980B1FF233C4D3B4F62
:104C90008DF8033002E0237DDB070AD429460DF1AD
:104CA0000300FBF73BFD04460028F4D105B0BDE846
:104CB000F083AF22002394F81A90ADF80420A822C4
:104CC000029320698DF80E30ADF80C308DF8082075
:104CD00002AB0722012109F11B069DF80380A144C4
:104CE000FEF742F801AB022220690121FEF73CF8F1
:104CF00026449DF8093089F81B309DF80A309DF84C
:104D0000052073709DF80B30B3709DF80C30F37074
:104D10009DF80D3033719DF80E307371A37E06330C
:104D2000DBB22D2BA37602F03F0902F040061BD820
:104D3000384616B1238B01332383B9F1000F02D11A
:104D4000FDF74EF9AAE7237D23F00103237501F057
:104D5000DBF801F023F9E3680344A3602046FDF784
:104D60009BF901F0D3F899E704F11600414600F0F1
:104D70000FF83846002EE0D0DCE700BF50010020DD
:104D80009D4B01080023038043800371704700BFDF
:104D900010B584B0044609480391FFF7F5F923469E
:104DA000039933F8052B00932379FCF765F82388E2
:104DB000002201332271238004B010BD84720108E7
:104DC00070B5044688B00A480593CDE90621FFF77F
:104DD000DBF925790C9E0799354401956588029584
:104DE00024880094DDE90532FCF746F808B070BD70
:104DF0001C72010870B5012190B0042001F0BCFACA
:104E000001211020002401F0B7FAB0234848ADF882
:104E1000143005A903268DF8174001F01BFA454808
:104E2000ADF8146005A98DF8174001F013FA0121BF
:104E3000084601F095FA01214FF4005001F090FA74
:104E40000721204601F072FB4FF460514FF400300F
:104E500001F064FA384801F0B9FB384B0593384B40
:104E600006933223CDE9074380234FF48072CDE9C6
:104E700009434FF48063CDE90B232F480F944FF47F
:104E8000005305A92025CDE90D5301F05FFC012158
:104E9000294801F07BFC684601F0B8FA40F20113A2
:104EA00005252848ADF8043069464FF46023029385
:104EB000009403948DF8105001F082FA01221146FB
:104EC00020482B4601F0D2FA022211461D482B46FB
:104ED00001F0CCFA1B482B463246042101F0C6FAF9
:104EE00018482B460621042201F0C0FA1548072174
:104EF0002B462A4601F0BAFA1248012101F08EFA37
:104F00001048202101F00CFB0028F9D00D4801F0D9
:104F100099FA0C4801F09CFA0028FAD109480121BD
:104F200001F086FA0748012101F096FA10B070BD31
:104F30000008014000100140940002404C0C024067
:104F400054010020000C024000230749184631F8A4
:104F500013200533322B10FA82F0F8D1034BA3FB58
:104F60000030C0F3CF00704754010020CDCCCCCC32
:104F700007490123002031F813200533332B10FAA1
:104F800082F0F8D1034BA3FB0030C0F3CF00704791
:104F900054010020CDCCCCCC07490223002031F8AD
:104FA00013200533342B10FA82F0F8D1034BA3FB06
:104FB0000030C0F3CF00704754010020CDCCCCCCE2
:104FC00007490323002031F813200533352B10FA4D
:104FD00082F0F8D1034BA3FB0030C0F3CF00704741
:104FE00054010020CDCCCCCC07490423002031F85B
:104FF00013200533362B10FA82F0F8D1034BA3FBB4
:105000000030C0F3CF00704754010020CDCCCCCC91
:10501000002210B513460A4C04E00133202B07D0C0
:1050200014F8012F8A42F8D1064AC0E9002310BDC6
:10503000054B06480D221A60FEF774FEFCF7F6FFDA
:1050400064840108000C0240200100200471010862
:1050500082B002AB03E90300002002B0704700BF3A
:1050600082B002AB03E903004B1E062B16D8DFE823
:1050700003F01823152E15390400204B04220020BC
:1050800033F812100532362A10FA81F0F8D11C4B91
:10509000A3FB0030C0F3CF0002B07047002002B085
:1050A00070470022154B104633F812100532322A91
:1050B00010FA81F0F8D1EAE7104B0122002033F812
:1050C00012100532332A10FA81F0F8D1DFE70B4BCA
:1050D0000222002033F812100532342A10FA81F02F
:1050E000F8D1D4E7054B0322002033F81210053223
:1050F000352A10FA81F0F8D1C9E700BF5401002029
:10510000CDCCCCCC82B002AB03E9030002B0704737
:1051100070B584B0014601AC01A800F013FC70CC5E
:1051200000F0F6FE236833432360236815B10023A3
:105130002E602B6004B0BDE8704000F0EDBE00BFF3
:1051400000B585B0014601A800F0FCFB019A039B65
:105150001068184005B05DF804FB00BF2DE9F04170
:1051600082B002AB03E9030005461649019E164BC7
:105170001746002001E051F8043B9D4214D0013055
:105180000728F8D1002400F0C3FE804607B9360492
:1051900020462E610022012100F02CFC404602B086
:1051A000BDE8F04100F0B8BE04010023012202E096
:1051B0000133102BE7D002FA03F13142F8D01C443E
:1051C000E1E700BF8884010800080140F0B56F29BD
:1051D00083B00C460546164619D8114B0A0953F8F8
:1051E0002270A7B1384600F0F5FB04F00F0401214E
:1051F00001FA04F4CDE9007402AB13E9030032466E
:10520000FFF7ACFF2846C5E9007403B0F0BD054BBD
:1052100005480B221A60FEF785FDFCF707FF00BF6B
:105220008484010820010020F070010882B002ABE4
:1052300003E90300C3684B40C36002B0704700BF7E
:1052400000B583B002AB03E9030000F061FEDDE9C5
:105250000021D3684B40D36003B05DF804EB00F04D
:105260005BBE00BF82B002AB03E903000B46014600
:1052700002B91B040B6102B0704700BF30B585B0A6
:1052800004AB03E9030004461449039D144B0020BA
:1052900001E051F8043B9C4212D001300728F8D1BC
:1052A0000024019200F034FE019A054600212046B8
:1052B00000F0A0FB284605B0BDE8304000F02CBE51
:1052C00004010023012002E00133102BE9D000FA91
:1052D00003F12942F8D01C44E3E700BF88840108A9
:1052E0000008014070B56F2982B0044614D80E4BF7
:1052F000080953F820607EB101F00F0101258D40AF
:10530000CDE9006502AB13E90300FFF7B7FF2046C4
:10531000C4E9006502B070BD044B05480C221A6058
:10532000FEF700FDFCF782FE8484010820010020C6
:10533000D8700108826882B00A4202AB03E9030018
:1053400014BF0120002002B0704700BF70B56A4C46
:105350000E461546002304F1C00C03E008346445F2
:1053600037D023799842F9D1206800F02FFB634BA6
:10537000B3FBF0F0012888BF4008C0EBC01040002C
:10538000B042B6FBF0F322D94FF6FF769E4228BF1B
:105390001E462079A179002200F02CFB2068FFF73F
:1053A000CFFE002800F0938023681A68D20718D532
:1053B0001A8DB6B292B2B24240F08D806279013A53
:1053C000032A00F29080DFE802F0674C31165E1E7F
:1053D000DFE74B4B4B4808221A60FEF7A3FCFCF7B3
:1053E00025FEFE22B6B21E859A859A8A92B242F0B6
:1053F00001029A82E2E71A6A22F480521A629A8BB8
:1054000022F4E6421204120C9A839A8B92B242F46E
:10541000D8429A831D641A6A42F480521A621A684A
:1054200042F0010203F140001A6070BD1A6A22F4D2
:1054300080721A629A8B22F073021204120C9A8301
:105440009A8B92B242F06C029A83DD631A6A42F43C
:1054500080721A621A6842F0010203F13C001A607D
:1054600070BD1A6A22F010021A621A8B22F4E64208
:105470001204120C1A831A8B92B242F4D8421A8385
:105480009D631A6A42F010021A621A6842F0010221
:1054900003F138001A6070BD1A6A22F001021A6224
:1054A0001A8B22F073021204120C1A831A8B92B216
:1054B00042F06C021A835D631A6A42F001021A62BA
:1054C0001A6842F0010203F134001A6070BD2068CE
:1054D000FFF71EFE68E70A4B0B4809221A60FEF729
:1054E00021FCFCF7A3FD064B08480A221A60FEF7D0
:1054F00019FCFCF79BFD00BFA0840108004495083F
:1055000020010020C0710108947101088071010818
:1055100001607047F8B505460C4617461E4605E083
:1055200000F03CFD314600F035FD50B1B5F814C037
:105530001FFA8CFC34EA0C03F2D11CEA070FEFD1FE
:10554000F8BD044B044806221A60FEF7EBFBFCF79B
:105550006DFD00BF2001002050710108F8B516460E
:1055600040F201120D4604460280012100221F462E
:10557000FFF7D0FFABB215F00102238219D02188CA
:1055800089B241F480613B460022218020460221FD
:10559000FFF7C0FF00F0BCFC258B012E08BF40F2D6
:1055A0000123ADB208BF238000F0B6FCEB070AD59B
:1055B000F8BD3B4602212046FFF7ACFF00F0A8FCF7
:1055C000258BADB2F0E7044B044807221A60FEF7C2
:1055D000A9FBFCF72BFD00BF20010020387101085A
:1055E00002292DE9F8430F4604461D4665D8DFF829
:1055F000EC9059F831603046FFF7A2FD804628B1A3
:105600006D00257126602046BDE8F88309EBC707C9
:105610003046FFF77DFD97F804907F7948460122D8
:1056200040F2011100F0E6F93846012240F2011182
:1056300000F0E0F938464FF0FF3240F2011100F07F
:10564000D9F948464FF0FF3240F2011100F0D2F98B
:105650004846012240F2011100F0CCF938460122FF
:1056600040F2011100F0C6F9484601224FF4A17141
:1056700000F0C0F9012238464FF4A17100F0BAF9E8
:105680004FF4004333803046A6F8008000F09EF9C6
:105690000E4B2660A3FB00230D4A80099B0CA2FB46
:1056A00000206D00B3808009013301222571B08391
:1056B000338420463280BDE8F883064B0648052235
:1056C0001A60FEF72FFBFCF7B1FC00BF83DE1B4323
:1056D000632D3E05200100205C71010860850108F2
:1056E000F0B583B002AC04E9030017461C4605463A
:1056F00000F054FC064641F2883000F047FC0644B6
:105700009DF8041033463A462846FFF727FF5FB15D
:10571000274414F8011B29823346002280212846A1
:10572000FFF7F8FEBC42F4D140F201232B80802227
:1057300033460021284603B0BDE8F040FFF7EABE3B
:105740002DE9F04B84B004AC04E903000D999DF8F9
:105750000C90019115461C469DF83070064600F0ED
:105760001DFC804641F2883000F010FC49F0010B2E
:105770008044A5BB594643463A4630467D1EFFF756
:10578000EDFEEDB217B3019B03F1010909E000F052
:10579000C3FB6A1E09F8014CD2B2BDB109F101097F
:1057A00015460022434640213046FFF7B3FE00F085
:1057B000AFFB328A012DD4B2E9D140F2012333800C
:1057C00000F0AAFB09F8014C0022E7E7434640221B
:1057D0000021304604B0BDE8F04BFFF79BBE2A46DF
:1057E0004946434630466519FFF7B8FE14F8013BB9
:1057F00033820022434680213046FFF78BFEAC42C5
:10580000F4D1B7E72DE9F04B042982B0884606466B
:1058100015461C463AD8DFF88CB05BF83170384634
:10582000FFF78EFC8146A8B1384600F0CFF8002182
:105830000B46013120FA01FCA44525D90829F7D1EE
:1058400038232B4343F451733046C6E9007302B04A
:10585000BDE8F08B0BEBC8083846FFF759FC98F809
:10586000071098F804000191012200F0C3F8019993
:1058700098F805004A4600F0BDF8019998F806002E
:105880004A4600F0B7F8CFE7DB00DAE7034B0448FD
:1058900004221A60FEF746FAFCF7C8FB200100203C
:1058A000707101087885010882B002AB03E903003A
:1058B00003889BB2994206D023F040039BB2038039
:1058C00089B20388018002B0704700BF10B483B072
:1058D00002AC04E90300581E049C00995FFA80FCA6
:1058E0006BB1601EA44410F8013F0B730B89DB07FA
:1058F000FCD50B7BDBB202B103706045F3D10B89A1
:1059000003F08203022BFAD103B05DF8044B704719
:10591000024B4AF6AA221A60704700BF00300040CE
:10592000074B10B4002045F2555440F6FF714CF679
:10593000CC421C6058605DF8044B99601A60704757
:10594000003000401A4B994210B420D2194B9942B2
:105950000DD801F14041184C184A890A012303FA75
:1059600001F1C0E9004281605DF8044B704701F12C
:105970003F4101F57F01124C124A890A012303FAC3
:1059800001F1C0E9004281605DF8044B704701F10C
:105990004041A1F5C0310C4A890A0123002403FAD1
:1059A00001F1C0E9002481605DF8044B704700BF3D
:1059B00000800140FFFF00401C1002401010024018
:1059C000181002400C1002401410024000487047AA
:1059D00000A24A04064A00F13F4000F57F009169A9
:1059E0000123800A03FA00F008439061936970472D
:1059F0000010024070B58E4B8E4D0409AE6953F80D
:105A0000244004F13F4303F57F034FEA932C012325
:105A100003FA0CF33343AB61AB6900F007039B005F
:105A20000F2500F00F0C05FA03FE002959D12AB307
:105A3000082505FA03F3050725D5656825EA0E054F
:105A40002B43002A636025DD012303FA0CF3236155
:105A5000A0F10D03012B29D9C1F3031101294ED067
:105A6000022900F08280042974D0052953D0072927
:105A700000F0A080092900F0B18070BD042505FA6E
:105A800003F30507D9D4256825EA0E052B43002A20
:105A90002360D9DCDCD00CF110034FF0010C0CFAC0
:105AA00003F32361A0F10D03012BD5D8624A634CA7
:105AB0001368C1F3031123F0E06343F0806301290D
:105AC00013606360D9D00229CDD1A0F12603032B46
:105AD00064D8594A5949136843F4406313604B60D2
