:020000040800F2
:1040000000400020F1850008D97A0008DD7A000818
:1040100000000000000000000000000000000000A0
:10402000000000000000000000000000E17A00082D
:10403000000000000000000041860008E184000844
:104040004186000841860008418600084186000834
:104050004186000841860008418600084186000824
:1040600041860008418600084186000899750008CD
:104070004186000841860008B9800008F9800008E0
:1040800041860008418600084186000841860008F4
:1040900041860008418600084186000841860008E4
:1040A00041860008418600084186000841860008D4
:1040B00041860008418600084186000841860008C4
:1040C00041860008418600084186000841860008B4
:1040D000618000084186000841860008418600088A
:1040E0004186000841860008418600084186000894
:1040F0004186000841860008418600084186000884
:104100004186000841860008418600084186000873
:0441100041860008DC
:1041200010B5054C237833B9044B13B10448AFF3F1
:1041300000800123237010BD40000020000000001B
:104140006C8E000808B5034B1BB103490348AFF35D
:10415000008008BD00000000440000206C8E0008B4
:1041600053B94AB9002908BF00281CBF4FF0FF31DE
:104170004FF0FF3000F074B9ADF1080C6DE904CEDA
:1041800000F006F8DDF804E0DDE9022304B0704732
:104190002DE9F047089D04468E46002B4DD18A42FA
:1041A000944669D9B2FA82F252B101FA02F3C2F12D
:1041B000200120FA01F10CFA02FC41EA030E9440BE
:1041C0004FEA1C48210CBEFBF8F61FFA8CF708FBDF
:1041D00016E341EA034306FB07F199420AD91CEBB7
:1041E000030306F1FF3080F01F81994240F21C81E9
:1041F000023E63445B1AA4B2B3FBF8F008FB103331
:1042000044EA034400FB07F7A7420AD91CEB040465
:1042100000F1FF3380F00A81A74240F20781644435
:10422000023840EA0640E41B00261DB1D4400023BA
:10423000C5E900433146BDE8F0878B4209D9002D1E
:1042400000F0EF800026C5E9000130463146BDE8A8
:10425000F087B3FA83F6002E4AD18B4202D3824212
:1042600000F2F980841A61EB030301209E46002DC1
:10427000E0D0C5E9004EDDE702B9FFDEB2FA82F216
:10428000002A40F09280A1EB0C014FEA1C471FFA74
:104290008CFE0126200CB1FBF7F307FB131140EA5B
:1042A00001410EFB03F0884208D91CEB010103F128
:1042B000FF3802D2884200F2CB804346091AA4B2EA
:1042C000B1FBF7F007FB101144EA01440EFB00FEBE
:1042D000A64508D91CEB040400F1FF3102D2A64523
:1042E00000F2BB800846A4EB0E0440EA03409CE7C2
:1042F000C6F12007B34022FA07FC4CEA030C20FA6F
:1043000007F401FA06F31C43F9404FEA1C4900FA8E
:1043100006F3B1FBF9F8200C1FFA8CFE09FB18110B
:1043200040EA014108FB0EF0884202FA06F20BD97E
:104330001CEB010108F1FF3A80F08880884240F2CE
:104340008580A8F102086144091AA4B2B1FBF9F012
:1043500009FB101144EA014100FB0EFE8E4508D90D
:104360001CEB010100F1FF346CD28E456AD9023892
:10437000614440EA0840A0FB0294A1EB0E01A14277
:10438000C846A64656D353D05DB1B3EB080261EBE5
:104390000E0101FA07F722FA06F3F1401F43C5E9BF
:1043A000007100263146BDE8F087C2F12003D840F5
:1043B0000CFA02FC21FA03F3914001434FEA1C4737
:1043C0001FFA8CFEB3FBF7F007FB10360B0C43EA29
:1043D000064300FB0EF69E4204FA02F408D91CEBD9
:1043E000030300F1FF382FD29E422DD902386344D7
:1043F0009B1B89B2B3FBF7F607FB163341EA034177
:1044000006FB0EF38B4208D91CEB010106F1FF38C5
:1044100016D28B4214D9023E6144C91A46EA0046BC
:1044200038E72E46284605E70646E3E61846F8E64E
:104430004B45A9D2B9EB020864EB0C0E0138A3E797
:104440004646EAE7204694E74046D1E7D0467BE778
:10445000023B614432E7304609E76444023842E7F0
:10446000704700BF000000000000000000000000D6
:1044700001F0FF01102A2BDB10F0070F08D010F815
:10448000013B013A8B422DD010F0070F42B3F6D119
:10449000F0B441EA012141EA014122F007047FF032
:1044A00000070023F0E80256083C85EA010586EA89
:1044B000010685FA47F5A3FA87F586FA47F6A5FAC5
:1044C00087F68EB9EED1F0BC01F0FF0102F00702D1
:1044D00032B110F8013B013A83EA010313B1F8D17C
:1044E0000020704701387047002D06BF354603385D
:1044F000073815F0010F07D1013015F4807F02BF96
:10450000013015F4C03F0130F0BC0138704700BFE6
:10451000EC46A0E8F05F4FF000007047B0E8F05FB5
:10452000E546080008BF0120704700BF10F8012BC6
:1045300011F8013B012A28BF9A42F7D0D01A7047E0
:1045400030B583B004466D464168284603F088FBC9
:1045500009492078094C2C2200F09AF9034695E885
:10456000030003F120025C6082E80300012283F86B
:104570002A2003B030BD00BF414500088145000836
:1045800038B500F12005044695E8030003F098FBD8
:1045900020B1A3681844A060012038BD95E803004D
:1045A00003F096FB94F82A3094F82B2093421CD207
:1045B000218B0133DBB2084480B29A42208384F815
:1045C0002A3018D8638B83421BD8A38B834218D31D
:1045D000002384F82830134801F0F0FC6369E26896
:1045E00013446361A360012038BD01239A422083F4
:1045F00084F82A30E6D9A36822691344A360012015
:1046000038BD94F8283094F829200133DBB29A425F
:1046100084F82830DFD8044802F0E4FB01F020FDE4
:10462000D6E700BF5C000020848E000838B514492E
:104630000546007800F00CF9044601F033FC04F163
:10464000200393E8030003F04BFB6B686361A360F6
:10465000AB6823612B7B84F82B305A1C84F82A200A
:104660002A69E260D5E90501EA6984F829206083B6
:10467000A18303B938BD2046BDE8384001F0FABC3B
:104680004145000830B583B0FF23114D8DF8073048
:1046900006E093E8030003F023FB94F82B305BB9AA
:1046A00029460DF1070000F01FF9044600F1200330
:1046B0000028EED103B030BD6269E16801330A44DD
:1046C00084F82A306261A260204601F0D3FCE7E75B
:1046D0004145000808B5044B04482B221A6002F03B
:1046E00081FB01F091FC00BF10010020988E0008B2
:1046F00008B503F03FFE034B033020F003001860C1
:1047000008BD00BF6000002070B50E4E336804463F
:104710001D1803F033FE85420CD83568E31C23F0E6
:1047200003032B44224600212846336004F096FB05
:10473000284670BD044B054828221A6002F052FB3F
:1047400001F062FC6000002010010020B48E00081F
:10475000024B1A6802601860704700BF70000020AA
:1047600010B503F013FE084B1C682CB122681A60C8
:1047700003F010FE204610BD044B05482A221A60A3
:1047800002F030FB01F040FC70000020100100201E
:10479000C88E00080068B0FA80F04009704700BF7A
:1047A0000068704703460A68002018601AB14A681A
:1047B00013604B607047C1E900330120704700BFB0
:1047C00003681A6802601846704700BF0023036040
:1047D000704700BF08B5FF294FF00003C0E9003360
:1047E00008DC054B1B882BB9044B1A788A42B8BFEA
:1047F000197008BDFFF76EFF6C00002074000020E8
:104800000F4B188810B4A0B1013815D00D4A0E4BCB
:10481000146893F800C0002223461946013263440D
:1048200082420B60F9D102FB0C42084B002111605F
:104830001C605DF8044B7047024B1C682246F4E78D
:104840006C00002078000020740000207000002020
:1048500008B50B4B1B78834209D90A4B1B6853F8E8
:1048600030208A4203EBC00001D1406808BD064BEE
:1048700006482D221A6002F0B5FA01F0C5FB00BF10
:104880007C0000208000002010010020DC8E000849
:1048900070B5104B1C7803469C42104611D90E4D42
:1048A0001AB2DC002B6853F8326056B90B4E3688CA
:1048B0003EB943F83210FFF727FF2B6823445860B6
:1048C00070BD074B07482E221A6002F08BFA01F0E8
:1048D0009BFB00BF7C000020800000206C000020BB
:1048E00010010020F08E000830B50E4A03780E4CFF
:1048F000126894F800E003F1010C5FFA8CF302EB0C
:10490000C30205E052F8084B8C4203F1010C06D0BB
:104910005FFA8CF39E451546F4D8002030BD037035
:10492000686830BD800000207C00002038B50A4C4B
:10493000236843B90568E8B2C000FFF7E5FE074BFE
:1049400020601D7038BD064B06482F221A6002F009
:1049500049FA01F059FB00BF800000207C000020D4
:1049600010010020048F000830B50D4D0D4885B0B2
:1049700002F012FC29880C4B003918BF01211A687B
:1049800003920446029101F029FB03462888009017
:10499000DDE90212204600F045FB05B030BD00BF46
:1049A0006C0000201C8F0008640000202DE9F041FD
:1049B0001E4F3B88064683BB1D4BDFF88C801D785D
:1049C000D8F80040032D9CBF04251D7003F0D6FCD1
:1049D000002322462C44A04213D30133B3F5806F49
:1049E000F7D11D46D8F80000201AFFF78DFE114BB5
:1049F0003D801860FFF704FF0F4B32681A60BDE876
:104A0000F08113B19DB21446ECE70C4B0C482922FF
:104A10001A6002F0E7F901F0F7FA084B09482C2276
:104A20001A6002F0DFF901F0EFFA00BF6C0000201D
:104A30007400002078000020640000201001002095
:104A40006C8F0008588F00086000002010B50648E1
:104A500002F0A2FB044603F0DDFC01462046BDE85F
:104A6000104000F0DFBA00BF808F000810B582B0A0
:104A700003F0D0FC094A0A4B11681B680446A342A4
:104A800088BF01310748019102F086FB0199224657
:104A900002B0BDE8104000F0C5BA00BF8800002099
:104AA00084000020908F00082DE9F041264D274E0C
:104AB0002B68274F01332B603368081A0344B0F585
:104AC000803F0C46336019D23B6800FB00F0FF309A
:104AD00003EB1020984238BF4FF0FF3038601D487C
:104AE000DFF87C8003F090FCD8F8003001461944D0
:104AF000204603F08BFC70B1BDE8F081B0F5801F5B
:104B000006D200F1FF023B68120A00FB0230E1E727
:104B10004FF0FF30E2E7104802F03EFB3B6832689E
:104B2000296800F07FFAD8F80030A34203D90B4A75
:104B30001368013313600023C8F800403B60336002
:104B40002B60BDE8F08100BF680000208C000020D1
:104B500090000020404B4C00A88F000888000020E7
:104B60008400002008B5044B044831221A6002F08A
:104B700039F901F049FA00BF10010020C88F000880
:104B800001F056BA10B50E4B04681B6842689C428F
:104B900082B012D2D2B21119994201D91A1BD2B2E3
:104BA0000848019202F0F8FA074B019A2344214683
:104BB00002B0BDE8104000F035BA0022F0E700BFB7
:104BC0002CA00008D88F000854970008704700BF39
:104BD000704700BF00B5064B0648196883B00191C5
:104BE00002F0DAFA019903B05DF804EB00F01ABAAA
:104BF000880100200090000810B5064802F0CCFAA9
:104C0000BDE8104040F2E93340F2451240F2EA714B
:104C100000F008BA1490000838B50B4A0B4B156821
:104C20001C68641B002CB8BF64420A2C08DC0848CE
:104C300002F0B2FA22462946BDE8384000F0F2B947
:104C400002F066FEF3E700BF2C0100203C010020CB
:104C50003C900008F8B5877F04469FB100252F4699
:104C600001262B46043304EBC30393E8030003F04F
:104C700031F901357100EBB200B13743A27F9A429E
:104C8000CEB2EFD8227CBA4207D0637C7B40DB43B4
:104C900082EA0701DBB20B4210D194F91C30257F68
:104CA0006774002B04DB013DEDB2FF2D1ED025778C
:104CB000D4E9023213440120A360F8BD22EA0302C2
:104CC0003B401343A27C2374072AE6D8511C22449C
:104CD000A1740848D37401F071F9FF232377D4E954
:104CE0000232677413440120A360F8BD014801F04B
:104CF00065F9DCE79400002010B50479082C09D888
:104D0000221D08490078D200FFF7C2FD064B8477C8
:104D1000436010BD054B064825221A6002F062F878
:104D200001F072F9F94C0008554C00081001002000
:104D30005C90000870B51149054682B00078FFF715
:104D400087FD2B79827F9A4204460ED96E46D5E9BB
:104D5000021230461D1D03F095F896E8030004EB9F
:104D6000C50484E8030002B070BD054B0548262247
:104D70001A6002F037F801F047F900BFF94C00085B
:104D8000100100207090000838B5134905460078DE
:104D9000FFF75EFD044601F085F86B68A360A96823
:104DA000E16000232A7CA374E376FE2362742274FC
:104DB0002377EB6863771B0606D401B938BD20461C
:104DC000BDE8384001F056B9044B054827221A6067
:104DD00002F008F801F018F9F94C00081001002061
:104DE0009890000838B5154904460078FFF730FD63
:104DF0002479C37E05462344C37603F0C3FAAB7C13
:104E0000A34207D8FE230022AA742B77BDE83840BE
:104E100003F0BABA1B1BD8B205F1130204F1120356
:104E20002B44141813F8011F02F8011BA242F9D1F8
:104E3000A874BDE8384003F0A7BA00BFF94C0008D9
:104E4000704700BF70B514799668651EA4B381429F
:104E500033D316F8012B042A20D810F8012B02F0C6
:104E6000600CBCF1600F03F1040E02F07F0408D166
:104E700064F01F0405E010F8012B02F07F0C4CEAEF
:104E8000C4141206F7D41C60B5B1814215D316F8CC
:104E9000012B042A05F1FF357346DED9072A0CD110
:104EA000024612F8014B1019884206D89E464EF869
:104EB000084B5A60002DEAD170BD024801F092FF04
:104EC00001F0A2F8BC9000082DE9F8438B78052B7F
:104ED000064694461C4666D9053B821CD4180B88AE
:104EE000CF784D687F2B00F28C80114603F07F0352
:104EF00001F8013B002F53D08C42C0F08A802F4430
:104F000030E05CF8043B03F120027F2A22D903F54C
:104F10008052B2F5804F18D303F50022B2F5001F7E
:104F20000ED303F18062B2F1805F04D31A0F62F0F6
:104F30007F0201F8012B5A0D62F07F0201F8012B6C
:104F40009A0B62F07F0201F8012BDA0962F07F020E
:104F500001F8012B03F07F0301F8013BBD421FD094
:104F60008C4256D315F8013B052B30D0C9D9063BEE
:104F7000012B4ED8E0460B4658F8082B611A914297
:104F800028BF114603F8011B89460A461846DCF87B
:104F9000041003F03BFFBD4200EB0901C446DFD122
:104FA000891BCC1CE3B21D4A337012787270E51E67
:104FB0002946304603F0FEFA030A735526447E2341
:104FC00006F8020C06F8013C2046BDE8F8835CF8C0
:104FD000040B03784A1C6BB1944202D817E0944248
:104FE0000BD002F8013B10F8013F002BF7D1531A08
:104FF000013BDBB20B701146B0E7631A013BDBB239
:10500000F8E7DA0962F07F028270C21C6DE70023C4
:10501000F0E7034801F0E6FE00F0F6FF0000002094
:10502000D49000080FB430B5084D2C7883B0E4B2AA
:105030003CB9012307A906982B70019103F04EF9A2
:105040002C7003B0BDE8304004B0704795000020DC
:10505000014B00221A707047950000202DE9F04B9B
:10506000804615460C4619B900202860BDE8F08B33
:105070002F4E3778FA0711D40429F5D907787B1F0A
:105080003B2B05D890F8019029F00F03102B1ED070
:105090007E2F36D0337843F00107377022467E21C9
:1050A0004046FFF7E5F950B3A0EB080007F0FE0714
:1050B000013037702860BB071DD447F002033370FE
:1050C0001C48FFF7AFFF4FF0FF30BDE8F08BB9424F
:1050D000CAD3C31913F8012C7E2AD9D1F91E13F8AB
:1050E00002BC435C4BEA032B03F064FA83450DD00A
:1050F00098F80070CCE74FF0FF30BDE8F08B2C60E3
:10510000D9E701232B604FF0FF30AFE70A4932782F
:105110000B782F6022F002024B453270D0D1013360
:1051200003F00F0343F010030B7001209EE700BF54
:1051300096000020FC900008000000202DE9F04BB4
:10514000033900F10209451882B0A94500AF30D2F9
:10515000DFF8948099F9002099F80040002A6E4603
:105160002BDB09F10100ACB31D4B1B889C4231D2F3
:1051700008EB0412294693787A609B00073303F406
:10518000FF63ADEB030DEB465B46FFF75BFE2401CF
:10519000814600F023FF18B17A68D278D30715D57D
:1051A000444403F0FFF8E26858469047B546A945E5
:1051B000D0D30837BD46BDE8F08B99F80120E40153
:1051C00004F47E5409F102001443CCE700F00EFF12
:1051D000B546ECE7034801F005FE00F015FF00BFFF
:1051E00090A30008EC90000830A000080148FFF7E9
:1051F00019BF00BFFC90000830B5D0E9004083B073
:10520000FFF71EFE054603F0C1F8E3B2012B0FD0F5
:10521000022B10D02978C9B2019103F0BBF80748DE
:1052200001F0BAFF019903B0BDE83040FFF7FABEC4
:10523000298889B2F0E72968EEE700BF04910008E9
:1052400070B50446D0E90050FFF7FAFDA6680446A1
:1052500003F09CF8EBB2012B07D0022B0BD0F6B277
:105260002670BDE8704003F095B8B6B22680BDE860
:10527000704003F08FB82660BDE8704003F08AB834
:1052800010B5D0E9004082B0FFF7DAFD0190054883
:1052900001F082FF019AE1B202B0BDE81040FFF7D1
:1052A000C1BE00BF18910008704700BF30B50B4960
:1052B00083B0044628220078FFF7EAFA6D460346D9
:1052C0006168A26828461C4602F0DCFD95E80300F0
:1052D00004F10C0383E8030003B030BDAD520008B5
:1052E00038B500F10C03044693E8030002F0F2FD28
:1052F00094F8245088B1ED4305F001058DB994F878
:105300002630013B13F0FF0315D0A268A16984F891
:1053100026300A44A260012038BD05F00105002DA9
:10532000EDD00849E26994F8253084F82630C4E9C4
:105330000112012038BD206A94F8271001F0D0FB3B
:10534000284638BD4953000800F10C0310B5044647
:1053500093E8030002F0BEFDA36862691A4494F862
:10536000243030B1DB4303F0010333B1A2600120EC
:1053700010BD03F00103002BF8D1044BE261636020
:105380002046BDE81040FFF7ABBF00BFE152000868
:1053900038B51C4905460078FFF75AFA044600F074
:1053A00081FD6B68A360AB68A3612B7B84F825301B
:1053B00043B91548154A84F824300121037023624B
:1053C000117038BD02F03EF82A6994F8253084F84F
:1053D000263062616A690C4B002A14BF0322022244
:1053E00084F8242001221A70094B287E636001F0A2
:1053F000A3FBEB6984F8273020622046BDE83840E3
:1054000000F038BEAD5200089700002038000020A0
:10541000495300082DE9F041134E1449012333701C
:10542000077884B03846FFF713FA044602F0AAFF63
:10543000E36994F82480039302F0A6FF0C4801F07E
:10544000ABFE0C34054694E8030002F043FD039BD9
:105450000090C8F3400239462846FFF7E3FD0023D9
:10546000337004B0BDE8F08197000020AD52000811
:105470002891000838B505780D492846FFF7E8F966
:10548000044600F00FFD002394F82510094A84F823
:105490002610236284F82430137001F0D3FF0648ED
:1054A00001F07AFE29460122BDE83840FFF7BABD77
:1054B000AD520008970000206491000830B5D0E993
:1054C000011283B0003A04466D4618BF01222846F7
:1054D00002F056FC0F4920783422FFF7D9F9034631
:1054E00095E8030003F1180282E80300D4E90221E1
:1054F000003A18BF012209B142F0100283F83020AF
:1055000022691A620C2103F1280003B0BDE8304083
:10551000FFF760B9BD5400082DE9F84300F12808F1
:1055200004464046FFF736F9002840F0A080404688
:10553000FFF746F985682E1E18BF012604F11803EF
:105540000746324693E8030002F054FC3846FFF762
:10555000FFF8C5B1636AAB4215D9276A002F68D13D
:10556000404646F00206FFF715F9002800F0878054
:1055700094F83030676103F010033343A66884F871
:1055800030302E4426E094F83030B5FA85F283F0BE
:105590001003C3F3001352099A4225D0276A1FB3A0
:1055A000A168404646F004060F44FFF7F3F80028D0
:1055B00048D094F83030676103F01003334384F827
:1055C0003030B30726D5A6682E443946304602F05F
:1055D0001DFFF8B1636A2B4A5B1BC4E90126C4E9CD
:1055E00003530120BDE8F8834046FFF7D3F8A8B97C
:1055F00081464046FFF7D4F8476894F83020676149
:1056000046F0040602F01002164384F83060B9F147
:10561000000FD8D1A7600120BDE8F88394F830309E
:1056200003F010033343002084F830306061BDE89C
:10563000F883A168404646F006060F44FFF7AAF833
:105640000028B6D14046FFF7ABF8034638465F68FE
:10565000394602F0DBFE06F002090028CDD00A4BE5
:105660000A481E221A6001F0BDFB00F0CDFC064B7B
:1056700007481D221A6001F0B5FB00F0C5FC4FF091
:105680000209B6E79556000810010020B491000801
:105690008891000838B5044600F1180393E8030028
:1056A00002F09EFB94F83030A56883F00103DA071E
:1056B0004CBFE268226984F830305B07154402D49D
:1056C000A560012038BD6169284602F09FFE0028D0
:1056D000F6D1034B65696360A560012038BD00BF4A
:1056E0001955000838B50D4905460078FFF7B0F8A0
:1056F000044602F047FE04F12800FFF74BF828B1FA
:105700006B686362BDE8384002F03EBE044B05485A
:105710001F221A6001F066FB00F076FCBD54000801
:1057200010010020EC910008F8B5224906460078E7
:10573000FFF78EF80446FFF713F877684760B36801
:105740008360054602F01EFE04F128012846FFF79B
:1057500029F898B194F830506A071DD445F0040335
:1057600084F83030AB0767610CD4204600F09AFB18
:10577000114B2046C4E9013700F07CFCBDE8F8403D
:1057800002F002BEA068394602F040FE0028ECD0CC
:10579000BDE8F84002F0F8BD6069394602F036FE17
:1057A0000028DBD0054B064820221A6001F01AFBC6
:1057B00000F02AFCBD540008195500081001002013
:1057C000B4910008F0B585B0D0E90075866802F0A4
:1057D00021FE044641F2883002F016FE04442146C0
:1057E000284602F013FE002818BF254601A8CDE97F
:1057F00001750396FFF798FF05B0F0BDF8B5234992
:1058000005460078FFF724F8044600F04BFB04F14E
:105810002800FEF7BFFF88B32E7994F83050371E6A
:1058200018BF012704F1180393E803003A4602F079
:10583000E1FA85F01001B6FA86F35B09C1F30011B5
:105840008B4201D0236A2BB905F010053D4384F843
:105850003050F8BD02F0DEFD05F01005236A3D432F
:10586000184445F004050A4B84F83050C4E901306F
:1058700060612046BDE8F84000F0FCBB054B0648DF
:1058800021221A6001F0AEFA00F0BEFBBD54000800
:1058900019550008100100202492000830B583B08B
:1058A000FF23124D8DF8073013E094F8302093E871
:1058B000030002F0100202F09DFA94F8303013F069
:1058C000100318BF112304F1280084F83030FEF7CC
:1058D0007DFF29460DF10700FFF706F8044600F1A9
:1058E00018030028E1D103B030BD00BFBD5400084B
:1058F00000B5034683B0D3E90012684602F040FACF
:1059000003B05DF804FB00BF70B50A4B1E68002EA3
:1059100082B00CDD084D00242A7955F8081B684632
:1059200002F00102013402F02BFAB442F4D102B0C9
:1059300070BD00BF44A4000844A4000870B582B044
:1059400004466D4641680022284602F019FAA36811
:105950009EB21B0412D406F118020C49207892B2B0
:10596000FEF796FF034695E8030083E80300D4E9B9
:1059700003129E8299601A6102B070BD044B054803
:105980001A221A6001F02EFA00F03EFB3D59000881
:10599000100100205492000870B5114904460078A7
:1059A000FEF756FF0346D4E9026065681C46FFF720
:1059B00047FA2B0401460AD4A28AAB19934206D8AF
:1059C000163532466019BDE8704003F01FBA054B2A
:1059D00005481B221A6001F005FA00F015FB00BF14
:1059E0003D59000810010020709200082DE9F04B8D
:1059F0002DED028B0378624988B0184608EE103A04
:105A0000FEF726FFD0E90354059002F003FD401B8A
:105A1000844206D902F0C6FC02F0FCFC401B844222
:105A2000F8D8059D95E8030005F11602AF8A0397A3
:105A300006AE86E803000492029202F0EBFCAB682B
:105A400001930446002F50D0DFF84891029B13F8D1
:105A5000017B02934FF008083B064A484BD502F001
:105A6000D3FCA9FB0035AD0C02F0D4FC001B854231
:105A7000FAD802F087FC02F0CDFC054696E8030058
:105A800002F0AEF902F080FC019B2C1BA3425FD90F
:105A90003D4802F0B9FCA9FB00347F00A40C02F0E1
:105AA000B9FC401B8442FAD802F06CFC96E8030073
:105AB00002F096F902F068FC02F0ACFC8346334831
:105AC00002F0A2FCA9FB0034A40C02F0A3FCA0EBA2
:105AD0000B008442F9D82C46B8F10108BCD1DDE9AD
:105AE00003231344029A9A42B0D102F093FC059B1F
:105AF0000122D86036E002F087FCA9FB0035AD0C2E
:105B000002F088FC001B8542FAD802F03BFC02F050
:105B100081FC834696E8030002F062F91B4802F01C
:105B200073FCA9FB0035AD0C02F074FCA0EB0B007C
:105B30008542F9D896E8030002F052F902F024FCFD
:105B4000019BABEB0404A34202D97F005C46C3E790
:105B5000002296E8030002F04DF902F05BFC059B81
:105B60000022D8600A48019201F016FB019A18EE53
:105B7000101A08B0BDEC028BBDE8F04BFFF752BA2B
:105B80003D590008D012130010EB0900400D03002E
:105B90009092000883DE1B4330B50C4983B0044665
:105BA0002C220078FEF774FE6D4603466168A268F9
:105BB00028461C4602F066F995E80300044A04F101
:105BC000240383E80300626003B030BD995B0008E2
:105BD000D55B000870B58369044600F1240292E8A1
:105BE000030003F00105A66802F074F9854203D0B2
:105BF000A369E6610133A3616069314602F006FCE6
:105C000028B9D4E9023213440120A36070BD94F88E
:105C1000202023690748334442F0010284F8202001
:105C2000636100F0CBF9D4E9023213440120A36090
:105C300070BD00BF9800002038B50A4905460078BD
:105C4000FEF706FE044600F02DF96B68A360AA6813
:105C5000E260EA682046C4E90423BDE8384000F069
:105C600009BA00BF995B000838B5027B8168044619
:105C7000007902F04BF90949054620222078FEF709
:105C800007FED4E90412064BC560818243600261BD
:105C9000BDE838400C211830FEF79CBD695C000857
:105CA000A55C0008F8B500F1180604463046FEF77A
:105CB00087FD078905463946E06802F029F928463C
:105CC000FEF746FD3046FEF765FD60B1A38ABB4294
:105CD00024D0206900B9F8BDA368114A1844C4E96A
:105CE00001200120F8BD3046FEF75AFDA38A456821
:105CF000BB4201D0236913B9A5600120F8BDA0689B
:105D00002946184402F082FB0028F5D0054B0648CE
:105D100018221A6001F066F800F076F90020F8BD4C
:105D20002D5D000810010020B492000808B5044B56
:105D3000044817221A6001F055F800F065F900BF19
:105D400010010020E492000870B51B490546007858
:105D5000FEF77EFD0646FEF703FD6B684360AB6809
:105D60000381044602F00EFB06F118012046FEF7FF
:105D700019FD054602F008FB05B970BD304600F07C
:105D800091F80E4B72689A4208D063680C4A30460C
:105D9000C6E90123BDE8704000F06CB96168B068E5
:105DA00002F034FB0028F0D0064B074819221A6095
:105DB00001F018F800F028F9695C00082D5D000872
:105DC000A55C000810010020B492000870B582B0F4
:105DD000FF230C4D0C4E8DF8073008E0E068A18AD7
:105DE00002F096F8666004F11800FEF7EFFC294611
:105DF0000DF10700FEF778FD04460028EED102B051
:105E000070BD00BF695C0008A55C0008027A4168AB
:105E1000007802F07BB800BF00207047084B0948AB
:105E200010B500221A7202F0EFFA074A0749946887
:105E30000346234403F10044012093608C6010BDAD
:105E400004000020A08601001C0000202800002083
:105E50000F4B10B500221A72044601F0C5FB0D4B22
:105E60001B78012B09D04FF47A7002F0CDFAA368A9
:105E7000024613440120A36010BD074A117800298F
:105E8000F1D106480649006813700860EBE700BFCF
:105E900004000020440100209D0000202C0100206F
:105EA0003801002010B5044602F070FA0E490B6864
:105EB000A34202D111E0A3420CD01A461B68002B6A
:105EC000F9D14B68A34204BF084B4B60BDE81040BA
:105ED00002F060BA23681360F3E7054BA2689A608A
:105EE00022681A600B60ECE7040000201C00002010
:105EF000100000202DE9F8431C4F3E6873683046BF
:105F00003BBB00F0C5FAB568336838B399682846DA
:105F100002F07CFA10B12846BDE8F8837C6833684B
:105F2000A168D3F808903B60284602F06FFA00B1F0
:105F30003C68A04624682846A16802F067FA002859
:105F4000F7D04D4634607E60C8F800602846BDE852
:105F5000F8839847B56833680028D7D17A689D6878
:105F60003B60B242D7D17B60D5E700BF0400002080
:105F7000074B084A0849094810B49C6894605DF8CA
:105F8000044B0A604B601360186002F049BA00BF0E
:105F90001C00002010000020040000202800002029
:105FA000014B00221A72704704000020024B187A3D
:105FB000C043C0F3C010704704000020024B002211
:105FC0001A72012303707047040000200378024610
:105FD000D8B210B10023137001207047024B587AD9
:105FE000003818BF012070470400002008B504489D
:105FF00001F0D2F8034B997ABDE80840FFF712B8D8
:10600000109300080400002000B583B0019002F056
:10601000B9F901990148FEF781FA00BFA0000020FC
:1060200008B5024800F0DEFEFFF7EEFF34930008EB
:1060300008B5084A537A23B1022B1CBF00235372C0
:1060400008BD054B054816221A6000F0CBFEFFF78D
:10605000DBFF00BF04000020100100204C9300086B
:1060600008B5034B5B7A03B108BDFFF7CDFF00BF56
:10607000040000202DE9F0411A4E8568074602F021
:1060800085F934688046A168284602F0BFF970B9E6
:10609000264624682846A16802F0B8F90028F7D0FF
:1060A0003C6037604046BDE8F04102F073B902F051
:1060B000B1F90146284602F0A9F950B90A4B3360FC
:1060C0009C4208BF24683C609D601F6002F0A8F9F4
:1060D000E8E7064800F086FE737A002BEED1FFF762
:1060E00093FF00BF04000020100000207093000800
:1060F00038B5094D094B6B6002F08CF904464FF43A
:106100007A7002F081F900230444AC6028462B60C9
:10611000BDE83840FFF7AEBFFC000020515E00082C
:106120002DE9F04383B000F027FE01F041F9FFF7BD
:10613000DFFF01F0EBF9354801F02EF8FEF772FFB2
:1061400002F020F93248FEF7E3F90446002840D176
:1061500002F01AF902F05EF92E4D2F4F2F4E2860F3
:106160004FF000084FF0FF091AE086F8089002F09F
:1061700015F996F90830002BF9D102F005F902F073
:1061800049F92B68184428600123337200F018FE87
:1061900002F040F9044621462868FEF785FC2C6091
:1061A00002F000F93B78DBB21BB187F8008001F008
:1061B00001FC96F90830002BE6D002F02BF92B6891
:1061C000181A286002F0DEF896F90830002BD4D0B7
:1061D000CBE702F0D7F802F01DF9104B5A7A0146CE
:1061E00002B99C720D4C019102236372FFF7C0FE4D
:1061F00000F0CEFD0123637202F0C6F8084800F0FB
:10620000CBFFA27A0199FEF70DFFA1E7809300086A
:10621000A0000020080100209C00002004000020B5
:106220008C93000838B500F1340504462846FEF783
:10623000B1FA10B10020606138BD2846FEF7C0FAFF
:10624000B0F90830426823821344E36094F8443084
:10625000D90605460FD5A168438963610A44A26047
:106260002A7BD20711D4226B134423632846FEF7FE
:106270006FFA012038BDA16943890A44A261A26076
:106280005A0062612A7BD207EDD5216B04F1280206
:106290005B1A236392E8030001F0A2FDE6E700BF6A
:1062A00070B500F12003044693E8030001F098FD67
:1062B00002F0B0F86369E169013BDA07636100EB62
:1062C000010503D5A5600126304670BD83B1E268A3
:1062D000A069B4F9103010441344A061E36029466A
:1062E00002F094F80028EDD1A369A3600126EBE742
:1062F0002046FFF797FF06460028E5D0A06829460C
:1063000002F084F80028DFD0A3684FF47A705E1B97
:1063100002F07AF84042B042D4DD044B04480E2229
:106320001A6000F05FFDFFF76FFE00BF1001002054
:10633000B49300082DE9F04105463249007882B057
:106340004822FEF7A5FAEF68002F044627DD042255
:106350006E4680F844206968304601F011FD96E8E9
:10636000030004F1200383E803000022A9683046FB
:1063700001F006FD96E8030004F1280383E803001A
:106380004FF0404323632B69E361102104F1340093
:10639000FEF720FA1C4B636002B0BDE8F0814FF0BD
:1063A00000086E4680F8448069684246304601F035
:1063B000E7FC96E8030004F1200383E8030042466B
:1063C000A968304601F0DCFC96E8030004F12803DC
:1063D00083E803004FF0404323632B69E3611021FE
:1063E00004F13400FEF7F6F9E369002BD2D1002F57
:1063F000D0D094F8443043F0100384F8443002B015
:10640000BDE8F08135630008A162000838B5044694
:10641000A0F13C052846FFF745FD237A54F80C1CF3
:10642000002244F8342C44F8242C54F8282CD806A4
:106430004CBF891AA1EB520103F01403002943F069
:106440000803C8BF49420022237205F1280344F81B
:106450000C1C44F8282C93E8030001F0CBFC227AB2
:10646000D3060DD5083C03E0FEF7AAF9FEF770F954
:106470002046FEF78FF903462046002BF4D038BDA6
:10648000203595E8030002F0040201F0B3FCE9E7CF
:1064900000F1200310B5044693E8030001F0A0FCCE
:1064A0006369013B0AD0D4E90210B4F9102063619A
:1064B00001440244C4E90212012010BD2046BDE897
:1064C0001040FFF7AFBE00BF70B528490546007801
:1064D000FEF7BEF90646FEF743F96B6843602B8969
:1064E00043810446D3B3EA6802810023037301F0B9
:1064F00049FF96F8443003F00101C3F34002914292
:1065000005D0227B42F0010283F0010322737269FD
:10651000CAB91A0710D406F1340186F8443020466F
:10652000FEF740F93046FFF77DFE3046FFF7A2FD4B
:10653000BDE8704001F028BF2046FEF709F9BDE82C
:10654000704001F021BF86F8443006F13401204646
:10655000FEF728F9BDE8704001F016BF044B05486E
:106560000F221A6000F03EFCFFF74EFD3563000875
:1065700010010020CC93000838B50C49044600787F
:10658000FEF766F963680446002B14BF0225002558
:1065900001F0F8FE94F8443023F002031D4384F820
:1065A0004450BDE8384001F0EFBE00BF356300083D
:1065B00038B50F4905460078FEF74AF904466D687C
:1065C00001F0E0FE63695BB994F84430A56023F004
:1065D0000803A56184F84430BDE8384001F0D4BE1A
:1065E000044B054810221A6000F0FCFBFFF70CFD7D
:1065F0003563000810010020E493000870B50678A8
:106600000F493046FEF724F9054601F0BBFE95F828
:1066100044302C6B6A69DB064CBFA41AA4EB52040D
:1066200001F0B2FE002CB8BF6442064800F0B4FD91
:1066300004F140423146BDE87040FEF7F3BC00BFB4
:10664000356300080C94000838B508490446007802
:10665000FEF7FEF80546207900F06EFA05F13C01E0
:10666000034ABDE8384000F06DBA00BF356300084A
:106670000D64000830B583B0FF230B4D8DF8073053
:1066800006E0FEF7A3F8002104F13C00FFF7BEFE90
:1066900029460DF10700FEF727F904463430002C97
:1066A000EFD103B030BD00BF356300082DE9F043E2
:1066B000044685B01A4900783422FEF7E9F894F8C8
:1066C0000890D4F80480E768B9F1000202AE0546EC
:1066D00018BF01224146304601F0D4FB96E8030082
:1066E00005F114036E4683E8030001223946304663
:1066F00001F046FB96E8030005F10C0383E8030074
:10670000B9F1000F08BF012322692A6218BF1123C3
:10671000B84508BF43F020032B7705B0BDE8F083F0
:10672000AD66000838B5044600F10C0393E8030099
:1067300001F056FB637F94F81CC094F81FE0656A73
:106740000133DBB28CF0010C734584F81CC00CF0F3
:10675000010C29D204EBD30203F0070192F82820A0
:106760000A4102F001029445294607D016E092F84A
:106770002820024102F0010294450FD10133DBB21F
:10678000734504EBD30203F007002944EFD3A36859
:10679000064A0B44C4E90123012038BDA26863778F
:1067A0000A44A260012038BD2946F0E719680008B4
:1067B00000F10C0310B5044693E8030001F010FB50
:1067C00001F028FE637F227F0133DBB282F00102F9
:1067D000012B2277637719D0042B05D8A268236A8E
:1067E0001344A360012010BDA368626A1A44801A92
:1067F000811C226A48BF411D02EBA1011844054AD1
:1068000061620844C4E90120012010BDA268801A19
:106810006062E4E72567000810B5837F0446B3B1E2
:10682000027F93060AD4A368606A164A002103EB2C
:1068300080036177C4E90123012010BD00F1140336
:1068400093E8030002F0100201F0E0FAEBE7037FA7
:1068500013F0200F00F10C0393E803004FF0010246
:106860000CD101F0C7FA237F074803F0300343F04F
:1068700009032377FFF7A2FB002010BD01F03CFACB
:10688000F1E700BF116900080C01002000F11403BA
:1068900010B5044693E8030001F01CFB637F04EB92
:1068A000D30C012203F0070102FA01F19CF8282021
:1068B00078B10A43D2B28CF82820A27F0133DBB230
:1068C0009A4209D9A268616A63770A44A2600120EA
:1068D00010BD22EA0102EEE7237F13F0200F04F13E
:1068E0000C0393E803004FF001020CD101F082FA8F
:1068F000237F064803F0300343F009032377FFF7B3
:106900005DFB002010BD01F0F7F9F1E70C0100205C
:1069100000F1140310B5044693E8030001F0DAFA1D
:10692000237F68B143F004032377637F5A1C3F2B16
:1069300062770FD8A368626A13440120A36010BD78
:106940005B07F2D56077114B63602046BDE81040CD
:10695000FFF79CBF237F0022A27713F0200F04F1E2
:106960000C0393E803004FF001020CD001F0C4F9CE
:10697000237F074803F0300343F009032377FFF731
:106980001DFB002010BD01F035FAF1E78D6800080D
:106990000C010020F8B5264905460078FDF758FFA0
:1069A000037F13F00206044600D0F8BDA8682F79D3
:1069B000FEF746FA0A2F2D7B014630D80A2D2ED835
:1069C0003A4604F1280002F021FA237F667703F0AB
:1069D000310343F00203ED002377FB00E377A57753
:1069E0002FB194F8283003F03F032A2B14D0226AE9
:1069F000104B6262636001F0C5FC01F00BFD0546BF
:106A0000C82001F001FD2844A0602046FFF732FBBA
:106A1000BDE8F84001F0B8BC074B6360EBE7074BFB
:106A2000074802221A6000F0DDF9FFF7EDFA00BF17
:106A3000AD66000825670008B16700081001002056
:106A40002C94000830B583B0FF23114D8DF807302A
:106A500008E003C901F050F9237F03F0300343F04D
:106A60000103237729460DF10700FDF73DFF00F1F3
:106A70000C01012204460B4640B1207F8006E8D479
:106A800093E80300012201F0B5F9E5E703B030BD5A
:106A9000AD66000810B50446074894F8203043F06E
:106AA000040384F82030FFF789FAA368A26913442D
:106AB0000120A36010BD00BF1401002008B52422EE
:106AC00004490078FDF7E4FE034A044B4260036189
:106AD00008BD00BFBD6A0008956A0008296B000860
:106AE00070B590F82030DA0704460E4619D5C06913
:106AF00084F8211023F0050343F0040384F82030C8
:106B000050B10025D0E900233146E261C0E90055CB
:106B10009847E0690028F5D1BDE870400148FFF7CB
:106B20004DBA70BD1401002008B503460C38997D9C
:106B3000FFF7D6FF002008BD0149FDF789BE00BF61
:106B4000BD6A000870B50C460546164601F01EFCED
:106B5000636843B93EB1EB69C4E90036EC61BDE856
:106B6000704001F017BC044B044801221A6000F089
:106B700039F9FFF749FA00BF1001002044940008DA
:106B800038B51A4905460078FDF762FE044601F063
:106B9000F9FB2046FFF786F904F10C00FFF782F9B4
:106BA000E36933B100211A461B68C2E90011002BCA
:106BB000F9D100220123238484F822206B68A3608A
:106BC000AB68C4E9063233B9EB6884F82230BDE81B
:106BD000384001F0D9BB2046FFF74CFAEB6884F847
:106BE0002230BDE8384001F0CFBB00BFBD6A0008CD
:106BF00030B5104983B005460078FDF729FE0446FC
:106C000001F0C0FB94F82030DB0704D403B0BDE8EA
:106C1000304001F0B9BB04F10C000190FFF742F9DC
:106C20006B6801986361FFF725FA03B0BDE8304057
:106C300001F0AABBBD6A000870B50678134984B09C
:106C400005463046FDF704FE044601F09BFB29791A
:106C50002046FFF745FF2046FFF724F9002504F101
:106C60000C00FFF71FF994F8213084F820500393AB
:106C700001F08AFB064800F08FFA039B00952A4634
:106C80003146FEF7CFF904B070BD00BFBD6A000801
:106C90006C9400082DE9F0411E4886B0FFF796F984
:106CA000A0B3FF231C4E1D4F8DF8173031460DF158
:106CB0001700FDF719FE044640B394F820305B0737
:106CC000F4D501F0A7FB054601F05CFB94F82080A9
:106CD00094F82130039328F0040284F8202001F076
:106CE00053FB9DF817100291384600F055FA039BAC
:106CF0000299009508F00102FEF794F931460DF172
:106D00001700FDF7F1FD04460028D6D106B0BDE816
:106D1000F08100BF14010020BD6A00086C940008D7
:106D200070B5144E82B0FF2331460DF107008DF887
:106D30000730FDF7D9FD00240546C8B1FFF7B2F8CA
:106D400005F10C00FFF7AEF8EB692BB11A461B6892
:106D5000C2E90044002BF9D1EC612C8485F8224073
:106D600031460DF10700FDF7BFFD05460028E5D1CE
:106D700002B070BDBD6A000808B5FDF7B9FCFEF7AA
:106D8000C3FD01F079FBBDE8084001F0C7B900BFC1
:106D900008B5FEF75DF9FDF733FDFEF77FFDFFF760
:106DA00069FCFFF7BDFFFDF76DFCFFF70FF8FFF77C
:106DB00049FE01F0F9FABDE8084001F05BBB00BFF5
:106DC00008B501F0EFFAFFF765FF01F0EBFA01F00B
:106DD000DDFB01F0E7FA01F025FABDE8084001F01B
:106DE000E1BA00BF10B5C0490446FDF79FFB00287B
:106DF00000F02681BD492046FDF798FB002800F0F1
:106E00001D81BB492046FDF791FB002800F01C8145
:106E1000B8492046FDF78AFB002800F01381B649E7
:106E20002046FDF783FB002800F01081B34920467F
:106E3000FDF77CFB002800F00D81B1492046FDF7ED
:106E400075FB002800F00881AE492046FDF76EFB77
:106E5000002800F0FD80AC492046FDF767FB0028C4
:106E600000F0FC80A9492046FDF760FB002800F0F7
:106E7000F780A7492046FDF759FB002800F0F28073
:106E8000A4492046FDF752FB002800F0ED80A249FE
:106E90002046FDF74BFB002800F0E8809F49204684
:106EA000FDF744FB002800F0E3809D492046FDF7F4
:106EB0003DFB002800F0DE809A492046FDF736FBB6
:106EC000002800F0D98098492046FDF72FFB0028C4
:106ED00000F0D48095492046FDF728FB002800F0FB
:106EE000CF8093492046FDF721FB002800F0CA809F
:106EF00090492046FDF71AFB002800F0C5808E4916
:106F00002046FDF713FB002800F0C2808B49204685
:106F1000FDF70CFB002800F0B98089492046FDF7F9
:106F200005FB002800F0DE8086492046FDF7FEFACA
:106F3000002800F0D58084492046FDF7F7FA0028A4
:106F400000F0CC8081492046FDF7F0FA002800F0DF
:106F5000C3807F492046FDF7E9FA002800F0BA8097
:106F60007C492046FDF7E2FA002800F0B1807A491A
:106F70002046FDF7DBFA002800F0A880774920467C
:106F8000FDF7D4FA002800F09F8075492046FDF7F0
:106F9000CDFA002800F0968072492046FDF7C6FA27
:106FA000002800F08D8070492046FDF7BFFA0028C8
:106FB00000F084806D492046FDF7B8FA00287BD0A8
:106FC0006B492046FDF7B2FA002873D06949204684
:106FD000FDF7ACFA00286BD067492046FDF7A6FA0A
:106FE000002863D065492046FDF7A0FA00285BD051
:106FF00063492046FDF79AFA002853D0614920469C
:10700000FDF794FA00284BD05F492046FDF78EFA31
:10701000002843D05D492046FDF788FA00283BD080
:107020005B492046FDF782FAA0B35A492046FDF796
:107030007DFA002814BFFF202D2010BD032010BDB5
:10704000022010BD052010BD042010BD062010BD7B
:10705000092010BD072010BD082010BD0A2010BD5A
:107060000B2010BD0C2010BD0D2010BD0E2010BD3A
:107070000F2010BD102010BD112010BD122010BD1A
:10708000132010BD142010BD152010BD172010BDF9
:10709000162010BD2C2010BD2B2010BD2A2010BDA5
:1070A000292010BD282010BD272010BD262010BD8E
:1070B000252010BD242010BD232010BD222010BD8E
:1070C000212010BD202010BD1F2010BD1E2010BD8E
:1070D0001D2010BD1C2010BD1B2010BD1A2010BD8E
:1070E000192010BD182010BD4C93000870930008A3
:1070F00034930008EC900008D4900008BC9000087D
:10710000C88F0008AC940008048F0008F08E0008B7
:10711000DC8E0008588F0008988E0008C88E000882
:107120006C8F0008B48E000824920008B491000807
:10713000EC91000888910008E4930008CC930008C3
:10714000B493000844940008848E0008B4920008A8
:10715000E492000898900008709000085C90000885
:107160002C9400087092000854920008D8940008EB
:10717000F094000804950008189500083895000858
:10718000509500085C9500087095000880950008EF
:1071900094950008C095000810B559490446FDF7BC
:1071A000C5F9002800F0848056492046FDF7BEF955
:1071B00000287BD054492046FDF7B8F900287BD041
:1071C00052492046FDF7B2F9002873D050492046B5
:1071D000FDF7ACF9002871D04E492046FDF7A6F91D
:1071E00000286FD04C492046FDF7A0F900286BD04D
:1071F0004A492046FDF79AF9002861D048492046BF
:10720000FDF794F9002861D046492046FDF78EF934
:1072100000285DD044492046FDF788F9002859D060
:1072200042492046FDF782F9002855D040492046C2
:10723000FDF77CF9002851D03E492046FDF776F94C
:1072400000284DD03C492046FDF770F9002849D070
:107250003A492046FDF76AF9002845D038492046CA
:10726000FDF764F9002841D036492046FDF75EF964
:1072700000283DD034492046FDF758F9002839D080
:1072800032492046FDF752F9002837D030492046D0
:10729000FDF74CF900282FD02E492046FDF746F97E
:1072A0002D4B00280CBF1846002010BD2B4810BDE8
:1072B0002B4810BD2B4810BD2B4810BD2B4810BDCE
:1072C0002B4810BD2B4810BD2B4810BD2B4810BDBE
:1072D0002B4810BD2B4810BD2B4810BD2B4810BDAE
:1072E0002B4810BD2B4810BD2B4810BD2B4810BD9E
:1072F0002B4810BD2B4810BD2B4810BD2B4810BD8E
:1073000080930008109300088C93000814900008E4
:107310003C900008D495000800900008D88F000821
:10732000A88F0008908F0008808F00081C8F00082D
:1073300018910008049100080C9400082891000896
:107340006C940008E8950008189600084496000818
:1073500090920008689600084C970008B4960008C0
:10736000AC960008C4960008BC960008CC960008AD
:10737000A4960008D4960008DC960008E49600085D
:10738000EC960008F4960008FC96000804970008A4
:107390000C970008149700081C9700082497000811
:1073A0002C97000834970008449700083C97000881
:1073B00030B50A4D87B0684601F00CFA022401236B
:1073C00069462846CDE90043049401F0C7F92146F7
:1073D000284601F00BFA07B030BD00BF0034024070
:1073E00010B5174C0FCC8CB00DF1040CACE80F00AD
:1073F0000FCCACE80F0094E807000DF1040E8CE808
:1074000007004FF0000C5EF8040F6346724652F816
:10741000041C814212D9013B42F80419591CF6D1CF
:1074200000230CAA02EB83030CF1010CBCF10A0F40
:1074300043F82C0CE7D106980CB010BD0133F0E7EF
:107440004801002010B4094A094C0A480A4900239F
:107450004FF0010C82F800C02360084A084C03700A
:107460000B7023705DF8044B1360704738000020E8
:1074700030010020840100207C01002088010020D0
:107480002501002070B51E4C8CB0012001F0A8FA37
:10749000204601F0ADFB1B4B01931B4B02934FF4B5
:1074A00080724FF48063CDE907234FF0200C002554
:1074B0004FF40053012601A92046CDE909C3CDE9C7
:1074C0000356CDE905550B9501F0F6FB3221204618
:1074D00001F05CFC0B2368468DF8003007238DF823
:1074E00002308DF801508DF8036001F0B5F80221EB
:1074F000204601F037FC204601F028FC0CB070BD9E
:1075000008000240242C01401C01002030B54FF43B
:10751000005087B001F06CFA1D4C684601F05AF932
:1075200001250223694608221A480493CDE9005335
:10753000059201F013F9204600224FF4C87101F0C2
:1075400041FB00231A461946204601F009FB4FF47F
:107550008071204601F02AFB204601F0FBFAA4F5D9
:1075600000644FF4006001F043FA002220464FF619
:10757000FF7101F027FB2946204601F049FA204619
:1075800001F0E8FA07B0BDE83040FFF77BBF00BF6D
:10759000003401400034024010B50D48022101F0D2
:1075A000EDFB00B910BD0A480A4C022101F0ECFBCA
:1075B000094A0A49136809680948CB1A9BB2036053
:1075C0000123116007482360BDE81040FEF7F6BCB8
:1075D0000000024040010020180100201C01002092
:1075E0003C0100209C0000202DE9F04BAA490B68CB
:1075F0008CB0002B64D0A94B1B78002B63D1A84B17
:107600001A68A84CDFF8E4822378DFF8E4920020BF
:107610000860A54941F823200133DBB20A2B23700F
:1076200098F8003088BF20700A2B9CBF013388F87F
:10763000003099F80030002B73D0DFF898B29B49E6
:10764000DBF80030984D03EBC303A1FB031302EBFF
:10765000D302CBF80020FFF7C3FE01AF044605F1CB
:107660002C023846294651F8043B9C4294BF1B1B10
:10767000E31A914240F8043BF5D10020A44657F8A4
:10768000046F0346394651F8044CA64247D2013BE9
:107690005A1C41F80449F6D100230CA901EB8303DD
:1076A00001300A2843F82C6CE9D1814B069F1F60FA
:1076B000804B1B68BB4264464AD27F4B00221A6053
:1076C0000CB0BDE8F08B764C7C4D7D4823682A6871
:1076D000B0F900009B1A48BF5B420028B8BF404287
:1076E0009BB280B2834240F2B080962B00F2BA8007
:1076F000744B754800261E80038801339BB2B3F596
:10770000967F0380FFF47DAF704B1B7823B1236815
:1077100022686F4C2B6023600023038071E70133E4
:10772000BBE798F800300B2BCAD1FFF759FE694927
:1077300000EB800001224000086089F8002000F082
:1077400069FE65495C4AA1FB00135B0B1360B7E758
:1077500000F060FE604BA3FB002357485F4A0168BE
:107760005B0B00297AD05B1AB3F5FA6FA8D300201F
:10777000DFF834C101465CF8043B1B1B03FB03F339
:10778000181841EBE3716245F5D10B220023FCF799
:10779000E7FC002800F0B780431CB0EB530F4FEA22
:1077A000530240F2B080B0FBF2F311461344B1EB48
:1077B000530F4FEA5302F6D807EB5702012A38BF9E
:1077C00001228A4238BF0A4698F8001091B1002F72
:1077D00040F09080374B1F6805EB810155F8043B62
:1077E0009C4294BF1B1BE31A9F4238BF45F8044CD0
:1077F000A942F3D102EB4203394ADBF800102B48CF
:107800001268284C1BB23C2BA8BF3C23A0FB0101F3
:1078100002EBD102142B2A492B48B8BF14230B804A
:107820002B4B28491A60254B1A6000232370224CE9
:107830002C4A88F8003089F80030236003800B80E0
:10784000012313700CB0BDE8F08B962B0AD81E4DA7
:107850001C48226800232B800380D2E603600CB012
:10786000BDE8F08B194B2268174C1B780020208054
:1078700003F0FF0463B1134C238801339BB20E2B3A
:1078800023807FF6BEAE184B208001201870B8E62A
:107890000C4B1C80B5E600BF400100209D0000207D
:1078A0003C0100207501002048010020CDCCCCCC4B
:1078B0002801002034000020780100203801002039
:1078C0003A00002046010020760100203800002008
:1078D0002C01002034010020D34D621074010020DF
:1078E00080010020440100202501002074010020B7
:1078F000240100200323A7FB03304FF0FF3320B9FE
:1079000007EB470768E7014656E71F4664E700BFF5
:10791000164A174B12681B681649174830B4174CA3
:10792000174D1A4422600A60164C174902EB820276
:10793000520000232260154A037015481380154C2D
:10794000154A0360154813702360154A154C0380CF
:107950000B701548012121701370144A03701448EC
:1079600011702970036030BC704700BF3C010020DB
:107970008001002038010020740100202C0100202B
:107980002401002034010020750100204601002060
:1079900078010020300100208401002076010020C1
:1079A00025010020380000207C0100204401002037
:1079B000880100203D4B1A6810B4002A39D03C4A97
:1079C0001168002933D01168B1F5803F2FD23949B1
:1079D0000878002830D13849126808683749121AE7
:1079E000002A0A6036493748B8BF524292B20A604C
:1079F00009680268C2EB011102EBA1023249026080
:107A0000B1F90010B1EB221F4FEA221021DC2F49FF
:107A10002F4C0A780132D2B20020042A20700A705A
:107A200005D92C4A147804B1107005220A7000227E
:107A30001A605DF8044B7047264A002008701178E0
:107A400001B1107021482249002202700A701A60A8
:107A5000EFE70A3109B2814211DD1D491B480A785E
:107A60000132D2B20024022A04700A70DFD9194A06
:107A7000107808B90120107003220A70D7E7154A60
:107A8000117801F0FF0069B11049002008701278E8
:107A900002F0FF011AB10D4A00211170C7E70C4A2C
:107AA0001170C4E70A490870F1E700BF40010020E7
:107AB0003C010020250100202C010020880100202D
:107AC00020010020300100203A0000208401002025
:107AD0007C01002038000020704700BFFEE700BF97
:107AE000704700BF5748584AD0F88830574943F488
:107AF000700310B4C0F88830106840F001001060C6
:107B00005468534821405160116821F0847121F478
:107B100080311160116821F480211160516821F0D9
:107B20000361002321F470214FF460545160D4624A
:107B3000136313649060D069464940F08050D0616F
:107B4000D06920F08050D061086840F08000086063
:107B5000086885B020F01000086002938DF80330AB
:107B60000393136843F48033136003E0039BB3F57E
:107B7000005F0BD01368C3F340438DF80330039BC1
:107B8000013303939DF80330002BEFD02E4B1A687E
:107B9000C2F340428DF803209DF80320002A4DD007
:107BA0002C4A116821F007011160116841F00201AF
:107BB00011605A685A605A6842F400525A605A6812
:107BC00042F4A0625A605A6822F0036222F47022E2
:107BD0005A601A6C22F001021A645A680192019AE2
:107BE00042F480320192019A42F400320192019AE9
:107BF00042F0036242F440220192019A5A60029AD2
:107C00001A641A6842F080721A601A689201FCD5F0
:107C100059680D4A21F003015960596841F0020189
:107C20005960536803F00C03082BFAD1054B4FF051
:107C300000629A6005B05DF8044B7047064B074A36
:107C40001A60F3E700ED00E0001002400CC07FF87E
:107C50000000BF04002002403C00002000127A0017
:107C600070B50025124B06462C4601E013F8015F63
:107C70008D4207D00134102CF8D10E48FFF7B2F82E
:107C8000FEF7C2F90A2000F0D7FBFE2D0BD10A49FE
:107C90000A4A8B6843F400038B60D2F8203843F41F
:107CA0008063C2F820380023C6E90034304670BD36
:107CB00048A4000804950008000802400010004095
:107CC00082B002AB03E90300142002B000F09CBBB9
:107CD00082B002AB03E90300002002B0704700BF8E
:107CE00000B583B002AB03E9030000F04FFB03B023
:107CF0005DF804EB00F04EBB2DE9F04182B002AB21
:107D000003E903001D4B984204460D46174621D057
:107D100003F5806398422BD003F5806398422AD004
:107D200003F58063984208BF4FF0300814D04FF03D
:107D3000000800F02BFB064607B92D044046A5615C
:107D40000022012100F0F6F8304602B0BDE8F04113
:107D500000F020BB4FF000080023012102E00133B6
:107D6000102BE6D001FA03F22A42F8D09844E0E75B
:107D70004FF01008F0E74FF02008EDE70034024024
:107D8000F0B53F2983B00C460546164619D8114B6D
:107D90000A0953F82270A7B1384600F0BBF804F086
:107DA0000F04012101FA04F4CDE9007402AB13E9D8
:107DB00003003246FFF7A0FF2846C5E9007403B070
:107DC000F0BD054B05480B221A60FFF70BF8FEF7D4
:107DD0001BF900BF58A4000810010020F09400080F
:107DE00082B002AB03E9030043694B40436102B038
:107DF000704700BF82B002AB03E903000B460146A7
:107E000002B91B048B6102B0704700BF30B585B06A
:107E100004AB03E903001A4903468B4203981DD0C3
:107E200001F580618B4226D001F580618B4224D020
:107E300001F580618B4208BF302510D000250192EA
:107E400000F0A4FA019A04460021284600F072F8D6
:107E5000204605B0BDE8304000F09CBA0025002364
:107E6000012402E00133102BE9D004FA03F10142AE
:107E7000F8D01D44E3E71025F1E72025EFE700BF28
:107E80000034024070B53F2982B0044614D80E4B2E
:107E9000080953F820607EB101F00F0101258D40E3
:107EA000CDE9006502AB13E90300FFF7AFFF204601
:107EB000C4E9006502B070BD044B05480C221A608D
:107EC000FEF790FFFEF7A0F858A40008100100206C
:107ED000D894000882B002AB03E903000949019A73
:107EE0008842034606D01B69134214BF01200020BC
:107EF00002B07047012AF6D1034B1878C0B202B025
:107F0000704700BF0040024038000020002070474A
:107F1000704700BF064A00F13F4000F57F005169FD
:107F20000123800A03FA00F0084350615369704747
:107F300000100240F0B53A4B3A4D04096E6953F80F
:107F4000243003F13F4404F57F044FEA942C0124CC
:107F500004FA0CF4344300F0070C6C6100F00F0ECF
:107F600000076C694FEA8C0C45D5586A0F2404FA57
:107F70000CF420EA040003FA0CFC4CEA00005862FE
:107F80001D684FEA4E0C032000FA0CF001F00304C8
:107F900025EA000504FA0CF42C431C6021F01004BF
:107FA000013C012C6FEA000017D9012404FA0EF4F9
:107FB000E743DE6802FA0CF506403543DD60996858
:107FC00039409960D96A0140022000FA0CF0084358
:107FD000002AD8621BDD9C61F0BD5D68012404FAB3
:107FE0000EF4C1F3001101FA0EF125EA040529434C
:107FF0005960E743DDE7186A0F2404FA0CF420EA1D
:10800000040003FA0CFC4CEA00001862B8E7E3D065
:108010000EF1100E012202FA0EF29A61F0BD00BFBD
:1080200058A4000800100240704700BF08B50023A4
:1080300083F3108862B6BFF35F8F074B074A9A60DD
:10804000BFF34F8FBFF36F8F4FF4E06000F0FAFA89
:10805000BDE80840FEF764B800ED00E0004000080D
:1080600010B5104A138803F0280182B09CB239B9C8
:10807000220603D50B4CA3891B0606D402B010BD03
:10808000908880B200F09EF8F2E70DF1070000F052
:10809000ADF818B142F22C03A381EFE79DF8073049
:1080A000A380EBE700380140024B42F2AC029A8118
:1080B000704700BF0038014008B50B484FF400512D
:1080C00000F05CFE00B908BD07484FF4005100F015
:1080D0005BFE0648402100F00FFC054800F03CFE26
:1080E000044B00221A7008BD000002400038014015
:1080F000440002408C01002008B507484FF40031CD
:1081000000F034FE00B908BDBDE8084002484FF455
:10811000003100F031BE00BF00000240F0B5012088
:108120008DB000F05DFC802000F05AFC012000F0D2
:108130005FFC4FF4804000F05BFC214C06A800F08F
:1081400049FB4FF400730126052706A90693204634
:108150000223079308960B9700F000FB06A9204620
:108160004FF4806306930B9700F0F8FA2423002560
:1081700001A88DF8043003238DF806308DF80760D0
:108180008DF8055000F068FA02A800F08FFBA4F506
:108190007C444FF4613302A9204602934FF44023FC
:1081A000CDE90353ADF8145000F056FB40F22551D1
:1081B000204600F08BFB204600F082FB0DB0F0BDA6
:1081C000003402407E2838B5054608D0054A1378A9
:1081D000BF2B03D8044C591CE554117038BDFDF772
:1081E000DFFEF3E7500200209001002010B40A4B9C
:1081F0000A4993F800C00A789445034608D9084C08
:10820000501CA25C087000201A705DF8044B704787
:108210004FF0FF30F9E700BFB4020020B5020020A4
:10822000540200202DE9F04B294E317882B0C9B2BA
:10823000284F01AA3846FCF711FF051E03DC35D193
:1082400002B0BDE8F08B01993846FCF777FFDDF806
:1082500004804FF0000B3478E4B2B4EB080910D17D
:1082600000F094F83378DBB29C421CD186F8009081
:1082700000F090F8002DE3DDFCF7B8FF02B0BDE898
:10828000F08B08EB0B01A9EB0B02394407EB0B0059
:1082900000F0CAFDFDF784FE00F078F83378CB4695
:1082A000DBB29C42E2D000F075F8D4E7DDF8048040
:1082B000B8F1200FCDD108494246384600F096FD6E
:1082C0000028C6D1FFF7B0FEDDF80480C1E700BF8B
:1082D000500200209001002068A400082DE9F04B16
:1082E000214F3B7805460E46DBB2DFF8808098F8D8
:1082F0000040E4B2A34204D3002488F800403C705C
:10830000234695F802C0A444BCF1600F28D9ACEB19
:108310000303602B01D9BDE8F08B4FF0000B88F808
:1083200000B03978C9B2DFF84890641A224649444F
:10833000484600F079FD87F800B0E7B288F8007091
:10834000FFF7B2FE09EB040032462946FCF7BCFDFC
:108350003844C0B288F80000BDE8F04BFFF7A4BE77
:10836000DFF80C90E7B2EDE7B5020020B402002080
:108370005402002000487047CC020020004870479B
:108380000038002072B6704762B67047EFF3108075
:1083900072B6704780F31088704700BF62B600BFA6
:1083A00072B67047704700BFEFF30383C3F308034F
:1083B00043B14FF080736FF0060208B401A102B41C
:1083C0001FB51047704700BF08B54FF0805000F050
:1083D00017FB00F0F1FB00F093FA4BF2B41101200F
:1083E00000F0D6FCBFF34F8F0549064BCA6802F474
:1083F000E0621343CB60BFF34F8F00BFFDE700BFC8
:1084000000ED00E00400FA05C0017047401AC00FFB
:10841000704700BF014B5868704700BF001000E074
:108420004FF0E023034900224FF080605A619A61C7
:108430004860704700ED00E00C4BD3F8FC20D201FF
:108440000AD4D3F8FC200A4942F08072C3F8FC2019
:108450000B6843F001030B60054A536803EBC0103F
:1084600053681B1A002BFBDB704700BF00ED00E0D8
:10847000001000E0704700BF70B5164D164BD5F8E0
:10848000FC2042F08072C5F8FC201A68002442F0FB
:10849000010282B01A605C60FFF778FF0123064694
:1084A000FF2201A88DF804208DF806308DF80730E2
:1084B0008DF8054000F0D0F84FF0E02307221A6154
:1084C0004FF080625C6130469C616A60FFF762FF3A
:1084D00002B070BD00ED00E0001000E00000000000
:1084E0002DE9F04BDFF89890DFF89880DFF898B02E
:1084F000FFF748FFD9F8007005E0FFF745FF002DB2
:108500001CDCFFF73FFFFDF7F5FCD8F80460851B86
:10851000B5F5807F04462B4621DCBB1B002BECDA33
:1085200015F5FA3F25DBFDF741FD90B906F57A47D1
:10853000C9F80070FFF728FF002DE2DDD8F80430FD
:10854000E31A002BDDDDD8F80430E31A002BD8DD68
:10855000F4E706F54856C9F800604FF420734FF071
:10856000E02200215361BDE8F04B91615161FFF7BA
:108570000BBF5846FEF736FCFDF772FDD3E700BF90
:10858000B8020020001000E018950008074B10B555
:108590005C68FFF7F7FE064A13681B1B002BB8BF89
:1085A0001460BDE81040FFF7EFBE00BF001000E010
:1085B000B802002000B58446A9B100EB010E4FF6C9
:1085C000FF701CF8013B434083EA0313DBB2010A4E
:1085D000DA0041EA0321F44582EA131381EA030039
:1085E000EFD15DF804FB4FF6FF705DF804FB00BFB0
:1085F0000D4885460D480E490E4A002302E0D45826
:10860000C4500433C4188C42F9D30B4A0B4C0023DA
:1086100001E013600432A242FBD3FFF763FA00F0DB
:10862000C1FBFFF703FDFEE7004000200000002033
:1086300040000020DCA4000840000020CC02002004
:10864000FEE70000034B40F0BF6040F40030D8600C
:10865000704700BF00ED00E000B5C37813B3184BBE
:108660008278D96890F801C00078C943C1F302212B
:108670000F23C1F1040ECB400CFA0EFC1340114A3B
:1086800043EA0C031B0102EB000CDBB241098CF83E
:10869000003300F01F00012303FA00F042F821002C
:1086A0005DF804FB037807485A09012103F01F0312
:1086B000203201FA03F340F822305DF804FB00BFDA
:1086C00000ED00E000E100E0130710B40ED502F069
:1086D0000703446A9A000F23934024EA030301FA34
:1086E00002F21A435DF8044B4262704702F007023F
:1086F000036A5DF8044B92004FF00F0C0CFA02FC79
:1087000023EA0C0301FA02F21A430262704700BF27
:108710004FEA420C10B40323046803FA0CF324EA72
:10872000030401F0030303FA0CF321F0100C0CF125
:10873000FF3C2343BCF1010F03600CD844684FF0A9
:10874000010C0CFA02FCC1F3001324EA0C0403FA36
:1087500002F1214341605DF8044B70470B682DE93D
:10876000F0410D46002B33D000244FF001080327C1
:1087700003E0013433FA04F22AD008FA04F61E4268
:10878000F7D022466969FFF79FFF22466968FFF725
:10879000BFFFC368A968620007FA02FC23EA0C0362
:1087A00091401943C1608368E96823EA0606A14045
:1087B000314381602B69C16A03FA02F221EA0C0C91
:1087C0002B6842EA0C020134C26233FA04F2D4D1BB
:1087D000BDE8F08100234FF6FF710F220160C360F6
:1087E0004360426183600361704700BF81617047ED
:1087F00030B587B0044668460D4600F089F8144B42
:108800009C4209D003F5C0539C4205D003F5806318
:108810009C4201D0029B00E0039B0E4803EB8303C4
:1088200003EB8303A900B3FBF1F1A0FB01235A0979
:10883000642303FB12131B013233A0FB0313C3F3A6
:10884000431343EA02139BB2238107B030BD00BF3C
:10885000003801401F85EB5138B504460D460968C4
:10886000FFF7C6FFA389AA889BB223F48053134362
:10887000A381238AEA889BB223F4405313432382C3
:10888000A3892A899BB223F4C0631343A381A389DC
:108890006A899BB223F00C031343A381A38AAA899C
:1088A0009BB223F440731343A38238BD00234FF4DB
:1088B00016514FF44022C0E9001382608381704753
:1088C00083899BB243F400538381704701F01F02F8
:1088D0000123C1F34211994203FA02F207D002299F
:1088E0000CBF103014300368134303607047C36833
:1088F00013430C3003607047C94389B2018070474D
:10890000024B0122C3F83C24704700BF00004242E2
:108910002C4A2D4B5168526830B40B400D014FEA80
:10892000934348BF6FF4F77402F4803254BF0233AC
:108930001B19002A3ED102F1804202F50432126C6A
:10894000D1073BD4214A02FB03F31E4A1D4952685A
:108950001F4D02F00C02082A1ABF1C4A0260036075
:108960004C68C4F3031408BF1A462C5DE240426011
:108970004C68C4F302242C5D22FA04F484604C6831
:10898000C4F3C2242C5D22FA04F4C460CC6A04F05F
:108990000F0C104C14F80C40B2FBF4F24261CA6A9E
:1089A0000D49C2F3031230BC31F81220B3FBF2F3CD
:1089B00003617047034A52689203C3D5074A02FB1A
:1089C00003F3C2E70010024000003C0800127A00E6
:1089D000BCA400088CA400089CA4000800093D0069
:1089E000024A536918435061704700BF00100240AB
:1089F000024A936918439061704700BF001002401B
:108A0000024AD3691843D061704700BF001002408A
:108A100081827047464B984210B466D002684B88FA
:108A2000B1F804C022F07002134303600268CB88DF
:108A300022F44072026004683E4A2343036090427D
:108A40000B88A0F82CC0038502D03B4B984201D183
:108A50000B7A03864B7A012282820BBB036823F4D4
:108A600000630360334B98420ED003F500639842D5
:108A70000AD0B0F1804F07D0A3F59833984203D0C5
:108A800003F58063984208D14B7B73B10368B0F162
:108A9000804F43F4004303600ED05DF8044B7047F1
:108AA000036843F400630360DCE70368B0F1804FC0
:108AB00023F400430360F0D18B7AFBB9036823F4FD
:108AC00080530360CB7A4FF0804203B3136843F4C2
:108AD000005313600B7B4FF080420BB313685DF8BB
:108AE000044B43F48043136070478B8883850A8866
:108AF000028501235DF8044B83827047036843F4C9
:108B000080530360CB7A4FF08042002BDED1136894
:108B100023F4005313600B7B4FF08042002BDDD118
:108B200013685DF8044B23F480431360704700BF63
:108B300000100040002C01400034014000234FF69B
:108B4000FF72038043808280C380038143818381DD
:108B500083737047036843F001030360704700BFED
:108B6000B0F808C02CF4706C4FEA0C4C4FEA1C4C67
:108B70004CEA03239BB203810389B2F5004F03BF84
:108B80006FEA43436FEA53439BB2C3F30E0303817F
:108B9000038923F440531B041B0C194301810389EF
:108BA0009BB243F480430381704700BF83899BB22B
:108BB00019438181704700BF014B01221A6270473F
:108BC00000000E42F8B5094C074620460E461546F1
:108BD000FFF7B4FF00233846A68025802146E380B6
:108BE0006380BDE8F840FFF715BF00BFBC0200205E
:108BF00002682849002322F00102884202600360D3
:108C000043608360C3601BD0234B984212D0234B38
:108C1000984221D0224B984224D0224B984215D022
:108C2000214B984224D0214B984227D0204B984288
:108C30002AD070471F4A536843F0F00353607047CF
:108C40001C4A536843F00F0353607047194A536836
:108C500043F4702353607047164A536843F47063BB
:108C600053607047134A536843F47043536070472E
:108C7000104A536843F47003536070470D4A5368B9
:108C800043F07063536070470A4A536843F070437F
:108C90005360CEE7080002401C0002403000024052
:108CA00044000240580002406C0002408000024034
:108CB0009400024000000240D1E900238260C360BA
:108CC00002688B6822F01002026030B40468CA683F
:108CD00023430360426003680A6923F04003036092
:108CE00004684B692243026004688A6924F08004A6
:108CF00004600468234303600468CB6924F440746F
:108D0000046004682243026002680C6A22F4406234
:108D1000026002681343036003684A6A23F0200379
:108D2000036005688B6A2C430460016821F440519C
:108D3000016001680A430260026822F48042026016
:108D40000268134330BC0360704700BF036843F000
:108D500001030360704700BF036823F00103036051
:108D6000704700BF036819430160704703680B42F6
:108D700014BF01200020704741607047036819420A
:108D800014BF0120002070474160704701617047A7
:108D900000F18040024B013843F82010704700BFBB
:108DA0005028004070B50D4D0D4C641BA4100026DA
:108DB000A64209D10B4D0C4C00F058F8641BA410CE
:108DC0000026A64205D170BD55F8043B98470136F0
:108DD000EEE755F8043B98470136F2E7D4A40008C3
:108DE000D4A40008D4A40008D8A4000810B5013900
:108DF0000244904201D1002005E0037811F8014FB0
:108E0000A34201D0181B10BD0130F2E70A44914281
:108E100000F1FF3300D1704710B511F8014B03F892
:108E2000014F9142F9D110BD884210B501EB020407
:108E300002D98442234607D8431EA14208D011F824
:108E4000012B03F8012FF8E7024401468A4200D1C2
:108E500010BD13F8014D02F8014DF7E70244034637
:108E6000934200D1704703F8011BF9E7F8B500BF42
:108E7000F8BC08BC9E467047F8B500BFF8BC08BCFB
:048E80009E46704753
:108E8400414443206F7574206F662072616E67657C
:108E940000000000496E76616C6964206D6F766530
:108EA40020726571756573742073697A65000000BA
:108EB400616C6C6F635F6368756E6B206661696C6F
:108EC400656400004D6F7665207175657565206F6A
:108ED400766572666C6F7700496E76616C696420A2
:108EE4006F696420747970650000000043616E2727
:108EF400742061737369676E206F696400000000F9
:108F04006F69647320616C726561647920616C6C53
:108F14006F63617465640000636F6E6669672069DE
:108F2400735F636F6E6669673D2563206372633D9B
:108F340025752069735F73687574646F776E3D255A
:108F440063206D6F76655F636F756E743D2568751C
:108F540000000000416C72656164792066696E618D
:108F64006C697A6564000000616C6C6F635F6368B0
:108F7400756E6B73206661696C656400636C6F6306
:108F84006B20636C6F636B3D2575000075707469AD
:108F94006D6520686967683D257520636C6F636B38
:108FA4003D257500737461747320636F756E743D31
:108FB40025752073756D3D25752073756D73713D31
:108FC40025750000436F6D6D616E64207265717567
:108FD400657374006964656E746966795F7265733C
:108FE400706F6E7365206F66667365743D257520BA
:108FF400646174613D252E2A730000007065656C00
:109004005F646174612076616C75653D256900005B
:109014006D63755F76657273696F6E2079656172D1
:109024003D257520646174653D25752076657273F0
:10903400696F6E3D25750000706172616D5F7661C8
:109044006C75652076616C75653D25752072657358
:10905400657276653D2575004D6178206F66203810
:1090640020627574746F6E73000000005365742081
:10907400627574746F6E2070617374206D617869A9
:109084006D756D20627574746F6E20636F756E7488
:1090940000000000496E76616C6964206275747426
:1090A4006F6E732072657472616E736D6974206380
:1090B4006F756E7400000000436F6D6D616E642007
:1090C400706172736572206572726F7200000000C5
:1090D4004D65737361676520656E636F64652065B4
:1090E40072726F7200000000496E76616C696420D0
:1090F400636F6D6D616E6400000005000000000088
:1091040064656275675F726573756C742076616CF3
:109114003D257500706F6E6720646174613D252A7A
:1091240073000000656E6473746F705F73746174B0
:1091340065206F69643D256320686F6D696E673DC6
:109144002563206E6578745F636C6F636B3D257572
:109154002070696E5F76616C75653D256300000063
:10916400656E6473746F705F7265636F7665725F4A
:109174007374617465206F69643D2563206F6B3D72
:10918400256300004D6973736564207363686564C7
:10919400756C696E67206F66206E657874206469EB
:1091A400676974616C206F7574206576656E7400F0
:1091B4005363686564756C65642064696769746188
:1091C4006C206F7574206576656E742077696C6C9D
:1091D40020657863656564206D61785F647572618C
:1091E40074696F6E0000000043616E206E6F74201E
:1091F40073657420736F66742070776D2063796370
:109204006C65207469636B73207768696C6520757D
:109214007064617465732070656E64696E670000C4
:109224007570646174655F6469676974616C5F6FAC
:109234007574206E6F742076616C6964207769742C
:1092440068206163746976652071756575650000D1
:10925400496E76616C6964206E656F706978656CBF
:1092640020646174615F73697A650000496E766198
:109274006C6964206E656F706978656C20757064C4
:1092840061746520636F6D6D616E64006E656F70EF
:109294006978656C5F726573756C74206F69643D81
:1092A400256320737563636573733D256300000054
:1092B4005363686564756C65642070776D206576AA
:1092C400656E742077696C6C2065786365656420CD
:1092D4006D61785F6475726174696F6E000000007F
:1092E4004D6973736564207363686564756C696E36
:1092F40067206F66206E65787420686172642070E0
:10930400776D206576656E740000000069735F7385
:10931400687574646F776E207374617469635F73C6
:109324007472696E675F69643D25687500000000AA
:1093340073656E74696E656C2074696D6572206303
:10934400616C6C656400000053687574646F776EBB
:1093540020636C6561726564207768656E206E6F4A
:10936400742073687574646F776E000054696D655A
:109374007220746F6F20636C6F7365007374617215
:1093840074696E670000000073687574646F776EAB
:1093940020636C6F636B3D2575207374617469631E
:1093A4005F737472696E675F69643D256875000058
:1093B4005374657070657220746F6F2066617220DB
:1093C400696E207061737400496E76616C69642003
:1093D400636F756E7420706172616D65746572007F
:1093E40043616E27742072657365742074696D65BA
:1093F400207768656E207374657070657220616390
:109404007469766500000000737465707065725F3E
:10941400706F736974696F6E206F69643D25632092
:10942400706F733D25690000746D637561727420FB
:109434006461746120746F6F206C617267650000F1
:1094440043616E277420616464207369676E616C84
:10945400207468617420697320616C726561647939
:109464002061637469766500747273796E635F73E7
:1094740074617465206F69643D25632063616E5F68
:10948400747269676765723D2563207472696767E2
:1094940065725F726561736F6E3D256320636C6FE7
:1094A400636B3D2575000000636F6E6669675F72CC
:1094B40065736574206F6E6C7920617661696C6187
:1094C400626C65207768656E2073687574646F7765
:1094D4006E0000004E6F7420612076616C69642018
:1094E400696E7075742070696E0000004E6F742090
:1094F400616E206F75747075742070696E00000061
:109504004E6F7420612076616C696420414443206D
:1095140070696E0052657363686564756C65642078
:1095240074696D657220696E20746865207061735A
:10953400740000004661696C656420746F20736573
:109544006E6420693263206164647200693263204E
:1095540074696D656F757400556E737570706F7294
:10956400746564206932632062757300496E7661A4
:109574006C6964207370692062757300496E76614A
:109584006C69642050574D206368616E6E656C0091
:1095940050574D20616C72656164792070726F67F9
:1095A40072616D6D656420617420646966666572BC
:1095B400656E742073706565640000004E6F7420DE
:1095C400612076616C69642050574D2070696E008B
:1095D40070615F76616C75652076616C75653D259B
:1095E40075000000616E616C6F675F696E5F737414
:1095F400617465206F69643D2563206E6578745FCE
:10960400636C6F636B3D25752076616C75653D25D4
:1096140068750000627574746F6E735F737461743F
:1096240065206F69643D25632061636B5F636F75BB
:109634006E743D25632073746174653D252A73003F
:10964400746D63756172745F726573706F6E736548
:10965400206F69643D256320726561643D252A732A
:1096640000000000636F756E7465725F73746174DB
:1096740065206F69643D2563206E6578745F636C53
:109684006F636B3D257520636F756E743D25752082
:10969400636F756E745F636C6F636B3D257500005B
:1096A4000000400234A40008360006000000000058
:1096B4003700090194A3000838000E0298A300089B
:1096C40039001503C4A300083A00100204A40008DA
:1096D4003B000B012CA400083C000B0130A4000843
:1096E4003D001503C4A300083E00100204A40008B2
:1096F4003F000B012CA400084000120438A4000809
:10970400410040013CA4000842000B012CA40008C5
:1097140043000D0240A40008440011049CA3000867
:1097240045001104A0A3000846001003A4A30008E8
:1097340047004003A8A3000848004002ACA3000867
:1097440049000A02B0A300084A001704B4A30008A1
:1097540078DA9D580B6FDB3812FE2B848062776FAA
:10976400939E253B7612A0383889DB065BB7D9383F
:10977400D91EB058088A44DB44F42A29E5718BFECB
:10978400F7FB66484AB213F4805BA01B93331CCEEC
:10979400F3E38CFE0E92BA0E4E83DF7255D7520756
:1097A40007C15DABF22C7E90DAA8AA34206DD2F406
:1097B40054FCFCE1F3ADB8A9AADC8875A5C55C1717
:1097C4006251DCC92C9399B8D2552A8DA9B411B32E
:1097D400C368141E1F7E8B0EDB3A4B1AF98B98BD9F
:1097E4001DBF0D05ED8EA651247ED632978901E169
:1097F400CFF9F5F29FD2C9389C1DDEE9A44CB742DB
:10980400CB0745378B681A9E8C667F893B55B68D8E
:10981400CA0D7488DE8E278793F6AE2D9B36FC35F1
:109824001CBB5FBF082240F5B42A8AA4CCA0F4DF95
:109834004192E7550A0DE24A6546A41538DFBD4951
:1098440083D3704C26360D6C8B93F45E808CFD01B3
:10985400C3241A30649967A82BC37F54F9EE4D2BA7
:10986400EA36CFE3B6B60726FD816FADD4CF9D4C63
:1098740068704FDC5A9A266E547A6FECAA81A9A6B6
:10988400504DEC6F15AA84C3DDFD5030858F746C88
:10989400B66D93558F65703A23DBCAB5DAC449991E
:1098A400E4D5265665A7172B149C8E8F3B1EA78CD8
:1098B400E7B0CB7860E151C7CA9B52EF0ADBB1EE47
:1098C40028EA9833B5514D92C755DBEC1D7848F220
:1098D40056D23A93EBA4CD9BB8DB2892A7386B758C
:1098E400D220A4AC67D4CB93085553D53BB2D29DB8
:1098F400CBC73D7329AB5A3DC97CEF662459121B73
:10990400F51F5CB66D912B4D4C370E7C6D24B6540F
:10991400D96DC1A25127B47E2C5EB1267D86FF7B12
:1099240019CE1688DFB30E3B2FCC9B849D70D34891
:109934002A292F9C96B1B33153DAFFB49167E69E7E
:10994400ABCD8D1C681CF5B16D8AB44D74A7B17E86
:109954008A5FC44C34DD26F9A35185B4AAF559D4E1
:1099640068F35CA64E08DC3C3D083279D7C2CB15BF
:10997400C0209CF825C46CD8C5EFDEFC0355151E29
:10998400798296092A436752D3852813CD578433A5
:10999400CFF0A855235F70902F2D236E9485D41B90
:1099A40059A6CF316541700A235D46C4DBAA902FC6
:1099B400AAC824453D8C8B5B7735B45B6550BDCF1D
:1099C400426B6FEC24365A6D3652931186C2461E92
:1099D40008FBCBB986A153D2C8DE43A39EAE655A19
:1099E40021667B1CD1C941B056A84EE4626CDD2CC3
:1099F400529D5A6B217D833CBC4B8C4AE33AD1493E
:109A040021CAB6B0756B496C2538476EC902B08E51
:109A1400EC5A22EC38682D420ADB5DDA74400D05FD
:109A2400EC5E5B53C08353A8A33259366A0D3C5A8B
:109A3400AF51069CDA3D0E1E04BEA46203D33A4322
:109A440026C7038A45F11D0CDCB6838C98E01AA85E
:109A540095A45400C2FE61EF5BC39148D69B2F606E
:109A6400EBFF8C6AD147D5555FBF02A86E70702B8F
:109A7400D3FB01D88D675E873DACEB34A82B54CE65
:109A8400FEFD03B80859402B5FC3BF4E48354498C8
:109A940068E48FEC014CC7DE690D1F75CC54FB9E46
:109AA4005391AAB65A7CD06022CA087F156E80559D
:109AB4005A16C8C3B89600C5CEF3C1E9942808372E
:109AC400341FBB9F2CD9A6D8BE26108564229EA124
:109AD400757BB08E6C397EC1C4B6315476327770E2
