:020000040800F2
:1040000000400020D1880008A17D0008A57D00089F
:1040100000000000000000000000000000000000A0
:10402000000000000000000000000000A97D000862
:10403000000000000000000021890008C18700087E
:1040400021890008218900082189000821890008A8
:104050002189000821890008218900082189000898
:104060002189000821890008218900089578000825
:104070002189000821890008B5830008F58300081C
:104080002189000821890008218900082189000868
:104090002189000821890008218900082189000858
:1040A0002189000821890008218900082189000848
:1040B0002189000821890008218900082189000838
:1040C0002189000821890008218900082189000828
:1040D0005D830008218900082189000821890008E2
:1040E0002189000821890008218900082189000808
:1040F00021890008218900082189000821890008F8
:1041000021890008218900082189000821890008E7
:0441100021890008F9
:1041200010B5054C237833B9044B13B10448AFF3F1
:1041300000800123237010BD440000200000000017
:104140000C91000808B5034B1BB103490348AFF3BA
:10415000008008BD00000000480000200C9100080D
:1041600053B94AB9002908BF00281CBF4FF0FF31DE
:104170004FF0FF3000F074B9ADF1080C6DE904CEDA
:1041800000F006F8DDF804E0DDE9022304B0704732
:104190002DE9F047089D04468E46002B4DD18A42FA
:1041A000944669D9B2FA82F252B101FA02F3C2F12D
:1041B000200120FA01F10CFA02FC41EA030E9440BE
:1041C0004FEA1C48210CBEFBF8F61FFA8CF708FBDF
:1041D00016E341EA034306FB07F199420AD91CEBB7
:1041E000030306F1FF3080F01F81994240F21C81E9
:1041F000023E63445B1AA4B2B3FBF8F008FB103331
:1042000044EA034400FB07F7A7420AD91CEB040465
:1042100000F1FF3380F00A81A74240F20781644435
:10422000023840EA0640E41B00261DB1D4400023BA
:10423000C5E900433146BDE8F0878B4209D9002D1E
:1042400000F0EF800026C5E9000130463146BDE8A8
:10425000F087B3FA83F6002E4AD18B4202D3824212
:1042600000F2F980841A61EB030301209E46002DC1
:10427000E0D0C5E9004EDDE702B9FFDEB2FA82F216
:10428000002A40F09280A1EB0C014FEA1C471FFA74
:104290008CFE0126200CB1FBF7F307FB131140EA5B
:1042A00001410EFB03F0884208D91CEB010103F128
:1042B000FF3802D2884200F2CB804346091AA4B2EA
:1042C000B1FBF7F007FB101144EA01440EFB00FEBE
:1042D000A64508D91CEB040400F1FF3102D2A64523
:1042E00000F2BB800846A4EB0E0440EA03409CE7C2
:1042F000C6F12007B34022FA07FC4CEA030C20FA6F
:1043000007F401FA06F31C43F9404FEA1C4900FA8E
:1043100006F3B1FBF9F8200C1FFA8CFE09FB18110B
:1043200040EA014108FB0EF0884202FA06F20BD97E
:104330001CEB010108F1FF3A80F08880884240F2CE
:104340008580A8F102086144091AA4B2B1FBF9F012
:1043500009FB101144EA014100FB0EFE8E4508D90D
:104360001CEB010100F1FF346CD28E456AD9023892
:10437000614440EA0840A0FB0294A1EB0E01A14277
:10438000C846A64656D353D05DB1B3EB080261EBE5
:104390000E0101FA07F722FA06F3F1401F43C5E9BF
:1043A000007100263146BDE8F087C2F12003D840F5
:1043B0000CFA02FC21FA03F3914001434FEA1C4737
:1043C0001FFA8CFEB3FBF7F007FB10360B0C43EA29
:1043D000064300FB0EF69E4204FA02F408D91CEBD9
:1043E000030300F1FF382FD29E422DD902386344D7
:1043F0009B1B89B2B3FBF7F607FB163341EA034177
:1044000006FB0EF38B4208D91CEB010106F1FF38C5
:1044100016D28B4214D9023E6144C91A46EA0046BC
:1044200038E72E46284605E70646E3E61846F8E64E
:104430004B45A9D2B9EB020864EB0C0E0138A3E797
:104440004646EAE7204694E74046D1E7D0467BE778
:10445000023B614432E7304609E76444023842E7F0
:10446000704700BF000000000000000000000000D6
:1044700001F0FF01102A2BDB10F0070F08D010F815
:10448000013B013A8B422DD010F0070F42B3F6D119
:10449000F0B441EA012141EA014122F007047FF032
:1044A00000070023F0E80256083C85EA010586EA89
:1044B000010685FA47F5A3FA87F586FA47F6A5FAC5
:1044C00087F68EB9EED1F0BC01F0FF0102F00702D1
:1044D00032B110F8013B013A83EA010313B1F8D17C
:1044E0000020704701387047002D06BF354603385D
:1044F000073815F0010F07D1013015F4807F02BF96
:10450000013015F4C03F0130F0BC0138704700BFE6
:10451000EC46A0E8F05F4FF000007047B0E8F05FB5
:10452000E546080008BF0120704700BF10F8012BC6
:1045300011F8013B012A28BF9A42F7D0D01A7047E0
:1045400030B583B004466D464168284603F0ECFC64
:1045500009492078094C2C2200F0ECF9034695E833
:10456000030003F120025C6082E80300012283F86B
:104570002A2003B030BD00BF414500088145000836
:1045800038B500F12005044695E8030003F0FCFC73
:1045900020B1A3681844A060012038BD95E803004D
:1045A00003F0FAFC94F82A3094F82B2093421CD2A2
:1045B000218B0133DBB2084480B29A42208384F815
:1045C0002A3018D8638B83421BD8A38B834218D31D
:1045D000002384F82830134801F0C2FD6369E268C3
:1045E00013446361A360012038BD01239A422083F4
:1045F00084F82A30E6D9A36822691344A360012015
:1046000038BD94F8283094F829200133DBB29A425F
:1046100084F82830DFD8044802F048FD01F01CFE81
:10462000D6E700BF640000202491000838B5154982
:104630000546007800F05EF9044601F005FD04F13E
:10464000200393E8030003F0AFFC6B686361A36091
:10465000AB6823612B7B84F82B305A1C84F82A200A
:104660002A69E260D5E90501EA6984F829206083B6
:10467000A18303B938BD20461F21BDE8384001F0B1
:10468000F5BD00BF414500082DE9F041214884B047
:1046900001F06EFD30B3FF231F4D204F204E8DF8EB
:1046A0000F3029460DF10F0000F070F90446C8B133
:1046B00094F82A2094F82B309A42F2D103F0E2FFCA
:1046C00094F82B3094F82A20934203F101010CD086
:1046D00003F0DAFF29460DF10F0000F057F9044608
:1046E0000028E5D104B0BDE8F0816269B4F8188013
:1046F00084F82A10019203F0C7FF3046A7F8008023
:1047000002F0AEFE019A9DF80F10434600F032FD14
:10471000C7E700BF6400002041450008600000209A
:104720003891000830B583B0FF23124D8DF8073063
:1047300006E093E8030003F037FC94F82B305BB9F4
:1047400029460DF1070000F021F9044600F120038D
:104750000028EED103B030BD6269E16801330A443C
:1047600084F82A306261A2600021204601F07EFDBB
:10477000E6E700BF4145000808B5044B04482B227A
:104780001A6002F093FC01F03BFD00BF2401002001
:104790006891000808B503F06DFF034B033020F06B
:1047A0000300186008BD00BF6800002070B50E4E01
:1047B000336804461D1803F061FF85420CD8356844
:1047C000E31C23F003032B442246002128463360D8
:1047D00004F094FC284670BD044B054828221A605A
:1047E00002F064FC01F00CFD6800002024010020B0
:1047F00084910008024B1A6802601860704700BF7D
:104800007800002010B503F041FF084B1C682CB164
:1048100022681A6003F03EFF204610BD044B054895
:104820002A221A6002F042FC01F0EAFC7800002023
:1048300024010020989100080068B0FA80F0400937
:10484000704700BF0068704703460A680020186080
:104850001AB14A6813604B607047C1E90033012008
:10486000704700BF03681A6802601846704700BFAF
:1048700000230360704700BF08B5FF294FF0000315
:10488000C0E9003308DC054B1B882BB9044B1A78B0
:104890008A42B8BF197008BDFFF76EFF7400002090
:1048A0007C0000200F4B188810B4A0B1013815D03F
:1048B0000D4A0E4B146893F800C000222346194697
:1048C0000132634482420B60F9D102FB0C42084B77
:1048D000002111601C605DF8044B7047024B1C689E
:1048E0002246F4E774000020800000207C000020B5
:1048F0007800002008B50B4B1B78834209D90A4B7E
:104900001B6853F830208A4203EBC00001D1406895
:1049100008BD064B06482D221A6002F0C7FB01F0C5
:104920006FFC00BF840000208800002024010020CC
:10493000AC91000870B5104B1C7803469C421046A1
:1049400011D90E4D1AB2DC002B6853F8326056B9FB
:104950000B4E36883EB943F83210FFF727FF2B681D
:104960002344586070BD074B07482E221A6002F09E
:104970009DFB01F045FC00BF840000208800002062
:104980007400002024010020C091000830B50E4AB8
:1049900003780E4C126894F800E003F1010C5FFA02
:1049A0008CF302EBC30205E052F8084B8C4203F192
:1049B000010C06D05FFA8CF39E451546F4D8002012
:1049C00030BD0370686830BD88000020840000207E
:1049D00038B50A4C236843B90568E8B2C000FFF750
:1049E000E5FE074B20601D7038BD064B06482F22A0
:1049F0001A6002F05BFB01F003FC00BF880000209E
:104A00008400002024010020D491000830B50D4D11
:104A10000D4885B002F024FD29880C4B003918BFE1
:104A200001211A6803920446029101F0A9FB034692
:104A300028880090DDE90212204600F09BFB05B0BB
:104A400030BD00BF74000020EC9100086C00002015
:104A50002DE9F0411E4F3B88064683BB1D4BDFF816
:104A60008C801D78D8F80040032D9CBF04251D7054
:104A700003F004FE002322462C44A04213D301334A
:104A8000B3F5806FF7D11D46D8F80000201AFFF764
:104A90008DFE114B3D801860FFF704FF0F4B32680D
:104AA0001A60BDE8F08113B19DB21446ECE70C4BDF
:104AB0000C4829221A6002F0F9FA01F0A1FB084B18
:104AC00009482C221A6002F0F1FA01F099FB00BFAC
:104AD000740000207C000020800000206C0000207A
:104AE000240100203C920008289200086800002061
:104AF00010B5064802F0B4FC044603F0FDFD014683
:104B00002046BDE8104000F035BB00BF50920008C1
:104B100010B582B003F0F0FD094A0A4B11681B681A
:104B20000446A34288BF01310748019102F098FC76
:104B30000199224602B0BDE8104000F01BBB00BF47
:104B4000900000208C000020609200082DE9F041C8
:104B5000264D274E2B68274F01332B603368081AE8
:104B60000344B0F5803F0C46336019D23B6800FB2C
:104B700000F0FF3003EB1020984238BF4FF0FF30B9
:104B800038601D48DFF87C8003F0B0FDD8F80030B5
:104B900001461944204603F0ABFD70B1BDE8F08139
:104BA000B0F5801F06D200F1FF023B68120A00FB3D
:104BB0000230E1E74FF0FF30E2E7104802F050FC2E
:104BC0003B683268296800F0D5FAD8F80030A34273
:104BD00003D90B4A1368013313600023C8F800405F
:104BE0003B6033602B60BDE8F08100BF70000020A7
:104BF0009400002098000020404B4C007892000860
:104C0000900000208C00002008B5044B044831229D
:104C10001A6002F04BFA01F0F3FA00BF2401002001
:104C20009892000801F000BB10B50E4B04681B6899
:104C300042689C4282B012D2D2B21119994201D973
:104C40001A1BD2B20848019202F00AFC074B019AE3
:104C50002344214602B0BDE8104000F08BBA002288
:104C6000F0E700BF48A30008A89200085C9A00087B
:104C7000704700BF704700BF00B50849084A094B9C
:104C80000968094812681A6083B0019102F0E8FBD4
:104C9000019903B05DF804EB00F06CBAA4010020A8
:104CA0005801002044010020D092000810B50648A9
:104CB00002F0D6FBBDE8104041F6B33340F2652266
:104CC00040F2EA7100F056BAE492000838B5094A99
:104CD000094B15681C6802F08DFF084802F0C0FB04
:104CE000621B002A2946B8BF5242BDE8384000F096
:104CF00041BA00BF44010020580100200C93000875
:104D000010B5064A064C036806482360138002F07B
:104D1000A7FB2168BDE8104000F02CBA3E0000203F
:104D2000000000202C930008F8B5877F04469FB14F
:104D300000252F4601262B46043304EBC30393E8DA
:104D4000030003F02BFA01357100EBB200B13743D9
:104D5000A27F9A42CEB2EFD8227CBA4207D0637CBF
:104D60007B40DB4382EA0701DBB20B4210D194F9AE
:104D70001C30257F6774002B04DB013DEDB2FF2D55
:104D80001ED02577D4E9023213440120A360F8BD78
:104D900022EA03023B401343A27C2374072AE6D88D
:104DA000511C2244A1740848D37401F0D9F9FF239F
:104DB0002377D4E90232677413440120A360F8BD5D
:104DC000014801F0CDF9DCE79C00002010B5047922
:104DD000082C09D8221D08490078D200FFF7AAFD47
:104DE000064B8477436010BD054B064825221A60A8
:104DF00002F05CF901F004FACD4D0008294D0008DD
:104E0000240100204C93000870B51149054682B07A
:104E10000078FFF76FFD2B79827F9A4204460ED906
:104E20006E46D5E9021230461D1D03F08FF996E853
:104E3000030004EBC50484E8030002B070BD054B19
:104E4000054826221A6002F031F901F0D9F900BFB5
:104E5000CD4D0008240100206093000838B51449A6
:104E600005460078FFF746FD044601F0EDF86B6853
:104E7000A360A968E16000232A7CA374E376FE2383
:104E8000627422742377EB6863771B0607D401B939
:104E900038BD20463021BDE8384001F0E7B9054B68
:104EA000054827221A6002F001F901F0A9F900BFB4
:104EB000CD4D0008240100208893000838B515491D
:104EC00004460078FFF716FD2479C37E0546234487
:104ED000C37603F0D7FBAB7CA34207D8FE230022A6
:104EE000AA742B77BDE8384003F0CEBB1B1BD8B2A9
:104EF00005F1130204F112032B44141813F8011FD7
:104F000002F8011BA242F9D1A874BDE8384003F0B1
:104F1000BBBB00BFCD4D0008F0B51A4885B001F00D
:104F200027F948B3FF23184D184F8DF80F30294645
:104F30000DF10F00FFF72AFD0446E8B1237FFF2B98
:104F4000F5D103F09FFBA67CC6B1637F237703F006
:104F50009BFB384602F084FA1334227A9DF80F1036
:104F60000094334600F006F929460DF10F00FFF7D3
:104F70000DFD04460028E1D105B0F0BD03F084FB2F
:104F8000D5E700BF9C000020CD4D0008AC93000881
:104F9000704700BF70B514799668651EA4B381424E
:104FA00033D316F8012B042A20D810F8012B02F075
:104FB000600CBCF1600F03F1040E02F07F0408D115
:104FC00064F01F0405E010F8012B02F07F0C4CEA9E
:104FD000C4141206F7D41C60B5B1814215D316F87B
:104FE000012B042A05F1FF357346DED9072A0CD1BF
:104FF000024612F8014B1019884206D89E464EF818
:10500000084B5A60002DEAD170BD024802F04EF8FC
:1050100001F0F6F8D89300082DE9F8438B78052BBA
:10502000064694461C4666D9053B821CD4180B885C
:10503000CF784D687F2B00F28C80114603F07F0300
:1050400001F8013B002F53D08C42C0F08A802F44DE
:1050500030E05CF8043B03F120027F2A22D903F5FB
:105060008052B2F5804F18D303F50022B2F5001F2D
:105070000ED303F18062B2F1805F04D31A0F62F0A5
:105080007F0201F8012B5A0D62F07F0201F8012B1B
:105090009A0B62F07F0201F8012BDA0962F07F02BD
:1050A00001F8012B03F07F0301F8013BBD421FD043
:1050B0008C4256D315F8013B052B30D0C9D9063B9D
:1050C000012B4ED8E0460B4658F8082B611A914246
:1050D00028BF114603F8011B89460A461846DCF82A
:1050E000041003F0E3FFBD4200EB0901C446DFD129
:1050F000891BCC1CE3B21D4A337012787270E51E16
:105100002946304603F0C6FB030A735526447E2326
:1051100006F8020C06F8013C2046BDE8F8835CF86E
:10512000040B03784A1C6BB1944202D817E09442F6
:105130000BD002F8013B10F8013F002BF7D1531AB6
:10514000013BDBB20B701146B0E7631A013BDBB2E7
:10515000F8E7DA0962F07F028270C21C6DE7002373
:10516000F0E7034801F0A2FF01F04AF80400002034
:10517000F09300080FB430B5084D2C7883B0E4B23A
:105180003CB9012307A906982B70019103F026FA78
:105190002C7003B0BDE8304004B070479D00002083
:1051A000014B00221A7070479D0000202DE9F04B42
:1051B000804615460C4619B900202860BDE8F08BE2
:1051C0002F4E3778FA0711D40429F5D907787B1FB9
:1051D0003B2B05D890F8019029F00F03102B1ED01F
:1051E0007E2F36D0337843F00107377022467E2178
:1051F0004046FFF73DF950B3A0EB080007F0FE076B
:10520000013037702860BB071DD447F002033370AC
:105210001C48FFF7AFFF4FF0FF30BDE8F08BB942FD
:10522000CAD3C31913F8012C7E2AD9D1F91E13F859
:1052300002BC435C4BEA032B03F02CFB83450DD0EF
:1052400098F80070CCE74FF0FF30BDE8F08B2C6091
:10525000D9E701232B604FF0FF30AFE70A493278DE
:105260000B782F6022F002024B453270D0D101330F
:1052700003F00F0343F010030B7001209EE700BF03
:105280009E00002018940008040000202DE9F04B37
:10529000033900F10209451882B0A94500AF30D2A8
:1052A000DFF8948099F9002099F80040002A6E46B2
:1052B0002BDB09F10100ACB31D4B1B889C4231D2A2
:1052C00008EB0412294693787A609B00073303F4B5
:1052D000FF63ADEB030DEB465B46FFF75BFE24017E
:1052E000814600F04DFF18B17A68D278D30715D502
:1052F000444403F0D7F9E26858469047B546A945BB
:10530000D0D30837BD46BDE8F08B99F80120E40101
:1053100004F47E5409F102001443CCE700F04EFF80
:10532000B546ECE7034801F0C1FE00F069FF00BF9D
:10533000BCA60008089400084CA300080148FFF729
:1053400019BF00BF1894000830B5D0E9004083B001
:10535000FFF71EFE054603F099F9E3B2012B0FD0CB
:10536000022B10D02978C9B2019103F093F90748B4
:1053700002F076F8019903B0BDE83040FFF7FABEBD
:10538000298889B2F0E72968EEE700BF2094000879
:1053900070B50446D0E90050FFF7FAFDA668044650
:1053A00003F074F9EBB2012B07D0022B0BD0F6B24D
:1053B0002670BDE8704003F06DB9B6B22680BDE836
:1053C000704003F067B92660BDE8704003F062B931
:1053D00010B5D0E9004082B0FFF7DAFD0190054832
:1053E00002F03EF8019AE1B202B0BDE81040FFF7CA
:1053F000C1BE00BF34940008704700BF30B50B49F0
:1054000083B0044628220078FFF794FA6D460346DD
:105410006168A26828461C4602F098FE95E80300E1
:1054200004F10C0383E8030003B030BDFD53000812
:1054300038B500F10C03044693E8030002F0AEFE19
:1054400094F8245088B1ED4305F001058DB994F826
:105450002630013B13F0FF0315D0A268A16984F840
:1054600026300A44A260012038BD05F00105002D58
:10547000EDD00849E26994F8253084F82630C4E973
:105480000112012038BD206A94F8271001F074FC45
:10549000284638BD9954000800F10C0310B50446A5
:1054A00093E8030002F07AFEA36862691A4494F854
:1054B000243030B1DB4303F0010333B1A26001209B
:1054C00010BD03F00103002BF8D1044BE2616360CF
:1054D0002046BDE81040FFF7ABBF00BF31540008C5
:1054E00070B51D4905460078FFF704FA044600F040
:1054F000ABFD6B68A360AB68A3612B7B84F82530A0
:1055000043B91648164A84F82430012103702362F7
:10551000117070BD02F014F92A6994F8253084F8EE
:10552000263062616A690D4B002A14BF03220222F1
:1055300084F824200B4A287E626001261E7001F048
:1055400047FCEB6984F82730206231462046BDE8ED
:10555000704000F08BBE00BFFD5300089F0000208C
:105560003C000020995400082DE9F041134E1449E5
:1055700001233370077884B03846FFF7BBF904463F
:1055800003F080F8E36994F82480039303F07CF837
:105590000C4801F065FF0C34054694E8030002F066
:1055A000FDFD039B0090C8F3400239462846FFF7F3
:1055B000E1FD0023337004B0BDE8F0819F000020BE
:1055C000FD5300084494000838B505780D49284675
:1055D000FFF790F9044600F037FD002394F82510FA
:1055E000094A84F82610236284F82430137002F0EC
:1055F000A7F8064801F034FF29460122BDE83840EB
:10560000FFF7B8BDFD5300089F00002080940008FC
:1056100030B5D0E9011283B0003A04466D4618BF98
:105620000122284602F010FD0F4920783422FFF7AE
:1056300081F9034695E8030003F1180282E80300AC
:10564000D4E90221003A18BF012209B142F0100248
:1056500083F8302022691A620C2103F1280003B07C
:10566000BDE83040FFF708B9115600082DE9F843AE
:1056700000F1280804464046FFF7DEF8002840F015
:10568000A0804046FFF7EEF885682E1E18BF012661
:1056900004F118030746324693E8030002F00EFDBA
:1056A0003846FFF7A7F8C5B1636AAB4215D9276A38
:1056B000002F68D1404646F00206FFF7BDF80028EB
:1056C00000F0878094F83030676103F010033343B3
:1056D000A66884F830302E4426E094F83030B5FACD
:1056E00085F283F01003C3F3001352099A4225D0C8
:1056F000276A1FB3A168404646F004060F44FFF72F
:105700009BF8002848D094F83030676103F010030C
:10571000334384F83030B30726D5A6682E44394683
:10572000304602F0E5FFF8B1636A2B4A5B1BC4E91F
:105730000126C4E903530120BDE8F8834046FFF782
:105740007BF8A8B981464046FFF77CF8476894F893
:105750003020676146F0040602F01002164384F818
:105760003060B9F1000FD8D1A7600120BDE8F883FF
:1057700094F8303003F010033343002084F83030C5
:105780006061BDE8F883A168404646F006060F4414
:10579000FFF752F80028B6D14046FFF753F803460A
:1057A00038465F68394602F0A3FF06F00209002878
:1057B000CDD00A4B0A481E221A6001F077FC00F097
:1057C0001FFD064B07481D221A6001F06FFC00F018
:1057D00017FD4FF00209B6E7E95700082401002041
:1057E000D0940008A494000838B5044600F11803CA
:1057F00093E8030002F058FC94F83030A56883F079
:105800000103DA074CBFE268226984F830305B0795
:10581000154402D4A560012038BD6169284602F014
:1058200067FF0028F6D1034B65696360A56001201E
:1058300038BD00BF6D56000838B50D4905460078E3
:10584000FFF758F8044602F01DFF04F12800FEF7A8
:10585000F3FF28B16B686362BDE8384002F014BF03
:10586000044B05481F221A6001F020FC00F0C8FC20
:10587000115600082401002008950008F8B52349B6
:1058800006460078FFF736F80446FEF7BBFF776858
:105890004760B3688360054602F0F4FE04F1280116
:1058A0002846FEF7D1FFA0B194F830506A071ED405
:1058B00045F0040384F83030AB0767610DD420460F
:1058C00000F0C2FB124B0F21C4E90137204600F063
:1058D000CDFCBDE8F84002F0D7BEA068394602F022
:1058E00007FF0028EBD0BDE8F84002F0CDBE6069AC
:1058F000394602F0FDFE0028DAD0064B0648202289
:105900001A6001F0D3FB00F07BFC00BF11560008C9
:105910006D56000824010020D0940008F8B52449F1
:1059200005460078FEF7E6FF044600F08DFB04F123
:105930002800FEF781FF90B32E7994F83050371E7F
:1059400018BF012704F1180393E803003A4602F058
:10595000B5FB85F01001B6FA86F35B09C1F30011BF
:105960008B4201D0236A2BB905F010053D4384F822
:105970003050F8BD02F0C0FE05F01005236A3D432B
:10598000184445F004050B4B84F83050C4E901304D
:1059900060610E212046BDE8F84000F067BC064B70
:1059A000064821221A6001F081FB00F029FC00BFAB
:1059B000115600086D56000824010020409500088B
:1059C00030B583B0FF23124D8DF8073013E094F803
:1059D000302093E8030002F0100202F06FFB94F80D
:1059E000303013F0100318BF112304F1280084F89D
:1059F0003030FEF73DFF29460DF10700FEF7C6FFE8
:105A0000044600F118030028E1D103B030BD00BF07
:105A10001156000800B5034683B0D3E9001268466A
:105A200002F012FB03B05DF804FB00BF70B50A4B37
:105A30001E68002E82B00CDD084D00242A7955F82E
:105A4000081B684602F00102013402F0FDFAB4427C
:105A5000F4D102B070BD00BF74A7000874A700089D
:105A600070B582B004466D4641680022284602F0B7
:105A7000EBFAA3689EB21B0412D406F118020C497B
:105A8000207892B2FEF756FF034695E8030083E8BC
:105A90000300D4E903129E8299601A6102B070BDBE
:105AA000044B05481A221A6001F000FB00F0A8FB25
:105AB000615A0008240100207095000870B5114952
:105AC00004460078FEF716FF0346D4E902606568D5
:105AD0001C46FFF75DFA2B0401460AD4A28AAB19D3
:105AE000934206D8163532466019BDE8704003F07F
:105AF000DDBA054B05481B221A6001F0D7FA00F009
:105B00007FFB00BF615A0008240100208C9500082B
:105B10002DE9F04B2DED028B0378624988B01846D1
:105B200008EE103AFEF7E6FED0E90354059002F0C5
:105B3000E3FD401B844206D902F0B4FD02F0DCFD17
:105B4000401B8442F8D8059D95E8030005F1160234
:105B5000AF8A039706AE86E803000492029202F031
:105B6000CBFDAB6801930446002F50D0DFF848917D
:105B7000029B13F8017B02934FF008083B064A484A
:105B80004BD502F0B3FDA9FB0035AD0C02F0B4FD1E
:105B9000001B8542FAD802F075FD02F0ADFD054606
:105BA00096E8030002F080FA02F06EFD019B2C1BC8
:105BB000A3425FD93D4802F099FDA9FB00347F0064
:105BC000A40C02F099FD401B8442FAD802F05AFD61
:105BD00096E8030002F068FA02F056FD02F08CFD30
:105BE0008346334802F082FDA9FB0034A40C02F086
:105BF00083FDA0EB0B008442F9D82C46B8F10108D4
:105C0000BCD1DDE903231344029A9A42B0D102F0D9
:105C100073FD059B0122D86036E002F067FDA9FB09
:105C20000035AD0C02F068FD001B8542FAD802F089
:105C300029FD02F061FD834696E8030002F034FA84
:105C40001B4802F053FDA9FB0035AD0C02F054FDDA
:105C5000A0EB0B008542F9D896E8030002F024FA85
:105C600002F012FD019BABEB0404A34202D97F00BA
:105C70005C46C3E7002296E8030002F01FFA02F038
:105C80003BFD059B0022D8600A48019201F0E8FB29
:105C9000019A18EE101A08B0BDEC028BBDE8F04B6B
:105CA000FFF768BA615A0008D012130010EB090020
:105CB000400D0300AC95000883DE1B4330B50C4952
:105CC00083B004462C220078FEF734FE6D4603466E
:105CD0006168A26828461C4602F038FA95E803007D
:105CE000044A04F1240383E80300626003B030BD7A
:105CF000BD5C0008F95C000870B58369044600F1DA
:105D0000240292E8030003F00105A66802F046FAB7
:105D1000854203D0A369E6610133A361606931461E
:105D200002F0E6FC28B9D4E9023213440120A36052
:105D300070BD94F8202023690748334442F00102E3
:105D400084F82020636100F00BFAD4E90232134496
:105D50000120A36070BD00BFA000002038B50A4933
:105D600005460078FEF7C6FD044600F06DF96B6845
:105D7000A360AA68E260EA682046C4E904233821E7
:105D8000BDE8384000F072BABD5C000870B51C4830
:105D900086B000F0EDF980B3FF231A4D1A4E8DF84E
:105DA000173029460DF11700FEF7F0FD044620B329
:105DB00094F82030DB07F4D502F064FC94F820104E
:105DC000A268A369039221F0010184F820100293D4
:105DD000E46902F059FC304601F042FBDDE9023291
:105DE0009DF817100094FFF7C5F929460DF117002B
:105DF000FEF7CCFD04460028DAD106B070BD00BF26
:105E0000A0000020BD5C0008D095000838B5027BDA
:105E100081680446007902F0DDF90949054620222F
:105E20002078FEF787FDD4E90412064BC560818215
:105E300043600261BDE838400C211830FEF71CBDFC
:105E40000D5E0008495E0008F8B500F1180604462A
:105E50003046FEF707FD078905463946E06802F03F
:105E6000BBF92846FEF7C6FC3046FEF7E5FC60B1FC
:105E7000A38ABB4224D0206900B9F8BDA368114AA7
:105E80001844C4E901200120F8BD3046FEF7DAFCD1
:105E9000A38A4568BB4201D0236913B9A5600120DC
:105EA000F8BDA0682946184402F022FC0028F5D06D
:105EB000054B064818221A6001F0F8F800F0A0F926
:105EC0000020F8BDD15E0008240100200C960008D7
:105ED00008B5044B044817221A6001F0E7F800F0F7
:105EE0008FF900BF240100203C96000870B51C49C2
:105EF00005460078FEF7FEFC0646FEF783FC6B685D
:105F00004360AB680381044602F0BCFB06F1180154
:105F10002046FEF799FC054602F0B6FB05B970BDB8
:105F2000304600F091F80F4B72689A4209D06368CE
:105F30000D4A3046C6E901232D21BDE8704000F02E
:105F400095B96168B06802F0D3FB0028EFD0074B29
:105F5000074819221A6001F0A9F800F051F900BFB2
:105F60000D5E0008D15E0008495E00082401002093
:105F70000C96000870B582B0FF230C4D0C4E8DF8C6
:105F8000073008E0E068A18A02F026F9666004F1B3
:105F90001800FEF76DFC29460DF10700FEF7F6FC30
:105FA00004460028EED102B070BD00BF0D5E0008AF
:105FB000495E0008027A4168007802F00BB900BF20
:105FC00000207047084B094810B500221A7202F0F1
:105FD0008DFB074A074994680346234403F10044B4
:105FE000012093608C6010BD08000020A086010095
:105FF000200000202C00002010B5044601F076FCA3
:106000000C4B1B78012B09D04FF4FA7002F06EFB99
:10601000A368024613440120A36010BD064A11780C
:106020000029F1D1054906481370064B0968016043
:106030001960E9E760010020AD0000204401002064
:10604000500100203801002010B5044602F01EFB6C
:106050000E490B68A34202D111E0A3420CD01A46AC
:106060001B68002BF9D14B68A34204BF084B4B605F
:10607000BDE8104002F00EBB23681360F3E7054B48
:10608000A2689A6022681A600B60ECE708000020A2
:1060900020000020140000202DE9F8431C4F3E682A
:1060A000736830463BBB00F005FBB568336838B316
:1060B0009968284602F01CFB10B12846BDE8F88319
:1060C0007C683368A168D3F808903B60284602F0EA
:1060D0000FFB00B13C68A04624682846A16802F086
:1060E00007FB0028F7D04D4634607E60C8F800609A
:1060F0002846BDE8F8839847B56833680028D7D1AB
:106100007A689D683B60B242D7D17B60D5E700BF1B
:1061100008000020074B084A0849094810B49C6849
:1061200094605DF8044B0A604B601360186002F0E5
:10613000E9BA00BF20000020140000200800002061
:106140002C000020014B00221A727047080000202A
:10615000024B187AC043C0F3C010704708000020FB
:10616000024B00221A7201230370704708000020BE
:1061700003780246D8B210B1002313700120704793
:10618000024B587A003818BF0120704708000020E1
:1061900010B5064801F064F9054B064A06491B682C
:1061A00012680978BDE81040FEF7E4BF6896000861
:1061B000A8000020A40000200C01002008B50A4817
:1061C00001F04EF9094B0A4A0A491B68097812681E
:1061D000FEF7D0FF084801F043F9084B997ABDE873
:1061E0000840FEF7C7BF00BF68960008A80000205F
:1061F000A40000200C010020A09600080800002048
:1062000000B583B0019002F03DFA01990148FEF714
:1062100085F900BFB000002008B5024800F046FF35
:10622000FFF7EEFFC496000808B5084A537A23B179
:10623000022B1CBF0023537208BD054B05481622D4
:106240001A6000F033FFFFF7DBFF00BF08000020FB
:1062500024010020DC96000808B5034B5B7A03B1EB
:1062600008BDFFF7CDFF00BF080000202DE9F04B6F
:10627000DFF8949085680E46074602F007FAD9F8D1
:1062800000408046A168284602F032FA70B92646DE
:1062900024682846A16802F02BFA0028F7D03C6059
:1062A00037604046BDE8F04B02F0F4B902F024FA42
:1062B00083460146284602F01BFA58B90D4BC9F82F
:1062C00000309C4208BF24683C609D601F6002F063
:1062D00019FAE6E7084B09481D60094BC3F800B0FE
:1062E000084B1E7000F0E2FE99F80930002BE5D152
:1062F000FFF786FF14000020A80000200097000888
:10630000A40000200C0100200800002038B50A4D30
:106310000A4B6B6002F0F0F904464FF4FA7002F099
:10632000E5F900230444AC6028462B606221BDE8F7
:106330003840FFF79BBF00BF10010020F95F000845
:106340002DE9F04383B000F065FE01F0AFF901F0F4
:106350005BFAFFF7DBFF364801F082F8FEF70AFF31
:1063600002F090F93348FEF7D3F80446002840D1F4
:1063700002F08AF902F0C0F92F4D304E304F2860FC
:1063800023E002F0B9F92B68181A286002F07AF9B4
:1063900096F9083023BB02F077F902F0ADF92B68CB
:1063A0001844286086F8088000F05AFE02F0A4F92C
:1063B000044621462868FEF7C9FB3B782C60DBB217
:1063C0003BB100233B7001F067FC4FF0FF094FF039
:1063D000010802F067F996F90830002BE2D0D0E707
:1063E00086F8089002F05AF996F90830002BF9D196
:1063F000D1E702F047F902F07FF9104B5A7A0146D3
:1064000002B99C720D4C019102236372FFF782FE68
:1064100000F00EFE0123637202F036F9FFF7B8FEBA
:10642000084801F01DF8A27A0199FEF7A3FE9FE744
:1064300010970008B00000201C0100200800002078
:10644000AC0000201C97000838B500F13405044664
:106450002846FEF7F1F910B10020606138BD2846EA
:10646000FEF700FAB0F90830426823821344E36073
:1064700094F84430D90605460FD5A1684389636175
:106480000A44A2602A7BD20711D4226B13442363EF
:106490002846FEF7AFF9012038BDA16943890A44B7
:1064A000A261A2605A0062612A7BD207EDD5216BFE
:1064B00004F128025B1A236392E8030001F0F4FD63
:1064C000E6E700BF70B500F12003044693E803003F
:1064D00001F0EAFD02F010F96369E169013BDA07B6
:1064E000636100EB010503D5A5600126304670BD50
:1064F00083B1E268A069B4F9103010441344A0617C
:10650000E360294602F0F4F80028EDD1A369A36006
:106510000126EBE72046FFF797FF06460028E5D067
:10652000A068294602F0E4F80028DFD0A3684FF401
:106530007A705E1B02F0DAF84042B042D4DD044BC0
:1065400004480E221A6000F0B1FDFFF759FE00BFAB
:1065500024010020449700082DE9F0410546324906
:10656000007882B04822FEF7E5F9EF68002F044674
:1065700027DD04226E4680F844206968304601F029
:1065800063FD96E8030004F1200383E80300002282
:10659000A968304601F058FD96E8030004F128038D
:1065A00083E803004FF0404323632B69E36110212C
:1065B00004F13400FEF760F91C4B636002B0BDE8E3
:1065C000F0814FF000086E4680F8448069684246CA
:1065D000304601F039FD96E8030004F1200383E81A
:1065E00003004246A968304601F02EFD96E80300FC
:1065F00004F1280383E803004FF0404323632B6931
:10660000E361102104F13400FEF736F9E369002B51
:10661000D2D1002FD0D094F8443043F0100384F846
:10662000443002B0BDE8F08159650008C564000837
:1066300038B50446A0F13C052846FFF705FD237A4E
:1066400054F80C1C002244F8342C44F8242C54F840
:10665000282CD8064CBF891AA1EB520103F0140371
:10666000002943F00803C8BF49420022237205F104
:10667000280344F80C1C44F8282C93E8030001F08C
:106680001DFD227AD3060DD5083C03E0FEF7EAF89B
:10669000FEF7B0F82046FEF7CFF803462046002B61
:1066A000F4D038BD203595E8030002F0040201F073
:1066B00005FDE9E700F1200310B5044693E8030067
:1066C00001F0F2FC6369013B0AD0D4E90210B4F98D
:1066D0001020636101440244C4E90212012010BD8C
:1066E0002046BDE81040FFF7AFBE00BF70B5294996
:1066F00005460078FEF7FEF80646FEF783F86B685D
:1067000043602B8943810446002B3BD0EA68028119
:106710000023037301F0B6FF96F8443003F0010143
:10672000C3F34002914205D0227B42F0010283F084
:10673000010322737269D2B91A0711D406F1340128
:1067400086F844302046FEF77FF83046FFF77CFE9F
:1067500030461621FFF78AFDBDE8704001F094BF76
:106760002046FEF747F8BDE8704001F08DBF86F87F
:10677000443006F134012046FEF766F8BDE870406B
:1067800001F082BF044B05480F221A6000F08EFC16
:10679000FFF736FD59650008240100205C970008CA
:1067A00038B50C4904460078FEF7A4F8636804463F
:1067B000002B14BF0225002501F064FF94F844303B
:1067C00023F002031D4384F84450BDE8384001F033
:1067D0005BBF00BF5965000838B50F490546007812
:1067E000FEF788F804466D6801F04CFF63695BB9F9
:1067F00094F84430A56023F00803A56184F8443080
:10680000BDE8384001F040BF044B054810221A6033
:1068100000F04CFCFFF7F4FC59650008240100204F
:106820007497000870B506780F493046FEF762F895
:10683000054601F027FF95F844302C6B6A69DB06AA
:106840004CBFA41AA4EB520401F01EFF002CB8BFE9
:106850006442064800F004FE04F140423146BDE8BF
:106860007040FEF787BC00BF596500089C97000880
:1068700038B5084904460078FEF73CF8054620790B
:1068800000F0A6FA05F13C01034ABDE8384000F0EB
:10689000A5BA00BF596500083166000830B583B05D
:1068A000FF230B4D8DF8073006E0FDF7E1FF0021D7
:1068B00004F13C00FFF7BCFE29460DF10700FEF78E
:1068C00065F804463430002CEFD103B030BD00BF72
:1068D000596500082DE9F043044685B01A4900784F
:1068E0003422FEF727F894F80890D4F80480E7687B
:1068F000B9F1000202AE054618BF012241463046FA
:1069000001F024FC96E8030005F114036E4683E8C9
:10691000030001223946304601F096FB96E8030059
:1069200005F10C0383E80300B9F1000F08BF012350
:1069300022692A6218BF1123B84508BF43F020031B
:106940002B7705B0BDE8F083D568000838B504465C
:1069500000F10C0393E8030001F0A6FB637F94F8B9
:106960001CC094F81FE0656A0133DBB28CF0010CA7
:10697000734584F81CC00CF0010C29D204EBD3023F
:1069800003F0070192F828200A4102F00102944521
:10699000294607D016E092F82820024102F00102B1
:1069A00094450FD10133DBB2734504EBD30203F0FE
:1069B00007002944EFD3A368064A0B44C4E9012326
:1069C000012038BDA26863770A44A260012038BD67
:1069D0002946F0E7416A000800F10C0310B50446AF
:1069E00093E8030001F060FB01F086FE637F227FE5
:1069F0000133DBB282F00102012B2277637719D0D9
:106A0000042B05D8A268236A1344A360012010BD9B
:106A1000A368626A1A44801A811C226A48BF411D19
:106A200002EBA1011844054A61620844C4E901204F
:106A3000012010BDA268801A6062E4E74D69000879
:106A400010B5837F0446B3B1027F93060AD4A368CE
:106A5000606A164A002103EB80036177C4E90123D1
:106A6000012010BD00F1140393E8030002F01002AE
:106A700001F030FBEBE7037F13F0200F00F10C0374
:106A800093E803004FF001020CD101F017FB237FC4
:106A9000074803F0300343F009032377FFF760FB57
:106AA000002010BD01F08CFAF1E700BF396B00083F
:106AB0002001002000F1140310B5044693E8030000
:106AC00001F06CFB637F04EBD30C012203F00701A0
:106AD00002FA01F19CF8282078B10A43D2B28CF86E
:106AE0002820A27F0133DBB29A4209D9A268616AE9
:106AF00063770A44A260012010BD22EA0102EEE79A
:106B0000237F13F0200F04F10C0393E803004FF0F0
:106B100001020CD101F0D2FA237F064803F03003C2
:106B200043F009032377FFF71BFB002010BD01F0A2
:106B300047FAF1E72001002000F1140310B50446E4
:106B400093E8030001F02AFB237F68B143F00403BC
:106B50002377637F5A1C3F2B62770FD8A368626A42
:106B600013440120A36010BD5B07F2D56077114B81
:106B700063602046BDE81040FFF79CBF237F0022E2
:106B8000A27713F0200F04F10C0393E803004FF0F9
:106B900001020CD001F014FA237F074803F0300300
:106BA00043F009032377FFF7DBFA002010BD01F063
:106BB00085FAF1E7B56A000820010020F8B52649FA
:106BC00005460078FDF796FE037F13F002060446A3
:106BD00000D0F8BDA8682F79FEF7DAF90A2F2D7BCF
:106BE000014631D80A2D2FD83A4604F1280002F088
:106BF0005DFA237F667703F0310343F00203ED0073
:106C00002377FB00E377A5772FB194F8283003F0C2
:106C10003F032A2B15D0226A104B6262636001F099
:106C200031FD01F069FD0546C82001F05FFD2844F3
:106C3000A06033212046FFF719FBBDE8F84001F0C2
:106C400023BD074B6360EAE7064B074802221A6040
:106C500000F02CFAFFF7D4FAD56800084D69000857
:106C6000D969000824010020BC97000870B51848B5
:106C700082B0FFF77DFA48B3FF23164D164E8DF80C
:106C8000073029460DF10700FDF780FE0446E8B104
:106C9000237F1B07F5D501F0F5FC237F23F00803C4
:106CA000237701F0F1FC304600F0DAFBA27F9DF87B
:106CB000071004F12803D208FEF75CFA29460DF10B
:106CC0000700FDF763FE04460028E1D102B070BD65
:106CD00020010020D5680008D497000830B583B0A3
:106CE000FF23114D8DF8073008E003C901F068F962
:106CF000237F03F0300343F00103237729460DF18E
:106D00000700FDF743FE00F10C01012204460B468B
:106D100040B1207F8006E8D493E80300012201F00F
:106D2000CDF9E5E703B030BDD568000810B50446DD
:106D3000074894F8203043F0040384F82030FFF72C
:106D40000FFAA368A26913440120A36010BD00BF1D
:106D50002801002008B5242204490078FDF7EAFD47
:106D6000034A044B4260036108BD00BF556D000833
:106D70002D6D0008C16D000870B590F82030DA075D
:106D800004460E4619D5C06984F8211023F0050386
:106D900043F0040384F8203050B10025D0E90023EB
:106DA0003146E261C0E900559847E0690028F5D115
:106DB000BDE870400148FFF7D3B970BD280100203D
:106DC00008B503460C38997DFFF7D6FF002008BDB3
:106DD0000149FDF78FBD00BF556D000870B50C4629
:106DE0000546164601F052FC636843B93EB1EB69B3
:106DF000C4E90036EC61BDE8704001F04BBC044BC7
:106E0000044801221A6000F051F9FFF7F9F900BFB8
:106E100024010020F897000838B51A490546007883
:106E2000FDF768FD044601F02DFC2046FFF70CF944
:106E300004F10C00FFF708F9E36933B100211A46A9
:106E40001B68C2E90011002BF9D100220123238421
:106E500084F822206B68A360AB68C4E9063233B9BA
:106E6000EB6884F82230BDE8384001F00DBC2046C4
:106E70001D21FFF7FBF9EB6884F82230BDE83840AC
:106E800001F002BC556D000830B5114983B00546CC
:106E90000078FDF72FFD044601F0F4FB94F8203054
:106EA000DB0704D403B0BDE8304001F0EDBB04F1D2
:106EB0000C000190FFF7C8F86B68019863611C2112
:106EC000FFF7D4F903B0BDE8304001F0DDBB00BFEF
:106ED000556D000870B50678134984B005463046F4
:106EE000FDF708FD044601F0CDFB29792046FFF7A8
:106EF00043FF2046FFF7A8F8002504F10C00FFF738
:106F0000A3F894F8213084F82050039301F0BCFBDF
:106F1000064800F0A5FA039B00952A463146FEF785
:106F200029F904B070BD00BF556D00082098000815
:106F30002DE9F0411E4886B0FFF71AF9A0B3FF23F0
:106F40001C4E1D4F8DF8173031460DF11700FDF71F
:106F50001DFD044640B394F820305B07F4D501F0E2
:106F6000CBFB054601F08EFB94F8208094F821308D
:106F7000039328F0040284F8202001F085FB9DF89B
:106F800017100291384600F06BFA039B02990095A6
:106F900008F00102FEF7EEF831460DF11700FDF79B
:106FA000F5FC04460028D6D106B0BDE8F08100BF4C
:106FB00028010020556D00082098000870B5144E77
:106FC00082B0FF2331460DF107008DF80730FDF741
:106FD000DDFC00240546C8B1FFF736F805F10C00CA
:106FE000FFF732F8EB692BB11A461B68C2E900447F
:106FF000002BF9D1EC612C8485F8224031460DF14B
:107000000700FDF7C3FC05460028E5D102B070BDBE
:10701000556D000808B5FDF7BDFBFEF707FD01F053
:10702000E5F801F09BFBBDE8084001F0F5B900BFB1
:1070300008B5FEF7B5F8FDF735FCFEF7C1FCFFF724
:107040002DFCFFF7BBFFFDF76DFBFEF793FFFFF78E
:1070500045FE01F029FBBDE8084001F07DBB00BF03
:1070600008B501F01FFBFFF763FF01F01BFBFDF705
:107070000BFB01F017FBFDF74FFF01F013FBFFF7D0
:10708000F5FD01F00FFBFEF781FE01F00BFB01F0B7
:10709000A5F801F007FB01F0E9FB01F003FB01F0AB
:1070A00041FABDE8084001F0FDBA00BF10B5C04983
:1070B0000446FDF73BFA002800F02681BD49204632
:1070C000FDF734FA002800F01D81BB492046FDF78A
:1070D0002DFA002800F01C81B8492046FDF726FA59
:1070E000002800F01381B6492046FDF71FFA00285A
:1070F00000F01081B3492046FDF718FA002800F08F
:107100000D81B1492046FDF711FA002800F00881F1
:10711000AE492046FDF70AFA002800F0FD80AC4990
:107120002046FDF703FA002800F0FC80A94920461C
:10713000FDF7FCF9002800F0F780A7492046FDF78D
:10714000F5F9002800F0F280A4492046FDF7EEF999
:10715000002800F0ED80A2492046FDF7E7F900285D
:1071600000F0E8809F492046FDF7E0F9002800F094
:10717000E3809D492046FDF7D9F9002800F0DE8024
:107180009A492046FDF7D2F9002800F0D9809849A5
:107190002046FDF7CBF9002800F0D4809549204621
:1071A000FDF7C4F9002800F0CF8093492046FDF791
:1071B000BDF9002800F0CA8090492046FDF7B6F9D5
:1071C000002800F0C5808E492046FDF7AFF9002861
:1071D00000F0C2808B492046FDF7A8F9002800F096
:1071E000B98089492046FDF7A1F9002800F0DE802A
:1071F00086492046FDF79AF9002800F0D580844999
:107200002046FDF793F9002800F0CC808149204604
:10721000FDF78CF9002800F0C3807F492046FDF778
:1072200085F9002800F0BA807C492046FDF77EF9F8
:10723000002800F0B1807A492046FDF777F9002850
:1072400000F0A88077492046FDF770F9002800F08B
:107250009F8075492046FDF769F9002800F0968067
:1072600072492046FDF762F9002800F08D807049D0
:107270002046FDF75BF9002800F084806D49204628
:10728000FDF754F900287BD06B492046FDF74EF9F5
:10729000002873D069492046FDF748F900286BD0D3
:1072A00067492046FDF742F9002863D0654920462A
:1072B000FDF73CF900285BD063492046FDF736F91D
:1072C000002853D061492046FDF730F900284BD003
:1072D0005F492046FDF72AF9002843D05D49204642
:1072E000FDF724F900283BD05B492046FDF71EF945
:1072F000A0B35A492046FDF719F9002814BFFF2012
:107300002D2010BD032010BD022010BD052010BD92
:10731000042010BD062010BD092010BD072010BD9F
:10732000082010BD0A2010BD0B2010BD0C2010BD80
:107330000D2010BD0E2010BD0F2010BD102010BD5F
:10734000112010BD122010BD132010BD142010BD3F
:10735000152010BD172010BD162010BD2C2010BD0B
:107360002B2010BD2A2010BD292010BD282010BDC3
:10737000272010BD262010BD252010BD242010BDC3
:10738000232010BD222010BD212010BD202010BDC3
:107390001F2010BD1E2010BD1D2010BD1C2010BDC3
:1073A0001B2010BD1A2010BD192010BD182010BDC3
:1073B000DC96000800970008C496000808940008AE
:1073C000F0930008D893000898920008609800088D
:1073D000D4910008C0910008AC91000828920008E0
:1073E00068910008989100083C9200088491000878
:1073F00040950008D094000808950008A49400085F
:10740000749700085C97000844970008F8970008F4
:10741000249100080C9600083C9600088893000808
:10742000609300084C930008BC9700088C950008F6
:10743000709500088C980008A4980008B898000877
:10744000CC980008EC9800080499000810990008EE
:107450002499000834990008489900087499000894
:1074600010B562490446FDF761F8002800F09280EB
:107470005F492046FDF75AF8002800F089805D49F1
:107480002046FDF753F8002800F088805A4920462E
:10749000FDF74CF800287FD058492046FDF746F804
:1074A00000287DD056492046FDF740F800287BD0C3
:1074B00054492046FDF73AF8002877D05249204633
:1074C000FDF734F800286DD050492046FDF72EF81E
:1074D00000286DD04E492046FDF728F8002869D0D5
:1074E0004C492046FDF722F8002865D04A4920463D
:1074F000FDF71CF8002861D048492046FDF716F832
:1075000000285DD046492046FDF710F8002859D0E4
:1075100044492046FDF70AF8002855D04249204644
:10752000FDF704F8002851D040492046FCF7FEFF43
:1075300000284DD03E492046FCF7F8FF002849D0EE
:107540003C492046FCF7F2FF002845D03A49204646
:10755000FCF7ECFF002841D038492046FCF7E6FF55
:1075600000283FD036492046FCF7E0FF002837D0FE
:1075700034492046FCF7DAFF002835D0324920464E
:10758000FCF7D4FF314B00280CBF1846002010BD7B
:107590002F4810BD2F4810BD2F4810BD2F4810BDDB
:1075A0002F4810BD2F4810BD2F4810BD2F4810BDCB
:1075B0002F4810BD2F4810BD2F4810BD2F4810BDBB
:1075C0002F4810BD2F4810BD2F4810BD2F4810BDAB
:1075D0002F4810BD2F4810BD2F4810BD2F4810BD9B
:1075E0002F4810BD2F4810BD2F4810BD1097000820
:1075F000A09600081C970008689600082C930008C5
:10760000E49200080C93000888990008D0920008C2
:10761000A892000878920008609200085092000832
:10762000EC91000834940008209400089C9700080E
:10763000449400082098000838910008AC93000892
:10764000D4970008AC950008D0950008549A00081B
:10765000AC990008A4990008BC990008B4990008E6
:10766000C4990008DC990008CC990008D499000856
:10767000E49900089C990008EC990008F499000826
:10768000FC990008049A00080C9A0008149A000853
:107690001C9A0008249A00082C9A0008349A0008C2
:1076A000449A00083C9A00084C9A000830B50A4DEC
:1076B00087B0684601F0FEF9022401236946284696
:1076C000CDE90043049401F0B9F92146284601F0C0
:1076D000FDF907B030BD00BF0034024010B5174CB3
:1076E0000FCC8CB00DF1040CACE80F000FCCACE863
:1076F0000F0094E807000DF1040E8CE807004FF02E
:10770000000C5EF8040F6346724652F8041C814276
:1077100012D9013B42F80419591CF6D100230CAAD6
:1077200002EB83030CF1010CBCF10A0F43F82C0CA3
:10773000E7D106980CB010BD0133F0E764010020DA
:1077400010B4094A094C0A480A4900234FF0010CB9
:1077500082F800C02360084A084C03700B70237045
:107760005DF8044B136070473C0000204801002086
:10777000A001002098010020A40100203D0100206C
:1077800070B51E4C8CB0012001F092FA204601F039
:1077900089FB1B4B01931B4B02934FF480724FF4F8
:1077A0008063CDE907234FF0200C00254FF40053F0
:1077B000012601A92046CDE909C3CDE90356CDE94B
:1077C00005550B9501F0D2FB3221204601F038FC23
:1077D0000B2368468DF8003007238DF802308DF8B2
:1077E00001508DF8036001F0A7F80221204601F056
:1077F00013FC204601F004FC0CB070BD08000240F0
:10780000242C01403001002030B54FF4005087B0E7
:1078100001F056FA1D4C684601F04CF9012502238F
:10782000694608221A480493CDE90053059201F0F5
:1078300005F9204600224FF4FA7101F01DFB0023E8
:107840001A461946204601F0EBFA4FF480712046A3
:1078500001F00CFB204601F0DDFAA4F500644FF4C2
:10786000006001F02DFA002220464FF6FF7101F072
:1078700003FB2946204601F02BFA204601F0CAFA04
:1078800007B0BDE83040FFF77BBF00BF00340140C8
:107890000034024010B50E48022101F0C9FB00B9C6
:1078A00010BD0B480B4C022101F0C8FB0A4A0B49E2
:1078B000136809680A481160CB1A9BB2094A036031
:1078C0000121216008481360BDE81040FEF748BC64
:1078D000000002405C0100202C010020300100204B
:1078E0005401002058010020AC0000202DE9F04B8D
:1078F000AB4A13688CB0002B67D0AA4B1B78002BC7
:1079000066D1A949A948DFF8E4B209680380ABF859
:107910000030A74EDFF8D882337800201060A54AE7
:1079200042F823100133DBB20A2B337098F8003091
:1079300088BF30700A2B9CBF013388F800309E4B03
:107940001B78002B70D0DFF88C929A4DD9F800305C
:1079500003EB430301EB9301C9F80010FFF7BEFEF0
:107960000DF1040E044605F12C0170462A4652F82A
:10797000043B9C4294BF1B1BE31A8A4240F8043B21
:10798000F5D14FF0000C5EF8042F6346704650F8B6
:10799000047CBA4246D2013B591C40F80479F6D126
:1079A00000230CA800EB83030CF1010CBCF10A0FBF
:1079B00043F82C2CE7D1814B069F1F60804B1B683E
:1079C000BB4246D27F4B00221A600CB0BDE8F08B60
:1079D00075487D4C036821685B1A7C49B1F9001039
:1079E00048BF5B420029B8BF49429BB289B28B4273
:1079F00040F2A680962B00F2B2806C4D744E2B881C
:107A0000DFF8E8B1316801339BB20027632B2B808C
:107A1000ABF800707FF67DAF03682F80016833609C
:107A2000236076E70133BCE798F800300B2BCCD10C
:107A3000FFF754FE674A800010605F4A012313700D
:107A400000F05AFE64495F4AA1FB00135B0B136010
:107A5000BBE700F051FE604B6049A3FB002359488F
:107A600002685B0B002A76D09B1AB3F5FA6FACD391
:107A70000020DFF840C102465CF8043B1B1B03FBFF
:107A800003F3181842EBE3726145F5D11146002368
:107A90000B22FCF765FB00287DD0431CB0EB530F95
:107AA0004FEA530277D9B0FBF2F311461344B1EB1E
:107AB000530F4FEA5302F6D807EB5703012B38BF99
:107AC000012398F80020994238BF19468AB1002F47
:107AD00058D13B4B1F6805EB820255F8043B9C4292
:107AE00094BF1B1BE31A9F4238BF45F8044CAA42BF
:107AF000F3D101EB41033A4AD9F8001012682E483D
:107B00001BB23C2BA8BF3C2302EB9102142B2F4944
:107B1000B8BF14230B802E4B24491A602A4B1A60DD
:107B20000023037027482F4A88F800303370036021
:107B30000B80ABF80030012313700CB0BDE8F08B64
:107B4000962B0CD8194CDFF8A4B0016800232380D1
:107B5000ABF80030DDE603600CB0BDE8F08BDFF879
:107B60008CB00168BBF8003001339BB20E2BABF830
:107B700000307FF6CEAE1C4B012018700023ABF80E
:107B80000030C6E60323A7FB03304FF0FF3320B9D4
:107B900007EB47079FE701468EE71F469BE700BFBD
:107BA0005C010020AD000020540100209201002063
:107BB00091010020640100203C01002040010020D0
:107BC0003800002094010020500100203E000020D9
:107BD000440100204C010020D34D62109001002090
:107BE0009C010020600100203D0100206201002076
:107BF0009001002038B500F045FD154B154A1B6873
:107C00001268154915481344154A0B601360154A4C
:107C1000154900241470154A047001259B000B605F
:107C200015701349134A144B0C6014801C8000F02B
:107C30002BFD1249124B0C601C701249124B134A57
:107C40000D701C70124B1470124A1D70146038BDF8
:107C5000580100209C0100204401002090010020D8
:107C600050010020910100204C0100203C01002027
:107C700094010020920100206201002048010020B0
:107C8000A00100203C0000203D01002098010020C0
:107C900060010020A4010020F8B500F0F3FC364E8E
:107CA000364B374A1D6811783378DCB249B100276A
:107CB000177000F0E9FC6B1E4FF6FE72934232D94A
:107CC000F8BD304A304B1468B3F9007000F0DCFCAA
:107CD0006A1E4FF6FE739A42F2D82B1B2B4A2C4990
:107CE0001360002B2B4AB8BF5B429BB21360126833
:107CF0000B68C3EB021203EBA203B7EB231F0B606D
:107D00004FEA231217DC244A244813780133DBB2EC
:107D10000021032B01701370D2D9337803B1317075
:107D200004231370F8BD04B137701B491B4A0023AC
:107D30000B701370F8BD023F3FB2974210DD174A37
:107D4000154913780133DBB20020022B0870137041
:107D5000B6D933780BB90123337003231370F8BD00
:107D6000337803F0FF021BB10B4B00221A70F8BDF1
:107D70000A4B1A70F8BD00BF3C00002058010020DB
:107D80003D010020440100203E000020A40100200D
:107D90004801002034010020A001002098010020AB
:107DA000704700BFFEE700BF704700BF5748584A02
:107DB000D0F88830574943F4700310B4C0F88830C5
:107DC000106840F001001060546853482140516031
:107DD000116821F0847121F480311160116821F45F
:107DE00080211160516821F00361002321F470218A
:107DF0004FF460545160D462136313649060D0698F
:107E0000464940F08050D061D06920F08050D06168
:107E1000086840F080000860086885B020F0100015
:107E2000086002938DF803300393136843F48033A2
:107E3000136003E0039BB3F5005F0BD01368C3F33B
:107E400040438DF80330039B013303939DF80330C7
:107E5000002BEFD02E4B1A68C2F340428DF803205E
:107E60009DF80320002A4DD02C4A116821F007010B
:107E70001160116841F0020111605A685A605A6835
:107E800042F400525A605A6842F4A0625A605A683A
:107E900022F0036222F470225A601A6C22F001026E
:107EA0001A645A680192019A42F480320192019A4E
:107EB00042F400320192019A42F0036242F44022FD
:107EC0000192019A5A60029A1A641A6842F080720A
:107ED0001A601A689201FCD559680D4A21F0030115
:107EE0005960596841F002015960536803F00C036E
:107EF000082BFAD1054B4FF000629A6005B05DF88F
:107F0000044B7047064B074A1A60F3E700ED00E0A8
:107F1000001002400CC07FF80000BF0400200240A7
:107F20004000002000127A0070B50025124B064672
:107F30002C4601E013F8015F8D4207D00134102C6C
:107F4000F8D10E48FFF7B2F8FEF75AF90A2000F010
:107F5000E5FBFE2D0BD10A490A4A8B6843F4000366
:107F60008B60D2F8203843F48063C2F820380023B5
:107F7000C6E90034304670BD78A70008B8980008FC
:107F8000000802400010004082B002AB03E9030089
:107F9000142002B000F0AABB82B002AB03E90300D8
:107FA000002002B0704700BF00B583B002AB03E908
:107FB000030000F06BFB03B05DF804EB00F06ABB5C
:107FC0002DE9F04182B002AB03E903001D4B98425A
:107FD00004460D46174621D003F5806398422BD006
:107FE00003F5806398422AD003F58063984208BF66
:107FF0004FF0300814D04FF0000800F047FB064661
:1080000007B92D044046A5610022012100F010F9B6
:10801000304602B0BDE8F04100F03CBB4FF0000834
:108020000023012102E00133102BE6D001FA03F214
:108030002A42F8D09844E0E74FF01008F0E74FF0FC
:108040002008EDE700340240F0B53F2983B00C462C
:108050000546164619D8114B0A0953F82270A7B1E4
:10806000384600F0D5F804F00F04012101FA04F4B9
:10807000CDE9007402AB13E903003246FFF7A0FF1D
:108080002846C5E9007403B0F0BD054B05480B2236
:108090001A60FFF70BF8FEF7B3F800BF88A70008D7
:1080A00024010020A498000882B002AB03E9030079
:1080B00043694B40436102B0704700BF82B002ABDE
:1080C00003E903000B46014602B91B048B6102B0B1
:1080D000704700BF30B585B004AB03E903001A490F
:1080E00003468B4203981DD001F580618B4226D058
:1080F00001F580618B4224D001F580618B4208BF7D
:10810000302510D00025019200F0C0FA019A0446F3
:108110000021284600F08CF8204605B0BDE830402C
:1081200000F0B8BA00250023012402E00133102B2F
:10813000E9D004FA03F10142F8D01D44E3E7102529
:10814000F1E72025EFE700BF0034024070B53F297A
:1081500082B0044614D80E4B080953F820607EB153
:1081600001F00F0101258D40CDE9006502AB13E957
:108170000300FFF7AFFF2046C4E9006502B070BD01
:10818000044B05480C221A60FEF790FFFEF738F802
:1081900088A70008240100208C98000882B002AB58
:1081A00003E903000949019A8842034606D01B6986
:1081B000134214BF0120002002B07047012AF6D1FB
:1081C000034B1878C0B202B0704700BF00400240B5
:1081D0003C00002000207047704700BF024B4AF669
:1081E000AA221A60704700BF00300040074B10B44D
:1081F000002045F2555440F6FF714CF6CC421C600D
:1082000058605DF8044B99601A6070470030004078
:10821000064A00F13F4000F57F0051690123800AC2
:1082200003FA00F0084350615369704700100240A0
:10823000F0B53A4B3A4D04096E6953F8243003F116
:108240003F4404F57F044FEA942C012404FA0CF413
:10825000344300F0070C6C6100F00F0E00076C69EE
:108260004FEA8C0C45D5586A0F2404FA0CF420EA26
:10827000040003FA0CFC4CEA000058621D684FEA47
:108280004E0C032000FA0CF001F0030425EA00056F
:1082900004FA0CF42C431C6021F01004013C012C66
:1082A0006FEA000017D9012404FA0EF4E743DE68F0
:1082B00002FA0CF506403543DD6099683940996053
:1082C000D96A0140022000FA0CF00843002AD86263
:1082D0001BDD9C61F0BD5D68012404FA0EF4C1F35E
:1082E000001101FA0EF125EA040529435960E7431C
:1082F000DDE7186A0F2404FA0CF420EA040003FAFC
:108300000CFC4CEA00001862B8E7E3D00EF1100E46
:10831000012202FA0EF29A61F0BD00BF88A70008A0
:1083200000100240704700BF08B5002383F3108897
:1083300062B6BFF35F8F074B074A9A60BFF34F8F58
:10834000BFF36F8F4FF4E06000F0ECFABDE8084037
:10835000FDF7F6BF00ED00E00040000810B5104A40
:10836000138803F0280182B09CB239B9220603D5E4
:108370000B4CA3891B0606D402B010BD908880B2B6
:1083800000F09EF8F2E70DF1070000F0AFF818B129
:1083900042F22C03A381EFE79DF80730A380EBE7BF
:1083A00000380140024B42F2AC029A81704700BF94
:1083B0000038014008B50B484FF4005100F038FE7A
:1083C00000B908BD07484FF4005100F037FE0648D9
:1083D000402100F001FC054800F018FE044B00228B
:1083E0001A7008BD000002400038014044000240FD
:1083F000A801002008B507484FF4003100F010FE36
:1084000000B908BDBDE8084002484FF4003100F053
:108410000DBE00BF00000240F0B501208DB000F09D
:1084200047FC802000F044FC012000F049FC4FF4A0
:10843000804000F045FC214C06A800F03BFB4FF4C7
:1084400000730126052706A90693204602230793F9
:1084500008960B9700F0F2FA06A920464FF48063C5
:1084600006930B9700F0EAFA2423002501A88DF863
:10847000043003238DF806308DF807608DF8055021
:1084800000F05AFA02A800F081FBA4F57C444FF4F6
:10849000613302A9204602934FF44023CDE90353F0
:1084A000ADF8145000F048FB40F22551204600F092
:1084B0007DFB204600F074FB0DB0F0BD003402409F
:1084C0007E2838B5054609D0064A1388B3F5C07F23
:1084D00003D2054C591CE554118038BDFDF732FE1E
:1084E000F2E700BF2C030020AC01002010B40A4BBF
:1084F0000A4993F800C00A789445034608D9084C05
:10850000501CA25C087000201A705DF8044B704784
:108510004FF0FF30F9E700BF9003002091030020E7
:10852000300300202DE9F04B294E317882B0C9B2DA
:10853000284F01AA3846FCF739FE051E03DC35D169
:1085400002B0BDE8F08B01993846FCF79FFEDDF8DC
:1085500004804FF0000B3478E4B2B4EB080910D17A
:1085600000F094F83378DBB29C421CD1A6F800905E
:1085700000F090F8002DE3DDFCF7E0FE02B0BDE86E
:10858000F08B08EB0B01A9EB0B02394407EB0B0056
:1085900000F09AFDFDF7D6FD00F078F83378CB4671
:1085A000DBB29C42E2D000F075F8D4E7DDF804803D
:1085B000B8F1200FCDD108494246384600F066FD9B
:1085C0000028C6D1FFF7AEFEDDF80480C1E700BF8A
:1085D0002C030020AC01002098A700082DE9F04BE7
:1085E000214F3B7805460E46DBB2DFF8808098F8D5
:1085F0000040E4B2A34204D3002488F800403C7059
:10860000234695F802C0A444BCF1600F28D9ACEB16
:108610000303602B01D9BDE8F08B4FF0000B88F805
:1086200000B03978C9B2DFF84890641A224649444C
:10863000484600F049FD87F800B0E7B288F80070BE
:10864000FFF7B0FE09EB040032462946FCF7E4FCD4
:108650003844C0B288F80000BDE8F04BFFF7A2BE76
:10866000DFF80C90E7B2EDE79103002090030020C3
:108670003003002000487047A803002000487047DE
:108680000038002072B6704762B67047EFF3108072
:1086900072B6704780F31088704700BF62B600BFA3
:1086A00072B67047704700BFEFF30383C3F308034C
:1086B00043B14FF080736FF0060208B401A102B419
:1086C0001FB51047704700BFBFF34F8F0549064BDA
:1086D000CA6802F4E0621343CB60BFF34F8F00BF60
:1086E000FDE700BF00ED00E00400FA05C00170479F
:1086F000401AC00F704700BF014B5868704700BF59
:10870000001000E04FF0E023034900224FF08060AA
:108710005A619A614860704700ED00E00C4BD3F855
:10872000FC20D2010AD4D3F8FC200A4942F080721E
:10873000C3F8FC200B6843F001030B60054A536843
:1087400003EBC01053681B1A002BFBDB704700BF04
:1087500000ED00E0001000E0704700BF70B5164D5E
:10876000164BD5F8FC2042F08072C5F8FC201A6840
:10877000002442F0010282B01A605C60FFF786FFBD
:1087800001230646FF2201A88DF804208DF806304B
:108790008DF807308DF8054000F0CEF84FF0E0235B
:1087A00007221A614FF080625C6130469C616A600A
:1087B000FFF770FF02B070BD00ED00E0001000E0B8
:1087C0002DE9F04BDFF89890DFF89880DFF898B04B
:1087D000FFF758FFD9F8007005E0FFF755FF002DAF
:1087E0001CDCFFF74FFFFDF757FCD8F80460851B32
:1087F000B5F5807F04462B4621DCBB1B002BECDA51
:1088000015F5FA3F25DBFDF7A3FC90B906F57A478D
:10881000C9F80070FFF738FF002DE2DDD8F804300A
:10882000E31A002BDDDDD8F80430E31A002BD8DD85
:10883000F4E706F54856C9F800604FF420734FF08E
:10884000E02200215361BDE8F04B91615161FFF7D7
:108850001BBF5846FEF72AFCFDF7FEFCD3E700BF1E
:1088600094030020001000E0CC980008074B10B5DE
:108870005C68FFF707FF064A13681B1B002BB8BF95
:108880001460BDE81040FFF7FFBE00BF001000E01D
:108890009403002000B58446A9B100EB010E4FF609
:1088A000FF701CF8013B434083EA0313DBB2010A6B
:1088B000DA0041EA0321F44582EA131381EA030056
:1088C000EFD15DF804FB4FF6FF705DF804FB00BFCD
:1088D0000D4885460D480E490E4A002302E0D45843
:1088E000C4500433C4188C42F9D30B4A0B4C0023F8
:1088F00001E013600432A242FBD3FFF757FA00F005
:10890000A1FBFFF711FDFEE7004000200000002062
:10891000440000200CA8000844000020A803002008
:10892000FEE70000034B40F0BF6040F40030D86029
:10893000704700BF00ED00E000B5C37813B3184BDB
:108940008278D96890F801C00078C943C1F3022148
:108950000F23C1F1040ECB400CFA0EFC1340114A58
:1089600043EA0C031B0102EB000CDBB241098CF85B
:10897000003300F01F00012303FA00F042F8210049
:108980005DF804FB037807485A09012103F01F032F
:10899000203201FA03F340F822305DF804FB00BFF7
:1089A00000ED00E000E100E0130710B40ED502F086
:1089B0000703446A9A000F23934024EA030301FA51
:1089C00002F21A435DF8044B4262704702F007025C
:1089D000036A5DF8044B92004FF00F0C0CFA02FC96
:1089E00023EA0C0301FA02F21A430262704700BF45
:1089F0004FEA420C10B40323046803FA0CF324EA90
:108A0000030401F0030303FA0CF321F0100C0CF142
:108A1000FF3C2343BCF1010F03600CD844684FF0C6
:108A2000010C0CFA02FCC1F3001324EA0C0403FA53
:108A300002F1214341605DF8044B70470B682DE95A
:108A4000F0410D46002B33D000244FF001080327DE
:108A500003E0013433FA04F22AD008FA04F61E4285
:108A6000F7D022466969FFF79FFF22466968FFF742
:108A7000BFFFC368A968620007FA02FC23EA0C037F
:108A800091401943C1608368E96823EA0606A14062
:108A9000314381602B69C16A03FA02F221EA0C0CAE
:108AA0002B6842EA0C020134C26233FA04F2D4D1D8
:108AB000BDE8F08100234FF6FF710F220160C36013
:108AC0004360426183600361704700BF816170470A
:108AD00030B587B0044668460D4600F081F8144B67
:108AE0009C4209D003F5C0539C4205D003F5806336
:108AF0009C4201D0029B00E0039B0E4803EB8303E2
:108B000003EB8303A900B3FBF1F1A0FB01235A0996
:108B1000642303FB12131B013233A0FB0313C3F3C3
:108B2000431343EA02139BB2238107B030BD00BF59
:108B3000003801401F85EB5138B504460D460968E1
:108B4000FFF7C6FFA389AA889BB223F4805313437F
:108B5000A381238AEA889BB223F4405313432382E0
:108B6000A3892A899BB223F4C0631343A381A389F9
:108B70006A899BB223F00C031343A381A38AAA89B9
:108B80009BB223F440731343A38238BD00234FF4F8
:108B900016514FF44022C0E9001382608381704770
:108BA00083899BB243F400538381704701F01F0215
:108BB0000123C1F34211994203FA02F207D00229BC
:108BC0000CBF103014300368134303607047C36850
:108BD00013430C3003607047C94389B2018070476A
:108BE0002C4A2D4B5168526830B40B400D014FEAAE
:108BF000934348BF6FF4F77402F4803254BF0233DA
:108C00001B19002A3ED102F1804202F50432126C97
:108C1000D1073BD4214A02FB03F31E4A1D49526887
:108C20001F4D02F00C02082A1ABF1C4A02600360A2
:108C30004C68C4F3031408BF1A462C5DE24042603E
:108C40004C68C4F302242C5D22FA04F484604C685E
:108C5000C4F3C2242C5D22FA04F4C460CC6A04F08C
:108C60000F0C104C14F80C40B2FBF4F24261CA6ACB
:108C70000D49C2F3031230BC31F81220B3FBF2F3FA
:108C800003617047034A52689203C3D5074A02FB47
:108C900003F3C2E70010024000003C0800127A0013
:108CA000ECA70008BCA70008CCA7000800093D00FD
:108CB000024A536918435061704700BF00100240D8
:108CC000024A936918439061704700BF0010024048
:108CD00081827047464B984210B466D002684B8838
:108CE000B1F804C022F07002134303600268CB881D
:108CF00022F44072026004683E4A234303609042BB
:108D00000B88A0F82CC0038502D03B4B984201D1C0
:108D10000B7A03864B7A012282820BBB036823F411
:108D200000630360334B98420ED003F50063984212
:108D30000AD0B0F1804F07D0A3F59833984203D002
:108D400003F58063984208D14B7B73B10368B0F19F
:108D5000804F43F4004303600ED05DF8044B70472E
:108D6000036843F400630360DCE70368B0F1804FFD
:108D700023F400430360F0D18B7AFBB9036823F43A
:108D800080530360CB7A4FF0804203B3136843F4FF
:108D9000005313600B7B4FF080420BB313685DF8F8
:108DA000044B43F48043136070478B8883850A88A3
:108DB000028501235DF8044B83827047036843F406
:108DC00080530360CB7A4FF08042002BDED11368D2
:108DD00023F4005313600B7B4FF08042002BDDD156
:108DE00013685DF8044B23F480431360704700BFA1
:108DF00000100040002C01400034014000234FF6D9
:108E0000FF72038043808280C3800381438183811A
:108E100083737047036843F001030360704700BF2A
:108E2000B0F808C02CF4706C4FEA0C4C4FEA1C4CA4
:108E30004CEA03239BB203810389B2F5004F03BFC1
:108E40006FEA43436FEA53439BB2C3F30E030381BC
:108E5000038923F440531B041B0C1943018103892C
:108E60009BB243F480430381704700BF83899BB268
:108E700019438181704700BFF8B5094C0746204669
:108E80000E461546FFF7BAFF00233846A680258018
:108E90002146E3806380BDE8F840FFF71BBF00BFB9
:108EA0009803002002682849002322F0010288422A
:108EB0000260036043608360C3601BD0234B984211
:108EC00012D0234B984221D0224B984224D0224BDF
:108ED000984215D0214B984224D0214B984227D05C
:108EE000204B98422AD070471F4A536843F0F00342
:108EF000536070471C4A536843F00F035360704738
:108F0000194A536843F4702353607047164A5368F4
:108F100043F4706353607047134A536843F47043DB
:108F200053607047104A536843F4700353607047AE
:108F30000D4A536843F07063536070470A4A5368A0
:108F400043F070435360CEE7080002401C0002402B
:108F50003000024044000240580002406C000240D1
:108F6000800002409400024000000240D1E900234A
:108F70008260C36002688B6822F01002026030B425
:108F80000468CA6823430360426003680A6923F0E7
:108F90004003036004684B692243026004688A69E5
:108FA00024F0800404600468234303600468CB69F0
:108FB00024F44074046004682243026002680C6A6E
:108FC00022F44062026002681343036003684A6A45
:108FD00023F02003036005688B6A2C43046001685A
:108FE00021F44051016001680A430260026822F4E2
:108FF000804202600268134330BC0360704700BFC8
:10900000036843F001030360704700BF036823F067
:1090100001030360704700BF036819430160704794
:1090200003680B4214BF0120002070474160704765
:109030000368194214BF0120002070474160704747
:109040000161704770B50D4D0D4C641BA4100026D6
:10905000A64209D10B4D0C4C00F058F8641BA4102B
:109060000026A64205D170BD55F8043B984701364D
:10907000EEE755F8043B98470136F2E704A80008EC
:1090800004A8000804A8000808A8000810B50139C1
:109090000244904201D1002005E0037811F8014F0D
:1090A000A34201D0181B10BD0130F2E70A449142DF
:1090B00000F1FF3300D1704710B511F8014B03F8F0
:1090C000014F9142F9D110BD884210B501EB020465
:1090D00002D98442234607D8431EA14208D011F882
:1090E000012B03F8012FF8E7024401468A4200D120
:1090F00010BD13F8014D02F8014DF7E70244034695
:10910000934200D1704703F8011BF9E7F8B500BF9F
:10911000F8BC08BC9E467047F8B500BFF8BC08BC58
:049120009E467047B0
:10912400414443206F7574206F662072616E6765D9
:1091340000000000616E616C6F675F696E5F73743D
:10914400617465206F69643D2563206E6578745F82
:10915400636C6F636B3D25752076616C75653D2589
:1091640068750000496E76616C6964206D6F766580
:1091740020726571756573742073697A65000000E7
:10918400616C6C6F635F6368756E6B206661696C9C
:10919400656400004D6F7665207175657565206F97
:1091A400766572666C6F7700496E76616C696420CF
:1091B4006F696420747970650000000043616E2754
:1091C400742061737369676E206F69640000000026
:1091D4006F69647320616C726561647920616C6C81
:1091E4006F63617465640000636F6E66696720690C
:1091F400735F636F6E6669673D2563206372633DC9
:1092040025752069735F73687574646F776E3D2587
:1092140063206D6F76655F636F756E743D25687549
:1092240000000000416C72656164792066696E61BA
:109234006C697A6564000000616C6C6F635F6368DD
:10924400756E6B73206661696C656400636C6F6333
:109254006B20636C6F636B3D2575000075707469DA
:109264006D6520686967683D257520636C6F636B65
:109274003D257500737461747320636F756E743D5E
:1092840025752073756D3D25752073756D73713D5E
:1092940025750000436F6D6D616E64207265717594
:1092A400657374006964656E746966795F72657369
:1092B400706F6E7365206F66667365743D257520E7
:1092C400646174613D252E2A730000007065656C2D
:1092D4005F646174612076616C75653D2569000089
:1092E4006D63755F76657273696F6E2079656172FF
:1092F4003D257520646174653D257520766572731E
:10930400696F6E3D25750000706172616D5F7661F5
:109314006C75652076616C75653D25752072657385
:10932400657276653D257500747269676765725F5D
:109334007468726573686F6C6420746872657368AE
:109344006F6C643D256900004D6178206F6620389C
:1093540020627574746F6E7300000000536574208E
:10936400627574746F6E2070617374206D617869B6
:109374006D756D20627574746F6E20636F756E7495
:1093840000000000496E76616C6964206275747433
:109394006F6E732072657472616E736D697420638D
:1093A4006F756E7400000000627574746F6E735F85
:1093B4007374617465206F69643D25632061636B18
:1093C4005F636F756E743D25632073746174653DCE
:1093D400252A7300436F6D6D616E64207061727332
:1093E4006572206572726F72000000004D657373C0
:1093F40061676520656E636F6465206572726F7264
:1094040000000000496E76616C696420636F6D6DC5
:10941400616E640000000500000000006465627570
:10942400675F726573756C742076616C3D25750099
:10943400706F6E6720646174613D252A73000000BB
:10944400656E6473746F705F7374617465206F69A3
:10945400643D256320686F6D696E673D2563206EEA
:109464006578745F636C6F636B3D25752070696EFE
:109474005F76616C75653D2563000000656E6473FD
:10948400746F705F7265636F7665725F7374617415
:1094940065206F69643D2563206F6B3D2563000083
:1094A4004D6973736564207363686564756C696E74
:1094B40067206F66206E65787420646967697461DB
:1094C4006C206F7574206576656E740053636865EF
:1094D40064756C6564206469676974616C206F7578
:1094E40074206576656E742077696C6C206578638A
:1094F400656564206D61785F6475726174696F6E0F
:109504000000000043616E206E6F74207365742048
:10951400736F66742070776D206379636C65207453
:1095240069636B73207768696C6520757064617416
:1095340065732070656E64696E67000075706461A0
:1095440074655F6469676974616C5F6F7574206EBC
:109554006F742076616C6964207769746820616334
:10956400746976652071756575650000496E76616C
:109574006C6964206E656F706978656C20646174D1
:10958400615F73697A650000496E76616C69642075
:109594006E656F706978656C2075706461746520A0
:1095A400636F6D6D616E64006E656F706978656C74
:1095B4005F726573756C74206F69643D25632073F5
:1095C4007563636573733D2563000000636F756E97
:1095D4007465725F7374617465206F69643D25639B
:1095E400206E6578745F636C6F636B3D25752063D3
:1095F4006F756E743D257520636F756E745F636C53
:109604006F636B3D257500005363686564756C6515
:10961400642070776D206576656E742077696C6C54
:1096240020657863656564206D61785F6475726137
:1096340074696F6E000000004D6973736564207374
:1096440063686564756C696E67206F66206E657803
:109654007420686172642070776D206576656E741D
:10966400000000004C6576656C626F617264206373
:109674006C6F73653D25687520436C6F73655F6E11
:10968400756D3D2568752054656D705F77616B65F8
:1096940074696D653D2568750000000069735F732A
:1096A400687574646F776E207374617469635F7333
:1096B4007472696E675F69643D2568750000000017
:1096C40073656E74696E656C2074696D6572206370
:1096D400616C6C656400000053687574646F776E28
:1096E40020636C6561726564207768656E206E6FB7
:1096F400742073687574646F776E000054696D65C7
:109704007220746F6F20636C6F7365007374617281
:1097140074696E670000000073687574646F776E17
:1097240020636C6F636B3D2575207374617469638A
:109734005F737472696E675F69643D2568750000C4
:109744005374657070657220746F6F206661722047
:10975400696E207061737400496E76616C6964206F
:10976400636F756E7420706172616D6574657200EB
:1097740043616E27742072657365742074696D6526
:10978400207768656E2073746570706572206163FC
:109794007469766500000000737465707065725FAB
:1097A400706F736974696F6E206F69643D256320FF
:1097B400706F733D25690000746D63756172742068
:1097C4006461746120746F6F206C6172676500005E
:1097D400746D63756172745F726573706F6E7365B7
:1097E400206F69643D256320726561643D252A7399
:1097F4000000000043616E27742061646420736973
:10980400676E616C207468617420697320616C7286
:109814006561647920616374697665007472737933
:109824006E635F7374617465206F69643D256320A2
:1098340063616E5F747269676765723D2563207446
:109844007269676765725F726561736F6E3D2563E8
:1098540020636C6F636B3D2575000000636F6E665B
:1098640069675F7265736574206F6E6C79206176C9
:1098740061696C61626C65207768656E20736875D8
:1098840074646F776E0000004E6F742061207661FF
:109894006C696420696E7075742070696E000000D4
:1098A4004E6F7420616E206F7574707574207069CA
:1098B4006E0000004E6F7420612076616C69642034
:1098C4004144432070696E00526573636865647532
:1098D4006C65642074696D657220696E20746865B6
:1098E40020706173740000004661696C65642074C3
:1098F4006F2073656E642069326320616464720052
:109904006932632074696D656F757400556E737583
:1099140070706F72746564206932632062757300BD
:10992400496E76616C696420737069206275730096
:10993400496E76616C69642050574D206368616E8E
:109944006E656C0050574D20616C726561647920BE
:1099540070726F6772616D6D6564206174206469F3
:1099640066666572656E74207370656564000000D8
:109974004E6F7420612076616C69642050574D20CD
:1099840070696E0070615F76616C75652076616CDC
:1099940075653D25750000000000400268A70008B9
:1099A400370006000000000038000901C0A60008C6
:1099B40039000E02C4A600083A000F03F0A60008FE
:1099C4003B000B012CA700083C0015035CA7000812
:1099D4003D00100260A700083E000B0164A70008C8
:1099E4003F000B012CA70008400015035CA70008EA
:1099F4004100100260A7000842000B0164A70008A0
:109A0400430012046CA700084400400170A700083A
:109A140045000B0164A7000846000D02C8A6000813
:109A240047001104CCA6000848001104D0A6000881
:109A340049001003D4A600084A004003D8A6000831
:109A44004B004002DCA600084C000A02E0A6000815
:109A54004D001704E4A6000878DA9D580B6FDB3834
:109A640012FE2B8481E2760FD9C0925F4980E2E036
:109A7400A4EE03DBB4D938B91E7038108C44DB442F
:109A8400F45A51CA6317FDEFFBCD50A46427E8E1F3
:109A94006E816E4CCE7038CF8F33FA73A4AA6A7479
:109AA40036FA353355A5EBD1D1E8AE35592A1F74B2
:109AB4006D4D595890B64972267EFAF0E5562CEB56
:109AC4005CACF23B9DA63A15376599253B650A11B6
:109AD4008D8F27BFC4E3383A8EC63FF3EA3812B4F9
