:020000040800F2
:104000000040002091880008557D0008597D000877
:1040100000000000000000000000000000000000A0
:104020000000000000000000000000005D7D0008AE
:104030000000000000000000E188000881870008FF
:10404000E1880008E1880008E1880008E1880008AC
:10405000E1880008E1880008E1880008E18800089C
:10406000E1880008E1880008E1880008C5780008B8
:10407000E1880008E188000869830008A983000836
:10408000E1880008E1880008E1880008E18800086C
:10409000E1880008E1880008E1880008E18800085C
:1040A000E1880008E1880008E1880008E18800084C
:1040B000E1880008E1880008E1880008E18800083C
:1040C000E1880008E1880008E1880008E18800082C
:1040D00011830008E1880008E1880008E1880008F1
:1040E000E1880008E1880008E1880008E18800080C
:1040F000E1880008E1880008E1880008E1880008FC
:10410000E1880008E1880008E1880008E1880008EB
:04411000E18800083A
:1041200010B5054C237833B9044B13B10448AFF3F1
:1041300000800123237010BD440000200000000017
:10414000CC90000808B5034B1BB103490348AFF3FB
:10415000008008BD0000000048000020CC9000084E
:1041600053B94AB9002908BF00281CBF4FF0FF31DE
:104170004FF0FF3000F074B9ADF1080C6DE904CEDA
:1041800000F006F8DDF804E0DDE9022304B0704732
:104190002DE9F047089D04468E46002B4DD18A42FA
:1041A000944669D9B2FA82F252B101FA02F3C2F12D
:1041B000200120FA01F10CFA02FC41EA030E9440BE
:1041C0004FEA1C48210CBEFBF8F61FFA8CF708FBDF
:1041D00016E341EA034306FB07F199420AD91CEBB7
:1041E000030306F1FF3080F01F81994240F21C81E9
:1041F000023E63445B1AA4B2B3FBF8F008FB103331
:1042000044EA034400FB07F7A7420AD91CEB040465
:1042100000F1FF3380F00A81A74240F20781644435
:10422000023840EA0640E41B00261DB1D4400023BA
:10423000C5E900433146BDE8F0878B4209D9002D1E
:1042400000F0EF800026C5E9000130463146BDE8A8
:10425000F087B3FA83F6002E4AD18B4202D3824212
:1042600000F2F980841A61EB030301209E46002DC1
:10427000E0D0C5E9004EDDE702B9FFDEB2FA82F216
:10428000002A40F09280A1EB0C014FEA1C471FFA74
:104290008CFE0126200CB1FBF7F307FB131140EA5B
:1042A00001410EFB03F0884208D91CEB010103F128
:1042B000FF3802D2884200F2CB804346091AA4B2EA
:1042C000B1FBF7F007FB101144EA01440EFB00FEBE
:1042D000A64508D91CEB040400F1FF3102D2A64523
:1042E00000F2BB800846A4EB0E0440EA03409CE7C2
:1042F000C6F12007B34022FA07FC4CEA030C20FA6F
:1043000007F401FA06F31C43F9404FEA1C4900FA8E
:1043100006F3B1FBF9F8200C1FFA8CFE09FB18110B
:1043200040EA014108FB0EF0884202FA06F20BD97E
:104330001CEB010108F1FF3A80F08880884240F2CE
:104340008580A8F102086144091AA4B2B1FBF9F012
:1043500009FB101144EA014100FB0EFE8E4508D90D
:104360001CEB010100F1FF346CD28E456AD9023892
:10437000614440EA0840A0FB0294A1EB0E01A14277
:10438000C846A64656D353D05DB1B3EB080261EBE5
:104390000E0101FA07F722FA06F3F1401F43C5E9BF
:1043A000007100263146BDE8F087C2F12003D840F5
:1043B0000CFA02FC21FA03F3914001434FEA1C4737
:1043C0001FFA8CFEB3FBF7F007FB10360B0C43EA29
:1043D000064300FB0EF69E4204FA02F408D91CEBD9
:1043E000030300F1FF382FD29E422DD902386344D7
:1043F0009B1B89B2B3FBF7F607FB163341EA034177
:1044000006FB0EF38B4208D91CEB010106F1FF38C5
:1044100016D28B4214D9023E6144C91A46EA0046BC
:1044200038E72E46284605E70646E3E61846F8E64E
:104430004B45A9D2B9EB020864EB0C0E0138A3E797
:104440004646EAE7204694E74046D1E7D0467BE778
:10445000023B614432E7304609E76444023842E7F0
:10446000704700BF000000000000000000000000D6
:1044700001F0FF01102A2BDB10F0070F08D010F815
:10448000013B013A8B422DD010F0070F42B3F6D119
:10449000F0B441EA012141EA014122F007047FF032
:1044A00000070023F0E80256083C85EA010586EA89
:1044B000010685FA47F5A3FA87F586FA47F6A5FAC5
:1044C00087F68EB9EED1F0BC01F0FF0102F00702D1
:1044D00032B110F8013B013A83EA010313B1F8D17C
:1044E0000020704701387047002D06BF354603385D
:1044F000073815F0010F07D1013015F4807F02BF96
:10450000013015F4C03F0130F0BC0138704700BFE6
:10451000EC46A0E8F05F4FF000007047B0E8F05FB5
:10452000E546080008BF0120704700BF10F8012BC6
:1045300011F8013B012A28BF9A42F7D0D01A7047E0
:1045400030B583B004466D464168284603F0C6FC8A
:1045500009492078094C2C2200F0ECF9034695E833
:10456000030003F120025C6082E80300012283F86B
:104570002A2003B030BD00BF414500088145000836
:1045800038B500F12005044695E8030003F0D6FC99
:1045900020B1A3681844A060012038BD95E803004D
:1045A00003F0D4FC94F82A3094F82B2093421CD2C8
:1045B000218B0133DBB2084480B29A42208384F815
:1045C0002A3018D8638B83421BD8A38B834218D31D
:1045D000002384F82830134801F0CEFD6369E268B7
:1045E00013446361A360012038BD01239A422083F4
:1045F00084F82A30E6D9A36822691344A360012015
:1046000038BD94F8283094F829200133DBB29A425F
:1046100084F82830DFD8044802F060FD01F028FE5D
:10462000D6E700BF64000020E490000838B51549C3
:104630000546007800F05EF9044601F011FD04F132
:10464000200393E8030003F089FC6B686361A360B7
:10465000AB6823612B7B84F82B305A1C84F82A200A
:104660002A69E260D5E90501EA6984F829206083B6
:10467000A18303B938BD20461F21BDE8384001F0B1
:1046800001BE00BF414500082DE9F041214884B03A
:1046900001F07AFD30B3FF231F4D204F204E8DF8DF
:1046A0000F3029460DF10F0000F070F90446C8B133
:1046B00094F82A2094F82B309A42F2D103F0BCFFF0
:1046C00094F82B3094F82A20934203F101010CD086
:1046D00003F0B4FF29460DF10F0000F057F904462E
:1046E0000028E5D104B0BDE8F0816269B4F8188013
:1046F00084F82A10019203F0A1FF3046A7F8008049
:1047000002F0C6FE019A9DF80F10434600F030FDFE
:10471000C7E700BF6400002041450008600000209A
:10472000F890000830B583B0FF23124D8DF80730A4
:1047300006E093E8030003F011FC94F82B305BB91A
:1047400029460DF1070000F021F9044600F120038D
:104750000028EED103B030BD6269E16801330A443C
:1047600084F82A306261A2600021204601F08AFDAF
:10477000E6E700BF4145000808B5044B04482B227A
:104780001A6002F0ABFC01F047FD00BF30010020D1
:104790002891000808B503F047FF034B033020F0D1
:1047A0000300186008BD00BF6800002070B50E4E01
:1047B000336804461D1803F03BFF85420CD835686A
:1047C000E31C23F003032B442246002128463360D8
:1047D00004F074FC284670BD044B054828221A607A
:1047E00002F07CFC01F018FD680000203001002080
:1047F00044910008024B1A6802601860704700BFBD
:104800007800002010B503F01BFF084B1C682CB18A
:1048100022681A6003F018FF204610BD044B0548BB
:104820002A221A6002F05AFC01F0F6FC78000020FF
:1048300030010020589100080068B0FA80F040096B
:10484000704700BF0068704703460A680020186080
:104850001AB14A6813604B607047C1E90033012008
:10486000704700BF03681A6802601846704700BFAF
:1048700000230360704700BF08B5FF294FF0000315
:10488000C0E9003308DC054B1B882BB9044B1A78B0
:104890008A42B8BF197008BDFFF76EFF7400002090
:1048A0007C0000200F4B188810B4A0B1013815D03F
:1048B0000D4A0E4B146893F800C000222346194697
:1048C0000132634482420B60F9D102FB0C42084B77
:1048D000002111601C605DF8044B7047024B1C689E
:1048E0002246F4E774000020800000207C000020B5
:1048F0007800002008B50B4B1B78834209D90A4B7E
:104900001B6853F830208A4203EBC00001D1406895
:1049100008BD064B06482D221A6002F0DFFB01F0AD
:104920007BFC00BF840000208800002030010020B4
:104930006C91000870B5104B1C7803469C421046E1
:1049400011D90E4D1AB2DC002B6853F8326056B9FB
:104950000B4E36883EB943F83210FFF727FF2B681D
:104960002344586070BD074B07482E221A6002F09E
:10497000B5FB01F051FC00BF84000020880000203E
:1049800074000020300100208091000830B50E4AEC
:1049900003780E4C126894F800E003F1010C5FFA02
:1049A0008CF302EBC30205E052F8084B8C4203F192
:1049B000010C06D05FFA8CF39E451546F4D8002012
:1049C00030BD0370686830BD88000020840000207E
:1049D00038B50A4C236843B90568E8B2C000FFF750
:1049E000E5FE074B20601D7038BD064B06482F22A0
:1049F0001A6002F073FB01F00FFC00BF880000207A
:104A000084000020300100209491000830B50D4D45
:104A10000D4885B002F03CFD29880C4B003918BFC9
:104A200001211A6803920446029101F0B5FB034686
:104A300028880090DDE90212204600F099FB05B0BD
:104A400030BD00BF74000020AC9100086C00002055
:104A50002DE9F0411E4F3B88064683BB1D4BDFF816
:104A60008C801D78D8F80040032D9CBF04251D7054
:104A700003F0DEFD002322462C44A04213D3013371
:104A8000B3F5805FF7D11D46D8F80000201AFFF774
:104A90008DFE114B3D801860FFF704FF0F4B32680D
:104AA0001A60BDE8F08113B19DB21446ECE70C4BDF
:104AB0000C4829221A6002F011FB01F0ADFB084BF3
:104AC00009482C221A6002F009FB01F0A5FB00BF87
:104AD000740000207C000020800000206C0000207A
:104AE00030010020FC910008E891000868000020D7
:104AF00010B5064802F0CCFC044603F0D7FD014691
:104B00002046BDE8104000F033BB00BF1092000803
:104B100010B582B003F0CAFD094A0A4B11681B6840
:104B20000446A34288BF01310748019102F0B0FC5E
:104B30000199224602B0BDE8104000F019BB00BF49
:104B4000900000208C000020209200082DE9F04108
:104B5000264D274E2B68274F01332B603368081AE8
:104B60000344B0F5803F0C46336019D23B6800FB2C
:104B700000F0FF3003EB1020984238BF4FF0FF30B9
:104B800038601D48DFF87C8003F08AFDD8F80030DB
:104B900001461944204603F085FD70B1BDE8F0815F
:104BA000B0F5801F06D200F1FF023B68120A00FB3D
:104BB0000230E1E74FF0FF30E2E7104802F068FC16
:104BC0003B683268296800F0D3FAD8F80030A34275
:104BD00003D90B4A1368013313600023C8F800405F
:104BE0003B6033602B60BDE8F08100BF70000020A7
:104BF0009400002098000020404B4C0038920008A0
:104C0000900000208C00002008B5044B044831229D
:104C10001A6002F063FA01F0FFFA00BF30010020D1
:104C20005892000801F00CBB10B50E4B04681B68CD
:104C300042689C4282B012D2D2B21119994201D973
:104C40001A1BD2B20848019202F022FC074B019ACB
:104C50002344214602B0BDE8104000F089BA00228A
:104C6000F0E700BF08A30008689200081C9A00083B
:104C7000704700BF704700BF00B50849084A094B9C
:104C80001268096808481A6083B0019102F000FCBC
:104C9000019903B05DF804EB00F06ABAAC010020A2
:104CA00050010020440100209092000810B50648F1
:104CB00002F0EEFBBDE8104040F2E93340F25A2228
:104CC00040F2EA7100F054BAA492000838B5084ADC
:104CD000084B15681C68084802F0DAFB621B002AC2
:104CE0002946B8BF5242BDE8384000F041BA00BF83
:104CF0004401002060010020CC92000810B5064A53
:104D0000064C036806482360138002F0C1FB21684B
:104D1000BDE8104000F02CBA3E000020000000204A
:104D2000EC920008F8B5877F04469FB100252F4616
:104D300001262B46043304EBC30393E8030003F07E
:104D400007FA01357100EBB200B13743A27F9A42F6
:104D5000CEB2EFD8227CBA4207D0637C7B40DB43E3
:104D600082EA0701DBB20B4210D194F91C30257F97
:104D70006774002B04DB013DEDB2FF2D1ED02577BB
:104D8000D4E9023213440120A360F8BD22EA0302F1
:104D90003B401343A27C2374072AE6D8511C2244CB
:104DA000A1740848D37401F0E7F9FF232377D4E90D
:104DB0000232677413440120A360F8BD014801F07A
:104DC000DBF9DCE79C00002010B50479082C09D839
:104DD000221D08490078D200FFF7ACFD064B84770E
:104DE000436010BD054B064825221A6002F076F993
:104DF00001F012FAC94D0008254D000830010020CD
:104E00000C93000870B51149054682B00078FFF791
:104E100071FD2B79827F9A4204460ED96E46D5E900
:104E2000021230461D1D03F06BF996E8030004EBF7
:104E3000C50484E8030002B070BD054B0548262276
:104E40001A6002F04BF901F0E7F900BFC94D000804
:104E5000300100202093000838B514490546007839
:104E6000FFF748FD044601F0FBF86B68A360A968F2
:104E7000E16000232A7CA374E376FE23627422742B
:104E80002377EB6863771B0607D401B938BD20464A
:104E90003021BDE8384001F0F5B9054B054827221F
:104EA0001A6002F01BF901F0B7F900BFC94D000804
:104EB000300100204893000838B5154904460078B1
:104EC000FFF718FD2479C37E05462344C37603F01B
:104ED000B3FBAB7CA34207D8FE230022AA742B7736
:104EE000BDE8384003F0AABB1B1BD8B205F1130282
:104EF00004F112032B44141813F8011F02F8011BCC
:104F0000A242F9D1A874BDE8384003F097BB00BFB6
:104F1000C94D0008F0B51A4885B001F035F948B31D
:104F2000FF23184D184F8DF80F3029460DF10F0053
:104F3000FFF72CFD0446E8B1237FFF2BF5D103F0EA
:104F40007BFBA67CC6B1637F237703F077FB3846F3
:104F500002F09EFA1334227A9DF80F100094334623
:104F600000F006F929460DF10F00FFF70FFD04468A
:104F70000028E1D105B0F0BD03F060FBD5E700BF2C
:104F80009C000020C94D00086C930008704700BFCA
:104F900070B514799668651EA4B3814233D316F8B0
:104FA000012B042A20D810F8012B02F0600CBCF170
:104FB000600F03F1040E02F07F0408D164F01F04B7
:104FC00005E010F8012B02F07F0C4CEAC414120625
:104FD000F7D41C60B5B1814215D316F8012B042A11
:104FE00005F1FF357346DED9072A0CD1024612F8C7
:104FF000014B1019884206D89E464EF8084B5A605D
:10500000002DEAD170BD024802F068F801F004F901
:10501000989300082DE9F8438B78052B06469446B3
:105020001C4666D9053B821CD4180B88CF784D6886
:105030007F2B00F28C80114603F07F0301F8013BC7
:10504000002F53D08C42C0F08A802F4430E05CF8AF
:10505000043B03F120027F2A22D903F58052B2F5E6
:10506000804F18D303F50022B2F5001F0ED303F1D1
:105070008062B2F1805F04D31A0F62F07F0201F800
:10508000012B5A0D62F07F0201F8012B9A0B62F09E
:105090007F0201F8012BDA0962F07F0201F8012B8F
:1050A00003F07F0301F8013BBD421FD08C4256D371
:1050B00015F8013B052B30D0C9D9063B012B4ED842
:1050C000E0460B4658F8082B611A914228BF11465A
:1050D00003F8011B89460A461846DCF8041003F061
:1050E000C5FFBD4200EB0901C446DFD1891BCC1CC2
:1050F000E3B21D4A337012787270E51E29463046BD
:1051000003F0A8FB030A735526447E2306F8020C1D
:1051100006F8013C2046BDE8F8835CF8040B0378F0
:105120004A1C6BB1944202D817E094420BD002F8AB
:10513000013B10F8013F002BF7D1531A013BDBB2C2
:105140000B701146B0E7631A013BDBB2F8E7DA09EE
:1051500062F07F028270C21C6DE70023F0E7034813
:1051600001F0BCFF01F058F804000020B0930008E3
:105170000FB430B5084D2C7883B0E4B23CB90123AC
:1051800007A906982B70019103F002FA2C7003B066
:10519000BDE8304004B070479D000020014B002264
:1051A0001A7070479D0000202DE9F04B804615468F
:1051B0000C4619B900202860BDE8F08B2F4E3778D7
:1051C000FA0711D40429F5D907787B1F3B2B05D8A2
:1051D00090F8019029F00F03102B1ED07E2F36D0AF
:1051E000337843F00107377022467E214046FFF7AF
:1051F0003FF950B3A0EB080007F0FE07013037700D
:105200002860BB071DD447F0020333701C48FFF72A
:10521000AFFF4FF0FF30BDE8F08BB942CAD3C319DE
:1052200013F8012C7E2AD9D1F91E13F802BC435C75
:105230004BEA032B03F00EFB83450DD098F800706A
:10524000CCE74FF0FF30BDE8F08B2C60D9E70123AD
:105250002B604FF0FF30AFE70A4932780B782F60B0
:1052600022F002024B453270D0D1013303F00F031C
:1052700043F010030B7001209EE700BF9E0000204A
:10528000D8930008040000202DE9F04B033900F109
:105290000209451882B0A94500AF30D2DFF89480EA
:1052A00099F9002099F80040002A6E462BDB09F19D
:1052B0000100ACB31D4B1B889C4231D208EB041299
:1052C000294693787A609B00073303F4FF63ADEBC4
:1052D000030DEB465B46FFF75BFE2401814600F0C1
:1052E0005BFF18B17A68D278D30715D5444403F030
:1052F000B3F9E26858469047B546A945D0D3083778
:10530000BD46BDE8F08B99F80120E40104F47E5419
:1053100009F102001443CCE700F05CFFB546ECE76E
:10532000034801F0DBFE00F077FF00BF7CA6000819
:10533000C89300080CA300080148FFF719BF00BF7D
:10534000D893000830B5D0E9004083B0FFF71EFEC7
:10535000054603F075F9E3B2012B0FD0022B10D0F4
:105360002978C9B2019103F06FF9074802F090F86B
:10537000019903B0BDE83040FFF7FABE298889B231
:10538000F0E72968EEE700BFE093000870B5044637
:10539000D0E90050FFF7FAFDA668044603F050F983
:1053A000EBB2012B07D0022B0BD0F6B22670BDE872
:1053B000704003F049B9B6B22680BDE8704003F0F2
:1053C00043B92660BDE8704003F03EB910B5D0E99E
:1053D000004082B0FFF7DAFD0190054802F058F86E
:1053E000019AE1B202B0BDE81040FFF7C1BE00BFB4
:1053F000F4930008704700BF30B50B4983B00446F2
:1054000028220078FFF796FA6D4603466168A26885
:1054100028461C4602F074FE95E8030004F10C03D4
:1054200083E8030003B030BDF953000838B500F13C
:105430000C03044693E8030002F08AFE94F824501B
:1054400088B1ED4305F001058DB994F82630013B94
:1054500013F0FF0315D0A268A16984F826300A442E
:10546000A260012038BD05F00105002DEDD00849EE
:10547000E26994F8253084F82630C4E9011201204D
:1054800038BD206A94F8271001F08EFC284638BDFC
:105490009554000800F10C0310B5044693E803008E
:1054A00002F056FEA36862691A4494F8243030B1C1
:1054B000DB4303F0010333B1A260012010BD03F010
:1054C0000103002BF8D1044BE26163602046BDE884
:1054D0001040FFF7ABBF00BF2D54000870B51D4949
:1054E00005460078FFF706FA044600F0B9FD6B6840
:1054F000A360AB68A3612B7B84F8253043B91648C1
:10550000164A84F82430012103702362117070BDA3
:1055100002F02EF92A6994F8253084F82630626169
:105520006A690D4B002A14BF0322022284F824204A
:105530000B4A287E626001261E7001F061FCEB6957
:1055400084F82730206231462046BDE8704000F0E4
:1055500099BE00BFF95300089F0000203C000020C6
:10556000955400082DE9F041134E1449012333707E
:10557000077884B03846FFF7BDF9044603F05CF8BD
:10558000E36994F82480039303F058F80C4801F081
:105590007FFF0C34054694E8030002F0D9FD039B1D
:1055A0000090C8F3400239462846FFF7E1FD00238A
:1055B000337004B0BDE8F0819F000020F95300086B
:1055C0000494000838B505780D492846FFF792F98C
:1055D000044600F045FD002394F82510094A84F89C
:1055E0002610236284F82430137002F0C1F80648B4
:1055F00001F04EFF29460122BDE83840FFF7B8BD53
:10560000F95300089F0000204094000830B5D0E90D
:10561000011283B0003A04466D4618BF01222846A5
:1056200002F0ECFC0F4920783422FFF783F903469F
:1056300095E8030003F1180282E80300D4E902218F
:10564000003A18BF012209B142F0100283F830205D
:1056500022691A620C2103F1280003B0BDE8304032
:10566000FFF70AB90D5600082DE9F84300F12808A4
:1056700004464046FFF7E0F8002840F0A08040468E
:10568000FFF7F0F885682E1E18BF012604F11803F5
:105690000746324693E8030002F0EAFC3846FFF77B
:1056A000A9F8C5B1636AAB4215D9276A002F68D142
:1056B000404646F00206FFF7BFF8002800F087805A
:1056C00094F83030676103F010033343A66884F820
:1056D00030302E4426E094F83030B5FA85F283F06D
:1056E0001003C3F3001352099A4225D0276A1FB34F
:1056F000A168404646F004060F44FFF79DF80028D5
:1057000048D094F83030676103F01003334384F8D5
:105710003030B30726D5A6682E443946304602F00D
:10572000C1FFF8B1636A2B4A5B1BC4E90126C4E9D7
:1057300003530120BDE8F8834046FFF77DF8A8B980
:1057400081464046FFF77EF8476894F8302067614D
:1057500046F0040602F01002164384F83060B9F1F6
:10576000000FD8D1A7600120BDE8F88394F830304D
:1057700003F010033343002084F830306061BDE84B
:10578000F883A168404646F006060F44FFF754F838
:105790000028B6D14046FFF755F8034638465F6803
:1057A000394602F07FFF06F002090028CDD00A4BEF
:1057B0000A481E221A6001F091FC00F02DFD064BF4
:1057C00007481D221A6001F089FC00F025FD4FF00A
:1057D0000209B6E7E5570008300100209094000860
:1057E0006494000838B5044600F1180393E80300F8
:1057F00002F034FC94F83030A56883F00103DA0736
:105800004CBFE268226984F830305B07154402D44B
:10581000A560012038BD6169284602F043FF0028D9
:10582000F6D1034B65696360A560012038BD00BFF8
:105830006956000838B50D4905460078FFF75AF853
:10584000044602F0F9FE04F12800FEF7F5FF28B146
:105850006B686362BDE8384002F0F0BE044B054857
:105860001F221A6001F03AFC00F0D6FC0D56000829
:1058700030010020C8940008F8B523490646007896
:10588000FFF738F80446FEF7BDFF77684760B36856
:105890008360054602F0D0FE04F128012846FEF799
:1058A000D3FFA0B194F830506A071ED445F004032A
:1058B00084F83030AB0767610DD4204600F0D0FB90
:1058C000124B0F21C4E90137204600F0DBFCBDE894
:1058D000F84002F0B3BEA068394602F0E3FE0028AB
:1058E000EBD0BDE8F84002F0A9BE6069394602F08D
:1058F000D9FE0028DAD0064B064820221A6001F0B3
:10590000EDFB00F089FC00BF0D5600086956000849
:105910003001002090940008F8B52449054600782D
:10592000FEF7E8FF044600F09BFB04F12800FEF7B9
:1059300083FF90B32E7994F83050371E18BF01279B
:1059400004F1180393E803003A4602F091FB85F056
:105950001001B6FA86F35B09C1F300118B4201D046
:10596000236A2BB905F010053D4384F83050F8BD8B
:1059700002F09CFE05F01005236A3D43184445F0F3
:1059800004050B4B84F83050C4E9013060610E21EE
:105990002046BDE8F84000F075BC064B06482122C1
:1059A0001A6001F09BFB00F037FC00BF0D560008A9
:1059B00069560008300100200095000830B583B01A
:1059C000FF23124D8DF8073013E094F8302093E850
:1059D000030002F0100202F04BFB94F8303013F099
:1059E000100318BF112304F1280084F83030FEF7AB
:1059F0003FFF29460DF10700FEF7C8FF044600F1FE
:105A000018030028E1D103B030BD00BF0D560008D7
:105A100000B5034683B0D3E90012684602F0EEFAFF
:105A200003B05DF804FB00BF70B50A4B1E68002E82
:105A300082B00CDD084D00242A7955F8081B684611
:105A400002F00102013402F0D9FAB442F4D102B0FA
:105A500070BD00BF34A7000834A7000870B582B03D
:105A600004466D4641680022284602F0C7FAA36842
:105A70009EB21B0412D406F118020C49207892B28F
:105A8000FEF758FF034695E8030083E80300D4E9D6
:105A900003129E8299601A6102B070BD044B0548E2
:105AA0001A221A6001F01AFB00F0B6FB5D5A0008DA
:105AB000300100203095000870B511490446007887
:105AC000FEF718FF0346D4E9026065681C46FFF73D
:105AD0005DFA2B0401460AD4A28AAB19934206D878
:105AE000163532466019BDE8704003F0BFBA054B69
:105AF00005481B221A6001F0F1FA00F08DFB00BF8F
:105B00005D5A0008300100204C9500082DE9F04B4B
:105B10002DED028B0378624988B0184608EE103AE2
:105B2000FEF7E8FED0E90354059002F0BFFD401BEC
:105B3000844206D902F090FD02F0B8FD401B844279
:105B4000F8D8059D95E8030005F11602AF8A039782
:105B500006AE86E803000492029202F0A7FDAB684D
:105B600001930446002F50D0DFF84891029B13F8B0
:105B7000017B02934FF008083B064A484BD502F0E0
:105B80008FFDA9FB0035AD0C02F090FD001B854296
:105B9000FAD802F051FD02F089FD054696E80300AF
:105BA00002F05CFA02F04AFD019B2C1BA3425FD974
:105BB0003D4802F075FDA9FB00347F00A40C02F003
:105BC00075FD401B8442FAD802F036FD96E80300CA
:105BD00002F044FA02F032FD02F068FD83463348D9
:105BE00002F05EFDA9FB0034A40C02F05FFDA0EB07
:105BF0000B008442F9D82C46B8F10108BCD1DDE98C
:105C000003231344029A9A42B0D102F04FFD059B40
:105C10000122D86036E002F043FDA9FB0035AD0C4F
:105C200002F044FD001B8542FAD802F005FD02F0A7
:105C30003DFD834696E8030002F010FA1B4802F08F
:105C40002FFDA9FB0035AD0C02F030FDA0EB0B00E1
:105C50008542F9D896E8030002F000FA02F0EEFC63
:105C6000019BABEB0404A34202D97F005C46C3E76F
:105C7000002296E8030002F0FBF902F017FD059BF5
:105C80000022D8600A48019201F002FC019A18EE45
:105C9000101A08B0BDEC028BBDE8F04BFFF768BAF4
:105CA0005D5A0008D012130010EB0900400D0300EC
:105CB0006C95000883DE1B4330B50C4983B0044665
:105CC0002C220078FEF736FE6D4603466168A26816
:105CD00028461C4602F014FA95E80300044A04F131
:105CE000240383E80300626003B030BDB95C0008A0
:105CF000F55C000870B58369044600F1240292E85F
:105D0000030003F00105A66802F022FA854203D0E1
:105D1000A369E6610133A3616069314602F0C2FC08
:105D200028B9D4E9023213440120A36070BD94F86D
:105D3000202023690748334442F0010284F82020E0
:105D4000636100F019FAD4E9023213440120A36020
:105D500070BD00BFA000002038B50A490546007894
:105D6000FEF7C8FD044600F07BF96B68A360AA68E3
:105D7000E260EA682046C4E904233821BDE83840DF
:105D800000F080BAB95C000870B51C4886B000F01D
:105D9000FBF980B3FF231A4D1A4E8DF817302946B0
:105DA0000DF11700FEF7F2FD044620B394F8203001
:105DB000DB07F4D502F040FC94F82010A268A36938
:105DC000039221F0010184F820100293E46902F0AB
:105DD00035FC304601F05CFBDDE902329DF817101E
:105DE0000094FFF7C5F929460DF11700FEF7CEFD27
:105DF00004460028DAD106B070BD00BFA000002024
:105E0000B95C00089095000838B5027B81680446AB
:105E1000007902F0B9F90949054620222078FEF7F9
:105E200089FDD4E90412064BC5608182436002619A
:105E3000BDE838400C211830FEF71EBD095E000891
:105E4000455E0008F8B500F1180604463046FEF736
:105E500009FD078905463946E06802F097F92846AA
:105E6000FEF7C8FC3046FEF7E7FC60B1A38ABB42F0
:105E700024D0206900B9F8BDA368114A1844C4E9C8
:105E800001200120F8BD3046FEF7DCFCA38A4568FE
:105E9000BB4201D0236913B9A5600120F8BDA068F9
:105EA0002946184402F0FEFB0028F5D0054B0648B1
:105EB00018221A6001F012F900F0AEF90020F8BDC6
:105EC000CD5E000830010020CC95000808B5044BD9
:105ED000044817221A6001F001F900F09DF900BF93
:105EE00030010020FC95000870B51C49054600787B
:105EF000FEF700FD0646FEF785FC6B684360AB6865
:105F00000381044602F098FB06F118012046FEF7D3
:105F10009BFC054602F092FB05B970BD304600F0CF
:105F20009FF80F4B72689A4209D063680D4A304659
:105F3000C6E901232D21BDE8704000F0A3B96168D6
:105F4000B06802F0AFFB0028EFD0074B07481922DA
:105F50001A6001F0C3F800F05FF900BF095E0008A5
:105F6000CD5E0008455E000830010020CC95000899
:105F700070B582B0FF230C4D0C4E8DF8073008E051
:105F8000E068A18A02F002F9666004F11800FEF7E9
:105F90006FFC29460DF10700FEF7F8FC04460028C7
:105FA000EED102B070BD00BF095E0008455E00087A
:105FB000027A4168007802F0E7B800BF002070471D
:105FC000084B094810B500221A7202F069FB074A13
:105FD000074994680346234403F100440120936079
:105FE0008C6010BD08000020A08601002000002069
:105FF0002C00002010B5044601F086FC0C4B1B78E9
:10600000012B09D04FF47A7002F04AFBA3680246D4
:1060100013440120A36010BD064A11780029F1D174
:10602000054906481370064B096801601960E9E7E5
:1060300068010020B8000020500100205C01002011
:106040004401002010B5044601F0F2FD642002F086
:1060500027FBA368024613440120A36010BD00BFC4
:1060600010B5044602F0ECFA0E490B68A34202D1C7
:1060700011E0A3420CD01A461B68002BF9D14B68E3
:10608000A34204BF084B4B60BDE8104002F0DCBAED
:1060900023681360F3E7054BA2689A6022681A60D0
:1060A0000B60ECE708000020200000201400002016
:1060B0002DE9F8431C4F3E68736830463BBB00F047
:1060C00011FBB568336838B39968284602F0EAFADC
:1060D00010B12846BDE8F8837C683368A168D3F81E
:1060E00008903B60284602F0DDFA00B13C68A0460B
:1060F00024682846A16802F0D5FA0028F7D04D465A
:1061000034607E60C8F800602846BDE8F883984790
:10611000B56833680028D7D17A689D683B60B24281
:10612000D7D17B60D5E700BF08000020074B084AA5
:106130000849094810B49C6894605DF8044B0A60F3
:106140004B601360186002F0B7BA00BF2000002057
:1061500014000020080000202C000020014B002229
:106160001A72704708000020024B187AC043C0F32F
:10617000C010704708000020024B00221A72012351
:10618000037070470800002003780246D8B210B1AF
:106190000023137001207047024B587A003818BF53
:1061A000012070470800002010B5064801F070F982
:1061B000054B064A06491B6812680978BDE810407D
:1061C000FEF7D6BF28960008A8000020A4000020F3
:1061D0001801002008B50A4801F05AF9094B0A4A8B
:1061E0000A491B6809781268FEF7C2FF084801F0E7
:1061F0004FF9084B997ABDE80840FEF7B9BF00BFD8
:1062000028960008A8000020A40000201801002003
:10621000609600080800002000B583B0019002F0ED
:106220000BFA01990148FEF779F900BFBC00002084
:1062300008B5024800F052FFFFF7EEFF8496000811
:1062400008B5084A537A23B1022B1CBF00235372AE
:1062500008BD054B054816221A6000F03FFFFFF706
:10626000DBFF00BF08000020300100209C960008E2
:1062700008B5034B5B7A03B108BDFFF7CDFF00BF44
:10628000080000202DE9F04BDFF8949085680E4659
:10629000074602F0D5F9D9F800408046A1682846A3
:1062A00002F000FA70B9264624682846A16802F078
:1062B000F9F90028F7D03C6037604046BDE8F04B64
:1062C00002F0C2B902F0F2F983460146284602F014
:1062D000E9F958B90D4BC9F800309C4208BF246851
:1062E0003C609D601F6002F0E7F9E6E7084B094853
:1062F0001D60094BC3F800B0084B1E7000F0EEFEA5
:1063000099F80930002BE5D1FFF786FF1400002033
:10631000A8000020C0960008A4000020180100205A
:106320000800002038B50A4D0A4B6B6002F0BEF938
:1063300004464FF47A7002F0B3F900230444AC60D1
:1063400028462B606221BDE83840FFF79BBF00BFA5
:106350001C010020F55F000838B5094D094B6B6042
:1063600002F0A4F90446642002F09AF900230444E0
:10637000AC6028462B606021BDE83840FFF782BF43
:10638000AC0000204560000870B582B000F05AFEF5
:1063900001F0A4F901F050FAFFF7C4FFFFF7DCFFAA
:1063A000304801F075F8FEF7E3FE02F045F92E489B
:1063B000FEF7AEF80446002834D102F03FF902F0AF
:1063C00075F92A4C2A4D20601AE0FF232B7202F047
:1063D0003FF995F90830002BF9D102F02FF902F0BE
:1063E00065F923681844206001232B7200F050FEE9
:1063F00002F05CF9064631462068FEF7A7FB2660EE
:1064000002F02AF995F90830002BEDD002F04EF990
:106410002368181A206002F00FF995F90830002B54
:10642000DBD0D2E702F008F902F040F9104B5A7ABB
:10643000014602B99C720E4C019102236372FFF770
:1064400075FE00F00DFE0123637202F0F7F8FFF70E
:10645000ABFE084801F01CF8A27A0199FEF788FE0D
:10646000ABE700BFD0960008BC0000202801002048
:1064700008000020DC96000838B500F13405044619
:106480002846FEF7D9F910B10020606138BD2846D2
:10649000FEF7E8F9B0F90830426823821344E3605C
:1064A00094F84430D90605460FD5A1684389636145
:1064B0000A44A2602A7BD20711D4226B13442363BF
:1064C0002846FEF797F9012038BDA16943890A449F
:1064D000A261A2605A0062612A7BD207EDD5216BCE
:1064E00004F128025B1A236392E8030001F0B6FD71
:1064F000E6E700BF70B500F12003044693E803000F
:1065000001F0ACFD02F0D2F86369E169013BDA0702
:10651000636100EB010503D5A5600126304670BD1F
:1065200083B1E268A069B4F9103010441344A0614B
:10653000E360294602F0B6F80028EDD1A369A36014
:106540000126EBE72046FFF797FF06460028E5D037
:10655000A068294602F0A6F80028DFD0A3684FF40F
:106560007A705E1B02F09CF84042B042D4DD044BCE
:1065700004480E221A6000F0B1FDFFF74DFE00BF87
:1065800030010020049700082DE9F041054632490A
:10659000007882B04822FEF7CDF9EF68002F04465C
:1065A00027DD04226E4680F844206968304601F0F9
:1065B00025FD96E8030004F1200383E80300002290
:1065C000A968304601F01AFD96E8030004F128039B
:1065D00083E803004FF0404323632B69E3611021FC
:1065E00004F13400FEF748F91C4B636002B0BDE8CB
:1065F000F0814FF000086E4680F84480696842469A
:10660000304601F0FBFC96E8030004F1200383E828
:1066100003004246A968304601F0F0FC96E803000A
:1066200004F1280383E803004FF0404323632B6900
:10663000E361102104F13400FEF71EF9E369002B39
:10664000D2D1002FD0D094F8443043F0100384F816
:10665000443002B0BDE8F08189650008F5640008A7
:1066600038B50446A0F13C052846FFF7F9FC237A2B
:1066700054F80C1C002244F8342C44F8242C54F810
:10668000282CD8064CBF891AA1EB520103F0140341
:10669000002943F00803C8BF49420022237205F1D4
:1066A000280344F80C1C44F8282C93E8030001F05C
:1066B000DFFC227AD3060DD5083C03E0FEF7D2F8C2
:1066C000FEF798F82046FEF7B7F803462046002B61
:1066D000F4D038BD203595E8030002F0040201F043
:1066E000C7FCE9E700F1200310B5044693E8030076
:1066F00001F0B4FC6369013B0AD0D4E90210B4F99B
:106700001020636101440244C4E90212012010BD5B
:106710002046BDE81040FFF7AFBE00BF70B5294965
:1067200005460078FEF7E6F80646FEF76BF86B685C
:1067300043602B8943810446002B3BD0EA680281E9
:106740000023037301F078FF96F8443003F0010151
:10675000C3F34002914205D0227B42F0010283F054
:10676000010322737269D2B91A0711D406F13401F8
:1067700086F844302046FEF767F83046FFF77CFE87
:1067800030461621FFF77EFDBDE8704001F056BF90
:106790002046FEF72FF8BDE8704001F04FBF86F8A5
:1067A000443006F134012046FEF74EF8BDE8704053
:1067B00001F044BF044B05480F221A6000F08EFC24
:1067C000FFF72AFD89650008300100201C970008AA
:1067D00038B50C4904460078FEF78CF86368044627
:1067E000002B14BF0225002501F026FF94F8443049
:1067F00023F002031D4384F84450BDE8384001F003
:106800001DBF00BF8965000838B50F4905460078EF
:10681000FEF770F804466D6801F00EFF63695BB91E
:1068200094F84430A56023F00803A56184F844304F
:10683000BDE8384001F002BF044B054810221A6041
:1068400000F04CFCFFF7E8FC8965000830010020EF
:106850003497000870B506780F493046FEF74AF8BD
:10686000054601F0E9FE95F844302C6B6A69DB06B9
:106870004CBFA41AA4EB520401F0E0FE002CB8BFF8
:106880006442064800F004FE04F140423146BDE88F
:106890007040FEF76DBC00BF896500085C9700087A
:1068A00038B5084904460078FEF724F805462079F3
:1068B00000F0A6FA05F13C01034ABDE8384000F0BB
:1068C000A5BA00BF896500086166000830B583B0CD
:1068D000FF230B4D8DF8073006E0FDF7C9FF0021BF
:1068E00004F13C00FFF7BCFE29460DF10700FEF75E
:1068F0004DF804463430002CEFD103B030BD00BF5A
:10690000896500082DE9F043044685B01A490078EE
:106910003422FEF70FF894F80890D4F80480E76862
:10692000B9F1000202AE054618BF012241463046C9
:1069300001F0E6FB96E8030005F114036E4683E8D8
:10694000030001223946304601F058FB96E8030067
:1069500005F10C0383E80300B9F1000F08BF012320
:1069600022692A6218BF1123B84508BF43F02003EB
:106970002B7705B0BDE8F0830569000838B50446FB
:1069800000F10C0393E8030001F068FB637F94F8C7
:106990001CC094F81FE0656A0133DBB28CF0010C77
:1069A000734584F81CC00CF0010C29D204EBD3020F
:1069B00003F0070192F828200A4102F001029445F1
:1069C000294607D016E092F82820024102F0010281
:1069D00094450FD10133DBB2734504EBD30203F0CE
:1069E00007002944EFD3A368064A0B44C4E90123F6
:1069F000012038BDA26863770A44A260012038BD37
:106A00002946F0E7716A000800F10C0310B504464E
:106A100093E8030001F022FB01F048FE637F227F30
:106A20000133DBB282F00102012B2277637719D0A8
:106A3000042B05D8A268236A1344A360012010BD6B
:106A4000A368626A1A44801A811C226A48BF411DE9
:106A500002EBA1011844054A61620844C4E901201F
:106A6000012010BDA268801A6062E4E77D69000819
:106A700010B5837F0446B3B1027F93060AD4A3689E
:106A8000606A164A002103EB80036177C4E90123A1
:106A9000012010BD00F1140393E8030002F010027E
:106AA00001F0F2FAEBE7037F13F0200F00F10C0383
:106AB00093E803004FF001020CD101F0D9FA237FD3
:106AC000074803F0300343F009032377FFF754FB33
:106AD000002010BD01F04EFAF1E700BF696B00081D
:106AE0002C01002000F1140310B5044693E80300C4
:106AF00001F02EFB637F04EBD30C012203F00701AE
:106B000002FA01F19CF8282078B10A43D2B28CF83D
:106B10002820A27F0133DBB29A4209D9A268616AB8
:106B200063770A44A260012010BD22EA0102EEE769
:106B3000237F13F0200F04F10C0393E803004FF0C0
:106B400001020CD101F094FA237F064803F03003D0
:106B500043F009032377FFF70FFB002010BD01F07E
:106B600009FAF1E72C01002000F1140310B50446E6
:106B700093E8030001F0ECFA237F68B143F00403CB
:106B80002377637F5A1C3F2B62770FD8A368626A12
:106B900013440120A36010BD5B07F2D56077114B51
:106BA00063602046BDE81040FFF79CBF237F0022B2
:106BB000A27713F0200F04F10C0393E803004FF0C9
:106BC00001020CD001F0D6F9237F074803F030030F
:106BD00043F009032377FFF7CFFA002010BD01F03F
:106BE00047FAF1E7E56A00082C010020F8B52649CC
:106BF00005460078FDF77EFE037F13F0020604468B
:106C000000D0F8BDA8682F79FEF7C0F90A2F2D7BB8
:106C1000014631D80A2D2FD83A4604F1280002F057
:106C200025FA237F667703F0310343F00203ED007A
:106C30002377FB00E377A5772FB194F8283003F092
:106C40003F032A2B15D0226A104B6262636001F069
:106C5000F3FC01F02BFD0546C82001F021FD28447E
:106C6000A06033212046FFF70DFBBDE8F84001F09E
:106C7000E5BC074B6360EAE7064B074802221A604F
:106C800000F02CFAFFF7C8FA056900087D690008D2
:106C9000096A0008300100207C97000870B5184888
:106CA00082B0FFF771FA48B3FF23164D164E8DF8E8
:106CB000073029460DF10700FDF768FE0446E8B1EC
:106CC000237F1B07F5D501F0B7FC237F23F00803D2
:106CD000237701F0B3FC304600F0DAFBA27F9DF889
:106CE000071004F12803D208FEF742FA29460DF1F5
:106CF0000700FDF74BFE04460028E1D102B070BD4D
:106D00002C010020056900089497000830B583B075
:106D1000FF23114D8DF8073008E003C901F02AF96F
:106D2000237F03F0300343F00103237729460DF15D
:106D30000700FDF72BFE00F10C01012204460B4673
:106D400040B1207F8006E8D493E80300012201F0DF
:106D50008FF9E5E703B030BD0569000810B50446BA
:106D6000074894F8203043F0040384F82030FFF7FC
:106D700003FAA368A26913440120A36010BD00BFF9
:106D80003401002008B5242204490078FDF7D2FD23
:106D9000034A044B4260036108BD00BF856D0008D3
:106DA0005D6D0008F16D000870B590F82030DA07CD
:106DB00004460E4619D5C06984F8211023F0050356
:106DC00043F0040384F8203050B10025D0E90023BB
:106DD0003146E261C0E900559847E0690028F5D1E5
:106DE000BDE870400148FFF7C7B970BD340100200D
:106DF00008B503460C38997DFFF7D6FF002008BD83
:106E00000149FDF777BD00BF856D000870B50C46E0
:106E10000546164601F014FC636843B93EB1EB69C0
:106E2000C4E90036EC61BDE8704001F00DBC044BD4
:106E3000044801221A6000F051F9FFF7EDF900BF94
:106E400030010020B897000838B51A490546007887
:106E5000FDF750FD044601F0EFFB2046FFF700F977
:106E600004F10C00FFF7FCF8E36933B100211A4686
:106E70001B68C2E90011002BF9D1002201232384F1
:106E800084F822206B68A360AB68C4E9063233B98A
:106E9000EB6884F82230BDE8384001F0CFBB2046D3
:106EA0001D21FFF7EFF9EB6884F82230BDE8384088
:106EB00001F0C4BB856D000830B5114983B00546AB
:106EC0000078FDF717FD044601F0B6FB94F820307A
:106ED000DB0704D403B0BDE8304001F0AFBB04F1E0
:106EE0000C000190FFF7BCF86B68019863611C21EE
:106EF000FFF7C8F903B0BDE8304001F09FBB00BF09
:106F0000856D000870B50678134984B00546304693
:106F1000FDF7F0FC044601F08FFB29792046FFF7CE
:106F200043FF2046FFF79CF8002504F10C00FFF713
:106F300097F894F8213084F82050039301F07EFBF9
:106F4000064800F0A5FA039B00952A463146FEF755
:106F50000FF904B070BD00BF856D0008E097000810
:106F60002DE9F0411E4886B0FFF70EF9A0B3FF23CC
:106F70001C4E1D4F8DF8173031460DF11700FDF7EF
:106F800005FD044640B394F820305B07F4D501F0CA
:106F90008DFB054601F050FB94F8208094F82130D9
:106FA000039328F0040284F8202001F047FB9DF8A9
:106FB00017100291384600F06BFA039B0299009576
:106FC00008F00102FEF7D4F831460DF11700FDF785
:106FD000DDFC04460028D6D106B0BDE8F08100BF34
:106FE00034010020856D0008E097000870B5144E4C
:106FF00082B0FF2331460DF107008DF80730FDF711
:10700000C5FC00240546C8B1FFF72AF805F10C00BD
:10701000FFF726F8EB692BB11A461B68C2E900445A
:10702000002BF9D1EC612C8485F8224031460DF11A
:107030000700FDF7ABFC05460028E5D102B070BDA6
:10704000856D000808B5FDF7A5FBFEF7EDFC01F026
:10705000A7F801F05DFBBDE8084001F0B7B900BF3B
:1070600008B5FEF79BF8FDF71DFCFEF7A7FCFFF740
:107070002DFCFFF7BBFFFDF755FBFEF779FFFFF790
:1070800045FE01F0EBFABDE8084001F03FBB00BF50
:1070900008B501F0E1FAFFF763FF01F0DDFAFDF753
:1070A000F3FA01F0D9FAFDF735FF01F0D5FAFFF751
:1070B000F5FD01F0D1FAFEF767FE01F0CDFA01F01F
:1070C00067F801F0C9FA01F0B1FB01F0C5FA01F06F
:1070D00003FABDE8084001F0BFBA00BF10B5C049CF
:1070E0000446FDF723FA002800F02681BD4920461A
:1070F000FDF71CFA002800F01D81BB492046FDF772
:1071000015FA002800F01C81B8492046FDF70EFA58
:10711000002800F01381B6492046FDF707FA002841
:1071200000F01081B3492046FDF700FA002800F076
:107130000D81B1492046FDF7F9F9002800F00881DA
:10714000AE492046FDF7F2F9002800F0FD80AC4979
:107150002046FDF7EBF9002800F0FC80A949204605
:10716000FDF7E4F9002800F0F780A7492046FDF775
:10717000DDF9002800F0F280A4492046FDF7D6F999
:10718000002800F0ED80A2492046FDF7CFF9002845
:1071900000F0E8809F492046FDF7C8F9002800F07C
:1071A000E3809D492046FDF7C1F9002800F0DE800C
:1071B0009A492046FDF7BAF9002800F0D98098498D
:1071C0002046FDF7B3F9002800F0D4809549204609
:1071D000FDF7ACF9002800F0CF8093492046FDF779
:1071E000A5F9002800F0CA8090492046FDF79EF9D5
:1071F000002800F0C5808E492046FDF797F9002849
:1072000000F0C2808B492046FDF790F9002800F07D
:10721000B98089492046FDF789F9002800F0DE8011
:1072200086492046FDF782F9002800F0D580844980
:107230002046FDF77BF9002800F0CC8081492046EC
:10724000FDF774F9002800F0C3807F492046FDF760
:107250006DF9002800F0BA807C492046FDF766F9F8
:10726000002800F0B1807A492046FDF75FF9002838
:1072700000F0A88077492046FDF758F9002800F073
:107280009F8075492046FDF751F9002800F096804F
:1072900072492046FDF74AF9002800F08D807049B8
:1072A0002046FDF743F9002800F084806D49204610
:1072B000FDF73CF900287BD06B492046FDF736F9F5
:1072C000002873D069492046FDF730F900286BD0BB
:1072D00067492046FDF72AF9002863D06549204612
:1072E000FDF724F900285BD063492046FDF71EF91D
:1072F000002853D061492046FDF718F900284BD0EB
:107300005F492046FDF712F9002843D05D49204629
:10731000FDF70CF900283BD05B492046FDF706F944
:10732000A0B35A492046FDF701F9002814BFFF20F9
:107330002D2010BD032010BD022010BD052010BD62
:10734000042010BD062010BD092010BD072010BD6F
:10735000082010BD0A2010BD0B2010BD0C2010BD50
:107360000D2010BD0E2010BD0F2010BD102010BD2F
:10737000112010BD122010BD132010BD142010BD0F
:10738000152010BD172010BD162010BD2C2010BDDB
:107390002B2010BD2A2010BD292010BD282010BD93
:1073A000272010BD262010BD252010BD242010BD93
:1073B000232010BD222010BD212010BD202010BD93
:1073C0001F2010BD1E2010BD1D2010BD1C2010BD93
:1073D0001B2010BD1A2010BD192010BD182010BD93
:1073E0009C960008C096000884960008C893000880
:1073F000B09300089893000858920008209800085D
:1074000094910008809100086C910008E8910008B0
:107410002891000858910008FC9100084491000848
:107420000095000890940008C8940008649400082F
:10743000349700081C97000804970008B8970008C4
:10744000E4900008CC950008FC95000848930008DB
:10745000209300080C9300087C9700084C950008C6
:10746000309500084C980008649800087898000847
:107470008C980008AC980008C4980008D0980008C0
:10748000E4980008F4980008089900083499000866
:1074900010B562490446FDF749F8002800F09280D3
:1074A0005F492046FDF742F8002800F089805D49D9
:1074B0002046FDF73BF8002800F088805A49204616
:1074C000FDF734F800287FD058492046FDF72EF804
:1074D00000287DD056492046FDF728F800287BD0AB
:1074E00054492046FDF722F8002877D0524920461B
:1074F000FDF71CF800286DD050492046FDF716F81E
:1075000000286DD04E492046FDF710F8002869D0BC
:107510004C492046FDF70AF8002865D04A49204624
:10752000FDF704F8002861D048492046FCF7FEFF2B
:1075300000285DD046492046FCF7F8FF002859D0C6
:1075400044492046FCF7F2FF002855D04249204626
:10755000FCF7ECFF002851D040492046FCF7E6FF3D
:1075600000284DD03E492046FCF7E0FF002849D0D6
:107570003C492046FCF7DAFF002845D03A4920462E
:10758000FCF7D4FF002841D038492046FCF7CEFF55
:1075900000283FD036492046FCF7C8FF002837D0E6
:1075A00034492046FCF7C2FF002835D03249204636
:1075B000FCF7BCFF314B00280CBF1846002010BD63
:1075C0002F4810BD2F4810BD2F4810BD2F4810BDAB
:1075D0002F4810BD2F4810BD2F4810BD2F4810BD9B
:1075E0002F4810BD2F4810BD2F4810BD2F4810BD8B
:1075F0002F4810BD2F4810BD2F4810BD2F4810BD7B
:107600002F4810BD2F4810BD2F4810BD2F4810BD6A
:107610002F4810BD2F4810BD2F4810BDD096000830
:1076200060960008DC96000828960008EC92000896
:10763000A4920008CC920008489900089092000893
:107640006892000838920008209200081092000802
:10765000AC910008F4930008E09300085C970008E0
:1076600004940008E0970008F89000086C93000864
:10767000949700086C95000890950008149A0008EB
:107680006C990008649900087C99000874990008B6
:10769000849900089C9900088C9900089499000826
:1076A000A49900085C990008AC990008B4990008F6
:1076B000BC990008C4990008CC990008D499000826
:1076C000DC990008E4990008EC990008F499000896
:1076D000049A0008FC9900080C9A000830B50A4D7D
:1076E00087B0684601F0C6F902240123694628469E
:1076F000CDE90043049401F081F92146284601F0C8
:10770000C5F907B030BD00BF0034024010B5174CBA
:107710000FCC8CB00DF1040CACE80F000FCCACE832
:107720000F0094E807000DF1040E8CE807004FF0FD
:10773000000C5EF8040F6346724652F8041C814246
:1077400012D9013B42F80419591CF6D100230CAAA6
:1077500002EB83030CF1010CBCF10A0F43F82C0C73
:10776000E7D106980CB010BD0133F0E76C010020A2
:1077700010B4094A094C0A480A4900234FF0010C89
:1077800082F800C02360084A084C03700B70237015
:107790005DF8044B136070473C000020540100204A
:1077A000A8010020A0010020AC0100204901002018
:1077B00070B51E4C8CB0012001F05AFA204601F041
:1077C00051FB1B4B01931B4B02934FF480724FF400
:1077D0008063CDE907234FF0200C00254FF40053C0
:1077E000012601A92046CDE909C3CDE90356CDE91B
:1077F00005550B9501F09AFB3221204601F000FC63
:107800000B2368468DF8003007238DF802308DF881
:1078100001508DF8036001F06FF80221204601F05D
:10782000DBFB204601F0CCFB0CB070BD0800024031
:10783000242C01403C01002030B54FF4005087B0AB
:1078400001F01EFA1D4C684601F014F901250223CF
:10785000694608221A480493CDE90053059201F0C5
:10786000CDF8204600224FF4C87101F0E5FA00235C
:107870001A461946204601F0B3FA4FF480712046AB
:1078800001F0D4FA204601F0A5FAA4F500644FF403
:10789000006001F0F5F9002220464FF6FF7101F07B
:1078A000CBFA2946204601F0F3F9204601F092FA7E
:1078B00007B0BDE83040FFF77BBF00BF0034014098
:1078C0000034024010B50B48022101F091FB00B9D1
:1078D00010BD0848084C022101F090FB074A0849F6
:1078E000136809680748CB1A9BB223600123116013
:1078F000036010BD0000024060010020380100203C
:107900003C010020640100202DE9F04BAA490B68DE
:107910008CB0002B64D0A94B1B78002B63D1A84BF3
:107920001A68A84CDFF8E4822378DFF8E49200209C
:107930000860A54941F823200133DBB20A2B2370EC
:1079400098F8003088BF20700A2B9CBF013388F85C
:10795000003099F80030002B73D0DFF898B29B49C3
:10796000DBF80030984D03EBC303A1FB031302EBDC
:10797000D302CBF80020FFF7C9FE01AF044605F1A2
:107980002C023846294651F8043B9C4294BF1B1BED
:10799000E31A914240F8043BF5D10020A44657F881
:1079A000046F0346394651F8044CA64247D2013BC6
:1079B0005A1C41F80449F6D100230CA901EB8303BA
:1079C00001300A2843F82C6CE9D1814B069F1F60D7
:1079D000804B1B68BB4264464AD27F4B00221A6030
:1079E0000CB0BDE8F08B764C7C4D7D4823682A684E
:1079F000B0F900009B1A48BF5B420028B8BF404264
:107A00009BB280B2834240F2B080962B00F2BA80E3
:107A1000744B754800261E80038801339BB2B3F572
:107A2000967F0380FFF47DAF704B1B7823B12368F2
:107A300022686F4C2B6023600023038071E70133C1
:107A4000BBE798F800300B2BCAD1FFF75FFE6949FE
:107A500000EB800001224000086089F8002000F05F
:107A600025FE65495C4AA1FB00135B0B1360B7E779
:107A700000F01CFE604BA3FB002357485F4A0168DF
:107A80005B0B00297AD05B1AB3F5FA6FA8D30020FC
:107A9000DFF834C101465CF8043B1B1B03FB03F316
:107AA000181841EBE3716245F5D10B220023FCF776
:107AB00057FB002800F0B780431CB0EB530F4FEA90
:107AC000530240F2B080B0FBF2F311461344B1EB25
:107AD000530F4FEA5302F6D807EB5702012A38BF7B
:107AE00001228A4238BF0A4698F8001091B1002F4F
:107AF00040F09080374B1F6805EB810155F8043B3F
:107B00009C4294BF1B1BE31A9F4238BF45F8044CAC
:107B1000A942F3D102EB4203394ADBF800102B48AB
:107B20001268284C1BB23C2BA8BF3C23A0FB0101D0
:107B300002EBD102142B2A492B48B8BF14230B8027
:107B40002B4B28491A60254B1A6000232370224CC6
:107B50002C4A88F8003089F80030236003800B80BD
:107B6000012313700CB0BDE8F08B962B0AD81E4D84
:107B70001C48226800232B800380D2E603600CB0EF
:107B8000BDE8F08B194B2268174C1B780020208031
:107B900003F0FF0463B1134C238801339BB20E2B17
:107BA00023807FF6BEAE184B208001201870B8E607
:107BB0000C4B1C80B5E600BF64010020B80000201B
:107BC00060010020990100206C010020CDCCCCCCBC
:107BD0004C010020380000209C0100205C010020A6
:107BE0003E0000206A0100209A0100203C00002095
:107BF0005001002058010020D34D62109801002050
:107C0000A401002068010020490100209801002003
:107C1000480100200323A7FB03304FF0FF3320B9B6
:107C200007EB470768E7014656E71F4664E700BFD2
:107C30003D4B1A6810B4002A39D03C4A116800291B
:107C400033D01168B1F5803F2FD239490878002828
:107C500030D13849126808683749121A002A0A6078
:107C600036493748B8BF524292B20A600968026882
:107C7000C2EB011102EBA10232490260B1F900101E
:107C8000B1EB221F4FEA221021DC2F492F4C0A783A
:107C90000132D2B20020042A20700A7005D92C4A81
:107CA000147804B1107005220A7000221A605DF881
:107CB000044B7047264A00200870117801B11070FB
:107CC00021482249002202700A701A60EFE70A3147
:107CD00009B2814211DD1D491B480A780132D2B236
:107CE0000024022A04700A70DFD9194A107808B9F2
:107CF0000120107003220A70D7E7154A117801F0AD
:107D0000FF0069B1104900200870127802F0FF01ED
:107D10001AB10D4A00211170C7E70C4A1170C4E76F
:107D20000A490870F1E700BF6401002060010020EB
:107D30004901002050010020AC010020400100203A
:107D4000540100203E000020A8010020A0010020D6
:107D50003C000020704700BFFEE700BF704700BF37
:107D60005748584AD0F88830574943F4700310B444
:107D7000C0F88830106840F0010010605468534823
:107D800021405160116821F0847121F4803111602B
:107D9000116821F480211160516821F003610023F2
:107DA00021F470214FF460545160D4621363136462
:107DB0009060D069464940F08050D061D06920F091
:107DC0008050D061086840F080000860086885B085
:107DD00020F01000086002938DF8033003931368BD
:107DE00043F48033136003E0039BB3F5005F0BD0D3
:107DF0001368C3F340438DF80330039B01330393AF
:107E00009DF80330002BEFD02E4B1A68C2F340428E
:107E10008DF803209DF80320002A4DD02C4A1168CC
:107E200021F007011160116841F0020111605A68E8
:107E30005A605A6842F400525A605A6842F4A0628A
:107E40005A605A6822F0036222F470225A601A6C57
:107E500022F001021A645A680192019A42F48032B7
:107E60000192019A42F400320192019A42F00362B7
:107E700042F440220192019A5A60029A1A641A68E6
:107E800042F080721A601A689201FCD559680D4A56
:107E900021F003015960596841F0020159605368AB
:107EA00003F00C03082BFAD1054B4FF000629A60E7
:107EB00005B05DF8044B7047064B074A1A60F3E7BC
:107EC00000ED00E0001002400CC07FF80000BF048D
:107ED000002002404000002000127A0070B500250A
:107EE000124B06462C4601E013F8015F8D4207D085
:107EF0000134102CF8D10E48FFF7F0F8FEF78CF99A
:107F00000A2000F0E5FBFE2D0BD10A490A4A8B68D6
:107F100043F400038B60D2F8203843F48063C2F846
:107F200020380023C6E90034304670BD38A7000869
:107F300078980008000802400010004082B002ABB0
:107F400003E90300142002B000F0AABB82B002AB28
:107F500003E90300002002B0704700BF00B583B002
:107F600002AB03E9030000F06BFB03B05DF804EB28
:107F700000F06ABB2DE9F04182B002AB03E90300D7
:107F80001D4B984204460D46174621D003F58063E9
:107F900098422BD003F5806398422AD003F5806382
:107FA000984208BF4FF0300814D04FF0000800F09E
:107FB00047FB064607B92D044046A5610022012172
:107FC00000F010F9304602B0BDE8F04100F03CBBD3
:107FD0004FF000080023012102E00133102BE6D00E
:107FE00001FA03F22A42F8D09844E0E74FF0100873
:107FF000F0E74FF02008EDE700340240F0B53F29EC
:1080000083B00C460546164619D8114B0A0953F899
:108010002270A7B1384600F0D5F804F00F04012112
:1080200001FA04F4CDE9007402AB13E9030032460F
:10803000FFF7A0FF2846C5E9007403B0F0BD054B6B
:1080400005480B221A60FFF749F8FEF7E5F800BF74
:1080500048A70008300100206498000882B002ABF5
:1080600003E9030043694B40436102B0704700BF1E
:1080700082B002AB03E903000B46014602B91B04C0
:108080008B6102B0704700BF30B585B004AB03E927
:1080900003001A4903468B4203981DD001F5806105
:1080A0008B4226D001F580618B4224D001F580619E
:1080B0008B4208BF302510D00025019200F0C0FA95
:1080C000019A04460021284600F08CF8204605B0AD
:1080D000BDE8304000F0B8BA00250023012402E0DA
:1080E0000133102BE9D004FA03F10142F8D01D440A
:1080F000E3E71025F1E72025EFE700BF0034024059
:1081000070B53F2982B0044614D80E4B080953F8C5
:1081100020607EB101F00F0101258D40CDE90065A1
:1081200002AB13E90300FFF7AFFF2046C4E9006587
:1081300002B070BD044B05480C221A60FEF7CEFF5A
:10814000FEF76AF848A70008300100204C980008A4
:1081500082B002AB03E903000949019A8842034651
:1081600006D01B69134214BF0120002002B07047E3
:10817000012AF6D1034B1878C0B202B0704700BF95
:10818000004002403C00002000207047704700BFC4
:10819000024B4AF6AA221A60704700BF0030004026
:1081A000074B10B4002045F2555440F6FF714CF6D1
:1081B000CC421C6058605DF8044B99601A607047AF
:1081C00000300040064A00F13F4000F57F00516951
:1081D0000123800A03FA00F0084350615369704795
:1081E00000100240F0B53A4B3A4D04096E6953F85D
:1081F000243003F13F4404F57F044FEA942C01241A
:1082000004FA0CF4344300F0070C6C6100F00F0E1C
:1082100000076C694FEA8C0C45D5586A0F2404FAA4
:108220000CF420EA040003FA0CFC4CEA000058624B
:108230001D684FEA4E0C032000FA0CF001F0030415
:1082400025EA000504FA0CF42C431C6021F010040C
:10825000013C012C6FEA000017D9012404FA0EF446
:10826000E743DE6802FA0CF506403543DD609968A5
:1082700039409960D96A0140022000FA0CF00843A5
:10828000002AD8621BDD9C61F0BD5D68012404FA00
:108290000EF4C1F3001101FA0EF125EA0405294399
:1082A0005960E743DDE7186A0F2404FA0CF420EA6A
:1082B000040003FA0CFC4CEA00001862B8E7E3D0B3
:1082C0000EF1100E012202FA0EF29A61F0BD00BF0B
:1082D00048A7000800100240704700BF08B50023FF
:1082E00083F3108862B6BFF35F8F074B074A9A602B
:1082F000BFF34F8FBFF36F8F4FF4E06000F0F2FADF
:10830000BDE80840FEF740B800ED00E0004000087E
:1083100010B5104A138803F0280182B09CB239B915
:10832000220603D50B4CA3891B0606D402B010BD50
:10833000908880B200F09EF8F2E70DF1070000F09F
:10834000AFF818B142F22C03A381EFE79DF8073094
:10835000A380EBE700380140024B42F2AC029A8165
:10836000704700BF0038014008B50B484FF400517A
:1083700000F03EFE00B908BD07484FF4005100F080
:108380003DFE0648402100F007FC054800F01EFEB7
:10839000044B00221A7008BD000002400038014062
:1083A00044000240B001002008B507484FF40031F6
:1083B00000F016FE00B908BDBDE8084002484FF4C1
:1083C000003100F013BE00BF00000240F0B50120F4
:1083D0008DB000F04DFC802000F04AFC012000F040
:1083E0004FFC4FF4804000F04BFC214C06A800F0FD
:1083F00041FB4FF400730126052706A9069320468A
:108400000223079308960B9700F0F8FA06A9204676
:108410004FF4806306930B9700F0F0FA24230025B5
:1084200001A88DF8043003238DF806308DF807601D
:108430008DF8055000F060FA02A800F087FBA4F563
:108440007C444FF4613302A9204602934FF4402349
:10845000CDE90353ADF8145000F04EFB40F2255126
:10846000204600F083FB204600F07AFB0DB0F0BD03
:10847000003402407E2838B5054609D0064A1388E4
:10848000B3F5C07F03D2054C591CE554118038BDAB
:10849000FDF764FEF2E700BF34030020B4010020C2
:1084A00010B40A4B0A4993F800C00A789445034671
:1084B00008D9084C501CA25C087000201A705DF8A6
:1084C000044B70474FF0FF30F9E700BF98030020DE
:1084D00099030020380300202DE9F04B294E317814
:1084E00082B0C9B2284F01AA3846FCF75DFE051ECE
:1084F00003DC35D102B0BDE8F08B01993846FCF7BA
:10850000C3FEDDF804804FF0000B3478E4B2B4EB26
:10851000080910D100F094F83378DBB29C421CD1EA
:10852000A6F8009000F090F8002DE3DDFCF704FFC2
:1085300002B0BDE8F08B08EB0B01A9EB0B0239444C
:1085400007EB0B0000F0A0FDFDF708FE00F078F847
:108550003378CB46DBB29C42E2D000F075F8D4E72A
:10856000DDF80480B8F1200FCDD1084942463846E5
:1085700000F06CFD0028C6D1FFF7AEFEDDF80480E8
:10858000C1E700BF34030020B401002058A7000851
:108590002DE9F04B214F3B7805460E46DBB2DFF864
:1085A000808098F80040E4B2A34204D3002488F805
:1085B00000403C70234695F802C0A444BCF1600F13
:1085C00028D9ACEB0303602B01D9BDE8F08B4FF049
:1085D000000B88F800B03978C9B2DFF84890641A07
:1085E00022464944484600F04FFD87F800B0E7B204
:1085F00088F80070FFF7B0FE09EB04003246294608
:10860000FCF708FD3844C0B288F80000BDE8F04B24
:10861000FFF7A2BEDFF80C90E7B2EDE79903002068
:10862000980300203803002000487047B003002062
:10863000004870470038002072B6704762B6704735
:10864000EFF3108072B6704780F31088704700BF58
:1086500062B600BF72B67047704700BFEFF3038386
:10866000C3F3080343B14FF080736FF0060208B400
:1086700001A102B41FB51047704700BFBFF34F8F71
:108680000549064BCA6802F4E0621343CB60BFF3AE
:108690004F8F00BFFDE700BF00ED00E00400FA05CA
:1086A000C0017047401AC00F704700BF014B5868A7
:1086B000704700BF001000E04FF0E02303490022A4
:1086C0004FF080605A619A614860704700ED00E0A9
:1086D0000C4BD3F8FC20D2010AD4D3F8FC200A4971
:1086E00042F08072C3F8FC200B6843F001030B607A
:1086F000054A536803EBC01053681B1A002BFBDBC1
:10870000704700BF00ED00E0001000E0704700BFC0
:1087100070B5164D164BD5F8FC2042F08072C5F8A6
:10872000FC201A68002442F0010282B01A605C60EA
:10873000FFF786FF01230646FF2201A88DF80420DB
:108740008DF806308DF807308DF8054000F0D4F82C
:108750004FF0E02307221A614FF080625C613046DF
:108760009C616A60FFF770FF02B070BD00ED00E031
:10877000001000E000000000000000000000000009
:108780002DE9F04BDFF89890DFF89880DFF898B08B
:10879000FFF752FFD9F8007005E0FFF74FFF002DFB
:1087A0001CDCFFF749FFFDF783FCD8F80460851B4C
:1087B000B5F5807F04462B4621DCBB1B002BECDA91
:1087C00015F5FA3F25DBFDF7CFFC90B906F57A47A2
:1087D000C9F80070FFF732FF002DE2DDD8F8043051
:1087E000E31A002BDDDDD8F80430E31A002BD8DDC6
:1087F000F4E706F54856C9F800604FF420734FF0CF
:10880000E02200215361BDE8F04B91615161FFF717
:1088100015BF5846FEF762FCFDF72AFDD3E700BFFF
:108820009C030020001000E08C980008074B10B556
:108830005C68FFF701FF064A13681B1B002BB8BFDB
:108840001460BDE81040FFF7F9BE00BF001000E063
:108850009C03002000B58446A9B100EB010E4FF641
:10886000FF701CF8013B434083EA0313DBB2010AAB
:10887000DA0041EA0321F44582EA131381EA030096
:10888000EFD15DF804FB4FF6FF705DF804FB00BF0D
:108890000D4885460D480E490E4A002302E0D45883
:1088A000C4500433C4188C42F9D30B4A0B4C002338
:1088B00001E013600432A242FBD3FFF751FA00F04B
:1088C000A1FBFFF70BFDFEE70040002000000020A9
:1088D00044000020CCA7000844000020B003002082
:1088E000FEE70000034B40F0BF6040F40030D8606A
:1088F000704700BF00ED00E000B5C37813B3184B1C
:108900008278D96890F801C00078C943C1F3022188
:108910000F23C1F1040ECB400CFA0EFC1340114A98
:1089200043EA0C031B0102EB000CDBB241098CF89B
:10893000003300F01F00012303FA00F042F8210089
:108940005DF804FB037807485A09012103F01F036F
:10895000203201FA03F340F822305DF804FB00BF37
:1089600000ED00E000E100E0130710B40ED502F0C6
:108970000703446A9A000F23934024EA030301FA91
:1089800002F21A435DF8044B4262704702F007029C
:10899000036A5DF8044B92004FF00F0C0CFA02FCD6
:1089A00023EA0C0301FA02F21A430262704700BF85
:1089B0004FEA420C10B40323046803FA0CF324EAD0
:1089C000030401F0030303FA0CF321F0100C0CF183
:1089D000FF3C2343BCF1010F03600CD844684FF007
:1089E000010C0CFA02FCC1F3001324EA0C0403FA94
:1089F00002F1214341605DF8044B70470B682DE99B
:108A0000F0410D46002B33D000244FF0010803271E
:108A100003E0013433FA04F22AD008FA04F61E42C5
:108A2000F7D022466969FFF79FFF22466968FFF782
:108A3000BFFFC368A968620007FA02FC23EA0C03BF
:108A400091401943C1608368E96823EA0606A140A2
:108A5000314381602B69C16A03FA02F221EA0C0CEE
:108A60002B6842EA0C020134C26233FA04F2D4D118
:108A7000BDE8F08100234FF6FF710F220160C36053
:108A80004360426183600361704700BF816170474A
:108A900030B587B0044668460D4600F081F8144BA7
:108AA0009C4209D003F5C0539C4205D003F5806376
:108AB0009C4201D0029B00E0039B0E4803EB830322
:108AC00003EB8303A900B3FBF1F1A0FB01235A09D7
:108AD000642303FB12131B013233A0FB0313C3F304
:108AE000431343EA02139BB2238107B030BD00BF9A
:108AF000003801401F85EB5138B504460D46096822
:108B0000FFF7C6FFA389AA889BB223F480531343BF
:108B1000A381238AEA889BB223F440531343238220
:108B2000A3892A899BB223F4C0631343A381A38939
:108B30006A899BB223F00C031343A381A38AAA89F9
:108B40009BB223F440731343A38238BD00234FF438
:108B500016514FF44022C0E90013826083817047B0
:108B600083899BB243F400538381704701F01F0255
:108B70000123C1F34211994203FA02F207D00229FC
:108B80000CBF103014300368134303607047C36890
:108B900013430C3003607047C94389B201807047AA
:108BA0002C4A2D4B5168526830B40B400D014FEAEE
:108BB000934348BF6FF4F77402F4803254BF02331A
:108BC0001B19002A3ED102F1804202F50432126CD8
:108BD000D1073BD4214A02FB03F31E4A1D495268C8
:108BE0001F4D02F00C02082A1ABF1C4A02600360E3
:108BF0004C68C4F3031408BF1A462C5DE24042607F
:108C00004C68C4F302242C5D22FA04F484604C689E
:108C1000C4F3C2242C5D22FA04F4C460CC6A04F0CC
:108C20000F0C104C14F80C40B2FBF4F24261CA6A0B
:108C30000D49C2F3031230BC31F81220B3FBF2F33A
:108C400003617047034A52689203C3D5074A02FB87
:108C500003F3C2E70010024000003C0800127A0053
:108C6000ACA700087CA700088CA7000800093D00FD
:108C7000024A536918435061704700BF0010024018
:108C8000024A936918439061704700BF0010024088
:108C900081827047464B984210B466D002684B8878
:108CA000B1F804C022F07002134303600268CB885D
:108CB00022F44072026004683E4A234303609042FB
:108CC0000B88A0F82CC0038502D03B4B984201D101
:108CD0000B7A03864B7A012282820BBB036823F452
:108CE00000630360334B98420ED003F50063984253
:108CF0000AD0B0F1804F07D0A3F59833984203D043
:108D000003F58063984208D14B7B73B10368B0F1DF
:108D1000804F43F4004303600ED05DF8044B70476E
:108D2000036843F400630360DCE70368B0F1804F3D
:108D300023F400430360F0D18B7AFBB9036823F47A
:108D400080530360CB7A4FF0804203B3136843F43F
:108D5000005313600B7B4FF080420BB313685DF838
:108D6000044B43F48043136070478B8883850A88E3
:108D7000028501235DF8044B83827047036843F446
:108D800080530360CB7A4FF08042002BDED1136812
:108D900023F4005313600B7B4FF08042002BDDD196
:108DA00013685DF8044B23F480431360704700BFE1
:108DB00000100040002C01400034014000234FF619
:108DC000FF72038043808280C3800381438183815B
:108DD00083737047036843F001030360704700BF6B
:108DE000B0F808C02CF4706C4FEA0C4C4FEA1C4CE5
:108DF0004CEA03239BB203810389B2F5004F03BF02
:108E00006FEA43436FEA53439BB2C3F30E030381FC
:108E1000038923F440531B041B0C1943018103896C
:108E20009BB243F480430381704700BF83899BB2A8
:108E300019438181704700BFF8B5094C07462046A9
:108E40000E461546FFF7BAFF00233846A680258058
:108E50002146E3806380BDE8F840FFF71BBF00BFF9
:108E6000A003002002682849002322F00102884262
:108E70000260036043608360C3601BD0234B984251
:108E800012D0234B984221D0224B984224D0224B1F
:108E9000984215D0214B984224D0214B984227D09C
:108EA000204B98422AD070471F4A536843F0F00382
:108EB000536070471C4A536843F00F035360704778
:108EC000194A536843F4702353607047164A536835
:108ED00043F4706353607047134A536843F470431C
:108EE00053607047104A536843F4700353607047EF
:108EF0000D4A536843F07063536070470A4A5368E1
:108F000043F070435360CEE7080002401C0002406B
:108F10003000024044000240580002406C00024011
:108F2000800002409400024000000240D1E900238A
:108F30008260C36002688B6822F01002026030B465
:108F40000468CA6823430360426003680A6923F027
:108F50004003036004684B692243026004688A6925
:108F600024F0800404600468234303600468CB6930
:108F700024F44074046004682243026002680C6AAE
:108F800022F44062026002681343036003684A6A85
:108F900023F02003036005688B6A2C43046001689A
:108FA00021F44051016001680A430260026822F422
:108FB000804202600268134330BC0360704700BF08
:108FC000036843F001030360704700BF036823F0A8
:108FD00001030360704700BF0368194301607047D5
:108FE00003680B4214BF01200020704741607047A6
:108FF0000368194214BF0120002070474160704788
:109000000161704770B50D4D0D4C641BA410002616
:10901000A64209D10B4D0C4C00F058F8641BA4106B
:109020000026A64205D170BD55F8043B984701368D
:10903000EEE755F8043B98470136F2E7C4A700086D
:10904000C4A70008C4A70008C8A7000810B50139C4
:109050000244904201D1002005E0037811F8014F4D
:10906000A34201D0181B10BD0130F2E70A4491421F
:1090700000F1FF3300D1704710B511F8014B03F830
:10908000014F9142F9D110BD884210B501EB0204A5
:1090900002D98442234607D8431EA14208D011F8C2
:1090A000012B03F8012FF8E7024401468A4200D160
:1090B00010BD13F8014D02F8014DF7E702440346D5
:1090C000934200D1704703F8011BF9E7F8B500BFE0
:1090D000F8BC08BC9E467047F8B500BFF8BC08BC99
:0490E0009E467047F1
:1090E400414443206F7574206F662072616E67651A
:1090F40000000000616E616C6F675F696E5F73747E
:10910400617465206F69643D2563206E6578745FC2
:10911400636C6F636B3D25752076616C75653D25C9
:1091240068750000496E76616C6964206D6F7665C0
:1091340020726571756573742073697A6500000027
:10914400616C6C6F635F6368756E6B206661696CDC
:10915400656400004D6F7665207175657565206FD7
:10916400766572666C6F7700496E76616C6964200F
:109174006F696420747970650000000043616E2794
:10918400742061737369676E206F69640000000066
:109194006F69647320616C726561647920616C6CC1
:1091A4006F63617465640000636F6E66696720694C
:1091B400735F636F6E6669673D2563206372633D09
:1091C40025752069735F73687574646F776E3D25C8
:1091D40063206D6F76655F636F756E743D2568758A
:1091E40000000000416C72656164792066696E61FB
:1091F4006C697A6564000000616C6C6F635F63681E
:10920400756E6B73206661696C656400636C6F6373
:109214006B20636C6F636B3D25750000757074691A
:109224006D6520686967683D257520636C6F636BA5
:109234003D257500737461747320636F756E743D9E
:1092440025752073756D3D25752073756D73713D9E
:1092540025750000436F6D6D616E642072657175D4
:10926400657374006964656E746966795F726573A9
:10927400706F6E7365206F66667365743D25752027
:10928400646174613D252E2A730000007065656C6D
:109294005F646174612076616C75653D25690000C9
:1092A4006D63755F76657273696F6E20796561723F
:1092B4003D257520646174653D257520766572735E
:1092C400696F6E3D25750000706172616D5F766136
:1092D4006C75652076616C75653D257520726573C6
:1092E400657276653D257500747269676765725F9E
:1092F4007468726573686F6C6420746872657368EF
:109304006F6C643D256900004D6178206F662038DC
:1093140020627574746F6E730000000053657420CE
:10932400627574746F6E2070617374206D617869F6
:109334006D756D20627574746F6E20636F756E74D5
:1093440000000000496E76616C6964206275747473
:109354006F6E732072657472616E736D69742063CD
:109364006F756E7400000000627574746F6E735FC5
:109374007374617465206F69643D25632061636B58
:109384005F636F756E743D25632073746174653D0E
:10939400252A7300436F6D6D616E64207061727372
:1093A4006572206572726F72000000004D65737300
:1093B40061676520656E636F6465206572726F72A4
:1093C40000000000496E76616C696420636F6D6D06
:1093D400616E6400000005000000000064656275B1
:1093E400675F726573756C742076616C3D257500DA
:1093F400706F6E6720646174613D252A73000000FC
:10940400656E6473746F705F7374617465206F69E3
:10941400643D256320686F6D696E673D2563206E2A
:109424006578745F636C6F636B3D25752070696E3E
:109434005F76616C75653D2563000000656E64733D
:10944400746F705F7265636F7665725F7374617455
:1094540065206F69643D2563206F6B3D25630000C3
:109464004D6973736564207363686564756C696EB4
:1094740067206F66206E657874206469676974611B
:109484006C206F7574206576656E7400536368652F
:1094940064756C6564206469676974616C206F75B8
:1094A40074206576656E742077696C6C20657863CA
:1094B400656564206D61785F6475726174696F6E4F
:1094C4000000000043616E206E6F74207365742089
:1094D400736F66742070776D206379636C65207494
:1094E40069636B73207768696C6520757064617457
:1094F40065732070656E64696E67000075706461E1
:1095040074655F6469676974616C5F6F7574206EFC
:109514006F742076616C6964207769746820616374
:10952400746976652071756575650000496E7661AC
:109534006C6964206E656F706978656C2064617411
:10954400615F73697A650000496E76616C696420B5
:109554006E656F706978656C2075706461746520E0
:10956400636F6D6D616E64006E656F706978656CB4
:109574005F726573756C74206F69643D2563207335
:109584007563636573733D2563000000636F756ED7
:109594007465725F7374617465206F69643D2563DB
:1095A400206E6578745F636C6F636B3D2575206313
:1095B4006F756E743D257520636F756E745F636C93
:1095C4006F636B3D257500005363686564756C6556
:1095D400642070776D206576656E742077696C6C95
:1095E40020657863656564206D61785F6475726178
:1095F40074696F6E000000004D69737365642073B5
:1096040063686564756C696E67206F66206E657843
:109614007420686172642070776D206576656E745D
:10962400000000004C6576656C626F6172642063B3
:109634006C6F73653D25687520436C6F73655F6E51
:10964400756D3D2568752054656D705F77616B6538
:1096540074696D653D2568750000000069735F736A
:10966400687574646F776E207374617469635F7373
:109674007472696E675F69643D2568750000000057
:1096840073656E74696E656C2074696D65722063B0
:10969400616C6C656400000053687574646F776E68
:1096A40020636C6561726564207768656E206E6FF7
:1096B400742073687574646F776E000054696D6507
:1096C4007220746F6F20636C6F73650073746172C2
:1096D40074696E670000000073687574646F776E58
:1096E40020636C6F636B3D257520737461746963CB
:1096F4005F737472696E675F69643D256875000005
:109704005374657070657220746F6F206661722087
:10971400696E207061737400496E76616C696420AF
:10972400636F756E7420706172616D65746572002B
:1097340043616E27742072657365742074696D6566
:10974400207768656E20737465707065722061633C
:109754007469766500000000737465707065725FEB
:10976400706F736974696F6E206F69643D2563203F
:10977400706F733D25690000746D637561727420A8
:109784006461746120746F6F206C6172676500009E
:10979400746D63756172745F726573706F6E7365F7
:1097A400206F69643D256320726561643D252A73D9
:1097B4000000000043616E277420616464207369B3
:1097C400676E616C207468617420697320616C72C7
:1097D4006561647920616374697665007472737974
:1097E4006E635F7374617465206F69643D256320E3
:1097F40063616E5F747269676765723D2563207487
:109804007269676765725F726561736F6E3D256328
:1098140020636C6F636B3D2575000000636F6E669B
:1098240069675F7265736574206F6E6C7920617609
:1098340061696C61626C65207768656E2073687518
:1098440074646F776E0000004E6F7420612076613F
:109854006C696420696E7075742070696E00000014
:109864004E6F7420616E206F75747075742070690A
:109874006E0000004E6F7420612076616C69642074
:109884004144432070696E00526573636865647572
:109894006C65642074696D657220696E20746865F6
:1098A40020706173740000004661696C6564207403
:1098B4006F2073656E642069326320616464720092
:1098C4006932632074696D656F757400556E7375C4
:1098D40070706F72746564206932632062757300FE
:1098E400496E76616C6964207370692062757300D7
:1098F400496E76616C69642050574D206368616ECF
:109904006E656C0050574D20616C726561647920FE
:1099140070726F6772616D6D656420617420646933
:1099240066666572656E7420737065656400000018
:109934004E6F7420612076616C69642050574D200D
:1099440070696E0070615F76616C75652076616C1C
:1099540075653D25750000000000400228A7000839
:1099640037000600000000003800090180A6000846
:1099740039000E0284A600083A000F03B0A60008BE
:109984003B000B01ECA600083C0015031CA70008D3
:109994003D00100220A700083E000B0124A7000888
:1099A4003F000B01ECA60008400015031CA70008AB
:1099B4004100100220A7000842000B0124A7000860
:1099C400430012042CA700084400400130A70008FB
:1099D40045000B0124A7000846000D0288A60008D4
:1099E400470011048CA600084800110490A6000842
:1099F4004900100394A600084A00400398A60008F2
:109A04004B0040029CA600084C000A02A0A60008D5
:109A14004D001704A4A6000878DA9D580B6FDB38B4
:109A240012FE2B8481E2760FD9C0925F4980E2E076
:109A3400A4EE03DBB4D938B91E7038108C44DB446F
:109A4400F45A4ACA6317FDEFFBCD90946427E8E10A
:109A54006E816E4CCE7038CF8F33FA73A4AA6A74B9
:109A640036FA353355A5EDE86874D79A2C950FDA94
:109A7400D6A62C6A90B64972267EFAF0E5562C6D6D
:109A84002E56F99D4E539D8A9BB2CC929D32858869
:109A9400C6C7935FE2711C1D47E39F79751C095A81
:109AA4008F4FE2A9F8C9EA4CAB5AFF2CEE4CD136E1
:109AB40026ABFF1769F1F1647E1C1DB3B4791C4118
:109AC400BFA4CC7355A4D0ECCF91CAB232518D96B9
:109AD400A5496B91946DD1BC7D938CCEA229D9D12B
