:020000040800F2
:1000000040B30024B90300082901000019010000D1
:1000100021010000790000008102000000000000C2
:100020000000000000000000000000003901000096
:10003000110100000000000031010000410100003A
:10004000E5030008E5030008E5030008E5030008F0
:10005000E5030008E5030008E5030008E5030008E0
:10006000E5030008E5030008E5030008810000003F
:10007000C9000000E5030008E5030008E5030008E7
:10008000E5030008E503000801000000000000008F
:10009000000000000000000000000000E503000870
:1000A000E5030008E5030008E5030008E503000890
:1000B000E5030008E5030008E5030008E503000880
:1000C000E5030008E5030008E5030008E503000870
:1000D000E503000821020000E5030008E50300082D
:1000E000E5030008E503000800000000E503000840
:1000F000E5030008E5030008E5030008E503000840
:10010000E5030008E5030008E5030008E50300082F
:10011000E5030008E5030008E5030008E50300081F
:10012000E5030008E5030008E5030008E50300080F
:10013000E5030008E5030008E503000800000000EF
:1001400000000000000000000000000000000000AF
:10015000E5030008E5030008E5030008E5030008DF
:10016000E5030008E5030008E5030008E5030008CF
:10017000E5030008E5030008E5030008E5030008BF
:10018000E5030008E5030008E5030008E5030008AF
:10019000E5030008E5030008E5030008E50300089F
:1001A000E5030008E5030008E5030008E50300088F
:1001B000E50300080000000000000000E50300085F
:1001C000E5030008E503000800000000000000004F
:1001D0000000000000000000E5030008000000002F
:1001E000000000000000000000000000000000000F
:1001F0000000000000000000E5030008E50300081F
:10020000E5030008E5030008E5030008000000001E
:10021000E5030008E5030008E5030008000000000E
:10022000E503000800000000E503000800000000EE
:10023000E5030008E503000800000000E5030008EE
:1002400000000000000000000000000000000000AE
:10025000000000000000000000000000000000009E
:1002600000000000E503000800000000000000009E
:10027000000000000000000000000000000000007E
:10028000E5030008E503000800000000000000008E
:100290000000000000000000E5030008E50300087E
:1002A000E5030008E5030008E5030008000000007E
:1002B000000000000000000000000000000000003E
:1002C00000000000E5030008E5030008E50300085E
:1002D000E5030008E5030008E5030008E50300085E
:1002E000E5030008E5030008E5030008E50300084E
:1002F000E5030008E5030008E5030008E50300083E
:10030000E5030008E503000800000000E50300081D
:10031000E5030008E5030008E5030008E50300081D
:10032000E5030008E5030008E5030008E50300080D
:10033000E5030008E5030008E5030008E5030008FD
:10034000E5030008E5030008E5030008E5030008ED
:10035000E5030008E5030008E5030008E5030008DD
:10036000E5030008E5030008E5030008E5030008CD
:10037000E5030008E5030008E5030008E5030008BD
:10038000E5030008E5030008E5030008E5030008AD
:10039000E5030008E5030008E5030008E50300089D
:1003A000E5030008DFF80CD000F08EF800480047A5
:1003B000B138000040B300240B4800F500414FF075
:1003C0000002E0E802228842FBD108488047084842
:1003D0000047FEE7FEE7FEE7FEE7FEE7FEE7FEE793
:1003E000FEE7FEE7FEE7000000000024210600080B
:1003F000A503000810B5431A934209D28318881840
:1004000003E010F8011D03F8011D521EF9D210BDC2
:1004100040EA01039B0703D009E008C9121F08C086
:10042000042AFAD203E011F8013B00F8013B521E06
:10043000F9D210BDD2B201E000F8012B491EFBD267
:1004400070470022F6E710B513460A4604461946DF
:10045000FFF7F0FF204610BD10B5002200E0521C4F
:10046000835C8C5CA34201D1002BF8D1D8B2E1B2FD
:10047000401A10BDCBB203E00178994203D0401C72
:10048000521EF9D200207047A0E8004FF0C040F89B
:1004900004DB01B5AFF30080BDE8024001C10020DC
:1004A000704700F12C080C4658F8040DAFF300809B
:1004B00058F8040D8546200008BF012038E9F000F7
:1004C00018E9004F70470000064C074D06E0E06851
:1004D00040F0010394E8070098471034AC42F6D38B
:1004E000FFF764FF443700087437000870B58D18B3
:1004F00010F8014B14F0030201D110F8012B231165
:1005000006D110F8013B03E010F8016B01F8016B14
:10051000521EF9D1ABB110F8012B04F00C048A1A69
:100520000C2C03D0A2EB84129B1C08E010F8014BAA
:10053000A2EB0422F8E712F8014B01F8014B5B1E15
:10054000F9D5A942D4D3002070BD000000000000FE
:100550002DE9F04143F298249846C2F200440E4639
:1005600005462778002F17461ED0022D52D8EFF3EC
:1005700011804FF0200181F31188069955B105EBE8
:100580004502002304EBC2029661D761C2F82080C5
:100590009362536205EB450204EBC202D16280F321
:1005A00011880020BDE8F081A8212046FFF749FF0F
:1005B00003202061606143F2387043F25031C0F68D
:1005C0000000A061C2F20041E1614FF4806121624C
:1005D0000021A16243F278326162C0F60002E1625A
:1005E000206643F24030C2F2004060661020A066F0
:1005F0002167601EE16661670F21BFF35F8F00BF57
:10060000535C013900F8013F4B1CF9D1BFF35F8FF8
:10061000022DACD94FF0FF30BDE8F08100000000A2
:1006200080B54EF6885144F20840CEF20001C5F67E
:1006300002000A6842F470020A6050F8081C41F097
:10064000804140F8081C00BF50F8081CB1F1FF3F82
:10065000FADC40F2684C416CC5F6000C41F0010137
:1006600041644FF6FF72DCF80010CEF6F22221F062
:100670000101CCF8001001684FF0000E21F00301D9
:10068000016050F8081C4FF6FE73114040F8081C3A
:100690004FF6FE72D0F8BC10CAF6FF721140C0F8D7
:1006A000BC1040F20C320168C0F2C002114001607F
:1006B00043F6CC72D0F88410C7F600621140C0F83F
:1006C000841048F28002D0F88810C8F688021140E1
:1006D000C0F888104EF6C072D0F88C10CCF2FF3201
:1006E0001140C0F88C10D0F8C81040F2013291438C
:1006F000C0F8C81048F68802D0F8E810CFF6887223
:100700001140C0F8E8100021C1F2FF4141604FF4F0
:10071000E001C0F8C41042F22001C0F20111A1F5BD
:10072000803240F8042CC167C0F8801040F20111FB
:10073000C0F890E0C0F201018167C0F8D0E0C0F8D5
:1007400094E0C0F898E0C0F89CE050F8081C41F430
:10075000803140F8081C00BF50F8082C013B4EF1D6
:100760000001920301D40029F6D150F8081C890336
:1007700001D400BFFEE7416C4FF6F87241F0010171
:100780004164DCF80010CFF6FC7241F00101CCF8B6
:100790000010016841F080010160016841F0806152
:1007A0000160016841F00051016001680160016869
:1007B00041F480510160D0F890101140C0F89010C1
:1007C000D0F8901048F2000241F00211C0F89010E9
:1007D00050F8041CC0F28002114040F8041C41F69D
:1007E000C55250F8041CC0F20012114340F8041C1A
:1007F000816F21F07F018167816F41F00101816785
:10080000816F41F06071816750F8081C41F0807180
:1008100040F8081C50F8081C8901FBD5016821F03C
:1008200003010160016841F003010160016801F00A
:100830000C010C29FAD14FF000600021BDE8804086
:1008400001F026BC000000009FED0F1AB4EE410A33
:10085000F1EE10FA09DB9FED0D2A00BF30EE020A1F
:10086000B4EE410AF1EE10FAF8DAB5EE400AF1EE14
:1008700010FAA8BF704700BF30EE010AB5EE400A7B
:10088000F1EE10FAF8DB7047DB0FC940DB0FC9C08F
:10089000F5EE400AF1EE10FA28DDB5EE400AF1EE71
:1008A00010FA57DAB1EE401AB4EE601AF1EE10FA0F
:1008B00075DD9FED910A43F28C3020EE800AC0F680
:1008C000000080EE010ABDEEC01AB6EEC02A11EE9D
:1008D000101A30EE420A00EB810090ED001A90ED04
:1008E000012A32EE412A00EE021AD9E0F5EE400A62
:1008F000F1EE10FA50DAB5EE400AF1EE10FA6FDAC6
:10090000B4EE600A9FED7C1AF1EE10FA40F3AE806F
:1009100020EE010A43F28C31C0F6000180EE200A7D
:10092000BDEEC01A11EE100AB6EEC01A642830EE01
:10093000411A28BF64209FED710A01EB800090ED01
:10094000002A90ED013A32EE000A33EE422A01EE1F
:10095000020A7047B4EE600A9FED671AF1EE10FAD2
:1009600069DD20EE811A43F28C30C0F6000081EE82
:10097000000ABDEEC01AB6EEC02A11EE101A32EE11
:10098000400A00EB810090ED001A90ED012A32EE52
:10099000412A10EE021A49E09FED560A70479FED7A
:1009A000581A43F28C3020EE010AC0F6000080EEA7
:1009B000200ABDEEC01AB6EEC02A11EE101A32EEB1
:1009C000400A00EB810090ED001A90ED012A32EE12
:1009D000412A10EE021A9FED4D0A31EE000A7047CF
:1009E000B1EE601AB4EE401AF1EE10FA5DDA9FED46
:1009F000441A43F28C3120EE811AC0F6000181EED8
:100A0000000ABDEEC01A11EE100AB6EEC01A642834
:100A100030EE410A28BF642001EB800090ED001AFF
:100A200090ED012A32EE412A00EE021A9FED350ABE
:100A300031EE000A704720EE010A43F28C30C0F616
:100A4000000080EE200ABDEEC01AB6EEC02A11EEFC
:100A5000101A30EE421A00EB810090ED000A90ED82
:100A6000012A32EE402A01EE020A704720EE811A76
:100A700043F28C30C0F6000081EE000ABDEEC01AD1
:100A8000B6EEC02A11EE101A32EE400A00EB8100D9
:100A900090ED001A90ED012A32EE412A10EE021A72
:100AA0009FED190A31EE000A70479FED132A43F2B9
:100AB0008C3120EE020AC0F6000180EE010ABDEE84
:100AC000C01A11EE100AB6EEC01A642831EE400AC0
:100AD00028BF642001EB800090ED001A90ED012A00
:100AE00032EE412A10EE021A9FED040A31EE000A9E
:100AF000704700BF000000000000C842DA0F494004
:100B00000000C8C2DA0FC93FE4CB9640DB0FC940F2
:100B1000026883880A4442FA03F319B2D21A0260C7
:100B20000846704700000000818002FA01F1891A2E
:100B3000016070470000000080B582B042F68C6210
:100B400009A1C2F2004201204FF480634FF0000C73
:100B5000CDF800C0FFF7FCFC40F6017002B0BDE824
:100B6000804001F0C5BE00BF4A53636F70655F6986
:100B7000326932693269320080F85C1070470000D7
:100B8000B0B504460025C0E9075545620566F0305A
:100B900002F05AF8D4F8140302F0FEFA84F8CC50AC
:100BA000012084F8CE5084F8D25084F8D00084F824
:100BB000D150B0BD00000000B0B582B004464EF286
:100BC0002400C4F2000001259FED180A0068B4F863
:100BD000701060674FF40050A4F8680040F6DC70B5
:100BE000C3F64970E064C1F10E00694605FA00F0F1
:100BF000A4F86A002069E06101A801F0B9FE94ED53
:100C0000070A9DED001A9DED012A20EE011A20EE43
:100C1000020AD4F8140384ED081A84ED090A02F0DC
:100C2000C0FA84F8CC5002B0B0BD00BFDC0F493F21
:100C300070B52DED088B82B0044690F8CC000021F1
:100C400001910028009100F088824EF22400C4F245
:100C500000000168626FD4F88030A167D4F8880082
:100C6000891A8342E16705D8814203DC002084F8B9
:100C7000D00007E0012084F8D000002084F8CF00E5
:100C800084F89800D4F8100302F090FAD4F8100316
:100C9000D4ED0F0A94ED0E0A90ED011AD0ED021A70
:100CA00004F1F00084ED0A1AC4ED0B1A01F0D4FF30
:100CB00094ED4B0A9FEDCC9A94ED131A9FEDCB8ADD
:100CC00031EE400A9FEDCA1A94ED4A3A9FEDC9AA47
:100CD0009FEDC9BA002030EE010A94ED0A1A21EE08
:100CE000031A94ED0B3A30EE092AB4EE480AF1EEFD
:100CF00010FA32FE000A94ED492A03EE421A94EDEE
:100D0000283A30EE0A2AB4EE40BAF1EE10FA31EE8B
:100D1000431A32FE000A9FEDB92A84ED140A01EE4F
:100D2000023A94ED151A30EE414A04EE021A94ED9F
:100D3000294A84ED283AB0EEC32A84ED272A84EDAF
:100D4000151AB4EE442AF1EE10FAB8BF012084F867
:100D5000CE0094F8D10000284FF000000AD194F89A
:100D6000D00030B994F89800112802D394F8CE003E
:100D700000E0002084F8D20094F8CC0002287CD156
:100D8000D4E920106438814227D294F8CF0020BBE8
:100D90006846012184F8CF10011D01F0E9FD9DEDA9
:100DA000010A94ED0D1A21EE000A9DED002A94ED42
:100DB000003A94ED014A21EE021A94ED4F2A20EEFA
:100DC000033A84ED080A22EE042A84ED091A84ED20
:100DD000BE0A01EE423A84EDA83AD4E9200164311A
:100DE000884202D9002184F8CF10E16FD4F88C201A
:100DF000914207DD012284F8D120002384F8983045
:100E000084F8CC2094F87220BAB300EE101A01EEE8
:100E1000100AB4F86A2094F85C60B4F86830B8EE50
:100E2000C00A002EB8EE411A80EE010A01EE102A27
:100E3000B8EE411A20EE010ABDEEC00A10EE106AAB
:100E4000A4F86C6003D0814205D2981908E0814271
:100E500004D2981B04E0D018013801E0981A013040
:100E600081B29FEDC01A00EE101AA4F86E00B8EE21
:100E7000400A20EE010A84ED130A94F8CC00012800
:100E800016D1D4E92301E26F0844824210DD94EDCB
:100E9000060A94ED071A31EE401A94ED050A84ED26
:100EA000071AB4EE401AF1EE10FAB8BF84ED070A43
:100EB00094ED130AB4F8701094ED4B1AD4F8800036
:100EC00030EE411A4CF2803200FA01F1C0F2C91240
:100ED000B2FBF1F231EE092A94F85C10B4EE481A34
:100EE00004F13806F1EE10FA04F13C0532FE011A65
:100EF00031EE0A2AB4EE41BAF1EE10FA32FE011ACE
:100F000002EE102A84EDC21AB8EE422A84EDC32AFA
:100F100019B9B1EE422A84EDC32AB2EE042AD4ED07
:100F2000C30A41EE020AC4EDC30A94F8CF20012A95
:100F30002FD194ED500A04F5377001F0C9F8D4F8B8
:100F400004032062684694ED4B0A011D01F010FD78
:100F500004F1300004F1340194ED0A0AD4ED0B0AD7
:100F60009DEC021A01F0A4F894ED080A04F5217032
:100F7000D4ED0C0A01F0ACF89FED7B1A84ED100A59
:100F800000EE401AB0EE410A01F036FF84ED110A7E
:100F900093E040F6A413002298422262E069606266
:100FA00062D369B394ED2D1A30EE010A01F0D0FD41
:100FB00094ED132A94ED081A32EE022A94ED2A3A9F
:100FC00000EE431A94ED2E0A32EE000A84ED081A60
:100FD00001F0BEFD94ED081A94ED2B2A00EE421AA2
:100FE00004F1BC002CE000BFDC0FC9C0DC0F49409D
:100FF000DC0FC93FDC0FC940DC0F49C00AD7A33B57
:1010000094ED301A30EE010A01F0A2FD94ED132A9E
:1010100094ED081A32EE022A94ED2A3A00EE431AB1
:1010200094ED310A32EE000A84ED081A01F090FDC9
:1010300094ED081A94ED2B2A00EE421A04F1C80030
:1010400084ED081AB1EE001A94ED132A90ED000A0F
:1010500002EE010A01F07CFD94ED081A94ED2C2AB1
:1010600000EE421A84ED081A684694ED130A011D39
:1010700001F07EFC04F1300004F1340194ED0A0A21
:10108000D4ED0B0A9DEC021A01F012F894ED080A57
:1010900004F52170D4ED0C0A01F01AF884ED100A61
:1010A00094ED090AD4ED0D0A04F52C7001F010F846
:1010B000204684ED110A00F093FA94ED100AD4ED65
:1010C000110A9DEC021A3046294601F041FC4EF609
:1010D000853094ED0E1A9FED250AC4F2BF10B4EED0
:1010E000401AF1EE10FAC8BF306095ED001AB4EE68
:1010F000401A9FED1F0AF1EE10FAC8BF28604EF6A5
:10110000853096ED001ACCF2BF10B4EE401AF1EE25
:1011100010FAB8BF306095ED001AB4EE401A9FED9A
:10112000151AF1EE10FAB8BF286094ED0E0A94ED8E
:101130000F2A20EE010A04F1D40562EE010A2846C6
:1011400001F072FED4F81403294602F034F894F842
:10115000D610D4F8100302F033F802B0BDEC088BBF
:1011600070BD00BFDC0FC93849E10F4485EBBF41BA
:1011700085EBBFC1ABAA2A3D90ED041AD0F89410BC
:1011800081FE400A02EE101A9FED083A002980ED18
:10119000050A31EE401AB8EE422A81EE022A22EE0A
:1011A000032A01FE020A80ED060A704700409C45B2
:1011B00010B504460020012184F8CE0084F8D20046
:1011C00084F8D01042F2000184F8D100C4F200018A
:1011D00084F898002066A16641F20051A4F87000DE
:1011E000C7F6287184F8CC0004F1F000C4F88C1024
:1011F00001F02AFD04F5217000F0A6FF04F52C7023
:1012000000F0A2FF04F5377000F09EFFD4F814033D
:1012100001F0C2FFD4F8100301F0D7FF10BD0000A9
:10122000D0F894109FED0A3A02EE101A90ED051ACC
:1012300030EE411A002980ED040AB8EE422A81EE10
:10124000022A22EE032A01FE020A80ED060A7047F6
:1012500000409C450000000070B582B0044690F844
:10126000CC00002800F08D814EF22400C4F2000072
:101270000168626FD4F88030A167D4F88800891AB9
:101280008342E16705D8814203DC002084F8D00066
:1012900005E0012084F8D000002084F89800D4F8FC
:1012A000100301F083FFD4F81003D4ED0F0A94ED7E
:1012B0000E0A90ED011AD0ED021A04F1F00084ED4F
:1012C0000A1AC4ED0B1A01F0C7FC94ED130A94ED51
:1012D0004B1A94F85C0031EE402A30EE410A9FED43
:1012E000AA1A002802FE000A30EE010A9FEDA71A92
:1012F00084ED140AB4EE410AF1EE10FA05DD9FED1B
:10130000A41A30EE010A84ED140A94ED140A9FED3C
:10131000A11AB4EE410AF1EE10FA05DA9FED9E1A19
:1013200030EE010A84ED140A94ED0A0A94ED492A7C
:1013300094ED4A1A94ED153A20EE010A94ED0B1A39
:10134000002101EE420A94ED281A9FED942A30EE16
:10135000410A00EE021A94ED140A30EE430A00EE40
:10136000023A94ED292A84ED281AB0EEC10A84EDE0
:10137000270A84ED153AB4EE420AF1EE10FAB8BF2E
:10138000012184F8CE1094F8D11000294FF000010B
:101390000AD194F8D01031B994F89810112902D3D9
:1013A00094F8CE1000E0002184F8D21004F1380641
:1013B00094F8CC1004F13C0502294AD1E16FD4F82D
:1013C0008C20914207DD012284F8D120002384F88B
:1013D000983084F8CC2094F87220D2B3D4F88030BE
:1013E00000EE101A01EE103AB4F86A200028B4F8A2
:1013F00068C0B8EEC00AB8EE411A80EE010A01EEEC
:10140000102AB8EE411A20EE010ABDEEC00A10EE15
:10141000100AA4F86C0003D0994206D260440BE095
:10142000994206D2ACEB000006E002EB0C0001385A
:1014300002E0ACEB0200013081B29FED591A00EEE0
:10144000101AA4F86E00B8EE400A20EE010A84EDEE
:10145000130A94F8CC00012816D1D4E92301E26FD5
:101460000844824210DD94ED060A94ED071A31EE2D
:10147000401A94ED050A84ED071AB4EE401AF1EE15
:1014800010FAB8BF84ED070A684694ED130A011DEF
:1014900001F06EFA04F1300004F1340194ED0A0A0F
:1014A000D4ED0B0A9DEC021A00F002FE002020622F
:1014B000E0696062D4ED0C0A04F521709FED390AF1
:1014C00000F006FE84ED100A94ED090AD4ED0D0A31
:1014D00004F52C7000F0FCFD204684ED110A00F0AC
:1014E0007FF894ED100AD4ED110A9DEC021A3046F3
:1014F000294601F02DFA4EF6853094ED0E1A9FED37
:101500002A0AC4F2BF10B4EE401AF1EE10FAC8BFB6
:10151000306095ED001AB4EE401A9FED240AF1EE0A
:1015200010FAC8BF28604EF6853096ED001ACCF24E
:10153000BF10B4EE401AF1EE10FAB8BF306095ED6E
:10154000001AB4EE401A9FED1A1AF1EE10FAB8BF65
:10155000286094ED0E0A94ED0F2A20EE010A04F1A2
:10156000D40562EE010A284601F05EFCD4F81403AB
:10157000294601F020FE94F8D610D4F8100301F0AB
:101580001FFE02B070BD00BFDC0FC93FDC0F494039
:10159000DC0FC9C0DC0F49C0DC0FC9400AD7A33B30
:1015A000DC0FC9380000000085EBBF4185EBBFC1EF
:1015B000ABAA2A3D00000000C1F10E02012303FA8C
:1015C00002F2A0F86A2042F61502A0F87010C1F1EC
:1015D0000801C0F27F0202FA01F1C0F88C107047D6
:1015E00010B590ED100A9FED1F1A0446B4EE410AA3
:1015F000F1EE10FA04DD4EF68530C4F2BF100AE0B9
:101600009FED191AB4EE410AF1EE10FA07DA4EF620
:101610008530CCF2BF1020640020606410BD20EE45
:10162000000A94ED111AB0EE402A01EE012A9FED56
:101630000F1AB4EE412AF1EE10FAD8BF10BD31EE08
:10164000400A01F0D9FB94ED111AB1EE402AB5EE33
:10165000401AF1EE10FAB8BFB0EE420A84ED110A5A
:1016600010BD00BF85EBBF4185EBBFC149E10F4411
:101670004EF22401C4F200010A6890F85C30416F18
:101680004267511AC0F88010016E3BB1B0F86A2071
:101690000131B0F868300166991806E0B0F86A20A8
:1016A0000139B0F868300166991AA0F868109FED0A
:1016B000151AB0F8681000EE101A8904B8EE400A46
:1016C00020EE010A9FED101A20EE010A80ED130AA8
:1016D00006D190F89810FF291CBF013180F89810AE
:1016E00090F8CC10012918BF7047002180F8D11064
:1016F0000169C161D0F88C10C0F88010022180F817
:10170000CC107047DC0F494000000038000000009A
:101710002DE9F04F8FB04EF68F0440F2000842F2F0
:10172000004A40F60270CFF6FF74C5F60208C4F214
:10173000010A01F0DDF841F2011001F0D9F840F2A0
:1017400000470321C5F60207402207F580652846B9
:1017500001F040FD02210022402328464FF0000BFB
:1017600001F03DFD002101224023284601F03CFD0F
:1017700003218022284601F02DFD02210022802332
:10178000284601F02CFD002101228023284601F08B
:101790002BFD03214FF48072284601F01BFD02212E
:1017A00000224FF48073284601F019FD0021012228
:1017B0004FF48073284601F017FD03214FF40072A7
:1017C000284601F007FD022100224FF4007328464D
:1017D00001F005FD002101224FF40073284601F0BD
:1017E00003FD032100221023284601F0F8FC032109
:1017F00000222023284601F0F2FC48F64C0040F27B
:101800000016C2F20040AAF5005941F64C55C0F24C
:101810000236C0F80090C0E9015601F0EAFC40F63B
:10182000017001F065F841F2020001F061F8022157
:101830004022384601F0CEFC0221002240233846E7
:1018400001F0CDFC002101224023384601F0CCFC00
:1018500002218022384601F0BDFC022100228023B3
:10186000384601F0BCFC002101228023384601F0FB
:10187000BBFC02214FF48072384601F0ABFC022120
:1018800000224FF48073384601F0A9FC00210122A8
:101890004FF48073384601F0A7FC02214FF4007228
:1018A000384601F097FC022100224FF400733846BD
:1018B00001F095FC002101224FF40073384601F03D
:1018C00093FC032100220123384601F088FC032108
:1018D00000220223384601F082FC48F65800AAF59F
:1018E0008E37C2F20040C0E90075866001F081FCCD
:1018F0004FF4706000F0FCFF4FF4805000F0F8FFF0
:1019000001210122404601F065FC02210022012351
:10191000404601F064FC002101220123404601F011
:1019200063FC01210222404601F054FC0221002206
:101930000223404601F053FC0021012202234046CD
:1019400001F052FC01210422404601F043FC022137
:1019500000220423404601F042FC0021012204231E
:10196000404601F041FC01210822404601F032FCD2
:10197000022100220823404601F031FC002101220F
:101980000823404601F030FC03210022402340465A
:1019900001F025FC032100228023404601F01FFCBA
:1019A00048F664004FF08041C2F2004080E86200D7
:1019B00001F01FFC41F21F1000F09AFFA0202C2123
:1019C00001F086FA10203A2101F082FA98202D21A8
:1019D00001F07EFA11203B2101F07AFA90202E21AD
:1019E00001F076FA1420382101F072FA8C202F21B0
:1019F00001F06EFA1520392101F06AFA4FF498507F
:101A000000F076FF41F2010000F072FFAAF5903578
:101A1000284601F0F3FB04AE304601F0F4FB43F638
:101A20009720069028463146CDF810B0ADF814B096
:101A3000CDF81CB0ADF820B0CDF824B001F0E8FB33
:101A400001AE0120ADF80400002128463246CDF851
:101A500006B0CDF80AB0ADF80EB001F0DEFB012102
:101A60002846324601F0D9FB02212846324601F0D1
:101A7000D4FB03212846324601F0CFFB002170221F
:101A8000284601F0CFFB00210822284601F0CFFBB9
:101A900000214FF47A72284601F0CEFB012170221A
:101AA000284601F0BFFB01210822284601F0BFFBB8
:101AB000012141F28E22284601F0BEFB0221702254
:101AC000284601F0AFFB02210822284601F0AFFBB7
:101AD000022142F23412284601F0AEFB03217022AB
:101AE000284601F09FFB03210822284601F09FFBB6
:101AF000032142F6DA72284601F09EFB8021284637
:101B000001F09FFB1021284601F0A0FBAAF510551B
:101B10001321284601F09FFB0521284601F0A0FB78
:101B20004FF08040132101F096FB4FF080400521DB
:101B300001F096FB1321384601F08DFB0521384654
:101B400001F08EFB1321484601F085FB0521484634
:101B500001F086FB4FF4985000F0CAFE41F20300FA
:101B600000F0C6FEAAF58C35284601F047FB04AE0E
:101B7000304601F048FB43F6972006902846314650
:101B8000CDF810B0ADF814B0CDF81CB0ADF820B061
:101B9000CDF824B001F03CFB01AE0120ADF804000B
:101BA000002128463246CDF806B0CDF80AB0ADF88F
:101BB0000EB001F032FB01212846324601F02DFB28
:101BC00002212846324601F028FB032128463246EE
:101BD00001F023FB00217022284601F023FB0021A5
:101BE0000822284601F023FB00214FF48C6228468E
:101BF00001F022FB01217022284601F013FB012194
:101C00000822284601F013FB012141F20632284642
:101C100001F012FB02217022284601F003FB022191
:101C20000822284601F003FB022142F2AC122846AA
:101C300001F002FB03217022284601F0F3FA032190
:101C40000822284601F0F3FA032143F25202284603
:101C500001F0F2FA0321284601F0FDFA0521284699
:101C600001F0FEFA41F2081000F042FE41F20910C4
:101C700000F03EFE40F6154000F03AFE40F61740F8
:101C800000F036FE504601F0F0FA4FF420215046A5
:101C900001F0F0FA4FF480710122504601F0EFFAA2
:101CA0000021504601F0F0FA0021504601F0F1FA0F
:101CB00001210222504601F0F1FA002108220023FE
:101CC000504601F0F0FA012104220023504601F0B1
:101CD000EAFA01210122504601F0EAFA504601F0E9
:101CE000ECFA504601F0EEFA02210222504601F0D1
:101CF000D5FA002105220023504601F0E8FA01211F
:101D000009220023504601F0E2FA02210122504646
:101D100001F0CEFA0421504601F0DEFA802150464F
:101D200001F0DFFA504601F0E1FA204600BF013031
:101D3000FCD342F600064FF000615046C4F20106A3
:101D400001F0D9FA0021504601F0DAFA504601F0CC
:101D5000DCFA304601F089FA4FF42021304601F0D8
:101D600089FA4FF480710122304601F088FA00218F
:101D7000304601F089FA0021304601F08AFA01214B
:101D80000222304601F08AFA002107220023304661
:101D900001F089FA012103220023304601F083FA81
:101DA00001210122304601F083FA304601F085FA24
:101DB000304601F087FA02210222304601F06EFA25
:101DC000002112220023304601F081FA0121132262
:101DD0000023304601F07BFA02210122304601F057
:101DE00067FA0421304601F077FA8021304601F08D
:101DF00078FA304601F07AFA00BF0134FCD34FF094
:101E00000061304601F077FA00213046002701F0EA
:101E100077FA304601F079FA43F2807040F200041C
:101E2000C2F20040C2F20044A6F56B7140F208090C
:101E3000C0E903A443F2B070C2F20049C2F200400C
:101E400008F16845C0E903A143F2E07006F15401CE
:101E5000C2F20040C0E9036943F25070C2F2004090
:101E6000C0E903610021284601F054FA4FF0010B4C
:101E70000920CDE906B404AC0490A6F5677005907E
:101E800002200C9000212846224608974FF4805AE1
:101E9000CDF824A00B974FF44038CDF8348001F0F2
:101EA0003EFA0021284601F03FFA0021284601F0C1
:101EB00040FA00212022284601F040FA0021102299
:101EC000284601F040FA0121284601F023FA0A20B1
:101ED000049006F164000121CDE9050B2846224655
:101EE000CDE90797CDF824A002260B97CDE90C6821
:101EF00001F015FA0121284601F016FA01212846C1
:101F000001F017FA01212022284601F017FA0121D9
:101F10001022284601F017FA4FF4A06000F0ACF848
:101F20000B200121002200F073F80C200121002277
:101F300000F06EF812200121002200F069F841F251
:101F4000060000F0D5FC42F20040C4F20100A0F50A
:101F50008844204601F052F904AD284601F053F9B7
:101F60004FF0FF300690204629460496ADF81470D5
:101F70000797ADF82070099701F04AF9204601F063
:101F8000E7F90FB0BDE8F08F80B54EF6985C0179A7
:101F9000CEF2000CCCF800100168CCF8041090F8D8
:101FA0000CE0037AC279417A1B0643EA0E7390F87B
:101FB0000AE043EAC242C37A42EA8141827941EAB5
:101FC0004E41407941EA034141EA022141EA4000A1
:101FD000CCF8080080BD00004EF6A050CEF2000004
:101FE000016841F00101016070470000000000003D
:101FF00000210160017240F201114FF480624260E1
:10200000C0F20101C0F80910704700000000000094
:102010004EF60C5CCEF2000CDCF8003003F4E0630A
:10202000A3F54073B3F5A06F01D21B0A06E040F29E
:102030000053C0F2FA53CCF80030022301FA03FC3B
:10204000C3F104030F21D94011404EF20012CEF229
:10205000000241EA0C0140EA02034FF01C0C0901A6
:1020600083F800130CEAD00100F01F00012303FAEB
:1020700000F08850704700004EF60C5140F0806030
:10208000CEF2000140F0FD700860704700000000D3
:102090004FF68072C1F6FF7211404EF60852CEF232
:1020A000000208431060BFF34F8F7047000000002C
:1020B00021EE202A21EEA03A01EE802A01EE403ADC
:1020C00080ED002A81ED003A70470000000000001A
:1020D00030EE600A90ED011A90ED072A80ED090AB2
:1020E00000EE012A90ED031A80ED072AB4EE412A92
:1020F000F1EE10FA02DD80ED071A08E090ED041A07
:10210000B4EE412AF1EE10FAB8BF80ED071A90ED57
:10211000002A90ED071A00EE021A90ED060AB4EEBE
:10212000401AF1EE10FA0ADBB0EE410A90ED052AF2
:10213000B4EE421AF1EE10FA01DDB0EE420A80ED83
:102140000A0A7047000000000021C161C0E90911BE
:1021500070470000000000002DE9F04344F28C4875
:102160008146C5F60208D8F8381011F4403F0BD06C
:10217000D8F8380000F44030B0F5803F09D144F67B
:10218000000CC0F2E81C1DE049F2000CC0F2D03C8B
:1021900018E0D8F8380000F44030B0F5003F04D122
:1021A00042F2004CC0F2F40C0CE0D8F838004FF0CA
:1021B000000C00F44030B0F5403F04BF41F2002C69
:1021C000C0F27A0C58F8840C6446C0F3810EDFE844
:1021D0000EF06002091047F640044FF0000EC0F206
:1021E0007D1456E040F600144FF0000EC0F23D049E
:1021F0004FE058F8880C58F8882C58F8883CD8F8E4
:102200001060C2F38812C3F3064700F03F033004A6
:1022100002F1010407F1010002D44FF0000E03E0C7
:10222000D8F810E06FF35F3ED8F80C2002F440328B
:10223000B2F5003F07D06546002A1CBF40F60015E6
:10224000C0F23D0503E047F64005C0F27D1500EE03
:10225000104A01EE10EA9FEDE73A02EE105AB8EE8E
:10226000400AB8EE411AB8EE422A01EE030A01EE26
:10227000103AB8EE411A82EE011A20EE010A01EE80
:10228000100AB8EE411A80EE010ABCEEC00A10EE48
:10229000104A58F8843C58F8842C58F8840CB9F14A
:1022A000160F58F8845C58F8846C00F2C982C3F3A6
:1022B00003130FF22C67C2F38222C0F34230FB5C9F
:1022C00043F22457C0F6000724FA03F3BA5C385CE3
:1022D00023FA02F223FA00F0DFE819F017001A00DF
:1022E0001D00AC02200023002A004900680087007E
:1022F000A600C500E400030122014101580170015C
:102300008E01AA01C6015201C9012046BDE8F08331
:102310001846BDE8F0831046BDE8F083C5F3C260FF
:1023200001E0C6F30260385C23FA00F0BDE8F083F8
:1023300058F8880C58F8884C58F8881CD8F81020A1
:10234000120400F03F0344BFD8F810E06FF35F3E83
:10235000D8F80C2002F44032B2F5003F00F08C8136
:10236000002A1CBF40F6001CC0F23D0C88E158F862
:10237000880C58F8884C58F80C1CD8F81020120417
:1023800000F03F0344BFD8F810E06FF35F3ED8F889
:102390000C2002F44032B2F5003F00F07E81002AAA
:1023A0001CBF40F6001CC0F23D0C7AE158F8880CC6
:1023B00058F8884C58F8881CD8F81020120400F0FF
:1023C0003F0344BFD8F810E06FF35F3ED8F80C200D
:1023D00002F44032B2F5003F00F08B81002A1CBFAE
:1023E00040F6001CC0F23D0C87E158F8080C58F884
:1023F000084C58F8081CD8F81420120400F03F03C9
:1024000044BFD8F814E06FF35F3ED8F80C2002F414
:102410004032B2F5003F00F07D81002A1CBF40F63B
:10242000001CC0F23D0C79E158F8080C58F8084C33
:1024300058F80C1CD8F81420120400F03F0344BFD5
:10244000D8F814E06FF35F3ED8F80C2002F4403265
:10245000B2F5003F00F06E81002A1CBF40F6001C60
:10246000C0F23D0C6AE158F8080C58F8084C58F8CE
:10247000081CD8F81420120400F03F0344BFD8F819
:1024800014E06FF35F3ED8F80C2002F44032B2F54E
:10249000003F00F07981002A1CBF40F6001CC0F20A
:1024A0003D0C75E158F8040C58F8044C58F8041C1D
:1024B000D8F81820120400F03F0344BFD8F818E001
:1024C0006FF35F3ED8F80C2002F44032B2F5003FC3
:1024D00000F06981002A1CBF40F6001CC0F23D0CD0
:1024E00065E158F8040C58F8044C58F80C1CD8F85E
:1024F0001820120400F03F0344BFD8F818E06FF32F
:102500005F3ED8F80C2002F44032B2F5003F00F0F4
:102510005D81002A1CBF40F6001CC0F23D0C59E151
:1025200058F8040C58F8044C58F8041CD8F8182033
:10253000120400F03F0344BFD8F818E06FF35F3E89
:10254000D8F80C2002F44032B2F5003F00F0688168
:10255000002A1CBF40F6001CC0F23D0C64E1D8F814
:10256000000000F44040B0F5004F09D0002860465C
:1025700000F0608140F60010C0F23D00BDE8F0833D
:1025800047F64000C0F27D10BDE8F083D8F8001097
:10259000890700F04F81D8F8000000F003000128FF
:1025A000184600F04781D8F8000000F00300022828
:1025B00040F07A814FF40040BDE8F083D8F8000085
:1025C00010F4402F104600F03581D8F8000000F4D8
:1025D0004020B0F5802F184600F02C81D8F800007C
:1025E00000F44020B0F5002F40F064814FF400402B
:1025F000BDE8F08300000039D8F8000010F4401F57
:10260000104600F01781D8F8000000F44010B0F533
:10261000801F184600F00E81D8F8000000F440102A
:10262000B0F5001F40F04D814FF40040BDE8F0834D
:10263000D8F8001011F4400F00F0FC80D8F800002A
:1026400000F44000B0F5800F184608BFBDE8F083E5
:10265000D8F8000000F44000B0F5000F40F01D81F4
:102660004FF40040BDE8F0836046BDE8F08340F6DB
:102670000010C0F23D00DDE047F6400CC0F27D1CCA
:102680000020002B18BFBCF1000F00F0D38058F8D9
:102690000C0C800140F1D480A6E047F6400CC0F25B
:1026A0007D1C0020002B18BFBCF1000F00F0C28081
:1026B00058F80C0C000240F1C380C4F3881001EEFE
:1026C00010EA01309FED853A00EE100A02EE10CAC2
:1026D000B8EE411A01F07F00B8EE400AB8EE422A87
:1026E00001EE030A01EE103AB8EE411A82EE011A29
:1026F000C4E047F6400CC0F27D1C0020002B18BF40
:10270000BCF1000F00F0968058F80C0CC00140F1AD
:10271000978098E047F6400CC0F27D1C0020002B0B
:1027200018BFBCF1000F00F0858058F80C0CC000F9
:102730005AD485E047F6400CC0F27D1C0020002BE7
:1027400018BFBCF1000F75D058F80C0C400177D5BC
:10275000C4F3881001EE10EA01309FED603A00EEFC
:10276000100A02EE10CAC1F30620B8EE411AB8EE04
:10277000400AB8EE422A01EE030A01EE103AB8EE22
:10278000411A82EE011A79E047F6400CC0F27D1C36
:102790000020002B18BFBCF1000F4BD058F80C0CD8
:1027A00000014DD54FE047F6400CC0F27D1C0020E3
:1027B000002B18BFBCF1000F3CD058F80C0CB0F146
:1027C000FF3FC4BF0020BDE8F0830DE047F6400C9A
:1027D000C0F27D1C0020002B18BFBCF1000F29D0D7
:1027E00058F80C0C80002BD5C4F3881001EE10EAC9
:1027F00001309FED3A3A00EE100A02EE10CAC1F322
:102800000640B8EE411AB8EE400AB8EE422A01EE90
:10281000030A01EE103AB8EE411A82EE011A2DE0D9
:1028200047F6400CC0F27D1C0020002B18BFBCF105
:10283000000F01D1BDE8F08358F80C0C400002D421
:102840000020BDE8F083C4F3881001EE10EA0130E7
:102850009FED223A00EE100A02EE10CAC1F30660A4
:10286000B8EE411AB8EE400AB8EE422A01EE030A69
:1028700001EE103AB8EE411A82EE011A013020EE54
:10288000010A01EE100AB8EE411A80EE010ABCEE10
:10289000C00A10EE100ABDE8F083D8F8000000F47A
:1028A0004000B0F5400F12E0D8F8000000F003003F
:1028B00003280CE0D8F8000000F44020B0F5402FC9
:1028C00005E0D8F8000000F44010B0F5401F18BF34
:1028D0004FF0000C6046BDE8F08300BF00000039F7
:1028E00000000000000000000102030406070809C0
:1028F00044F2004300F01F018009C5F602030122E3
:1029000002FA01F1C2581143C150704700000000A3
:1029100044F2004300F01F018009C5F602030122C2
:1029200002FA01F1C25822EA0101C15070470000C9
:1029300044F2004300F01F018009C5F602030122A2
:1029400002FA01F1C2581143C15070470000000063
:1029500021EE802A21EE000A01EE602A01EEA00A93
:1029600080ED002A81ED000A7047000000000000A1
:1029700080B59FED701AB4EE410AF1EE10FA0BDB50
:102980009FED6D2A30EE020AB4EE410AF1EE10FA24
:10299000F8DA01E030EE010AB5EE400AF1EE10FA85
:1029A000F8DB9FED662AB4EE420AF1EE10FA2FDA58
:1029B0009FED661AB4EE410AF1EE10FA5CDA9FED73
:1029C000611A43F22C5C20EE010AC0F6000CBDEE49
:1029D000C01A11EE102AB6EEC01AC2F1810E30EE06
:1029E000411A0CEB8203C2F180020CEB8E0E0CEB51
:1029F000820293ED012A9EED000A93ED024A92EDC8
:102A0000003A34EE424A33EE403A01EE030A5DE00A
:102A10009FED4B2AB4EE420AF1EE10FA59DA9FED1F
:102A20004A1A43F22C5C30EE010A9FED461AC0F6BA
:102A3000000C20EE010ABDEEC01A11EE102AB6EE0F
:102A4000C01AC2F1810E30EE411A0CEB8203C2F1C2
:102A500080020CEB8E0E0CEB820293ED012A9EEDB0
:102A6000000A93ED024A92ED003A32EE444A30EE0B
:102A7000433A11EE030A56E032EE400A9FED311A56
:102A800043F22C5CC0F6000C20EE010ABDEEC01A29
:102A900011EE102AB6EEC01AC2F1810E30EE411AC4
:102AA0000CEB8203C2F180020CEB8E0E0CEB820267
:102AB00093ED012A9EED000A93ED024A92ED003A51
:102AC00034EE424A30EE433A11EE030A01EE042A94
:102AD0002BE031EE400A9FED1B1A43F22C5CC0F64E
:102AE000000C20EE010ABDEEC01A11EE102AB6EE5F
:102AF000C01AC2F1810E30EE411A0CEB8203C2F112
:102B000080020CEB8E0E0CEB820293ED012A9EEDFF
:102B1000000A93ED024A92ED003A32EE444A33EE57
:102B2000403A01EE030A11EE042A80ED002A81EDFD
:102B3000000A80BDDB0FC940DB0FC9C0DA0F494076
:102B4000E4CB964083F9A242DA0F49C0DA0FC93FBD
:102B50009FED361AB4EE410AF1EE10FA0CDB9FED50
:102B6000342A00BF30EE020AB4EE410AF1EE10FA48
:102B7000F8DA01E030EE010AB5EE400AF1EE10FAA3
:102B8000F8DB9FED2C2AB4EE420AF1EE10FA23DABC
:102B90009FED2C1AB4EE410AF1EE10FA01DB32EE91
:102BA000400A9FED261A43F22C5020EE010AC0F68F
:102BB0000000BDEEC01AB6EEC02A11EE101A30EEBB
:102BC000421A00EB810090ED010A90ED022A32EEEC
:102BD000402A01EE020A70479FED172AB4EE420A1E
:102BE000F1EE10FA04DA9FED161A30EE010A01E058
:102BF00031EE400A9FED111A43F22C5020EE010AEB
:102C0000C0F60000BDEEC01AB6EEC02A11EE101AD2
:102C100032EE401A00EB810090ED010A90ED022A9D
:102C200032EE402A11EE020A704700BFDB0FC940A6
:102C3000DB0FC9C0DA0F4940E4CB964083F9A242CA
:102C4000DA0F49C0DA0FC93F00210164C0E9091158
:102C5000C0E90D117047000010B590ED092A90ED04
:102C6000044A32EE415A90ED0A1A31EE613A0446B6
:102C700080ED075AB4EE445A80ED083AF1EE10FAAE
:102C800002DD94ED035A0FE0B1EE446AB4EE465A09
:102C9000F1EE10FA04DA94ED035AB1EE455A03E06E
:102CA00094ED056A25EE065AB4EE443A84ED0B5ACB
:102CB000F1EE10FA02DD94ED033A0FE0B1EE444A72
:102CC000B4EE443AF1EE10FA04DA94ED033AB1EEC0
:102CD000433A03E094ED054A23EE043A94ED0B4A9F
:102CE000D4ED001A30EE440A94ED015A94ED0D7AB9
:102CF00030EEC36A34EE474AD4ED0E0A25EE000AE0
:102D000084ED0C3A25EE065A02EE210A94ED062ACD
:102D100004EE027A33EE604A01EE215A84ED090A8C
:102D200042EE040A84ED0D7AB1EE470A84ED0A5AA8
:102D3000C4ED0E0AFDF7ACFD204684ED0F0A00F04D
:102D400017F894ED130ADFED080AFDF7A1FD94EDE5
:102D50000F1A84ED110A30EE010A84ED0F0AFDF717
:102D600073FD84ED0F0A10BDE99FA345000000002C
:102D700090ED0F0A90ED101A30EE411A9FED172AD0
:102D8000B4EE421AF1EE10FA04DD9FED172A31EE8F
:102D9000021A0AE09FED122AB4EE421AF1EE10FA7E
:102DA00003DA9FED102A31EE021A9FED102A80ED12
:102DB000100A21EE021A90ED132A9FED0D4A80EDC4
:102DC000121A31EE423A9FED0B1A03EE042A80EDFF
:102DD000132A22EE010A80ED140A7047DC0F4940E5
:102DE000DC0F49C0DC0FC940DC0FC9C000409C4665
:102DF000CDCCCC3DD091433EB5EE400AF1EE10FA79
:102E000002DDB1EEC00A70479FED010A704700BFB6
:102E1000000000000000000040F20040C4F200008A
:102E200000F096BA00000000B0EEC02A9FED251A0F
:102E30004DF20A71C3F62351B4EE412AF1EE10FAB5
:102E400003DA31EE423A416003E09FED1F3A80ED34
:102E5000012AB7EE002A90ED014A80ED023A32EEE7
:102E6000445AB0EEE04A35EE435AB4EE414A80EDA2
:102E7000035AF1EE10FA03DA31EE441A016103E06D
:102E80009FED111A80ED044A90ED043AF5EE400AE8
:102E900032EE432A0021F1EE10FA4FF00002B5EEB7
:102EA000400AB8BF0122F1EE10FA80ED051A32EEA9
:102EB000412AB8BF012180ED062A41EA4201817012
:102EC000704700BF0AD7233D00000000000000004B
:102ED00048F2004C00F0FC02C4F2010C52F80C3035
:102EE000002B48BF7047182342EA0C0203EAC000D7
:102EF000FF2303FA00FC136823EA0C03136001FAB2
:102F000000F01168084310607047000000000000E6
:102F1000B0B547F2FF720446C4F200020D4690427B
:102F20004FF0000013DC44F6FF31C4F200018C4284
:102F30001CDC44F20041C4F200018C4232D044F661
:102F40000001C4F200018C4231D112202DE040F684
:102F5000FF71C4F201018C4216DC47F60001C4F295
:102F600000018C420ED047F6004107E044F60041D4
:102F7000C4F200018C4205D045F20001C4F2000108
:102F80008C4214D1022010E041F20001C4F2010190
:102F90008C4209D041F20041C4F201018C4206D1B9
:102FA000132002E0112000E01020FFF7D5F821687F
:102FB000090406D400EB5500B0FBF5F080B2E060E8
:102FC000B0BD40004FF6F07100EB5500B0FBF5F0DE
:102FD0000140C0F342000844E060B0BD00000000C2
:102FE00010B547F2FF71C4F20001884214DC44F6C8
:102FF000FF31C4F20001884223DC44F20041C4F2F4
:10300000000188423BD044F60001C4F2000188422E
:1030100048D140F612043DE040F6FF71C4F20101D0
:1030200088421DDC47F60001C4F20001884229D025
:1030300047F60041C4F20001884233D140F61F0434
:1030400028E044F60041C4F2000188421DD045F258
:103050000001C4F20001884224D140F6140419E0B2
:1030600041F20001C4F20101884211D041F2004155
:10307000C4F20101884215D140F605140AE040F679
:10308000110407E040F61E0404E040F6130401E0DA
:1030900040F604142046FFF74BFC2046BDE81040E4
:1030A000FFF736BC10BD0000016841F0010101606E
:1030B0007047000000000000016821F0010101607C
:1030C000D0F8D01041F48071C0F8D01070470000E3
:1030D000026822F001020260826822F400728260BB
:1030E0008268114381607047026822F00102026029
:1030F000826822F480728260826811438160704726
:10310000026822F001020260026822F4C0620260DA
:103110000268114301607047026822F004020260F5
:103120000268114301607047D0F8D02022F4E022F9
:10313000C0F8D020D0F8D0201143C0F8D01070478C
:10314000026822F001020260426822F440524260AA
:103150004268114341607047026822F00802026031
:103160000268114301607047D0F8D02022F4601249
:10317000C0F8D020D0F8D0201143C0F8D01070474C
:10318000026822F001020260026822F0102202604E
:10319000026811430160704743F6C12CC0F2000C75
:1031A000604743F6F12CC0F2000C604743F6692CEF
:1031B000C0F2000C604743F6213CC0F2000C6047AF
:1031C00043F6612CC0F2000C604743F6E11CC0F2EC
:1031D000000C604743F2110CC0F2000C604743F250
:1031E000591CC0F2000C604743F2817CC0F2000C15
:1031F000604743F6914CC0F2000C604744F6297CCE
:10320000C0F2000C604745F6510CC0F2000C60475C
:1032100045F2391CC0F2000C604744F6112CC0F294
:10322000000C604744F6495CC0F2000C604744F66D
:10323000D95CC0F2000C604744F6B15CC0F2000CEF
:10324000604745F2495CC0F2000C604745F2395CCA
:10325000C0F2000C604745F2F92CC0F2000C604748
:1032600045F2A15CC0F2000C604740F2913CC0F214
:10327000000C604740F2493CC0F2000C604740F24D
:10328000497CC0F2000C604740F2117CC0F2000C97
:10329000604740F2713CC0F2000C604740F2013CD4
:1032A000C0F2000C604740F2795CC0F2000C60474D
:1032B00040F2114CC0F2000C604740F2E93CC0F211
:1032C000000C604740F2D93CC0F2000C604740F26D
:1032D000414CC0F2000C604740F2D94CC0F2000CE7
:1032E000604740F2D14CC0F2000C604740F2F93C1C
:1032F000C0F2000C604740F2D12CC0F2000C6047D5
:1033000040F2F12CC0F2000C604740F2B12CC0F248
:10331000000C604742F6712CC0F2000C604742F688
:10332000914CC0F2000C604742F6592CC0F2000CE0
:10333000604742F6412CC0F2000C604742F6C92CAF
:10334000C0F2000C604742F6013CC0F2000C60473E
:1033500045F2211CC0F2000C604702E008C8121FB1
:1033600008C1002AFAD170477047002001E001C16E
:10337000121F002AFBD170470000000000005454C7
:10338000522052454747455300000000000000000E
:103390005DD5233C61D1A33CB0AFF53C9AC0233D41
:1033A00013A14C3D2B77753D64208F3DDC7DA33D03
:1033B00018D3B73D0D1FCC3DBB60E03D2497F43DD5
:1033C000AA60043E286F0E3E9876183E8276223E12
:1033D000746E2C3EFC5D363EA844403E0C224A3EB4
:1033E000BDF5533E5DBF5D3E737E673EAF32713EBD
:1033F000ACDB7A3E863C823E3C05873ECCC78B3EAA
:103400000B84903ED039953EFAE8993E61919E3EFC
:10341000DF32A33E57CDA73EA460AC3EA7ECB03E42
:103420004871B53E67EEB93EE963BE3EB9D1C23ED2
:10343000C037C73EE295CB3E14ECCF3E3C3AD43E7B
:103440004E80D83E36BEDC3EE6F3E03E5421E53EFB
:103450007346E93E3863ED3E9677F13E8A83F53E4A
:103460000E87F93E1982FD3E55BA003F5CAF023F20
:1034700023A0043FA78C063FEC74083FEF580A3F97
:10348000B0380C3F33140E3F78EB0F3F81BE113F35
:10349000538D133FEF57153F571E173F91E0183FCD
:1034A000A09E1A3F88581C3F4E0E1E3FF9BF1F3F7B
:1034B0008A6D213F0A17233F7DBC243FE85D263FEC
:1034C00054FB273FC394293F412A2B3FD2BB2C3FBB
:1034D0007C492E3F47D32F3F3B59313F5EDB323F84
:1034E000B859343F52D4353F314B373F5EBE383F39
:1034F000E22D3A3FC5993B3F0C023D3FC3663E3F3C
:10350000F1C73F3F9C25413FCF7F423F91D6433F8C
:10351000EC29453FE479463F86C6473FDA0F493FED
:10352000E6554A3F0000000001020304670E49BC53
:1035300000000000670E493CA00AC93C26C3163DA6
:103540001CFB483D6A2B7B3DFCA8963D7FB6AF3DFA
:1035500030BDC83D2DBCE13D69B2FA3D86CF093E84
:103560007E40163EB3AB223E9C102F3EC96E3B3EC2
:10357000C0C5473EFC14543E115C603E7F9A6C3ED1
:10358000C6CF783EBE7D823E918E883E1F9A8E3E8B
:103590002FA0943E84A09A3EE39AA03E0F8FA63EB1
:1035A000D27CAC3EEC63B23E2844B83E461DBE3EE3
:1035B00014EFC33E52B9C93ECA7BCF3E3F36D53E1B
:1035C0007DE8DA3E4D92E03E7433E63EBACBEB3E08
:1035D000E95AF13EC8E0F63E245DFC3EE3E7003FD9
:1035E0003C9C033F814B063F9AF5083F6A9A0B3F8C
:1035F000D9390E3FCDD3103F2968133FD8F6153F78
:10360000C07F183FC5021B3FD07F1D3FC9F61F3F3B
:103610009867223F24D2243F5536273F1394293FF1
:1036200049EB2B3FDE3B2E3FBA85303FC8C8323FC7
:10363000F204353F223A373F4068393F3A8F3B3FEB
:10364000F9AE3D3F66C73F3F70D8413FFFE1433F82
:1036500002E4453F65DE473F12D1493FF8BB4B3F8F
:10366000029F4D3F207A4F3F3D4D513F4918533FF8
:1036700031DB543FE595563F5248583F68F2593F79
:103680001A945B3F522D5D3F04BE5E3F2046603F73
:1036900096C5613F593C633F59AA643F870F663F17
:1036A000D66B673F3ABF683FA6096A3F0B4B6B3F3B
:1036B0005E836C3F92B26D3F9ED86E3F73F56F3F55
:1036C0000709713F5213723F4614733FDD0B743F7D
:1036D0000AFA743FC6DE753F06BA763FC48B773F61
:1036E000F753783F9712793F9DC7793F01737A3F2F
:1036F000BD147B3FCCAC7B3F273B7C3FC9BF7C3FAD
:10370000AC3A7D3FCBAB7D3F23137E3FAF707E3F16
:103710006DC47E3F580E7F3F6C4E7F3FAB847F3F32
:103720000EB17F3F96D37F3F43EC7F3F11FB7F3F3E
:103730000000803F11FB7F3F5465726D696E616CC4
:10374000000000007837000800000024882E0000E8
:10375000EC0400082044000800000000D86D0000C0
:103760005A33000820440008882E0024B884000042
:103770006A33000800000000D20001100D5F4445CC
:10378000434C5F53544154494307301B52205374F8
:10379000657070657220746F6F2066617220696E4B
:1037A00020706173740028501F434F4D4D414E44AB
:1037B0005F464C41475320636F6D6D616E645F637C
:1037C0006F6E6669675F733AD330201120086F69A6
:1037D000643D2563202020055F70696E0C600464E1
:1037E00069720B3007696E766572743E8126000E31
:1037F00010756C73655F7469636B733D2575A510F7
:1038000008496E76616C6964691004756E74A00075
:10381000081A72616D65746572A5300671756575FB
:10382000656611A1910D519D13696E401155116F7F
:10383000415610083D256875206164BA031A68690D
:103840005840087365745F6E6578C1125FD8115F68
:10385000011014516611F711070110D010094361CE
:103860006E27742072654D640C2074696D65207735
:1038700068656E204000071A61637469766585315A
:103880003A41821006636C6F636B84F1135183318C
:103890000D85556008454E434F4445526C640A5FA0
:1038A000706F736974696F6EB51110071C3D250147
:1038B000513A126782713E0313302017418401226E
:1038C0004E380E73746F705F6F6E5F7472696767E6
:1038D0005501161A595E5008747273796E635F62EF
:1038E00041DD801F43414C4C4C495354206374725A
:1038F0005F72756E5F73687574646F776E66756EF0
:10390000637352511605119849E229621A73C9006E
:1039100006256572726F725C000519656E64665AE1
:10392000B00F4D65737361676520656E636F646585
:103930005A0913E831880D10AE031A542D4DAC030B
:1039400015D80F117365CF03519615F848066561B8
:103950007265645AD0056E6F7420F66909400C4791
:10396000444D61696E626F617264543D0903224384
:103970000A3C055F6E756D1703280A54656D705F0C
:1039800077616B65AC2120D94D7769730E1DF60305
:103990001E61C80315B6240672696E675FACF12F0D
:1039A00011231372741E0110DF154611193F656C47
:1039B0001503E009722063616C6C65643E81E24925
:1039C000DA011A73F5B64405696E6974B2115C3395
:1039D0006F6310011088411C1C066368756E6B15BF
:1039E00005826985A5D24C046F7665590412200AB8
:1039F0000C061872666C6F77B904226D2D13726510
:103A00002F16738A080424697A655621374DED0311
:103A100001185B1D64030C0616207479706566043A
:103A20003C0661737369678B030510701D4C032599
:103A3000094406726561647911176174710D19FC8E
:103A40000561252D79031E73FB05C1105D4A05DA5A
:103A500063204D310629274D3B063D9804277263AC
:103A6000BC993B2D7F0431F17D90050D1AE0052DA9
:103A70007F0451588006307830312010011A3614F6
:103A80000466696E35737A653BE220124198051031
:103A90002B5DF5064DB40514046F6E6C301A761A62
:103AA0006C0461626CBE050D1460034D8D057D864E
:103AB00005011ED24DCE0571D12DDD05DDBA053FC4
:103AC000757032063C0568696768BD0601255A5164
:103AD00037752C41106D9B051A4E372C044E54201F
:103AE0008B03100F535F53554D53515F4241534564
:103AF000202B8B21010C0410313030C5037674F17A
:103B00001D84032D2B0431070F137371C3076D5BE5
:103B1000055D0503051AA51E65E4041E6729053E1B
:103B2000791606450EC1140D1B9E082DF9048D90C3
:103B300004313EC114EDBE042E6476042F6679561E
:103B4000071C05706F6E73D0031F6666E707299F19
:103B50000C0A1A646174613D252E2A736B08614159
:103B6000455D710E81460D1517031C0470615FC31E
:103B7000031D400431060521C41F7061CC082109D2
:103B80006006656D63755F3F0D1A060911242D4EA1
:103B9000083DA207810C41072D3B050B1D70633BBF
:103BA0003F726584041F706595052D6508810E714F
:103BB00045D1D6219B1DE2092E73550816797755FC
:103BC0004721E05220180121EBA14641F49112F562
:103BD000481D100AD54B3D5D0907227276561C041C
:103BE0006261733E063145555FA1123D040709111C
:103BF000D05E4136056D40040E1B6446066E734769
:103C0000060D20570B8C0C6469676974616C5F6FDB
:103C100075745B0BA1156DAA092D4F0B6A753C1DC0
:103C20006C0A7008656661756C745F11C4096D611A
:103C3000785F64757261A7CD20064D1A081D860A4B
:103C40001C04736F66590B1C06776D2063792D0376
:103C50003E208B0B1D960A11B41D710425BF1C0458
:103C6000732070E3082DB6070D1D1D0B91AB125F7D
:103C700051425F514D250B01141C6DAA0A217A0D8A
:103C800019050C1C075363686564758C075620235F
:103C900026200E1F65767D031C0B2077696C6C2037
:103CA00065786365F208A1F80D20220CC56F01103C
:103CB00014DD470B1DFB050119A3452BB1402D7BDE
:103CC000094DA9075C0577697468DC0B4D38080D50
:103CD0001A180B01114A0212305F5D0E0B69060DB6
:103CE000245708A5877D170A0528D70510CDE98D2B
:103CF0000D112E091C046973738E0A4673C41DA826
:103D0000091D1F052E20480D0510CD0545FACDE5EE
:103D1000053C0564656275BE071D23034E20F80D42
:103D20000D1A8306612F4F61647F0691102C056F79
:103D3000726465D60D2D2D0E02237247A006777290
:103D4000697465484111E1496197DDDD04166F2C06
:103D50004D87060D1C860641B31D1604A267B331BC
:103D60001001283F6E6E7007710F0D2109101D188C
:103D7000044DA907D22011ADAA041D5B0E180475CD
:103D80006C6CD80D1D110E513C2C045F686FAE0891
:103D9000B2200FED8C039C0573616D7033046110CC
:103DA0006D6F072D140F82741E151B8D1D05BD3FF1
:103DB0000E5E205C0E25E12E739F06EDAA0761863C
:103DC0002D6A0C7DB00411931D700C21E13D101083
:103DD0007196A1680122EA1D10095372795B81F185
:103DE000A116AD470F0C1020494E495449414C5F74
:103DF00050494E53202222E80C210A1E69ED031976
:103E00000A1DA70D040422657475D34D5E0F8DDB6A
:103E1000115110BD6E0F0D106A0C1E64E1031D6C74
:103E20000C1DA0031C0574686174F00B8D5C0C0DF7
:103E30001FD31055913D1C0E1DEB04B10F5D5112A7
:103E400094067265706F7269511075E19407657818
:103E500070697265C501216F1D0A0B2D6C0E4D60D6
:103E600005011115ED46110120C28DC210D111714D
:103E7000C6C964FDB5104C057461736BB110615215
:103E800011110D24E21065450D14E90A855489C508
:103E90007F63615A110D1309030D23BA0C5DBA0833
:103EA0001E610A091E6FF40F8E6EB8088113BDB62D
:103EB000080D1D97071D0F03A14CE1120D3C0704CF
:103EC0008E6D07041DF2132D2509810E1C057261EC
:103ED0006E671C0E0C06156865636B5FCC0E71D2A5
:103EE000CD0D04CD030471600520E481500528E761
:103EF00091840D17CB123C0441444326071D6707EC
:103F000031D64D3E041C07454E554D4552B0087FF5
:103F10004F4E6F146D69137E78EE0D110101202F45
:103F200092792F0220312F927A2F0218328D1D465E
:103F3000151F72756107912E0E2033E4044C066D37
:103F4000636C6962CC110D20B816312D8DB6164107
:103F50000F9DB4161DDD143D410C392E326C060B3D
:103F60001D6B6DB5418161525C056963726F7A1694
:103F7000011519AD86163C04706F6C1F0D1DFE10E7
:103F80004D151701286A1D2E051C046C6C640B1757
:103F9000E363746CA11B7D91171DE311337468D921
:103FA0000120632DF5092C05637572725F0B615C4E
:103FB000A1146D95051D551351132DD01190056851
:103FC0006F6C64100124674C047069646E0DB273E9
:103FD0006A91175D6603266B1E000423206B69C17E
:103FE0007DD80F70066D6F746F72C4D1175D410B71
:103FF0001E75360C2D84090F1F756DA10481A11D3E
:1040000031101C066F6E616E63460C1D7304B1BCEB
:10401000D11B6D68083F6478F109326DC870077074
:1040200068617365310A0E1332F60C2C044D617809
:104030002B0B1C073820627574749E100D21420EE4
:10404000512A8D3E0E61115DF405414AEDE104AD4A
:1040500045161DE31241253D0C1A2D250560056905
:104060006D756D143D86190D1A831151702E5F11F7
:1040700008A330200EAD66187DC30E9D190A0D17DA
:10408000121761C31C04726574A505000528736DC1
:104090006974873D520691894110ED4606CD2D0A7F
:1040A00081688D48064DBA1A0D1DC00A71FC3D96F7
:1040B00019A10E6DE70E0D142415619DBD9E079E7E
:1040C0006188063DE7163E65060C0D1F3908614DF7
:1040D0003D5306DDE3132F45523F0A5C054241552F
:1040E00044DE136C04333834F00571268C0F5245CE
:1040F00043454956455F57494E444F5707140F20D3
:104100003830B6081D330A2F736FCA0F0D27B70852
:104110004D9F134D1B0F0C051F5F697271FB1A4DEC
:104120006A134D1917C1B9200B434C4F434B5F46DF
:10413000524551DE0C092532334333343630303E9C
:10414000092D5D19BD6F170D197306412D9C046370
:104150006E7477061C0F41524D434D5F49525120FA
:104160005379735443111F5F48CC0F1E6C241D9E5E
:104170002D2B070D20F70931889DF6099D05117C2F
:10418000045265730D0F4D25191DB11D4C04746843
:1041900065B51D0D1F520A000926776174636864B6
:1041A0006F67E671308D5C079DE5072C075F524114
:1041B0004E4745E00DAC05205041303F088DBF070C
:1041C000031B313037B2422B012737924337022885
:1041D0003237924437022833379245370228343732
:1041E00092463702283537924737022836379248A9
:1041F0003702283737924A37C23937F97D1E4E2D9C
:10420000141D34141D37124E70F4110115235DF185
:104210001263696E27CDA4031D9B0A7C055F4D4187
:104220005856040C0410464646110A2955212920E7
:104230000554454D50B78F55528E1800041C30461A
:10424000457A2DFD0AF1784D40031E4501051DD923
:10425000042D3F0F1DE3081E721A0F19BC680439A4
:104260002C50A88DC40320075553415254300B6D78
:10427000C60389730E20352104415D4D1E042007BD
:104280000000602E0024042D84215F49288D211018
:10429000050F0000010412020412030412040412A8
:1042A000050412060443070F2332080810050258BC
:1042B000000404120804120C041210041214041254
:1042C0001804121C1C21550015712402586666D66C
:1042D00040E71D273C11C7BA3B0000C04100011256
:1042E0009FE203647C926C4C099897773FA0A0A052
:1042F0003BDA221710425B000BFF3F00009042E8C0
:1043000075543E00010174012409502D804225B6E8
:104310000640A0100585EBBF410462C108013A2C9C
:1043200001338C0C236537002440880024142500B9
:10433000242C280024442B0024EC2100243333B304
:104340003FA69B443B0AD7A32803FA01BC5C079312
:104350000400003E493503C008E1F50500C2EB0B3F
:10436000220F46803F94030C09FFD4067A3F8888C9
:10437000883C28030189010C0922E5CB96417B305A
:10438000E13E2803012A2C29D4880517B751384467
:104390008380BF080D1448051E8028030FFF4C883A
:1043A00018030DFF18030182010D8A18031EB018AF
:1043B000031E5818030C0C77CDCCCC3FC3642A3BAA
:1043C000865AD318039F270958090D1130060C058A
:1043D000466666464058090C08FF821F783FD88918
:1043E0009D1803018A012407B6B08241FEAD880DF5
:1043F000201803012A2C0D32A4031EE018031E64AA
:1044000058091E103C061E6CD80C9A617A4F29453B
:1044100053062D0C0C1E999A0C3404FFFFFF3B0031
:1044200010B542F200440421C4F20104204600F019
:1044300067FA90B10421204600F05EFA42F62C00A3
:10444000C2F20040D0F8100303F0F6FC28B942F69F
:104450002C00C2F2004005F071FD04F580640421D7
:10446000204600F04DFA002808BF10BD0421204668
:1044700000F042FA42F2EC10C2F20040D0F8100311
:1044800003F0DAFC00B110BD42F2EC10C2F20040C1
:10449000BDE8104005F057BDFEE700000000000039
:1044A00010B500240021C4F202042022204602F0AC
:1044B00067FD002808BF10BD00212022204602F021
:1044C00043FD42F21450C2F20040D0F8100303F052
:1044D000B3FC00B110BD42F21450C2F20040BDE87E
:1044E000104005F02BBD000010B500240121C4F2DE
:1044F00002042022204602F043FD002808BF10BD20
:1045000001212022204602F01FFD42F64430C2F273
:104510000040D0F8100303F08FFC00B110BD42F64C
:104520004430C2F20040BDE8104005F00CBD000070
:10453000FEE7000000000000FEE7000000000000B1
:10454000FEE7000000000000FEE7000000000000A1
:10455000FEE7000000000000FEE700000000000091
:104560002DE9F04F81B041F20406CEF2000603F0CF
:1045700097FB48F6B0274EF6602BC2F200473C6826
:1045800003E000BF0020C246C8B304F069F9D6F8C2
:104590000090A0EB0908B8F5966FF3DC0546A4EB94
:1045A0000900B0F1FF3F08DD03F07EFBB8F1010F19
:1045B00018DA03F075FB0120E6E74DF63F00CFF671
:1045C000F670804504DC15A002F03AF904F094F985
:1045D00004F03AF958B109EB0B00386040F6B83AEC
:1045E0000020D1E73068281A0028E2DDFAE749F216
:1045F000E030C0F2040009EB00043C60D4E74EF266
:1046000014000021CEF20000C0F800A0416001605B
:1046100001B0BDE8F04F03F047BB00BF52657363C4
:10462000686564756C65642074696D657220696E77
:104630002074686520706173740000000000000041
:10464000B0B582B041F2D005C4F2010555F8B40C02
:10465000800603D555F8AC0C04F02EFA286810F04B
:10466000407F10D0286810F0204F0CD00DF10704C7
:10467000204604F089F940B99DF8070045F8A80CD8
:1046800028680006F4D502B0B0BD2D2045F8D00C46
:10469000286820F02040286002B0B0BD0000000073
:1046A000FEE70000000000004EF60C500422CEF29F
:1046B0000000C0F2FA52BFF34F8F016801F4E061CD
:1046C00011430160BFF34F8F00BFFDE70000000002
:1046D000816841F00801816081680907FCD4816824
:1046E00041F00401816000BF81684907FCD4704734
:1046F000B1F1006F07D0002918BF7047816821F021
:10470000006181607047816841F00061816070479D
:10471000826822F070028260826811438160704773
:1047200080B502290AD001291CD1511E102919D2A5
:104730004FF4700E6FF4700C242308E0511E03290F
:1047400088BF80BD4FF4401E6FF4401C48231958A9
:1047500001EA0C0119500EEB02511A5801EA0E0140
:104760001143195080BD000042F6004242F204732A
:10477000C4F20102C4F20103904208BF02F5417382
:10478000186820F47F0018601868084318607047A4
:10479000B1F5006F07D0002918BF7047816821F478
:1047A000006181607047816841F4006181607047F9
:1047B00010B542F20041C4F2010188420FD042F626
:1047C0000041C4F2010188420CD042F60001C4F25B
:1047D0000101884218BF10BD40F6091404E040F6FC
:1047E000081401E040F60A14204605F0B1FB20460B
:1047F000BDE8104005F0B1BB816841F48071816073
:104800007047000000000000816841F40071816081
:1048100070470000000000008168C90718BF70479A
:10482000816841F0010181607047000000000000D4
:10483000012907D0022918BF70474FF0140C6FF4FC
:10484000401303E04FF01C0C6FF040538168194097
:10485000816002FA0CF182681143816070470000A8
:1048600080B5D0F848C04FF0030E2EEA1C5C6144BE
:104870005FFA81FEBEF1000F18D0BEF1020F23D8FF
:104880006FF00F01D0F84CC001EB0E1E47F6E0713F
:1048900001EA431147F6FF7303FA0EF311432CEAC2
:1048A000030201FA0EF11143C16480BD47F6E071C5
:1048B000D0F850C001EA431147F6FF732CEA030316
:1048C00011431944016580BDBEF1030F18BF80BDBF
:1048D00047F6E071D0F848C001EA431147F6FF738C
:1048E0002CEA030311431944816480BD00000000D9
:1048F0004268114341607047C9430160704700003E
:104900004B1E02461F2B4FF000001AD80FF2040175
:10491000DFE803F01024402C40404040404040403D
:104920004040404040404040404040404040404087
:10493000404040341068516801F0400100EA911095
:104940007047B1F1004F21D0B1F1804F18BF7047CF
:10495000106851680840C0F3807070471068516853
:1049600000F00200490901EA5000704710685168E0
:1049700000F00400C90901EA90007047106851680E
:1049800000F02000890E01EA50107047106851684D
:104990000840C00F7047000080B5B9B1022923D884
:1049A0006FF00F0ED0F840C00EEB011E47F6E0711D
:1049B00001EA431147F6FF7303FA0EF311432CEAA1
:1049C000030201FA0EF11143016480BD47F6E07164
:1049D000D0F844C001EA431147F6FF732CEA030301
:1049E00011431944416480BD042915D86FF02F0E7E
:1049F000D0F83CC00EEB011E47F6E07101EA43110E
:104A000047F6FF7303FA0EF311432CEA030201FA8F
:104A10000EF11143C16380BD062915D86FF04F0E0A
:104A2000D0F838C00EEB011E47F6E07101EA4311E1
:104A300047F6FF7303FA0EF311432CEA030201FA5F
:104A40000EF11143816380BD082915D86FF06F0EF8
:104A5000D0F834C00EEB011E47F6E07101EA4311B5
:104A600047F6FF7303FA0EF311432CEA030201FA2F
:104A70000EF11143416380BD0A2915D86FF08F0EE6
:104A8000D0F830C00EEB011E47F6E07101EA431189
:104A900047F6FF7303FA0EF311432CEA030201FAFF
:104AA0000EF11143016380BD0C2915D86FF0AF0ED4
:104AB000D0F82CC00EEB011E47F6E07101EA43115D
:104AC00047F6FF7303FA0EF311432CEA030201FACF
:104AD0000EF11143C16280BD0E2915D86FF0CF0EC3
:104AE000D0F828C00EEB011E47F6E07101EA431131
:104AF00047F6FF7303FA0EF311432CEA030201FA9F
:104B00000EF11143816280BD0F2918BF80BD47F6A9
:104B1000E071D0F824C001EA431147F6FF732CEA94
:104B2000030311431944416280BD000000000000EE
:104B300042F600424368C4F20102904223F0407200
:104B4000426005D169B14FF0407202EB016103E0B0
:104B5000042908BF7047090601F0407142681143FB
:104B60004160704700000000012A01F4807205D105
:104B7000BAB94A051BD489071FD470471AB14268D5
:104B800022F4807242604A0503D5426822F48062B2
:104B90004260890758BF7047816821F00201816037
:104BA0007047426842F4807242604A05E3D5426829
:104BB00042F4806242608907DFD5816841F00201DA
:104BC000816070470000000080B502F0EDFA43F606
:104BD00010010330C2F2004120F00300086080BDE4
:104BE000B0B50446006A616A02F096FB10B1A16894
:104BF00008442DE0D4E9080102F07EFB94F82A2055
:104C000094F82B108A4203D2238B0132184400E01F
:104C10000122D3B220838B4284F82A2003D2A068D9
:104C20002169084414E080B2618B884213D3A18BC0
:104C3000884210D804F128050020287043F614009B
:104C4000C2F2004003F064FEE068616908446061FC
:104C5000A0600120B0BD254615F8280F6978013005
:104C60002870C2B28A42E9D302A001F0E9FD03F044
:104C700043FEE1E7414443206F7574206F66207264
:104C8000616E67650000000070B582B040F6195192
:104C9000FF208DF80700C0F200010DF1070003F0BE
:104CA000CFFB10B340F619540646C0F200040DF1D4
:104CB000070505E02846214603F0C2FB0646A0B1E1
:104CC000D6E9080102F0F8FA96F82B000028F1D096
:104CD000013086F82A00F068716908447061B0609C
:104CE0000021304603F0ECFBE4E702B070BD0000A9
:104CF0002DE9F04381B043F61400C2F2004003F006
:104D00003FFCE0B340F61951FF208DF80300C0F2DC
:104D100000010DF1030003F093FB80B340F6195935
:104D200007460FF26008C0F200090DF1030607E024
:104D300002F0BAFF3046494603F082FB0746F0B165
:104D400097F82A0097F82B108842F3D102F0A8FFB9
:104D500097F82A0097F82B108842E9D13C8B7D699F
:104D6000013087F82A0002F09FFF404601F028FC3E
:104D70009DF803102A46234601F0A6F9DAE701B0B0
:104D8000BDE8F083616E616C6F675F696E5F73741D
:104D9000617465206F69643D2563206E6578745F7A
:104DA000636C6F636B3D25752076616C75653D2581
:104DB00068750000000000002DE9F0418046807F0A
:104DC000A8B108F1140600270124002556F80C0F9D
:104DD000D6E9011202F078FB98F81E10013700287E
:104DE00018BF25438F424FEA4404EFD300E000256B
:104DF00098F8100080EA050319061FD098F81110E2
:104E000081EA050293431B0618D098F8123010402F
:104E10002940072B40EA010088F810000ED808EB63
:104E200003015A1C88F81220C87443F61500C2F218
:104E3000004003F06DFDFF2088F81C0098F91C006D
:104E400088F8115000280CD4013844B2B4F1FF3F67
:104E500005DC43F61500C2F2004003F059FD88F866
:104E60001C40D8E9021201201144C8F80810BDE81E
:104E7000F0810000000000002DE9F04182B043F60F
:104E80001500C2F2004003F07BFBB0B340F659516D
:104E9000FF208DF80700C0F200010DF1070003F0BC
:104EA000CFFA50B340F6595507460FF25408C0F2F6
:104EB00000050DF1070615E0787F387702F0F4FE63
:104EC000404601F07DFB9DF80710FA7E07F11303C1
:104ED0000093234601F0F8F83046294603F0B0FA73
:104EE000074650B1387FFF28F6D102F0D9FEBC7CCE
:104EF000002CE1D102F0D8FEEEE702B0BDE8F0816F
:104F0000627574746F6E735F7374617465206F691A
:104F1000643D25632061636B5F636F756E743D252F
:104F2000632073746174653D252A730000000000DE
:104F3000EFF30580C00508BF70474FF080706FF039
:104F4000060101B401A204B41FB508477047000070
:104F50002DE9F04148F63008C2F20048D8F80010B8
:104F6000F1B943F610060768C2F200464FF4FF603D
:104F700000EAC7043068051902F00EF9854214D81A
:104F80003568214628193060284604F0EBFF48F6C2
:104F90002C00C8F80050C2F200400770BDE8F08154
:104FA00006A001F04DFC03F043FC46F62A10C0F2C7
:104FB000000001F045FC03F03BFC00BF6F69647327
:104FC00020616C726561647920616C6C6F636174DF
:104FD0006564000000000000B0B50546007840F6AA
:104FE0005951C0F2000103F007FA04466868C5B2DF
:104FF000E17E0844E07602F053FE214611F8120FDC
:10500000854215D2B0EB050C0CD05FFA8CF2281952
:1050100000F11203084600BF13F8015F013A00F8DF
:10502000015FF9D181F800C0BDE8B04002F03CBE9C
:105030000020A074FE202077BDE8B04002F034BE0E
:1050400010B584B00446007840F65951C0F2000112
:1050500003F0D2F92179827F91420FD201EB410313
:10506000217A227B00EB830401A802F051FA01AA05
:1050700004F1200307CA07C304B010BD02A001F069
:10508000DFFB03F0D5FB00BF5365742062757474B9
:105090006F6E2070617374206D6178696D756D201D
:1050A000627574746F6E20636F756E74000000001B
:1050B000B0B50546007840F65951C0F2000103F042
:1050C0009BF9044603F08CFA6868A060A868E06069
:1050D000297C617421744FF47E41A4F81B100021D7
:1050E000EA68A1741106627708D4002808BFB0BD31
:1050F00030212046BDE8B04003F0E2B902A001F043
:105100009FFB03F095FB00BF496E76616C696420DC
:10511000627574746F6E732072657472616E736DF4
:10512000697420636F756E74000000000000000059
:1051300003F032BA0000000010B582B001790446D5
:10514000684602F005F9207840F61951C0F20001D6
:105150002C2203F0FDF840F2C171C0F20001416061
:105160000099016201994162012180F82A1002B080
:1051700010BD00000000000010B50479092C12D207
:1051800004EB44012022007802EB810240F65951E1
:10519000C0F2000103F0DCF840F699118477C0F208
:1051A0000001416010BD02A001F04AFB03F040FB8A
:1051B0004D6178206F66203820627574746F6E734D
:1051C000000000000000000010B584B00179044622
:1051D000826801A8002A18BF012202F07DFA207817
:1051E00040F6A951C0F20001382203F0B1F801994C
:1051F00081610299C16103990162D4E90212002917
:1052000018BF0121002A18BF01222369436241EA25
:10521000021180F834102C300C2103F041F804B056
:1052200010BD00000000000010B584B004460078F6
:1052300040F609612C22C0F2000103F089F82179BF
:10524000227A044601A802F063F90198E06002980E
:1052500020610398606104B010BD000000000000F0
:1052600010B50446007840F641610822C0F2000102
:1052700003F06EF894ED030A94ED021A94ED042AFB
:10528000B8EE400AB8EE411A9FED213AB8EE422A34
:105290009FED1E4A80EE030A9FED1E5A81EE041A0E
:1052A000616882EE032A9FED1C3A42F2045220EE1E
:1052B000033A81EE004AC2F2004282EE052A9FEDD7
:1052C000185A85EE005AB7EE006A017052F82110A4
:1052D00023EE044A4160A5EE016A81ED022A9FEDAA
:1052E0000F2A81ED010A24EE024A81ED001A82EEB6
:1052F000000A81EDA13A81EDA24A81EDAC3A81ED3F
:10530000AD4A81ED3C6A81ED3D0A10BD00007A4452
:1053100000247449000048427D59C44517B75138EC
:1053200017B751B800000000B0B584B0044600784B
:1053300040F609715022C0F2000103F009F8E1685B
:10534000002200290546C8BF0122920080F84C20A7
:10535000217901A802F0C0F90198286202986862D8
:105360000398A862217A01A8002202F0B5F90198F9
:10537000E86202982863039868634FF04040A8638E
:105380002069E86105F13C00102102F089FF04B0BA
:10539000B0BD00000000000080B5007840F67971D3
:1053A000C0F20001242202F0D3FF45F6A911C0F299
:1053B0000001416045F65111C0F20001016180BD5C
:1053C0007047000000000000B0B50478406800F0AD
:1053D0005BF8054604A001F0F3F821462A46BDE833
:1053E000B04000F071BE00BF706F6E6720646174E2
:1053F000613D252A73000000B0B50578406800F0D3
:1054000043F8044602F05CFC012D03D0022D03D1C9
:10541000246802E0248800E0247802F04DFC04A017
:1054200001F0CEF82146BDE8B04000F04DBE00BF0F
:1054300064656275675F726573756C742076616C04
:105440003D2575000000000070B5054606784068EF
:1054500000F01AF80446AD6802F032FC012E06D0C6
:10546000022E09D12560BDE8704002F025BC2580E0
:10547000BDE8704002F020BC2570BDE8704002F02D
:105480001BBC00000000000070470000000000008E
:105490002DE9F04F03AF83B003390329C0F28380B5
:1054A00000EB010A46F68001C0F20001861C088864
:1054B00047F8140C09E000BF02F0FAFBD8F80C1012
:1054C00048468847DD4656456DD2324612F9010BF3
:1054D000B0F1FF3FC0B205DC00F07F007178B21C74
:1054E00041EAC01000286BD057F8141C884267D2DC
:1054F00046F260510723C0F20001EB4601EB0018B1
:1055000098F8021098F8040003EB810121F00701DC
:10551000ADEB0109CD46D8F8081016464A4604E01E
:105520000023002BA0F1010042D078B356453FD8AC
:1055300011F8013B052B19D216F9014B04F0600557
:1055400004F07F03602D08BF64F01F03B4F1FF3F38
:1055500008DC00BF16F9015B05F07F04002D44EA6A
:10556000C313F7D442F8043B0123DAE7072BD7D162
:1055700016F8014B3319534505D802F1080514609C
:1055800056601E462A465345CAD8EDE703F058F840
:1055900000283FF491AF98F80300C0077FF48CAF68
:1055A00003F00EF98EE7A7F10C04A546BDE8F08FD5
:1055B00046F6C250C0F2000001F042F903F038F99B
:1055C00002A001F03DF903F033F900BF496E7661A6
:1055D0006C696420636F6D6D616E64000000000093
:1055E00002A001F02DF903F023F900BF436F6D6DA8
:1055F000616E64207265717565737400000000004F
:105600002DE9F04F81B08E788046062EC0F088805C
:105610000B8808F10205CF787019802BD1F804901F
:1056200006D3802108F1030541EAD31188F802105E
:10563000441F4FF0800A03F07F0105F8011B14E0BE
:105640004AEA505105F8011B4AEA903105F8011B5E
:105650004AEAD01105F8011B00F07F0005F8010BA4
:1056600001200028A7F1010776D0002F55D0A542D0
:1056700072D819F8010B05281AD252F8040B00F160
:1056800020018029E8D300F58051B1F5804FDFD3A8
:1056900000F50021B1F5001FD6D300F18061B1F112
:1056A000805FCDD3010F803105F8011BC8E700BF33
:1056B000811F022912D21068661BB04202F1080B4A
:1056C00038BF064605F8016B28465168324604F09B
:1056D0004EFC354401205A46C3E700BF05281AD1C5
:1056E00052F8046B691C307878B1A1420DD2AB1C22
:1056F000711E00BF03F8010C5E1C887820B1A34224
:1057000001F101013346F5D3711EE84308442870C6
:1057100001200D46A5E70020A3E7A5EB0800C61C65
:1057200042F65C6088F80060C2F20040F51E29462F
:10573000007888F80100404600F022FF06EB0801DF
:10574000020A08F8052001F8020C7E2001F8010C7D
:10575000304601B0BDE8F08F02A001F071F803F00F
:1057600067F800BF4D65737361676520656E636F91
:105770006465206572726F72000000000000000016
:10578000B0B50446007840F60961C0F2000102F0AD
:1057900033FE054602F024FF6068A860A068E86157
:1057A000E06885F8290001061CD02169A9616169BA
:1057B00042F69952C0F2000200296A6018BF012126
:1057C00085F82A00207E023185F8281004F0F4FACA
:1057D00068620121E06985F82B002846BDE8B040E9
:1057E00002F06EBE0020686285F82800B0BD00009F
:1057F0002DE9F04182B0047840F60961C0F2000161
:10580000204602F0F9FD054602F04AFA95F82860B4
:10581000D5F8208002F048FA0AA000F0D1FE05F188
:105820000C020746C6F3400607CA01F04DFE009081
:10583000384621463246434600F046FC02B0BDE8F9
:10584000F08100BF656E6473746F705F7374617410
:1058500065206F69643D256320686F6D696E673DE3
:105860002563206E6578745F636C6F636B3D25758F
:105870002070696E5F76616C75653D256300000080
:105880002DE9F04F81B048F61E01C2F200410988AF
:10589000002970D148F624010090C2F20041087836
:1058A000032801D80420087043F6100B0D78C2F2CB
:1058B000004BDBF8006001F06FFC7119002200233F
:1058C000002400BFB2EB942F04F1010A03EB05089A
:1058D00004D10B44544683424346F3D9BAF101073D
:1058E0004ED0A6EB0509DBF8005009EB080601F0E5
:1058F00053FC864249D8A9EB0500711B4044DBF8F4
:105900000050033020F003002844CBF80000284664
:1059100004F028FB48F61E003904C2F2004007805C
:1059200048F62800C2F2004005601AD048F6240468
:10593000BAF10200C2F200440AD02178CAF1010291
:105940002B4600BF01325F18561C1F603B46F9D141
:10595000217848430021295048F62000C2F2004037
:10596000056043F618000099C2F200400968016022
:1059700001B0BDE8F08F09A000F062FF02F058FF0F
:105980000BA000F05DFF02F053FF46F62A10C0F2B4
:10599000000000F055FF02F04BFF00BF416C726544
:1059A0006164792066696E616C697A6564000000E3
:1059B000616C6C6F635F6368756E6B7320666169A1
:1059C0006C656400000000002DE9F04743F61607FF
:1059D0000D46C2F200470029144606461CBF38781F
:1059E0005FEAC07047D1052D03D200202060BDE8DA
:1059F000F08796F80080A8F1410010F13C0F2DD3FC
:105A000096F8019009F0F000102827D1A845ECD8AD
:105A100008EB060010F8010C7E281FD1A8F1030145
:105A2000705A90FA80FA304600F0AAFDB0EB1A4F97
:105A300014D142F65C613878C2F20041C4F80080AB
:105A400000F0FD0038700A78914527D109F1010274
:105A5000012060F31F120A70BDE8F08730787E28BD
:105A600005D1012020604FF0FF30BDE8F087387885
:105A700040F0010038707E2130462A4604F07CFA5E
:105A800028B13978801B451C01F0FE013970387847
:105A900025608107E7D440F00200387046F6E80040
:105AA000C0F2000000F010FB4FF0FF30BDE8F087BF
:105AB00080B504A000F084FD00210022BDE88040F4
:105AC00000F002BB706172616D5F76616C7565207C
:105AD00076616C75653D25752072657365727665B6
