:020000040800F2
:10500000C82200202D510008617600089D7200081A
:105010005F7600081565000829A20008000000005E
:105020000000000000000000000000008D86000865
:105030004D6700080000000043510008019200087D
:1050400047510008475100084751000847510008E0
:1050500047510008475100084751000847510008D0
:1050600047510008475100084751000847510008C0
:105070004751000847510008456500089165000840
:1050800047510008475100084751000847510008A0
:105090004751000847510008475100084751000890
:1050A0004751000847510008475100084751000880
:1050B000475100089D9300084751000847510008D8
:1050C0004751000847510008475100084751000860
:1050D000159E000847510008475100084751000835
:1050E0004751000847510008475100084751000840
:1050F0004751000847510008475100084751000830
:10510000475100084751000847510008475100081F
:1051100047510008DFF810D000F09CFB0048004722
:105120001DB60008AFF30080C82200200648804763
:1051300006480047FEE7FEE7FEE7FEE7FEE7FEE77C
:10514000FEE7FEE7FEE7FEE70593000815510008BD
:105150002DE9F05F0546002092469B4688460646AC
:10516000814640241BE0284641464746224600F03F
:105170003DFA53465A46C01A914110D3114618467B
:10518000224600F024FA2D1A67EB01084F4622460A
:105190000120002100F01BFA17EB00094E41201EF0
:1051A000A4F10104DFDC484631462A464346BDE807
:1051B000F09F40EA01039B0703D009E008C9121FD2
:1051C00008C0042AFAD203E011F8013B00F8013BC1
:1051D000521EF9D27047D2B201E000F8012B491EED
:1051E000FBD270470022F6E710B513460A46044684
:1051F0001946FFF7F0FF204610BDCAB2401E10F856
:10520000011F8A4202D00029F9D1002070472DE900
:10521000FE4F804681EA0300C00F0C46009021F04B
:10522000004123F00045B8EB0200A94105D24046F9
:10523000214690461C460B46024623F00040104390
:1052400047D0270DC7F30A00C3F30A510290401A52
:10525000019040286BDAC3F3130040F4801B0098E0
:10526000924620B10023D2EB030A63EB0B0B0198AB
:105270005946C0F14002504600F0A9F906460D46D5
:1052800050465946019A00F0C1F910EB08006141FF
:10529000002487EA115284EAE7731A4340D0009A47
:1052A00062B3019A012A4FEA075215DC001B61EB39
:1052B00002014FF0004202EA0752CDE90042001C11
:1052C00041F5801132462B4600F046FA03B0BDE8A6
:1052D000F08F40462146F9E7001B61EB0201001CFC
:1052E00041F5801300185B412018A2F5001747EB29
:1052F000030140EAD570B6196D4111E06D084FEA1F
:10530000360645EAC0754FEA0752001B61EB020101
:10531000001C41F5801149084FEA30000019514145
:1053200032462B4603B0BDE8F04F00F006BA0098B5
:10533000012240000023D0EB020263EBE0730098EF
:1053400021464FEAE074B8EB000061EB0401E9E7A5
:1053500083F000435BE781F0004158E72DE9FE4F01
:1053600081EA030404F0004421F0004100944FF06E
:10537000000B23F0004350EA01045ED052EA03041C
:105380005BD0C3F30A54C1F30A552C44A4F2F3349E
:105390000194A0FB0254C1F3130141F48011C3F343
:1053A000130343F4801301FB024400FB034E840A01
:1053B000970A44EA815447EA8357A4FB0768029599
:1053C0008D0A05FB07854FEA932C04FB0C54270537
:1053D000029D4FEA065847EA1637B5EB08056EEB13
:1053E000070C870E920E47EA811742EA8312A7FB49
:1053F0000201B6EB0B0164EB00042B0D43EA0C3306
:105400005E1844EB1C50DA465146E7FB0201C5F337
:1054100013044FEA0B3343EA14534FEA0432019C5E
:1054200043EA0603A4F10C040294009CCDE900B405
:1054300000F092F903B0BDE8F08F00200146F9E7D3
:105440002DE9F04D81EA030404F0004B21F0004502
:1054500014464FF0000A23F0004150EA050220D024
:1054600054EA01021DD0C5F30A570246C5F31303DF
:10547000C1F31300C1F30A5640F4801543F48013BE
:10548000A7EB0608101BD64608F2FD3873EB0500A3
:1054900002D308F1010801E092185B41B8F1000F56
:1054A00003DA00200146BDE8F08D00204FF48011A2
:1054B000064684460EE0171B73EB050705D3121B47
:1054C00063EB050306434CEA010C49084FEA300040
:1054D00092185B4150EA0107EDD152EA030012D065
:1054E00082EA040083EA0501084305D0101BAB41A2
:1054F00006D20122002306E000224FF0004302E022
:105500006FF0010253101AEB06004CEB085110EB40
:105510000A0041EB0B01BDE8F04D00F00EB90EB5ED
:1055200040F2334102910021CDE900110A460B46B9
:1055300000F012F903B000BDC1F30A5210B5C1F377
:10554000130140F2FF3341F480119A4201DA002046
:1055500010BD40F233439A42A2F2334203DC52427E
:1055600000F044F810BD904010BD01F0004330B48D
:1055700021F0004150EA010206D00A0DA2F5607246
:10558000C1F31301002A02DC30BC00207047440F35
:1055900044EAC104C100E01830BC00EBC25000F086
:1055A00095B830B50B46014600202022012409E0C1
:1055B00021FA02F59D4205D303FA02F5491B04FACC
:1055C00002F52844151EA2F10102F1DC30BD202AAB
:1055D00004DB203A00FA02F1002070479140C2F14A
:1055E000200320FA03F3194390407047202A04DB7C
:1055F000203A21FA02F00021704721FA02F3D0404C
:10560000C2F120029140084319467047202A06DB68
:10561000CB17203A41FA02F043EAE07306E041FA80
:1056200002F3D040C2F1200291400843194670476E
:105630000FB4002300B589B00CA900910B996FF04D
:105640000042CB601E4B06931E4B07930423CDE90B
:1056500001321D4A089202466B46002000F0A6F96E
:1056600009B05DF814FB70B586B006464FF0FF3008
:105670000091CDE90101002015460C460490324608
:10568000694604A8FFF7D4FF02460498211825B103
:1056900008B1084600E020462860049800280DD094
:1056A000002A02DD0098884208D0081B0094CDE94A
:1056B00001043246694604A8FFF7BAFF06B070BD80
:1056C000E55B0008035C0008795800080029A8BFC2
:1056D0007047401C490008BF20F00100704710B41B
:1056E000B0FA80FC00FA0CF050EA010404BF10BCD0
:1056F000704749B1CCF1200421FA04F411FA0CF1FD
:1057000018BF012121430843A3EB0C01CB1D4FEA35
:1057100000614FEA102042BF002010BC704700EB30
:10572000C35010440029A4BF10BC7047401C49005E
:1057300008BF20F0010010BC704710B5141E73F1B3
:10574000000408DA401C41F1000192185B411A4341
:1057500001D120F0010010BD2DE9F04D92469B468D
:1057600011B1B1FA81F202E0B0FA80F22032904633
:10577000FFF72DFF04460F4640EA0A0041EA0B01FD
:1057800053465A46084313D0114653EA010019D034
:10579000C8F140025046FFF729FF05460E46504625
:1057A00059464246FFF713FF084305D0012004E0A5
:1057B00020463946BDE8F08D0020054346EAE076F4
:1057C0002C4337430A986305E40AA0EB0800002243
:1057D000FD0A44EA47540A3002D500200146E9E7B1
:1057E000010510196941DDE9084500196941BDE865
:1057F000F04DA2E7C1F30A52C1F3130140F2FF33A7
:1058000041F480119A4202DA00200146704740F2CA
:1058100033439A42A2F2334202DC5242FFF7E6BE21
:10582000FFF7D5BE30B5041E71F1000404DB4FF064
:105830000044404264EB0101141E73F1000405DBD7
:105840001C464FF00043524263EB0403994208BFE9
:10585000904230BD064C074D06E0E06840F0010381
:1058600094E8070098471034AC42F6D3FFF756FC93
:1058700074BE000894BE0008C0B24FF4F05100F0AE
:10588000D1B900002DE9FF4F087883B09946FF2871
:1058900005D0491C2D2804D00024002008E0002059
:1058A0000BE00124F9E700EB800003EB4000491C0A
:1058B0000B78FF2BF7D104B14042002302931478F8
:1058C00019461D462D2C01D02B2C04D1521C2D2CF9
:1058D00013D000240294AA461478FF2C0FD00A2576
:1058E000A3FB057801FB05814FF0000C03FB0C11B5
:1058F000521CE3194AEB0101EEE70124EAE7814477
:1059000053EA010002D019F5C87F06DA0398002196
:10591000C0E9001107B0BDE8F08F0025AE4E2F465C
:10592000DFF8B882184600F091F9CDE90001B9F12D
:10593000000002DAC9F1000400E004460023A74A8F
:105940001AEB030B42EB045A12E0E00707D02A4699
:10595000334638464146FFF701FD074688462A464A
:10596000334610461946FFF7F9FC05460E4664100B
:10597000002CEAD1DDE90001B9F1000F5A46534687
:1059800006DAFFF75DFD3A464346FFF759FD05E0AD
:10599000FFF7E4FC3A464346FFF7E0FC029A0AB1FF
:1059A00081F00041039AC2E90001B3E72DE9FF4FFE
:1059B0001F468DB0D7E901464FF0FF382E204546EF
:1059C0004FF000090B90B9696D1C0E988847396A31
:1059D000824688470028F6D1BAF1FF3F0AD024F466
:1059E000D064002E11DDBAF12B0F08D0BAF12D0FC3
:1059F0000BD102E0404611B08DE744F48064B969F0
:105A00006D1C0E9888478246761E6946600501D552
:105A10002D2000E02B208DF8000001F1010B0DF18D
:105A2000200809E0B9696D1C0E98884782460F98D6
:105A300044F40074761E0560002E02DDBAF1300FCA
:105A4000F0D00B998A453ED144F0800406E00F99CE
:105A5000681CA9F1010944F400740860B9696D1C5F
:105A6000761E0E98884782463028F0D02BE00B999E
:105A70008A4505D1200603D444F08004761E18E040
:105A8000504604F067FD08B30DF11301761E44F48F
:105A900000748B4508D2AAF130000BF8010B2006E8
:105AA00007D5A9F1010003E0200602D409F10100A5
:105AB0008146A00502D50F99681C0860B9696D1C64
:105AC0000E9888478246002ED1DC53E0002E51DD2F
:105AD000BAF1650F02D0BAF1450F4BD1A00549D5F7
:105AE000B9696D1C24F44074761E0E98884782466E
:105AF000002E0CDD2B2804D0BAF12D0F07D144F471
:105B00008074B9696D1C0E9888478246761EE00540
:105B100001D52D2100E02B2108F8011BCDF82C80A8
:105B200021E00DF12901761E44F4007488450CD261
:105B3000AAF1300010F0FF0088F8000002D10B99A4
:105B4000884509D908F1010806E0E00501D5244897
:105B500001E042F20F708146B9696D1C0E988847CA
:105B600082460F980560002E04DD504604F0F2FCDA
:105B70000028D6D1F9690E988847FF208BF80000DD
:105B800088F800000020069007904B466A4608A956
:105B900006A8FFF777FEA00502D46FF001002AE700
:105BA00014F0240F0AD0E00714D1DDE9061238689A
:105BB000031D3B600068C0E900120BE0DDE906014F
:105BC000FFF7D3FC0146E00704D13868021D3A60B4
:105BD0000068016028460EE7000014400000F03F16
:105BE000F1D8FFFF426842B1016811F8013B23B1CF
:105BF000521EC0E90012184670470121C160881E7C
:105C0000704742685AB1C368016843B983688B42E0
:105C100005D0491E521CC0E90012002070474FF009
:105C2000FF3070477F2801D9002208E0064A02EBC6
:105C30005002C007127800D1120902F00F020120B1
:105C40009040084070470000E0BD00080EB540F2EB
:105C5000334202920022CDE900221346FFF77CFD79
:105C600003B000BD0248016821F0100101607047D7
:105C7000580802400D490D4A4C39012802D002282B
:105C800008D005E0106818B9086840F00400086002
:105C9000002070470868400705D5106808B100204B
:105CA00070470120704700207047000054080240F0
:105CB00010B5072309280BD8124A146800EB4000DE
:105CC00083409C431460136881400B43136010BDF4
:105CD00011280DD80A380B4A121F146800EB400037
:105CE00083409C431460136881400B43136010BDD4
:105CF00004484C30026822F00702026002680A433E
:105D0000026010BD1008024070B504460D4602F056
:105D100041F934B1284602F04DF9BDE8704000F079
:105D200023B902F03FF9284602F02AF9BDE8704095
:105D3000FFF798BF0248016821F002010160704737
:105D4000080802400248016841F002010160704702
:105D5000080802402DE9F04196B0802002F034F9A5
:105D60004FF48075284602F02FF9680002F02CF9F4
:105D7000AF00384602F028F941F2010002F024F9A0
:105D800007210020FFF7C0FF4FF46051384602F0B2
:105D9000EBF810A801F03CFA1020109003241194A5
:105DA000DFF8D88010A9404601F0F3F920261096BC
:105DB000119410A9404601F0ECF9DFF8C480404688
:105DC00000F07AFC05A9404600F004FC2D4805903F
:105DD0002D48069000240794C8200890099480203C
:105DE0000A900B950C970D9680010E900F9405A9C3
:105DF000404600F0EFFB0021404600F0D4FB404657
:105E000000F0CCFB01A800F08FF801208DF8040011
:105E10008DF8050003944FF460200290280304904D
:105E200001A800F05DF805210846FFF741FF0021B9
:105E3000052000F0D9F805210620FFF739FF0121E0
:105E4000062000F0D1F800F087F82022402102203F
:105E500000F030F80028F8D00120FFF70BFF0220F7
:105E6000FFF708FF0028FAD100F010F84FF4A00067
:105E700000F08EF816B0BDE8F0810000003402405A
:105E8000080002404C08024038080020024801681F
:105E900041F48071016070470808024004490A68B3
:105EA00022F400620A600A6802430A607047000038
:105EB00008080240012805D00848006810420AD0AE
:105EC00001207047054858380068084201D0012079
:105ED00070470020704700207047000058080240BB
:105EE00000B503461878002802D000F02DF801E034
:105EF00000F022F8587810B1FFF724FF01E0FFF717
:105F000019FF0848016841F028010160586800F055
:105F10005FF89868FFF7C2FFD8685DF804EB00F0FF
:105F20002BB8000060080240002101704170416000
:105F30008160C160704700000248016821F48071EF
:105F400001607047040802400248016841F4807112
:105F500001607047040802400248016841F00101F5
:105F600001607047080802400248016841F01001D2
:105F7000016070475808024004490A6822F4700220
:105F80000A600A6802430A60704700002C08024059
:105F90000E49B0F5A00F0CD000F5A002521C04D0A1
:105FA000B0F5800F0AD0002070470A6802400A60EE
:105FB000F9E7086840F4A0000860F4E7086810F406
:105FC000800F01D001207047002070470808024070
:105FD00004490A6822F460220A600A6802430A60DF
:105FE000704700000808024010B51F2305290BD890
:105FF000144A146801EB81018B409C4314601368C0
:1060000088400343136010BD0B290DD80D4A121FA1
:106010001468891F01EB81018B409C431460136855
:1060200088400343136010BD064A083A14680C39CF
:1060300001EB81018B409C4314601368884003434B
:10604000136010BD34080240F8B5054600240094E2
:10605000284601F04BF902236A46A821284600F0A1
:106060001BF808B10120F8BD4FF49676304605F0D4
:1060700085FD08208DF800008DF8014002236A4656
:10608000E121284600F008F808B10120F8BD3046AB
:1060900005F074FD0020F8BD2DE9F04107460C46DF
:1060A00015461E46384601F0F3F97021384601F0D6
:1060B000CDF9384601F022FA28B1384601F003FA4A
:1060C0000120BDE8F0812146384601F0BFF938468D
:1060D00001F014FA002408E0295D384601F0B6F911
:1060E000384601F00BFA641CE4B2B442F4D33846EB
:1060F00001F0E9F90020E4E770B5054602F0F0FF91
:10610000E809C0F34104A02040EA440003F020F86D
:1061100002F03EFFE8B203F01BF802F039FF02F094
:10612000DFFFA12040EA440003F012F802F030FF44
:1061300002F080FF044603F037F802F0EFFF20463C
:1061400070BD70B504460D4602F0CAFFE009C0F309
:106150004100A02141EA400002F0FAFF02F018FFDE
:10616000E0B202F0F5FF02F013FF284602F0F0FF64
:1061700002F00EFF02F0D2FFBDE87040022005F0F1
:10618000FDBC00002DE9F04780460D4617461C4631
:10619000680005F0A9FA0646002007E007EB400179
:1061A00038F8111026F81010401CC0B2A842F5D3E0
:1061B00001222946304601F00FFA4FF0FF352D49F4
:1061C000021F40F6D273C7EB07174FF000084FF0DD
:1061D000010901EB07119A4226D80023A7688742DC
:1061E0001AD3D4F800C0844516D8B4F90450B4F9D1
:1061F0000C20A7EB000AAD1A05FB0AF54FF0640A64
:1062000005FB0AF5A7EB0C07B5FBF7F502EBC20798
:1062100007EB021205EB820508345B1C9BB2312BA5
:10622000DCD381F8DD8002E0002581F8DD9091F873
:10623000EA00052807D251F8EC2F2A440A60401CD6
:1062400001F8020C10E0D1F8EC20B2FBF0F000B243
:10625000A1F8C800C1F8EC8081F8EA8042F210721F
:10626000904201DB81F8DE90304604F0F1FD2846D3
:10627000BDE8F087100600202DE9F04180460D466C
:1062800017461C46680005F02FFA0646002007E076
:1062900007EB400138F8111026F81010401CC0B26E
:1062A000A842F5D301222946304601F095F94FF076
:1062B000FF351E4B021F40F6D278C7EB071103EBE8
:1062C000011C424525D80022A368834218D32768C1
:1062D000874215D8B4F90450B4F90C10A3EB0008A8
:1062E0006D1A05FB08F54FF0640805FB08F5DB1B8C
:1062F000B5FBF3F301EBC10505EB011103EB8105E0
:106300000834521C92B2312ADED300208CF8DD0012
:1063100003E0002501208CF8DD00ACF8C8503046C1
:1063200004F096FD2846BDE8F0810000100600202C
:1063300070B53221B0FBF1F2D5B2B0FBF1F201FB46
:106340001206002404E0322005F018FC641CE4B2BC
:10635000AC42F8D306B901263046BDE8704005F0DE
:106360000DBC000010B58AB0012001F03DFE0120F7
:1063700001F032FE684600F04BFF022001900490CD
:1063800040020090032005906946134800F001FF89
:106390004FF0804440F27F2240F2E731204600F087
:1063A000BAF806A803F08CFB6021ADF818100121A3
:1063B000ADF81A104FF4FA71ADF81E100021ADF8C7
:1063C000201006A9204603F01FFB204603F080FAA8
:1063D00001F0B8F80AB010BD003802404FF47A411D
:1063E000B1FBF0F0401E82B240F2E7314FF0804046
:1063F00000F091B870B52548017C012944D10021F5
:106400000174234C94F8260094F82720904207D377
:1064100084F82610BDE870404FF0804003F058BA71
:1064200094F8251021B101290FD0032928D11AE0B1
:10643000184D35F82000FFF7D1FF94F8260005EB42
:106440008000408803F084F91AE0124D0C3535F8CD
:106450002000FFF7C3FF94F8260005EB800040887A
:1064600003F076F90CE00B4D5C3535F82000FFF7B2
:10647000B5FF94F8260005EB8000408803F068F92A
:1064800014F8260F401C207070BD0000E8050020A5
:10649000F00700207400002070B504464FF08045DE
:1064A000284603F015FA1949012081F8260081F8E1
:1064B0002540022024B1012C0CD0032C20D114E063
:1064C00081F82700124C2088FFF788FF608803F0CE
:1064D0003FF915E081F827000D4C0C342088FFF7B8
:1064E0007DFF608803F034F90AE00A2081F8270074
:1064F000074C5C342088FFF771FF608803F028F9AF
:106500002846BDE8704003F0E8B90000F00700201D
:1065100074000020FEE77FB506460C461546684627
:1065200003F006F9ADF80440ADF800500021ADF8D5
:106530000610ADF802106946304603F08FF87FBDB3
:106540004160704770B50E4D4FF400542146284607
:1065500000F073F8002812D02146284600F06BF8AE
:106560004021084803F073FD0548443000F011F85D
:106570000549002008700549012081F8440070BDDC
:10658000000002400038014068000020F0070020B1
:106590007047016821F0010101607047016841F016
:1065A00001010160704701617047026822F020021A
:1065B000026002680A4302607047406880B2704718
:1065C00041607047026822F01002026002680A43CC
:1065D0000260704710B504460B462046196800F06B
:1065E00059F82046596800F043F820469968FFF7AB
:1065F000E9FF2046D968FFF7A3FF2046196900F09C
:1066000041F82046596900F02BF82046996900F0BE
:1066100043F82046D96900F02DF82046196AFFF7A3
:10662000C4FF2046596A00F03FF82046996ABDE849
:10663000104000F00DB8416070470068084201D179
:10664000002070470120704702680A4302607047CB
:10665000026822F48042026002680A4302607047C6
:10666000026822F08002026002680A4302607047FA
:10667000C1607047026822F44062026002680A4307
:1066800002607047026822F04002026002680A431A
:106690000260704781607047026822F440720260B5
:1066A00002680A4302607047026822F440520260A6
:1066B00002680A4302607047016821F0010101602D
:1066C0000021016041608160C1601F491E4A083994
:1066D000904202D10F20486070471B4A143290420A
:1066E00002D1F02048607047174A2832904203D107
:1066F0004FF4706048607047134A3C32904203D1B7
:106700004FF47040486070470F4A5032904203D1B6
:106710004FF47020486070470B4A6432904203D1B6
:106720004FF4700048607047074A7832904203D1B6
:106730004FF0706048607047034A8C329042FAD143
:106740004FF0704048607047080002407047704743
:1067500000B50022094B002808D0012805D10821E6
:10676000184600F087FD0648827700BD02211846D2
:1067700000F080FD0248427700BD00000034024076
:10678000F007002000B50122094B002808D001289D
:1067900005D10821184600F06FFD0648827700BD3C
:1067A0000221184600F068FD0248427700BD000053
:1067B00000340240F007002070B58AB0012001F0DB
:1067C00013FC082001F008FC684600F021FD0220BF
:1067D000019004900124009405901B4D69462846C1
:1067E00000F0D7FC04210091072105916946284655
:1067F00000F0CFFC154E43F2FF1263213046FFF745
:106800008AFE06A803F05CF96021ADF81810ADF817
:106810001A400021ADF81E10ADF8201006A9304630
:1068200003F060F806A9304603F0EEF8304603F0B6
:106830004FF80121284600F01DFD0421284600F0F4
:1068400019FD0AB070BD000000340240000C004089
:106850000249CA680243CA60704700000020024033
:1068600000B5034600F034F802E000F031F85B1E9A
:10687000012801D1002BF8D1002B00D1072000BD49
:106880000248016941F08001016170470020024027
:1068900070B505463420FFF7DBFF4FF43026304655
:1068A000FFF7DEFF042810D1084C206940F00200F9
:1068B00020616561206940F0400020613046FFF7AB
:1068C000CFFF216921F00201216170BD002002404B
:1068D00004200849CA68D20701D001207047CA685D
:1068E000520701D502207047C968C906FBD50320AD
:1068F00070470000002002400348024941600349FC
:10690000416070472301674500200240AB89EFCD0D
:10691000F0B505460E46A80701D00620F0BD34208C
:10692000FFF796FF4FF400573846FFF799FF04280A
:10693000F4D1074C206940F0010020612E603846F8
:10694000FFF78EFF216921F001012161F0BD0000F8
:106950000020024070B504460F48104D002C02D0B4
:10696000012C0FD107E0002102F01CFF0121284675
:1069700000F080FC06E0002102F020FF0421284600
:1069800000F078FC064A00211019C17780F83C100D
:1069900002EB4400C18770BD000C0040003402408F
:1069A000F007002070B504460E4D284602F095FF12
:1069B00014B1012C09D104E06421284602F0F2FE52
:1069C00003E06421284602F0F9FE074A012110196C
:1069D000C177002180F83C1002EB4402D18780F897
:1069E000421070BD000C0040F007002070B5224D31
:1069F000002818D001283ED101EBC10000EB0110A6
:106A000044190820217E00F055FAA97B0A2000F0E5
:106A100051FAE17C0C2000F04DFA617BBDE870403A
:106A20000E2000F047BA891C01EBC10000EB0110F9
:106A300044191620217E00F03DFAA17B142000F0BD
:106A400039FA95F84510122000F034FA0B48818B82
:106A5000012909D0C08B012806D095F83F10BDE868
:106A60007040102000F026BA95F85810BDE870402C
:106A7000102000F01FBA70BD04000020A00A002002
:106A80002DE9F0410E46354C002829D0012863D16C
:106A900002EBC20000EB02173D190020297E00F036
:106AA00009FA217E022000F005FA217E042000F080
:106AB00001FA217E062000F0FDF9A97B082000F0F4
:106AC000F9F921780A2000F0F5F9E15D0C2000F0D9
:106AD000F1F9A8190179BDE8F0410E2000F0EAB9FA
:106AE000921C02EBC20000EB02173D191E20297E0A
:106AF00000F0E0F9297E1C2000F0DCF994F84A103F
:106B00001A2000F0D7F9297E182000F0D3F994F864
:106B10004010162000F0CEF9E15D142000F0CAF913
:106B200094F83210122000F0C5F90D490B488A8BF9
:106B30003044012A09D0C98B012906D090F83210BF
:106B4000BDE8F041102000F0B5B990F84B10BDE859
:106B5000F041102000F0AEB9BDE8F0810400002043
:106B6000A00A002010B586B00120019002901020EC
:106B70000090164C6946204600F00BFB1021204681
:106B800000F07AFB202100916946204600F001FBCD
:106B90002021204600F070FB4021009169462046EC
:106BA00000F0F7FA4021204600F066FB80210091BA
:106BB0006946204600F0EDFA8021204600F05CFB9B
:106BC00000F0E7FC00F0DAFC06B010BD003802402F
:106BD00070B501EBC102394E02EB01129419891C08
:106BE00001EBC10202EB01118D19082865D2DFE823
:106BF00000F0040E18233C46505A297E1E2000F057
:106C000059F9297EBDE870401C2000F053B9297E57
:106C10001A2000F04FF9297EBDE87040182000F0DE
:106C200049B916F8631F162000F044F93178BDE821
:106C30007040142000F03EB9297E122000F03AF98D
:106C40001F48818B012909D0C08B012806D096F8F6
:106C50004A10BDE87040102000F02CB996F863107F
:106C6000BDE87040102000F025B9217E002000F022
:106C700021F9217EBDE87040022000F01BB9217E81
:106C8000042000F017F9217EBDE87040062000F0D6
:106C900011B9217E082000F00DF9217EBDE8704079
:106CA0000A2000F007B9217E0C2000F003F9217EB4
:106CB000BDE870400E2000F0FDB870BD040000205B
:106CC000A00A002010B500280BD001280DD06328A1
:106CD0000FD1002004F042FDBDE81040012004F077
:106CE0003DBDBDE8104004F039BDBDE8104004F0E2
:106CF00035BD10BD2DE9F0410C4602EBC20101EBA0
:106D00000211DFF8A881921C01EB080502EBC20119
:106D10000A2701EB021101EB080608287DD2DFE803
:106D200000F0041A2E466F869AAEB4FBF7F0B0FB63
:106D3000F7F107FB1100315C1E2000F0BBF8B4FB3B
:106D4000F7F007FB1040404490F84B10BDE8F041CD
:106D50001C2000F0AFB8B4FBF7F0B0FBF7F107FB75
:106D60001100315C1A2000F0A5F8B4FBF7F007FB26
:106D70001040315CBDE8F041182000F09BB8B4FB36
:106D8000F7F0B0FBF7F107FB1100404490F84B100F
:106D9000162000F08FF8B4FBF7F007FB10404044DA
:106DA00090F84B10BDE8F041142000F083B8B4FB1C
:106DB000F7F0B0FBF7F107FB1100315C122000F097
:106DC00079F83B48818B01290ED0C08B01280BD06C
:106DD000B4FBF7F007FB1040404490F83210BDE8D8
:106DE000F041102000F066B8B4FBF7F007FB10404C
:106DF000404490F84B10BDE8F041102000F05AB824
:106E0000B4FBF7F0B0FBF7F107FB1100295C0020A1
:106E100000F050F8B4FBF7F000E044E007FB10404E
:106E20004044417EBDE8F041022000F043B8B4FB8D
:106E3000F7F0B0FBF7F107FB1100295C042000F02C
:106E400039F8B4FBF7F007FB1040295CBDE8F041CE
:106E5000062000F02FB8B4FBF7F0B0FBF7F107FB0A
:106E60001100295C082000F025F8B4FBF7F007FBBF
:106E70001040295CBDE8F0410A2000F01BB8B4FBCB
:106E8000F7F0B0FBF7F107FB1100295C0C2000F0D4
:106E900011F8B4FBF7F007FB1040295CBDE8F041A6
:106EA0000E2000F007B8BDE8F081000004000020CB
:106EB000A00A002070B504460D462946204601F080
:106EC0001FFB2909641CE0B2BDE8704001F018BB4B
:106ED00070B501EBC102394E02EB01129419891C05
:106EE00001EBC10202EB01118D19082865D2DFE820
:106EF00000F0040E18233C46505AE97D1E20FFF78F
:106F0000D9FFE97DBDE870401C20FFF7D3BFE97DC4
:106F10001A20FFF7CFFFE97DBDE870401820FFF78A
:106F2000C9BF16F8621F1620FFF7C4FF3178BDE80D
:106F300070401420FFF7BEBFE97D1220FFF7BAFFB3
:106F40001F48818B012909D0C08B012806D096F8F3
:106F50004910BDE870401020FFF7ACBF96F86210F2
:106F6000BDE870401020FFF7A5BFE17D0020FFF7CE
:106F7000A1FFE17DBDE870400220FFF79BBFE17DEE
:106F80000420FFF797FFE17DBDE870400620FFF782
:106F900091BFE17D0820FFF78DFFE17DBDE87040E6
:106FA0000A20FFF787BFE17D0C20FFF783FFE17D1B
:106FB000BDE870400E20FFF77DBF70BD04000020CB
:106FC000A00A00202DE9F04104460F464C4DC4EBC9
:106FD000041005EB001080F8D0702046FFF772FE19
:106FE00000260320474A02230A2F1AD2DFE807F0BF
:106FF000051919244260197E1983117FA14210D10D
:10700000137795F8CB1102290DD195F8DB100229E1
:1070100009D085F8D63095F8C611002901D085F839
:10702000C601BDE8F08185F8D66095F8C611002943
:10703000F7D085F8C601F4E7117FA142F1D11377AB
:1070400095F8CB1102290CD195F8DB10022908D054
:1070500085F8D63095F8C6110029E2D085F8C6012A
:10706000DFE785F8D66095F8C6110029D9D085F8F4
:10707000C601D6E7117FA142D3D1137795F8CB1182
:1070800002290CD195F8DB10022908D085F8D630FA
:1070900095F8C6110029C4D085F8C601C1E785F866
:1070A000D66095F8C6110029BBD085F8C601B8E7AF
:1070B000117FA142B5D1137795F8CB1102290CD1DC
:1070C00095F8DB10022908D085F8D63095F8C6115E
:1070D0000029A6D085F8C601A3E785F8D66095F803
:1070E000C61100299DD085F8C6019AE72046BDE863
:1070F000F04100F003BE2046BDE8F04100F0FEBDC7
:1071000010060020F007002010B514074FEA427265
:107110004FEAD2624FF00F0303FA02F301FA02F1D1
:1071200004D5426A9A431143416210BD026A9A43F0
:107130001143016210BD10B5C36A5200032494408C
:10714000A34391401943C16210BD0069084201D0B8
:10715000012070470020704770B5056801F00304F6
:10716000530003269E40B5439C402C4304600129F4
:1071700005D0112903D0022901D0122908D1436872
:1071800001249440A343C1F300119140194341608D
:1071900070BD70B506460C4600251DE00120A840D4
:1071A0000140C1B12A4630466169FFF7ADFF2A466A
:1071B00030466168FFF7D0FF2A463046A16800F0EC
:1071C00014F82A463046E16800F019F82A4630469D
:1071D0002169FFF7B0FF6D1C216831FA05F0DDD1A0
:1071E00070BD816270478161704710B5C3685200FD
:1071F00003249440A34391401943C16010BD10B5CE
:10720000836801249440A34391401943816010BDD9
:107210004FF6FF7101600021C16041600F224261A1
:107220008160016170470000004A1047A502FF1FFE
:1072300010B586B06846FFF7EBFF01200190029081
:10724000022000900A4C69462046FFF7A2FF022167
:10725000204600F00FF80821009169462046FFF70C
:1072600098FF0821204600F005F806B010BD000088
:10727000003402408162704781617047002A07D064
:10728000012A07D0022A02D142694A40426170476E
:10729000816270478161704704F096BCFEE7000090
:1072A00010B50446204601F099F80D48C4EB0411CE
:1072B00000EB0112D2F8CC00642190FBF1F301FB4A
:1072C0001303322B03DD90FBF1F0401C01E090FB37
:1072D000F1F0052800DA0520C2F8E400C0B210BDC4
:1072E00010060020022004F06FBC000030B587B00B
:1072F000012111220C03274D00281CD0264B012808
:1073000030D0022815D1029103910820019001A9E3
:107310001846FFF73EFFE000019001A92846FFF75D
:1073200038FF0021022000F073F80021022000F055
:1073300051F807B030BD02920391019401A928468B
:10734000FFF727FF4FF40061019101A92846FFF7DD
:1073500020FF0021084600F05BF80021084600F0FD
:1073600039F8E6E7029203914FF4005001901D4670
:1073700001A92846FFF70DFF019401A92846FFF750
:1073800008FF0021012000F043F80021012000F057
:1073900021F8CEE7003402400038024010B5044620
:1073A0000021204600F016F8204600F0E1FE012101
:1073B000204600F02DF8FFF795FF0121204600F050
:1073C00009F8FFF78FFF2046BDE81040002100F0CC
:1073D00001B80000002809D00B4B01280CD002286E
:1073E00010D10A4608211846FFF748BF0A464FF455
:1073F00080510648FFF742BF0A464FF40051184635
:10740000FFF73CBF704700000038024000340240E4
:107410000C4B002808D001280CD0022810D10A46B5
:1074200081031846FFF72ABF0A464FF40061184649
:10743000FFF724BF0A464FF480510348FFF71EBFF1
:1074400070470000003402400038024070B5064624
:107450000D46304600F08CFE00213046FFF7BAFFA3
:107460000024E9093046FFF7D3FF6806050E012125
:107470003046FFF7AFFFFFF735FF00213046FFF73B
:10748000A9FFFFF72FFF641CE4B2082CE9D370BDFD
:1074900010B50446204600F06BFE01212046FFF7A0
:1074A000B7FF01212046FFF795FFFFF71BFF0021E3
:1074B0002046FFF7ADFFFFF715FF2046BDE810405F
:1074C0000021FFF787BF10B50446204600F050FEAC
:1074D00000212046FFF79CFF01212046FFF77AFF9D
:1074E000FFF700FF01212046FFF792FFFFF7FAFEAA
:1074F0002046BDE810400021FFF76CBF70B505467F
:107500000024284600F012FEFFF7ECFE0121284679
:10751000FFF760FFFFF7E6FE08E0641CE4B2FA2C18
:1075200004D92846FFF7CFFF012070BD284600F0A0
:10753000D7FD0028F1D100212846FFF74BFF00209E
:1075400070BD000070B54FF08046304602F0C5F9BE
:107550000024094D35F82400FEF740FF05EB8400B8
:107560004088FEF7E5FE641CE4B2112CF2D33046ED
:10757000BDE8704002F0ACB98C00002010B50024CA
:107580000F21204600F0BCFF641CE4B2202CF7D38E
:1075900010BD10B540F6520001F03AF840F6020076
:1075A00001F036F8BDE8104040F6060001F030B8B2
:1075B000002181F3108862B6BFF35F8F054900F1A7
:1075C000006020F0FF000860BFF34F8FBFF36F8FA4
:1075D0007047000008ED00E02DE9F05F91460022C1
:1075E00000231C460027A1F1010B17E005460026E9
:1075F000A1EB070AAAF1010A0DE0B5F90080B5F97F
:1076000002C0E04505DDB5F80080A5F800C0A5F88A
:107610000280AD1C761CB245EFDC7F1C5F45E5DBCC
:107620000527B1FBF7F64FEA810C08E030F9161098
:10763000CB1844EBE17402F1010206F10106BCFB38
:10764000F7F1B142F2DCA3FB090504FB0954002168
:1076500003FB0141D317FDF77BFDBDE8F09FFEE77B
:107660007047000070B50F23C27801260178002A08
:107670001ED0144A126802F4E062C2F5E062120AF7
:10768000C2F10404D3404578A54082781A402A43C9
:10769000120101F1E02181F80024007800F01F01BF
:1076A0008E404009800000F1E020C0F8006170BD0C
:1076B00001F01F0086404809800000F1E020C0F87A
:1076C000806170BD0CED00E002490843024908608A
:1076D000704700000000FA050CED00E02DE9F05FB6
:1076E000CD4F002597F84400012808D187F8445071
:1076F00004F044FA4FF48071C848FFF7BBFDC84856
:10770000C84C807C012817D1C54885744FF4F460BB
:1077100002F004FE002002F0A3FA012002F0A0FA19
:10772000207C48B942F606463146002000F048FD6C
:107730003146012000F044FD207C022806D10020C3
:10774000FFF7AEFD0120FFF7ABFD25740024DFF845
:10775000D882DFF8D8A24FF00109B54B2246642148
:10776000B448FEF70FFDB44804EB840B00EB8B002C
:10777000017C02290CD10574C4EB041008EB001045
:1077800090F8D000052803D800212046FFF71AFC06
:10779000AA4800EB8B06B07C022814D1B57404EB28
:1077A000C40101EB4103A649C4EB041001EB8301C2
:1077B00008EB0010096BB0F9C820A1F5FA718A42F4
:1077C00001DA80F8DE909F4800EB8B00817C012974
:1077D00007D185740AEB8400016A491C016203F039
:1077E00051FA307C022803D135742046FFF7B2F8F5
:1077F00004EBC400924E00EB400006EB800090F8D2
:107800004D10022924D1C4EB041108EB0111006BC7
:10781000B1F9C820A0F57A70824219DDD1F8CC0008
:10782000BAF80810884202D93919497F41B1BAF82B
:107830000A10884213D23819407F012804D00EE084
:107840002046FEF79FFF0AE02046FEF781FF06E094
:107850003819407F012802D12046FEF779FF641CC9
:10786000E4B2022CFFF479AF77484078012805D1C3
:10787000387B012807D0787B012804D06848417CF8
:1078800001290CD060E097F8240001285CD187F82A
:10789000245087F828906320FFF714FA54E04574C9
:1078A00097F82800F0B187F828506320FFF70AFA0C
:1078B0000024204600F026FB00210020C4EB041227
:1078C00008EB021B0BEB000292F8DC20012A0CD023
:1078D000401CC0B20628F5D39BF8D00006282FD351
:1078E00051B12DE087F82890DFE7801DC1B2204616
:1078F000FFF768FB0121EFE79BF8DB00022809D1C5
:1079000004EBC40101EB410106EB810191F84D103C
:10791000022902D0022805D00EE004212046FFF7FC
:1079200051FB0DE004EBC40000EB400006EB8000CF
:1079300090F84D0003280CD000212046FFF742FBB1
:10794000641CE4B2022CB4D33548017C012905D073
:1079500007E003212046FFF735FBF1E7057403F04C
:10796000A3FA00240AEB4400808B012834D1C4EB35
:10797000041008EB001BBAF80810DBF8CC008842B2
:1079800008D304EBC40101EB410106EB810191F83E
:107990004D1071B1BAF80A1088421DD204EBC40030
:1079A00000EB400006EB800090F84D0002280CD060
:1079B00012E03878642110FB01F10123234A2046AC
:1079C00000F046F88BF8DB9006E09BF8DB0001281E
:1079D00002D1204600F092F9641CE4B2022CC1D31B
:1079E0000024184E04EB840006EB8000417C012942
:1079F00008D145740AEB4400808B012808D020464A
:107A000000F07CF9641CE4B2022CEBD3BDE8F09FDB
:107A1000204600F073F9F5E7F0070020003402403B
:107A200070050020FC05002010060020A00A0020A0
:107A300050BC000838080020AC0500208405002058
:107A4000C809002048050020D405002000A302003A
:107A50002DE9F05F06460D4690469946DFF860A195
:107A6000C6EB06100AEB001494F8D000062874D276
:107A700006EBC60000EB4001524800EB81000563B5
:107A8000022780F84D700520B5F5FA5F04DB84F815
:107A9000E80084F8E9003AE041F64C52954204DBF4
:107AA00084F8E80084F8E90031E041F65832954264
:107AB00004DB84F8E80084F8E90028E041F6641368
:107AC00004219D4204DB84F8E81084F8E9001EE0FC
:107AD00041F270739D4204DB84F8E81084F8E900F9
:107AE00015E041F27C539D4204DB84F8E81084F8F1
:107AF000E9000CE041F288318D4204DB84F8E87043
:107B000084F8E97003E084F8E87084F8E9702E489E
:107B100006EB860100EB81004FF0010B80F801B00D
:107B2000C0F80480304600F0D5F80021304601F05E
:107B30009BFEB9F1010F03D0B9F1020F0ED035E071
:107B400084F8DBB094F8D000052803D0002130463B
:107B5000FFF738FA8AF8C67128E02FE084F8DB7066
:107B6000642095FBF0F0194921F826003C2098FB91
:107B7000F0F001EB860180B248801E22B0FBF2F3E8
:107B800002FB13034BB1B0FBF2F0401CC0EB001042
:107B90004FF6FF7202EA4000488003F073F8304667
:107BA00001F032FE04213046FFF70CFA3046BDE802
:107BB000F05F022240F6B83101F036BEBDE8F09F1A
:107BC00010060020C809002048050020A00A002057
:107BD00038B500200090154C206820F0800020600F
:107BE000206840F04000206069461148FFF71CFB08
:107BF0000098C0B2052814D869460E48FFF714FB58
:107C00000098010E00F47F02120A00F47F40000287
:107C1000114301430091084A106800F07F40084377
:107C20001060206840F08000206038BD00200240D5
:107C300020F0FF1F30F2FF1F0418004030B58BB05A
:107C4000012000F0D1F9022000F0C6F901A8FFF7E9
:107C5000DFFA022002900590402001900324069450
:107C60001A4D01A92846FFF794FA80210191069444
:107C700001A92846FFF78DFA154C40F2BB1240F6D9
:107C80003F312046FEF747FC07A801F019FF6021AD
:107C9000ADF81C100121ADF81E100021ADF8221026
:107CA000ADF8241007A9204601F01CFE07A92046C4
:107CB00001F05EFE204601F00BFE002000F01EF8F1
:107CC000012000F01BF80BB030BD00000034024072
:107CD0000004004010B5FEF765FE074C204601F099
:107CE000FCFD0021204601F05DFD2046BDE810406E
:107CF000002101F05DBD0000000400402DE9F041CD
:107D0000044604EBC4002F4900EB400001EB800067
:107D100090F84D00002852D02B482C4D14B1012C66
:107D20000FD107E0002101F03DFD40212846FFF77B
:107D3000A1FA06E0002101F03BFD80212846FFF773
:107D400099FA204600F07CF82046FEF701FD204914
:107D5000C4EB041001EB0015002695F8DB000228A7
:107D60000AD02046FEF7F6FD85F8DB602046BDE828
:107D7000F0410021FFF726B91648174A007FC0EBF3
:107D8000001701EB071132F8203021F8D23F02EB47
:107D900080004088488000221E21204601F044FDDA
:107DA00000220A21204601F00FFD00F0B5F985F808
:107DB000DB602046BDE8F0410521FFF703B9BDE8CF
:107DC000F0810000C8090020000400400034024097
:107DD00010060020F0070020A00A002070B504461D
:107DE0001448154D002C02D0012C0FD107E00021C2
:107DF00001F0D8FC40212846FFF73CFA06E00021BC
:107E000001F0D6FC80212846FFF734FA00221E211B
:107E1000204601F009FD2046FEF79AFC04EBC40061
:107E2000064A00EB400002EB8000032180F84D1071
:107E300070BD00000004004000340240C80900206A
:107E400010B5044604EBC40101EB4100074901EB06
:107E500080006C21FDF7C6F904EB84000449BDE8FD
:107E6000104001EB80001421FDF7BCB9C8090020C7
:107E70004805002010B586B06846FFF7C9F9002014
:107E800001904FF480400090064C69462046FFF771
:107E900080F94FF40041009169462046FFF779F9D7
:107EA00006B010BD0038024070B5144C144DE07F90
:107EB00000280DD04FF480412846FFF746F994F88A
:107EC0003C10814202D0E18F491CE18784F83C00DC
:107ED00094F8200000280FD04FF400412846FFF707
:107EE00034F994F83D10814204D0B4F84010491C94
:107EF000A4F8401084F83D0070BD0000F007002099
:107F00000038024070B5164B191891F84220042A27
:107F100003D2521C81F8422070BD03EB4004114B88
:107F2000E68F0025C0EB001203EB0212322E02D8BE
:107F3000CB7F012B0ED082F8DF5081F8215091F8D1
:107F40002110032904D3012182F8DF10FFF7D6FEA8
:107F5000E58770BD91F821305B1C81F82130EEE798
:107F6000F007002010060020044BDA6A22F4806239
:107F700022F4784202430A43DA627047001002405A
:107F8000034AD16A21F00F010143D162704700001A
:107F9000001002400248016841F001010160704791
:107FA000801002400248C16A21F48071C1627047AA
:107FB00000100240034AD16A21F4F8710143D162F2
:107FC000704700000010024002494A6902434A61BA
:107FD00070470000001002400249CA690243CA61AA
:107FE000704700000010024002498A6902438A611A
:107FF000704700000010024030B52F4B59682F4ADF
:1080000011405A6802F480320C0103D4022404EBBC
:10801000914103E06FF4F77404EB91412AB15A687F
:1080200092030BD5264A51430AE01A6CD20702D0BC
:10803000234A514304E0234A514301E0214A51437A
:108040005A6802F00C021F4C7AB3042A30D0082A76
:1080500030D004605A68C2F303121B4CA55C02685E
:10806000EA4042605D68C5F30225655D22FA05F5C8
:1080700085605D68C5F3C225645D22FA04F4C460BE
:10808000DC6A04F00F04104D10352C5DB2FBF4F2E5
:108090004261DA6A120902F00F0205F1100333F8A7
:1080A0001220B1FBF2F1016130BDFFE70460D1E7BE
:1080B0000460CFE70160CDE70010024000003C08FB
:1080C00000093D0000127A0010BC0008034A516804
:1080D00021F4E0610143516070470000001002404C
:1080E000014600200A4A002907D001290AD00229A6
:1080F0000DD189031046FFF728B84FF400611046F0
:10810000FFF723B84FF480510248FFF71EB87047BD
:10811000003402400038024003488089012802D11F
:108120000320FEF7B9B97047A00A00200E490028C5
:108130000AD001280FD0022805D1086820F040405D
:108140000860086808607047086820F4400008600C
:108150000868086070470548016821F040710160B7
:10816000016801607047000000340240003802409E
:10817000114900280CD0012813D0022807D1086823
:1081800020F040400860086840F080400860704778
:10819000086820F440000860086840F48000086027
:1081A00070470648016821F040710160016841F0A4
:1081B00080710160704700000034024000380240C6
:1081C00070B505460C46284600F0ABF888212846D5
:1081D00000F0DBF8284600F02CF8210A284600F0D1
:1081E000D4F8284600F025F8E1B2284600F0CDF892
:1081F000284600F01EF8284600F0ADF8BDE87040B3
:10820000322001F049BB10B5044600212046FFF79B
:10821000FFF801212046FFF7DDF8062002F030FDCF
:1082200000212046FFF7D6F8BDE81040062002F0F6
:1082300027BD70B505462846FFF778FF0021284680
:10824000FFF7C8F801212846FFF7C4F8062002F01E
:1082500017FD03E0641CA4B2642C11D02846FFF77C
:108260003FFF08B1642CF5D300212846FFF7B2F890
:10827000062002F005FD2846FFF77AFF012070BDB9
:10828000002070BD10B5044601212046FFF7C0F85C
:1082900001212046FFF79EF8062002F0F1FC20465F
:1082A000BDE810400021FFF795B82DE9F0410746E1
:1082B0000E4600243846FFF739FF00213846FFF705
:1082C00089F801213846FFF7A3F8062002F0D8FC10
:1082D00000256006040E01213846FFF77BF80620D2
:1082E00002F0CEFC3846FFF7FBFE08B144F0010473
:1082F00000213846FFF76EF8062002F0C1FC6D1C25
:10830000EDB2082DE5D33846FFF732FF2EB13846DF
:10831000FFF779FF2046BDE8F0813846FFF7B2FF4E
:10832000F8E710B5044601212046FFF771F8012156
:108330002046FFF74FF8062002F0A2FC002120465D
:10834000FFF766F800212046FFF744F8BDE810402B
:10835000062002F095BC10B5044601212046FFF727
:1083600039F800212046FFF753F8062002F088FC78
:1083700001212046FFF74CF800212046FFF72AF89C
:10838000BDE81040062002F07BBC70B506460D46E5
:108390000024280604D501213046FFF739F803E010
:1083A00000213046FFF734F801213046FFF712F87C
:1083B000062002F065FC00213046FFF70BF806208E
:1083C00002F05EFC6806050E641CE4B2082CE0D3E3
:1083D0003046BDE870400021FFF71AB87CB504466E
:1083E0000025009501952046FFF79BFF8921204637
:1083F000FFF7CBFF2046FFF71CFF01212046FFF7C8
:1084000054FF8DF8000001212046FFF74EFF8DF844
:10841000010001212046FFF748FF8DF802000121ED
:108420002046FFF742FF8DF8030001212046FFF7A9
:108430003CFF8DF8040000212046FFF736FF8DF841
:1084400005002046FFF787FF0221684600F03EF84E
:108450009DF802201849C4EB041301EB0314904269
:1084600025D102210DF1030000F030F89DF8051030
:1084700088421CD19DF804009DF8031000EB0120F8
:1084800064214843FDF74BF89FED0C1B53EC112B77
:10849000FCF7D6FF9FED0B1B53EC112BFCF75EFF97
:1084A000FDF74AF844F8CC0F257400207CBD01206C
:1084B00084F8DC007CBD00001006002000000000F5
:1084C000E0FFEF40000000000000594070B5054695
:1084D000FF200023312410E0EA5C50400822060609
:1084E00003D584EA4000C0B201E04006000E521EEF
:1084F000D2B2002AF3D15B1CDBB28B42ECD370BD4D
:108500002DE9F04107460E460525DFF800810022DF
:1085100020214046FEF7B2FE0120FEF7BDFE0024FA
:10852000680705D5012280214046FEF7A7FE04E03A
:10853000002280214046FEF7A1FE6806050E0022BB
:1085400040214046FEF79AFE0120FEF7A5FE0122DB
:1085500040214046FEF792FE0120FEF79DFE641C7E
:10856000E4B2032CDCD30024B80605D50122802117
:108570004046FEF783FE04E0002280214046FEF7DD
:108580007DFE7806070E002240214046FEF776FE6B
:108590000120FEF781FE012240214046FEF76EFEDB
:1085A0000120FEF779FE641CE4B2062CDCD3002423
:1085B000300705D5012280214046FEF75FFE04E02A
:1085C000002280214046FEF759FE7006060E00226A
:1085D00040214046FEF752FE0120FEF75DFE0122DB
:1085E00040214046FEF74AFE0120FEF755FE641C7E
:1085F000E4B2042CDCD3012220214046FEF73EFEEB
:10860000BDE8F0410120FEF747BE000000380240FF
:108610002DE9F04105461C4F002220213846FEF787
:108620002DFE0120FEF738FE00244FF6FF762805C8
:1086300005D5012280213846FEF720FE04E0002205
:1086400080213846FEF71AFE06EA45050022402141
:108650003846FEF713FE0120FEF71EFE01224021E0
:108660003846FEF70BFE0120FEF716FE641CE4B24E
:108670000C2CDCD3012220213846FEF7FFFDBDE89B
:10868000F0410120FEF708BE0038024070470000AC
:108690002DE9F84F43215448FCF7AFFD04464C2127
:1086A0005148FCF7AAFD064653214F48FCF7A5FDAB
:1086B0000546002C7DD0002E7BD0002D79D00021E6
:1086C000601C01F061FE51EC100BFCF735FF00F06F
:1086D000FF080021701C01F057FE51EC100BFCF755
:1086E0002BFF84B2ADF800400021681C01F04CFE65
:1086F00051EC100BFCF720FF87B2ADF80270A4F12B
:108700002D0028286ED8B7F5346F6BD83C2F69D36D
:1087100000200126354DDFF8D8A0B8F1000F2ED08B
:108720004FF0030BB8F1010F3FD0B8F1020F59D150
:1087300025F8D24F6F808AF81C00C7EB07104FEA6C
:108740008009642004FB00F802234A4641460020C9
:10875000FFF77EF9A5F8F040A5F8F27085F804B0AF
:1087600085F8F4608AF81C604A46414602230120DD
:10877000FFF76EF9BDE8F84F1EA001F0ABBA25F87F
:10878000D24F6F808AF81C002E71022185F8F410F8
:10879000C7EB07118A00642161430223FFF758F9F0
:1087A000BDE8F84F13A001F095BA104800F1F001B0
:1087B00000E017E0A0F8C241A1F8D4708AF81C804C
:1087C00085F8D6B0304685F8C661C7EB07118A0038
:1087D000642161430223FFF73BF9BDE8F84F05A090
:1087E00001F078BABDE8F88F480400201006002098
:1087F000F00700204D3130206F6B2E0D0A00000075
:1088000010B543211748FCF7F8FC002828D00021B8
:10881000401C01F0B9FD51EC100BFCF78DFE80B24D
:1088200070B1012814D002281AD10020FFF766FA8F
:108830000120FFF763FABDE810400BA001F04ABA2F
:108840000020FFF75BFABDE8104007A001F042BA34
:108850000120FFF753FABDE8104003A001F03ABA37
:1088600010BD0000480400204D3131206F6B2E0DEB
:108870000A0000002DE9F04743213C48FCF7BDFC0D
:10888000002870D00021401C01F07EFD51EC100B3F
:10889000FCF752FE80B2364F6426364CDFF8D880A3
:1088A0003C2560B3012842D002285CD1386B90FB94
:1088B000F6F024F8D20FD8F8040090FBF5F06080B1
:1088C0000020FFF78BFA03210020FEF77BFBD7F88F
:1088D0009C0090FBF6F0A4F8F000D8F8180090FB8C
:1088E000F5F0A4F8F2000120FFF778FA0321012047
:1088F000FEF768FBBDE8F04720A001F0EBB9386B4C
:108900004FF0000990FBF6F024F8D20FD8F80400DD
:1089100090FBF5F060804846FFF760FA0321484677
:10892000FEF750FBBDE8F04714A001F0D3B91048A2
:10893000D0F89C0090FBF6F20E4800F1F001A0F890
:10894000C2210D48806990FBF5F0A1F8D400012008
:10895000FFF744FA01200321FEF734FBBDE8F0479E
:1089600006A001F0B7B9BDE8F08700004804002078
:10897000C809002010060020480500204D31322093
:108980006F6B2E0D0A0000002DE9F8434321534878
:10899000FCF733FC04464C215048FCF72EFC0546FE
:1089A000002C7DD0002D7BD00021601C01F0ECFC60
:1089B00051EC100BFCF7C0FD84B2ADF80040002173
:1089C000681C01F0E1FC51EC100BFCF7B5FD80B226
:1089D000ADF80200424F434D00264FF0010874B13C
:1089E000012C2DD0022C77D1002849D0012873D139
:1089F000002405EB4400818B002960D063E020B1A6
:108A0000012869D1A88B90B115E0A88B012809D164
:108A1000AE8302F037F997F8DB00012802D100207D
:108A2000FFF76CF9BDE8F8432FA001F053B9A5F8A2
:108A30001C8002F027F9BDE8F8432BA001F04AB9E9
:108A400020B1012848D1E88B88B114E0E88B0128D7
:108A500008D1EE8302F016F997F8CB01012801D175
:108A6000FFF74CF9BDE8F8431FA001F033B9A5F8B2
:108A70001E8002F007F9BDE8F8431BA001F02AB9F7
:108A8000002405EB4400818B01290FD1868302F07D
:108A9000F9F8C4EB041007EB001090F8DB0000E0DD
:108AA0001AE0012802D12046FFF728F9641CE4B23D
:108AB000022CE6D3BDE8F8430BA001F00BB9A0F8F7
:108AC0001C8002F0DFF8641CE4B2022C91D3BDE8F4
:108AD000F84305A001F0FEB8BDE8F8834804002083
:108AE00010060020A00A00204D3133206F6B2E0DA0
:108AF0000A000000F0B595B025483C218269406825
:108B00003B323B3090FBF1F392FBF1F4214890F8BB
:108B1000F31090F8F22090F8F15090F8F060CDE961
:108B20001221CDE910651C4AB0F9F660516AD58B67
:108B300001EB81014900CDE90C64CDE90E51174CE0
:108B400090F8EF50C77894F8B960D0F8F810CDE9F4
:108B50000876CDE90A51116A467885780778CDE91B
:108B6000057601EB8101490007950491918BB0F9DD
:108B700006208568CDE90231CDE9005210F8013CAC
:108B800094F84D200021064801F0A4F815B0F0BD7E
:108B900048050020EC060020A00A0020C80900209B
:108BA00020BE000810B5054800210162416202F0B4
:108BB00069F8BDE8104002A001F08CB8A00A0020BE
:108BC0004D3135206F6B2E0D0A00000001A001F021
:108BD00081B800004D3136206F6B2E2056312E307B
:108BE0002E310D0A000000000B49BB200880022234
:108BF0000A4802F009F9022002F0C0FFBFF34F8FCC
:108C000007480168074A01F4E06111430160BFF3BE
:108C10004F8F00BFFDE70000FC000020004000086F
:108C20000CED00E00400FA0510B543211448FCF7F0
:108C3000E4FA002823D00021401C01F0A5FB51ECF0
:108C4000100BFCF779FC81B20E4C11B1012911D146
:108C500008E002212046FEF70DFB08212046FEF722
:108C600009FB07E002212046FEF706FB082120460B
:108C7000FEF702FBBDE8104003A001F02BB810BDC9
:108C800048040020003402404D3138206F6B2E0D17
:108C90000A000000704700002DE9F0411F4D32210D
:108CA00029804FF4F0706880A980E8801C4EA6F8F7
:108CB000D210A6F8D400A6F8C211A6F8C40141F259
:108CC00088322A8140F6B8326A810122AA81EA817B
:108CD000298268823C21A982E88250212983688305
:108CE0000024002705EB4400818B01290BD18783E9
:108CF000C4EB041006EB001090F8DB00012802D151
:108D00002046FEF7FBFF641CE4B2022CEAD301F01C
:108D1000B9FFBDE8F04103A000F0DCBFA00A0020CD
:108D2000100600204D3230206F6B2E0D0A0000001F
:108D30002DE9F04F89B041217548FCF75EFA834672
:108D400042217348FCF759FA054643217048FCF765
:108D500054FA064644216E48FCF74FFA074645216F
:108D60006B48FCF74AFA804646216948FCF745FA09
:108D7000814647216648FCF740FA8246482164480C
:108D8000FCF73BFA069049216148FCF736FA05905A
:108D90004A215F48FCF731FA0446BBF1000F7DD051
:108DA000002D7BD0002E79D0002F77D0B8F1000FA6
:108DB00074D0B9F1000F71D0BAF1000F6ED00698DF
:108DC00000286BD00598002868D0002C66D00021C0
:108DD0000BF1010001F0D8FA51EC100BFCF7ACFBE1
:108DE00000EBC00101EB00104FF6FF7B0BEA8000A7
:108DF000ADF8000008900021681C01F0C5FA51ECA4
:108E0000100BFCF799FB00EBC00101EB00100BEA23
:108E10008000ADF8020007900021701C01F0B4FA48
:108E200051EC100BFCF788FB0546ADF8040000215F
:108E3000781C01F0A9FA51EC100BFCF77DFB0646FB
:108E4000ADF80600002108F1010001F09DFA51EC97
:108E5000100BFCF771FB0746ADF80800002109F183
:108E6000010001F091FA51EC100BFCF765FB804614
:108E7000ADF80A0000210AF1010001F085FA51EC79
:108E8000100BFCF759FB8146ADF80C000698002149
:108E9000401C01F079FA51EC100B00E034E0FCF7D3
:108EA0004BFB8246ADF80E0005980021401C01F0F6
:108EB0006BFA51EC100BFCF73FFB8346ADF810004A
:108EC0000021601C01F060FA51EC100BFCF734FB40
:108ED0000246ADF812000F490898088107984881AA
:108EE0008D81CE810F82A1F81280A1F81490A1F893
:108EF00016A0A1F818B04A8301F0C4FE09B006A07C
:108F0000BDE8F04F00F0E6BE09B0BDE8F08F00000C
:108F100048040020A00A00204D3231206F6B2E0D36
:108F20000A00000070B588B00D48642142890389A9
:108F3000B2FBF1F2B3FBF1F1C58A438B048B868A55
:108F4000CDE90365CDE90543048A438AC589CDE9A6
:108F500000540293838903A000F0BCFE08B070BDEA
:108F6000A00A00204D3232206F6B2E202564202570
:108F70006420256420256420256420256420256440
:108F8000202564202564202564200D0A00000000AF
:108F900010B50D4C02212046FEF723F900F086F8AB
:108FA00001212046FEF71DF9022002F00DFE0221EC
:108FB0002046FEF718F9022002F006FE2046BDE822
:108FC00010400221FEF70DB9003802402DE9F041B2
:108FD00086B04FF480742046FEF7F6FF2046FEF779
:108FE000F3FF6846FEF714F9022400941127019755
:108FF00001250295049400260396DFF83480694623
:109000004046FEF7C6F80095019702950494039632
:1090100069464046FEF7BDF801214046FEF7E3F8F9
:1090200002214046FEF7DFF806B0BDE8F0810000FF
:109030000038024070B5002400F022F800250F4EE1
:1090400002213046FEF7CDF8022002F0BDFD0221DC
:109050003046FEF7C8F86006040E01213046FEF7E0
:1090600074F808B1641CE4B2012002F0ADFD6D1C7F
:10907000EDB2082DE4D3204670BD00000038024058
:1090800000B587B001A8FEF7C3F8012001900021C8
:109090000291039002200590049101A90248FEF775
:1090A00078F807B000BD00000038024010B586B067
:1090B0006846FEF7ADF80120009001900290022072
:1090C000049000200390054C69462046FEF761F8A5
:1090D00001212046FEF787F806B010BD0038024097
:1090E00010B5FFF7E3FF0C4C01212046FEF77BF89B
:1090F00002212046FEF777F8022002F065FD0121EB
:109100002046FEF76EF8022002F05EFD2046BDE824
:1091100010400221FEF765B80038024010B5FFF795
:10912000C5FF0A4C01212046FEF75BF802212046CC
:10913000FEF759F8022002F047FD01212046FEF714
:1091400052F8BDE81040022002F03EBD0038024057
:1091500070B50546FFF7AAFF0024124E280604D575
:1091600001213046FEF73FF803E001213046FEF7CB
:1091700038F8022002F028FD02213046FEF733F8CD
:10918000022002F021FD02213046FEF72AF80220DB
:1091900002F01AFD6806050E641CE4B2082CDDD34B
:1091A000002070BD0038024010B50D4C0221204651
:1091B000FEF717F8FFF77AFF01212046FEF713F8B4
:1091C000022002F001FD02212046FEF70CF80220E9
:1091D00002F0FAFC2046BDE810400221FEF701B87B
:1091E000003802404FF0E021042804D0086920F044
:1091F000040008617047086940F004000861704786
:10920000704700001FB50020029001900090364C7E
:10921000206840F4803020604FF400512068C0F393
:10922000404001900098401C00909DF8040010B947
:1092300000988842F2D12068C0F3404001909DF828
:10924000040070B12948016821F007010160284934
:109250000968C9B2122908D8016841F00301016008
:1092600007E02549234808601FBD016841F003015C
:10927000016060686060606840F400506060606831
:1092800040F4A0606060FEF7A3FC60681B490840E2
:109290006060206C20F001002064606803900398F7
:1092A00040F480300390039840F400300390144958
:1092B0000398084303900398606002982064206834
:1092C00040F08070206020688001FCD5606820F04C
:1092D00003006060606840F0020060606068C0F396
:1092E00081000228FAD11FBD001002400020024078
:1092F000002004E000127A0000000020FFFFC0F709
:1093000000003C0810B51E48016841F4700101607E
:109310001C48016841F00101016041681A4A11408E
:1093200041600168194A11400160016821F48021FF
:1093300001604168164A114041604FF46051C162BA
:10934000016C41F00101016412498160C16941F081
:109350008051C161C16921F08051C1610E4801682D
:1093600041F080010160016821F010010160FFF708
:1093700049FF03494FF000608039086010BD0000CC
:1093800088ED00E0001002400CC07FF8FFFFF6FE01
:10939000FFFFC0F700009F04002002402DE9F05FAE
:1093A0006D4C0121204600F088FA00287ED0012172
:1093B000204600F07FFAFEF777FD0021DFF89CC120
:1093C000DFF89C810223DFF89C9101264FF47A7725
:1093D000002401EB81020CEB82004578012D2CD199
:1093E0001CF822504DBBC5686D1CC560642D24D38C
:1093F000C460067405896D1CADB205810A2D1CD3AD
:10940000048145896D1CADB24581DFF85CB1C1EBCB
:10941000011A0BEB0A1A9AF8DBA0BAF1020F04D179
:10942000B5F5167F01D34481867445686D1E45608D
:10943000002D02DC44604470467408EB82004578DD
:10944000012D1ED1C5686D1CC560BD4219D3C46015
:1094500005896D1CADB20581D0F804A0554510DB1F
:1094600044700481057C012D06D0457C012D05D07A
:10947000857C012D04D004E0037402E0437400E015
:10948000837409EB82004278012A1FD1C268521C02
:10949000C260BA421AD3C4600289521C92B20281DD
:1094A0004568AA4212DB4470048100E052E0027C6D
:1094B000012A06D0427C012A05D0827C012A04D0F0
:1094C00004E0037402E0437400E08374491CC9B2F1
:1094D0000229FFF47EAF2549487848B1087C38B9A5
:1094E000C868401CC8604A68904201D9CC600E74BC
:1094F0001F48C168491CC1600A2911D3C460418951
:10950000491C89B2418106740289521C92B20281BF
:10951000322901D344814674962A01D3048186748A
:1095200014494878012808D1C868401CC8604A68B6
:10953000904202D94C70CC600E740F4948780128D3
:1095400008D1C868401CC8604A68904202D94C7073
:10955000CC600B74BDE8F09F000800404805002077
:1095600084050020AC05002010060020D405002052
:1095700070050020E8050020FC05002010B588B02B
:109580000120FEF731FD4FF4A060FEF79FFD04209F
:10959000FEF722FD02A8FEF72FFD1D208DF8040026
:1095A00000208DF8050001208DF806008DF80700D9
:1095B00001A8FEF757F80C4C632240F27F212046A9
:1095C000FCF7A9FF0121204600F0AEF8012120465A
:1095D00000F070F90121204600F068F9204600F003
:1095E0007CF908B010BD000000080040818570477C
:1095F000002904D0016841F40061016070470168EE
:1096000021F4006101607047002904D0016841F431
:10961000805101607047016821F4805101607047FA
:10962000002904D0016841F40051016070470168CD
:1096300021F4005101607047002904D0016841F411
:10964000804101607047016821F4804101607047EA
:10965000026822F070020A430260704770B5034648
:109660000C46254DAB4207D061881846FFF7F0FF46
:10967000E188184600F08EF8A1881846FFF7B6FF7B
:109680002188184600F04EF81C4A1D4E934201D026
:10969000B34203D1217A184600F048F80121184658
:1096A00000F042F8AB4203D0617A1846FFF7A0FF02
:1096B0004FF08045934209D0B34207D0AB4205D06A
:1096C0001048834202D01048834203D1617B184680
:1096D00000F01CF8AB420DD1A17A1846FFF794FFB9
:1096E000E17A1846FFF79CFF217BBDE870401846E1
:1096F000FFF7A2BF70BD000000100040002C014029
:10970000003401400004004000080040002904D05B
:10971000016841F4004101607047016821F4004193
:1097200001607047018570478182704701867047EC
:109730004FF6FF71818000210180C180418001725C
:1097400041728172C172017341738173704700006D
:1097500003490022CA6001234B700A7448607047B5
:10976000E8050020026A01238B409A430262704799
:10977000026A01238B401A4302627047026A042383
:109780008B409A4302627047026A04238B401A435B
:1097900002627047026822F44072026002680A4363
:1097A00002607047426B6FF30F020A4342637047D7
:1097B000826B6FF30F020A4382637047C26B6FF3D1
:1097C0000F020A43C263704710B500EB80040D48D6
:1097D000012300EB8400437041600021C1600181DE
:1097E000002A07D0012A09D0022A02D1017441744B
:1097F000837410BD03744174817410BD017443748B
:10980000817410BDAC05002000EB800205480021EA
:1098100000EB820041704160C160018101744174BC
:1098200081747047AC05002010B500EB80040D4832
:10983000012300EB8400437041600021C16001817D
:10984000002A07D0012A09D0022A02D101744174EA
:10985000837410BD03744174817410BD017443742A
:10986000817410BD8405002000EB800309480022AC
:1098700000EB830042704260C2600281002905D083
:10988000012905D0022900D1827470470274704703
:10989000427470478405002003490022CA600122F7
:1098A0004A700A7448607047FC05002082890A43A8
:1098B00082817047C9430161704702690A4080890B
:1098C0000840002A02D008B10120704700207047EC
:1098D000016821F0010101607047016841F0010158
:1098E00001607047F0B505460C4600212846FFF799
:1098F00039FF6E68288B20F0700020F00300278865
:10990000074321890022284600F0D1F8608820B161
:1099100000212846FFF72CFF03E000212846FFF72F
:1099200021FF1148854202D01048854217D1618934
:109930000022284600F0B2F8A08820B10021284675
:10994000FFF722FF03E000212846FFF717FF26F468
:10995000807020F40070A1890143E6890E436E6097
:109960002F83E0886863F0BD002C01400034014083
:10997000F0B505460C4604212846FFF7F3FE6E6855
:10998000288B20F4E04020F4407021884FF6FF72CD
:1099900002EA0127074321890422284600F087F8BC
:1099A000608820B104212846FFF7E2FE03E004218D
:1099B0002846FFF7D7FE1248854202D0114885425B
:1099C00019D161890422284600F068F8A08820B1E6
:1099D00004212846FFF7D8FE03E004212846FFF7BC
:1099E000CDFE26F4806020F40060A18940EA810069
:1099F000E18940EA81066E602F83E088A863F0BDAC
:109A0000002C014000340140F0B505460C46082109
:109A10002846FFF7A7FE6E68E86980B220F0700064
:109A200020F003002788074321890822284600F0F8
:109A30003EF8608820B108212846FFF799FE03E030
:109A400008212846FFF78EFE1248854202D01248B0
:109A5000854219D161890822284600F01FF8A088A4
:109A600020B108212846FFF78FFE03E00821284691
:109A7000FFF784FE26F4805020F40050A18940EACC
:109A80000110E18940EA01166E60EF61E088E86349
:109A9000F0BD0000002C01400034014010B5036A05
:109AA00008249440A34391401943016210BD10B5AE
:109AB000036A02249440A34391401943016210BDFC
:109AC0000021018041808180C180018141818181AB
:109AD000C1817047034A0023D360507013745160F2
:109AE00070470000D405002004490020C860487079
:109AF00008744860024981F823007047D4050020AB
:109B0000F00700202DE9F05F00EBC00202EB4203FA
:109B10004F4A02EB8302D2F86080C2F86480D56DB0
:109B20001566966DD665576D9765D2F850C0C2F828
:109B300054C01165DFF81C91C0EB001409EB041947
:109B4000454C136B4FF0000A34F81040884514DD83
:109B5000A84512DBB54210DBBE420EDB67450CDBCD
:109B60008C450ADB8B4208DDA3F1460B8B4504DAFA
:109B700092F868B0BBF1000F16D0884519DAA845F5
:109B800017DCB54215DCBE4213DC674511DC8C45A1
:109B90000FDCA3F146058D420BDA89F8DEA0C2F88E
:109BA00044A082F868A01FE05464012182F8681084
:109BB0001AE0A3F52F758D4205DA463B8B4202DD94
:109BC00092F8683033B18D4209DD5464012182F886
:109BD000681009E05464012182F8681004E092F8EA
:109BE000681009B9C2F844A0194B92F8681079B10D
:109BF00099F8E850A94201D3C2F844A0491CC9B25F
:109C000082F8681099F8E950A94201D982F868A051
:109C1000516CA14201DD546403E0002901DAC2F86D
:109C200044A001000D4809D001290ED10849B1F81E
:109C3000B010BDE8F05F89B2FFF7BABDB3F84410C9
:109C4000BDE8F05F89B2FFF7ADBDBDE8F09F000051
:109C5000C809002010060020700000200004004009
:109C600010B51A49C0EB001201EB0214B4F9C81088
:109C700000EBC00000EB4002154800EB8200006BD7
:109C8000A0F1C80300F1C8028B4203DC8A4201DB69
:109C9000014614E08A4208DA00F5C8728A4204DDFF
:109CA000091AC83900EB410109E0A0F5C8728A42DF
:109CB00005DA8B4203DD091AC83100EB410164204B
:109CC00091FBF0F0A4F8E200C0B210BD1006002035
:109CD000C80900200FB4F8B5144D2878002803D027
:109CE0000020F8BC5DF814FB07AB4FF480763146DA
:109CF0000F48069A00F02EFB044600200090002C2E
:109D000011DDFF2C0FD831460A48FDF7B5FA0120C6
:109D10002870094806490165846407484430FCF707
:109D20003DFC0120DDE70020DBE7000068000020AB
:109D30000C010020003402400000024010B5294808
:109D4000417801294CD1002141704D212648FBF773
:109D500054FA002844D04D212348FBF74EFA002145
:109D6000401C00F011FB51EC100BFBF7E5FBC0B2FF
:109D70000A380D282DD2DFE800F0070A0D1013165F
:109D8000191C1E2124272A00FEF782FC21E0FEF781
:109D900037FD1EE0FEF76EFD1BE0FEF7F5FD18E057
:109DA000FEF7A8FE15E0FEF7FDFE12E0FEF70EFF3F
:109DB0000FE0FEF719FFFEF737FF0AE0FEF76AFF34
:109DC00007E0FEF769FF04E0FEF7B2FF01E0FFF7EE
:109DD000A9F8BDE810404FF480710348FBF702BAC0
:109DE00010BD0000680000204804002010B50020CD
:109DF000064A074902EB8003D3F8F03701EB8004F1
:109E0000E362401CC0B20428F4D310BD00F0FF1F71
:109E1000F00700202DE9F041284D40F2244128466A
:109E200000F080F9264E4FF480782F1DF8B13046AF
:109E3000FCF7AFFB3046FCF7C0FB224C4042C1B2FE
:109E4000A17059B12049424601F58070FBF7B1F984
:109E500041461D48FBF7C6F9012060702888388804
:109E600041463046FCF7ACFB3046FCF797FB2C46EE
:109E70000821204600F0EEF878B90421204600F0D1
:109E8000E9F850B90121204600F0E4F828B9022190
:109E9000204600F0DFF800280DD0208838883046B2
:109EA000FCF777FB41463046FCF78AFB3046BDE8BD
:109EB000F041FCF773BBBDE8F081000000380140C1
:109EC00058000240680000204803002030B587B0E9
:109ED00004460D4601A8FEF78FF81448844205D0C9
:109EE00013498C4202D013498C4201D1049A00E0FC
:109EF000039AA90002EBC20000EB0210B0FBF1F1E3
:109F00006423B1FBF3F0020110096FF018056843F8
:109F100001EB8000322101EB0010B0FBF3F000F008
:109F20000F001043208107B030BD00000038014011
:109F3000005001400054014010B5144800F063F98E
:109F400012484FF4E131016000218180C18001811C
:109F500081810C2141810E4C0146204600F0B2F86F
:109F6000C021204600F06AF840F22441204600F06B
:109F7000C6F80848FCF70DFB06481430FCF70EFB4A
:109F80002046BDE8104000F05DB800000C02002043
:109F900000380140440002402DE9F05FDFF890A056
:109FA0005046FCF789FB244C224F276004F12C001B
:109FB00060601020A0604FF48078C4F80C80002509
:109FC00025614FF08009C4F81490A561E561256210
:109FD0004FF440566662A56221465046FCF7FAFAF5
:109FE00001215046FCF7DFFADFF844B00BF1140B07
:109FF0005846FCF761FB276004F596706060A56029
:10A00000C4F80C802561C4F81490A561E56125624F
:10A010006662A56221465846FCF7DCFA02215846E2
:10A02000FCF7C1FA5046BDE8F05F0221FCF70CBB1B
:10A0300044000240043801401C020020828A0A4386
:10A0400082827047818941F4005181817047C94300
:10A05000018070470088084201D00120704700202D
:10A060007047000070B586B06846FDF7D1F801244E
:10A0700001940294250200950E4E69463046FDF784
:10A0800088F829463046FDF7F5F861020091022173
:10A09000019102940524059469463046FDF779F84C
:10A0A000A8000090059469463046FDF772F806B0A6
:10A0B00070BD000000340240828A22F440720A43DC
:10A0C0008282704770B505460C4628462168FFF726
:10A0D000FDFEA188284600F0A1F8E188284600F09E
:10A0E0008CF82189284600F065F86189284600F03F
:10A0F00037F8A1892846BDE87040FFF7DDBFC1F3FE
:10A10000421201F01F0301219940012A06D0022AC0
:10A1100006D0143002680A43026070470C30F9E739
:10A120001030F7E730B5C1F3421301F01F040125E9
:10A1300005FA04F2012B0BD0022B0CD0838A1340BA
:10A14000090A8D400088284043B138B1012030BD54
:10A1500083891340F4E7038A1340F1E7002030BD00
:10A16000828922F00C020A438281704770B5104C3C
:10A1700024202070002565700320A0700126E67061
:10A180002046FDF76FFA0F20207065700420A07044
:10A19000E6702046FDF766FA0E20207065700520F7
:10A1A000A070E6702046BDE87040FDF75BBA000085
:10A1B0006B000020828922F4C0620A4382817047CA
:10A1C00010B50120FDF700FF8020FDF7FDFE012006
:10A1D000FDF70AFFBDE810404FF48040FDF704BFD3
:10A1E00010B5FFF7EDFFFFF7C1FFFFF73BFFFFF7EC
:10A1F000D3FEBDE81040FFF79FBE028A22F4405212
:10A200000A43028270474FF4165101600021818099
:10A21000C18001810C22428181817047828922F4B0
:10A2200080520A4382817047FEE7000010B500208B
:10A23000234A4FF4346122F81010401CC0B20228A7
:10A24000F9D3204800210170012141700221817061
:10A250000322C270042280F8F020052280F8F12049
:10A26000062280F8F220072280F8F32000F2091479
:10A270002177FFF7BBFD32202070134B00226421B1
:10A280001248FBF7F9FF104B012264210F48FBF73E
:10A29000F3FF0020FFF7E4FC0120FFF7E1FCA4F549
:10A2A000FA70007C00280AD142F606442146FDF7E8
:10A2B00087FF2146BDE810400120FDF781BF10BD9A
:10A2C00070000020E706002050BC0008380800207D
:10A2D00070B506460C4615464FF40060FDF77CFE4F
:10A2E000304600F01DF8204600F024F8284600F023
:10A2F00005F82846BDE8704000F008B8C0F30D002E
:10A300000149086070470000002C0040024940F4F9
:10A310008040086070470000002C0040FFF7EEBF4F
:10A32000034A116821F44041014311607047000065
:10A33000042C004008B506490A686FF30D0200922C
:10A34000009AC0F30D00104300900098086008BD0B
:10A35000042C00407CB50C001D461646014601D079
:10A36000601E00E00020CDE90010064B6A46294639
:10A37000304600F0F7F8002C02D0009A002111704E
:10A380007CBD00006BAC000800B583B09FED060BF0
:10A390000A4601468DED000B6846FBF764F99DED1A
:10A3A000000B03B000BD0000000000000000000032
:10A3B00002E008C8121F08C1002AFAD1704770478E
:10A3C000002001E001C1121F002AFBD170470000EC
:10A3D0002DE9FF5F82B00021DDE90430020DDDF8D8
:10A3E00040B0034318D044F61050A2F2FF3242436B
:10A3F0001514119801281FD0A5EB0B00401C5FEA33
:10A40000000A4FF000064E4FDFF83891B046504634
:10A4100015D5CAF1000413E0119801244AA30128BC
:10A4200001D16FEA0B010298119AC0E90031C0E92D
:10A43000024206B0BDE8F09FCBF10000DFE7044622
:10A440000021404A491842EB0450CDE9001012E0C7
:10A45000E00707D032463B4640464946FAF77EFFC2
:10A460008046894632463B4610461946FAF776FF43
:10A4700006460F466410002CEAD1DDE90401DDE94F
:10A480000023BAF1000F06DAFAF768FF42464B469E
:10A49000FAF764FF05E0FAF7D3FF42464B46FAF7B6
:10A4A000CFFF04460E460022284BFBF7BBF903D82A
:10A4B0004FF0FF30014607E00022254B2046314691
:10A4C000FAF7A5FEFBF796F9102409E0002C0ADB49
:10A4D0000A220023FAF73CFE039B30321A55641E11
:10A4E00050EA0102F2D1641C039AC4F1110314442E
:10A4F000119A012A03D0012208430DD10AE0084332
:10A5000004D000204FF0110B119072E7A3EB0B0564
:10A510006D1E0DE05B4504DD4FF0000205F1010505
:10A5200004E003DA4FF00002A5F10105002AECD0A7
:10A5300002981199C0E90231C0E9004579E70000AD
:10A54000000014400000F03F300000000000F04325
:10A550000000E03F30380A2801D201207047002077
:10A56000704700002DE9FF4F95B09A468846064691
:10A570000025EEE1252877D100242746F94A01215C
:10A58000039400E0044316F8013F203B01FA03F076
:10A590001042F7D130782A2811D06FF02F0330788D
:10A5A000A0F13002092A16D8039A44F0020402EB03
:10A5B000820203EB42021044761C0390EFE758F846
:10A5C000042B0392002A03DA504244F4005403900F
:10A5D00044F00204761C30782E2816D116F8010FAC
:10A5E00044F004042A280DD06FF02F023078A0F137
:10A5F0003003092B09D807EB870302EB4303C71885
:10A60000761CF3E758F8047B761C30786C280FD062
:10A6100006DC4C2817D068280DD06A2814D104E035
:10A62000742810D07A280FD10DE044F400140AE009
:10A6300044F4801401E044F440147278824202D160
:10A6400004F58014761C761C307866280BD013DC59
:10A65000582877D009DC002875D04528F6D0462840
:10A66000F4D047281AD193E118E0632835D0642844
:10A6700079D0652812D18BE1702873D008DC672867
:10A68000F1D069286FD06E280DD06F2806D1ACE0CC
:10A6900073282CD0752874D0782853D05246179937
:10A6A00090476D1C54E1C4F30250022809D00328DE
:10A6B0000DD0D8F8001004280DD00D6008F1040862
:10A6C00046E1D8F80010EA17C1E90052F6E7D8F8D9
:10A6D00000100D80F2E70D70F0E718F8041B8DF8FC
:10A6E000001000208DF80100EB46012003E058F82F
:10A6F00004BB4FF0FF3061074FF0000102D40DE0C2
:10A7000009F101018946B9420FDA8145F8DB1BF8EE
:10A7100009100029F4D108E009F1010189468142BC
:10A72000FADB1BF809100029F6D103985346A0EB79
:10A73000090721463846179A00F080FA284400EBB2
:10A74000090507E044E008E10DE01BF8010B524663
:10A7500017999047B9F10109F7D253462146384677
:10A76000179AF2E039E00A21C4F302524FF0000BCD
:10A770000091022A06D058F8040BC117032A09D009
:10A780000AE023E008F1070020F00702F2E80201E6
:10A79000904605E000B2C117042A01D140B2C117AA
:10A7A000002906DA0A460021404261EB02012D220F
:10A7B00002E0220504D52B228DF80420012203E0BB
:10A7C000E20701D02022F7E7914657E00A2100E096
:10A7D00010214FF0000B00910BE010214FF0000B07
:10A7E00044F004040827009103E008204FF0000B18
:10A7F0000090C4F30252022A05D058F8040B00213D
:10A80000032A08D008E008F1070020F00702F2E868
:10A810000201904603E080B2042A00D1C0B24FF09A
:10A82000000922072AD53278702A07D0DDF800C047
:10A830008CF0100C5CEA0B0C05D00EE040228DF879
:10A840000420012208E050EA010306D030238DF8ED
:10A8500004308DF8052002229146009B83F0080306
:10A8600053EA0B030AD150EA010201D1620705D570
:10A8700030228DF804204FF001097F1E3278582ACB
:10A8800004D039A20C920CAA02920BE03BA2F9E789
:10A890005B46009AFAF75CFC0C9B9B5C029A521E8A
:10A8A0000292137050EA0102F2D1029804A9081A28
:10A8B00000F1200B600702D524F4803400E001276A
:10A8C0005F4502DDA7EB0B0000E0002000EB0B0171
:10A8D000009003984944401A0390E00306D453467D
:10A8E0002146179A039800F0A9F90544002706E0CD
:10A8F00001A85246C05D179990476D1C7F1C4F45BB
:10A90000F6DBE0030CD553462146179A039800F076
:10A9100095F9054404E030205246179990476D1C84
:10A920000099481E00900029F5DC08E00298029981
:10A9300052460078491C0291179990476D1CBBF153
:10A940000001ABF1010BF1DC5BE100F065F90544BE
:10A95000761C307800287FF40DAE19B02846BDE88B
:10A96000F08F00000928010030313233343536379A
:10A97000383961626364656600000000303132334B
:10A9800034353637383941424344454600000000EB
:10A99000600700D4062708F1070020F00700F0E860
:10A9A0000223804603F0004C5FEA0C0001D097A020
:10A9B00009E0200501D596A005E0E00701D095A0AB
:10A9C00001E0AFF24C001390307823F0004365288B
:10A9D0000CD006DC452809D046281DD047287FD159
:10A9E0003BE0662818D067287AD136E00021112F85
:10A9F00001DB112000E0781CCDE9000104A90CA8BE
:10AA0000FFF7E6FCDDE90D010C9A4FF0000B07F1B2
:10AA10000109109200914EE04FF000400097CDE9FF
:10AA2000011004A90CA8FFF7D3FCDDE90D020C9B73
:10AA30000F994FF0000B91461093009211B9791CB9
:10AA400000EB0109B7EB090003D4C0F1FF3B07F1AC
:10AA50000109A9EB0700019042E0012F00DA01276C
:10AA60000021112F01DD112000E03846CDE9000161
:10AA700004A90CA8FFF7ACFCDDE90D010C9A0091CC
:10AA80004FF0000BB946109221070FD4009A4A45A7
:10AA900003DA914601E0A9F10109B9F1010F05DDE1
:10AAA000109AA9F10101515C3029F4D0B84202DAC0
:10AAB00010F1040F03DA0121CDE9011010E00028A4
:10AAC00003DC8344A9EB000102E0411C494500DDA1
:10AAD0008946A0EB0B00401C01904FF00040029013
